Component: ARM Compiler 5.06 update 6 (build 750) Tool: armlink [4d35ed]

==============================================================================

Section Cross References

    startup_stm32f103xb.o(RESET) refers to startup_stm32f103xb.o(STACK) for __initial_sp
    startup_stm32f103xb.o(RESET) refers to startup_stm32f103xb.o(.text) for Reset_Handler
    startup_stm32f103xb.o(RESET) refers to stm32f1xx_it.o(i.NMI_Handler) for NMI_Handler
    startup_stm32f103xb.o(RESET) refers to context_rvds.o(.text) for HardFault_Handler
    startup_stm32f103xb.o(RESET) refers to stm32f1xx_it.o(i.MemManage_Handler) for MemManage_Handler
    startup_stm32f103xb.o(RESET) refers to stm32f1xx_it.o(i.BusFault_Handler) for BusFault_Handler
    startup_stm32f103xb.o(RESET) refers to stm32f1xx_it.o(i.UsageFault_Handler) for UsageFault_Handler
    startup_stm32f103xb.o(RESET) refers to stm32f1xx_it.o(i.SVC_Handler) for SVC_Handler
    startup_stm32f103xb.o(RESET) refers to stm32f1xx_it.o(i.DebugMon_Handler) for DebugMon_Handler
    startup_stm32f103xb.o(RESET) refers to board.o(i.SysTick_Handler) for SysTick_Handler
    startup_stm32f103xb.o(.text) refers to system_stm32f1xx.o(i.SystemInit) for SystemInit
    startup_stm32f103xb.o(.text) refers to entry.o(.ARM.Collect$$$$00000000) for __main
    app_rt_thread.o(i.MX_RT_Thread_Init) refers to thread.o(i.rt_thread_create) for rt_thread_create
    app_rt_thread.o(i.MX_RT_Thread_Init) refers to thread.o(i.rt_thread_startup) for rt_thread_startup
    app_rt_thread.o(i.MX_RT_Thread_Init) refers to app_rt_thread.o(i.led1_thread_entry) for led1_thread_entry
    app_rt_thread.o(i.MX_RT_Thread_Init) refers to app_rt_thread.o(.data) for .data
    app_rt_thread.o(i.MX_RT_Thread_Init) refers to app_rt_thread.o(i.led2_thread_entry) for led2_thread_entry
    app_rt_thread.o(i.led1_thread_entry) refers to stm32f1xx_hal_gpio.o(i.HAL_GPIO_WritePin) for HAL_GPIO_WritePin
==============================================================================

Removing Unused input sections from the image.

    Removing startup_stm32f103xb.o(HEAP), (512 bytes).
    Removing app_rt_thread.o(.rev16_text), (4 bytes).
    Removing app_rt_thread.o(.revsh_text), (4 bytes).
    Removing app_rt_thread.o(.rrx_text), (6 bytes).
    Removing main.o(.rev16_text), (4 bytes).
    Removing main.o(.revsh_text), (4 bytes).
    Removing main.o(.rrx_text), (6 bytes).
    Removing main.o(i.Error_Handler), (2 bytes).
    Removing gpio.o(.rev16_text), (4 bytes).
    Removing gpio.o(.revsh_text), (4 bytes).
    Removing gpio.o(.rrx_text), (6 bytes).
    Removing stm32f1xx_it.o(.rev16_text), (4 bytes).
    Removing stm32f1xx_it.o(.revsh_text), (4 bytes).
    Removing stm32f1xx_it.o(.rrx_text), (6 bytes).
    Removing stm32f1xx_hal_msp.o(.rev16_text), (4 bytes).
    Removing stm32f1xx_hal_msp.o(.revsh_text), (4 bytes).
    Removing stm32f1xx_hal_msp.o(.rrx_text), (6 bytes).
    Removing stm32f1xx_hal_gpio_ex.o(.rev16_text), (4 bytes).
==============================================================================

Image Symbol Table

    Local Symbols

    Symbol Name                              Value     Ov Type        Size  Object(Section)

    ../Drivers/STM32F1xx_HAL_Driver/Src/stm32f1xx_hal.c 0x00000000   Number         0  stm32f1xx_hal.o ABSOLUTE
    ../Drivers/STM32F1xx_HAL_Driver/Src/stm32f1xx_hal_cortex.c 0x00000000   Number         0  stm32f1xx_hal_cortex.o ABSOLUTE
    ../Drivers/STM32F1xx_HAL_Driver/Src/stm32f1xx_hal_dma.c 0x00000000   Number         0  stm32f1xx_hal_dma.o ABSOLUTE
    ../Drivers/STM32F1xx_HAL_Driver/Src/stm32f1xx_hal_exti.c 0x00000000   Number         0  stm32f1xx_hal_exti.o ABSOLUTE
    ../Drivers/STM32F1xx_HAL_Driver/Src/stm32f1xx_hal_flash.c 0x00000000   Number         0  stm32f1xx_hal_flash.o ABSOLUTE
    ../Drivers/STM32F1xx_HAL_Driver/Src/stm32f1xx_hal_flash_ex.c 0x00000000   Number         0  stm32f1xx_hal_flash_ex.o ABSOLUTE
    ../Drivers/STM32F1xx_HAL_Driver/Src/stm32f1xx_hal_gpio.c 0x00000000   Number         0  stm32f1xx_hal_gpio.o ABSOLUTE
    ../Drivers/STM32F1xx_HAL_Driver/Src/stm32f1xx_hal_gpio_ex.c 0x00000000   Number         0  stm32f1xx_hal_gpio_ex.o ABSOLUTE
    ../Drivers/STM32F1xx_HAL_Driver/Src/stm32f1xx_hal_pwr.c 0x00000000   Number         0  stm32f1xx_hal_pwr.o ABSOLUTE
    ../Drivers/STM32F1xx_HAL_Driver/Src/stm32f1xx_hal_rcc.c 0x00000000   Number         0  stm32f1xx_hal_rcc.o ABSOLUTE
    ../Drivers/STM32F1xx_HAL_Driver/Src/stm32f1xx_hal_rcc_ex.c 0x00000000   Number         0  stm32f1xx_hal_rcc_ex.o ABSOLUTE
    ../Drivers/STM32F1xx_HAL_Driver/Src/stm32f1xx_hal_tim.c 0x00000000   Number         0  stm32f1xx_hal_tim.o ABSOLUTE
    ../Drivers/STM32F1xx_HAL_Driver/Src/stm32f1xx_hal_tim_ex.c 0x00000000   Number         0  stm32f1xx_hal_tim_ex.o ABSOLUTE
    ../Middlewares/Third_Party/RealThread_RTOS_RT-Thread/bsp/board.c 0x00000000   Number         0  board.o ABSOLUTE
    ../Middlewares/Third_Party/RealThread_RTOS_RT-Thread/libcpu/arm/cortex-m3/context_rvds.S 0x00000000   Number         0  context_rvds.o ABSOLUTE
    ../Middlewares/Third_Party/RealThread_RTOS_RT-Thread/libcpu/arm/cortex-m3/cpuport.c 0x00000000   Number         0  cpuport.o ABSOLUTE
    ../Middlewares/Third_Party/RealThread_RTOS_RT-Thread/src/clock.c 0x00000000   Number         0  clock.o ABSOLUTE
    ../Middlewares/Third_Party/RealThread_RTOS_RT-Thread/src/components.c 0x00000000   Number         0  components.o ABSOLUTE
    ../Middlewares/Third_Party/RealThread_RTOS_RT-Thread/src/idle.c 0x00000000   Number         0  idle.o ABSOLUTE
    ../Middlewares/Third_Party/RealThread_RTOS_RT-Thread/src/ipc.c 0x00000000   Number         0  ipc.o ABSOLUTE
    ../Middlewares/Third_Party/RealThread_RTOS_RT-Thread/src/irq.c 0x00000000   Number         0  irq.o ABSOLUTE
    ../Middlewares/Third_Party/RealThread_RTOS_RT-Thread/src/kservice.c 0x00000000   Number         0  kservice.o ABSOLUTE
    ../Middlewares/Third_Party/RealThread_RTOS_RT-Thread/src/mem.c 0x00000000   Number         0  mem.o ABSOLUTE
    ../Middlewares/Third_Party/RealThread_RTOS_RT-Thread/src/object.c 0x00000000   Number         0  object.o ABSOLUTE
    ../Middlewares/Third_Party/RealThread_RTOS_RT-Thread/src/scheduler.c 0x00000000   Number         0  scheduler.o ABSOLUTE
    ../Middlewares/Third_Party/RealThread_RTOS_RT-Thread/src/thread.c 0x00000000   Number         0  thread.o ABSOLUTE
    ../Middlewares/Third_Party/RealThread_RTOS_RT-Thread/src/timer.c 0x00000000   Number         0  timer.o ABSOLUTE
    ../Src/gpio.c                            0x00000000   Number         0  gpio.o ABSOLUTE
    ../Src/main.c                            0x00000000   Number         0  main.o ABSOLUTE
    ../Src/stm32f1xx_hal_msp.c               0x00000000   Number         0  stm32f1xx_hal_msp.o ABSOLUTE
    ../Src/stm32f1xx_it.c                    0x00000000   Number         0  stm32f1xx_it.o ABSOLUTE
    ../Src/system_stm32f1xx.c                0x00000000   Number         0  system_stm32f1xx.o ABSOLUTE
    ../clib/microlib/init/entry.s            0x00000000   Number         0  entry8b.o ABSOLUTE
    ../clib/microlib/init/entry.s            0x00000000   Number         0  entry.o ABSOLUTE
    ../clib/microlib/init/entry.s            0x00000000   Number         0  entry2.o ABSOLUTE
    ../clib/microlib/init/entry.s            0x00000000   Number         0  entry7a.o ABSOLUTE
    ../clib/microlib/init/entry.s            0x00000000   Number         0  entry7b.o ABSOLUTE
    ../clib/microlib/init/entry.s            0x00000000   Number         0  entry8a.o ABSOLUTE
    ../clib/microlib/init/entry.s            0x00000000   Number         0  entry9a.o ABSOLUTE
    ../clib/microlib/init/entry.s            0x00000000   Number         0  entry11b.o ABSOLUTE
    ../clib/microlib/init/entry.s            0x00000000   Number         0  entry5.o ABSOLUTE
    ../clib/microlib/init/entry.s            0x00000000   Number         0  entry9b.o ABSOLUTE
    ../clib/microlib/init/entry.s            0x00000000   Number         0  entry10a.o ABSOLUTE
    ../clib/microlib/init/entry.s            0x00000000   Number         0  entry10b.o ABSOLUTE
    ../clib/microlib/init/entry.s            0x00000000   Number         0  entry11a.o ABSOLUTE
    ../clib/microlib/longlong.c              0x00000000   Number         0  llushr.o ABSOLUTE
    ../clib/microlib/string/memset.c         0x00000000   Number         0  memseta.o ABSOLUTE
    ..\Drivers\STM32F1xx_HAL_Driver\Src\stm32f1xx_hal.c 0x00000000   Number         0  stm32f1xx_hal.o ABSOLUTE
    ..\Drivers\STM32F1xx_HAL_Driver\Src\stm32f1xx_hal_cortex.c 0x00000000   Number         0  stm32f1xx_hal_cortex.o ABSOLUTE
    ..\Drivers\STM32F1xx_HAL_Driver\Src\stm32f1xx_hal_dma.c 0x00000000   Number         0  stm32f1xx_hal_dma.o ABSOLUTE
    ..\Drivers\STM32F1xx_HAL_Driver\Src\stm32f1xx_hal_exti.c 0x00000000   Number         0  stm32f1xx_hal_exti.o ABSOLUTE
    ..\Drivers\STM32F1xx_HAL_Driver\Src\stm32f1xx_hal_flash.c 0x00000000   Number         0  stm32f1xx_hal_flash.o ABSOLUTE
    ..\Drivers\STM32F1xx_HAL_Driver\Src\stm32f1xx_hal_flash_ex.c 0x00000000   Number         0  stm32f1xx_hal_flash_ex.o ABSOLUTE
    ..\Drivers\STM32F1xx_HAL_Driver\Src\stm32f1xx_hal_gpio.c 0x00000000   Number         0  stm32f1xx_hal_gpio.o ABSOLUTE
    ..\Drivers\STM32F1xx_HAL_Driver\Src\stm32f1xx_hal_gpio_ex.c 0x00000000   Number         0  stm32f1xx_hal_gpio_ex.o ABSOLUTE
    ..\Drivers\STM32F1xx_HAL_Driver\Src\stm32f1xx_hal_pwr.c 0x00000000   Number         0  stm32f1xx_hal_pwr.o ABSOLUTE
    ..\Drivers\STM32F1xx_HAL_Driver\Src\stm32f1xx_hal_rcc.c 0x00000000   Number         0  stm32f1xx_hal_rcc.o ABSOLUTE
    ..\Drivers\STM32F1xx_HAL_Driver\Src\stm32f1xx_hal_rcc_ex.c 0x00000000   Number         0  stm32f1xx_hal_rcc_ex.o ABSOLUTE
    ..\Drivers\STM32F1xx_HAL_Driver\Src\stm32f1xx_hal_tim.c 0x00000000   Number         0  stm32f1xx_hal_tim.o ABSOLUTE
    ..\Drivers\STM32F1xx_HAL_Driver\Src\stm32f1xx_hal_tim_ex.c 0x00000000   Number         0  stm32f1xx_hal_tim_ex.o ABSOLUTE
    ..\Src\app_rt_thread.c                   0x00000000   Number         0  app_rt_thread.o ABSOLUTE
    ..\Src\gpio.c                            0x00000000   Number         0  gpio.o ABSOLUTE
    ..\Src\main.c                            0x00000000   Number         0  main.o ABSOLUTE
    ..\Src\stm32f1xx_hal_msp.c               0x00000000   Number         0  stm32f1xx_hal_msp.o ABSOLUTE
    ..\Src\stm32f1xx_it.c                    0x00000000   Number         0  stm32f1xx_it.o ABSOLUTE
    ..\Src\system_stm32f1xx.c                0x00000000   Number         0  system_stm32f1xx.o ABSOLUTE
    ..\\Src\\app_rt_thread.c                 0x00000000   Number         0  app_rt_thread.o ABSOLUTE
    dc.s                                     0x00000000   Number         0  dc.o ABSOLUTE
    handlers.s                               0x00000000   Number         0  handlers.o ABSOLUTE
    init.s                                   0x00000000   Number         0  init.o ABSOLUTE
    startup_stm32f103xb.s                    0x00000000   Number         0  startup_stm32f103xb.o ABSOLUTE
    RESET                                    0x08000000   Section      236  startup_stm32f103xb.o(RESET)
    .ARM.Collect$$$$00000000                 0x080000ec   Section        0  entry.o(.ARM.Collect$$$$00000000)
    .ARM.Collect$$$$00000001                 0x080000ec   Section        4  entry2.o(.ARM.Collect$$$$00000001)
    .ARM.Collect$$$$00000004                 0x080000f0   Section        4  entry5.o(.ARM.Collect$$$$00000004)
    .ARM.Collect$$$$00000008                 0x080000f4   Section        0  entry7b.o(.ARM.Collect$$$$00000008)
    .ARM.Collect$$$$0000000A                 0x080000f4   Section        0  entry8b.o(.ARM.Collect$$$$0000000A)
    .ARM.Collect$$$$0000000B                 0x080000f4   Section        8  entry9a.o(.ARM.Collect$$$$0000000B)
    .ARM.Collect$$$$0000000D                 0x080000fc   Section        0  entry10a.o(.ARM.Collect$$$$0000000D)
    .ARM.Collect$$$$0000000F                 0x080000fc   Section        0  entry11a.o(.ARM.Collect$$$$0000000F)
    .ARM.Collect$$$$00002712                 0x080000fc   Section        4  entry2.o(.ARM.Collect$$$$00002712)
    __lit__00000000                          0x080000fc   Data           4  entry2.o(.ARM.Collect$$$$00002712)
    .text                                    0x08000100   Section       36  startup_stm32f103xb.o(.text)
    .text                                    0x08000124   Section      244  context_rvds.o(.text)
    .text                                    0x08000218   Section        0  memseta.o(.text)
    .text                                    0x0800023c   Section       36  init.o(.text)
    i.$Sub$$main                             0x08000260   Section        0  components.o(i.$Sub$$main)
    i.BusFault_Handler                       0x0800026a   Section        0  stm32f1xx_it.o(i.BusFault_Handler)
    i.DebugMon_Handler                       0x0800026c   Section        0  stm32f1xx_it.o(i.DebugMon_Handler)
    i.HAL_GPIO_Init                          0x08000270   Section        0  stm32f1xx_hal_gpio.o(i.HAL_GPIO_Init)
    i.HAL_GPIO_WritePin                      0x08000450   Section        0  stm32f1xx_hal_gpio.o(i.HAL_GPIO_WritePin)
    i.HAL_GetTick                            0x0800045c   Section        0  stm32f1xx_hal.o(i.HAL_GetTick)
    i.HAL_Init                               0x08000468   Section        0  stm32f1xx_hal.o(i.HAL_Init)
    i.HAL_InitTick                           0x0800048c   Section        0  stm32f1xx_hal.o(i.HAL_InitTick)
    i.HAL_MspInit                            0x080004cc   Section        0  stm32f1xx_hal_msp.o(i.HAL_MspInit)
    i.HAL_NVIC_SetPriority                   0x08000508   Section        0  stm32f1xx_hal_cortex.o(i.HAL_NVIC_SetPriority)
    i.HAL_NVIC_SetPriorityGrouping           0x08000548   Section        0  stm32f1xx_hal_cortex.o(i.HAL_NVIC_SetPriorityGrouping)
    i.HAL_RCC_ClockConfig                    0x0800056c   Section        0  stm32f1xx_hal_rcc.o(i.HAL_RCC_ClockConfig)
    i.HAL_RCC_GetSysClockFreq                0x08000698   Section        0  stm32f1xx_hal_rcc.o(i.HAL_RCC_GetSysClockFreq)
    i.HAL_RCC_OscConfig                      0x08000704   Section        0  stm32f1xx_hal_rcc.o(i.HAL_RCC_OscConfig)
    i.HAL_SYSTICK_Config                     0x08000a24   Section        0  stm32f1xx_hal_cortex.o(i.HAL_SYSTICK_Config)
    i.MX_GPIO_Init                           0x08000a4c   Section        0  gpio.o(i.MX_GPIO_Init)
    i.MX_RT_Thread_Init                      0x08000abc   Section        0  app_rt_thread.o(i.MX_RT_Thread_Init)
    i.MemManage_Handler                      0x08000b28   Section        0  stm32f1xx_it.o(i.MemManage_Handler)
    i.NMI_Handler                            0x08000b2a   Section        0  stm32f1xx_it.o(i.NMI_Handler)
    i.SVC_Handler                            0x08000b2c   Section        0  stm32f1xx_it.o(i.SVC_Handler)
    i.SysTick_Handler                        0x08000b2e   Section        0  board.o(i.SysTick_Handler)
    i.SystemClock_Config                     0x08000b40   Section        0  main.o(i.SystemClock_Config)
    i.SystemCoreClockUpdate                  0x08000b84   Section        0  system_stm32f1xx.o(i.SystemCoreClockUpdate)
    i.SystemInit                             0x08000bec   Section        0  system_stm32f1xx.o(i.SystemInit)
    i.UsageFault_Handler                     0x08000c34   Section        0  stm32f1xx_it.o(i.UsageFault_Handler)
    i.__NVIC_SetPriority                     0x08000c36   Section        0  stm32f1xx_hal_cortex.o(i.__NVIC_SetPriority)
    __NVIC_SetPriority                       0x08000c37   Thumb Code    32  stm32f1xx_hal_cortex.o(i.__NVIC_SetPriority)
    i.__rt_ffs                               0x08000c58   Section        0  kservice.o(i.__rt_ffs)
    i.__scatterload_copy                     0x08000c9c   Section       14  handlers.o(i.__scatterload_copy)
    i.__scatterload_null                     0x08000caa   Section        2  handlers.o(i.__scatterload_null)
    i.__scatterload_zeroinit                 0x08000cac   Section       14  handlers.o(i.__scatterload_zeroinit)
    i._has_defunct_thread                    0x08000cbc   Section        0  idle.o(i._has_defunct_thread)
    _has_defunct_thread                      0x08000cbd   Thumb Code    16  idle.o(i._has_defunct_thread)
    i._rt_thread_init                        0x08000cd0   Section        0  thread.o(i._rt_thread_init)
    _rt_thread_init                          0x08000cd1   Thumb Code   118  thread.o(i._rt_thread_init)
    i._rt_timer_init                         0x08000d50   Section        0  timer.o(i._rt_timer_init)
    _rt_timer_init                           0x08000d51   Thumb Code    28  timer.o(i._rt_timer_init)
    i._rt_timer_remove                       0x08000d6c   Section        0  timer.o(i._rt_timer_remove)
    _rt_timer_remove                         0x08000d6d   Thumb Code    18  timer.o(i._rt_timer_remove)
    i.led1_thread_entry                      0x08000d80   Section        0  app_rt_thread.o(i.led1_thread_entry)
    led1_thread_entry                        0x08000d81   Thumb Code    44  app_rt_thread.o(i.led1_thread_entry)
    i.led2_thread_entry                      0x08000db0   Section        0  app_rt_thread.o(i.led2_thread_entry)
    led2_thread_entry                        0x08000db1   Thumb Code    44  app_rt_thread.o(i.led2_thread_entry)
    i.main                                   0x08000de0   Section        0  main.o(i.main)
    i.main_thread_entry                      0x08000df2   Section        0  components.o(i.main_thread_entry)
    i.plug_holes                             0x08000e00   Section        0  mem.o(i.plug_holes)
    plug_holes                               0x08000e01   Thumb Code    80  mem.o(i.plug_holes)
    i.print_number                           0x08000e54   Section        0  kservice.o(i.print_number)
    print_number                             0x08000e55   Thumb Code   300  kservice.o(i.print_number)
    i.rt_application_init                    0x08000f84   Section        0  components.o(i.rt_application_init)
    i.rt_components_board_init               0x08000fb0   Section        0  components.o(i.rt_components_board_init)
    i.rt_components_init                     0x08000fcc   Section        0  components.o(i.rt_components_init)
    i.rt_enter_critical                      0x08000fe8   Section        0  scheduler.o(i.rt_enter_critical)
    i.rt_exit_critical                       0x08001004   Section        0  scheduler.o(i.rt_exit_critical)
    i.rt_free                                0x0800103c   Section        0  mem.o(i.rt_free)
    i.rt_heap_begin_get                      0x08001100   Section        0  board.o(i.rt_heap_begin_get)
    i.rt_heap_end_get                        0x08001108   Section        0  board.o(i.rt_heap_end_get)
    i.rt_hw_board_init                       0x08001110   Section        0  board.o(i.rt_hw_board_init)
    i.rt_hw_console_output                   0x08001160   Section        0  kservice.o(i.rt_hw_console_output)
    i.rt_hw_hard_fault_exception             0x08001164   Section        0  cpuport.o(i.rt_hw_hard_fault_exception)
    i.rt_hw_stack_init                       0x08001358   Section        0  cpuport.o(i.rt_hw_stack_init)
    i.rt_interrupt_enter                     0x08001390   Section        0  irq.o(i.rt_interrupt_enter)
    i.rt_interrupt_leave                     0x080013ac   Section        0  irq.o(i.rt_interrupt_leave)
    i.rt_kprintf                             0x080013c8   Section        0  kservice.o(i.rt_kprintf)
    i.rt_list_insert_after                   0x080013e8   Section        0  object.o(i.rt_list_insert_after)
    rt_list_insert_after                     0x080013e9   Thumb Code    14  object.o(i.rt_list_insert_after)
    i.rt_list_insert_after                   0x080013f6   Section        0  thread.o(i.rt_list_insert_after)
    rt_list_insert_after                     0x080013f7   Thumb Code    14  thread.o(i.rt_list_insert_after)
    i.rt_list_insert_after                   0x08001404   Section        0  timer.o(i.rt_list_insert_after)
    rt_list_insert_after                     0x08001405   Thumb Code    14  timer.o(i.rt_list_insert_after)
    i.rt_list_insert_before                  0x08001412   Section        0  ipc.o(i.rt_list_insert_before)
    rt_list_insert_before                    0x08001413   Thumb Code    14  ipc.o(i.rt_list_insert_before)
    i.rt_list_remove                         0x08001420   Section        0  object.o(i.rt_list_remove)
    rt_list_remove                           0x08001421   Thumb Code    18  object.o(i.rt_list_remove)
    i.rt_list_remove                         0x08001432   Section        0  thread.o(i.rt_list_remove)
    rt_list_remove                           0x08001433   Thumb Code    18  thread.o(i.rt_list_remove)
    i.rt_malloc                              0x08001444   Section        0  mem.o(i.rt_malloc)
    i.rt_memset                              0x08001534   Section        0  kservice.o(i.rt_memset)
    i.rt_object_allocate                     0x0800157a   Section        0  object.o(i.rt_object_allocate)
    i.rt_object_delete                       0x080015ca   Section        0  object.o(i.rt_object_delete)
    i.rt_object_detach                       0x080015f0   Section        0  object.o(i.rt_object_detach)
    i.rt_object_get_information              0x08001610   Section        0  object.o(i.rt_object_get_information)
    i.rt_object_init                         0x08001634   Section        0  object.o(i.rt_object_init)
    i.rt_object_is_systemobject              0x08001684   Section        0  object.o(i.rt_object_is_systemobject)
    i.rt_schedule                            0x08001694   Section        0  scheduler.o(i.rt_schedule)
    i.rt_schedule_insert_thread              0x080016ec   Section        0  scheduler.o(i.rt_schedule_insert_thread)
    i.rt_schedule_remove_thread              0x0800173c   Section        0  scheduler.o(i.rt_schedule_remove_thread)
    i.rt_sem_init                            0x08001784   Section        0  ipc.o(i.rt_sem_init)
    i.rt_sem_release                         0x080017a8   Section        0  ipc.o(i.rt_sem_release)
    i.rt_sem_take                            0x080017de   Section        0  ipc.o(i.rt_sem_take)
    i.rt_show_version                        0x0800188c   Section        0  kservice.o(i.rt_show_version)
    i.rt_strlen                              0x0800193c   Section        0  kservice.o(i.rt_strlen)
    i.rt_strncpy                             0x0800194c   Section        0  kservice.o(i.rt_strncpy)
    i.rt_system_heap_init                    0x08001974   Section        0  mem.o(i.rt_system_heap_init)
    i.rt_system_scheduler_init               0x08001a20   Section        0  scheduler.o(i.rt_system_scheduler_init)
    i.rt_system_scheduler_start              0x08001a54   Section        0  scheduler.o(i.rt_system_scheduler_start)
    i.rt_system_timer_init                   0x08001a7c   Section        0  timer.o(i.rt_system_timer_init)
    i.rt_system_timer_thread_init            0x08001a88   Section        0  timer.o(i.rt_system_timer_thread_init)
    i.rt_thread_create                       0x08001a8a   Section        0  thread.o(i.rt_thread_create)
    i.rt_thread_delay                        0x08001ad2   Section        0  thread.o(i.rt_thread_delay)
    i.rt_thread_exit                         0x08001ad8   Section        0  thread.o(i.rt_thread_exit)
    i.rt_thread_idle_entry                   0x08001b30   Section        0  idle.o(i.rt_thread_idle_entry)
    rt_thread_idle_entry                     0x08001b31   Thumb Code     6  idle.o(i.rt_thread_idle_entry)
    i.rt_thread_idle_excute                  0x08001b38   Section        0  idle.o(i.rt_thread_idle_excute)
    i.rt_thread_idle_init                    0x08001bb0   Section        0  idle.o(i.rt_thread_idle_init)
    i.rt_thread_init                         0x08001be8   Section        0  thread.o(i.rt_thread_init)
    i.rt_thread_resume                       0x08001c18   Section        0  thread.o(i.rt_thread_resume)
    i.rt_thread_self                         0x08001c54   Section        0  thread.o(i.rt_thread_self)
    i.rt_thread_sleep                        0x08001c60   Section        0  thread.o(i.rt_thread_sleep)
    i.rt_thread_startup                      0x08001ca0   Section        0  thread.o(i.rt_thread_startup)
    i.rt_thread_suspend                      0x08001ccc   Section        0  thread.o(i.rt_thread_suspend)
    i.rt_thread_timeout                      0x08001d0e   Section        0  thread.o(i.rt_thread_timeout)
    i.rt_thread_yield                        0x08001d30   Section        0  thread.o(i.rt_thread_yield)
    i.rt_tick_get                            0x08001d90   Section        0  clock.o(i.rt_tick_get)
    i.rt_tick_increase                       0x08001d9c   Section        0  clock.o(i.rt_tick_increase)
    i.rt_timer_check                         0x08001dc8   Section        0  timer.o(i.rt_timer_check)
    i.rt_timer_control                       0x08001e30   Section        0  timer.o(i.rt_timer_control)
    i.rt_timer_detach                        0x08001e60   Section        0  timer.o(i.rt_timer_detach)
    i.rt_timer_init                          0x08001e80   Section        0  timer.o(i.rt_timer_init)
    i.rt_timer_start                         0x08001ea8   Section        0  timer.o(i.rt_timer_start)
    i.rt_timer_stop                          0x08001f34   Section        0  timer.o(i.rt_timer_stop)
    i.rt_vsnprintf                           0x08001f64   Section        0  kservice.o(i.rt_vsnprintf)
    i.rti_board_end                          0x080021e0   Section        0  components.o(i.rti_board_end)
    rti_board_end                            0x080021e1   Thumb Code     4  components.o(i.rti_board_end)
    i.rti_board_start                        0x080021e4   Section        0  components.o(i.rti_board_start)
    rti_board_start                          0x080021e5   Thumb Code     4  components.o(i.rti_board_start)
    i.rti_end                                0x080021e8   Section        0  components.o(i.rti_end)
    rti_end                                  0x080021e9   Thumb Code     4  components.o(i.rti_end)
    i.rti_start                              0x080021ec   Section        0  components.o(i.rti_start)
    rti_start                                0x080021ed   Thumb Code     4  components.o(i.rti_start)
    i.rtthread_startup                       0x080021f0   Section        0  components.o(i.rtthread_startup)
    i.skip_atoi                              0x0800221a   Section        0  kservice.o(i.skip_atoi)
    skip_atoi                                0x0800221b   Thumb Code    40  kservice.o(i.skip_atoi)
    .constdata                               0x08002242   Section       16  system_stm32f1xx.o(.constdata)
    .constdata                               0x08002252   Section      290  kservice.o(.constdata)
    small_digits                             0x08002352   Data          17  kservice.o(.constdata)
    large_digits                             0x08002363   Data          17  kservice.o(.constdata)
    .rti_fn.0                                0x08002374   Section        4  components.o(.rti_fn.0)
    __tagsym$$used                           0x08002374   Number         0  components.o(.rti_fn.0)
    .rti_fn.0.end                            0x08002378   Section        4  components.o(.rti_fn.0.end)
    __tagsym$$used                           0x08002378   Number         0  components.o(.rti_fn.0.end)
    .rti_fn.1.end                            0x0800237c   Section        4  components.o(.rti_fn.1.end)
    __tagsym$$used                           0x0800237c   Number         0  components.o(.rti_fn.1.end)
    .rti_fn.6.end                            0x08002380   Section        4  components.o(.rti_fn.6.end)
    __tagsym$$used                           0x08002380   Number         0  components.o(.rti_fn.6.end)
    .data                                    0x20000000   Section        8  app_rt_thread.o(.data)
    led1_thread                              0x20000000   Data           4  app_rt_thread.o(.data)
    led2_thread                              0x20000004   Data           4  app_rt_thread.o(.data)
    .data                                    0x20000008   Section       12  stm32f1xx_hal.o(.data)
    .data                                    0x20000014   Section        4  system_stm32f1xx.o(.data)
    .data                                    0x20000018   Section        4  clock.o(.data)
    rt_tick                                  0x20000018   Data           4  clock.o(.data)
    .data                                    0x2000001c   Section        1  irq.o(.data)
    .data                                    0x20000020   Section       24  mem.o(.data)
    heap_ptr                                 0x20000020   Data           4  mem.o(.data)
    heap_end                                 0x20000024   Data           4  mem.o(.data)
    lfree                                    0x20000028   Data           4  mem.o(.data)
    mem_size_aligned                         0x2000002c   Data           4  mem.o(.data)
    used_mem                                 0x20000030   Data           4  mem.o(.data)
    max_mem                                  0x20000034   Data           4  mem.o(.data)
    .data                                    0x20000038   Section       48  object.o(.data)
    rt_object_container                      0x20000038   Data          48  object.o(.data)
    .data                                    0x20000068   Section       20  scheduler.o(.data)
    rt_scheduler_lock_nest                   0x2000006a   Data           2  scheduler.o(.data)
    .data                                    0x2000007c   Section       12  timer.o(.data)
    random_nr                                0x2000007c   Data           4  timer.o(.data)
    rt_timer_list                            0x20000080   Data           8  timer.o(.data)
    .data                                    0x20000088   Section        4  cpuport.o(.data)
    rt_exception_hook                        0x20000088   Data           4  cpuport.o(.data)
    .data                                    0x2000008c   Section        4  cpuport.o(.data)
    .data                                    0x20000090   Section        4  cpuport.o(.data)
    .data                                    0x20000094   Section        4  cpuport.o(.data)
    .bss                                     0x20000098   Section     4096  board.o(.bss)
    rt_heap                                  0x20000098   Data        4096  board.o(.bss)
    .bss                                     0x20001098   Section      376  idle.o(.bss)
    idle                                     0x20001098   Data         120  idle.o(.bss)
    rt_thread_stack                          0x20001110   Data         256  idle.o(.bss)
    .bss                                     0x20001210   Section      128  kservice.o(.bss)
    rt_log_buf                               0x20001210   Data         128  kservice.o(.bss)
    .bss                                     0x20001290   Section       32  mem.o(.bss)
    heap_sem                                 0x20001290   Data          32  mem.o(.bss)
    .bss                                     0x200012b0   Section      256  scheduler.o(.bss)
    STACK                                    0x200013b0   Section     1024  startup_stm32f103xb.o(STACK)

    Global Symbols

    Symbol Name                              Value     Ov Type        Size  Object(Section)

    BuildAttributes$$THM_ISAv4$P$D$K$B$S$PE$A:L22UL41UL21$X:L11$S22US41US21$IEEE1$IW$USESV6$~STKCKD$USESV7$~SHL$OSPACE$EBA8$MICROLIB$REQ8$PRES8$EABIv2 0x00000000   Number         0  anon$$obj.o ABSOLUTE
    __ARM_use_no_argv                        0x00000000   Number         0  main.o ABSOLUTE
    __cpp_initialize__aeabi_                  - Undefined Weak Reference
    __cxa_finalize                            - Undefined Weak Reference
    __decompress                              - Undefined Weak Reference
    _clock_init                               - Undefined Weak Reference
    _microlib_exit                            - Undefined Weak Reference
    __Vectors_Size                           0x000000ec   Number         0  startup_stm32f103xb.o ABSOLUTE
    __Vectors                                0x08000000   Data           4  startup_stm32f103xb.o(RESET)
    __Vectors_End                            0x080000ec   Data           0  startup_stm32f103xb.o(RESET)
    __main                                   0x080000ed   Thumb Code     0  entry.o(.ARM.Collect$$$$00000000)
    _main_stk                                0x080000ed   Thumb Code     0  entry2.o(.ARM.Collect$$$$00000001)
    _main_scatterload                        0x080000f1   Thumb Code     0  entry5.o(.ARM.Collect$$$$00000004)
    __main_after_scatterload                 0x080000f5   Thumb Code     0  entry5.o(.ARM.Collect$$$$00000004)
    _main_clock                              0x080000f5   Thumb Code     0  entry7b.o(.ARM.Collect$$$$00000008)
    _main_cpp_init                           0x080000f5   Thumb Code     0  entry8b.o(.ARM.Collect$$$$0000000A)
    _main_init                               0x080000f5   Thumb Code     0  entry9a.o(.ARM.Collect$$$$0000000B)
    __rt_final_cpp                           0x080000fd   Thumb Code     0  entry10a.o(.ARM.Collect$$$$0000000D)
    __rt_final_exit                          0x080000fd   Thumb Code     0  entry11a.o(.ARM.Collect$$$$0000000F)
    Reset_Handler                            0x08000101   Thumb Code     8  startup_stm32f103xb.o(.text)
    ADC1_2_IRQHandler                        0x0800011b   Thumb Code     0  startup_stm32f103xb.o(.text)
    CAN1_RX1_IRQHandler                      0x0800011b   Thumb Code     0  startup_stm32f103xb.o(.text)
    CAN1_SCE_IRQHandler                      0x0800011b   Thumb Code     0  startup_stm32f103xb.o(.text)
    DMA1_Channel1_IRQHandler                 0x0800011b   Thumb Code     0  startup_stm32f103xb.o(.text)
    DMA1_Channel2_IRQHandler                 0x0800011b   Thumb Code     0  startup_stm32f103xb.o(.text)
    DMA1_Channel3_IRQHandler                 0x0800011b   Thumb Code     0  startup_stm32f103xb.o(.text)
    DMA1_Channel4_IRQHandler                 0x0800011b   Thumb Code     0  startup_stm32f103xb.o(.text)
    DMA1_Channel5_IRQHandler                 0x0800011b   Thumb Code     0  startup_stm32f103xb.o(.text)
    DMA1_Channel6_IRQHandler                 0x0800011b   Thumb Code     0  startup_stm32f103xb.o(.text)
    DMA1_Channel7_IRQHandler                 0x0800011b   Thumb Code     0  startup_stm32f103xb.o(.text)
    EXTI0_IRQHandler                         0x0800011b   Thumb Code     0  startup_stm32f103xb.o(.text)
    EXTI15_10_IRQHandler                     0x0800011b   Thumb Code     0  startup_stm32f103xb.o(.text)
    EXTI1_IRQHandler                         0x0800011b   Thumb Code     0  startup_stm32f103xb.o(.text)
    EXTI2_IRQHandler                         0x0800011b   Thumb Code     0  startup_stm32f103xb.o(.text)
    EXTI3_IRQHandler                         0x0800011b   Thumb Code     0  startup_stm32f103xb.o(.text)
    EXTI4_IRQHandler                         0x0800011b   Thumb Code     0  startup_stm32f103xb.o(.text)
    EXTI9_5_IRQHandler                       0x0800011b   Thumb Code     0  startup_stm32f103xb.o(.text)
    FLASH_IRQHandler                         0x0800011b   Thumb Code     0  startup_stm32f103xb.o(.text)
    I2C1_ER_IRQHandler                       0x0800011b   Thumb Code     0  startup_stm32f103xb.o(.text)
    I2C1_EV_IRQHandler                       0x0800011b   Thumb Code     0  startup_stm32f103xb.o(.text)
    I2C2_ER_IRQHandler                       0x0800011b   Thumb Code     0  startup_stm32f103xb.o(.text)
    I2C2_EV_IRQHandler                       0x0800011b   Thumb Code     0  startup_stm32f103xb.o(.text)
    PVD_IRQHandler                           0x0800011b   Thumb Code     0  startup_stm32f103xb.o(.text)
    RCC_IRQHandler                           0x0800011b   Thumb Code     0  startup_stm32f103xb.o(.text)
    RTC_Alarm_IRQHandler                     0x0800011b   Thumb Code     0  startup_stm32f103xb.o(.text)
    RTC_IRQHandler                           0x0800011b   Thumb Code     0  startup_stm32f103xb.o(.text)
    SPI1_IRQHandler                          0x0800011b   Thumb Code     0  startup_stm32f103xb.o(.text)
    SPI2_IRQHandler                          0x0800011b   Thumb Code     0  startup_stm32f103xb.o(.text)
    TAMPER_IRQHandler                        0x0800011b   Thumb Code     0  startup_stm32f103xb.o(.text)
    TIM1_BRK_IRQHandler                      0x0800011b   Thumb Code     0  startup_stm32f103xb.o(.text)
    TIM1_CC_IRQHandler                       0x0800011b   Thumb Code     0  startup_stm32f103xb.o(.text)
    TIM1_TRG_COM_IRQHandler                  0x0800011b   Thumb Code     0  startup_stm32f103xb.o(.text)
    TIM1_UP_IRQHandler                       0x0800011b   Thumb Code     0  startup_stm32f103xb.o(.text)
    TIM2_IRQHandler                          0x0800011b   Thumb Code     0  startup_stm32f103xb.o(.text)
    TIM3_IRQHandler                          0x0800011b   Thumb Code     0  startup_stm32f103xb.o(.text)
    TIM4_IRQHandler                          0x0800011b   Thumb Code     0  startup_stm32f103xb.o(.text)
    USART1_IRQHandler                        0x0800011b   Thumb Code     0  startup_stm32f103xb.o(.text)
    USART2_IRQHandler                        0x0800011b   Thumb Code     0  startup_stm32f103xb.o(.text)
    USART3_IRQHandler                        0x0800011b   Thumb Code     0  startup_stm32f103xb.o(.text)
    USBWakeUp_IRQHandler                     0x0800011b   Thumb Code     0  startup_stm32f103xb.o(.text)
    USB_HP_CAN1_TX_IRQHandler                0x0800011b   Thumb Code     0  startup_stm32f103xb.o(.text)
    USB_LP_CAN1_RX0_IRQHandler               0x0800011b   Thumb Code     0  startup_stm32f103xb.o(.text)
    WWDG_IRQHandler                          0x0800011b   Thumb Code     0  startup_stm32f103xb.o(.text)
    rt_hw_interrupt_disable                  0x08000125   Thumb Code     8  context_rvds.o(.text)
    rt_hw_interrupt_enable                   0x0800012d   Thumb Code     6  context_rvds.o(.text)
    rt_hw_context_switch                     0x08000133   Thumb Code    32  context_rvds.o(.text)
    rt_hw_context_switch_interrupt           0x08000133   Thumb Code     0  context_rvds.o(.text)
    PendSV_Handler                           0x08000153   Thumb Code    60  context_rvds.o(.text)
    rt_hw_context_switch_to                  0x0800018f   Thumb Code    58  context_rvds.o(.text)
    rt_hw_interrupt_thread_switch            0x080001c9   Thumb Code     2  context_rvds.o(.text)
    HardFault_Handler                        0x080001cb   Thumb Code    52  context_rvds.o(.text)
    __aeabi_memset                           0x08000219   Thumb Code    14  memseta.o(.text)
    __aeabi_memset4                          0x08000219   Thumb Code     0  memseta.o(.text)
    __aeabi_memset8                          0x08000219   Thumb Code     0  memseta.o(.text)
    __aeabi_memclr                           0x08000227   Thumb Code     4  memseta.o(.text)
    __aeabi_memclr4                          0x08000227   Thumb Code     0  memseta.o(.text)
    __aeabi_memclr8                          0x08000227   Thumb Code     0  memseta.o(.text)
    _memset$wrapper                          0x0800022b   Thumb Code    18  memseta.o(.text)
    __scatterload                            0x0800023d   Thumb Code    28  init.o(.text)
    __scatterload_rt2                        0x0800023d   Thumb Code     0  init.o(.text)
    main                                     0x08000261   Thumb Code    10  components.o(i.$Sub$$main)
    BusFault_Handler                         0x0800026b   Thumb Code     2  stm32f1xx_it.o(i.BusFault_Handler)
    DebugMon_Handler                         0x0800026d   Thumb Code     2  stm32f1xx_it.o(i.DebugMon_Handler)
    HAL_GPIO_Init                            0x08000271   Thumb Code   446  stm32f1xx_hal_gpio.o(i.HAL_GPIO_Init)
    HAL_GPIO_WritePin                        0x08000451   Thumb Code    10  stm32f1xx_hal_gpio.o(i.HAL_GPIO_WritePin)
    HAL_GetTick                              0x0800045d   Thumb Code     6  stm32f1xx_hal.o(i.HAL_GetTick)
    HAL_Init                                 0x08000469   Thumb Code    32  stm32f1xx_hal.o(i.HAL_Init)
    HAL_InitTick                             0x0800048d   Thumb Code    54  stm32f1xx_hal.o(i.HAL_InitTick)
    HAL_MspInit                              0x080004cd   Thumb Code    52  stm32f1xx_hal_msp.o(i.HAL_MspInit)
    HAL_NVIC_SetPriority                     0x08000509   Thumb Code    60  stm32f1xx_hal_cortex.o(i.HAL_NVIC_SetPriority)
    HAL_NVIC_SetPriorityGrouping             0x08000549   Thumb Code    26  stm32f1xx_hal_cortex.o(i.HAL_NVIC_SetPriorityGrouping)
    HAL_RCC_ClockConfig                      0x0800056d   Thumb Code   280  stm32f1xx_hal_rcc.o(i.HAL_RCC_ClockConfig)
    HAL_RCC_GetSysClockFreq                  0x08000699   Thumb Code    74  stm32f1xx_hal_rcc.o(i.HAL_RCC_GetSysClockFreq)
    HAL_RCC_OscConfig                        0x08000705   Thumb Code   778  stm32f1xx_hal_rcc.o(i.HAL_RCC_OscConfig)
    HAL_SYSTICK_Config                       0x08000a25   Thumb Code    40  stm32f1xx_hal_cortex.o(i.HAL_SYSTICK_Config)
    MX_GPIO_Init                             0x08000a4d   Thumb Code   104  gpio.o(i.MX_GPIO_Init)
    MX_RT_Thread_Init                        0x08000abd   Thumb Code    78  app_rt_thread.o(i.MX_RT_Thread_Init)
    MemManage_Handler                        0x08000b29   Thumb Code     2  stm32f1xx_it.o(i.MemManage_Handler)
    NMI_Handler                              0x08000b2b   Thumb Code     2  stm32f1xx_it.o(i.NMI_Handler)
    SVC_Handler                              0x08000b2d   Thumb Code     2  stm32f1xx_it.o(i.SVC_Handler)
    SysTick_Handler                          0x08000b2f   Thumb Code    18  board.o(i.SysTick_Handler)
    SystemClock_Config                       0x08000b41   Thumb Code    66  main.o(i.SystemClock_Config)
    SystemCoreClockUpdate                    0x08000b85   Thumb Code    82  system_stm32f1xx.o(i.SystemCoreClockUpdate)
    SystemInit                               0x08000bed   Thumb Code    56  system_stm32f1xx.o(i.SystemInit)
    UsageFault_Handler                       0x08000c35   Thumb Code     2  stm32f1xx_it.o(i.UsageFault_Handler)
    __rt_ffs                                 0x08000c59   Thumb Code    62  kservice.o(i.__rt_ffs)
    __scatterload_copy                       0x08000c9d   Thumb Code    14  handlers.o(i.__scatterload_copy)
    __scatterload_null                       0x08000cab   Thumb Code     2  handlers.o(i.__scatterload_null)
    __scatterload_zeroinit                   0x08000cad   Thumb Code    14  handlers.o(i.__scatterload_zeroinit)
    $Super$$main                             0x08000de1   Thumb Code    18  main.o(i.main)
    main_thread_entry                        0x08000df3   Thumb Code    14  components.o(i.main_thread_entry)
    rt_application_init                      0x08000f85   Thumb Code    32  components.o(i.rt_application_init)
    rt_components_board_init                 0x08000fb1   Thumb Code    20  components.o(i.rt_components_board_init)
    rt_components_init                       0x08000fcd   Thumb Code    20  components.o(i.rt_components_init)
    rt_enter_critical                        0x08000fe9   Thumb Code    22  scheduler.o(i.rt_enter_critical)
    rt_exit_critical                         0x08001005   Thumb Code    52  scheduler.o(i.rt_exit_critical)
    rt_free                                  0x0800103d   Thumb Code   112  mem.o(i.rt_free)
    rt_heap_begin_get                        0x08001101   Thumb Code     4  board.o(i.rt_heap_begin_get)
    rt_heap_end_get                          0x08001109   Thumb Code     4  board.o(i.rt_heap_end_get)
    rt_hw_board_init                         0x08001111   Thumb Code    70  board.o(i.rt_hw_board_init)
    rt_hw_console_output                     0x08001161   Thumb Code     2  kservice.o(i.rt_hw_console_output)
    rt_hw_hard_fault_exception               0x08001165   Thumb Code   178  cpuport.o(i.rt_hw_hard_fault_exception)
    rt_hw_stack_init                         0x08001359   Thumb Code    52  cpuport.o(i.rt_hw_stack_init)
    rt_interrupt_enter                       0x08001391   Thumb Code    22  irq.o(i.rt_interrupt_enter)
    rt_interrupt_leave                       0x080013ad   Thumb Code    22  irq.o(i.rt_interrupt_leave)
    rt_kprintf                               0x080013c9   Thumb Code    28  kservice.o(i.rt_kprintf)
    rt_malloc                                0x08001445   Thumb Code   232  mem.o(i.rt_malloc)
    rt_memset                                0x08001535   Thumb Code    70  kservice.o(i.rt_memset)
    rt_object_allocate                       0x0800157b   Thumb Code    80  object.o(i.rt_object_allocate)
    rt_object_delete                         0x080015cb   Thumb Code    38  object.o(i.rt_object_delete)
    rt_object_detach                         0x080015f1   Thumb Code    32  object.o(i.rt_object_detach)
    rt_object_get_information                0x08001611   Thumb Code    30  object.o(i.rt_object_get_information)
    rt_object_init                           0x08001635   Thumb Code    80  object.o(i.rt_object_init)
    rt_object_is_systemobject                0x08001685   Thumb Code    14  object.o(i.rt_object_is_systemobject)
    rt_schedule                              0x08001695   Thumb Code    76  scheduler.o(i.rt_schedule)
    rt_schedule_insert_thread                0x080016ed   Thumb Code    70  scheduler.o(i.rt_schedule_insert_thread)
    rt_schedule_remove_thread                0x0800173d   Thumb Code    64  scheduler.o(i.rt_schedule_remove_thread)
    rt_sem_init                              0x08001785   Thumb Code    36  ipc.o(i.rt_sem_init)
    rt_sem_release                           0x080017a9   Thumb Code    54  ipc.o(i.rt_sem_release)
    rt_sem_take                              0x080017df   Thumb Code   174  ipc.o(i.rt_sem_take)
    rt_show_version                          0x0800188d   Thumb Code    40  kservice.o(i.rt_show_version)
    rt_strlen                                0x0800193d   Thumb Code    16  kservice.o(i.rt_strlen)
    rt_strncpy                               0x0800194d   Thumb Code    38  kservice.o(i.rt_strncpy)
    rt_system_heap_init                      0x08001975   Thumb Code    96  mem.o(i.rt_system_heap_init)
    rt_system_scheduler_init                 0x08001a21   Thumb Code    44  scheduler.o(i.rt_system_scheduler_init)
    rt_system_scheduler_start                0x08001a55   Thumb Code    32  scheduler.o(i.rt_system_scheduler_start)
    rt_system_timer_init                     0x08001a7d   Thumb Code     8  timer.o(i.rt_system_timer_init)
    rt_system_timer_thread_init              0x08001a89   Thumb Code     2  timer.o(i.rt_system_timer_thread_init)
    rt_thread_create                         0x08001a8b   Thumb Code    72  thread.o(i.rt_thread_create)
    rt_thread_delay                          0x08001ad3   Thumb Code     4  thread.o(i.rt_thread_delay)
    rt_thread_exit                           0x08001ad9   Thumb Code    78  thread.o(i.rt_thread_exit)
    rt_thread_idle_excute                    0x08001b39   Thumb Code   114  idle.o(i.rt_thread_idle_excute)
    rt_thread_idle_init                      0x08001bb1   Thumb Code    40  idle.o(i.rt_thread_idle_init)
    rt_thread_init                           0x08001be9   Thumb Code    48  thread.o(i.rt_thread_init)
    rt_thread_resume                         0x08001c19   Thumb Code    60  thread.o(i.rt_thread_resume)
    rt_thread_self                           0x08001c55   Thumb Code     6  thread.o(i.rt_thread_self)
    rt_thread_sleep                          0x08001c61   Thumb Code    60  thread.o(i.rt_thread_sleep)
    rt_thread_startup                        0x08001ca1   Thumb Code    40  thread.o(i.rt_thread_startup)
    rt_thread_suspend                        0x08001ccd   Thumb Code    66  thread.o(i.rt_thread_suspend)
    rt_thread_timeout                        0x08001d0f   Thumb Code    32  thread.o(i.rt_thread_timeout)
    rt_thread_yield                          0x08001d31   Thumb Code    86  thread.o(i.rt_thread_yield)
    rt_tick_get                              0x08001d91   Thumb Code     6  clock.o(i.rt_tick_get)
    rt_tick_increase                         0x08001d9d   Thumb Code    38  clock.o(i.rt_tick_increase)
    rt_timer_check                           0x08001dc9   Thumb Code    98  timer.o(i.rt_timer_check)
    rt_timer_control                         0x08001e31   Thumb Code    48  timer.o(i.rt_timer_control)
    rt_timer_detach                          0x08001e61   Thumb Code    32  timer.o(i.rt_timer_detach)
    rt_timer_init                            0x08001e81   Thumb Code    40  timer.o(i.rt_timer_init)
    rt_timer_start                           0x08001ea9   Thumb Code   136  timer.o(i.rt_timer_start)
    rt_timer_stop                            0x08001f35   Thumb Code    46  timer.o(i.rt_timer_stop)
    rt_vsnprintf                             0x08001f65   Thumb Code   626  kservice.o(i.rt_vsnprintf)
    rtthread_startup                         0x080021f1   Thumb Code    42  components.o(i.rtthread_startup)
    AHBPrescTable                            0x08002242   Data          16  system_stm32f1xx.o(.constdata)
    __lowest_bit_bitmap                      0x08002252   Data         256  kservice.o(.constdata)
    __rt_init_rti_start                      0x08002374   Data           4  components.o(.rti_fn.0)
    __rt_init_rti_board_start                0x08002378   Data           4  components.o(.rti_fn.0.end)
    __rt_init_rti_board_end                  0x0800237c   Data           4  components.o(.rti_fn.1.end)
    __rt_init_rti_end                        0x08002380   Data           4  components.o(.rti_fn.6.end)
    Region$$Table$$Base                      0x08002384   Number         0  anon$$obj.o(Region$$Table)
    Region$$Table$$Limit                     0x080023a4   Number         0  anon$$obj.o(Region$$Table)
    uwTickFreq                               0x20000008   Data           1  stm32f1xx_hal.o(.data)
    uwTickPrio                               0x2000000c   Data           4  stm32f1xx_hal.o(.data)
    uwTick                                   0x20000010   Data           4  stm32f1xx_hal.o(.data)
    SystemCoreClock                          0x20000014   Data           4  system_stm32f1xx.o(.data)
    rt_interrupt_nest                        0x2000001c   Data           1  irq.o(.data)
    rt_current_priority                      0x20000068   Data           1  scheduler.o(.data)
    rt_current_thread                        0x2000006c   Data           4  scheduler.o(.data)
    rt_thread_ready_priority_group           0x20000070   Data           4  scheduler.o(.data)
    rt_thread_defunct                        0x20000074   Data           8  scheduler.o(.data)
    rt_interrupt_from_thread                 0x2000008c   Data           4  cpuport.o(.data)
    rt_interrupt_to_thread                   0x20000090   Data           4  cpuport.o(.data)
    rt_thread_switch_interrupt_flag          0x20000094   Data           4  cpuport.o(.data)
    rt_thread_priority_table                 0x200012b0   Data         256  scheduler.o(.bss)
    __initial_sp                             0x200017b0   Data           0  startup_stm32f103xb.o(STACK)



==============================================================================

Memory Map of the image

  Image Entry point : 0x080000ed

  Load Region LR_IROM1 (Base: 0x08000000, Size: 0x0000243c, Max: 0x00010000, ABSOLUTE)

    Execution Region ER_IROM1 (Exec base: 0x08000000, Load base: 0x08000000, Size: 0x000023a4, Max: 0x00010000, ABSOLUTE)

    Exec Addr    Load Addr    Size         Type   Attr      Idx    E Section Name        Object

    0x08000000   0x08000000   0x000000ec   Data   RO            3    RESET               startup_stm32f103xb.o
    0x080000ec   0x080000ec   0x00000000   Code   RO         2273  * .ARM.Collect$$$$00000000  mc_w.l(entry.o)
    0x080000ec   0x080000ec   0x00000004   Code   RO         2280    .ARM.Collect$$$$00000001  mc_w.l(entry2.o)
    0x080000f0   0x080000f0   0x00000004   Code   RO         2283    .ARM.Collect$$$$00000004  mc_w.l(entry5.o)
    0x080000f4   0x080000f4   0x00000000   Code   RO         2285    .ARM.Collect$$$$00000008  mc_w.l(entry7b.o)
    0x080000f4   0x080000f4   0x00000000   Code   RO         2287    .ARM.Collect$$$$0000000A  mc_w.l(entry8b.o)
    0x080000f4   0x080000f4   0x00000008   Code   RO         2288    .ARM.Collect$$$$0000000B  mc_w.l(entry9a.o)
    0x080000fc   0x080000fc   0x00000000   Code   RO         2290    .ARM.Collect$$$$0000000D  mc_w.l(entry10a.o)
    0x080000fc   0x080000fc   0x00000000   Code   RO         2292    .ARM.Collect$$$$0000000F  mc_w.l(entry11a.o)
    0x080000fc   0x080000fc   0x00000004   Code   RO         2281    .ARM.Collect$$$$00002712  mc_w.l(entry2.o)
    0x08000100   0x08000100   0x00000024   Code   RO            4    .text               startup_stm32f103xb.o
    0x08000124   0x08000124   0x000000f4   Code   RO         1379    .text               context_rvds.o
    0x08000218   0x08000218   0x00000024   Code   RO         2278    .text               mc_w.l(memseta.o)
    0x0800023c   0x0800023c   0x00000024   Code   RO         2294    .text               mc_w.l(init.o)
    0x08000260   0x08000260   0x0000000a   Code   RO         1457    i.$Sub$$main        components.o
    0x0800026a   0x0800026a   0x00000002   Code   RO          216    i.BusFault_Handler  stm32f1xx_it.o
    0x0800026c   0x0800026c   0x00000002   Code   RO          217    i.DebugMon_Handler  stm32f1xx_it.o
    0x0800026e   0x0800026e   0x00000002   PAD
    0x08000270   0x08000270   0x000001e0   Code   RO          648    i.HAL_GPIO_Init     stm32f1xx_hal_gpio.o
    0x08000450   0x08000450   0x0000000a   Code   RO          652    i.HAL_GPIO_WritePin  stm32f1xx_hal_gpio.o
    0x0800045a   0x0800045a   0x00000002   PAD
    0x0800045c   0x0800045c   0x0000000c   Code   RO          344    i.HAL_GetTick       stm32f1xx_hal.o
    0x08000468   0x08000468   0x00000024   Code   RO          351    i.HAL_Init          stm32f1xx_hal.o
    0x0800048c   0x0800048c   0x00000040   Code   RO          352    i.HAL_InitTick      stm32f1xx_hal.o
    0x080004cc   0x080004cc   0x0000003c   Code   RO          273    i.HAL_MspInit       stm32f1xx_hal_msp.o
    0x08000508   0x08000508   0x00000040   Code   RO          814    i.HAL_NVIC_SetPriority  stm32f1xx_hal_cortex.o
    0x08000548   0x08000548   0x00000024   Code   RO          815    i.HAL_NVIC_SetPriorityGrouping  stm32f1xx_hal_cortex.o
    0x0800056c   0x0800056c   0x0000012c   Code   RO          508    i.HAL_RCC_ClockConfig  stm32f1xx_hal_rcc.o
    0x08000698   0x08000698   0x0000006c   Code   RO          517    i.HAL_RCC_GetSysClockFreq  stm32f1xx_hal_rcc.o
    0x08000704   0x08000704   0x00000320   Code   RO          520    i.HAL_RCC_OscConfig  stm32f1xx_hal_rcc.o
    0x08000a24   0x08000a24   0x00000028   Code   RO          819    i.HAL_SYSTICK_Config  stm32f1xx_hal_cortex.o
    0x08000a4c   0x08000a4c   0x00000070   Code   RO          192    i.MX_GPIO_Init      gpio.o
    0x08000abc   0x08000abc   0x0000006c   Code   RO           13    i.MX_RT_Thread_Init  app_rt_thread.o
    0x08000b28   0x08000b28   0x00000002   Code   RO          218    i.MemManage_Handler  stm32f1xx_it.o
    0x08000b2a   0x08000b2a   0x00000002   Code   RO          219    i.NMI_Handler       stm32f1xx_it.o
    0x08000b2c   0x08000b2c   0x00000002   Code   RO          220    i.SVC_Handler       stm32f1xx_it.o
    0x08000b2e   0x08000b2e   0x00000012   Code   RO         1383    i.SysTick_Handler   board.o
    0x08000b40   0x08000b40   0x00000042   Code   RO          154    i.SystemClock_Config  main.o
    0x08000b82   0x08000b82   0x00000002   PAD
    0x08000b84   0x08000b84   0x00000068   Code   RO         1344    i.SystemCoreClockUpdate  system_stm32f1xx.o
    0x08000bec   0x08000bec   0x00000048   Code   RO         1345    i.SystemInit        system_stm32f1xx.o
    0x08000c34   0x08000c34   0x00000002   Code   RO          221    i.UsageFault_Handler  stm32f1xx_it.o
    0x08000c36   0x08000c36   0x00000020   Code   RO          821    i.__NVIC_SetPriority  stm32f1xx_hal_cortex.o
    0x08000c56   0x08000c56   0x00000002   PAD
    0x08000c58   0x08000c58   0x00000044   Code   RO         1658    i.__rt_ffs          kservice.o
    0x08000c9c   0x08000c9c   0x0000000e   Code   RO         2298    i.__scatterload_copy  mc_w.l(handlers.o)
    0x08000caa   0x08000caa   0x00000002   Code   RO         2299    i.__scatterload_null  mc_w.l(handlers.o)
    0x08000cac   0x08000cac   0x0000000e   Code   RO         2300    i.__scatterload_zeroinit  mc_w.l(handlers.o)
    0x08000cba   0x08000cba   0x00000002   PAD
    0x08000cbc   0x08000cbc   0x00000014   Code   RO         1524    i._has_defunct_thread  idle.o
    0x08000cd0   0x08000cd0   0x00000080   Code   RO         2019    i._rt_thread_init   thread.o
    0x08000d50   0x08000d50   0x0000001c   Code   RO         2139    i._rt_timer_init    timer.o
    0x08000d6c   0x08000d6c   0x00000012   Code   RO         2140    i._rt_timer_remove  timer.o
    0x08000d7e   0x08000d7e   0x00000002   PAD
    0x08000d80   0x08000d80   0x00000030   Code   RO           14    i.led1_thread_entry  app_rt_thread.o
    0x08000db0   0x08000db0   0x00000030   Code   RO           15    i.led2_thread_entry  app_rt_thread.o
    0x08000de0   0x08000de0   0x00000012   Code   RO          155    i.main              main.o
    0x08000df2   0x08000df2   0x0000000e   Code   RO         1458    i.main_thread_entry  components.o
    0x08000e00   0x08000e00   0x00000054   Code   RO         1832    i.plug_holes        mem.o
    0x08000e54   0x08000e54   0x00000130   Code   RO         1660    i.print_number      kservice.o
    0x08000f84   0x08000f84   0x0000002c   Code   RO         1459    i.rt_application_init  components.o
    0x08000fb0   0x08000fb0   0x0000001c   Code   RO         1460    i.rt_components_board_init  components.o
    0x08000fcc   0x08000fcc   0x0000001c   Code   RO         1461    i.rt_components_init  components.o
    0x08000fe8   0x08000fe8   0x0000001c   Code   RO         1958    i.rt_enter_critical  scheduler.o
    0x08001004   0x08001004   0x00000038   Code   RO         1959    i.rt_exit_critical  scheduler.o
    0x0800103c   0x0800103c   0x000000c4   Code   RO         1834    i.rt_free           mem.o
    0x08001100   0x08001100   0x00000008   Code   RO         1384    i.rt_heap_begin_get  board.o
    0x08001108   0x08001108   0x00000008   Code   RO         1385    i.rt_heap_end_get   board.o
    0x08001110   0x08001110   0x00000050   Code   RO         1386    i.rt_hw_board_init  board.o
    0x08001160   0x08001160   0x00000002   Code   RO         1663    i.rt_hw_console_output  kservice.o
    0x08001162   0x08001162   0x00000002   PAD
    0x08001164   0x08001164   0x000001f4   Code   RO         2234    i.rt_hw_hard_fault_exception  cpuport.o
    0x08001358   0x08001358   0x00000038   Code   RO         2235    i.rt_hw_stack_init  cpuport.o
    0x08001390   0x08001390   0x0000001c   Code   RO         1631    i.rt_interrupt_enter  irq.o
    0x080013ac   0x080013ac   0x0000001c   Code   RO         1633    i.rt_interrupt_leave  irq.o
    0x080013c8   0x080013c8   0x00000020   Code   RO         1664    i.rt_kprintf        kservice.o
    0x080013e8   0x080013e8   0x0000000e   Code   RO         1882    i.rt_list_insert_after  object.o
    0x080013f6   0x080013f6   0x0000000e   Code   RO         2020    i.rt_list_insert_after  thread.o
    0x08001404   0x08001404   0x0000000e   Code   RO         2141    i.rt_list_insert_after  timer.o
    0x08001412   0x08001412   0x0000000e   Code   RO         1565    i.rt_list_insert_before  ipc.o
    0x08001420   0x08001420   0x00000012   Code   RO         1883    i.rt_list_remove    object.o
    0x08001432   0x08001432   0x00000012   Code   RO         2021    i.rt_list_remove    thread.o
    0x08001444   0x08001444   0x000000f0   Code   RO         1835    i.rt_malloc         mem.o
    0x08001534   0x08001534   0x00000046   Code   RO         1670    i.rt_memset         kservice.o
    0x0800157a   0x0800157a   0x00000050   Code   RO         1884    i.rt_object_allocate  object.o
    0x080015ca   0x080015ca   0x00000026   Code   RO         1885    i.rt_object_delete  object.o
    0x080015f0   0x080015f0   0x00000020   Code   RO         1886    i.rt_object_detach  object.o
    0x08001610   0x08001610   0x00000024   Code   RO         1888    i.rt_object_get_information  object.o
    0x08001634   0x08001634   0x00000050   Code   RO         1890    i.rt_object_init    object.o
    0x08001684   0x08001684   0x0000000e   Code   RO         1891    i.rt_object_is_systemobject  object.o
    0x08001692   0x08001692   0x00000002   PAD
    0x08001694   0x08001694   0x00000058   Code   RO         1960    i.rt_schedule       scheduler.o
    0x080016ec   0x080016ec   0x00000050   Code   RO         1961    i.rt_schedule_insert_thread  scheduler.o
    0x0800173c   0x0800173c   0x00000048   Code   RO         1962    i.rt_schedule_remove_thread  scheduler.o
    0x08001784   0x08001784   0x00000024   Code   RO         1570    i.rt_sem_init       ipc.o
    0x080017a8   0x080017a8   0x00000036   Code   RO         1571    i.rt_sem_release    ipc.o
    0x080017de   0x080017de   0x000000ae   Code   RO         1572    i.rt_sem_take       ipc.o
    0x0800188c   0x0800188c   0x000000b0   Code   RO         1672    i.rt_show_version   kservice.o
    0x0800193c   0x0800193c   0x00000010   Code   RO         1678    i.rt_strlen         kservice.o
    0x0800194c   0x0800194c   0x00000026   Code   RO         1680    i.rt_strncpy        kservice.o
    0x08001972   0x08001972   0x00000002   PAD
    0x08001974   0x08001974   0x000000ac   Code   RO         1838    i.rt_system_heap_init  mem.o
    0x08001a20   0x08001a20   0x00000034   Code   RO         1963    i.rt_system_scheduler_init  scheduler.o
    0x08001a54   0x08001a54   0x00000028   Code   RO         1964    i.rt_system_scheduler_start  scheduler.o
    0x08001a7c   0x08001a7c   0x0000000c   Code   RO         2142    i.rt_system_timer_init  timer.o
    0x08001a88   0x08001a88   0x00000002   Code   RO         2143    i.rt_system_timer_thread_init  timer.o
    0x08001a8a   0x08001a8a   0x00000048   Code   RO         2023    i.rt_thread_create  thread.o
    0x08001ad2   0x08001ad2   0x00000004   Code   RO         2024    i.rt_thread_delay   thread.o
    0x08001ad6   0x08001ad6   0x00000002   PAD
    0x08001ad8   0x08001ad8   0x00000058   Code   RO         2027    i.rt_thread_exit    thread.o
    0x08001b30   0x08001b30   0x00000006   Code   RO         1525    i.rt_thread_idle_entry  idle.o
    0x08001b36   0x08001b36   0x00000002   PAD
    0x08001b38   0x08001b38   0x00000078   Code   RO         1526    i.rt_thread_idle_excute  idle.o
    0x08001bb0   0x08001bb0   0x00000038   Code   RO         1528    i.rt_thread_idle_init  idle.o
    0x08001be8   0x08001be8   0x00000030   Code   RO         2029    i.rt_thread_init    thread.o
    0x08001c18   0x08001c18   0x0000003c   Code   RO         2031    i.rt_thread_resume  thread.o
    0x08001c54   0x08001c54   0x0000000c   Code   RO         2032    i.rt_thread_self    thread.o
    0x08001c60   0x08001c60   0x00000040   Code   RO         2033    i.rt_thread_sleep   thread.o
    0x08001ca0   0x08001ca0   0x0000002c   Code   RO         2034    i.rt_thread_startup  thread.o
    0x08001ccc   0x08001ccc   0x00000042   Code   RO         2035    i.rt_thread_suspend  thread.o
    0x08001d0e   0x08001d0e   0x00000020   Code   RO         2036    i.rt_thread_timeout  thread.o
    0x08001d2e   0x08001d2e   0x00000002   PAD
    0x08001d30   0x08001d30   0x00000060   Code   RO         2037    i.rt_thread_yield   thread.o
    0x08001d90   0x08001d90   0x0000000c   Code   RO         1421    i.rt_tick_get       clock.o
    0x08001d9c   0x08001d9c   0x0000002c   Code   RO         1422    i.rt_tick_increase  clock.o
    0x08001dc8   0x08001dc8   0x00000068   Code   RO         2144    i.rt_timer_check    timer.o
    0x08001e30   0x08001e30   0x00000030   Code   RO         2145    i.rt_timer_control  timer.o
    0x08001e60   0x08001e60   0x00000020   Code   RO         2148    i.rt_timer_detach   timer.o
    0x08001e80   0x08001e80   0x00000028   Code   RO         2149    i.rt_timer_init     timer.o
    0x08001ea8   0x08001ea8   0x0000008c   Code   RO         2151    i.rt_timer_start    timer.o
    0x08001f34   0x08001f34   0x0000002e   Code   RO         2152    i.rt_timer_stop     timer.o
    0x08001f62   0x08001f62   0x00000002   PAD
    0x08001f64   0x08001f64   0x0000027c   Code   RO         1683    i.rt_vsnprintf      kservice.o
    0x080021e0   0x080021e0   0x00000004   Code   RO         1462    i.rti_board_end     components.o
    0x080021e4   0x080021e4   0x00000004   Code   RO         1463    i.rti_board_start   components.o
    0x080021e8   0x080021e8   0x00000004   Code   RO         1464    i.rti_end           components.o
    0x080021ec   0x080021ec   0x00000004   Code   RO         1465    i.rti_start         components.o
    0x080021f0   0x080021f0   0x0000002a   Code   RO         1466    i.rtthread_startup  components.o
    0x0800221a   0x0800221a   0x00000028   Code   RO         1685    i.skip_atoi         kservice.o
    0x08002242   0x08002242   0x00000010   Data   RO         1346    .constdata          system_stm32f1xx.o
    0x08002252   0x08002252   0x00000122   Data   RO         1687    .constdata          kservice.o
    0x08002374   0x08002374   0x00000004   Data   RO         1467    .rti_fn.0           components.o
    0x08002378   0x08002378   0x00000004   Data   RO         1468    .rti_fn.0.end       components.o
    0x0800237c   0x0800237c   0x00000004   Data   RO         1469    .rti_fn.1.end       components.o
    0x08002380   0x08002380   0x00000004   Data   RO         1470    .rti_fn.6.end       components.o
    0x08002384   0x08002384   0x00000020   Data   RO         2296    Region$$Table       anon$$obj.o


    Execution Region RW_IRAM1 (Exec base: 0x20000000, Load base: 0x080023a4, Size: 0x000017b0, Max: 0x00005000, ABSOLUTE)

    Exec Addr    Load Addr    Size         Type   Attr      Idx    E Section Name        Object

    0x20000000   0x080023a4   0x00000008   Data   RW           16    .data               app_rt_thread.o
    0x20000008   0x080023ac   0x0000000c   Data   RW          358    .data               stm32f1xx_hal.o
    0x20000014   0x080023b8   0x00000004   Data   RW         1348    .data               system_stm32f1xx.o
    0x20000018   0x080023bc   0x00000004   Data   RW         1424    .data               clock.o
    0x2000001c   0x080023c0   0x00000001   Data   RW         1634    .data               irq.o
    0x2000001d   0x080023c1   0x00000003   PAD
    0x20000020   0x080023c4   0x00000018   Data   RW         1840    .data               mem.o
    0x20000038   0x080023dc   0x00000030   Data   RW         1893    .data               object.o
    0x20000068   0x0800240c   0x00000014   Data   RW         1966    .data               scheduler.o
    0x2000007c   0x08002420   0x0000000c   Data   RW         2153    .data               timer.o
    0x20000088   0x0800242c   0x00000004   Data   RW         2236    .data               cpuport.o
    0x2000008c   0x08002430   0x00000004   Data   RW         2237    .data               cpuport.o
    0x20000090   0x08002434   0x00000004   Data   RW         2238    .data               cpuport.o
    0x20000094   0x08002438   0x00000004   Data   RW         2239    .data               cpuport.o
    0x20000098        -       0x00001000   Zero   RW         1387    .bss                board.o
    0x20001098        -       0x00000178   Zero   RW         1529    .bss                idle.o
    0x20001210        -       0x00000080   Zero   RW         1686    .bss                kservice.o
    0x20001290        -       0x00000020   Zero   RW         1839    .bss                mem.o
    0x200012b0        -       0x00000100   Zero   RW         1965    .bss                scheduler.o
    0x200013b0        -       0x00000400   Zero   RW            1    STACK               startup_stm32f103xb.o


==============================================================================

Image component sizes


      Code (inc. data)   RO Data    RW Data    ZI Data      Debug   Object Name

       204         38          0          8          0     386128   app_rt_thread.o
       114         18          0          0       4096       3485   board.o
        56         12          0          4          0       1417   clock.o
       182         28         16          0          0       6718   components.o
       244         26          0          0          0        872   context_rvds.o
       556        326          0         16          0       3574   cpuport.o
       112          8          0          0          0        915   gpio.o
       202         26          0          0        376       6118   idle.o
       278          0          0          0          0       6789   ipc.o
        56         12          0          1          0       1910   irq.o
      1382        160        290          0        128      11595   kservice.o
        84          0          0          0          0       1036   main.o
       692        172          0         24         32       4388   mem.o
       312          6          0         48          0       9168   object.o
       416         56          0         20        256       8954   scheduler.o
        36          8        236          0       1024        816   startup_stm32f103xb.o
       112         20          0         12          0       4895   stm32f1xx_hal.o
       172         14          0          0          0      28350   stm32f1xx_hal_cortex.o
       490         34          0          0          0       2928   stm32f1xx_hal_gpio.o
        60          8          0          0          0        874   stm32f1xx_hal_msp.o
      1208         76          0          0          0       4126   stm32f1xx_hal_rcc.o
        12          0          0          0          0       2607   stm32f1xx_it.o
       176         38         16          4          0       1835   system_stm32f1xx.o
       746         44          0          0          0      13112   thread.o
       484         14          0         12          0      11344   timer.o

    ----------------------------------------------------------------------
      8410       1144        590        152       5912     523954   Object Totals
         0          0         32          0          0          0   (incl. Generated)
        24          0          0          3          0          0   (incl. Padding)

    ----------------------------------------------------------------------

      Code (inc. data)   RO Data    RW Data    ZI Data      Debug   Library Member Name

         0          0          0          0          0          0   entry.o
         0          0          0          0          0          0   entry10a.o
         0          0          0          0          0          0   entry11a.o
         8          4          0          0          0          0   entry2.o
         4          0          0          0          0          0   entry5.o
         0          0          0          0          0          0   entry7b.o
         0          0          0          0          0          0   entry8b.o
         8          4          0          0          0          0   entry9a.o
        30          0          0          0          0          0   handlers.o
        36          8          0          0          0         68   init.o
        36          0          0          0          0        108   memseta.o

    ----------------------------------------------------------------------
       124         16          0          0          0        176   Library Totals
         2          0          0          0          0          0   (incl. Padding)

    ----------------------------------------------------------------------

      Code (inc. data)   RO Data    RW Data    ZI Data      Debug   Library Name

       122         16          0          0          0        176   mc_w.l

    ----------------------------------------------------------------------
       124         16          0          0          0        176   Library Totals

    ----------------------------------------------------------------------

==============================================================================


      Code (inc. data)   RO Data    RW Data    ZI Data      Debug   

      8534       1160        590        152       5912     518822   Grand Totals
      8534       1160        590        152       5912     518822   ELF Image Totals
      8534       1160        590        152          0          0   ROM Totals

==============================================================================

    Total RO  Size (Code + RO Data)                 9124 (   8.91kB)
    Total RW  Size (RW Data + ZI Data)              6064 (   5.92kB)
    Total ROM Size (Code + RO Data + RW Data)       9276 (   9.06kB)

==============================================================================

