Component: ARM Compiler 5.06 update 6 (build 750) Tool: armlink [4d35ed]

==============================================================================

Section Cross References

    startup_stm32f103xb.o(RESET) refers to startup_stm32f103xb.o(STACK) for __initial_sp
    startup_stm32f103xb.o(RESET) refers to startup_stm32f103xb.o(.text) for Reset_Handler
    startup_stm32f103xb.o(RESET) refers to stm32f1xx_it.o(i.NMI_Handler) for NMI_Handler
    startup_stm32f103xb.o(RESET) refers to context_rvds.o(.text) for HardFault_Handler
    startup_stm32f103xb.o(RESET) refers to stm32f1xx_it.o(i.MemManage_Handler) for MemManage_Handler
    startup_stm32f103xb.o(RESET) refers to stm32f1xx_it.o(i.BusFault_Handler) for BusFault_Handler
    startup_stm32f103xb.o(RESET) refers to stm32f1xx_it.o(i.UsageFault_Handler) for UsageFault_Handler
    startup_stm32f103xb.o(RESET) refers to stm32f1xx_it.o(i.SVC_Handler) for SVC_Handler
    startup_stm32f103xb.o(RESET) refers to stm32f1xx_it.o(i.DebugMon_Handler) for DebugMon_Handler
    startup_stm32f103xb.o(RESET) refers to board.o(i.SysTick_Handler) for SysTick_Handler
    startup_stm32f103xb.o(.text) refers to system_stm32f1xx.o(i.SystemInit) for SystemInit
    startup_stm32f103xb.o(.text) refers to entry.o(.ARM.Collect$$$$00000000) for __main
    app_rt_thread.o(i.MX_RT_Thread_Init) refers to thread.o(i.rt_thread_create) for rt_thread_create
    app_rt_thread.o(i.MX_RT_Thread_Init) refers to thread.o(i.rt_thread_startup) for rt_thread_startup
    app_rt_thread.o(i.MX_RT_Thread_Init) refers to app_rt_thread.o(i.led1_thread_entry) for led1_thread_entry
    app_rt_thread.o(i.MX_RT_Thread_Init) refers to app_rt_thread.o(.data) for .data
    app_rt_thread.o(i.led1_thread_entry) refers to stm32f1xx_hal_gpio.o(i.HAL_GPIO_WritePin) for HAL_GPIO_WritePin
    app_rt_thread.o(i.led1_thread_entry) refers to thread.o(i.rt_thread_delay) for rt_thread_delay
==============================================================================

Removing Unused input sections from the image.

    Removing startup_stm32f103xb.o(HEAP), (512 bytes).
    Removing app_rt_thread.o(.rev16_text), (4 bytes).
    Removing app_rt_thread.o(.revsh_text), (4 bytes).
    Removing app_rt_thread.o(.rrx_text), (6 bytes).
    Removing main.o(.rev16_text), (4 bytes).
    Removing main.o(.revsh_text), (4 bytes).
    Removing main.o(.rrx_text), (6 bytes).
    Removing main.o(i.Error_Handler), (2 bytes).
    Removing gpio.o(.rev16_text), (4 bytes).
    Removing gpio.o(.revsh_text), (4 bytes).
    Removing gpio.o(.rrx_text), (6 bytes).
    Removing stm32f1xx_it.o(.rev16_text), (4 bytes).
    Removing stm32f1xx_it.o(.revsh_text), (4 bytes).
    Removing stm32f1xx_it.o(.rrx_text), (6 bytes).
    Removing stm32f1xx_hal_msp.o(.rev16_text), (4 bytes).
    Removing stm32f1xx_hal_msp.o(.revsh_text), (4 bytes).
    Removing stm32f1xx_hal_msp.o(.rrx_text), (6 bytes).
    Removing stm32f1xx_hal_gpio_ex.o(.rev16_text), (4 bytes).
==============================================================================

Image Symbol Table

    Local Symbols

    Symbol Name                              Value     Ov Type        Size  Object(Section)

    ../Drivers/STM32F1xx_HAL_Driver/Src/stm32f1xx_hal.c 0x00000000   Number         0  stm32f1xx_hal.o ABSOLUTE
    ../Drivers/STM32F1xx_HAL_Driver/Src/stm32f1xx_hal_cortex.c 0x00000000   Number         0  stm32f1xx_hal_cortex.o ABSOLUTE
    ../Drivers/STM32F1xx_HAL_Driver/Src/stm32f1xx_hal_dma.c 0x00000000   Number         0  stm32f1xx_hal_dma.o ABSOLUTE
    ../Drivers/STM32F1xx_HAL_Driver/Src/stm32f1xx_hal_exti.c 0x00000000   Number         0  stm32f1xx_hal_exti.o ABSOLUTE
    ../Drivers/STM32F1xx_HAL_Driver/Src/stm32f1xx_hal_flash.c 0x00000000   Number         0  stm32f1xx_hal_flash.o ABSOLUTE
    ../Drivers/STM32F1xx_HAL_Driver/Src/stm32f1xx_hal_flash_ex.c 0x00000000   Number         0  stm32f1xx_hal_flash_ex.o ABSOLUTE
    ../Drivers/STM32F1xx_HAL_Driver/Src/stm32f1xx_hal_gpio.c 0x00000000   Number         0  stm32f1xx_hal_gpio.o ABSOLUTE
    ../Drivers/STM32F1xx_HAL_Driver/Src/stm32f1xx_hal_gpio_ex.c 0x00000000   Number         0  stm32f1xx_hal_gpio_ex.o ABSOLUTE
    ../Drivers/STM32F1xx_HAL_Driver/Src/stm32f1xx_hal_pwr.c 0x00000000   Number         0  stm32f1xx_hal_pwr.o ABSOLUTE
    ../Drivers/STM32F1xx_HAL_Driver/Src/stm32f1xx_hal_rcc.c 0x00000000   Number         0  stm32f1xx_hal_rcc.o ABSOLUTE
    ../Drivers/STM32F1xx_HAL_Driver/Src/stm32f1xx_hal_rcc_ex.c 0x00000000   Number         0  stm32f1xx_hal_rcc_ex.o ABSOLUTE
    ../Drivers/STM32F1xx_HAL_Driver/Src/stm32f1xx_hal_tim.c 0x00000000   Number         0  stm32f1xx_hal_tim.o ABSOLUTE
    ../Drivers/STM32F1xx_HAL_Driver/Src/stm32f1xx_hal_tim_ex.c 0x00000000   Number         0  stm32f1xx_hal_tim_ex.o ABSOLUTE
    ../Middlewares/Third_Party/RealThread_RTOS_RT-Thread/bsp/board.c 0x00000000   Number         0  board.o ABSOLUTE
    ../Middlewares/Third_Party/RealThread_RTOS_RT-Thread/libcpu/arm/cortex-m3/context_rvds.S 0x00000000   Number         0  context_rvds.o ABSOLUTE
    ../Middlewares/Third_Party/RealThread_RTOS_RT-Thread/libcpu/arm/cortex-m3/cpuport.c 0x00000000   Number         0  cpuport.o ABSOLUTE
    ../Middlewares/Third_Party/RealThread_RTOS_RT-Thread/src/clock.c 0x00000000   Number         0  clock.o ABSOLUTE
    ../Middlewares/Third_Party/RealThread_RTOS_RT-Thread/src/components.c 0x00000000   Number         0  components.o ABSOLUTE
    ../Middlewares/Third_Party/RealThread_RTOS_RT-Thread/src/idle.c 0x00000000   Number         0  idle.o ABSOLUTE
    ../Middlewares/Third_Party/RealThread_RTOS_RT-Thread/src/ipc.c 0x00000000   Number         0  ipc.o ABSOLUTE
    ../Middlewares/Third_Party/RealThread_RTOS_RT-Thread/src/irq.c 0x00000000   Number         0  irq.o ABSOLUTE
    ../Middlewares/Third_Party/RealThread_RTOS_RT-Thread/src/kservice.c 0x00000000   Number         0  kservice.o ABSOLUTE
    ../Middlewares/Third_Party/RealThread_RTOS_RT-Thread/src/mem.c 0x00000000   Number         0  mem.o ABSOLUTE
    ../Middlewares/Third_Party/RealThread_RTOS_RT-Thread/src/object.c 0x00000000   Number         0  object.o ABSOLUTE
    ../Middlewares/Third_Party/RealThread_RTOS_RT-Thread/src/scheduler.c 0x00000000   Number         0  scheduler.o ABSOLUTE
    ../Middlewares/Third_Party/RealThread_RTOS_RT-Thread/src/thread.c 0x00000000   Number         0  thread.o ABSOLUTE
    ../Middlewares/Third_Party/RealThread_RTOS_RT-Thread/src/timer.c 0x00000000   Number         0  timer.o ABSOLUTE
    ../Src/gpio.c                            0x00000000   Number         0  gpio.o ABSOLUTE
    ../Src/main.c                            0x00000000   Number         0  main.o ABSOLUTE
    ../Src/stm32f1xx_hal_msp.c               0x00000000   Number         0  stm32f1xx_hal_msp.o ABSOLUTE
    ../Src/stm32f1xx_it.c                    0x00000000   Number         0  stm32f1xx_it.o ABSOLUTE
    ../Src/system_stm32f1xx.c                0x00000000   Number         0  system_stm32f1xx.o ABSOLUTE
    ../clib/microlib/init/entry.s            0x00000000   Number         0  entry8b.o ABSOLUTE
    ../clib/microlib/init/entry.s            0x00000000   Number         0  entry11a.o ABSOLUTE
    ../clib/microlib/init/entry.s            0x00000000   Number         0  entry2.o ABSOLUTE
    ../clib/microlib/init/entry.s            0x00000000   Number         0  entry5.o ABSOLUTE
    ../clib/microlib/init/entry.s            0x00000000   Number         0  entry7a.o ABSOLUTE
    ../clib/microlib/init/entry.s            0x00000000   Number         0  entry.o ABSOLUTE
    ../clib/microlib/init/entry.s            0x00000000   Number         0  entry7b.o ABSOLUTE
    ../clib/microlib/init/entry.s            0x00000000   Number         0  entry8a.o ABSOLUTE
    ../clib/microlib/init/entry.s            0x00000000   Number         0  entry9a.o ABSOLUTE
    ../clib/microlib/init/entry.s            0x00000000   Number         0  entry9b.o ABSOLUTE
    ../clib/microlib/init/entry.s            0x00000000   Number         0  entry10a.o ABSOLUTE
    ../clib/microlib/init/entry.s            0x00000000   Number         0  entry10b.o ABSOLUTE
    ../clib/microlib/init/entry.s            0x00000000   Number         0  entry11b.o ABSOLUTE
    ../clib/microlib/longlong.c              0x00000000   Number         0  llushr.o ABSOLUTE
    ../clib/microlib/string/memset.c         0x00000000   Number         0  memseta.o ABSOLUTE
    ..\Drivers\STM32F1xx_HAL_Driver\Src\stm32f1xx_hal.c 0x00000000   Number         0  stm32f1xx_hal.o ABSOLUTE
    ..\Drivers\STM32F1xx_HAL_Driver\Src\stm32f1xx_hal_cortex.c 0x00000000   Number         0  stm32f1xx_hal_cortex.o ABSOLUTE
    ..\Drivers\STM32F1xx_HAL_Driver\Src\stm32f1xx_hal_dma.c 0x00000000   Number         0  stm32f1xx_hal_dma.o ABSOLUTE
    ..\Drivers\STM32F1xx_HAL_Driver\Src\stm32f1xx_hal_exti.c 0x00000000   Number         0  stm32f1xx_hal_exti.o ABSOLUTE
    ..\Drivers\STM32F1xx_HAL_Driver\Src\stm32f1xx_hal_flash.c 0x00000000   Number         0  stm32f1xx_hal_flash.o ABSOLUTE
    ..\Drivers\STM32F1xx_HAL_Driver\Src\stm32f1xx_hal_flash_ex.c 0x00000000   Number         0  stm32f1xx_hal_flash_ex.o ABSOLUTE
    ..\Drivers\STM32F1xx_HAL_Driver\Src\stm32f1xx_hal_gpio.c 0x00000000   Number         0  stm32f1xx_hal_gpio.o ABSOLUTE
    ..\Drivers\STM32F1xx_HAL_Driver\Src\stm32f1xx_hal_gpio_ex.c 0x00000000   Number         0  stm32f1xx_hal_gpio_ex.o ABSOLUTE
    ..\Drivers\STM32F1xx_HAL_Driver\Src\stm32f1xx_hal_pwr.c 0x00000000   Number         0  stm32f1xx_hal_pwr.o ABSOLUTE
    ..\Drivers\STM32F1xx_HAL_Driver\Src\stm32f1xx_hal_rcc.c 0x00000000   Number         0  stm32f1xx_hal_rcc.o ABSOLUTE
    ..\Drivers\STM32F1xx_HAL_Driver\Src\stm32f1xx_hal_rcc_ex.c 0x00000000   Number         0  stm32f1xx_hal_rcc_ex.o ABSOLUTE
    ..\Drivers\STM32F1xx_HAL_Driver\Src\stm32f1xx_hal_tim.c 0x00000000   Number         0  stm32f1xx_hal_tim.o ABSOLUTE
    ..\Drivers\STM32F1xx_HAL_Driver\Src\stm32f1xx_hal_tim_ex.c 0x00000000   Number         0  stm32f1xx_hal_tim_ex.o ABSOLUTE
    ..\Src\app_rt_thread.c                   0x00000000   Number         0  app_rt_thread.o ABSOLUTE
    ..\Src\gpio.c                            0x00000000   Number         0  gpio.o ABSOLUTE
    ..\Src\main.c                            0x00000000   Number         0  main.o ABSOLUTE
    ..\Src\stm32f1xx_hal_msp.c               0x00000000   Number         0  stm32f1xx_hal_msp.o ABSOLUTE
    ..\Src\stm32f1xx_it.c                    0x00000000   Number         0  stm32f1xx_it.o ABSOLUTE
    ..\Src\system_stm32f1xx.c                0x00000000   Number         0  system_stm32f1xx.o ABSOLUTE
    ..\\Src\\app_rt_thread.c                 0x00000000   Number         0  app_rt_thread.o ABSOLUTE
    dc.s                                     0x00000000   Number         0  dc.o ABSOLUTE
    handlers.s                               0x00000000   Number         0  handlers.o ABSOLUTE
    init.s                                   0x00000000   Number         0  init.o ABSOLUTE
    startup_stm32f103xb.s                    0x00000000   Number         0  startup_stm32f103xb.o ABSOLUTE
    RESET                                    0x08000000   Section      236  startup_stm32f103xb.o(RESET)
    .ARM.Collect$$$$00000000                 0x080000ec   Section        0  entry.o(.ARM.Collect$$$$00000000)
    .ARM.Collect$$$$00000001                 0x080000ec   Section        4  entry2.o(.ARM.Collect$$$$00000001)
    .ARM.Collect$$$$00000004                 0x080000f0   Section        4  entry5.o(.ARM.Collect$$$$00000004)
    .ARM.Collect$$$$00000008                 0x080000f4   Section        0  entry7b.o(.ARM.Collect$$$$00000008)
    .ARM.Collect$$$$0000000A                 0x080000f4   Section        0  entry8b.o(.ARM.Collect$$$$0000000A)
    .ARM.Collect$$$$0000000B                 0x080000f4   Section        8  entry9a.o(.ARM.Collect$$$$0000000B)
    .ARM.Collect$$$$0000000D                 0x080000fc   Section        0  entry10a.o(.ARM.Collect$$$$0000000D)
    .ARM.Collect$$$$0000000F                 0x080000fc   Section        0  entry11a.o(.ARM.Collect$$$$0000000F)
    .ARM.Collect$$$$00002712                 0x080000fc   Section        4  entry2.o(.ARM.Collect$$$$00002712)
    __lit__00000000                          0x080000fc   Data           4  entry2.o(.ARM.Collect$$$$00002712)
    .text                                    0x08000100   Section       36  startup_stm32f103xb.o(.text)
    .text                                    0x08000124   Section      244  context_rvds.o(.text)
    .text                                    0x08000218   Section        0  memseta.o(.text)
    .text                                    0x0800023c   Section       36  init.o(.text)
    i.$Sub$$main                             0x08000260   Section        0  components.o(i.$Sub$$main)
    i.BusFault_Handler                       0x0800026a   Section        0  stm32f1xx_it.o(i.BusFault_Handler)
    i.DebugMon_Handler                       0x0800026c   Section        0  stm32f1xx_it.o(i.DebugMon_Handler)
    i.HAL_GPIO_Init                          0x08000270   Section        0  stm32f1xx_hal_gpio.o(i.HAL_GPIO_Init)
    i.HAL_GPIO_WritePin                      0x08000450   Section        0  stm32f1xx_hal_gpio.o(i.HAL_GPIO_WritePin)
    i.HAL_GetTick                            0x0800045c   Section        0  stm32f1xx_hal.o(i.HAL_GetTick)
    i.HAL_Init                               0x08000468   Section        0  stm32f1xx_hal.o(i.HAL_Init)
    i.HAL_InitTick                           0x0800048c   Section        0  stm32f1xx_hal.o(i.HAL_InitTick)
    i.HAL_MspInit                            0x080004cc   Section        0  stm32f1xx_hal_msp.o(i.HAL_MspInit)
    i.HAL_NVIC_SetPriority                   0x08000508   Section        0  stm32f1xx_hal_cortex.o(i.HAL_NVIC_SetPriority)
    i.HAL_NVIC_SetPriorityGrouping           0x08000548   Section        0  stm32f1xx_hal_cortex.o(i.HAL_NVIC_SetPriorityGrouping)
    i.HAL_RCC_ClockConfig                    0x0800056c   Section        0  stm32f1xx_hal_rcc.o(i.HAL_RCC_ClockConfig)
    i.HAL_RCC_GetSysClockFreq                0x08000698   Section        0  stm32f1xx_hal_rcc.o(i.HAL_RCC_GetSysClockFreq)
    i.HAL_RCC_OscConfig                      0x08000704   Section        0  stm32f1xx_hal_rcc.o(i.HAL_RCC_OscConfig)
    i.HAL_SYSTICK_Config                     0x08000a24   Section        0  stm32f1xx_hal_cortex.o(i.HAL_SYSTICK_Config)
    i.MX_GPIO_Init                           0x08000a4c   Section        0  gpio.o(i.MX_GPIO_Init)
    i.MX_RT_Thread_Init                      0x08000abc   Section        0  app_rt_thread.o(i.MX_RT_Thread_Init)
    i.MemManage_Handler                      0x08000af8   Section        0  stm32f1xx_it.o(i.MemManage_Handler)
    i.NMI_Handler                            0x08000afa   Section        0  stm32f1xx_it.o(i.NMI_Handler)
    i.SVC_Handler                            0x08000afc   Section        0  stm32f1xx_it.o(i.SVC_Handler)
    i.SysTick_Handler                        0x08000afe   Section        0  board.o(i.SysTick_Handler)
    i.SystemClock_Config                     0x08000b10   Section        0  main.o(i.SystemClock_Config)
    i.SystemCoreClockUpdate                  0x08000b54   Section        0  system_stm32f1xx.o(i.SystemCoreClockUpdate)
    i.SystemInit                             0x08000bbc   Section        0  system_stm32f1xx.o(i.SystemInit)
    i.UsageFault_Handler                     0x08000c04   Section        0  stm32f1xx_it.o(i.UsageFault_Handler)
    i.__NVIC_SetPriority                     0x08000c06   Section        0  stm32f1xx_hal_cortex.o(i.__NVIC_SetPriority)
    __NVIC_SetPriority                       0x08000c07   Thumb Code    32  stm32f1xx_hal_cortex.o(i.__NVIC_SetPriority)
    i.__rt_ffs                               0x08000c28   Section        0  kservice.o(i.__rt_ffs)
    i.__scatterload_copy                     0x08000c6c   Section       14  handlers.o(i.__scatterload_copy)
    i.__scatterload_null                     0x08000c7a   Section        2  handlers.o(i.__scatterload_null)
    i.__scatterload_zeroinit                 0x08000c7c   Section       14  handlers.o(i.__scatterload_zeroinit)
    i._has_defunct_thread                    0x08000c8c   Section        0  idle.o(i._has_defunct_thread)
    _has_defunct_thread                      0x08000c8d   Thumb Code    16  idle.o(i._has_defunct_thread)
    i._rt_thread_init                        0x08000ca0   Section        0  thread.o(i._rt_thread_init)
    _rt_thread_init                          0x08000ca1   Thumb Code   118  thread.o(i._rt_thread_init)
    i._rt_timer_init                         0x08000d20   Section        0  timer.o(i._rt_timer_init)
    _rt_timer_init                           0x08000d21   Thumb Code    28  timer.o(i._rt_timer_init)
    i._rt_timer_remove                       0x08000d3c   Section        0  timer.o(i._rt_timer_remove)
    _rt_timer_remove                         0x08000d3d   Thumb Code    18  timer.o(i._rt_timer_remove)
    i.led1_thread_entry                      0x08000d50   Section        0  app_rt_thread.o(i.led1_thread_entry)
    led1_thread_entry                        0x08000d51   Thumb Code    44  app_rt_thread.o(i.led1_thread_entry)
    i.main                                   0x08000d80   Section        0  main.o(i.main)
    i.main_thread_entry                      0x08000d92   Section        0  components.o(i.main_thread_entry)
    i.plug_holes                             0x08000da0   Section        0  mem.o(i.plug_holes)
    plug_holes                               0x08000da1   Thumb Code    80  mem.o(i.plug_holes)
    i.print_number                           0x08000df4   Section        0  kservice.o(i.print_number)
    print_number                             0x08000df5   Thumb Code   300  kservice.o(i.print_number)
    i.rt_application_init                    0x08000f24   Section        0  components.o(i.rt_application_init)
    i.rt_components_board_init               0x08000f50   Section        0  components.o(i.rt_components_board_init)
    i.rt_components_init                     0x08000f6c   Section        0  components.o(i.rt_components_init)
    i.rt_enter_critical                      0x08000f88   Section        0  scheduler.o(i.rt_enter_critical)
    i.rt_exit_critical                       0x08000fa4   Section        0  scheduler.o(i.rt_exit_critical)
    i.rt_free                                0x08000fdc   Section        0  mem.o(i.rt_free)
    i.rt_heap_begin_get                      0x080010a0   Section        0  board.o(i.rt_heap_begin_get)
    i.rt_heap_end_get                        0x080010a8   Section        0  board.o(i.rt_heap_end_get)
    i.rt_hw_board_init                       0x080010b0   Section        0  board.o(i.rt_hw_board_init)
    i.rt_hw_console_output                   0x08001100   Section        0  kservice.o(i.rt_hw_console_output)
    i.rt_hw_hard_fault_exception             0x08001104   Section        0  cpuport.o(i.rt_hw_hard_fault_exception)
    i.rt_hw_stack_init                       0x080012f8   Section        0  cpuport.o(i.rt_hw_stack_init)
    i.rt_interrupt_enter                     0x08001330   Section        0  irq.o(i.rt_interrupt_enter)
    i.rt_interrupt_leave                     0x0800134c   Section        0  irq.o(i.rt_interrupt_leave)
    i.rt_kprintf                             0x08001368   Section        0  kservice.o(i.rt_kprintf)
    i.rt_list_insert_after                   0x08001388   Section        0  object.o(i.rt_list_insert_after)
    rt_list_insert_after                     0x08001389   Thumb Code    14  object.o(i.rt_list_insert_after)
    i.rt_list_insert_after                   0x08001396   Section        0  thread.o(i.rt_list_insert_after)
    rt_list_insert_after                     0x08001397   Thumb Code    14  thread.o(i.rt_list_insert_after)
    i.rt_list_insert_after                   0x080013a4   Section        0  timer.o(i.rt_list_insert_after)
    rt_list_insert_after                     0x080013a5   Thumb Code    14  timer.o(i.rt_list_insert_after)
    i.rt_list_insert_before                  0x080013b2   Section        0  ipc.o(i.rt_list_insert_before)
    rt_list_insert_before                    0x080013b3   Thumb Code    14  ipc.o(i.rt_list_insert_before)
    i.rt_list_remove                         0x080013c0   Section        0  object.o(i.rt_list_remove)
    rt_list_remove                           0x080013c1   Thumb Code    18  object.o(i.rt_list_remove)
    i.rt_list_remove                         0x080013d2   Section        0  thread.o(i.rt_list_remove)
    rt_list_remove                           0x080013d3   Thumb Code    18  thread.o(i.rt_list_remove)
    i.rt_malloc                              0x080013e4   Section        0  mem.o(i.rt_malloc)
    i.rt_memset                              0x080014d4   Section        0  kservice.o(i.rt_memset)
    i.rt_object_allocate                     0x0800151a   Section        0  object.o(i.rt_object_allocate)
    i.rt_object_delete                       0x0800156a   Section        0  object.o(i.rt_object_delete)
    i.rt_object_detach                       0x08001590   Section        0  object.o(i.rt_object_detach)
    i.rt_object_get_information              0x080015b0   Section        0  object.o(i.rt_object_get_information)
    i.rt_object_init                         0x080015d4   Section        0  object.o(i.rt_object_init)
    i.rt_object_is_systemobject              0x08001624   Section        0  object.o(i.rt_object_is_systemobject)
    i.rt_schedule                            0x08001634   Section        0  scheduler.o(i.rt_schedule)
    i.rt_schedule_insert_thread              0x0800168c   Section        0  scheduler.o(i.rt_schedule_insert_thread)
    i.rt_schedule_remove_thread              0x080016dc   Section        0  scheduler.o(i.rt_schedule_remove_thread)
    i.rt_sem_init                            0x08001724   Section        0  ipc.o(i.rt_sem_init)
    i.rt_sem_release                         0x08001748   Section        0  ipc.o(i.rt_sem_release)
    i.rt_sem_take                            0x0800177e   Section        0  ipc.o(i.rt_sem_take)
    i.rt_show_version                        0x0800182c   Section        0  kservice.o(i.rt_show_version)
    i.rt_strlen                              0x080018dc   Section        0  kservice.o(i.rt_strlen)
    i.rt_strncpy                             0x080018ec   Section        0  kservice.o(i.rt_strncpy)
    i.rt_system_heap_init                    0x08001914   Section        0  mem.o(i.rt_system_heap_init)
    i.rt_system_scheduler_init               0x080019c0   Section        0  scheduler.o(i.rt_system_scheduler_init)
    i.rt_system_scheduler_start              0x080019f4   Section        0  scheduler.o(i.rt_system_scheduler_start)
    i.rt_system_timer_init                   0x08001a1c   Section        0  timer.o(i.rt_system_timer_init)
    i.rt_system_timer_thread_init            0x08001a28   Section        0  timer.o(i.rt_system_timer_thread_init)
    i.rt_thread_create                       0x08001a2a   Section        0  thread.o(i.rt_thread_create)
    i.rt_thread_delay                        0x08001a72   Section        0  thread.o(i.rt_thread_delay)
    i.rt_thread_exit                         0x08001a78   Section        0  thread.o(i.rt_thread_exit)
    i.rt_thread_idle_entry                   0x08001ad0   Section        0  idle.o(i.rt_thread_idle_entry)
    rt_thread_idle_entry                     0x08001ad1   Thumb Code     6  idle.o(i.rt_thread_idle_entry)
    i.rt_thread_idle_excute                  0x08001ad8   Section        0  idle.o(i.rt_thread_idle_excute)
    i.rt_thread_idle_init                    0x08001b50   Section        0  idle.o(i.rt_thread_idle_init)
    i.rt_thread_init                         0x08001b88   Section        0  thread.o(i.rt_thread_init)
    i.rt_thread_resume                       0x08001bb8   Section        0  thread.o(i.rt_thread_resume)
    i.rt_thread_self                         0x08001bf4   Section        0  thread.o(i.rt_thread_self)
    i.rt_thread_sleep                        0x08001c00   Section        0  thread.o(i.rt_thread_sleep)
    i.rt_thread_startup                      0x08001c40   Section        0  thread.o(i.rt_thread_startup)
    i.rt_thread_suspend                      0x08001c6c   Section        0  thread.o(i.rt_thread_suspend)
    i.rt_thread_timeout                      0x08001cae   Section        0  thread.o(i.rt_thread_timeout)
    i.rt_thread_yield                        0x08001cd0   Section        0  thread.o(i.rt_thread_yield)
    i.rt_tick_get                            0x08001d30   Section        0  clock.o(i.rt_tick_get)
    i.rt_tick_increase                       0x08001d3c   Section        0  clock.o(i.rt_tick_increase)
    i.rt_timer_check                         0x08001d68   Section        0  timer.o(i.rt_timer_check)
    i.rt_timer_control                       0x08001dd0   Section        0  timer.o(i.rt_timer_control)
    i.rt_timer_detach                        0x08001e00   Section        0  timer.o(i.rt_timer_detach)
    i.rt_timer_init                          0x08001e20   Section        0  timer.o(i.rt_timer_init)
    i.rt_timer_start                         0x08001e48   Section        0  timer.o(i.rt_timer_start)
    i.rt_timer_stop                          0x08001ed4   Section        0  timer.o(i.rt_timer_stop)
    i.rt_vsnprintf                           0x08001f04   Section        0  kservice.o(i.rt_vsnprintf)
    i.rti_board_end                          0x08002180   Section        0  components.o(i.rti_board_end)
    rti_board_end                            0x08002181   Thumb Code     4  components.o(i.rti_board_end)
    i.rti_board_start                        0x08002184   Section        0  components.o(i.rti_board_start)
    rti_board_start                          0x08002185   Thumb Code     4  components.o(i.rti_board_start)
    i.rti_end                                0x08002188   Section        0  components.o(i.rti_end)
    rti_end                                  0x08002189   Thumb Code     4  components.o(i.rti_end)
    i.rti_start                              0x0800218c   Section        0  components.o(i.rti_start)
    rti_start                                0x0800218d   Thumb Code     4  components.o(i.rti_start)
    i.rtthread_startup                       0x08002190   Section        0  components.o(i.rtthread_startup)
    i.skip_atoi                              0x080021ba   Section        0  kservice.o(i.skip_atoi)
    skip_atoi                                0x080021bb   Thumb Code    40  kservice.o(i.skip_atoi)
    .constdata                               0x080021e2   Section       16  system_stm32f1xx.o(.constdata)
    .constdata                               0x080021f2   Section      290  kservice.o(.constdata)
    small_digits                             0x080022f2   Data          17  kservice.o(.constdata)
    large_digits                             0x08002303   Data          17  kservice.o(.constdata)
    .rti_fn.0                                0x08002314   Section        4  components.o(.rti_fn.0)
    __tagsym$$used                           0x08002314   Number         0  components.o(.rti_fn.0)
    .rti_fn.0.end                            0x08002318   Section        4  components.o(.rti_fn.0.end)
    __tagsym$$used                           0x08002318   Number         0  components.o(.rti_fn.0.end)
    .rti_fn.1.end                            0x0800231c   Section        4  components.o(.rti_fn.1.end)
    __tagsym$$used                           0x0800231c   Number         0  components.o(.rti_fn.1.end)
    .rti_fn.6.end                            0x08002320   Section        4  components.o(.rti_fn.6.end)
    __tagsym$$used                           0x08002320   Number         0  components.o(.rti_fn.6.end)
    .data                                    0x20000000   Section        4  app_rt_thread.o(.data)
    led1_thread                              0x20000000   Data           4  app_rt_thread.o(.data)
    .data                                    0x20000004   Section       12  stm32f1xx_hal.o(.data)
    .data                                    0x20000010   Section        4  system_stm32f1xx.o(.data)
    .data                                    0x20000014   Section        4  clock.o(.data)
    rt_tick                                  0x20000014   Data           4  clock.o(.data)
    .data                                    0x20000018   Section        1  irq.o(.data)
    .data                                    0x2000001c   Section       24  mem.o(.data)
    heap_ptr                                 0x2000001c   Data           4  mem.o(.data)
    heap_end                                 0x20000020   Data           4  mem.o(.data)
    lfree                                    0x20000024   Data           4  mem.o(.data)
    mem_size_aligned                         0x20000028   Data           4  mem.o(.data)
    used_mem                                 0x2000002c   Data           4  mem.o(.data)
    max_mem                                  0x20000030   Data           4  mem.o(.data)
    .data                                    0x20000034   Section       48  object.o(.data)
    rt_object_container                      0x20000034   Data          48  object.o(.data)
    .data                                    0x20000064   Section       20  scheduler.o(.data)
    rt_scheduler_lock_nest                   0x20000066   Data           2  scheduler.o(.data)
    .data                                    0x20000078   Section       12  timer.o(.data)
    random_nr                                0x20000078   Data           4  timer.o(.data)
    rt_timer_list                            0x2000007c   Data           8  timer.o(.data)
    .data                                    0x20000084   Section        4  cpuport.o(.data)
    rt_exception_hook                        0x20000084   Data           4  cpuport.o(.data)
    .data                                    0x20000088   Section        4  cpuport.o(.data)
    .data                                    0x2000008c   Section        4  cpuport.o(.data)
    .data                                    0x20000090   Section        4  cpuport.o(.data)
    .bss                                     0x20000094   Section     4096  board.o(.bss)
    rt_heap                                  0x20000094   Data        4096  board.o(.bss)
    .bss                                     0x20001094   Section      376  idle.o(.bss)
    idle                                     0x20001094   Data         120  idle.o(.bss)
    rt_thread_stack                          0x2000110c   Data         256  idle.o(.bss)
    .bss                                     0x2000120c   Section      128  kservice.o(.bss)
    rt_log_buf                               0x2000120c   Data         128  kservice.o(.bss)
    .bss                                     0x2000128c   Section       32  mem.o(.bss)
    heap_sem                                 0x2000128c   Data          32  mem.o(.bss)
    .bss                                     0x200012ac   Section      256  scheduler.o(.bss)
    STACK                                    0x200013b0   Section     1024  startup_stm32f103xb.o(STACK)

    Global Symbols

    Symbol Name                              Value     Ov Type        Size  Object(Section)

    BuildAttributes$$THM_ISAv4$P$D$K$B$S$PE$A:L22UL41UL21$X:L11$S22US41US21$IEEE1$IW$USESV6$~STKCKD$USESV7$~SHL$OSPACE$EBA8$MICROLIB$REQ8$PRES8$EABIv2 0x00000000   Number         0  anon$$obj.o ABSOLUTE
    __ARM_use_no_argv                        0x00000000   Number         0  main.o ABSOLUTE
    __cpp_initialize__aeabi_                  - Undefined Weak Reference
    __cxa_finalize                            - Undefined Weak Reference
    __decompress                              - Undefined Weak Reference
    _clock_init                               - Undefined Weak Reference
    _microlib_exit                            - Undefined Weak Reference
    __Vectors_Size                           0x000000ec   Number         0  startup_stm32f103xb.o ABSOLUTE
    __Vectors                                0x08000000   Data           4  startup_stm32f103xb.o(RESET)
    __Vectors_End                            0x080000ec   Data           0  startup_stm32f103xb.o(RESET)
    __main                                   0x080000ed   Thumb Code     0  entry.o(.ARM.Collect$$$$00000000)
    _main_stk                                0x080000ed   Thumb Code     0  entry2.o(.ARM.Collect$$$$00000001)
    _main_scatterload                        0x080000f1   Thumb Code     0  entry5.o(.ARM.Collect$$$$00000004)
    __main_after_scatterload                 0x080000f5   Thumb Code     0  entry5.o(.ARM.Collect$$$$00000004)
    _main_clock                              0x080000f5   Thumb Code     0  entry7b.o(.ARM.Collect$$$$00000008)
    _main_cpp_init                           0x080000f5   Thumb Code     0  entry8b.o(.ARM.Collect$$$$0000000A)
    _main_init                               0x080000f5   Thumb Code     0  entry9a.o(.ARM.Collect$$$$0000000B)
    __rt_final_cpp                           0x080000fd   Thumb Code     0  entry10a.o(.ARM.Collect$$$$0000000D)
    __rt_final_exit                          0x080000fd   Thumb Code     0  entry11a.o(.ARM.Collect$$$$0000000F)
    Reset_Handler                            0x08000101   Thumb Code     8  startup_stm32f103xb.o(.text)
    ADC1_2_IRQHandler                        0x0800011b   Thumb Code     0  startup_stm32f103xb.o(.text)
    CAN1_RX1_IRQHandler                      0x0800011b   Thumb Code     0  startup_stm32f103xb.o(.text)
    CAN1_SCE_IRQHandler                      0x0800011b   Thumb Code     0  startup_stm32f103xb.o(.text)
    DMA1_Channel1_IRQHandler                 0x0800011b   Thumb Code     0  startup_stm32f103xb.o(.text)
    DMA1_Channel2_IRQHandler                 0x0800011b   Thumb Code     0  startup_stm32f103xb.o(.text)
    DMA1_Channel3_IRQHandler                 0x0800011b   Thumb Code     0  startup_stm32f103xb.o(.text)
    DMA1_Channel4_IRQHandler                 0x0800011b   Thumb Code     0  startup_stm32f103xb.o(.text)
    DMA1_Channel5_IRQHandler                 0x0800011b   Thumb Code     0  startup_stm32f103xb.o(.text)
    DMA1_Channel6_IRQHandler                 0x0800011b   Thumb Code     0  startup_stm32f103xb.o(.text)
    DMA1_Channel7_IRQHandler                 0x0800011b   Thumb Code     0  startup_stm32f103xb.o(.text)
    EXTI0_IRQHandler                         0x0800011b   Thumb Code     0  startup_stm32f103xb.o(.text)
    EXTI15_10_IRQHandler                     0x0800011b   Thumb Code     0  startup_stm32f103xb.o(.text)
    EXTI1_IRQHandler                         0x0800011b   Thumb Code     0  startup_stm32f103xb.o(.text)
    EXTI2_IRQHandler                         0x0800011b   Thumb Code     0  startup_stm32f103xb.o(.text)
    EXTI3_IRQHandler                         0x0800011b   Thumb Code     0  startup_stm32f103xb.o(.text)
    EXTI4_IRQHandler                         0x0800011b   Thumb Code     0  startup_stm32f103xb.o(.text)
    EXTI9_5_IRQHandler                       0x0800011b   Thumb Code     0  startup_stm32f103xb.o(.text)
    FLASH_IRQHandler                         0x0800011b   Thumb Code     0  startup_stm32f103xb.o(.text)
    I2C1_ER_IRQHandler                       0x0800011b   Thumb Code     0  startup_stm32f103xb.o(.text)
    I2C1_EV_IRQHandler                       0x0800011b   Thumb Code     0  startup_stm32f103xb.o(.text)
    I2C2_ER_IRQHandler                       0x0800011b   Thumb Code     0  startup_stm32f103xb.o(.text)
    I2C2_EV_IRQHandler                       0x0800011b   Thumb Code     0  startup_stm32f103xb.o(.text)
    PVD_IRQHandler                           0x0800011b   Thumb Code     0  startup_stm32f103xb.o(.text)
    RCC_IRQHandler                           0x0800011b   Thumb Code     0  startup_stm32f103xb.o(.text)
    RTC_Alarm_IRQHandler                     0x0800011b   Thumb Code     0  startup_stm32f103xb.o(.text)
    RTC_IRQHandler                           0x0800011b   Thumb Code     0  startup_stm32f103xb.o(.text)
    SPI1_IRQHandler                          0x0800011b   Thumb Code     0  startup_stm32f103xb.o(.text)
    SPI2_IRQHandler                          0x0800011b   Thumb Code     0  startup_stm32f103xb.o(.text)
    TAMPER_IRQHandler                        0x0800011b   Thumb Code     0  startup_stm32f103xb.o(.text)
    TIM1_BRK_IRQHandler                      0x0800011b   Thumb Code     0  startup_stm32f103xb.o(.text)
    TIM1_CC_IRQHandler                       0x0800011b   Thumb Code     0  startup_stm32f103xb.o(.text)
    TIM1_TRG_COM_IRQHandler                  0x0800011b   Thumb Code     0  startup_stm32f103xb.o(.text)
    TIM1_UP_IRQHandler                       0x0800011b   Thumb Code     0  startup_stm32f103xb.o(.text)
    TIM2_IRQHandler                          0x0800011b   Thumb Code     0  startup_stm32f103xb.o(.text)
    TIM3_IRQHandler                          0x0800011b   Thumb Code     0  startup_stm32f103xb.o(.text)
    TIM4_IRQHandler                          0x0800011b   Thumb Code     0  startup_stm32f103xb.o(.text)
    USART1_IRQHandler                        0x0800011b   Thumb Code     0  startup_stm32f103xb.o(.text)
    USART2_IRQHandler                        0x0800011b   Thumb Code     0  startup_stm32f103xb.o(.text)
    USART3_IRQHandler                        0x0800011b   Thumb Code     0  startup_stm32f103xb.o(.text)
    USBWakeUp_IRQHandler                     0x0800011b   Thumb Code     0  startup_stm32f103xb.o(.text)
    USB_HP_CAN1_TX_IRQHandler                0x0800011b   Thumb Code     0  startup_stm32f103xb.o(.text)
    USB_LP_CAN1_RX0_IRQHandler               0x0800011b   Thumb Code     0  startup_stm32f103xb.o(.text)
    WWDG_IRQHandler                          0x0800011b   Thumb Code     0  startup_stm32f103xb.o(.text)
    rt_hw_interrupt_disable                  0x08000125   Thumb Code     8  context_rvds.o(.text)
    rt_hw_interrupt_enable                   0x0800012d   Thumb Code     6  context_rvds.o(.text)
    rt_hw_context_switch                     0x08000133   Thumb Code    32  context_rvds.o(.text)
    rt_hw_context_switch_interrupt           0x08000133   Thumb Code     0  context_rvds.o(.text)
    PendSV_Handler                           0x08000153   Thumb Code    60  context_rvds.o(.text)
    rt_hw_context_switch_to                  0x0800018f   Thumb Code    58  context_rvds.o(.text)
    rt_hw_interrupt_thread_switch            0x080001c9   Thumb Code     2  context_rvds.o(.text)
    HardFault_Handler                        0x080001cb   Thumb Code    52  context_rvds.o(.text)
    __aeabi_memset                           0x08000219   Thumb Code    14  memseta.o(.text)
    __aeabi_memset4                          0x08000219   Thumb Code     0  memseta.o(.text)
    __aeabi_memset8                          0x08000219   Thumb Code     0  memseta.o(.text)
    __aeabi_memclr                           0x08000227   Thumb Code     4  memseta.o(.text)
    __aeabi_memclr4                          0x08000227   Thumb Code     0  memseta.o(.text)
    __aeabi_memclr8                          0x08000227   Thumb Code     0  memseta.o(.text)
    _memset$wrapper                          0x0800022b   Thumb Code    18  memseta.o(.text)
    __scatterload                            0x0800023d   Thumb Code    28  init.o(.text)
    __scatterload_rt2                        0x0800023d   Thumb Code     0  init.o(.text)
    main                                     0x08000261   Thumb Code    10  components.o(i.$Sub$$main)
    BusFault_Handler                         0x0800026b   Thumb Code     2  stm32f1xx_it.o(i.BusFault_Handler)
    DebugMon_Handler                         0x0800026d   Thumb Code     2  stm32f1xx_it.o(i.DebugMon_Handler)
    HAL_GPIO_Init                            0x08000271   Thumb Code   446  stm32f1xx_hal_gpio.o(i.HAL_GPIO_Init)
    HAL_GPIO_WritePin                        0x08000451   Thumb Code    10  stm32f1xx_hal_gpio.o(i.HAL_GPIO_WritePin)
    HAL_GetTick                              0x0800045d   Thumb Code     6  stm32f1xx_hal.o(i.HAL_GetTick)
    HAL_Init                                 0x08000469   Thumb Code    32  stm32f1xx_hal.o(i.HAL_Init)
    HAL_InitTick                             0x0800048d   Thumb Code    54  stm32f1xx_hal.o(i.HAL_InitTick)
    HAL_MspInit                              0x080004cd   Thumb Code    52  stm32f1xx_hal_msp.o(i.HAL_MspInit)
    HAL_NVIC_SetPriority                     0x08000509   Thumb Code    60  stm32f1xx_hal_cortex.o(i.HAL_NVIC_SetPriority)
    HAL_NVIC_SetPriorityGrouping             0x08000549   Thumb Code    26  stm32f1xx_hal_cortex.o(i.HAL_NVIC_SetPriorityGrouping)
    HAL_RCC_ClockConfig                      0x0800056d   Thumb Code   280  stm32f1xx_hal_rcc.o(i.HAL_RCC_ClockConfig)
    HAL_RCC_GetSysClockFreq                  0x08000699   Thumb Code    74  stm32f1xx_hal_rcc.o(i.HAL_RCC_GetSysClockFreq)
    HAL_RCC_OscConfig                        0x08000705   Thumb Code   778  stm32f1xx_hal_rcc.o(i.HAL_RCC_OscConfig)
    HAL_SYSTICK_Config                       0x08000a25   Thumb Code    40  stm32f1xx_hal_cortex.o(i.HAL_SYSTICK_Config)
    MX_GPIO_Init                             0x08000a4d   Thumb Code   104  gpio.o(i.MX_GPIO_Init)
    MX_RT_Thread_Init                        0x08000abd   Thumb Code    44  app_rt_thread.o(i.MX_RT_Thread_Init)
    MemManage_Handler                        0x08000af9   Thumb Code     2  stm32f1xx_it.o(i.MemManage_Handler)
    NMI_Handler                              0x08000afb   Thumb Code     2  stm32f1xx_it.o(i.NMI_Handler)
    SVC_Handler                              0x08000afd   Thumb Code     2  stm32f1xx_it.o(i.SVC_Handler)
    SysTick_Handler                          0x08000aff   Thumb Code    18  board.o(i.SysTick_Handler)
    SystemClock_Config                       0x08000b11   Thumb Code    66  main.o(i.SystemClock_Config)
    SystemCoreClockUpdate                    0x08000b55   Thumb Code    82  system_stm32f1xx.o(i.SystemCoreClockUpdate)
    SystemInit                               0x08000bbd   Thumb Code    56  system_stm32f1xx.o(i.SystemInit)
    UsageFault_Handler                       0x08000c05   Thumb Code     2  stm32f1xx_it.o(i.UsageFault_Handler)
    __rt_ffs                                 0x08000c29   Thumb Code    62  kservice.o(i.__rt_ffs)
    __scatterload_copy                       0x08000c6d   Thumb Code    14  handlers.o(i.__scatterload_copy)
    __scatterload_null                       0x08000c7b   Thumb Code     2  handlers.o(i.__scatterload_null)
    __scatterload_zeroinit                   0x08000c7d   Thumb Code    14  handlers.o(i.__scatterload_zeroinit)
    $Super$$main                             0x08000d81   Thumb Code    18  main.o(i.main)
    main_thread_entry                        0x08000d93   Thumb Code    14  components.o(i.main_thread_entry)
    rt_application_init                      0x08000f25   Thumb Code    32  components.o(i.rt_application_init)
    rt_components_board_init                 0x08000f51   Thumb Code    20  components.o(i.rt_components_board_init)
    rt_components_init                       0x08000f6d   Thumb Code    20  components.o(i.rt_components_init)
    rt_enter_critical                        0x08000f89   Thumb Code    22  scheduler.o(i.rt_enter_critical)
    rt_exit_critical                         0x08000fa5   Thumb Code    52  scheduler.o(i.rt_exit_critical)
    rt_free                                  0x08000fdd   Thumb Code   112  mem.o(i.rt_free)
    rt_heap_begin_get                        0x080010a1   Thumb Code     4  board.o(i.rt_heap_begin_get)
    rt_heap_end_get                          0x080010a9   Thumb Code     4  board.o(i.rt_heap_end_get)
    rt_hw_board_init                         0x080010b1   Thumb Code    70  board.o(i.rt_hw_board_init)
    rt_hw_console_output                     0x08001101   Thumb Code     2  kservice.o(i.rt_hw_console_output)
    rt_hw_hard_fault_exception               0x08001105   Thumb Code   178  cpuport.o(i.rt_hw_hard_fault_exception)
    rt_hw_stack_init                         0x080012f9   Thumb Code    52  cpuport.o(i.rt_hw_stack_init)
    rt_interrupt_enter                       0x08001331   Thumb Code    22  irq.o(i.rt_interrupt_enter)
    rt_interrupt_leave                       0x0800134d   Thumb Code    22  irq.o(i.rt_interrupt_leave)
    rt_kprintf                               0x08001369   Thumb Code    28  kservice.o(i.rt_kprintf)
    rt_malloc                                0x080013e5   Thumb Code   232  mem.o(i.rt_malloc)
    rt_memset                                0x080014d5   Thumb Code    70  kservice.o(i.rt_memset)
    rt_object_allocate                       0x0800151b   Thumb Code    80  object.o(i.rt_object_allocate)
    rt_object_delete                         0x0800156b   Thumb Code    38  object.o(i.rt_object_delete)
    rt_object_detach                         0x08001591   Thumb Code    32  object.o(i.rt_object_detach)
    rt_object_get_information                0x080015b1   Thumb Code    30  object.o(i.rt_object_get_information)
    rt_object_init                           0x080015d5   Thumb Code    80  object.o(i.rt_object_init)
    rt_object_is_systemobject                0x08001625   Thumb Code    14  object.o(i.rt_object_is_systemobject)
    rt_schedule                              0x08001635   Thumb Code    76  scheduler.o(i.rt_schedule)
    rt_schedule_insert_thread                0x0800168d   Thumb Code    70  scheduler.o(i.rt_schedule_insert_thread)
    rt_schedule_remove_thread                0x080016dd   Thumb Code    64  scheduler.o(i.rt_schedule_remove_thread)
    rt_sem_init                              0x08001725   Thumb Code    36  ipc.o(i.rt_sem_init)
    rt_sem_release                           0x08001749   Thumb Code    54  ipc.o(i.rt_sem_release)
    rt_sem_take                              0x0800177f   Thumb Code   174  ipc.o(i.rt_sem_take)
    rt_show_version                          0x0800182d   Thumb Code    40  kservice.o(i.rt_show_version)
    rt_strlen                                0x080018dd   Thumb Code    16  kservice.o(i.rt_strlen)
    rt_strncpy                               0x080018ed   Thumb Code    38  kservice.o(i.rt_strncpy)
    rt_system_heap_init                      0x08001915   Thumb Code    96  mem.o(i.rt_system_heap_init)
    rt_system_scheduler_init                 0x080019c1   Thumb Code    44  scheduler.o(i.rt_system_scheduler_init)
    rt_system_scheduler_start                0x080019f5   Thumb Code    32  scheduler.o(i.rt_system_scheduler_start)
    rt_system_timer_init                     0x08001a1d   Thumb Code     8  timer.o(i.rt_system_timer_init)
    rt_system_timer_thread_init              0x08001a29   Thumb Code     2  timer.o(i.rt_system_timer_thread_init)
    rt_thread_create                         0x08001a2b   Thumb Code    72  thread.o(i.rt_thread_create)
    rt_thread_delay                          0x08001a73   Thumb Code     4  thread.o(i.rt_thread_delay)
    rt_thread_exit                           0x08001a79   Thumb Code    78  thread.o(i.rt_thread_exit)
    rt_thread_idle_excute                    0x08001ad9   Thumb Code   114  idle.o(i.rt_thread_idle_excute)
    rt_thread_idle_init                      0x08001b51   Thumb Code    40  idle.o(i.rt_thread_idle_init)
    rt_thread_init                           0x08001b89   Thumb Code    48  thread.o(i.rt_thread_init)
    rt_thread_resume                         0x08001bb9   Thumb Code    60  thread.o(i.rt_thread_resume)
    rt_thread_self                           0x08001bf5   Thumb Code     6  thread.o(i.rt_thread_self)
    rt_thread_sleep                          0x08001c01   Thumb Code    60  thread.o(i.rt_thread_sleep)
    rt_thread_startup                        0x08001c41   Thumb Code    40  thread.o(i.rt_thread_startup)
    rt_thread_suspend                        0x08001c6d   Thumb Code    66  thread.o(i.rt_thread_suspend)
    rt_thread_timeout                        0x08001caf   Thumb Code    32  thread.o(i.rt_thread_timeout)
    rt_thread_yield                          0x08001cd1   Thumb Code    86  thread.o(i.rt_thread_yield)
    rt_tick_get                              0x08001d31   Thumb Code     6  clock.o(i.rt_tick_get)
    rt_tick_increase                         0x08001d3d   Thumb Code    38  clock.o(i.rt_tick_increase)
    rt_timer_check                           0x08001d69   Thumb Code    98  timer.o(i.rt_timer_check)
    rt_timer_control                         0x08001dd1   Thumb Code    48  timer.o(i.rt_timer_control)
    rt_timer_detach                          0x08001e01   Thumb Code    32  timer.o(i.rt_timer_detach)
    rt_timer_init                            0x08001e21   Thumb Code    40  timer.o(i.rt_timer_init)
    rt_timer_start                           0x08001e49   Thumb Code   136  timer.o(i.rt_timer_start)
    rt_timer_stop                            0x08001ed5   Thumb Code    46  timer.o(i.rt_timer_stop)
    rt_vsnprintf                             0x08001f05   Thumb Code   626  kservice.o(i.rt_vsnprintf)
    rtthread_startup                         0x08002191   Thumb Code    42  components.o(i.rtthread_startup)
    AHBPrescTable                            0x080021e2   Data          16  system_stm32f1xx.o(.constdata)
    __lowest_bit_bitmap                      0x080021f2   Data         256  kservice.o(.constdata)
    __rt_init_rti_start                      0x08002314   Data           4  components.o(.rti_fn.0)
    __rt_init_rti_board_start                0x08002318   Data           4  components.o(.rti_fn.0.end)
    __rt_init_rti_board_end                  0x0800231c   Data           4  components.o(.rti_fn.1.end)
    __rt_init_rti_end                        0x08002320   Data           4  components.o(.rti_fn.6.end)
    Region$$Table$$Base                      0x08002324   Number         0  anon$$obj.o(Region$$Table)
    Region$$Table$$Limit                     0x08002344   Number         0  anon$$obj.o(Region$$Table)
    uwTickFreq                               0x20000004   Data           1  stm32f1xx_hal.o(.data)
    uwTickPrio                               0x20000008   Data           4  stm32f1xx_hal.o(.data)
    uwTick                                   0x2000000c   Data           4  stm32f1xx_hal.o(.data)
    SystemCoreClock                          0x20000010   Data           4  system_stm32f1xx.o(.data)
    rt_interrupt_nest                        0x20000018   Data           1  irq.o(.data)
    rt_current_priority                      0x20000064   Data           1  scheduler.o(.data)
    rt_current_thread                        0x20000068   Data           4  scheduler.o(.data)
    rt_thread_ready_priority_group           0x2000006c   Data           4  scheduler.o(.data)
    rt_thread_defunct                        0x20000070   Data           8  scheduler.o(.data)
    rt_interrupt_from_thread                 0x20000088   Data           4  cpuport.o(.data)
    rt_interrupt_to_thread                   0x2000008c   Data           4  cpuport.o(.data)
    rt_thread_switch_interrupt_flag          0x20000090   Data           4  cpuport.o(.data)
    rt_thread_priority_table                 0x200012ac   Data         256  scheduler.o(.bss)
    __initial_sp                             0x200017b0   Data           0  startup_stm32f103xb.o(STACK)



==============================================================================

Memory Map of the image

  Image Entry point : 0x080000ed

  Load Region LR_IROM1 (Base: 0x08000000, Size: 0x000023d8, Max: 0x00010000, ABSOLUTE)

    Execution Region ER_IROM1 (Exec base: 0x08000000, Load base: 0x08000000, Size: 0x00002344, Max: 0x00010000, ABSOLUTE)

    Exec Addr    Load Addr    Size         Type   Attr      Idx    E Section Name        Object

    0x08000000   0x08000000   0x000000ec   Data   RO            3    RESET               startup_stm32f103xb.o
    0x080000ec   0x080000ec   0x00000000   Code   RO         2268  * .ARM.Collect$$$$00000000  mc_w.l(entry.o)
    0x080000ec   0x080000ec   0x00000004   Code   RO         2275    .ARM.Collect$$$$00000001  mc_w.l(entry2.o)
    0x080000f0   0x080000f0   0x00000004   Code   RO         2278    .ARM.Collect$$$$00000004  mc_w.l(entry5.o)
    0x080000f4   0x080000f4   0x00000000   Code   RO         2280    .ARM.Collect$$$$00000008  mc_w.l(entry7b.o)
    0x080000f4   0x080000f4   0x00000000   Code   RO         2282    .ARM.Collect$$$$0000000A  mc_w.l(entry8b.o)
    0x080000f4   0x080000f4   0x00000008   Code   RO         2283    .ARM.Collect$$$$0000000B  mc_w.l(entry9a.o)
    0x080000fc   0x080000fc   0x00000000   Code   RO         2285    .ARM.Collect$$$$0000000D  mc_w.l(entry10a.o)
    0x080000fc   0x080000fc   0x00000000   Code   RO         2287    .ARM.Collect$$$$0000000F  mc_w.l(entry11a.o)
    0x080000fc   0x080000fc   0x00000004   Code   RO         2276    .ARM.Collect$$$$00002712  mc_w.l(entry2.o)
    0x08000100   0x08000100   0x00000024   Code   RO            4    .text               startup_stm32f103xb.o
    0x08000124   0x08000124   0x000000f4   Code   RO         1374    .text               context_rvds.o
    0x08000218   0x08000218   0x00000024   Code   RO         2273    .text               mc_w.l(memseta.o)
    0x0800023c   0x0800023c   0x00000024   Code   RO         2289    .text               mc_w.l(init.o)
    0x08000260   0x08000260   0x0000000a   Code   RO         1452    i.$Sub$$main        components.o
    0x0800026a   0x0800026a   0x00000002   Code   RO          211    i.BusFault_Handler  stm32f1xx_it.o
    0x0800026c   0x0800026c   0x00000002   Code   RO          212    i.DebugMon_Handler  stm32f1xx_it.o
    0x0800026e   0x0800026e   0x00000002   PAD
    0x08000270   0x08000270   0x000001e0   Code   RO          643    i.HAL_GPIO_Init     stm32f1xx_hal_gpio.o
    0x08000450   0x08000450   0x0000000a   Code   RO          647    i.HAL_GPIO_WritePin  stm32f1xx_hal_gpio.o
    0x0800045a   0x0800045a   0x00000002   PAD
    0x0800045c   0x0800045c   0x0000000c   Code   RO          339    i.HAL_GetTick       stm32f1xx_hal.o
    0x08000468   0x08000468   0x00000024   Code   RO          346    i.HAL_Init          stm32f1xx_hal.o
    0x0800048c   0x0800048c   0x00000040   Code   RO          347    i.HAL_InitTick      stm32f1xx_hal.o
    0x080004cc   0x080004cc   0x0000003c   Code   RO          268    i.HAL_MspInit       stm32f1xx_hal_msp.o
    0x08000508   0x08000508   0x00000040   Code   RO          809    i.HAL_NVIC_SetPriority  stm32f1xx_hal_cortex.o
    0x08000548   0x08000548   0x00000024   Code   RO          810    i.HAL_NVIC_SetPriorityGrouping  stm32f1xx_hal_cortex.o
    0x0800056c   0x0800056c   0x0000012c   Code   RO          503    i.HAL_RCC_ClockConfig  stm32f1xx_hal_rcc.o
    0x08000698   0x08000698   0x0000006c   Code   RO          512    i.HAL_RCC_GetSysClockFreq  stm32f1xx_hal_rcc.o
    0x08000704   0x08000704   0x00000320   Code   RO          515    i.HAL_RCC_OscConfig  stm32f1xx_hal_rcc.o
    0x08000a24   0x08000a24   0x00000028   Code   RO          814    i.HAL_SYSTICK_Config  stm32f1xx_hal_cortex.o
    0x08000a4c   0x08000a4c   0x00000070   Code   RO          187    i.MX_GPIO_Init      gpio.o
    0x08000abc   0x08000abc   0x0000003c   Code   RO           13    i.MX_RT_Thread_Init  app_rt_thread.o
    0x08000af8   0x08000af8   0x00000002   Code   RO          213    i.MemManage_Handler  stm32f1xx_it.o
    0x08000afa   0x08000afa   0x00000002   Code   RO          214    i.NMI_Handler       stm32f1xx_it.o
    0x08000afc   0x08000afc   0x00000002   Code   RO          215    i.SVC_Handler       stm32f1xx_it.o
    0x08000afe   0x08000afe   0x00000012   Code   RO         1378    i.SysTick_Handler   board.o
    0x08000b10   0x08000b10   0x00000042   Code   RO          149    i.SystemClock_Config  main.o
    0x08000b52   0x08000b52   0x00000002   PAD
    0x08000b54   0x08000b54   0x00000068   Code   RO         1339    i.SystemCoreClockUpdate  system_stm32f1xx.o
    0x08000bbc   0x08000bbc   0x00000048   Code   RO         1340    i.SystemInit        system_stm32f1xx.o
    0x08000c04   0x08000c04   0x00000002   Code   RO          216    i.UsageFault_Handler  stm32f1xx_it.o
    0x08000c06   0x08000c06   0x00000020   Code   RO          816    i.__NVIC_SetPriority  stm32f1xx_hal_cortex.o
    0x08000c26   0x08000c26   0x00000002   PAD
    0x08000c28   0x08000c28   0x00000044   Code   RO         1653    i.__rt_ffs          kservice.o
    0x08000c6c   0x08000c6c   0x0000000e   Code   RO         2293    i.__scatterload_copy  mc_w.l(handlers.o)
    0x08000c7a   0x08000c7a   0x00000002   Code   RO         2294    i.__scatterload_null  mc_w.l(handlers.o)
    0x08000c7c   0x08000c7c   0x0000000e   Code   RO         2295    i.__scatterload_zeroinit  mc_w.l(handlers.o)
    0x08000c8a   0x08000c8a   0x00000002   PAD
    0x08000c8c   0x08000c8c   0x00000014   Code   RO         1519    i._has_defunct_thread  idle.o
    0x08000ca0   0x08000ca0   0x00000080   Code   RO         2014    i._rt_thread_init   thread.o
    0x08000d20   0x08000d20   0x0000001c   Code   RO         2134    i._rt_timer_init    timer.o
    0x08000d3c   0x08000d3c   0x00000012   Code   RO         2135    i._rt_timer_remove  timer.o
    0x08000d4e   0x08000d4e   0x00000002   PAD
    0x08000d50   0x08000d50   0x00000030   Code   RO           14    i.led1_thread_entry  app_rt_thread.o
    0x08000d80   0x08000d80   0x00000012   Code   RO          150    i.main              main.o
    0x08000d92   0x08000d92   0x0000000e   Code   RO         1453    i.main_thread_entry  components.o
    0x08000da0   0x08000da0   0x00000054   Code   RO         1827    i.plug_holes        mem.o
    0x08000df4   0x08000df4   0x00000130   Code   RO         1655    i.print_number      kservice.o
    0x08000f24   0x08000f24   0x0000002c   Code   RO         1454    i.rt_application_init  components.o
    0x08000f50   0x08000f50   0x0000001c   Code   RO         1455    i.rt_components_board_init  components.o
    0x08000f6c   0x08000f6c   0x0000001c   Code   RO         1456    i.rt_components_init  components.o
    0x08000f88   0x08000f88   0x0000001c   Code   RO         1953    i.rt_enter_critical  scheduler.o
    0x08000fa4   0x08000fa4   0x00000038   Code   RO         1954    i.rt_exit_critical  scheduler.o
    0x08000fdc   0x08000fdc   0x000000c4   Code   RO         1829    i.rt_free           mem.o
    0x080010a0   0x080010a0   0x00000008   Code   RO         1379    i.rt_heap_begin_get  board.o
    0x080010a8   0x080010a8   0x00000008   Code   RO         1380    i.rt_heap_end_get   board.o
    0x080010b0   0x080010b0   0x00000050   Code   RO         1381    i.rt_hw_board_init  board.o
    0x08001100   0x08001100   0x00000002   Code   RO         1658    i.rt_hw_console_output  kservice.o
    0x08001102   0x08001102   0x00000002   PAD
    0x08001104   0x08001104   0x000001f4   Code   RO         2229    i.rt_hw_hard_fault_exception  cpuport.o
    0x080012f8   0x080012f8   0x00000038   Code   RO         2230    i.rt_hw_stack_init  cpuport.o
    0x08001330   0x08001330   0x0000001c   Code   RO         1626    i.rt_interrupt_enter  irq.o
    0x0800134c   0x0800134c   0x0000001c   Code   RO         1628    i.rt_interrupt_leave  irq.o
    0x08001368   0x08001368   0x00000020   Code   RO         1659    i.rt_kprintf        kservice.o
    0x08001388   0x08001388   0x0000000e   Code   RO         1877    i.rt_list_insert_after  object.o
    0x08001396   0x08001396   0x0000000e   Code   RO         2015    i.rt_list_insert_after  thread.o
    0x080013a4   0x080013a4   0x0000000e   Code   RO         2136    i.rt_list_insert_after  timer.o
    0x080013b2   0x080013b2   0x0000000e   Code   RO         1560    i.rt_list_insert_before  ipc.o
    0x080013c0   0x080013c0   0x00000012   Code   RO         1878    i.rt_list_remove    object.o
    0x080013d2   0x080013d2   0x00000012   Code   RO         2016    i.rt_list_remove    thread.o
    0x080013e4   0x080013e4   0x000000f0   Code   RO         1830    i.rt_malloc         mem.o
    0x080014d4   0x080014d4   0x00000046   Code   RO         1665    i.rt_memset         kservice.o
    0x0800151a   0x0800151a   0x00000050   Code   RO         1879    i.rt_object_allocate  object.o
    0x0800156a   0x0800156a   0x00000026   Code   RO         1880    i.rt_object_delete  object.o
    0x08001590   0x08001590   0x00000020   Code   RO         1881    i.rt_object_detach  object.o
    0x080015b0   0x080015b0   0x00000024   Code   RO         1883    i.rt_object_get_information  object.o
    0x080015d4   0x080015d4   0x00000050   Code   RO         1885    i.rt_object_init    object.o
    0x08001624   0x08001624   0x0000000e   Code   RO         1886    i.rt_object_is_systemobject  object.o
    0x08001632   0x08001632   0x00000002   PAD
    0x08001634   0x08001634   0x00000058   Code   RO         1955    i.rt_schedule       scheduler.o
    0x0800168c   0x0800168c   0x00000050   Code   RO         1956    i.rt_schedule_insert_thread  scheduler.o
    0x080016dc   0x080016dc   0x00000048   Code   RO         1957    i.rt_schedule_remove_thread  scheduler.o
    0x08001724   0x08001724   0x00000024   Code   RO         1565    i.rt_sem_init       ipc.o
    0x08001748   0x08001748   0x00000036   Code   RO         1566    i.rt_sem_release    ipc.o
    0x0800177e   0x0800177e   0x000000ae   Code   RO         1567    i.rt_sem_take       ipc.o
    0x0800182c   0x0800182c   0x000000b0   Code   RO         1667    i.rt_show_version   kservice.o
    0x080018dc   0x080018dc   0x00000010   Code   RO         1673    i.rt_strlen         kservice.o
    0x080018ec   0x080018ec   0x00000026   Code   RO         1675    i.rt_strncpy        kservice.o
    0x08001912   0x08001912   0x00000002   PAD
    0x08001914   0x08001914   0x000000ac   Code   RO         1833    i.rt_system_heap_init  mem.o
    0x080019c0   0x080019c0   0x00000034   Code   RO         1958    i.rt_system_scheduler_init  scheduler.o
    0x080019f4   0x080019f4   0x00000028   Code   RO         1959    i.rt_system_scheduler_start  scheduler.o
    0x08001a1c   0x08001a1c   0x0000000c   Code   RO         2137    i.rt_system_timer_init  timer.o
    0x08001a28   0x08001a28   0x00000002   Code   RO         2138    i.rt_system_timer_thread_init  timer.o
    0x08001a2a   0x08001a2a   0x00000048   Code   RO         2018    i.rt_thread_create  thread.o
    0x08001a72   0x08001a72   0x00000004   Code   RO         2019    i.rt_thread_delay   thread.o
    0x08001a76   0x08001a76   0x00000002   PAD
    0x08001a78   0x08001a78   0x00000058   Code   RO         2022    i.rt_thread_exit    thread.o
    0x08001ad0   0x08001ad0   0x00000006   Code   RO         1520    i.rt_thread_idle_entry  idle.o
    0x08001ad6   0x08001ad6   0x00000002   PAD
    0x08001ad8   0x08001ad8   0x00000078   Code   RO         1521    i.rt_thread_idle_excute  idle.o
    0x08001b50   0x08001b50   0x00000038   Code   RO         1523    i.rt_thread_idle_init  idle.o
    0x08001b88   0x08001b88   0x00000030   Code   RO         2024    i.rt_thread_init    thread.o
    0x08001bb8   0x08001bb8   0x0000003c   Code   RO         2026    i.rt_thread_resume  thread.o
    0x08001bf4   0x08001bf4   0x0000000c   Code   RO         2027    i.rt_thread_self    thread.o
    0x08001c00   0x08001c00   0x00000040   Code   RO         2028    i.rt_thread_sleep   thread.o
    0x08001c40   0x08001c40   0x0000002c   Code   RO         2029    i.rt_thread_startup  thread.o
    0x08001c6c   0x08001c6c   0x00000042   Code   RO         2030    i.rt_thread_suspend  thread.o
    0x08001cae   0x08001cae   0x00000020   Code   RO         2031    i.rt_thread_timeout  thread.o
    0x08001cce   0x08001cce   0x00000002   PAD
    0x08001cd0   0x08001cd0   0x00000060   Code   RO         2032    i.rt_thread_yield   thread.o
    0x08001d30   0x08001d30   0x0000000c   Code   RO         1416    i.rt_tick_get       clock.o
    0x08001d3c   0x08001d3c   0x0000002c   Code   RO         1417    i.rt_tick_increase  clock.o
    0x08001d68   0x08001d68   0x00000068   Code   RO         2139    i.rt_timer_check    timer.o
    0x08001dd0   0x08001dd0   0x00000030   Code   RO         2140    i.rt_timer_control  timer.o
    0x08001e00   0x08001e00   0x00000020   Code   RO         2143    i.rt_timer_detach   timer.o
    0x08001e20   0x08001e20   0x00000028   Code   RO         2144    i.rt_timer_init     timer.o
    0x08001e48   0x08001e48   0x0000008c   Code   RO         2146    i.rt_timer_start    timer.o
    0x08001ed4   0x08001ed4   0x0000002e   Code   RO         2147    i.rt_timer_stop     timer.o
    0x08001f02   0x08001f02   0x00000002   PAD
    0x08001f04   0x08001f04   0x0000027c   Code   RO         1678    i.rt_vsnprintf      kservice.o
    0x08002180   0x08002180   0x00000004   Code   RO         1457    i.rti_board_end     components.o
    0x08002184   0x08002184   0x00000004   Code   RO         1458    i.rti_board_start   components.o
    0x08002188   0x08002188   0x00000004   Code   RO         1459    i.rti_end           components.o
    0x0800218c   0x0800218c   0x00000004   Code   RO         1460    i.rti_start         components.o
    0x08002190   0x08002190   0x0000002a   Code   RO         1461    i.rtthread_startup  components.o
    0x080021ba   0x080021ba   0x00000028   Code   RO         1680    i.skip_atoi         kservice.o
    0x080021e2   0x080021e2   0x00000010   Data   RO         1341    .constdata          system_stm32f1xx.o
    0x080021f2   0x080021f2   0x00000122   Data   RO         1682    .constdata          kservice.o
    0x08002314   0x08002314   0x00000004   Data   RO         1462    .rti_fn.0           components.o
    0x08002318   0x08002318   0x00000004   Data   RO         1463    .rti_fn.0.end       components.o
    0x0800231c   0x0800231c   0x00000004   Data   RO         1464    .rti_fn.1.end       components.o
    0x08002320   0x08002320   0x00000004   Data   RO         1465    .rti_fn.6.end       components.o
    0x08002324   0x08002324   0x00000020   Data   RO         2291    Region$$Table       anon$$obj.o


    Execution Region RW_IRAM1 (Exec base: 0x20000000, Load base: 0x08002344, Size: 0x000017b0, Max: 0x00005000, ABSOLUTE)

    Exec Addr    Load Addr    Size         Type   Attr      Idx    E Section Name        Object

    0x20000000   0x08002344   0x00000004   Data   RW           15    .data               app_rt_thread.o
    0x20000004   0x08002348   0x0000000c   Data   RW          353    .data               stm32f1xx_hal.o
    0x20000010   0x08002354   0x00000004   Data   RW         1343    .data               system_stm32f1xx.o
    0x20000014   0x08002358   0x00000004   Data   RW         1419    .data               clock.o
    0x20000018   0x0800235c   0x00000001   Data   RW         1629    .data               irq.o
    0x20000019   0x0800235d   0x00000003   PAD
    0x2000001c   0x08002360   0x00000018   Data   RW         1835    .data               mem.o
    0x20000034   0x08002378   0x00000030   Data   RW         1888    .data               object.o
    0x20000064   0x080023a8   0x00000014   Data   RW         1961    .data               scheduler.o
    0x20000078   0x080023bc   0x0000000c   Data   RW         2148    .data               timer.o
    0x20000084   0x080023c8   0x00000004   Data   RW         2231    .data               cpuport.o
    0x20000088   0x080023cc   0x00000004   Data   RW         2232    .data               cpuport.o
    0x2000008c   0x080023d0   0x00000004   Data   RW         2233    .data               cpuport.o
    0x20000090   0x080023d4   0x00000004   Data   RW         2234    .data               cpuport.o
    0x20000094        -       0x00001000   Zero   RW         1382    .bss                board.o
    0x20001094        -       0x00000178   Zero   RW         1524    .bss                idle.o
    0x2000120c        -       0x00000080   Zero   RW         1681    .bss                kservice.o
    0x2000128c        -       0x00000020   Zero   RW         1834    .bss                mem.o
    0x200012ac        -       0x00000100   Zero   RW         1960    .bss                scheduler.o
    0x200013ac   0x080023d8   0x00000004   PAD
    0x200013b0        -       0x00000400   Zero   RW            1    STACK               startup_stm32f103xb.o


==============================================================================

Image component sizes


      Code (inc. data)   RO Data    RW Data    ZI Data      Debug   Object Name

       108         20          0          4          0     385540   app_rt_thread.o
       114         18          0          0       4096       3441   board.o
        56         12          0          4          0       1397   clock.o
       182         28         16          0          0       6638   components.o
       244         26          0          0          0        864   context_rvds.o
       556        326          0         16          0       3542   cpuport.o
       112          8          0          0          0        899   gpio.o
       202         26          0          0        376       6062   idle.o
       278          0          0          0          0       6745   ipc.o
        56         12          0          1          0       1878   irq.o
      1382        160        290          0        128      11499   kservice.o
        84          0          0          0          0       1020   main.o
       692        172          0         24         32       4352   mem.o
       312          6          0         48          0       9100   object.o
       416         56          0         20        256       8894   scheduler.o
        36          8        236          0       1024        808   startup_stm32f103xb.o
       112         20          0         12          0       4847   stm32f1xx_hal.o
       172         14          0          0          0      28318   stm32f1xx_hal_cortex.o
       490         34          0          0          0       2908   stm32f1xx_hal_gpio.o
        60          8          0          0          0        858   stm32f1xx_hal_msp.o
      1208         76          0          0          0       4094   stm32f1xx_hal_rcc.o
        12          0          0          0          0       2567   stm32f1xx_it.o
       176         38         16          4          0       1803   system_stm32f1xx.o
       746         44          0          0          0      12996   thread.o
       484         14          0         12          0      11252   timer.o

    ----------------------------------------------------------------------
      8314       1126        590        148       5916     522322   Object Totals
         0          0         32          0          0          0   (incl. Generated)
        24          0          0          3          4          0   (incl. Padding)

    ----------------------------------------------------------------------

      Code (inc. data)   RO Data    RW Data    ZI Data      Debug   Library Member Name

         0          0          0          0          0          0   entry.o
         0          0          0          0          0          0   entry10a.o
         0          0          0          0          0          0   entry11a.o
         8          4          0          0          0          0   entry2.o
         4          0          0          0          0          0   entry5.o
         0          0          0          0          0          0   entry7b.o
         0          0          0          0          0          0   entry8b.o
         8          4          0          0          0          0   entry9a.o
        30          0          0          0          0          0   handlers.o
        36          8          0          0          0         68   init.o
        36          0          0          0          0        108   memseta.o

    ----------------------------------------------------------------------
       124         16          0          0          0        176   Library Totals
         2          0          0          0          0          0   (incl. Padding)

    ----------------------------------------------------------------------

      Code (inc. data)   RO Data    RW Data    ZI Data      Debug   Library Name

       122         16          0          0          0        176   mc_w.l

    ----------------------------------------------------------------------
       124         16          0          0          0        176   Library Totals

    ----------------------------------------------------------------------

==============================================================================


      Code (inc. data)   RO Data    RW Data    ZI Data      Debug   

      8438       1142        590        148       5916     517242   Grand Totals
      8438       1142        590        148       5916     517242   ELF Image Totals
      8438       1142        590        148          0          0   ROM Totals

==============================================================================

    Total RO  Size (Code + RO Data)                 9028 (   8.82kB)
    Total RW  Size (RW Data + ZI Data)              6064 (   5.92kB)
    Total ROM Size (Code + RO Data + RW Data)       9176 (   8.96kB)

==============================================================================

