Component: ARM Compiler 5.06 update 6 (build 750) Tool: armlink [4d35ed]

==============================================================================

Section Cross References

    startup_stm32f103xb.o(RESET) refers to startup_stm32f103xb.o(STACK) for __initial_sp
    startup_stm32f103xb.o(RESET) refers to startup_stm32f103xb.o(.text) for Reset_Handler
    startup_stm32f103xb.o(RESET) refers to stm32f1xx_it.o(i.NMI_Handler) for NMI_Handler
    startup_stm32f103xb.o(RESET) refers to context_rvds.o(.text) for HardFault_Handler
    startup_stm32f103xb.o(RESET) refers to stm32f1xx_it.o(i.MemManage_Handler) for MemManage_Handler
    startup_stm32f103xb.o(RESET) refers to stm32f1xx_it.o(i.BusFault_Handler) for BusFault_Handler
    startup_stm32f103xb.o(RESET) refers to stm32f1xx_it.o(i.UsageFault_Handler) for UsageFault_Handler
    startup_stm32f103xb.o(RESET) refers to stm32f1xx_it.o(i.SVC_Handler) for SVC_Handler
    startup_stm32f103xb.o(RESET) refers to stm32f1xx_it.o(i.DebugMon_Handler) for DebugMon_Handler
    startup_stm32f103xb.o(RESET) refers to board.o(i.SysTick_Handler) for SysTick_Handler
    startup_stm32f103xb.o(RESET) refers to stm32f1xx_it.o(i.DMA1_Channel4_IRQHandler) for DMA1_Channel4_IRQHandler
    startup_stm32f103xb.o(RESET) refers to stm32f1xx_it.o(i.DMA1_Channel5_IRQHandler) for DMA1_Channel5_IRQHandler
    startup_stm32f103xb.o(RESET) refers to stm32f1xx_it.o(i.USART1_IRQHandler) for USART1_IRQHandler
    startup_stm32f103xb.o(RESET) refers to stm32f1xx_it.o(i.EXTI15_10_IRQHandler) for EXTI15_10_IRQHandler
    startup_stm32f103xb.o(.text) refers to system_stm32f1xx.o(i.SystemInit) for SystemInit
    startup_stm32f103xb.o(.text) refers to entry.o(.ARM.Collect$$$$00000000) for __main
    main.o(i.SystemClock_Config) refers to memseta.o(.text) for __aeabi_memclr4
    main.o(i.SystemClock_Config) refers to stm32f1xx_hal_rcc.o(i.HAL_RCC_OscConfig) for HAL_RCC_OscConfig
==============================================================================

Removing Unused input sections from the image.

    Removing startup_stm32f103xb.o(HEAP), (512 bytes).
    Removing main.o(.rev16_text), (4 bytes).
    Removing main.o(.revsh_text), (4 bytes).
    Removing main.o(.rrx_text), (6 bytes).
    Removing gpio.o(.rev16_text), (4 bytes).
    Removing gpio.o(.revsh_text), (4 bytes).
    Removing gpio.o(.rrx_text), (6 bytes).
    Removing dma.o(.rev16_text), (4 bytes).
    Removing dma.o(.revsh_text), (4 bytes).
    Removing dma.o(.rrx_text), (6 bytes).
    Removing usart.o(.rev16_text), (4 bytes).
    Removing usart.o(.revsh_text), (4 bytes).
    Removing usart.o(.rrx_text), (6 bytes).
    Removing usart.o(i.HAL_UART_MspDeInit), (68 bytes).
    Removing stm32f1xx_it.o(.rev16_text), (4 bytes).
    Removing stm32f1xx_it.o(.revsh_text), (4 bytes).
    Removing stm32f1xx_it.o(.rrx_text), (6 bytes).
    Removing stm32f1xx_hal_msp.o(.rev16_text), (4 bytes).
==============================================================================

Image Symbol Table

    Local Symbols

    Symbol Name                              Value     Ov Type        Size  Object(Section)

    ../Drivers/STM32F1xx_HAL_Driver/Src/stm32f1xx_hal.c 0x00000000   Number         0  stm32f1xx_hal.o ABSOLUTE
    ../Drivers/STM32F1xx_HAL_Driver/Src/stm32f1xx_hal_cortex.c 0x00000000   Number         0  stm32f1xx_hal_cortex.o ABSOLUTE
    ../Drivers/STM32F1xx_HAL_Driver/Src/stm32f1xx_hal_dma.c 0x00000000   Number         0  stm32f1xx_hal_dma.o ABSOLUTE
    ../Drivers/STM32F1xx_HAL_Driver/Src/stm32f1xx_hal_exti.c 0x00000000   Number         0  stm32f1xx_hal_exti.o ABSOLUTE
    ../Drivers/STM32F1xx_HAL_Driver/Src/stm32f1xx_hal_flash.c 0x00000000   Number         0  stm32f1xx_hal_flash.o ABSOLUTE
    ../Drivers/STM32F1xx_HAL_Driver/Src/stm32f1xx_hal_flash_ex.c 0x00000000   Number         0  stm32f1xx_hal_flash_ex.o ABSOLUTE
    ../Drivers/STM32F1xx_HAL_Driver/Src/stm32f1xx_hal_gpio.c 0x00000000   Number         0  stm32f1xx_hal_gpio.o ABSOLUTE
    ../Drivers/STM32F1xx_HAL_Driver/Src/stm32f1xx_hal_gpio_ex.c 0x00000000   Number         0  stm32f1xx_hal_gpio_ex.o ABSOLUTE
    ../Drivers/STM32F1xx_HAL_Driver/Src/stm32f1xx_hal_pwr.c 0x00000000   Number         0  stm32f1xx_hal_pwr.o ABSOLUTE
    ../Drivers/STM32F1xx_HAL_Driver/Src/stm32f1xx_hal_rcc.c 0x00000000   Number         0  stm32f1xx_hal_rcc.o ABSOLUTE
    ../Drivers/STM32F1xx_HAL_Driver/Src/stm32f1xx_hal_rcc_ex.c 0x00000000   Number         0  stm32f1xx_hal_rcc_ex.o ABSOLUTE
    ../Drivers/STM32F1xx_HAL_Driver/Src/stm32f1xx_hal_tim.c 0x00000000   Number         0  stm32f1xx_hal_tim.o ABSOLUTE
    ../Drivers/STM32F1xx_HAL_Driver/Src/stm32f1xx_hal_tim_ex.c 0x00000000   Number         0  stm32f1xx_hal_tim_ex.o ABSOLUTE
    ../Drivers/STM32F1xx_HAL_Driver/Src/stm32f1xx_hal_uart.c 0x00000000   Number         0  stm32f1xx_hal_uart.o ABSOLUTE
    ../Middlewares/Third_Party/RealThread_RTOS_RT-Thread/bsp/board.c 0x00000000   Number         0  board.o ABSOLUTE
    ../Middlewares/Third_Party/RealThread_RTOS_RT-Thread/libcpu/arm/cortex-m3/context_rvds.S 0x00000000   Number         0  context_rvds.o ABSOLUTE
    ../Middlewares/Third_Party/RealThread_RTOS_RT-Thread/libcpu/arm/cortex-m3/cpuport.c 0x00000000   Number         0  cpuport.o ABSOLUTE
    ../Middlewares/Third_Party/RealThread_RTOS_RT-Thread/src/clock.c 0x00000000   Number         0  clock.o ABSOLUTE
    ../Middlewares/Third_Party/RealThread_RTOS_RT-Thread/src/components.c 0x00000000   Number         0  components.o ABSOLUTE
    ../Middlewares/Third_Party/RealThread_RTOS_RT-Thread/src/idle.c 0x00000000   Number         0  idle.o ABSOLUTE
    ../Middlewares/Third_Party/RealThread_RTOS_RT-Thread/src/ipc.c 0x00000000   Number         0  ipc.o ABSOLUTE
    ../Middlewares/Third_Party/RealThread_RTOS_RT-Thread/src/irq.c 0x00000000   Number         0  irq.o ABSOLUTE
    ../Middlewares/Third_Party/RealThread_RTOS_RT-Thread/src/kservice.c 0x00000000   Number         0  kservice.o ABSOLUTE
    ../Middlewares/Third_Party/RealThread_RTOS_RT-Thread/src/mem.c 0x00000000   Number         0  mem.o ABSOLUTE
    ../Middlewares/Third_Party/RealThread_RTOS_RT-Thread/src/object.c 0x00000000   Number         0  object.o ABSOLUTE
    ../Middlewares/Third_Party/RealThread_RTOS_RT-Thread/src/scheduler.c 0x00000000   Number         0  scheduler.o ABSOLUTE
    ../Middlewares/Third_Party/RealThread_RTOS_RT-Thread/src/thread.c 0x00000000   Number         0  thread.o ABSOLUTE
    ../Middlewares/Third_Party/RealThread_RTOS_RT-Thread/src/timer.c 0x00000000   Number         0  timer.o ABSOLUTE
    ../Src/dma.c                             0x00000000   Number         0  dma.o ABSOLUTE
    ../Src/gpio.c                            0x00000000   Number         0  gpio.o ABSOLUTE
    ../Src/main.c                            0x00000000   Number         0  main.o ABSOLUTE
    ../Src/stm32f1xx_hal_msp.c               0x00000000   Number         0  stm32f1xx_hal_msp.o ABSOLUTE
    ../Src/stm32f1xx_it.c                    0x00000000   Number         0  stm32f1xx_it.o ABSOLUTE
    ../Src/system_stm32f1xx.c                0x00000000   Number         0  system_stm32f1xx.o ABSOLUTE
    ../Src/usart.c                           0x00000000   Number         0  usart.o ABSOLUTE
    ../clib/microlib/init/entry.s            0x00000000   Number         0  entry9b.o ABSOLUTE
    ../clib/microlib/init/entry.s            0x00000000   Number         0  entry10a.o ABSOLUTE
    ../clib/microlib/init/entry.s            0x00000000   Number         0  entry2.o ABSOLUTE
    ../clib/microlib/init/entry.s            0x00000000   Number         0  entry5.o ABSOLUTE
    ../clib/microlib/init/entry.s            0x00000000   Number         0  entry7b.o ABSOLUTE
    ../clib/microlib/init/entry.s            0x00000000   Number         0  entry8a.o ABSOLUTE
    ../clib/microlib/init/entry.s            0x00000000   Number         0  entry.o ABSOLUTE
    ../clib/microlib/init/entry.s            0x00000000   Number         0  entry9a.o ABSOLUTE
    ../clib/microlib/init/entry.s            0x00000000   Number         0  entry10b.o ABSOLUTE
    ../clib/microlib/init/entry.s            0x00000000   Number         0  entry11a.o ABSOLUTE
    ../clib/microlib/init/entry.s            0x00000000   Number         0  entry11b.o ABSOLUTE
    ../clib/microlib/init/entry.s            0x00000000   Number         0  entry8b.o ABSOLUTE
    ../clib/microlib/init/entry.s            0x00000000   Number         0  entry7a.o ABSOLUTE
    ../clib/microlib/longlong.c              0x00000000   Number         0  llushr.o ABSOLUTE
    ../clib/microlib/string/memset.c         0x00000000   Number         0  memseta.o ABSOLUTE
    ..\Drivers\STM32F1xx_HAL_Driver\Src\stm32f1xx_hal.c 0x00000000   Number         0  stm32f1xx_hal.o ABSOLUTE
    ..\Drivers\STM32F1xx_HAL_Driver\Src\stm32f1xx_hal_cortex.c 0x00000000   Number         0  stm32f1xx_hal_cortex.o ABSOLUTE
    ..\Drivers\STM32F1xx_HAL_Driver\Src\stm32f1xx_hal_dma.c 0x00000000   Number         0  stm32f1xx_hal_dma.o ABSOLUTE
    ..\Drivers\STM32F1xx_HAL_Driver\Src\stm32f1xx_hal_exti.c 0x00000000   Number         0  stm32f1xx_hal_exti.o ABSOLUTE
    ..\Drivers\STM32F1xx_HAL_Driver\Src\stm32f1xx_hal_flash.c 0x00000000   Number         0  stm32f1xx_hal_flash.o ABSOLUTE
    ..\Drivers\STM32F1xx_HAL_Driver\Src\stm32f1xx_hal_flash_ex.c 0x00000000   Number         0  stm32f1xx_hal_flash_ex.o ABSOLUTE
    ..\Drivers\STM32F1xx_HAL_Driver\Src\stm32f1xx_hal_gpio.c 0x00000000   Number         0  stm32f1xx_hal_gpio.o ABSOLUTE
    ..\Drivers\STM32F1xx_HAL_Driver\Src\stm32f1xx_hal_gpio_ex.c 0x00000000   Number         0  stm32f1xx_hal_gpio_ex.o ABSOLUTE
    ..\Drivers\STM32F1xx_HAL_Driver\Src\stm32f1xx_hal_pwr.c 0x00000000   Number         0  stm32f1xx_hal_pwr.o ABSOLUTE
    ..\Drivers\STM32F1xx_HAL_Driver\Src\stm32f1xx_hal_rcc.c 0x00000000   Number         0  stm32f1xx_hal_rcc.o ABSOLUTE
    ..\Drivers\STM32F1xx_HAL_Driver\Src\stm32f1xx_hal_rcc_ex.c 0x00000000   Number         0  stm32f1xx_hal_rcc_ex.o ABSOLUTE
    ..\Drivers\STM32F1xx_HAL_Driver\Src\stm32f1xx_hal_tim.c 0x00000000   Number         0  stm32f1xx_hal_tim.o ABSOLUTE
    ..\Drivers\STM32F1xx_HAL_Driver\Src\stm32f1xx_hal_tim_ex.c 0x00000000   Number         0  stm32f1xx_hal_tim_ex.o ABSOLUTE
    ..\Drivers\STM32F1xx_HAL_Driver\Src\stm32f1xx_hal_uart.c 0x00000000   Number         0  stm32f1xx_hal_uart.o ABSOLUTE
    ..\Middlewares\Third_Party\RealThread_RTOS_RT-Thread\src\kservice.c 0x00000000   Number         0  kservice.o ABSOLUTE
    ..\Src\app_rt_thread.c                   0x00000000   Number         0  app_rt_thread.o ABSOLUTE
    ..\Src\dma.c                             0x00000000   Number         0  dma.o ABSOLUTE
    ..\Src\gpio.c                            0x00000000   Number         0  gpio.o ABSOLUTE
    ..\Src\main.c                            0x00000000   Number         0  main.o ABSOLUTE
    ..\Src\stm32f1xx_hal_msp.c               0x00000000   Number         0  stm32f1xx_hal_msp.o ABSOLUTE
    ..\Src\stm32f1xx_it.c                    0x00000000   Number         0  stm32f1xx_it.o ABSOLUTE
    ..\Src\system_stm32f1xx.c                0x00000000   Number         0  system_stm32f1xx.o ABSOLUTE
    ..\Src\usart.c                           0x00000000   Number         0  usart.o ABSOLUTE
    ..\\Src\\app_rt_thread.c                 0x00000000   Number         0  app_rt_thread.o ABSOLUTE
    dc.s                                     0x00000000   Number         0  dc.o ABSOLUTE
    handlers.s                               0x00000000   Number         0  handlers.o ABSOLUTE
    init.s                                   0x00000000   Number         0  init.o ABSOLUTE
    startup_stm32f103xb.s                    0x00000000   Number         0  startup_stm32f103xb.o ABSOLUTE
    RESET                                    0x08000000   Section      236  startup_stm32f103xb.o(RESET)
    .ARM.Collect$$$$00000000                 0x080000ec   Section        0  entry.o(.ARM.Collect$$$$00000000)
    .ARM.Collect$$$$00000001                 0x080000ec   Section        4  entry2.o(.ARM.Collect$$$$00000001)
    .ARM.Collect$$$$00000004                 0x080000f0   Section        4  entry5.o(.ARM.Collect$$$$00000004)
    .ARM.Collect$$$$00000008                 0x080000f4   Section        0  entry7b.o(.ARM.Collect$$$$00000008)
    .ARM.Collect$$$$0000000A                 0x080000f4   Section        0  entry8b.o(.ARM.Collect$$$$0000000A)
    .ARM.Collect$$$$0000000B                 0x080000f4   Section        8  entry9a.o(.ARM.Collect$$$$0000000B)
    .ARM.Collect$$$$0000000D                 0x080000fc   Section        0  entry10a.o(.ARM.Collect$$$$0000000D)
    .ARM.Collect$$$$0000000F                 0x080000fc   Section        0  entry11a.o(.ARM.Collect$$$$0000000F)
    .ARM.Collect$$$$00002712                 0x080000fc   Section        4  entry2.o(.ARM.Collect$$$$00002712)
    __lit__00000000                          0x080000fc   Data           4  entry2.o(.ARM.Collect$$$$00002712)
    .text                                    0x08000100   Section       36  startup_stm32f103xb.o(.text)
    .text                                    0x08000124   Section      244  context_rvds.o(.text)
    .text                                    0x08000218   Section        0  memseta.o(.text)
    .text                                    0x0800023c   Section       36  init.o(.text)
    i.$Sub$$main                             0x08000260   Section        0  components.o(i.$Sub$$main)
    i.BusFault_Handler                       0x0800026a   Section        0  stm32f1xx_it.o(i.BusFault_Handler)
    i.DMA1_Channel4_IRQHandler               0x0800026c   Section        0  stm32f1xx_it.o(i.DMA1_Channel4_IRQHandler)
    i.DMA1_Channel5_IRQHandler               0x08000278   Section        0  stm32f1xx_it.o(i.DMA1_Channel5_IRQHandler)
    i.DebugMon_Handler                       0x08000284   Section        0  stm32f1xx_it.o(i.DebugMon_Handler)
    i.EXTI15_10_IRQHandler                   0x08000286   Section        0  stm32f1xx_it.o(i.EXTI15_10_IRQHandler)
    i.Error_Handler                          0x0800029c   Section        0  main.o(i.Error_Handler)
    i.HAL_DMA_Abort_IT                       0x080002a0   Section        0  stm32f1xx_hal_dma.o(i.HAL_DMA_Abort_IT)
    i.HAL_DMA_IRQHandler                     0x08000338   Section        0  stm32f1xx_hal_dma.o(i.HAL_DMA_IRQHandler)
    i.HAL_DMA_Init                           0x0800048c   Section        0  stm32f1xx_hal_dma.o(i.HAL_DMA_Init)
    i.HAL_GPIO_EXTI_Callback                 0x080004e8   Section        0  stm32f1xx_hal_gpio.o(i.HAL_GPIO_EXTI_Callback)
    i.HAL_GPIO_EXTI_IRQHandler               0x080004ec   Section        0  stm32f1xx_hal_gpio.o(i.HAL_GPIO_EXTI_IRQHandler)
    i.HAL_GPIO_Init                          0x08000504   Section        0  stm32f1xx_hal_gpio.o(i.HAL_GPIO_Init)
    i.HAL_GPIO_TogglePin                     0x080006e4   Section        0  stm32f1xx_hal_gpio.o(i.HAL_GPIO_TogglePin)
    i.HAL_GPIO_WritePin                      0x080006f2   Section        0  stm32f1xx_hal_gpio.o(i.HAL_GPIO_WritePin)
    i.HAL_GetTick                            0x080006fc   Section        0  stm32f1xx_hal.o(i.HAL_GetTick)
    i.HAL_Init                               0x08000708   Section        0  stm32f1xx_hal.o(i.HAL_Init)
    i.HAL_InitTick                           0x0800072c   Section        0  stm32f1xx_hal.o(i.HAL_InitTick)
    i.HAL_MspInit                            0x0800076c   Section        0  stm32f1xx_hal_msp.o(i.HAL_MspInit)
    i.HAL_NVIC_EnableIRQ                     0x080007a8   Section        0  stm32f1xx_hal_cortex.o(i.HAL_NVIC_EnableIRQ)
    i.HAL_NVIC_SetPriority                   0x080007c4   Section        0  stm32f1xx_hal_cortex.o(i.HAL_NVIC_SetPriority)
    i.HAL_NVIC_SetPriorityGrouping           0x08000804   Section        0  stm32f1xx_hal_cortex.o(i.HAL_NVIC_SetPriorityGrouping)
    i.HAL_RCC_ClockConfig                    0x08000828   Section        0  stm32f1xx_hal_rcc.o(i.HAL_RCC_ClockConfig)
    i.HAL_RCC_GetPCLK1Freq                   0x08000954   Section        0  stm32f1xx_hal_rcc.o(i.HAL_RCC_GetPCLK1Freq)
    i.HAL_RCC_GetPCLK2Freq                   0x08000974   Section        0  stm32f1xx_hal_rcc.o(i.HAL_RCC_GetPCLK2Freq)
    i.HAL_RCC_GetSysClockFreq                0x08000994   Section        0  stm32f1xx_hal_rcc.o(i.HAL_RCC_GetSysClockFreq)
    i.HAL_RCC_OscConfig                      0x08000a00   Section        0  stm32f1xx_hal_rcc.o(i.HAL_RCC_OscConfig)
    i.HAL_SYSTICK_Config                     0x08000d20   Section        0  stm32f1xx_hal_cortex.o(i.HAL_SYSTICK_Config)
    i.HAL_UART_ErrorCallback                 0x08000d48   Section        0  stm32f1xx_hal_uart.o(i.HAL_UART_ErrorCallback)
    i.HAL_UART_IRQHandler                    0x08000d4c   Section        0  stm32f1xx_hal_uart.o(i.HAL_UART_IRQHandler)
    i.HAL_UART_Init                          0x08000e5c   Section        0  stm32f1xx_hal_uart.o(i.HAL_UART_Init)
    i.HAL_UART_MspInit                       0x08000ec0   Section        0  usart.o(i.HAL_UART_MspInit)
    i.HAL_UART_RxCpltCallback                0x08000f9c   Section        0  stm32f1xx_hal_uart.o(i.HAL_UART_RxCpltCallback)
    i.HAL_UART_Transmit                      0x08000f9e   Section        0  stm32f1xx_hal_uart.o(i.HAL_UART_Transmit)
    i.HAL_UART_TxCpltCallback                0x08001058   Section        0  stm32f1xx_hal_uart.o(i.HAL_UART_TxCpltCallback)
    i.MX_DMA_Init                            0x0800105c   Section        0  dma.o(i.MX_DMA_Init)
    i.MX_GPIO_Init                           0x08001098   Section        0  gpio.o(i.MX_GPIO_Init)
    i.MX_RT_Thread_Init                      0x08001144   Section        0  app_rt_thread.o(i.MX_RT_Thread_Init)
    i.MX_USART1_UART_Init                    0x080011f4   Section        0  usart.o(i.MX_USART1_UART_Init)
    i.MemManage_Handler                      0x0800122c   Section        0  stm32f1xx_it.o(i.MemManage_Handler)
    i.NMI_Handler                            0x0800122e   Section        0  stm32f1xx_it.o(i.NMI_Handler)
    i.SVC_Handler                            0x08001230   Section        0  stm32f1xx_it.o(i.SVC_Handler)
    i.SysTick_Handler                        0x08001232   Section        0  board.o(i.SysTick_Handler)
    i.SystemClock_Config                     0x08001244   Section        0  main.o(i.SystemClock_Config)
    i.SystemCoreClockUpdate                  0x08001294   Section        0  system_stm32f1xx.o(i.SystemCoreClockUpdate)
    i.SystemInit                             0x080012fc   Section        0  system_stm32f1xx.o(i.SystemInit)
    i.UART_DMAAbortOnError                   0x08001344   Section        0  stm32f1xx_hal_uart.o(i.UART_DMAAbortOnError)
    UART_DMAAbortOnError                     0x08001345   Thumb Code    16  stm32f1xx_hal_uart.o(i.UART_DMAAbortOnError)
    i.UART_EndRxTransfer                     0x08001354   Section        0  stm32f1xx_hal_uart.o(i.UART_EndRxTransfer)
    UART_EndRxTransfer                       0x08001355   Thumb Code    28  stm32f1xx_hal_uart.o(i.UART_EndRxTransfer)
    i.UART_Receive_IT                        0x08001370   Section        0  stm32f1xx_hal_uart.o(i.UART_Receive_IT)
    UART_Receive_IT                          0x08001371   Thumb Code   150  stm32f1xx_hal_uart.o(i.UART_Receive_IT)
    i.UART_SetConfig                         0x08001408   Section        0  stm32f1xx_hal_uart.o(i.UART_SetConfig)
    UART_SetConfig                           0x08001409   Thumb Code   178  stm32f1xx_hal_uart.o(i.UART_SetConfig)
    i.UART_Transmit_IT                       0x080014c0   Section        0  stm32f1xx_hal_uart.o(i.UART_Transmit_IT)
    UART_Transmit_IT                         0x080014c1   Thumb Code    98  stm32f1xx_hal_uart.o(i.UART_Transmit_IT)
    i.UART_WaitOnFlagUntilTimeout            0x08001522   Section        0  stm32f1xx_hal_uart.o(i.UART_WaitOnFlagUntilTimeout)
    UART_WaitOnFlagUntilTimeout              0x08001523   Thumb Code   100  stm32f1xx_hal_uart.o(i.UART_WaitOnFlagUntilTimeout)
    i.USART1_IRQHandler                      0x08001588   Section        0  stm32f1xx_it.o(i.USART1_IRQHandler)
    i.UsageFault_Handler                     0x08001594   Section        0  stm32f1xx_it.o(i.UsageFault_Handler)
    i.__NVIC_SetPriority                     0x08001596   Section        0  stm32f1xx_hal_cortex.o(i.__NVIC_SetPriority)
    __NVIC_SetPriority                       0x08001597   Thumb Code    32  stm32f1xx_hal_cortex.o(i.__NVIC_SetPriority)
    i.__rt_ffs                               0x080015b8   Section        0  kservice.o(i.__rt_ffs)
    i.__scatterload_copy                     0x080015fc   Section       14  handlers.o(i.__scatterload_copy)
    i.__scatterload_null                     0x0800160a   Section        2  handlers.o(i.__scatterload_null)
    i.__scatterload_zeroinit                 0x0800160c   Section       14  handlers.o(i.__scatterload_zeroinit)
    i._has_defunct_thread                    0x0800161c   Section        0  idle.o(i._has_defunct_thread)
    _has_defunct_thread                      0x0800161d   Thumb Code    16  idle.o(i._has_defunct_thread)
    i._rt_thread_init                        0x08001630   Section        0  thread.o(i._rt_thread_init)
    _rt_thread_init                          0x08001631   Thumb Code   108  thread.o(i._rt_thread_init)
    i._rt_timer_init                         0x080016a4   Section        0  timer.o(i._rt_timer_init)
    _rt_timer_init                           0x080016a5   Thumb Code    28  timer.o(i._rt_timer_init)
    i._rt_timer_remove                       0x080016c0   Section        0  timer.o(i._rt_timer_remove)
    _rt_timer_remove                         0x080016c1   Thumb Code    18  timer.o(i._rt_timer_remove)
    i.main                                   0x080016d2   Section        0  main.o(i.main)
    i.main_thread_entry                      0x080016ec   Section        0  components.o(i.main_thread_entry)
    i.plug_holes                             0x080016fc   Section        0  mem.o(i.plug_holes)
    plug_holes                               0x080016fd   Thumb Code    80  mem.o(i.plug_holes)
    i.print_number                           0x08001750   Section        0  kservice.o(i.print_number)
    print_number                             0x08001751   Thumb Code   300  kservice.o(i.print_number)
    i.rt_application_init                    0x08001880   Section        0  components.o(i.rt_application_init)
    i.rt_components_board_init               0x080018ac   Section        0  components.o(i.rt_components_board_init)
    i.rt_components_init                     0x080018c8   Section        0  components.o(i.rt_components_init)
    i.rt_enter_critical                      0x080018e4   Section        0  scheduler.o(i.rt_enter_critical)
    i.rt_exit_critical                       0x08001900   Section        0  scheduler.o(i.rt_exit_critical)
    i.rt_free                                0x08001938   Section        0  mem.o(i.rt_free)
    i.rt_heap_begin_get                      0x080019fc   Section        0  board.o(i.rt_heap_begin_get)
    i.rt_heap_end_get                        0x08001a04   Section        0  board.o(i.rt_heap_end_get)
    i.rt_hw_board_init                       0x08001a0c   Section        0  board.o(i.rt_hw_board_init)
    i.rt_hw_console_output                   0x08001a5c   Section        0  kservice.o(i.rt_hw_console_output)
    i.rt_hw_hard_fault_exception             0x08001a9c   Section        0  cpuport.o(i.rt_hw_hard_fault_exception)
    i.rt_hw_stack_init                       0x08001c90   Section        0  cpuport.o(i.rt_hw_stack_init)
    i.rt_interrupt_enter                     0x08001cc8   Section        0  irq.o(i.rt_interrupt_enter)
    i.rt_interrupt_leave                     0x08001ce4   Section        0  irq.o(i.rt_interrupt_leave)
    i.rt_ipc_list_resume                     0x08001d00   Section        0  ipc.o(i.rt_ipc_list_resume)
    rt_ipc_list_resume                       0x08001d01   Thumb Code    14  ipc.o(i.rt_ipc_list_resume)
    i.rt_ipc_list_suspend                    0x08001d10   Section        0  ipc.o(i.rt_ipc_list_suspend)
    rt_ipc_list_suspend                      0x08001d11   Thumb Code    82  ipc.o(i.rt_ipc_list_suspend)
    i.rt_kprintf                             0x08001d64   Section        0  kservice.o(i.rt_kprintf)
    i.rt_list_insert_after                   0x08001d84   Section        0  object.o(i.rt_list_insert_after)
    rt_list_insert_after                     0x08001d85   Thumb Code    14  object.o(i.rt_list_insert_after)
    i.rt_list_insert_after                   0x08001d92   Section        0  thread.o(i.rt_list_insert_after)
    rt_list_insert_after                     0x08001d93   Thumb Code    14  thread.o(i.rt_list_insert_after)
    i.rt_list_insert_after                   0x08001da0   Section        0  timer.o(i.rt_list_insert_after)
    rt_list_insert_after                     0x08001da1   Thumb Code    14  timer.o(i.rt_list_insert_after)
    i.rt_list_insert_before                  0x08001dae   Section        0  ipc.o(i.rt_list_insert_before)
    rt_list_insert_before                    0x08001daf   Thumb Code    14  ipc.o(i.rt_list_insert_before)
    i.rt_list_remove                         0x08001dbc   Section        0  object.o(i.rt_list_remove)
    rt_list_remove                           0x08001dbd   Thumb Code    18  object.o(i.rt_list_remove)
    i.rt_list_remove                         0x08001dce   Section        0  thread.o(i.rt_list_remove)
    rt_list_remove                           0x08001dcf   Thumb Code    18  thread.o(i.rt_list_remove)
    i.rt_malloc                              0x08001de0   Section        0  mem.o(i.rt_malloc)
    i.rt_memset                              0x08001ed0   Section        0  kservice.o(i.rt_memset)
    i.rt_object_allocate                     0x08001ee2   Section        0  object.o(i.rt_object_allocate)
    i.rt_object_delete                       0x08001f32   Section        0  object.o(i.rt_object_delete)
    i.rt_object_detach                       0x08001f58   Section        0  object.o(i.rt_object_detach)
    i.rt_object_get_information              0x08001f78   Section        0  object.o(i.rt_object_get_information)
    i.rt_object_init                         0x08001f9c   Section        0  object.o(i.rt_object_init)
    i.rt_object_is_systemobject              0x08001fec   Section        0  object.o(i.rt_object_is_systemobject)
    i.rt_schedule                            0x08001ffc   Section        0  scheduler.o(i.rt_schedule)
    i.rt_schedule_insert_thread              0x08002054   Section        0  scheduler.o(i.rt_schedule_insert_thread)
    i.rt_schedule_remove_thread              0x080020a4   Section        0  scheduler.o(i.rt_schedule_remove_thread)
    i.rt_sem_init                            0x080020ec   Section        0  ipc.o(i.rt_sem_init)
    i.rt_sem_release                         0x08002110   Section        0  ipc.o(i.rt_sem_release)
    i.rt_sem_take                            0x08002144   Section        0  ipc.o(i.rt_sem_take)
    i.rt_show_version                        0x080021b4   Section        0  kservice.o(i.rt_show_version)
    i.rt_soft_timer_check                    0x08002264   Section        0  timer.o(i.rt_soft_timer_check)
    i.rt_strlen                              0x080022d4   Section        0  kservice.o(i.rt_strlen)
    i.rt_strncpy                             0x080022e4   Section        0  kservice.o(i.rt_strncpy)
    i.rt_system_heap_init                    0x0800230c   Section        0  mem.o(i.rt_system_heap_init)
    i.rt_system_scheduler_init               0x080023b8   Section        0  scheduler.o(i.rt_system_scheduler_init)
    i.rt_system_scheduler_start              0x080023ec   Section        0  scheduler.o(i.rt_system_scheduler_start)
    i.rt_system_timer_init                   0x08002414   Section        0  timer.o(i.rt_system_timer_init)
    i.rt_system_timer_thread_init            0x08002420   Section        0  timer.o(i.rt_system_timer_thread_init)
    i.rt_thread_create                       0x08002464   Section        0  thread.o(i.rt_thread_create)
    i.rt_thread_delay                        0x080024ac   Section        0  thread.o(i.rt_thread_delay)
    i.rt_thread_exit                         0x080024b0   Section        0  thread.o(i.rt_thread_exit)
    i.rt_thread_idle_entry                   0x08002508   Section        0  idle.o(i.rt_thread_idle_entry)
    rt_thread_idle_entry                     0x08002509   Thumb Code     6  idle.o(i.rt_thread_idle_entry)
    i.rt_thread_idle_excute                  0x08002510   Section        0  idle.o(i.rt_thread_idle_excute)
    i.rt_thread_idle_init                    0x08002588   Section        0  idle.o(i.rt_thread_idle_init)
    i.rt_thread_init                         0x080025c0   Section        0  thread.o(i.rt_thread_init)
    i.rt_thread_resume                       0x080025f0   Section        0  thread.o(i.rt_thread_resume)
    i.rt_thread_self                         0x0800262c   Section        0  thread.o(i.rt_thread_self)
    i.rt_thread_sleep                        0x08002638   Section        0  thread.o(i.rt_thread_sleep)
    i.rt_thread_startup                      0x08002678   Section        0  thread.o(i.rt_thread_startup)
    i.rt_thread_suspend                      0x080026a4   Section        0  thread.o(i.rt_thread_suspend)
    i.rt_thread_timeout                      0x080026e6   Section        0  thread.o(i.rt_thread_timeout)
    i.rt_thread_timer_entry                  0x08002708   Section        0  timer.o(i.rt_thread_timer_entry)
    rt_thread_timer_entry                    0x08002709   Thumb Code    50  timer.o(i.rt_thread_timer_entry)
    i.rt_thread_yield                        0x08002740   Section        0  thread.o(i.rt_thread_yield)
    i.rt_tick_get                            0x080027a0   Section        0  clock.o(i.rt_tick_get)
    i.rt_tick_increase                       0x080027ac   Section        0  clock.o(i.rt_tick_increase)
    i.rt_timer_check                         0x080027d8   Section        0  timer.o(i.rt_timer_check)
    i.rt_timer_control                       0x08002840   Section        0  timer.o(i.rt_timer_control)
    i.rt_timer_detach                        0x08002870   Section        0  timer.o(i.rt_timer_detach)
    i.rt_timer_init                          0x08002890   Section        0  timer.o(i.rt_timer_init)
    i.rt_timer_list_next_timeout             0x080028b8   Section        0  timer.o(i.rt_timer_list_next_timeout)
    rt_timer_list_next_timeout               0x080028b9   Thumb Code    16  timer.o(i.rt_timer_list_next_timeout)
    i.rt_timer_start                         0x080028c8   Section        0  timer.o(i.rt_timer_start)
    i.rt_timer_stop                          0x08002984   Section        0  timer.o(i.rt_timer_stop)
    i.rt_vsnprintf                           0x080029b4   Section        0  kservice.o(i.rt_vsnprintf)
    i.rti_board_end                          0x08002c30   Section        0  components.o(i.rti_board_end)
    rti_board_end                            0x08002c31   Thumb Code     4  components.o(i.rti_board_end)
    i.rti_board_start                        0x08002c34   Section        0  components.o(i.rti_board_start)
    rti_board_start                          0x08002c35   Thumb Code     4  components.o(i.rti_board_start)
    i.rti_end                                0x08002c38   Section        0  components.o(i.rti_end)
    rti_end                                  0x08002c39   Thumb Code     4  components.o(i.rti_end)
    i.rti_start                              0x08002c3c   Section        0  components.o(i.rti_start)
    rti_start                                0x08002c3d   Thumb Code     4  components.o(i.rti_start)
    i.rtthread_startup                       0x08002c40   Section        0  components.o(i.rtthread_startup)
    i.skip_atoi                              0x08002c6a   Section        0  kservice.o(i.skip_atoi)
    skip_atoi                                0x08002c6b   Thumb Code    40  kservice.o(i.skip_atoi)
    i.test1_thread_entry                     0x08002c94   Section        0  app_rt_thread.o(i.test1_thread_entry)
    test1_thread_entry                       0x08002c95   Thumb Code   178  app_rt_thread.o(i.test1_thread_entry)
    i.test2_thread_entry                     0x08002e90   Section        0  app_rt_thread.o(i.test2_thread_entry)
    test2_thread_entry                       0x08002e91   Thumb Code    32  app_rt_thread.o(i.test2_thread_entry)
    .constdata                               0x08002ec8   Section       16  system_stm32f1xx.o(.constdata)
    .constdata                               0x08002ed8   Section        8  system_stm32f1xx.o(.constdata)
    .constdata                               0x08002ee0   Section      290  kservice.o(.constdata)
    small_digits                             0x08002fe0   Data          17  kservice.o(.constdata)
    large_digits                             0x08002ff1   Data          17  kservice.o(.constdata)
    .conststring                             0x08003004   Section       79  app_rt_thread.o(.conststring)
    .rti_fn.0                                0x08003054   Section        4  components.o(.rti_fn.0)
    __tagsym$$used                           0x08003054   Number         0  components.o(.rti_fn.0)
    .rti_fn.0.end                            0x08003058   Section        4  components.o(.rti_fn.0.end)
    __tagsym$$used                           0x08003058   Number         0  components.o(.rti_fn.0.end)
    .rti_fn.1.end                            0x0800305c   Section        4  components.o(.rti_fn.1.end)
    __tagsym$$used                           0x0800305c   Number         0  components.o(.rti_fn.1.end)
    .rti_fn.6.end                            0x08003060   Section        4  components.o(.rti_fn.6.end)
    __tagsym$$used                           0x08003060   Number         0  components.o(.rti_fn.6.end)
    .data                                    0x20000000   Section        8  app_rt_thread.o(.data)
    test1_thread                             0x20000000   Data           4  app_rt_thread.o(.data)
    test2_thread                             0x20000004   Data           4  app_rt_thread.o(.data)
    .data                                    0x20000008   Section       12  stm32f1xx_hal.o(.data)
    .data                                    0x20000014   Section        4  system_stm32f1xx.o(.data)
    .data                                    0x20000018   Section        4  clock.o(.data)
    rt_tick                                  0x20000018   Data           4  clock.o(.data)
    .data                                    0x2000001c   Section        1  irq.o(.data)
    .data                                    0x20000020   Section       24  mem.o(.data)
    heap_ptr                                 0x20000020   Data           4  mem.o(.data)
    heap_end                                 0x20000024   Data           4  mem.o(.data)
    lfree                                    0x20000028   Data           4  mem.o(.data)
    mem_size_aligned                         0x2000002c   Data           4  mem.o(.data)
    used_mem                                 0x20000030   Data           4  mem.o(.data)
    max_mem                                  0x20000034   Data           4  mem.o(.data)
    .data                                    0x20000038   Section      112  object.o(.data)
    rt_object_container                      0x20000038   Data         112  object.o(.data)
    .data                                    0x200000a8   Section       20  scheduler.o(.data)
    rt_scheduler_lock_nest                   0x200000aa   Data           2  scheduler.o(.data)
    .data                                    0x200000bc   Section       20  timer.o(.data)
    random_nr                                0x200000bc   Data           4  timer.o(.data)
    rt_timer_list                            0x200000c0   Data           8  timer.o(.data)
    rt_soft_timer_list                       0x200000c8   Data           8  timer.o(.data)
    .data                                    0x200000d0   Section        4  cpuport.o(.data)
    rt_exception_hook                        0x200000d0   Data           4  cpuport.o(.data)
    .data                                    0x200000d4   Section        4  cpuport.o(.data)
    .data                                    0x200000d8   Section        4  cpuport.o(.data)
    .data                                    0x200000dc   Section        4  cpuport.o(.data)
    .bss                                     0x200000e0   Section      200  usart.o(.bss)
    .bss                                     0x200001a8   Section     4096  board.o(.bss)
    rt_heap                                  0x200001a8   Data        4096  board.o(.bss)
    .bss                                     0x200011a8   Section      384  idle.o(.bss)
    idle                                     0x200011a8   Data         128  idle.o(.bss)
    rt_thread_stack                          0x20001228   Data         256  idle.o(.bss)
    .bss                                     0x20001328   Section      128  kservice.o(.bss)
    rt_log_buf                               0x20001328   Data         128  kservice.o(.bss)
    .bss                                     0x200013a8   Section       32  mem.o(.bss)
    heap_sem                                 0x200013a8   Data          32  mem.o(.bss)
    .bss                                     0x200013c8   Section      256  scheduler.o(.bss)
    .bss                                     0x200014c8   Section      640  timer.o(.bss)
    timer_thread                             0x200014c8   Data         128  timer.o(.bss)
    timer_thread_stack                       0x20001548   Data         512  timer.o(.bss)
    STACK                                    0x20001748   Section     1024  startup_stm32f103xb.o(STACK)

    Global Symbols

    Symbol Name                              Value     Ov Type        Size  Object(Section)

    BuildAttributes$$THM_ISAv4$P$D$K$B$S$PE$A:L22UL41UL21$X:L11$S22US41US21$IEEE1$IW$USESV6$~STKCKD$USESV7$~SHL$OSPACE$EBA8$MICROLIB$REQ8$PRES8$EABIv2 0x00000000   Number         0  anon$$obj.o ABSOLUTE
    __ARM_use_no_argv                        0x00000000   Number         0  main.o ABSOLUTE
    __cpp_initialize__aeabi_                  - Undefined Weak Reference
    __cxa_finalize                            - Undefined Weak Reference
    __decompress                              - Undefined Weak Reference
    _clock_init                               - Undefined Weak Reference
    _microlib_exit                            - Undefined Weak Reference
    __Vectors_Size                           0x000000ec   Number         0  startup_stm32f103xb.o ABSOLUTE
    __Vectors                                0x08000000   Data           4  startup_stm32f103xb.o(RESET)
    __Vectors_End                            0x080000ec   Data           0  startup_stm32f103xb.o(RESET)
    __main                                   0x080000ed   Thumb Code     0  entry.o(.ARM.Collect$$$$00000000)
    _main_stk                                0x080000ed   Thumb Code     0  entry2.o(.ARM.Collect$$$$00000001)
    _main_scatterload                        0x080000f1   Thumb Code     0  entry5.o(.ARM.Collect$$$$00000004)
    __main_after_scatterload                 0x080000f5   Thumb Code     0  entry5.o(.ARM.Collect$$$$00000004)
    _main_clock                              0x080000f5   Thumb Code     0  entry7b.o(.ARM.Collect$$$$00000008)
    _main_cpp_init                           0x080000f5   Thumb Code     0  entry8b.o(.ARM.Collect$$$$0000000A)
    _main_init                               0x080000f5   Thumb Code     0  entry9a.o(.ARM.Collect$$$$0000000B)
    __rt_final_cpp                           0x080000fd   Thumb Code     0  entry10a.o(.ARM.Collect$$$$0000000D)
    __rt_final_exit                          0x080000fd   Thumb Code     0  entry11a.o(.ARM.Collect$$$$0000000F)
    Reset_Handler                            0x08000101   Thumb Code     8  startup_stm32f103xb.o(.text)
    ADC1_2_IRQHandler                        0x0800011b   Thumb Code     0  startup_stm32f103xb.o(.text)
    CAN1_RX1_IRQHandler                      0x0800011b   Thumb Code     0  startup_stm32f103xb.o(.text)
    CAN1_SCE_IRQHandler                      0x0800011b   Thumb Code     0  startup_stm32f103xb.o(.text)
    DMA1_Channel1_IRQHandler                 0x0800011b   Thumb Code     0  startup_stm32f103xb.o(.text)
    DMA1_Channel2_IRQHandler                 0x0800011b   Thumb Code     0  startup_stm32f103xb.o(.text)
    DMA1_Channel3_IRQHandler                 0x0800011b   Thumb Code     0  startup_stm32f103xb.o(.text)
    DMA1_Channel6_IRQHandler                 0x0800011b   Thumb Code     0  startup_stm32f103xb.o(.text)
    DMA1_Channel7_IRQHandler                 0x0800011b   Thumb Code     0  startup_stm32f103xb.o(.text)
    EXTI0_IRQHandler                         0x0800011b   Thumb Code     0  startup_stm32f103xb.o(.text)
    EXTI1_IRQHandler                         0x0800011b   Thumb Code     0  startup_stm32f103xb.o(.text)
    EXTI2_IRQHandler                         0x0800011b   Thumb Code     0  startup_stm32f103xb.o(.text)
    EXTI3_IRQHandler                         0x0800011b   Thumb Code     0  startup_stm32f103xb.o(.text)
    EXTI4_IRQHandler                         0x0800011b   Thumb Code     0  startup_stm32f103xb.o(.text)
    EXTI9_5_IRQHandler                       0x0800011b   Thumb Code     0  startup_stm32f103xb.o(.text)
    FLASH_IRQHandler                         0x0800011b   Thumb Code     0  startup_stm32f103xb.o(.text)
    I2C1_ER_IRQHandler                       0x0800011b   Thumb Code     0  startup_stm32f103xb.o(.text)
    I2C1_EV_IRQHandler                       0x0800011b   Thumb Code     0  startup_stm32f103xb.o(.text)
    I2C2_ER_IRQHandler                       0x0800011b   Thumb Code     0  startup_stm32f103xb.o(.text)
    I2C2_EV_IRQHandler                       0x0800011b   Thumb Code     0  startup_stm32f103xb.o(.text)
    PVD_IRQHandler                           0x0800011b   Thumb Code     0  startup_stm32f103xb.o(.text)
    RCC_IRQHandler                           0x0800011b   Thumb Code     0  startup_stm32f103xb.o(.text)
    RTC_Alarm_IRQHandler                     0x0800011b   Thumb Code     0  startup_stm32f103xb.o(.text)
    RTC_IRQHandler                           0x0800011b   Thumb Code     0  startup_stm32f103xb.o(.text)
    SPI1_IRQHandler                          0x0800011b   Thumb Code     0  startup_stm32f103xb.o(.text)
    SPI2_IRQHandler                          0x0800011b   Thumb Code     0  startup_stm32f103xb.o(.text)
    TAMPER_IRQHandler                        0x0800011b   Thumb Code     0  startup_stm32f103xb.o(.text)
    TIM1_BRK_IRQHandler                      0x0800011b   Thumb Code     0  startup_stm32f103xb.o(.text)
    TIM1_CC_IRQHandler                       0x0800011b   Thumb Code     0  startup_stm32f103xb.o(.text)
    TIM1_TRG_COM_IRQHandler                  0x0800011b   Thumb Code     0  startup_stm32f103xb.o(.text)
    TIM1_UP_IRQHandler                       0x0800011b   Thumb Code     0  startup_stm32f103xb.o(.text)
    TIM2_IRQHandler                          0x0800011b   Thumb Code     0  startup_stm32f103xb.o(.text)
    TIM3_IRQHandler                          0x0800011b   Thumb Code     0  startup_stm32f103xb.o(.text)
    TIM4_IRQHandler                          0x0800011b   Thumb Code     0  startup_stm32f103xb.o(.text)
    USART2_IRQHandler                        0x0800011b   Thumb Code     0  startup_stm32f103xb.o(.text)
    USART3_IRQHandler                        0x0800011b   Thumb Code     0  startup_stm32f103xb.o(.text)
    USBWakeUp_IRQHandler                     0x0800011b   Thumb Code     0  startup_stm32f103xb.o(.text)
    USB_HP_CAN1_TX_IRQHandler                0x0800011b   Thumb Code     0  startup_stm32f103xb.o(.text)
    USB_LP_CAN1_RX0_IRQHandler               0x0800011b   Thumb Code     0  startup_stm32f103xb.o(.text)
    WWDG_IRQHandler                          0x0800011b   Thumb Code     0  startup_stm32f103xb.o(.text)
    rt_hw_interrupt_disable                  0x08000125   Thumb Code     8  context_rvds.o(.text)
    rt_hw_interrupt_enable                   0x0800012d   Thumb Code     6  context_rvds.o(.text)
    rt_hw_context_switch                     0x08000133   Thumb Code    32  context_rvds.o(.text)
    rt_hw_context_switch_interrupt           0x08000133   Thumb Code     0  context_rvds.o(.text)
    PendSV_Handler                           0x08000153   Thumb Code    60  context_rvds.o(.text)
    rt_hw_context_switch_to                  0x0800018f   Thumb Code    58  context_rvds.o(.text)
    rt_hw_interrupt_thread_switch            0x080001c9   Thumb Code     2  context_rvds.o(.text)
    HardFault_Handler                        0x080001cb   Thumb Code    52  context_rvds.o(.text)
    __aeabi_memset                           0x08000219   Thumb Code    14  memseta.o(.text)
    __aeabi_memset4                          0x08000219   Thumb Code     0  memseta.o(.text)
    __aeabi_memset8                          0x08000219   Thumb Code     0  memseta.o(.text)
    __aeabi_memclr                           0x08000227   Thumb Code     4  memseta.o(.text)
    __aeabi_memclr4                          0x08000227   Thumb Code     0  memseta.o(.text)
    __aeabi_memclr8                          0x08000227   Thumb Code     0  memseta.o(.text)
    _memset$wrapper                          0x0800022b   Thumb Code    18  memseta.o(.text)
    __scatterload                            0x0800023d   Thumb Code    28  init.o(.text)
    __scatterload_rt2                        0x0800023d   Thumb Code     0  init.o(.text)
    main                                     0x08000261   Thumb Code    10  components.o(i.$Sub$$main)
    BusFault_Handler                         0x0800026b   Thumb Code     2  stm32f1xx_it.o(i.BusFault_Handler)
    DMA1_Channel4_IRQHandler                 0x0800026d   Thumb Code     6  stm32f1xx_it.o(i.DMA1_Channel4_IRQHandler)
    DMA1_Channel5_IRQHandler                 0x08000279   Thumb Code     6  stm32f1xx_it.o(i.DMA1_Channel5_IRQHandler)
    DebugMon_Handler                         0x08000285   Thumb Code     2  stm32f1xx_it.o(i.DebugMon_Handler)
    EXTI15_10_IRQHandler                     0x08000287   Thumb Code    22  stm32f1xx_it.o(i.EXTI15_10_IRQHandler)
    Error_Handler                            0x0800029d   Thumb Code     2  main.o(i.Error_Handler)
    HAL_DMA_Abort_IT                         0x080002a1   Thumb Code   148  stm32f1xx_hal_dma.o(i.HAL_DMA_Abort_IT)
    HAL_DMA_IRQHandler                       0x08000339   Thumb Code   316  stm32f1xx_hal_dma.o(i.HAL_DMA_IRQHandler)
    HAL_DMA_Init                             0x0800048d   Thumb Code    84  stm32f1xx_hal_dma.o(i.HAL_DMA_Init)
    HAL_GPIO_EXTI_Callback                   0x080004e9   Thumb Code     2  stm32f1xx_hal_gpio.o(i.HAL_GPIO_EXTI_Callback)
    HAL_GPIO_EXTI_IRQHandler                 0x080004ed   Thumb Code    18  stm32f1xx_hal_gpio.o(i.HAL_GPIO_EXTI_IRQHandler)
    HAL_GPIO_Init                            0x08000505   Thumb Code   446  stm32f1xx_hal_gpio.o(i.HAL_GPIO_Init)
    HAL_GPIO_TogglePin                       0x080006e5   Thumb Code    14  stm32f1xx_hal_gpio.o(i.HAL_GPIO_TogglePin)
    HAL_GPIO_WritePin                        0x080006f3   Thumb Code    10  stm32f1xx_hal_gpio.o(i.HAL_GPIO_WritePin)
    HAL_GetTick                              0x080006fd   Thumb Code     6  stm32f1xx_hal.o(i.HAL_GetTick)
    HAL_Init                                 0x08000709   Thumb Code    32  stm32f1xx_hal.o(i.HAL_Init)
    HAL_InitTick                             0x0800072d   Thumb Code    54  stm32f1xx_hal.o(i.HAL_InitTick)
    HAL_MspInit                              0x0800076d   Thumb Code    52  stm32f1xx_hal_msp.o(i.HAL_MspInit)
    HAL_NVIC_EnableIRQ                       0x080007a9   Thumb Code    26  stm32f1xx_hal_cortex.o(i.HAL_NVIC_EnableIRQ)
    HAL_NVIC_SetPriority                     0x080007c5   Thumb Code    60  stm32f1xx_hal_cortex.o(i.HAL_NVIC_SetPriority)
    HAL_NVIC_SetPriorityGrouping             0x08000805   Thumb Code    26  stm32f1xx_hal_cortex.o(i.HAL_NVIC_SetPriorityGrouping)
    HAL_RCC_ClockConfig                      0x08000829   Thumb Code   280  stm32f1xx_hal_rcc.o(i.HAL_RCC_ClockConfig)
    HAL_RCC_GetPCLK1Freq                     0x08000955   Thumb Code    20  stm32f1xx_hal_rcc.o(i.HAL_RCC_GetPCLK1Freq)
    HAL_RCC_GetPCLK2Freq                     0x08000975   Thumb Code    20  stm32f1xx_hal_rcc.o(i.HAL_RCC_GetPCLK2Freq)
    HAL_RCC_GetSysClockFreq                  0x08000995   Thumb Code    74  stm32f1xx_hal_rcc.o(i.HAL_RCC_GetSysClockFreq)
    HAL_RCC_OscConfig                        0x08000a01   Thumb Code   778  stm32f1xx_hal_rcc.o(i.HAL_RCC_OscConfig)
    HAL_SYSTICK_Config                       0x08000d21   Thumb Code    40  stm32f1xx_hal_cortex.o(i.HAL_SYSTICK_Config)
    HAL_UART_ErrorCallback                   0x08000d49   Thumb Code     2  stm32f1xx_hal_uart.o(i.HAL_UART_ErrorCallback)
    HAL_UART_IRQHandler                      0x08000d4d   Thumb Code   266  stm32f1xx_hal_uart.o(i.HAL_UART_IRQHandler)
    HAL_UART_Init                            0x08000e5d   Thumb Code    98  stm32f1xx_hal_uart.o(i.HAL_UART_Init)
    HAL_UART_MspInit                         0x08000ec1   Thumb Code   198  usart.o(i.HAL_UART_MspInit)
    HAL_UART_RxCpltCallback                  0x08000f9d   Thumb Code     2  stm32f1xx_hal_uart.o(i.HAL_UART_RxCpltCallback)
    HAL_UART_Transmit                        0x08000f9f   Thumb Code   186  stm32f1xx_hal_uart.o(i.HAL_UART_Transmit)
    HAL_UART_TxCpltCallback                  0x08001059   Thumb Code     2  stm32f1xx_hal_uart.o(i.HAL_UART_TxCpltCallback)
    MX_DMA_Init                              0x0800105d   Thumb Code    56  dma.o(i.MX_DMA_Init)
    MX_GPIO_Init                             0x08001099   Thumb Code   154  gpio.o(i.MX_GPIO_Init)
    MX_RT_Thread_Init                        0x08001145   Thumb Code    82  app_rt_thread.o(i.MX_RT_Thread_Init)
    MX_USART1_UART_Init                      0x080011f5   Thumb Code    48  usart.o(i.MX_USART1_UART_Init)
    MemManage_Handler                        0x0800122d   Thumb Code     2  stm32f1xx_it.o(i.MemManage_Handler)
    NMI_Handler                              0x0800122f   Thumb Code     2  stm32f1xx_it.o(i.NMI_Handler)
    SVC_Handler                              0x08001231   Thumb Code     2  stm32f1xx_it.o(i.SVC_Handler)
    SysTick_Handler                          0x08001233   Thumb Code    18  board.o(i.SysTick_Handler)
    SystemClock_Config                       0x08001245   Thumb Code    78  main.o(i.SystemClock_Config)
    SystemCoreClockUpdate                    0x08001295   Thumb Code    82  system_stm32f1xx.o(i.SystemCoreClockUpdate)
    SystemInit                               0x080012fd   Thumb Code    56  system_stm32f1xx.o(i.SystemInit)
    USART1_IRQHandler                        0x08001589   Thumb Code     6  stm32f1xx_it.o(i.USART1_IRQHandler)
    UsageFault_Handler                       0x08001595   Thumb Code     2  stm32f1xx_it.o(i.UsageFault_Handler)
    __rt_ffs                                 0x080015b9   Thumb Code    62  kservice.o(i.__rt_ffs)
    __scatterload_copy                       0x080015fd   Thumb Code    14  handlers.o(i.__scatterload_copy)
    __scatterload_null                       0x0800160b   Thumb Code     2  handlers.o(i.__scatterload_null)
    __scatterload_zeroinit                   0x0800160d   Thumb Code    14  handlers.o(i.__scatterload_zeroinit)
    $Super$$main                             0x080016d3   Thumb Code    26  main.o(i.main)
    main_thread_entry                        0x080016ed   Thumb Code    14  components.o(i.main_thread_entry)
    rt_application_init                      0x08001881   Thumb Code    32  components.o(i.rt_application_init)
    rt_components_board_init                 0x080018ad   Thumb Code    20  components.o(i.rt_components_board_init)
    rt_components_init                       0x080018c9   Thumb Code    20  components.o(i.rt_components_init)
    rt_enter_critical                        0x080018e5   Thumb Code    22  scheduler.o(i.rt_enter_critical)
    rt_exit_critical                         0x08001901   Thumb Code    52  scheduler.o(i.rt_exit_critical)
    rt_free                                  0x08001939   Thumb Code   112  mem.o(i.rt_free)
    rt_heap_begin_get                        0x080019fd   Thumb Code     4  board.o(i.rt_heap_begin_get)
    rt_heap_end_get                          0x08001a05   Thumb Code     4  board.o(i.rt_heap_end_get)
    rt_hw_board_init                         0x08001a0d   Thumb Code    70  board.o(i.rt_hw_board_init)
    rt_hw_console_output                     0x08001a5d   Thumb Code    58  kservice.o(i.rt_hw_console_output)
    rt_hw_hard_fault_exception               0x08001a9d   Thumb Code   178  cpuport.o(i.rt_hw_hard_fault_exception)
    rt_hw_stack_init                         0x08001c91   Thumb Code    52  cpuport.o(i.rt_hw_stack_init)
    rt_interrupt_enter                       0x08001cc9   Thumb Code    22  irq.o(i.rt_interrupt_enter)
    rt_interrupt_leave                       0x08001ce5   Thumb Code    22  irq.o(i.rt_interrupt_leave)
    rt_kprintf                               0x08001d65   Thumb Code    28  kservice.o(i.rt_kprintf)
    rt_malloc                                0x08001de1   Thumb Code   232  mem.o(i.rt_malloc)
    rt_memset                                0x08001ed1   Thumb Code    18  kservice.o(i.rt_memset)
    rt_object_allocate                       0x08001ee3   Thumb Code    80  object.o(i.rt_object_allocate)
    rt_object_delete                         0x08001f33   Thumb Code    38  object.o(i.rt_object_delete)
    rt_object_detach                         0x08001f59   Thumb Code    32  object.o(i.rt_object_detach)
    rt_object_get_information                0x08001f79   Thumb Code    30  object.o(i.rt_object_get_information)
    rt_object_init                           0x08001f9d   Thumb Code    80  object.o(i.rt_object_init)
    rt_object_is_systemobject                0x08001fed   Thumb Code    14  object.o(i.rt_object_is_systemobject)
    rt_schedule                              0x08001ffd   Thumb Code    76  scheduler.o(i.rt_schedule)
    rt_schedule_insert_thread                0x08002055   Thumb Code    70  scheduler.o(i.rt_schedule_insert_thread)
    rt_schedule_remove_thread                0x080020a5   Thumb Code    64  scheduler.o(i.rt_schedule_remove_thread)
    rt_sem_init                              0x080020ed   Thumb Code    36  ipc.o(i.rt_sem_init)
    rt_sem_release                           0x08002111   Thumb Code    52  ipc.o(i.rt_sem_release)
    rt_sem_take                              0x08002145   Thumb Code   110  ipc.o(i.rt_sem_take)
    rt_show_version                          0x080021b5   Thumb Code    40  kservice.o(i.rt_show_version)
    rt_soft_timer_check                      0x08002265   Thumb Code   106  timer.o(i.rt_soft_timer_check)
    rt_strlen                                0x080022d5   Thumb Code    16  kservice.o(i.rt_strlen)
    rt_strncpy                               0x080022e5   Thumb Code    38  kservice.o(i.rt_strncpy)
    rt_system_heap_init                      0x0800230d   Thumb Code    96  mem.o(i.rt_system_heap_init)
    rt_system_scheduler_init                 0x080023b9   Thumb Code    44  scheduler.o(i.rt_system_scheduler_init)
    rt_system_scheduler_start                0x080023ed   Thumb Code    32  scheduler.o(i.rt_system_scheduler_start)
    rt_system_timer_init                     0x08002415   Thumb Code     8  timer.o(i.rt_system_timer_init)
    rt_system_timer_thread_init              0x08002421   Thumb Code    46  timer.o(i.rt_system_timer_thread_init)
    rt_thread_create                         0x08002465   Thumb Code    72  thread.o(i.rt_thread_create)
    rt_thread_delay                          0x080024ad   Thumb Code     4  thread.o(i.rt_thread_delay)
    rt_thread_exit                           0x080024b1   Thumb Code    78  thread.o(i.rt_thread_exit)
    rt_thread_idle_excute                    0x08002511   Thumb Code   114  idle.o(i.rt_thread_idle_excute)
    rt_thread_idle_init                      0x08002589   Thumb Code    40  idle.o(i.rt_thread_idle_init)
    rt_thread_init                           0x080025c1   Thumb Code    48  thread.o(i.rt_thread_init)
    rt_thread_resume                         0x080025f1   Thumb Code    60  thread.o(i.rt_thread_resume)
    rt_thread_self                           0x0800262d   Thumb Code     6  thread.o(i.rt_thread_self)
    rt_thread_sleep                          0x08002639   Thumb Code    60  thread.o(i.rt_thread_sleep)
    rt_thread_startup                        0x08002679   Thumb Code    40  thread.o(i.rt_thread_startup)
    rt_thread_suspend                        0x080026a5   Thumb Code    66  thread.o(i.rt_thread_suspend)
    rt_thread_timeout                        0x080026e7   Thumb Code    32  thread.o(i.rt_thread_timeout)
    rt_thread_yield                          0x08002741   Thumb Code    86  thread.o(i.rt_thread_yield)
    rt_tick_get                              0x080027a1   Thumb Code     6  clock.o(i.rt_tick_get)
    rt_tick_increase                         0x080027ad   Thumb Code    38  clock.o(i.rt_tick_increase)
    rt_timer_check                           0x080027d9   Thumb Code    98  timer.o(i.rt_timer_check)
    rt_timer_control                         0x08002841   Thumb Code    48  timer.o(i.rt_timer_control)
    rt_timer_detach                          0x08002871   Thumb Code    32  timer.o(i.rt_timer_detach)
    rt_timer_init                            0x08002891   Thumb Code    40  timer.o(i.rt_timer_init)
    rt_timer_start                           0x080028c9   Thumb Code   178  timer.o(i.rt_timer_start)
    rt_timer_stop                            0x08002985   Thumb Code    46  timer.o(i.rt_timer_stop)
    rt_vsnprintf                             0x080029b5   Thumb Code   626  kservice.o(i.rt_vsnprintf)
    rtthread_startup                         0x08002c41   Thumb Code    42  components.o(i.rtthread_startup)
    AHBPrescTable                            0x08002ec8   Data          16  system_stm32f1xx.o(.constdata)
    APBPrescTable                            0x08002ed8   Data           8  system_stm32f1xx.o(.constdata)
    __lowest_bit_bitmap                      0x08002ee0   Data         256  kservice.o(.constdata)
    __rt_init_rti_start                      0x08003054   Data           4  components.o(.rti_fn.0)
    __rt_init_rti_board_start                0x08003058   Data           4  components.o(.rti_fn.0.end)
    __rt_init_rti_board_end                  0x0800305c   Data           4  components.o(.rti_fn.1.end)
    __rt_init_rti_end                        0x08003060   Data           4  components.o(.rti_fn.6.end)
    Region$$Table$$Base                      0x08003064   Number         0  anon$$obj.o(Region$$Table)
    Region$$Table$$Limit                     0x08003084   Number         0  anon$$obj.o(Region$$Table)
    uwTickFreq                               0x20000008   Data           1  stm32f1xx_hal.o(.data)
    uwTickPrio                               0x2000000c   Data           4  stm32f1xx_hal.o(.data)
    uwTick                                   0x20000010   Data           4  stm32f1xx_hal.o(.data)
    SystemCoreClock                          0x20000014   Data           4  system_stm32f1xx.o(.data)
    rt_interrupt_nest                        0x2000001c   Data           1  irq.o(.data)
    rt_current_priority                      0x200000a8   Data           1  scheduler.o(.data)
    rt_current_thread                        0x200000ac   Data           4  scheduler.o(.data)
    rt_thread_ready_priority_group           0x200000b0   Data           4  scheduler.o(.data)
    rt_thread_defunct                        0x200000b4   Data           8  scheduler.o(.data)
    rt_interrupt_from_thread                 0x200000d4   Data           4  cpuport.o(.data)
    rt_interrupt_to_thread                   0x200000d8   Data           4  cpuport.o(.data)
    rt_thread_switch_interrupt_flag          0x200000dc   Data           4  cpuport.o(.data)
    huart1                                   0x200000e0   Data          64  usart.o(.bss)
    hdma_usart1_rx                           0x20000120   Data          68  usart.o(.bss)
    hdma_usart1_tx                           0x20000164   Data          68  usart.o(.bss)
    rt_thread_priority_table                 0x200013c8   Data         256  scheduler.o(.bss)
    __initial_sp                             0x20001b48   Data           0  startup_stm32f103xb.o(STACK)



==============================================================================

Memory Map of the image

  Image Entry point : 0x080000ed

  Load Region LR_IROM1 (Base: 0x08000000, Size: 0x00003164, Max: 0x00020000, ABSOLUTE)

    Execution Region ER_IROM1 (Exec base: 0x08000000, Load base: 0x08000000, Size: 0x00003084, Max: 0x00020000, ABSOLUTE)

    Exec Addr    Load Addr    Size         Type   Attr      Idx    E Section Name        Object

    0x08000000   0x08000000   0x000000ec   Data   RO            3    RESET               startup_stm32f103xb.o
    0x080000ec   0x080000ec   0x00000000   Code   RO         2923  * .ARM.Collect$$$$00000000  mc_w.l(entry.o)
    0x080000ec   0x080000ec   0x00000004   Code   RO         2930    .ARM.Collect$$$$00000001  mc_w.l(entry2.o)
    0x080000f0   0x080000f0   0x00000004   Code   RO         2933    .ARM.Collect$$$$00000004  mc_w.l(entry5.o)
    0x080000f4   0x080000f4   0x00000000   Code   RO         2935    .ARM.Collect$$$$00000008  mc_w.l(entry7b.o)
    0x080000f4   0x080000f4   0x00000000   Code   RO         2937    .ARM.Collect$$$$0000000A  mc_w.l(entry8b.o)
    0x080000f4   0x080000f4   0x00000008   Code   RO         2938    .ARM.Collect$$$$0000000B  mc_w.l(entry9a.o)
    0x080000fc   0x080000fc   0x00000000   Code   RO         2940    .ARM.Collect$$$$0000000D  mc_w.l(entry10a.o)
    0x080000fc   0x080000fc   0x00000000   Code   RO         2942    .ARM.Collect$$$$0000000F  mc_w.l(entry11a.o)
    0x080000fc   0x080000fc   0x00000004   Code   RO         2931    .ARM.Collect$$$$00002712  mc_w.l(entry2.o)
    0x08000100   0x08000100   0x00000024   Code   RO            4    .text               startup_stm32f103xb.o
    0x08000124   0x08000124   0x000000f4   Code   RO         1810    .text               context_rvds.o
    0x08000218   0x08000218   0x00000024   Code   RO         2928    .text               mc_w.l(memseta.o)
    0x0800023c   0x0800023c   0x00000024   Code   RO         2944    .text               mc_w.l(init.o)
    0x08000260   0x08000260   0x0000000a   Code   RO         1891    i.$Sub$$main        components.o
    0x0800026a   0x0800026a   0x00000002   Code   RO          228    i.BusFault_Handler  stm32f1xx_it.o
    0x0800026c   0x0800026c   0x0000000c   Code   RO          229    i.DMA1_Channel4_IRQHandler  stm32f1xx_it.o
    0x08000278   0x08000278   0x0000000c   Code   RO          230    i.DMA1_Channel5_IRQHandler  stm32f1xx_it.o
    0x08000284   0x08000284   0x00000002   Code   RO          231    i.DebugMon_Handler  stm32f1xx_it.o
    0x08000286   0x08000286   0x00000016   Code   RO          232    i.EXTI15_10_IRQHandler  stm32f1xx_it.o
    0x0800029c   0x0800029c   0x00000002   Code   RO           13    i.Error_Handler     main.o
    0x0800029e   0x0800029e   0x00000002   PAD
    0x080002a0   0x080002a0   0x00000098   Code   RO          818    i.HAL_DMA_Abort_IT  stm32f1xx_hal_dma.o
    0x08000338   0x08000338   0x00000154   Code   RO          822    i.HAL_DMA_IRQHandler  stm32f1xx_hal_dma.o
    0x0800048c   0x0800048c   0x0000005c   Code   RO          823    i.HAL_DMA_Init      stm32f1xx_hal_dma.o
    0x080004e8   0x080004e8   0x00000002   Code   RO          751    i.HAL_GPIO_EXTI_Callback  stm32f1xx_hal_gpio.o
    0x080004ea   0x080004ea   0x00000002   PAD
    0x080004ec   0x080004ec   0x00000018   Code   RO          752    i.HAL_GPIO_EXTI_IRQHandler  stm32f1xx_hal_gpio.o
    0x08000504   0x08000504   0x000001e0   Code   RO          753    i.HAL_GPIO_Init     stm32f1xx_hal_gpio.o
    0x080006e4   0x080006e4   0x0000000e   Code   RO          756    i.HAL_GPIO_TogglePin  stm32f1xx_hal_gpio.o
    0x080006f2   0x080006f2   0x0000000a   Code   RO          757    i.HAL_GPIO_WritePin  stm32f1xx_hal_gpio.o
    0x080006fc   0x080006fc   0x0000000c   Code   RO          449    i.HAL_GetTick       stm32f1xx_hal.o
    0x08000708   0x08000708   0x00000024   Code   RO          456    i.HAL_Init          stm32f1xx_hal.o
    0x0800072c   0x0800072c   0x00000040   Code   RO          457    i.HAL_InitTick      stm32f1xx_hal.o
    0x0800076c   0x0800076c   0x0000003c   Code   RO          310    i.HAL_MspInit       stm32f1xx_hal_msp.o
    0x080007a8   0x080007a8   0x0000001a   Code   RO          913    i.HAL_NVIC_EnableIRQ  stm32f1xx_hal_cortex.o
    0x080007c2   0x080007c2   0x00000002   PAD
    0x080007c4   0x080007c4   0x00000040   Code   RO          919    i.HAL_NVIC_SetPriority  stm32f1xx_hal_cortex.o
    0x08000804   0x08000804   0x00000024   Code   RO          920    i.HAL_NVIC_SetPriorityGrouping  stm32f1xx_hal_cortex.o
    0x08000828   0x08000828   0x0000012c   Code   RO          613    i.HAL_RCC_ClockConfig  stm32f1xx_hal_rcc.o
    0x08000954   0x08000954   0x00000020   Code   RO          620    i.HAL_RCC_GetPCLK1Freq  stm32f1xx_hal_rcc.o
    0x08000974   0x08000974   0x00000020   Code   RO          621    i.HAL_RCC_GetPCLK2Freq  stm32f1xx_hal_rcc.o
    0x08000994   0x08000994   0x0000006c   Code   RO          622    i.HAL_RCC_GetSysClockFreq  stm32f1xx_hal_rcc.o
    0x08000a00   0x08000a00   0x00000320   Code   RO          625    i.HAL_RCC_OscConfig  stm32f1xx_hal_rcc.o
    0x08000d20   0x08000d20   0x00000028   Code   RO          924    i.HAL_SYSTICK_Config  stm32f1xx_hal_cortex.o
    0x08000d48   0x08000d48   0x00000002   Code   RO         1470    i.HAL_UART_ErrorCallback  stm32f1xx_hal_uart.o
    0x08000d4a   0x08000d4a   0x00000002   PAD
    0x08000d4c   0x08000d4c   0x00000110   Code   RO         1473    i.HAL_UART_IRQHandler  stm32f1xx_hal_uart.o
    0x08000e5c   0x08000e5c   0x00000062   Code   RO         1474    i.HAL_UART_Init     stm32f1xx_hal_uart.o
    0x08000ebe   0x08000ebe   0x00000002   PAD
    0x08000ec0   0x08000ec0   0x000000dc   Code   RO          187    i.HAL_UART_MspInit  usart.o
    0x08000f9c   0x08000f9c   0x00000002   Code   RO         1480    i.HAL_UART_RxCpltCallback  stm32f1xx_hal_uart.o
    0x08000f9e   0x08000f9e   0x000000ba   Code   RO         1482    i.HAL_UART_Transmit  stm32f1xx_hal_uart.o
    0x08001058   0x08001058   0x00000002   Code   RO         1485    i.HAL_UART_TxCpltCallback  stm32f1xx_hal_uart.o
    0x0800105a   0x0800105a   0x00000002   PAD
    0x0800105c   0x0800105c   0x0000003c   Code   RO          162    i.MX_DMA_Init       dma.o
    0x08001098   0x08001098   0x000000ac   Code   RO          138    i.MX_GPIO_Init      gpio.o
    0x08001144   0x08001144   0x000000b0   Code   RO          334    i.MX_RT_Thread_Init  app_rt_thread.o
    0x080011f4   0x080011f4   0x00000038   Code   RO          188    i.MX_USART1_UART_Init  usart.o
    0x0800122c   0x0800122c   0x00000002   Code   RO          233    i.MemManage_Handler  stm32f1xx_it.o
    0x0800122e   0x0800122e   0x00000002   Code   RO          234    i.NMI_Handler       stm32f1xx_it.o
    0x08001230   0x08001230   0x00000002   Code   RO          235    i.SVC_Handler       stm32f1xx_it.o
    0x08001232   0x08001232   0x00000012   Code   RO         1814    i.SysTick_Handler   board.o
    0x08001244   0x08001244   0x0000004e   Code   RO           14    i.SystemClock_Config  main.o
    0x08001292   0x08001292   0x00000002   PAD
    0x08001294   0x08001294   0x00000068   Code   RO         1775    i.SystemCoreClockUpdate  system_stm32f1xx.o
    0x080012fc   0x080012fc   0x00000048   Code   RO         1776    i.SystemInit        system_stm32f1xx.o
    0x08001344   0x08001344   0x00000010   Code   RO         1487    i.UART_DMAAbortOnError  stm32f1xx_hal_uart.o
    0x08001354   0x08001354   0x0000001c   Code   RO         1497    i.UART_EndRxTransfer  stm32f1xx_hal_uart.o
    0x08001370   0x08001370   0x00000096   Code   RO         1499    i.UART_Receive_IT   stm32f1xx_hal_uart.o
    0x08001406   0x08001406   0x00000002   PAD
    0x08001408   0x08001408   0x000000b8   Code   RO         1500    i.UART_SetConfig    stm32f1xx_hal_uart.o
    0x080014c0   0x080014c0   0x00000062   Code   RO         1501    i.UART_Transmit_IT  stm32f1xx_hal_uart.o
    0x08001522   0x08001522   0x00000064   Code   RO         1502    i.UART_WaitOnFlagUntilTimeout  stm32f1xx_hal_uart.o
    0x08001586   0x08001586   0x00000002   PAD
    0x08001588   0x08001588   0x0000000c   Code   RO          236    i.USART1_IRQHandler  stm32f1xx_it.o
    0x08001594   0x08001594   0x00000002   Code   RO          237    i.UsageFault_Handler  stm32f1xx_it.o
    0x08001596   0x08001596   0x00000020   Code   RO          926    i.__NVIC_SetPriority  stm32f1xx_hal_cortex.o
    0x080015b6   0x080015b6   0x00000002   PAD
    0x080015b8   0x080015b8   0x00000044   Code   RO         2285    i.__rt_ffs          kservice.o
    0x080015fc   0x080015fc   0x0000000e   Code   RO         2948    i.__scatterload_copy  mc_w.l(handlers.o)
    0x0800160a   0x0800160a   0x00000002   Code   RO         2949    i.__scatterload_null  mc_w.l(handlers.o)
    0x0800160c   0x0800160c   0x0000000e   Code   RO         2950    i.__scatterload_zeroinit  mc_w.l(handlers.o)
    0x0800161a   0x0800161a   0x00000002   PAD
    0x0800161c   0x0800161c   0x00000014   Code   RO         1958    i._has_defunct_thread  idle.o
    0x08001630   0x08001630   0x00000074   Code   RO         2655    i._rt_thread_init   thread.o
    0x080016a4   0x080016a4   0x0000001c   Code   RO         2772    i._rt_timer_init    timer.o
    0x080016c0   0x080016c0   0x00000012   Code   RO         2773    i._rt_timer_remove  timer.o
    0x080016d2   0x080016d2   0x0000001a   Code   RO           15    i.main              main.o
    0x080016ec   0x080016ec   0x0000000e   Code   RO         1892    i.main_thread_entry  components.o
    0x080016fa   0x080016fa   0x00000002   PAD
    0x080016fc   0x080016fc   0x00000054   Code   RO         2468    i.plug_holes        mem.o
    0x08001750   0x08001750   0x00000130   Code   RO         2287    i.print_number      kservice.o
    0x08001880   0x08001880   0x0000002c   Code   RO         1893    i.rt_application_init  components.o
    0x080018ac   0x080018ac   0x0000001c   Code   RO         1894    i.rt_components_board_init  components.o
    0x080018c8   0x080018c8   0x0000001c   Code   RO         1895    i.rt_components_init  components.o
    0x080018e4   0x080018e4   0x0000001c   Code   RO         2594    i.rt_enter_critical  scheduler.o
    0x08001900   0x08001900   0x00000038   Code   RO         2595    i.rt_exit_critical  scheduler.o
    0x08001938   0x08001938   0x000000c4   Code   RO         2470    i.rt_free           mem.o
    0x080019fc   0x080019fc   0x00000008   Code   RO         1815    i.rt_heap_begin_get  board.o
    0x08001a04   0x08001a04   0x00000008   Code   RO         1816    i.rt_heap_end_get   board.o
    0x08001a0c   0x08001a0c   0x00000050   Code   RO         1817    i.rt_hw_board_init  board.o
    0x08001a5c   0x08001a5c   0x00000040   Code   RO         2290    i.rt_hw_console_output  kservice.o
    0x08001a9c   0x08001a9c   0x000001f4   Code   RO         2884    i.rt_hw_hard_fault_exception  cpuport.o
    0x08001c90   0x08001c90   0x00000038   Code   RO         2885    i.rt_hw_stack_init  cpuport.o
    0x08001cc8   0x08001cc8   0x0000001c   Code   RO         2255    i.rt_interrupt_enter  irq.o
    0x08001ce4   0x08001ce4   0x0000001c   Code   RO         2257    i.rt_interrupt_leave  irq.o
    0x08001d00   0x08001d00   0x0000000e   Code   RO         2005    i.rt_ipc_list_resume  ipc.o
    0x08001d0e   0x08001d0e   0x00000002   PAD
    0x08001d10   0x08001d10   0x00000052   Code   RO         2007    i.rt_ipc_list_suspend  ipc.o
    0x08001d62   0x08001d62   0x00000002   PAD
    0x08001d64   0x08001d64   0x00000020   Code   RO         2291    i.rt_kprintf        kservice.o
    0x08001d84   0x08001d84   0x0000000e   Code   RO         2518    i.rt_list_insert_after  object.o
    0x08001d92   0x08001d92   0x0000000e   Code   RO         2656    i.rt_list_insert_after  thread.o
    0x08001da0   0x08001da0   0x0000000e   Code   RO         2774    i.rt_list_insert_after  timer.o
    0x08001dae   0x08001dae   0x0000000e   Code   RO         2008    i.rt_list_insert_before  ipc.o
    0x08001dbc   0x08001dbc   0x00000012   Code   RO         2519    i.rt_list_remove    object.o
    0x08001dce   0x08001dce   0x00000012   Code   RO         2657    i.rt_list_remove    thread.o
    0x08001de0   0x08001de0   0x000000f0   Code   RO         2471    i.rt_malloc         mem.o
    0x08001ed0   0x08001ed0   0x00000012   Code   RO         2297    i.rt_memset         kservice.o
    0x08001ee2   0x08001ee2   0x00000050   Code   RO         2520    i.rt_object_allocate  object.o
    0x08001f32   0x08001f32   0x00000026   Code   RO         2521    i.rt_object_delete  object.o
    0x08001f58   0x08001f58   0x00000020   Code   RO         2522    i.rt_object_detach  object.o
    0x08001f78   0x08001f78   0x00000024   Code   RO         2524    i.rt_object_get_information  object.o
    0x08001f9c   0x08001f9c   0x00000050   Code   RO         2526    i.rt_object_init    object.o
    0x08001fec   0x08001fec   0x0000000e   Code   RO         2527    i.rt_object_is_systemobject  object.o
    0x08001ffa   0x08001ffa   0x00000002   PAD
    0x08001ffc   0x08001ffc   0x00000058   Code   RO         2596    i.rt_schedule       scheduler.o
    0x08002054   0x08002054   0x00000050   Code   RO         2597    i.rt_schedule_insert_thread  scheduler.o
    0x080020a4   0x080020a4   0x00000048   Code   RO         2598    i.rt_schedule_remove_thread  scheduler.o
    0x080020ec   0x080020ec   0x00000024   Code   RO         2036    i.rt_sem_init       ipc.o
    0x08002110   0x08002110   0x00000034   Code   RO         2037    i.rt_sem_release    ipc.o
    0x08002144   0x08002144   0x0000006e   Code   RO         2038    i.rt_sem_take       ipc.o
    0x080021b2   0x080021b2   0x00000002   PAD
    0x080021b4   0x080021b4   0x000000b0   Code   RO         2299    i.rt_show_version   kservice.o
    0x08002264   0x08002264   0x00000070   Code   RO         2775    i.rt_soft_timer_check  timer.o
    0x080022d4   0x080022d4   0x00000010   Code   RO         2305    i.rt_strlen         kservice.o
    0x080022e4   0x080022e4   0x00000026   Code   RO         2307    i.rt_strncpy        kservice.o
    0x0800230a   0x0800230a   0x00000002   PAD
    0x0800230c   0x0800230c   0x000000ac   Code   RO         2474    i.rt_system_heap_init  mem.o
    0x080023b8   0x080023b8   0x00000034   Code   RO         2599    i.rt_system_scheduler_init  scheduler.o
    0x080023ec   0x080023ec   0x00000028   Code   RO         2600    i.rt_system_scheduler_start  scheduler.o
    0x08002414   0x08002414   0x0000000c   Code   RO         2776    i.rt_system_timer_init  timer.o
    0x08002420   0x08002420   0x00000044   Code   RO         2777    i.rt_system_timer_thread_init  timer.o
    0x08002464   0x08002464   0x00000048   Code   RO         2659    i.rt_thread_create  thread.o
    0x080024ac   0x080024ac   0x00000004   Code   RO         2660    i.rt_thread_delay   thread.o
    0x080024b0   0x080024b0   0x00000058   Code   RO         2663    i.rt_thread_exit    thread.o
    0x08002508   0x08002508   0x00000006   Code   RO         1959    i.rt_thread_idle_entry  idle.o
    0x0800250e   0x0800250e   0x00000002   PAD
    0x08002510   0x08002510   0x00000078   Code   RO         1960    i.rt_thread_idle_excute  idle.o
    0x08002588   0x08002588   0x00000038   Code   RO         1962    i.rt_thread_idle_init  idle.o
    0x080025c0   0x080025c0   0x00000030   Code   RO         2665    i.rt_thread_init    thread.o
    0x080025f0   0x080025f0   0x0000003c   Code   RO         2667    i.rt_thread_resume  thread.o
    0x0800262c   0x0800262c   0x0000000c   Code   RO         2668    i.rt_thread_self    thread.o
    0x08002638   0x08002638   0x00000040   Code   RO         2669    i.rt_thread_sleep   thread.o
    0x08002678   0x08002678   0x0000002c   Code   RO         2670    i.rt_thread_startup  thread.o
    0x080026a4   0x080026a4   0x00000042   Code   RO         2671    i.rt_thread_suspend  thread.o
    0x080026e6   0x080026e6   0x00000020   Code   RO         2672    i.rt_thread_timeout  thread.o
    0x08002706   0x08002706   0x00000002   PAD
    0x08002708   0x08002708   0x00000038   Code   RO         2778    i.rt_thread_timer_entry  timer.o
    0x08002740   0x08002740   0x00000060   Code   RO         2673    i.rt_thread_yield   thread.o
    0x080027a0   0x080027a0   0x0000000c   Code   RO         1855    i.rt_tick_get       clock.o
    0x080027ac   0x080027ac   0x0000002c   Code   RO         1856    i.rt_tick_increase  clock.o
    0x080027d8   0x080027d8   0x00000068   Code   RO         2779    i.rt_timer_check    timer.o
    0x08002840   0x08002840   0x00000030   Code   RO         2780    i.rt_timer_control  timer.o
    0x08002870   0x08002870   0x00000020   Code   RO         2783    i.rt_timer_detach   timer.o
    0x08002890   0x08002890   0x00000028   Code   RO         2784    i.rt_timer_init     timer.o
    0x080028b8   0x080028b8   0x00000010   Code   RO         2785    i.rt_timer_list_next_timeout  timer.o
    0x080028c8   0x080028c8   0x000000bc   Code   RO         2787    i.rt_timer_start    timer.o
    0x08002984   0x08002984   0x0000002e   Code   RO         2788    i.rt_timer_stop     timer.o
    0x080029b2   0x080029b2   0x00000002   PAD
    0x080029b4   0x080029b4   0x0000027c   Code   RO         2310    i.rt_vsnprintf      kservice.o
    0x08002c30   0x08002c30   0x00000004   Code   RO         1896    i.rti_board_end     components.o
    0x08002c34   0x08002c34   0x00000004   Code   RO         1897    i.rti_board_start   components.o
    0x08002c38   0x08002c38   0x00000004   Code   RO         1898    i.rti_end           components.o
    0x08002c3c   0x08002c3c   0x00000004   Code   RO         1899    i.rti_start         components.o
    0x08002c40   0x08002c40   0x0000002a   Code   RO         1900    i.rtthread_startup  components.o
    0x08002c6a   0x08002c6a   0x00000028   Code   RO         2312    i.skip_atoi         kservice.o
    0x08002c92   0x08002c92   0x00000002   PAD
    0x08002c94   0x08002c94   0x000001fc   Code   RO          335    i.test1_thread_entry  app_rt_thread.o
    0x08002e90   0x08002e90   0x00000038   Code   RO          336    i.test2_thread_entry  app_rt_thread.o
    0x08002ec8   0x08002ec8   0x00000010   Data   RO         1777    .constdata          system_stm32f1xx.o
    0x08002ed8   0x08002ed8   0x00000008   Data   RO         1778    .constdata          system_stm32f1xx.o
    0x08002ee0   0x08002ee0   0x00000122   Data   RO         2314    .constdata          kservice.o
    0x08003002   0x08003002   0x00000002   PAD
    0x08003004   0x08003004   0x0000004f   Data   RO          337    .conststring        app_rt_thread.o
    0x08003053   0x08003053   0x00000001   PAD
    0x08003054   0x08003054   0x00000004   Data   RO         1901    .rti_fn.0           components.o
    0x08003058   0x08003058   0x00000004   Data   RO         1902    .rti_fn.0.end       components.o
    0x0800305c   0x0800305c   0x00000004   Data   RO         1903    .rti_fn.1.end       components.o
    0x08003060   0x08003060   0x00000004   Data   RO         1904    .rti_fn.6.end       components.o
    0x08003064   0x08003064   0x00000020   Data   RO         2946    Region$$Table       anon$$obj.o


    Execution Region RW_IRAM1 (Exec base: 0x20000000, Load base: 0x08003084, Size: 0x00001b48, Max: 0x00005000, ABSOLUTE)

    Exec Addr    Load Addr    Size         Type   Attr      Idx    E Section Name        Object

    0x20000000   0x08003084   0x00000008   Data   RW          338    .data               app_rt_thread.o
    0x20000008   0x0800308c   0x0000000c   Data   RW          463    .data               stm32f1xx_hal.o
    0x20000014   0x08003098   0x00000004   Data   RW         1779    .data               system_stm32f1xx.o
    0x20000018   0x0800309c   0x00000004   Data   RW         1858    .data               clock.o
    0x2000001c   0x080030a0   0x00000001   Data   RW         2258    .data               irq.o
    0x2000001d   0x080030a1   0x00000003   PAD
    0x20000020   0x080030a4   0x00000018   Data   RW         2476    .data               mem.o
    0x20000038   0x080030bc   0x00000070   Data   RW         2529    .data               object.o
    0x200000a8   0x0800312c   0x00000014   Data   RW         2602    .data               scheduler.o
    0x200000bc   0x08003140   0x00000014   Data   RW         2790    .data               timer.o
    0x200000d0   0x08003154   0x00000004   Data   RW         2886    .data               cpuport.o
    0x200000d4   0x08003158   0x00000004   Data   RW         2887    .data               cpuport.o
    0x200000d8   0x0800315c   0x00000004   Data   RW         2888    .data               cpuport.o
    0x200000dc   0x08003160   0x00000004   Data   RW         2889    .data               cpuport.o
    0x200000e0        -       0x000000c8   Zero   RW          189    .bss                usart.o
    0x200001a8        -       0x00001000   Zero   RW         1818    .bss                board.o
    0x200011a8        -       0x00000180   Zero   RW         1963    .bss                idle.o
    0x20001328        -       0x00000080   Zero   RW         2313    .bss                kservice.o
    0x200013a8        -       0x00000020   Zero   RW         2475    .bss                mem.o
    0x200013c8        -       0x00000100   Zero   RW         2601    .bss                scheduler.o
    0x200014c8        -       0x00000280   Zero   RW         2789    .bss                timer.o
    0x20001748        -       0x00000400   Zero   RW            1    STACK               startup_stm32f103xb.o


==============================================================================

Image component sizes


      Code (inc. data)   RO Data    RW Data    ZI Data      Debug   Object Name

       740        448         79          8          0      11356   app_rt_thread.o
       114         18          0          0       4096       3361   board.o
        56         12          0          4          0       1357   clock.o
       182         28         16          0          0       6474   components.o
       244         26          0          0          0        852   context_rvds.o
       556        326          0         16          0       3494   cpuport.o
        60          4          0          0          0        730   dma.o
       172         18          0          0          0        919   gpio.o
       202         26          0          0        384       5978   idle.o
       308          0          0          0          0       7676   ipc.o
        56         12          0          1          0       1830   irq.o
      1392        166        290          0        128      10819   kservice.o
       106          0          0          0          0     393584   main.o
       692        172          0         24         32       4260   mem.o
       312          6          0        112          0       9048   object.o
       416         56          0         20        256       8754   scheduler.o
        36          8        236          0       1024        796   startup_stm32f103xb.o
       112         20          0         12          0       4767   stm32f1xx_hal.o
       198         14          0          0          0      28899   stm32f1xx_hal_cortex.o
       584         36          0          0          0       2691   stm32f1xx_hal_dma.o
       530         40          0          0          0       4553   stm32f1xx_hal_gpio.o
        60          8          0          0          0        830   stm32f1xx_hal_msp.o
      1272        100          0          0          0       5148   stm32f1xx_hal_rcc.o
      1138         12          0          0          0       8983   stm32f1xx_hal_uart.o
        70         18          0          0          0       4228   stm32f1xx_it.o
       176         38         24          4          0       1755   system_stm32f1xx.o
       734         42          0          0          0      10140   thread.o
       782         54          0         20        640      13374   timer.o
       276         30          0          0        200       1804   usart.o

    ----------------------------------------------------------------------
     11616       1738        680        224       6760     558460   Object Totals
         0          0         32          0          0          0   (incl. Generated)
        40          0          3          3          0          0   (incl. Padding)

    ----------------------------------------------------------------------

      Code (inc. data)   RO Data    RW Data    ZI Data      Debug   Library Member Name

         0          0          0          0          0          0   entry.o
         0          0          0          0          0          0   entry10a.o
         0          0          0          0          0          0   entry11a.o
         8          4          0          0          0          0   entry2.o
         4          0          0          0          0          0   entry5.o
         0          0          0          0          0          0   entry7b.o
         0          0          0          0          0          0   entry8b.o
         8          4          0          0          0          0   entry9a.o
        30          0          0          0          0          0   handlers.o
        36          8          0          0          0         68   init.o
        36          0          0          0          0        108   memseta.o

    ----------------------------------------------------------------------
       124         16          0          0          0        176   Library Totals
         2          0          0          0          0          0   (incl. Padding)

    ----------------------------------------------------------------------

      Code (inc. data)   RO Data    RW Data    ZI Data      Debug   Library Name

       122         16          0          0          0        176   mc_w.l

    ----------------------------------------------------------------------
       124         16          0          0          0        176   Library Totals

    ----------------------------------------------------------------------

==============================================================================


      Code (inc. data)   RO Data    RW Data    ZI Data      Debug   

     11740       1754        680        224       6760     551560   Grand Totals
     11740       1754        680        224       6760     551560   ELF Image Totals
     11740       1754        680        224          0          0   ROM Totals

==============================================================================

    Total RO  Size (Code + RO Data)                12420 (  12.13kB)
    Total RW  Size (RW Data + ZI Data)              6984 (   6.82kB)
    Total ROM Size (Code + RO Data + RW Data)      12644 (  12.35kB)

==============================================================================

