Component: ARM Compiler 5.06 update 6 (build 750) Tool: armlink [4d35ed]

==============================================================================

Section Cross References

    startup_stm32f103xb.o(RESET) refers to startup_stm32f103xb.o(STACK) for __initial_sp
    startup_stm32f103xb.o(RESET) refers to startup_stm32f103xb.o(.text) for Reset_Handler
    startup_stm32f103xb.o(RESET) refers to stm32f1xx_it.o(i.NMI_Handler) for NMI_Handler
    startup_stm32f103xb.o(RESET) refers to context_rvds.o(.text) for HardFault_Handler
    startup_stm32f103xb.o(RESET) refers to stm32f1xx_it.o(i.MemManage_Handler) for MemManage_Handler
    startup_stm32f103xb.o(RESET) refers to stm32f1xx_it.o(i.BusFault_Handler) for BusFault_Handler
    startup_stm32f103xb.o(RESET) refers to stm32f1xx_it.o(i.UsageFault_Handler) for UsageFault_Handler
    startup_stm32f103xb.o(RESET) refers to stm32f1xx_it.o(i.SVC_Handler) for SVC_Handler
    startup_stm32f103xb.o(RESET) refers to stm32f1xx_it.o(i.DebugMon_Handler) for DebugMon_Handler
    startup_stm32f103xb.o(RESET) refers to board.o(i.SysTick_Handler) for SysTick_Handler
    startup_stm32f103xb.o(.text) refers to system_stm32f1xx.o(i.SystemInit) for SystemInit
    startup_stm32f103xb.o(.text) refers to entry.o(.ARM.Collect$$$$00000000) for __main
    main.o(i.SystemClock_Config) refers to memseta.o(.text) for __aeabi_memclr4
    main.o(i.SystemClock_Config) refers to stm32f1xx_hal_rcc.o(i.HAL_RCC_OscConfig) for HAL_RCC_OscConfig
    main.o(i.SystemClock_Config) refers to stm32f1xx_hal_rcc.o(i.HAL_RCC_ClockConfig) for HAL_RCC_ClockConfig
    main.o(i.main) refers to stm32f1xx_hal.o(i.HAL_Init) for HAL_Init
    main.o(i.main) refers to main.o(i.SystemClock_Config) for SystemClock_Config
    main.o(i.main) refers to gpio.o(i.MX_GPIO_Init) for MX_GPIO_Init
==============================================================================

Removing Unused input sections from the image.

    Removing startup_stm32f103xb.o(HEAP), (512 bytes).
    Removing main.o(.rev16_text), (4 bytes).
    Removing main.o(.revsh_text), (4 bytes).
    Removing main.o(.rrx_text), (6 bytes).
    Removing main.o(i.Error_Handler), (2 bytes).
    Removing gpio.o(.rev16_text), (4 bytes).
    Removing gpio.o(.revsh_text), (4 bytes).
    Removing gpio.o(.rrx_text), (6 bytes).
    Removing stm32f1xx_it.o(.rev16_text), (4 bytes).
    Removing stm32f1xx_it.o(.revsh_text), (4 bytes).
    Removing stm32f1xx_it.o(.rrx_text), (6 bytes).
    Removing stm32f1xx_hal_msp.o(.rev16_text), (4 bytes).
    Removing stm32f1xx_hal_msp.o(.revsh_text), (4 bytes).
    Removing stm32f1xx_hal_msp.o(.rrx_text), (6 bytes).
    Removing app_rt_thread.o(.rev16_text), (4 bytes).
    Removing app_rt_thread.o(.revsh_text), (4 bytes).
    Removing app_rt_thread.o(.rrx_text), (6 bytes).
    Removing stm32f1xx_hal_gpio_ex.o(.rev16_text), (4 bytes).
==============================================================================

Image Symbol Table

    Local Symbols

    Symbol Name                              Value     Ov Type        Size  Object(Section)

    ../Drivers/STM32F1xx_HAL_Driver/Src/stm32f1xx_hal.c 0x00000000   Number         0  stm32f1xx_hal.o ABSOLUTE
    ../Drivers/STM32F1xx_HAL_Driver/Src/stm32f1xx_hal_cortex.c 0x00000000   Number         0  stm32f1xx_hal_cortex.o ABSOLUTE
    ../Drivers/STM32F1xx_HAL_Driver/Src/stm32f1xx_hal_dma.c 0x00000000   Number         0  stm32f1xx_hal_dma.o ABSOLUTE
    ../Drivers/STM32F1xx_HAL_Driver/Src/stm32f1xx_hal_exti.c 0x00000000   Number         0  stm32f1xx_hal_exti.o ABSOLUTE
    ../Drivers/STM32F1xx_HAL_Driver/Src/stm32f1xx_hal_flash.c 0x00000000   Number         0  stm32f1xx_hal_flash.o ABSOLUTE
    ../Drivers/STM32F1xx_HAL_Driver/Src/stm32f1xx_hal_flash_ex.c 0x00000000   Number         0  stm32f1xx_hal_flash_ex.o ABSOLUTE
    ../Drivers/STM32F1xx_HAL_Driver/Src/stm32f1xx_hal_gpio.c 0x00000000   Number         0  stm32f1xx_hal_gpio.o ABSOLUTE
    ../Drivers/STM32F1xx_HAL_Driver/Src/stm32f1xx_hal_gpio_ex.c 0x00000000   Number         0  stm32f1xx_hal_gpio_ex.o ABSOLUTE
    ../Drivers/STM32F1xx_HAL_Driver/Src/stm32f1xx_hal_pwr.c 0x00000000   Number         0  stm32f1xx_hal_pwr.o ABSOLUTE
    ../Drivers/STM32F1xx_HAL_Driver/Src/stm32f1xx_hal_rcc.c 0x00000000   Number         0  stm32f1xx_hal_rcc.o ABSOLUTE
    ../Drivers/STM32F1xx_HAL_Driver/Src/stm32f1xx_hal_rcc_ex.c 0x00000000   Number         0  stm32f1xx_hal_rcc_ex.o ABSOLUTE
    ../Drivers/STM32F1xx_HAL_Driver/Src/stm32f1xx_hal_tim.c 0x00000000   Number         0  stm32f1xx_hal_tim.o ABSOLUTE
    ../Drivers/STM32F1xx_HAL_Driver/Src/stm32f1xx_hal_tim_ex.c 0x00000000   Number         0  stm32f1xx_hal_tim_ex.o ABSOLUTE
    ../Middlewares/Third_Party/RealThread_RTOS_RT-Thread/bsp/board.c 0x00000000   Number         0  board.o ABSOLUTE
    ../Middlewares/Third_Party/RealThread_RTOS_RT-Thread/libcpu/arm/cortex-m3/context_rvds.S 0x00000000   Number         0  context_rvds.o ABSOLUTE
    ../Middlewares/Third_Party/RealThread_RTOS_RT-Thread/libcpu/arm/cortex-m3/cpuport.c 0x00000000   Number         0  cpuport.o ABSOLUTE
    ../Middlewares/Third_Party/RealThread_RTOS_RT-Thread/src/clock.c 0x00000000   Number         0  clock.o ABSOLUTE
    ../Middlewares/Third_Party/RealThread_RTOS_RT-Thread/src/components.c 0x00000000   Number         0  components.o ABSOLUTE
    ../Middlewares/Third_Party/RealThread_RTOS_RT-Thread/src/idle.c 0x00000000   Number         0  idle.o ABSOLUTE
    ../Middlewares/Third_Party/RealThread_RTOS_RT-Thread/src/ipc.c 0x00000000   Number         0  ipc.o ABSOLUTE
    ../Middlewares/Third_Party/RealThread_RTOS_RT-Thread/src/irq.c 0x00000000   Number         0  irq.o ABSOLUTE
    ../Middlewares/Third_Party/RealThread_RTOS_RT-Thread/src/kservice.c 0x00000000   Number         0  kservice.o ABSOLUTE
    ../Middlewares/Third_Party/RealThread_RTOS_RT-Thread/src/mem.c 0x00000000   Number         0  mem.o ABSOLUTE
    ../Middlewares/Third_Party/RealThread_RTOS_RT-Thread/src/object.c 0x00000000   Number         0  object.o ABSOLUTE
    ../Middlewares/Third_Party/RealThread_RTOS_RT-Thread/src/scheduler.c 0x00000000   Number         0  scheduler.o ABSOLUTE
    ../Middlewares/Third_Party/RealThread_RTOS_RT-Thread/src/thread.c 0x00000000   Number         0  thread.o ABSOLUTE
    ../Middlewares/Third_Party/RealThread_RTOS_RT-Thread/src/timer.c 0x00000000   Number         0  timer.o ABSOLUTE
    ../Src/gpio.c                            0x00000000   Number         0  gpio.o ABSOLUTE
    ../Src/main.c                            0x00000000   Number         0  main.o ABSOLUTE
    ../Src/stm32f1xx_hal_msp.c               0x00000000   Number         0  stm32f1xx_hal_msp.o ABSOLUTE
    ../Src/stm32f1xx_it.c                    0x00000000   Number         0  stm32f1xx_it.o ABSOLUTE
    ../Src/system_stm32f1xx.c                0x00000000   Number         0  system_stm32f1xx.o ABSOLUTE
    ../clib/microlib/init/entry.s            0x00000000   Number         0  entry8a.o ABSOLUTE
    ../clib/microlib/init/entry.s            0x00000000   Number         0  entry8b.o ABSOLUTE
    ../clib/microlib/init/entry.s            0x00000000   Number         0  entry9a.o ABSOLUTE
    ../clib/microlib/init/entry.s            0x00000000   Number         0  entry11a.o ABSOLUTE
    ../clib/microlib/init/entry.s            0x00000000   Number         0  entry10b.o ABSOLUTE
    ../clib/microlib/init/entry.s            0x00000000   Number         0  entry10a.o ABSOLUTE
    ../clib/microlib/init/entry.s            0x00000000   Number         0  entry11b.o ABSOLUTE
    ../clib/microlib/init/entry.s            0x00000000   Number         0  entry9b.o ABSOLUTE
    ../clib/microlib/init/entry.s            0x00000000   Number         0  entry7a.o ABSOLUTE
    ../clib/microlib/init/entry.s            0x00000000   Number         0  entry5.o ABSOLUTE
    ../clib/microlib/init/entry.s            0x00000000   Number         0  entry2.o ABSOLUTE
    ../clib/microlib/init/entry.s            0x00000000   Number         0  entry.o ABSOLUTE
    ../clib/microlib/init/entry.s            0x00000000   Number         0  entry7b.o ABSOLUTE
    ../clib/microlib/longlong.c              0x00000000   Number         0  llushr.o ABSOLUTE
    ../clib/microlib/string/memset.c         0x00000000   Number         0  memseta.o ABSOLUTE
    ..\Drivers\STM32F1xx_HAL_Driver\Src\stm32f1xx_hal.c 0x00000000   Number         0  stm32f1xx_hal.o ABSOLUTE
    ..\Drivers\STM32F1xx_HAL_Driver\Src\stm32f1xx_hal_cortex.c 0x00000000   Number         0  stm32f1xx_hal_cortex.o ABSOLUTE
    ..\Drivers\STM32F1xx_HAL_Driver\Src\stm32f1xx_hal_dma.c 0x00000000   Number         0  stm32f1xx_hal_dma.o ABSOLUTE
    ..\Drivers\STM32F1xx_HAL_Driver\Src\stm32f1xx_hal_exti.c 0x00000000   Number         0  stm32f1xx_hal_exti.o ABSOLUTE
    ..\Drivers\STM32F1xx_HAL_Driver\Src\stm32f1xx_hal_flash.c 0x00000000   Number         0  stm32f1xx_hal_flash.o ABSOLUTE
    ..\Drivers\STM32F1xx_HAL_Driver\Src\stm32f1xx_hal_flash_ex.c 0x00000000   Number         0  stm32f1xx_hal_flash_ex.o ABSOLUTE
    ..\Drivers\STM32F1xx_HAL_Driver\Src\stm32f1xx_hal_gpio.c 0x00000000   Number         0  stm32f1xx_hal_gpio.o ABSOLUTE
    ..\Drivers\STM32F1xx_HAL_Driver\Src\stm32f1xx_hal_gpio_ex.c 0x00000000   Number         0  stm32f1xx_hal_gpio_ex.o ABSOLUTE
    ..\Drivers\STM32F1xx_HAL_Driver\Src\stm32f1xx_hal_pwr.c 0x00000000   Number         0  stm32f1xx_hal_pwr.o ABSOLUTE
    ..\Drivers\STM32F1xx_HAL_Driver\Src\stm32f1xx_hal_rcc.c 0x00000000   Number         0  stm32f1xx_hal_rcc.o ABSOLUTE
    ..\Drivers\STM32F1xx_HAL_Driver\Src\stm32f1xx_hal_rcc_ex.c 0x00000000   Number         0  stm32f1xx_hal_rcc_ex.o ABSOLUTE
    ..\Drivers\STM32F1xx_HAL_Driver\Src\stm32f1xx_hal_tim.c 0x00000000   Number         0  stm32f1xx_hal_tim.o ABSOLUTE
    ..\Drivers\STM32F1xx_HAL_Driver\Src\stm32f1xx_hal_tim_ex.c 0x00000000   Number         0  stm32f1xx_hal_tim_ex.o ABSOLUTE
    ..\Src\app_rt_thread.c                   0x00000000   Number         0  app_rt_thread.o ABSOLUTE
    ..\Src\gpio.c                            0x00000000   Number         0  gpio.o ABSOLUTE
    ..\Src\main.c                            0x00000000   Number         0  main.o ABSOLUTE
    ..\Src\stm32f1xx_hal_msp.c               0x00000000   Number         0  stm32f1xx_hal_msp.o ABSOLUTE
    ..\Src\stm32f1xx_it.c                    0x00000000   Number         0  stm32f1xx_it.o ABSOLUTE
    ..\Src\system_stm32f1xx.c                0x00000000   Number         0  system_stm32f1xx.o ABSOLUTE
    ..\\Src\\app_rt_thread.c                 0x00000000   Number         0  app_rt_thread.o ABSOLUTE
    dc.s                                     0x00000000   Number         0  dc.o ABSOLUTE
    handlers.s                               0x00000000   Number         0  handlers.o ABSOLUTE
    init.s                                   0x00000000   Number         0  init.o ABSOLUTE
    startup_stm32f103xb.s                    0x00000000   Number         0  startup_stm32f103xb.o ABSOLUTE
    RESET                                    0x08000000   Section      236  startup_stm32f103xb.o(RESET)
    .ARM.Collect$$$$00000000                 0x080000ec   Section        0  entry.o(.ARM.Collect$$$$00000000)
    .ARM.Collect$$$$00000001                 0x080000ec   Section        4  entry2.o(.ARM.Collect$$$$00000001)
    .ARM.Collect$$$$00000004                 0x080000f0   Section        4  entry5.o(.ARM.Collect$$$$00000004)
    .ARM.Collect$$$$00000008                 0x080000f4   Section        0  entry7b.o(.ARM.Collect$$$$00000008)
    .ARM.Collect$$$$0000000A                 0x080000f4   Section        0  entry8b.o(.ARM.Collect$$$$0000000A)
    .ARM.Collect$$$$0000000B                 0x080000f4   Section        8  entry9a.o(.ARM.Collect$$$$0000000B)
    .ARM.Collect$$$$0000000D                 0x080000fc   Section        0  entry10a.o(.ARM.Collect$$$$0000000D)
    .ARM.Collect$$$$0000000F                 0x080000fc   Section        0  entry11a.o(.ARM.Collect$$$$0000000F)
    .ARM.Collect$$$$00002712                 0x080000fc   Section        4  entry2.o(.ARM.Collect$$$$00002712)
    __lit__00000000                          0x080000fc   Data           4  entry2.o(.ARM.Collect$$$$00002712)
    .text                                    0x08000100   Section       36  startup_stm32f103xb.o(.text)
    .text                                    0x08000124   Section      244  context_rvds.o(.text)
    .text                                    0x08000218   Section        0  memseta.o(.text)
    .text                                    0x0800023c   Section       36  init.o(.text)
    i.$Sub$$main                             0x08000260   Section        0  components.o(i.$Sub$$main)
    i.BusFault_Handler                       0x0800026a   Section        0  stm32f1xx_it.o(i.BusFault_Handler)
    i.DebugMon_Handler                       0x0800026c   Section        0  stm32f1xx_it.o(i.DebugMon_Handler)
    i.HAL_GPIO_Init                          0x08000270   Section        0  stm32f1xx_hal_gpio.o(i.HAL_GPIO_Init)
    i.HAL_GPIO_WritePin                      0x08000450   Section        0  stm32f1xx_hal_gpio.o(i.HAL_GPIO_WritePin)
    i.HAL_GetTick                            0x0800045c   Section        0  stm32f1xx_hal.o(i.HAL_GetTick)
    i.HAL_Init                               0x08000468   Section        0  stm32f1xx_hal.o(i.HAL_Init)
    i.HAL_InitTick                           0x0800048c   Section        0  stm32f1xx_hal.o(i.HAL_InitTick)
    i.HAL_MspInit                            0x080004cc   Section        0  stm32f1xx_hal_msp.o(i.HAL_MspInit)
    i.HAL_NVIC_SetPriority                   0x08000508   Section        0  stm32f1xx_hal_cortex.o(i.HAL_NVIC_SetPriority)
    i.HAL_NVIC_SetPriorityGrouping           0x08000548   Section        0  stm32f1xx_hal_cortex.o(i.HAL_NVIC_SetPriorityGrouping)
    i.HAL_RCC_ClockConfig                    0x0800056c   Section        0  stm32f1xx_hal_rcc.o(i.HAL_RCC_ClockConfig)
    i.HAL_RCC_GetSysClockFreq                0x08000698   Section        0  stm32f1xx_hal_rcc.o(i.HAL_RCC_GetSysClockFreq)
    i.HAL_RCC_OscConfig                      0x08000704   Section        0  stm32f1xx_hal_rcc.o(i.HAL_RCC_OscConfig)
    i.HAL_SYSTICK_Config                     0x08000a24   Section        0  stm32f1xx_hal_cortex.o(i.HAL_SYSTICK_Config)
    i.MX_GPIO_Init                           0x08000a4c   Section        0  gpio.o(i.MX_GPIO_Init)
    i.MX_RT_Thread_Init                      0x08000abc   Section        0  app_rt_thread.o(i.MX_RT_Thread_Init)
    i.MemManage_Handler                      0x08000af8   Section        0  stm32f1xx_it.o(i.MemManage_Handler)
    i.NMI_Handler                            0x08000afa   Section        0  stm32f1xx_it.o(i.NMI_Handler)
    i.SVC_Handler                            0x08000afc   Section        0  stm32f1xx_it.o(i.SVC_Handler)
    i.SysTick_Handler                        0x08000afe   Section        0  board.o(i.SysTick_Handler)
    i.SystemClock_Config                     0x08000b10   Section        0  main.o(i.SystemClock_Config)
    i.SystemCoreClockUpdate                  0x08000b54   Section        0  system_stm32f1xx.o(i.SystemCoreClockUpdate)
    i.SystemInit                             0x08000bbc   Section        0  system_stm32f1xx.o(i.SystemInit)
    i.UsageFault_Handler                     0x08000c04   Section        0  stm32f1xx_it.o(i.UsageFault_Handler)
    i.__NVIC_SetPriority                     0x08000c06   Section        0  stm32f1xx_hal_cortex.o(i.__NVIC_SetPriority)
    __NVIC_SetPriority                       0x08000c07   Thumb Code    32  stm32f1xx_hal_cortex.o(i.__NVIC_SetPriority)
    i.__rt_ffs                               0x08000c28   Section        0  kservice.o(i.__rt_ffs)
    i.__scatterload_copy                     0x08000c6c   Section       14  handlers.o(i.__scatterload_copy)
    i.__scatterload_null                     0x08000c7a   Section        2  handlers.o(i.__scatterload_null)
    i.__scatterload_zeroinit                 0x08000c7c   Section       14  handlers.o(i.__scatterload_zeroinit)
    i._has_defunct_thread                    0x08000c8c   Section        0  idle.o(i._has_defunct_thread)
    _has_defunct_thread                      0x08000c8d   Thumb Code    16  idle.o(i._has_defunct_thread)
    i._rt_thread_init                        0x08000ca0   Section        0  thread.o(i._rt_thread_init)
    _rt_thread_init                          0x08000ca1   Thumb Code   118  thread.o(i._rt_thread_init)
    i._rt_timer_remove                       0x08000d20   Section        0  timer.o(i._rt_timer_remove)
    _rt_timer_remove                         0x08000d21   Thumb Code    18  timer.o(i._rt_timer_remove)
    i.led1_thread_entry                      0x08000d34   Section        0  app_rt_thread.o(i.led1_thread_entry)
    led1_thread_entry                        0x08000d35   Thumb Code    44  app_rt_thread.o(i.led1_thread_entry)
    i.main                                   0x08000d64   Section        0  main.o(i.main)
    i.main_thread_entry                      0x08000d76   Section        0  components.o(i.main_thread_entry)
    i.print_number                           0x08000d84   Section        0  kservice.o(i.print_number)
    print_number                             0x08000d85   Thumb Code   300  kservice.o(i.print_number)
    i.rt_application_init                    0x08000eb4   Section        0  components.o(i.rt_application_init)
    i.rt_components_board_init               0x08000ef0   Section        0  components.o(i.rt_components_board_init)
    i.rt_components_init                     0x08000f0c   Section        0  components.o(i.rt_components_init)
    i.rt_enter_critical                      0x08000f28   Section        0  scheduler.o(i.rt_enter_critical)
    i.rt_exit_critical                       0x08000f44   Section        0  scheduler.o(i.rt_exit_critical)
    i.rt_hw_board_init                       0x08000f7c   Section        0  board.o(i.rt_hw_board_init)
    i.rt_hw_console_output                   0x08000fbc   Section        0  kservice.o(i.rt_hw_console_output)
    i.rt_hw_hard_fault_exception             0x08000fc0   Section        0  cpuport.o(i.rt_hw_hard_fault_exception)
    i.rt_hw_stack_init                       0x080011b4   Section        0  cpuport.o(i.rt_hw_stack_init)
    i.rt_interrupt_enter                     0x080011ec   Section        0  irq.o(i.rt_interrupt_enter)
    i.rt_interrupt_leave                     0x08001208   Section        0  irq.o(i.rt_interrupt_leave)
    i.rt_kprintf                             0x08001224   Section        0  kservice.o(i.rt_kprintf)
    i.rt_list_insert_after                   0x08001244   Section        0  thread.o(i.rt_list_insert_after)
    rt_list_insert_after                     0x08001245   Thumb Code    14  thread.o(i.rt_list_insert_after)
    i.rt_list_insert_after                   0x08001252   Section        0  timer.o(i.rt_list_insert_after)
    rt_list_insert_after                     0x08001253   Thumb Code    14  timer.o(i.rt_list_insert_after)
    i.rt_list_remove                         0x08001260   Section        0  thread.o(i.rt_list_remove)
    rt_list_remove                           0x08001261   Thumb Code    18  thread.o(i.rt_list_remove)
    i.rt_memset                              0x08001274   Section        0  kservice.o(i.rt_memset)
    i.rt_object_detach                       0x080012ba   Section        0  object.o(i.rt_object_detach)
    i.rt_object_get_information              0x080012e0   Section        0  object.o(i.rt_object_get_information)
    i.rt_object_init                         0x08001304   Section        0  object.o(i.rt_object_init)
    i.rt_object_is_systemobject              0x08001356   Section        0  object.o(i.rt_object_is_systemobject)
    i.rt_schedule                            0x08001364   Section        0  scheduler.o(i.rt_schedule)
    i.rt_schedule_insert_thread              0x080013bc   Section        0  scheduler.o(i.rt_schedule_insert_thread)
    i.rt_schedule_remove_thread              0x0800140c   Section        0  scheduler.o(i.rt_schedule_remove_thread)
    i.rt_show_version                        0x08001454   Section        0  kservice.o(i.rt_show_version)
    i.rt_strlen                              0x08001504   Section        0  kservice.o(i.rt_strlen)
    i.rt_strncpy                             0x08001514   Section        0  kservice.o(i.rt_strncpy)
    i.rt_system_scheduler_init               0x0800153c   Section        0  scheduler.o(i.rt_system_scheduler_init)
    i.rt_system_scheduler_start              0x08001570   Section        0  scheduler.o(i.rt_system_scheduler_start)
    i.rt_system_timer_init                   0x08001598   Section        0  timer.o(i.rt_system_timer_init)
    i.rt_system_timer_thread_init            0x080015a4   Section        0  timer.o(i.rt_system_timer_thread_init)
    i.rt_thread_delay                        0x080015a6   Section        0  thread.o(i.rt_thread_delay)
    i.rt_thread_exit                         0x080015ac   Section        0  thread.o(i.rt_thread_exit)
    i.rt_thread_idle_entry                   0x08001604   Section        0  idle.o(i.rt_thread_idle_entry)
    rt_thread_idle_entry                     0x08001605   Thumb Code     6  idle.o(i.rt_thread_idle_entry)
    i.rt_thread_idle_excute                  0x0800160c   Section        0  idle.o(i.rt_thread_idle_excute)
    i.rt_thread_idle_init                    0x08001678   Section        0  idle.o(i.rt_thread_idle_init)
    i.rt_thread_init                         0x080016b0   Section        0  thread.o(i.rt_thread_init)
    i.rt_thread_resume                       0x080016e0   Section        0  thread.o(i.rt_thread_resume)
    i.rt_thread_self                         0x0800171c   Section        0  thread.o(i.rt_thread_self)
    i.rt_thread_sleep                        0x08001728   Section        0  thread.o(i.rt_thread_sleep)
    i.rt_thread_startup                      0x08001768   Section        0  thread.o(i.rt_thread_startup)
    i.rt_thread_suspend                      0x08001794   Section        0  thread.o(i.rt_thread_suspend)
    i.rt_thread_timeout                      0x080017d6   Section        0  thread.o(i.rt_thread_timeout)
    i.rt_thread_yield                        0x080017f8   Section        0  thread.o(i.rt_thread_yield)
    i.rt_tick_get                            0x08001858   Section        0  clock.o(i.rt_tick_get)
    i.rt_tick_increase                       0x08001864   Section        0  clock.o(i.rt_tick_increase)
    i.rt_timer_check                         0x08001890   Section        0  timer.o(i.rt_timer_check)
    i.rt_timer_control                       0x080018f8   Section        0  timer.o(i.rt_timer_control)
    i.rt_timer_detach                        0x08001928   Section        0  timer.o(i.rt_timer_detach)
    i.rt_timer_init                          0x08001948   Section        0  timer.o(i.rt_timer_init)
    i.rt_timer_start                         0x08001978   Section        0  timer.o(i.rt_timer_start)
    i.rt_timer_stop                          0x08001a04   Section        0  timer.o(i.rt_timer_stop)
    i.rt_vsnprintf                           0x08001a34   Section        0  kservice.o(i.rt_vsnprintf)
    i.rti_board_end                          0x08001cb0   Section        0  components.o(i.rti_board_end)
    rti_board_end                            0x08001cb1   Thumb Code     4  components.o(i.rti_board_end)
    i.rti_board_start                        0x08001cb4   Section        0  components.o(i.rti_board_start)
    rti_board_start                          0x08001cb5   Thumb Code     4  components.o(i.rti_board_start)
    i.rti_end                                0x08001cb8   Section        0  components.o(i.rti_end)
    rti_end                                  0x08001cb9   Thumb Code     4  components.o(i.rti_end)
    i.rti_start                              0x08001cbc   Section        0  components.o(i.rti_start)
    rti_start                                0x08001cbd   Thumb Code     4  components.o(i.rti_start)
    i.rtthread_startup                       0x08001cc0   Section        0  components.o(i.rtthread_startup)
    i.skip_atoi                              0x08001cea   Section        0  kservice.o(i.skip_atoi)
    skip_atoi                                0x08001ceb   Thumb Code    40  kservice.o(i.skip_atoi)
    .constdata                               0x08001d12   Section       16  system_stm32f1xx.o(.constdata)
    .constdata                               0x08001d22   Section      290  kservice.o(.constdata)
    small_digits                             0x08001e22   Data          17  kservice.o(.constdata)
    large_digits                             0x08001e33   Data          17  kservice.o(.constdata)
    .rti_fn.0                                0x08001e44   Section        4  components.o(.rti_fn.0)
    __tagsym$$used                           0x08001e44   Number         0  components.o(.rti_fn.0)
    .rti_fn.0.end                            0x08001e48   Section        4  components.o(.rti_fn.0.end)
    __tagsym$$used                           0x08001e48   Number         0  components.o(.rti_fn.0.end)
    .rti_fn.1.end                            0x08001e4c   Section        4  components.o(.rti_fn.1.end)
    __tagsym$$used                           0x08001e4c   Number         0  components.o(.rti_fn.1.end)
    .rti_fn.6.end                            0x08001e50   Section        4  components.o(.rti_fn.6.end)
    __tagsym$$used                           0x08001e50   Number         0  components.o(.rti_fn.6.end)
    .data                                    0x20000000   Section       12  stm32f1xx_hal.o(.data)
    .data                                    0x2000000c   Section        4  system_stm32f1xx.o(.data)
    .data                                    0x20000010   Section        4  clock.o(.data)
    rt_tick                                  0x20000010   Data           4  clock.o(.data)
    .data                                    0x20000014   Section        1  irq.o(.data)
    .data                                    0x20000018   Section       48  object.o(.data)
    rt_object_container                      0x20000018   Data          48  object.o(.data)
    .data                                    0x20000048   Section       20  scheduler.o(.data)
    rt_scheduler_lock_nest                   0x2000004a   Data           2  scheduler.o(.data)
    .data                                    0x2000005c   Section       12  timer.o(.data)
    random_nr                                0x2000005c   Data           4  timer.o(.data)
    rt_timer_list                            0x20000060   Data           8  timer.o(.data)
    .data                                    0x20000068   Section        4  cpuport.o(.data)
    rt_exception_hook                        0x20000068   Data           4  cpuport.o(.data)
    .data                                    0x2000006c   Section        4  cpuport.o(.data)
    .data                                    0x20000070   Section        4  cpuport.o(.data)
    .data                                    0x20000074   Section        4  cpuport.o(.data)
    .bss                                     0x20000078   Section     1144  app_rt_thread.o(.bss)
    led1_thread                              0x20000078   Data         120  app_rt_thread.o(.bss)
    rt_led1_thread_stack                     0x200000f0   Data        1024  app_rt_thread.o(.bss)
    .bss                                     0x200004f0   Section     1144  components.o(.bss)
    main_stack                               0x200004f0   Data        1024  components.o(.bss)
    .bss                                     0x20000968   Section      248  idle.o(.bss)
    idle                                     0x20000968   Data         120  idle.o(.bss)
    rt_thread_stack                          0x200009e0   Data         128  idle.o(.bss)
    .bss                                     0x20000a60   Section      128  kservice.o(.bss)
    rt_log_buf                               0x20000a60   Data         128  kservice.o(.bss)
    .bss                                     0x20000ae0   Section      256  scheduler.o(.bss)
    STACK                                    0x20000be0   Section     1024  startup_stm32f103xb.o(STACK)

    Global Symbols

    Symbol Name                              Value     Ov Type        Size  Object(Section)

    BuildAttributes$$THM_ISAv4$P$D$K$B$S$PE$A:L22UL41UL21$X:L11$S22US41US21$IEEE1$IW$USESV6$~STKCKD$USESV7$~SHL$OSPACE$EBA8$MICROLIB$REQ8$PRES8$EABIv2 0x00000000   Number         0  anon$$obj.o ABSOLUTE
    __ARM_use_no_argv                        0x00000000   Number         0  main.o ABSOLUTE
    __cpp_initialize__aeabi_                  - Undefined Weak Reference
    __cxa_finalize                            - Undefined Weak Reference
    __decompress                              - Undefined Weak Reference
    _clock_init                               - Undefined Weak Reference
    _microlib_exit                            - Undefined Weak Reference
    __Vectors_Size                           0x000000ec   Number         0  startup_stm32f103xb.o ABSOLUTE
    __Vectors                                0x08000000   Data           4  startup_stm32f103xb.o(RESET)
    __Vectors_End                            0x080000ec   Data           0  startup_stm32f103xb.o(RESET)
    __main                                   0x080000ed   Thumb Code     0  entry.o(.ARM.Collect$$$$00000000)
    _main_stk                                0x080000ed   Thumb Code     0  entry2.o(.ARM.Collect$$$$00000001)
    _main_scatterload                        0x080000f1   Thumb Code     0  entry5.o(.ARM.Collect$$$$00000004)
    __main_after_scatterload                 0x080000f5   Thumb Code     0  entry5.o(.ARM.Collect$$$$00000004)
    _main_clock                              0x080000f5   Thumb Code     0  entry7b.o(.ARM.Collect$$$$00000008)
    _main_cpp_init                           0x080000f5   Thumb Code     0  entry8b.o(.ARM.Collect$$$$0000000A)
    _main_init                               0x080000f5   Thumb Code     0  entry9a.o(.ARM.Collect$$$$0000000B)
    __rt_final_cpp                           0x080000fd   Thumb Code     0  entry10a.o(.ARM.Collect$$$$0000000D)
    __rt_final_exit                          0x080000fd   Thumb Code     0  entry11a.o(.ARM.Collect$$$$0000000F)
    Reset_Handler                            0x08000101   Thumb Code     8  startup_stm32f103xb.o(.text)
    ADC1_2_IRQHandler                        0x0800011b   Thumb Code     0  startup_stm32f103xb.o(.text)
    CAN1_RX1_IRQHandler                      0x0800011b   Thumb Code     0  startup_stm32f103xb.o(.text)
    CAN1_SCE_IRQHandler                      0x0800011b   Thumb Code     0  startup_stm32f103xb.o(.text)
    DMA1_Channel1_IRQHandler                 0x0800011b   Thumb Code     0  startup_stm32f103xb.o(.text)
    DMA1_Channel2_IRQHandler                 0x0800011b   Thumb Code     0  startup_stm32f103xb.o(.text)
    DMA1_Channel3_IRQHandler                 0x0800011b   Thumb Code     0  startup_stm32f103xb.o(.text)
    DMA1_Channel4_IRQHandler                 0x0800011b   Thumb Code     0  startup_stm32f103xb.o(.text)
    DMA1_Channel5_IRQHandler                 0x0800011b   Thumb Code     0  startup_stm32f103xb.o(.text)
    DMA1_Channel6_IRQHandler                 0x0800011b   Thumb Code     0  startup_stm32f103xb.o(.text)
    DMA1_Channel7_IRQHandler                 0x0800011b   Thumb Code     0  startup_stm32f103xb.o(.text)
    EXTI0_IRQHandler                         0x0800011b   Thumb Code     0  startup_stm32f103xb.o(.text)
    EXTI15_10_IRQHandler                     0x0800011b   Thumb Code     0  startup_stm32f103xb.o(.text)
    EXTI1_IRQHandler                         0x0800011b   Thumb Code     0  startup_stm32f103xb.o(.text)
    EXTI2_IRQHandler                         0x0800011b   Thumb Code     0  startup_stm32f103xb.o(.text)
    EXTI3_IRQHandler                         0x0800011b   Thumb Code     0  startup_stm32f103xb.o(.text)
    EXTI4_IRQHandler                         0x0800011b   Thumb Code     0  startup_stm32f103xb.o(.text)
    EXTI9_5_IRQHandler                       0x0800011b   Thumb Code     0  startup_stm32f103xb.o(.text)
    FLASH_IRQHandler                         0x0800011b   Thumb Code     0  startup_stm32f103xb.o(.text)
    I2C1_ER_IRQHandler                       0x0800011b   Thumb Code     0  startup_stm32f103xb.o(.text)
    I2C1_EV_IRQHandler                       0x0800011b   Thumb Code     0  startup_stm32f103xb.o(.text)
    I2C2_ER_IRQHandler                       0x0800011b   Thumb Code     0  startup_stm32f103xb.o(.text)
    I2C2_EV_IRQHandler                       0x0800011b   Thumb Code     0  startup_stm32f103xb.o(.text)
    PVD_IRQHandler                           0x0800011b   Thumb Code     0  startup_stm32f103xb.o(.text)
    RCC_IRQHandler                           0x0800011b   Thumb Code     0  startup_stm32f103xb.o(.text)
    RTC_Alarm_IRQHandler                     0x0800011b   Thumb Code     0  startup_stm32f103xb.o(.text)
    RTC_IRQHandler                           0x0800011b   Thumb Code     0  startup_stm32f103xb.o(.text)
    SPI1_IRQHandler                          0x0800011b   Thumb Code     0  startup_stm32f103xb.o(.text)
    SPI2_IRQHandler                          0x0800011b   Thumb Code     0  startup_stm32f103xb.o(.text)
    TAMPER_IRQHandler                        0x0800011b   Thumb Code     0  startup_stm32f103xb.o(.text)
    TIM1_BRK_IRQHandler                      0x0800011b   Thumb Code     0  startup_stm32f103xb.o(.text)
    TIM1_CC_IRQHandler                       0x0800011b   Thumb Code     0  startup_stm32f103xb.o(.text)
    TIM1_TRG_COM_IRQHandler                  0x0800011b   Thumb Code     0  startup_stm32f103xb.o(.text)
    TIM1_UP_IRQHandler                       0x0800011b   Thumb Code     0  startup_stm32f103xb.o(.text)
    TIM2_IRQHandler                          0x0800011b   Thumb Code     0  startup_stm32f103xb.o(.text)
    TIM3_IRQHandler                          0x0800011b   Thumb Code     0  startup_stm32f103xb.o(.text)
    TIM4_IRQHandler                          0x0800011b   Thumb Code     0  startup_stm32f103xb.o(.text)
    USART1_IRQHandler                        0x0800011b   Thumb Code     0  startup_stm32f103xb.o(.text)
    USART2_IRQHandler                        0x0800011b   Thumb Code     0  startup_stm32f103xb.o(.text)
    USART3_IRQHandler                        0x0800011b   Thumb Code     0  startup_stm32f103xb.o(.text)
    USBWakeUp_IRQHandler                     0x0800011b   Thumb Code     0  startup_stm32f103xb.o(.text)
    USB_HP_CAN1_TX_IRQHandler                0x0800011b   Thumb Code     0  startup_stm32f103xb.o(.text)
    USB_LP_CAN1_RX0_IRQHandler               0x0800011b   Thumb Code     0  startup_stm32f103xb.o(.text)
    WWDG_IRQHandler                          0x0800011b   Thumb Code     0  startup_stm32f103xb.o(.text)
    rt_hw_interrupt_disable                  0x08000125   Thumb Code     8  context_rvds.o(.text)
    rt_hw_interrupt_enable                   0x0800012d   Thumb Code     6  context_rvds.o(.text)
    rt_hw_context_switch                     0x08000133   Thumb Code    32  context_rvds.o(.text)
    rt_hw_context_switch_interrupt           0x08000133   Thumb Code     0  context_rvds.o(.text)
    PendSV_Handler                           0x08000153   Thumb Code    60  context_rvds.o(.text)
    rt_hw_context_switch_to                  0x0800018f   Thumb Code    58  context_rvds.o(.text)
    rt_hw_interrupt_thread_switch            0x080001c9   Thumb Code     2  context_rvds.o(.text)
    HardFault_Handler                        0x080001cb   Thumb Code    52  context_rvds.o(.text)
    __aeabi_memset                           0x08000219   Thumb Code    14  memseta.o(.text)
    __aeabi_memset4                          0x08000219   Thumb Code     0  memseta.o(.text)
    __aeabi_memset8                          0x08000219   Thumb Code     0  memseta.o(.text)
    __aeabi_memclr                           0x08000227   Thumb Code     4  memseta.o(.text)
    __aeabi_memclr4                          0x08000227   Thumb Code     0  memseta.o(.text)
    __aeabi_memclr8                          0x08000227   Thumb Code     0  memseta.o(.text)
    _memset$wrapper                          0x0800022b   Thumb Code    18  memseta.o(.text)
    __scatterload                            0x0800023d   Thumb Code    28  init.o(.text)
    __scatterload_rt2                        0x0800023d   Thumb Code     0  init.o(.text)
    main                                     0x08000261   Thumb Code    10  components.o(i.$Sub$$main)
    BusFault_Handler                         0x0800026b   Thumb Code     2  stm32f1xx_it.o(i.BusFault_Handler)
    DebugMon_Handler                         0x0800026d   Thumb Code     2  stm32f1xx_it.o(i.DebugMon_Handler)
    HAL_GPIO_Init                            0x08000271   Thumb Code   446  stm32f1xx_hal_gpio.o(i.HAL_GPIO_Init)
    HAL_GPIO_WritePin                        0x08000451   Thumb Code    10  stm32f1xx_hal_gpio.o(i.HAL_GPIO_WritePin)
    HAL_GetTick                              0x0800045d   Thumb Code     6  stm32f1xx_hal.o(i.HAL_GetTick)
    HAL_Init                                 0x08000469   Thumb Code    32  stm32f1xx_hal.o(i.HAL_Init)
    HAL_InitTick                             0x0800048d   Thumb Code    54  stm32f1xx_hal.o(i.HAL_InitTick)
    HAL_MspInit                              0x080004cd   Thumb Code    52  stm32f1xx_hal_msp.o(i.HAL_MspInit)
    HAL_NVIC_SetPriority                     0x08000509   Thumb Code    60  stm32f1xx_hal_cortex.o(i.HAL_NVIC_SetPriority)
    HAL_NVIC_SetPriorityGrouping             0x08000549   Thumb Code    26  stm32f1xx_hal_cortex.o(i.HAL_NVIC_SetPriorityGrouping)
    HAL_RCC_ClockConfig                      0x0800056d   Thumb Code   280  stm32f1xx_hal_rcc.o(i.HAL_RCC_ClockConfig)
    HAL_RCC_GetSysClockFreq                  0x08000699   Thumb Code    74  stm32f1xx_hal_rcc.o(i.HAL_RCC_GetSysClockFreq)
    HAL_RCC_OscConfig                        0x08000705   Thumb Code   778  stm32f1xx_hal_rcc.o(i.HAL_RCC_OscConfig)
    HAL_SYSTICK_Config                       0x08000a25   Thumb Code    40  stm32f1xx_hal_cortex.o(i.HAL_SYSTICK_Config)
    MX_GPIO_Init                             0x08000a4d   Thumb Code   104  gpio.o(i.MX_GPIO_Init)
    MX_RT_Thread_Init                        0x08000abd   Thumb Code    42  app_rt_thread.o(i.MX_RT_Thread_Init)
    MemManage_Handler                        0x08000af9   Thumb Code     2  stm32f1xx_it.o(i.MemManage_Handler)
    NMI_Handler                              0x08000afb   Thumb Code     2  stm32f1xx_it.o(i.NMI_Handler)
    SVC_Handler                              0x08000afd   Thumb Code     2  stm32f1xx_it.o(i.SVC_Handler)
    SysTick_Handler                          0x08000aff   Thumb Code    18  board.o(i.SysTick_Handler)
    SystemClock_Config                       0x08000b11   Thumb Code    66  main.o(i.SystemClock_Config)
    SystemCoreClockUpdate                    0x08000b55   Thumb Code    82  system_stm32f1xx.o(i.SystemCoreClockUpdate)
    SystemInit                               0x08000bbd   Thumb Code    56  system_stm32f1xx.o(i.SystemInit)
    UsageFault_Handler                       0x08000c05   Thumb Code     2  stm32f1xx_it.o(i.UsageFault_Handler)
    __rt_ffs                                 0x08000c29   Thumb Code    62  kservice.o(i.__rt_ffs)
    __scatterload_copy                       0x08000c6d   Thumb Code    14  handlers.o(i.__scatterload_copy)
    __scatterload_null                       0x08000c7b   Thumb Code     2  handlers.o(i.__scatterload_null)
    __scatterload_zeroinit                   0x08000c7d   Thumb Code    14  handlers.o(i.__scatterload_zeroinit)
    $Super$$main                             0x08000d65   Thumb Code    18  main.o(i.main)
    main_thread_entry                        0x08000d77   Thumb Code    14  components.o(i.main_thread_entry)
    rt_application_init                      0x08000eb5   Thumb Code    44  components.o(i.rt_application_init)
    rt_components_board_init                 0x08000ef1   Thumb Code    20  components.o(i.rt_components_board_init)
    rt_components_init                       0x08000f0d   Thumb Code    20  components.o(i.rt_components_init)
    rt_enter_critical                        0x08000f29   Thumb Code    22  scheduler.o(i.rt_enter_critical)
    rt_exit_critical                         0x08000f45   Thumb Code    52  scheduler.o(i.rt_exit_critical)
    rt_hw_board_init                         0x08000f7d   Thumb Code    54  board.o(i.rt_hw_board_init)
    rt_hw_console_output                     0x08000fbd   Thumb Code     2  kservice.o(i.rt_hw_console_output)
    rt_hw_hard_fault_exception               0x08000fc1   Thumb Code   178  cpuport.o(i.rt_hw_hard_fault_exception)
    rt_hw_stack_init                         0x080011b5   Thumb Code    52  cpuport.o(i.rt_hw_stack_init)
    rt_interrupt_enter                       0x080011ed   Thumb Code    22  irq.o(i.rt_interrupt_enter)
    rt_interrupt_leave                       0x08001209   Thumb Code    22  irq.o(i.rt_interrupt_leave)
    rt_kprintf                               0x08001225   Thumb Code    28  kservice.o(i.rt_kprintf)
    rt_memset                                0x08001275   Thumb Code    70  kservice.o(i.rt_memset)
    rt_object_detach                         0x080012bb   Thumb Code    36  object.o(i.rt_object_detach)
    rt_object_get_information                0x080012e1   Thumb Code    30  object.o(i.rt_object_get_information)
    rt_object_init                           0x08001305   Thumb Code    82  object.o(i.rt_object_init)
    rt_object_is_systemobject                0x08001357   Thumb Code    14  object.o(i.rt_object_is_systemobject)
    rt_schedule                              0x08001365   Thumb Code    76  scheduler.o(i.rt_schedule)
    rt_schedule_insert_thread                0x080013bd   Thumb Code    70  scheduler.o(i.rt_schedule_insert_thread)
    rt_schedule_remove_thread                0x0800140d   Thumb Code    64  scheduler.o(i.rt_schedule_remove_thread)
    rt_show_version                          0x08001455   Thumb Code    40  kservice.o(i.rt_show_version)
    rt_strlen                                0x08001505   Thumb Code    16  kservice.o(i.rt_strlen)
    rt_strncpy                               0x08001515   Thumb Code    38  kservice.o(i.rt_strncpy)
    rt_system_scheduler_init                 0x0800153d   Thumb Code    44  scheduler.o(i.rt_system_scheduler_init)
    rt_system_scheduler_start                0x08001571   Thumb Code    32  scheduler.o(i.rt_system_scheduler_start)
    rt_system_timer_init                     0x08001599   Thumb Code     8  timer.o(i.rt_system_timer_init)
    rt_system_timer_thread_init              0x080015a5   Thumb Code     2  timer.o(i.rt_system_timer_thread_init)
    rt_thread_delay                          0x080015a7   Thumb Code     4  thread.o(i.rt_thread_delay)
    rt_thread_exit                           0x080015ad   Thumb Code    78  thread.o(i.rt_thread_exit)
    rt_thread_idle_excute                    0x0800160d   Thumb Code   102  idle.o(i.rt_thread_idle_excute)
    rt_thread_idle_init                      0x08001679   Thumb Code    40  idle.o(i.rt_thread_idle_init)
    rt_thread_init                           0x080016b1   Thumb Code    48  thread.o(i.rt_thread_init)
    rt_thread_resume                         0x080016e1   Thumb Code    60  thread.o(i.rt_thread_resume)
    rt_thread_self                           0x0800171d   Thumb Code     6  thread.o(i.rt_thread_self)
    rt_thread_sleep                          0x08001729   Thumb Code    60  thread.o(i.rt_thread_sleep)
    rt_thread_startup                        0x08001769   Thumb Code    40  thread.o(i.rt_thread_startup)
    rt_thread_suspend                        0x08001795   Thumb Code    66  thread.o(i.rt_thread_suspend)
    rt_thread_timeout                        0x080017d7   Thumb Code    32  thread.o(i.rt_thread_timeout)
    rt_thread_yield                          0x080017f9   Thumb Code    86  thread.o(i.rt_thread_yield)
    rt_tick_get                              0x08001859   Thumb Code     6  clock.o(i.rt_tick_get)
    rt_tick_increase                         0x08001865   Thumb Code    38  clock.o(i.rt_tick_increase)
    rt_timer_check                           0x08001891   Thumb Code    98  timer.o(i.rt_timer_check)
    rt_timer_control                         0x080018f9   Thumb Code    48  timer.o(i.rt_timer_control)
    rt_timer_detach                          0x08001929   Thumb Code    32  timer.o(i.rt_timer_detach)
    rt_timer_init                            0x08001949   Thumb Code    48  timer.o(i.rt_timer_init)
    rt_timer_start                           0x08001979   Thumb Code   136  timer.o(i.rt_timer_start)
    rt_timer_stop                            0x08001a05   Thumb Code    46  timer.o(i.rt_timer_stop)
    rt_vsnprintf                             0x08001a35   Thumb Code   626  kservice.o(i.rt_vsnprintf)
    rtthread_startup                         0x08001cc1   Thumb Code    42  components.o(i.rtthread_startup)
    AHBPrescTable                            0x08001d12   Data          16  system_stm32f1xx.o(.constdata)
    __lowest_bit_bitmap                      0x08001d22   Data         256  kservice.o(.constdata)
    __rt_init_rti_start                      0x08001e44   Data           4  components.o(.rti_fn.0)
    __rt_init_rti_board_start                0x08001e48   Data           4  components.o(.rti_fn.0.end)
    __rt_init_rti_board_end                  0x08001e4c   Data           4  components.o(.rti_fn.1.end)
    __rt_init_rti_end                        0x08001e50   Data           4  components.o(.rti_fn.6.end)
    Region$$Table$$Base                      0x08001e54   Number         0  anon$$obj.o(Region$$Table)
    Region$$Table$$Limit                     0x08001e74   Number         0  anon$$obj.o(Region$$Table)
    uwTickFreq                               0x20000000   Data           1  stm32f1xx_hal.o(.data)
    uwTickPrio                               0x20000004   Data           4  stm32f1xx_hal.o(.data)
    uwTick                                   0x20000008   Data           4  stm32f1xx_hal.o(.data)
    SystemCoreClock                          0x2000000c   Data           4  system_stm32f1xx.o(.data)
    rt_interrupt_nest                        0x20000014   Data           1  irq.o(.data)
    rt_current_priority                      0x20000048   Data           1  scheduler.o(.data)
    rt_current_thread                        0x2000004c   Data           4  scheduler.o(.data)
    rt_thread_ready_priority_group           0x20000050   Data           4  scheduler.o(.data)
    rt_thread_defunct                        0x20000054   Data           8  scheduler.o(.data)
    rt_interrupt_from_thread                 0x2000006c   Data           4  cpuport.o(.data)
    rt_interrupt_to_thread                   0x20000070   Data           4  cpuport.o(.data)
    rt_thread_switch_interrupt_flag          0x20000074   Data           4  cpuport.o(.data)
    main_thread                              0x200008f0   Data         120  components.o(.bss)
    rt_thread_priority_table                 0x20000ae0   Data         256  scheduler.o(.bss)
    __initial_sp                             0x20000fe0   Data           0  startup_stm32f103xb.o(STACK)



==============================================================================

Memory Map of the image

  Image Entry point : 0x080000ed

  Load Region LR_IROM1 (Base: 0x08000000, Size: 0x00001eec, Max: 0x00010000, ABSOLUTE)

    Execution Region ER_IROM1 (Exec base: 0x08000000, Load base: 0x08000000, Size: 0x00001e74, Max: 0x00010000, ABSOLUTE)

    Exec Addr    Load Addr    Size         Type   Attr      Idx    E Section Name        Object

    0x08000000   0x08000000   0x000000ec   Data   RO            3    RESET               startup_stm32f103xb.o
    0x080000ec   0x080000ec   0x00000000   Code   RO         2131  * .ARM.Collect$$$$00000000  mc_w.l(entry.o)
    0x080000ec   0x080000ec   0x00000004   Code   RO         2138    .ARM.Collect$$$$00000001  mc_w.l(entry2.o)
    0x080000f0   0x080000f0   0x00000004   Code   RO         2141    .ARM.Collect$$$$00000004  mc_w.l(entry5.o)
    0x080000f4   0x080000f4   0x00000000   Code   RO         2143    .ARM.Collect$$$$00000008  mc_w.l(entry7b.o)
    0x080000f4   0x080000f4   0x00000000   Code   RO         2145    .ARM.Collect$$$$0000000A  mc_w.l(entry8b.o)
    0x080000f4   0x080000f4   0x00000008   Code   RO         2146    .ARM.Collect$$$$0000000B  mc_w.l(entry9a.o)
    0x080000fc   0x080000fc   0x00000000   Code   RO         2148    .ARM.Collect$$$$0000000D  mc_w.l(entry10a.o)
    0x080000fc   0x080000fc   0x00000000   Code   RO         2150    .ARM.Collect$$$$0000000F  mc_w.l(entry11a.o)
    0x080000fc   0x080000fc   0x00000004   Code   RO         2139    .ARM.Collect$$$$00002712  mc_w.l(entry2.o)
    0x08000100   0x08000100   0x00000024   Code   RO            4    .text               startup_stm32f103xb.o
    0x08000124   0x08000124   0x000000f4   Code   RO         1374    .text               context_rvds.o
    0x08000218   0x08000218   0x00000024   Code   RO         2136    .text               mc_w.l(memseta.o)
    0x0800023c   0x0800023c   0x00000024   Code   RO         2152    .text               mc_w.l(init.o)
    0x08000260   0x08000260   0x0000000a   Code   RO         1438    i.$Sub$$main        components.o
    0x0800026a   0x0800026a   0x00000002   Code   RO          152    i.BusFault_Handler  stm32f1xx_it.o
    0x0800026c   0x0800026c   0x00000002   Code   RO          153    i.DebugMon_Handler  stm32f1xx_it.o
    0x0800026e   0x0800026e   0x00000002   PAD
    0x08000270   0x08000270   0x000001e0   Code   RO          643    i.HAL_GPIO_Init     stm32f1xx_hal_gpio.o
    0x08000450   0x08000450   0x0000000a   Code   RO          647    i.HAL_GPIO_WritePin  stm32f1xx_hal_gpio.o
    0x0800045a   0x0800045a   0x00000002   PAD
    0x0800045c   0x0800045c   0x0000000c   Code   RO          339    i.HAL_GetTick       stm32f1xx_hal.o
    0x08000468   0x08000468   0x00000024   Code   RO          346    i.HAL_Init          stm32f1xx_hal.o
    0x0800048c   0x0800048c   0x00000040   Code   RO          347    i.HAL_InitTick      stm32f1xx_hal.o
    0x080004cc   0x080004cc   0x0000003c   Code   RO          209    i.HAL_MspInit       stm32f1xx_hal_msp.o
    0x08000508   0x08000508   0x00000040   Code   RO          809    i.HAL_NVIC_SetPriority  stm32f1xx_hal_cortex.o
    0x08000548   0x08000548   0x00000024   Code   RO          810    i.HAL_NVIC_SetPriorityGrouping  stm32f1xx_hal_cortex.o
    0x0800056c   0x0800056c   0x0000012c   Code   RO          503    i.HAL_RCC_ClockConfig  stm32f1xx_hal_rcc.o
    0x08000698   0x08000698   0x0000006c   Code   RO          512    i.HAL_RCC_GetSysClockFreq  stm32f1xx_hal_rcc.o
    0x08000704   0x08000704   0x00000320   Code   RO          515    i.HAL_RCC_OscConfig  stm32f1xx_hal_rcc.o
    0x08000a24   0x08000a24   0x00000028   Code   RO          814    i.HAL_SYSTICK_Config  stm32f1xx_hal_cortex.o
    0x08000a4c   0x08000a4c   0x00000070   Code   RO          128    i.MX_GPIO_Init      gpio.o
    0x08000abc   0x08000abc   0x0000003c   Code   RO          233    i.MX_RT_Thread_Init  app_rt_thread.o
    0x08000af8   0x08000af8   0x00000002   Code   RO          154    i.MemManage_Handler  stm32f1xx_it.o
    0x08000afa   0x08000afa   0x00000002   Code   RO          155    i.NMI_Handler       stm32f1xx_it.o
    0x08000afc   0x08000afc   0x00000002   Code   RO          156    i.SVC_Handler       stm32f1xx_it.o
    0x08000afe   0x08000afe   0x00000012   Code   RO         1378    i.SysTick_Handler   board.o
    0x08000b10   0x08000b10   0x00000042   Code   RO           14    i.SystemClock_Config  main.o
    0x08000b52   0x08000b52   0x00000002   PAD
    0x08000b54   0x08000b54   0x00000068   Code   RO         1339    i.SystemCoreClockUpdate  system_stm32f1xx.o
    0x08000bbc   0x08000bbc   0x00000048   Code   RO         1340    i.SystemInit        system_stm32f1xx.o
    0x08000c04   0x08000c04   0x00000002   Code   RO          157    i.UsageFault_Handler  stm32f1xx_it.o
    0x08000c06   0x08000c06   0x00000020   Code   RO          816    i.__NVIC_SetPriority  stm32f1xx_hal_cortex.o
    0x08000c26   0x08000c26   0x00000002   PAD
    0x08000c28   0x08000c28   0x00000044   Code   RO         1629    i.__rt_ffs          kservice.o
    0x08000c6c   0x08000c6c   0x0000000e   Code   RO         2156    i.__scatterload_copy  mc_w.l(handlers.o)
    0x08000c7a   0x08000c7a   0x00000002   Code   RO         2157    i.__scatterload_null  mc_w.l(handlers.o)
    0x08000c7c   0x08000c7c   0x0000000e   Code   RO         2158    i.__scatterload_zeroinit  mc_w.l(handlers.o)
    0x08000c8a   0x08000c8a   0x00000002   PAD
    0x08000c8c   0x08000c8c   0x00000014   Code   RO         1507    i._has_defunct_thread  idle.o
    0x08000ca0   0x08000ca0   0x00000080   Code   RO         1906    i._rt_thread_init   thread.o
    0x08000d20   0x08000d20   0x00000012   Code   RO         2014    i._rt_timer_remove  timer.o
    0x08000d32   0x08000d32   0x00000002   PAD
    0x08000d34   0x08000d34   0x00000030   Code   RO          234    i.led1_thread_entry  app_rt_thread.o
    0x08000d64   0x08000d64   0x00000012   Code   RO           15    i.main              main.o
    0x08000d76   0x08000d76   0x0000000e   Code   RO         1439    i.main_thread_entry  components.o
    0x08000d84   0x08000d84   0x00000130   Code   RO         1631    i.print_number      kservice.o
    0x08000eb4   0x08000eb4   0x0000003c   Code   RO         1440    i.rt_application_init  components.o
    0x08000ef0   0x08000ef0   0x0000001c   Code   RO         1441    i.rt_components_board_init  components.o
    0x08000f0c   0x08000f0c   0x0000001c   Code   RO         1442    i.rt_components_init  components.o
    0x08000f28   0x08000f28   0x0000001c   Code   RO         1845    i.rt_enter_critical  scheduler.o
    0x08000f44   0x08000f44   0x00000038   Code   RO         1846    i.rt_exit_critical  scheduler.o
    0x08000f7c   0x08000f7c   0x00000040   Code   RO         1379    i.rt_hw_board_init  board.o
    0x08000fbc   0x08000fbc   0x00000002   Code   RO         1633    i.rt_hw_console_output  kservice.o
    0x08000fbe   0x08000fbe   0x00000002   PAD
    0x08000fc0   0x08000fc0   0x000001f4   Code   RO         2092    i.rt_hw_hard_fault_exception  cpuport.o
    0x080011b4   0x080011b4   0x00000038   Code   RO         2093    i.rt_hw_stack_init  cpuport.o
    0x080011ec   0x080011ec   0x0000001c   Code   RO         1602    i.rt_interrupt_enter  irq.o
    0x08001208   0x08001208   0x0000001c   Code   RO         1604    i.rt_interrupt_leave  irq.o
    0x08001224   0x08001224   0x00000020   Code   RO         1634    i.rt_kprintf        kservice.o
    0x08001244   0x08001244   0x0000000e   Code   RO         1907    i.rt_list_insert_after  thread.o
    0x08001252   0x08001252   0x0000000e   Code   RO         2015    i.rt_list_insert_after  timer.o
    0x08001260   0x08001260   0x00000012   Code   RO         1908    i.rt_list_remove    thread.o
    0x08001272   0x08001272   0x00000002   PAD
    0x08001274   0x08001274   0x00000046   Code   RO         1639    i.rt_memset         kservice.o
    0x080012ba   0x080012ba   0x00000024   Code   RO         1791    i.rt_object_detach  object.o
    0x080012de   0x080012de   0x00000002   PAD
    0x080012e0   0x080012e0   0x00000024   Code   RO         1793    i.rt_object_get_information  object.o
    0x08001304   0x08001304   0x00000052   Code   RO         1795    i.rt_object_init    object.o
    0x08001356   0x08001356   0x0000000e   Code   RO         1796    i.rt_object_is_systemobject  object.o
    0x08001364   0x08001364   0x00000058   Code   RO         1847    i.rt_schedule       scheduler.o
    0x080013bc   0x080013bc   0x00000050   Code   RO         1848    i.rt_schedule_insert_thread  scheduler.o
    0x0800140c   0x0800140c   0x00000048   Code   RO         1849    i.rt_schedule_remove_thread  scheduler.o
    0x08001454   0x08001454   0x000000b0   Code   RO         1641    i.rt_show_version   kservice.o
    0x08001504   0x08001504   0x00000010   Code   RO         1646    i.rt_strlen         kservice.o
    0x08001514   0x08001514   0x00000026   Code   RO         1648    i.rt_strncpy        kservice.o
    0x0800153a   0x0800153a   0x00000002   PAD
    0x0800153c   0x0800153c   0x00000034   Code   RO         1850    i.rt_system_scheduler_init  scheduler.o
    0x08001570   0x08001570   0x00000028   Code   RO         1851    i.rt_system_scheduler_start  scheduler.o
    0x08001598   0x08001598   0x0000000c   Code   RO         2016    i.rt_system_timer_init  timer.o
    0x080015a4   0x080015a4   0x00000002   Code   RO         2017    i.rt_system_timer_thread_init  timer.o
    0x080015a6   0x080015a6   0x00000004   Code   RO         1910    i.rt_thread_delay   thread.o
    0x080015aa   0x080015aa   0x00000002   PAD
    0x080015ac   0x080015ac   0x00000058   Code   RO         1912    i.rt_thread_exit    thread.o
    0x08001604   0x08001604   0x00000006   Code   RO         1508    i.rt_thread_idle_entry  idle.o
    0x0800160a   0x0800160a   0x00000002   PAD
    0x0800160c   0x0800160c   0x0000006c   Code   RO         1509    i.rt_thread_idle_excute  idle.o
    0x08001678   0x08001678   0x00000038   Code   RO         1511    i.rt_thread_idle_init  idle.o
    0x080016b0   0x080016b0   0x00000030   Code   RO         1914    i.rt_thread_init    thread.o
    0x080016e0   0x080016e0   0x0000003c   Code   RO         1916    i.rt_thread_resume  thread.o
    0x0800171c   0x0800171c   0x0000000c   Code   RO         1917    i.rt_thread_self    thread.o
    0x08001728   0x08001728   0x00000040   Code   RO         1918    i.rt_thread_sleep   thread.o
    0x08001768   0x08001768   0x0000002c   Code   RO         1919    i.rt_thread_startup  thread.o
    0x08001794   0x08001794   0x00000042   Code   RO         1920    i.rt_thread_suspend  thread.o
    0x080017d6   0x080017d6   0x00000020   Code   RO         1921    i.rt_thread_timeout  thread.o
    0x080017f6   0x080017f6   0x00000002   PAD
    0x080017f8   0x080017f8   0x00000060   Code   RO         1922    i.rt_thread_yield   thread.o
    0x08001858   0x08001858   0x0000000c   Code   RO         1402    i.rt_tick_get       clock.o
    0x08001864   0x08001864   0x0000002c   Code   RO         1403    i.rt_tick_increase  clock.o
    0x08001890   0x08001890   0x00000068   Code   RO         2018    i.rt_timer_check    timer.o
    0x080018f8   0x080018f8   0x00000030   Code   RO         2019    i.rt_timer_control  timer.o
    0x08001928   0x08001928   0x00000020   Code   RO         2020    i.rt_timer_detach   timer.o
    0x08001948   0x08001948   0x00000030   Code   RO         2021    i.rt_timer_init     timer.o
    0x08001978   0x08001978   0x0000008c   Code   RO         2023    i.rt_timer_start    timer.o
    0x08001a04   0x08001a04   0x0000002e   Code   RO         2024    i.rt_timer_stop     timer.o
    0x08001a32   0x08001a32   0x00000002   PAD
    0x08001a34   0x08001a34   0x0000027c   Code   RO         1651    i.rt_vsnprintf      kservice.o
    0x08001cb0   0x08001cb0   0x00000004   Code   RO         1443    i.rti_board_end     components.o
    0x08001cb4   0x08001cb4   0x00000004   Code   RO         1444    i.rti_board_start   components.o
    0x08001cb8   0x08001cb8   0x00000004   Code   RO         1445    i.rti_end           components.o
    0x08001cbc   0x08001cbc   0x00000004   Code   RO         1446    i.rti_start         components.o
    0x08001cc0   0x08001cc0   0x0000002a   Code   RO         1447    i.rtthread_startup  components.o
    0x08001cea   0x08001cea   0x00000028   Code   RO         1653    i.skip_atoi         kservice.o
    0x08001d12   0x08001d12   0x00000010   Data   RO         1341    .constdata          system_stm32f1xx.o
    0x08001d22   0x08001d22   0x00000122   Data   RO         1655    .constdata          kservice.o
    0x08001e44   0x08001e44   0x00000004   Data   RO         1449    .rti_fn.0           components.o
    0x08001e48   0x08001e48   0x00000004   Data   RO         1450    .rti_fn.0.end       components.o
    0x08001e4c   0x08001e4c   0x00000004   Data   RO         1451    .rti_fn.1.end       components.o
    0x08001e50   0x08001e50   0x00000004   Data   RO         1452    .rti_fn.6.end       components.o
    0x08001e54   0x08001e54   0x00000020   Data   RO         2154    Region$$Table       anon$$obj.o


    Execution Region RW_IRAM1 (Exec base: 0x20000000, Load base: 0x08001e74, Size: 0x00000fe0, Max: 0x00005000, ABSOLUTE)

    Exec Addr    Load Addr    Size         Type   Attr      Idx    E Section Name        Object

    0x20000000   0x08001e74   0x0000000c   Data   RW          353    .data               stm32f1xx_hal.o
    0x2000000c   0x08001e80   0x00000004   Data   RW         1343    .data               system_stm32f1xx.o
    0x20000010   0x08001e84   0x00000004   Data   RW         1405    .data               clock.o
    0x20000014   0x08001e88   0x00000001   Data   RW         1605    .data               irq.o
    0x20000015   0x08001e89   0x00000003   PAD
    0x20000018   0x08001e8c   0x00000030   Data   RW         1798    .data               object.o
    0x20000048   0x08001ebc   0x00000014   Data   RW         1853    .data               scheduler.o
    0x2000005c   0x08001ed0   0x0000000c   Data   RW         2025    .data               timer.o
    0x20000068   0x08001edc   0x00000004   Data   RW         2094    .data               cpuport.o
    0x2000006c   0x08001ee0   0x00000004   Data   RW         2095    .data               cpuport.o
    0x20000070   0x08001ee4   0x00000004   Data   RW         2096    .data               cpuport.o
    0x20000074   0x08001ee8   0x00000004   Data   RW         2097    .data               cpuport.o
    0x20000078        -       0x00000478   Zero   RW          235    .bss                app_rt_thread.o
    0x200004f0        -       0x00000478   Zero   RW         1448    .bss                components.o
    0x20000968        -       0x000000f8   Zero   RW         1512    .bss                idle.o
    0x20000a60        -       0x00000080   Zero   RW         1654    .bss                kservice.o
    0x20000ae0        -       0x00000100   Zero   RW         1852    .bss                scheduler.o
    0x20000be0        -       0x00000400   Zero   RW            1    STACK               startup_stm32f103xb.o


==============================================================================

Image component sizes


      Code (inc. data)   RO Data    RW Data    ZI Data      Debug   Object Name

       108         22          0          0       1144       7164   app_rt_thread.o
        82         10          0          0          0       2059   board.o
        56         12          0          4          0       1393   clock.o
       198         32         16          0       1144       6732   components.o
       244         26          0          0          0        880   context_rvds.o
       556        326          0         16          0       3542   cpuport.o
       112          8          0          0          0        899   gpio.o
       190         26          0          0        248       6058   idle.o
        56         12          0          1          0       1878   irq.o
      1382        160        290          0        128      11499   kservice.o
        84          0          0          0          0     379812   main.o
       168          6          0         48          0       6720   object.o
       416         56          0         20        256       8874   scheduler.o
        36          8        236          0       1024        808   startup_stm32f103xb.o
       112         20          0         12          0       4847   stm32f1xx_hal.o
       172         14          0          0          0      28310   stm32f1xx_hal_cortex.o
       490         34          0          0          0       2904   stm32f1xx_hal_gpio.o
        60          8          0          0          0        858   stm32f1xx_hal_msp.o
      1208         76          0          0          0       4094   stm32f1xx_hal_rcc.o
        12          0          0          0          0       2559   stm32f1xx_it.o
       176         38         16          4          0       1803   system_stm32f1xx.o
       674         44          0          0          0      11993   thread.o
       464         14          0         12          0      10544   timer.o

    ----------------------------------------------------------------------
      7082        952        590        120       3944     506230   Object Totals
         0          0         32          0          0          0   (incl. Generated)
        26          0          0          3          0          0   (incl. Padding)

    ----------------------------------------------------------------------

      Code (inc. data)   RO Data    RW Data    ZI Data      Debug   Library Member Name

         0          0          0          0          0          0   entry.o
         0          0          0          0          0          0   entry10a.o
         0          0          0          0          0          0   entry11a.o
         8          4          0          0          0          0   entry2.o
         4          0          0          0          0          0   entry5.o
         0          0          0          0          0          0   entry7b.o
         0          0          0          0          0          0   entry8b.o
         8          4          0          0          0          0   entry9a.o
        30          0          0          0          0          0   handlers.o
        36          8          0          0          0         68   init.o
        36          0          0          0          0        108   memseta.o

    ----------------------------------------------------------------------
       124         16          0          0          0        176   Library Totals
         2          0          0          0          0          0   (incl. Padding)

    ----------------------------------------------------------------------

      Code (inc. data)   RO Data    RW Data    ZI Data      Debug   Library Name

       122         16          0          0          0        176   mc_w.l

    ----------------------------------------------------------------------
       124         16          0          0          0        176   Library Totals

    ----------------------------------------------------------------------

==============================================================================


      Code (inc. data)   RO Data    RW Data    ZI Data      Debug   

      7206        968        590        120       3944     501982   Grand Totals
      7206        968        590        120       3944     501982   ELF Image Totals
      7206        968        590        120          0          0   ROM Totals

==============================================================================

    Total RO  Size (Code + RO Data)                 7796 (   7.61kB)
    Total RW  Size (RW Data + ZI Data)              4064 (   3.97kB)
    Total ROM Size (Code + RO Data + RW Data)       7916 (   7.73kB)

==============================================================================

