Component: ARM Compiler 5.06 update 6 (build 750) Tool: armlink [4d35ed]

==============================================================================

Section Cross References

    startup_stm32f103xb.o(RESET) refers to startup_stm32f103xb.o(STACK) for __initial_sp
    startup_stm32f103xb.o(RESET) refers to startup_stm32f103xb.o(.text) for Reset_Handler
    startup_stm32f103xb.o(RESET) refers to stm32f1xx_it.o(i.NMI_Handler) for NMI_Handler
    startup_stm32f103xb.o(RESET) refers to context_rvds.o(.text) for HardFault_Handler
    startup_stm32f103xb.o(RESET) refers to stm32f1xx_it.o(i.MemManage_Handler) for MemManage_Handler
    startup_stm32f103xb.o(RESET) refers to stm32f1xx_it.o(i.BusFault_Handler) for BusFault_Handler
    startup_stm32f103xb.o(RESET) refers to stm32f1xx_it.o(i.UsageFault_Handler) for UsageFault_Handler
    startup_stm32f103xb.o(RESET) refers to stm32f1xx_it.o(i.SVC_Handler) for SVC_Handler
    startup_stm32f103xb.o(RESET) refers to stm32f1xx_it.o(i.DebugMon_Handler) for DebugMon_Handler
    startup_stm32f103xb.o(RESET) refers to board.o(i.SysTick_Handler) for SysTick_Handler
    startup_stm32f103xb.o(RESET) refers to stm32f1xx_it.o(i.DMA1_Channel4_IRQHandler) for DMA1_Channel4_IRQHandler
    startup_stm32f103xb.o(RESET) refers to stm32f1xx_it.o(i.DMA1_Channel5_IRQHandler) for DMA1_Channel5_IRQHandler
    startup_stm32f103xb.o(RESET) refers to stm32f1xx_it.o(i.USART1_IRQHandler) for USART1_IRQHandler
    startup_stm32f103xb.o(RESET) refers to stm32f1xx_it.o(i.EXTI15_10_IRQHandler) for EXTI15_10_IRQHandler
    startup_stm32f103xb.o(.text) refers to system_stm32f1xx.o(i.SystemInit) for SystemInit
    startup_stm32f103xb.o(.text) refers to entry.o(.ARM.Collect$$$$00000000) for __main
    app_rt_thread.o(i.MX_RT_Thread_Init) refers to kservice.o(i.rt_kprintf) for rt_kprintf
    app_rt_thread.o(i.MX_RT_Thread_Init) refers to thread.o(i.rt_thread_create) for rt_thread_create
==============================================================================

Removing Unused input sections from the image.

    Removing startup_stm32f103xb.o(HEAP), (512 bytes).
    Removing app_rt_thread.o(.rev16_text), (4 bytes).
    Removing app_rt_thread.o(.revsh_text), (4 bytes).
    Removing app_rt_thread.o(.rrx_text), (6 bytes).
    Removing main.o(.rev16_text), (4 bytes).
    Removing main.o(.revsh_text), (4 bytes).
    Removing main.o(.rrx_text), (6 bytes).
    Removing gpio.o(.rev16_text), (4 bytes).
    Removing gpio.o(.revsh_text), (4 bytes).
    Removing gpio.o(.rrx_text), (6 bytes).
    Removing dma.o(.rev16_text), (4 bytes).
    Removing dma.o(.revsh_text), (4 bytes).
    Removing dma.o(.rrx_text), (6 bytes).
    Removing usart.o(.rev16_text), (4 bytes).
    Removing usart.o(.revsh_text), (4 bytes).
    Removing usart.o(.rrx_text), (6 bytes).
    Removing usart.o(i.HAL_UART_MspDeInit), (68 bytes).
    Removing stm32f1xx_it.o(.rev16_text), (4 bytes).
==============================================================================

Image Symbol Table

    Local Symbols

    Symbol Name                              Value     Ov Type        Size  Object(Section)

    ../Drivers/STM32F1xx_HAL_Driver/Src/stm32f1xx_hal.c 0x00000000   Number         0  stm32f1xx_hal.o ABSOLUTE
    ../Drivers/STM32F1xx_HAL_Driver/Src/stm32f1xx_hal_cortex.c 0x00000000   Number         0  stm32f1xx_hal_cortex.o ABSOLUTE
    ../Drivers/STM32F1xx_HAL_Driver/Src/stm32f1xx_hal_dma.c 0x00000000   Number         0  stm32f1xx_hal_dma.o ABSOLUTE
    ../Drivers/STM32F1xx_HAL_Driver/Src/stm32f1xx_hal_exti.c 0x00000000   Number         0  stm32f1xx_hal_exti.o ABSOLUTE
    ../Drivers/STM32F1xx_HAL_Driver/Src/stm32f1xx_hal_flash.c 0x00000000   Number         0  stm32f1xx_hal_flash.o ABSOLUTE
    ../Drivers/STM32F1xx_HAL_Driver/Src/stm32f1xx_hal_flash_ex.c 0x00000000   Number         0  stm32f1xx_hal_flash_ex.o ABSOLUTE
    ../Drivers/STM32F1xx_HAL_Driver/Src/stm32f1xx_hal_gpio.c 0x00000000   Number         0  stm32f1xx_hal_gpio.o ABSOLUTE
    ../Drivers/STM32F1xx_HAL_Driver/Src/stm32f1xx_hal_gpio_ex.c 0x00000000   Number         0  stm32f1xx_hal_gpio_ex.o ABSOLUTE
    ../Drivers/STM32F1xx_HAL_Driver/Src/stm32f1xx_hal_pwr.c 0x00000000   Number         0  stm32f1xx_hal_pwr.o ABSOLUTE
    ../Drivers/STM32F1xx_HAL_Driver/Src/stm32f1xx_hal_rcc.c 0x00000000   Number         0  stm32f1xx_hal_rcc.o ABSOLUTE
    ../Drivers/STM32F1xx_HAL_Driver/Src/stm32f1xx_hal_rcc_ex.c 0x00000000   Number         0  stm32f1xx_hal_rcc_ex.o ABSOLUTE
    ../Drivers/STM32F1xx_HAL_Driver/Src/stm32f1xx_hal_tim.c 0x00000000   Number         0  stm32f1xx_hal_tim.o ABSOLUTE
    ../Drivers/STM32F1xx_HAL_Driver/Src/stm32f1xx_hal_tim_ex.c 0x00000000   Number         0  stm32f1xx_hal_tim_ex.o ABSOLUTE
    ../Drivers/STM32F1xx_HAL_Driver/Src/stm32f1xx_hal_uart.c 0x00000000   Number         0  stm32f1xx_hal_uart.o ABSOLUTE
    ../Middlewares/Third_Party/RealThread_RTOS_RT-Thread/bsp/board.c 0x00000000   Number         0  board.o ABSOLUTE
    ../Middlewares/Third_Party/RealThread_RTOS_RT-Thread/libcpu/arm/cortex-m3/context_rvds.S 0x00000000   Number         0  context_rvds.o ABSOLUTE
    ../Middlewares/Third_Party/RealThread_RTOS_RT-Thread/libcpu/arm/cortex-m3/cpuport.c 0x00000000   Number         0  cpuport.o ABSOLUTE
    ../Middlewares/Third_Party/RealThread_RTOS_RT-Thread/src/clock.c 0x00000000   Number         0  clock.o ABSOLUTE
    ../Middlewares/Third_Party/RealThread_RTOS_RT-Thread/src/components.c 0x00000000   Number         0  components.o ABSOLUTE
    ../Middlewares/Third_Party/RealThread_RTOS_RT-Thread/src/idle.c 0x00000000   Number         0  idle.o ABSOLUTE
    ../Middlewares/Third_Party/RealThread_RTOS_RT-Thread/src/ipc.c 0x00000000   Number         0  ipc.o ABSOLUTE
    ../Middlewares/Third_Party/RealThread_RTOS_RT-Thread/src/irq.c 0x00000000   Number         0  irq.o ABSOLUTE
    ../Middlewares/Third_Party/RealThread_RTOS_RT-Thread/src/kservice.c 0x00000000   Number         0  kservice.o ABSOLUTE
    ../Middlewares/Third_Party/RealThread_RTOS_RT-Thread/src/mem.c 0x00000000   Number         0  mem.o ABSOLUTE
    ../Middlewares/Third_Party/RealThread_RTOS_RT-Thread/src/object.c 0x00000000   Number         0  object.o ABSOLUTE
    ../Middlewares/Third_Party/RealThread_RTOS_RT-Thread/src/scheduler.c 0x00000000   Number         0  scheduler.o ABSOLUTE
    ../Middlewares/Third_Party/RealThread_RTOS_RT-Thread/src/thread.c 0x00000000   Number         0  thread.o ABSOLUTE
    ../Middlewares/Third_Party/RealThread_RTOS_RT-Thread/src/timer.c 0x00000000   Number         0  timer.o ABSOLUTE
    ../Src/dma.c                             0x00000000   Number         0  dma.o ABSOLUTE
    ../Src/gpio.c                            0x00000000   Number         0  gpio.o ABSOLUTE
    ../Src/main.c                            0x00000000   Number         0  main.o ABSOLUTE
    ../Src/stm32f1xx_hal_msp.c               0x00000000   Number         0  stm32f1xx_hal_msp.o ABSOLUTE
    ../Src/stm32f1xx_it.c                    0x00000000   Number         0  stm32f1xx_it.o ABSOLUTE
    ../Src/system_stm32f1xx.c                0x00000000   Number         0  system_stm32f1xx.o ABSOLUTE
    ../Src/usart.c                           0x00000000   Number         0  usart.o ABSOLUTE
    ../clib/microlib/init/entry.s            0x00000000   Number         0  entry11b.o ABSOLUTE
    ../clib/microlib/init/entry.s            0x00000000   Number         0  entry5.o ABSOLUTE
    ../clib/microlib/init/entry.s            0x00000000   Number         0  entry9a.o ABSOLUTE
    ../clib/microlib/init/entry.s            0x00000000   Number         0  entry2.o ABSOLUTE
    ../clib/microlib/init/entry.s            0x00000000   Number         0  entry8b.o ABSOLUTE
    ../clib/microlib/init/entry.s            0x00000000   Number         0  entry7a.o ABSOLUTE
    ../clib/microlib/init/entry.s            0x00000000   Number         0  entry9b.o ABSOLUTE
    ../clib/microlib/init/entry.s            0x00000000   Number         0  entry8a.o ABSOLUTE
    ../clib/microlib/init/entry.s            0x00000000   Number         0  entry11a.o ABSOLUTE
    ../clib/microlib/init/entry.s            0x00000000   Number         0  entry10b.o ABSOLUTE
    ../clib/microlib/init/entry.s            0x00000000   Number         0  entry.o ABSOLUTE
    ../clib/microlib/init/entry.s            0x00000000   Number         0  entry10a.o ABSOLUTE
    ../clib/microlib/init/entry.s            0x00000000   Number         0  entry7b.o ABSOLUTE
    ../clib/microlib/longlong.c              0x00000000   Number         0  llushr.o ABSOLUTE
    ../clib/microlib/string/memset.c         0x00000000   Number         0  memseta.o ABSOLUTE
    ..\Drivers\STM32F1xx_HAL_Driver\Src\stm32f1xx_hal.c 0x00000000   Number         0  stm32f1xx_hal.o ABSOLUTE
    ..\Drivers\STM32F1xx_HAL_Driver\Src\stm32f1xx_hal_cortex.c 0x00000000   Number         0  stm32f1xx_hal_cortex.o ABSOLUTE
    ..\Drivers\STM32F1xx_HAL_Driver\Src\stm32f1xx_hal_dma.c 0x00000000   Number         0  stm32f1xx_hal_dma.o ABSOLUTE
    ..\Drivers\STM32F1xx_HAL_Driver\Src\stm32f1xx_hal_exti.c 0x00000000   Number         0  stm32f1xx_hal_exti.o ABSOLUTE
    ..\Drivers\STM32F1xx_HAL_Driver\Src\stm32f1xx_hal_flash.c 0x00000000   Number         0  stm32f1xx_hal_flash.o ABSOLUTE
    ..\Drivers\STM32F1xx_HAL_Driver\Src\stm32f1xx_hal_flash_ex.c 0x00000000   Number         0  stm32f1xx_hal_flash_ex.o ABSOLUTE
    ..\Drivers\STM32F1xx_HAL_Driver\Src\stm32f1xx_hal_gpio.c 0x00000000   Number         0  stm32f1xx_hal_gpio.o ABSOLUTE
    ..\Drivers\STM32F1xx_HAL_Driver\Src\stm32f1xx_hal_gpio_ex.c 0x00000000   Number         0  stm32f1xx_hal_gpio_ex.o ABSOLUTE
    ..\Drivers\STM32F1xx_HAL_Driver\Src\stm32f1xx_hal_pwr.c 0x00000000   Number         0  stm32f1xx_hal_pwr.o ABSOLUTE
    ..\Drivers\STM32F1xx_HAL_Driver\Src\stm32f1xx_hal_rcc.c 0x00000000   Number         0  stm32f1xx_hal_rcc.o ABSOLUTE
    ..\Drivers\STM32F1xx_HAL_Driver\Src\stm32f1xx_hal_rcc_ex.c 0x00000000   Number         0  stm32f1xx_hal_rcc_ex.o ABSOLUTE
    ..\Drivers\STM32F1xx_HAL_Driver\Src\stm32f1xx_hal_tim.c 0x00000000   Number         0  stm32f1xx_hal_tim.o ABSOLUTE
    ..\Drivers\STM32F1xx_HAL_Driver\Src\stm32f1xx_hal_tim_ex.c 0x00000000   Number         0  stm32f1xx_hal_tim_ex.o ABSOLUTE
    ..\Drivers\STM32F1xx_HAL_Driver\Src\stm32f1xx_hal_uart.c 0x00000000   Number         0  stm32f1xx_hal_uart.o ABSOLUTE
    ..\Middlewares\Third_Party\RealThread_RTOS_RT-Thread\src\kservice.c 0x00000000   Number         0  kservice.o ABSOLUTE
    ..\Src\app_rt_thread.c                   0x00000000   Number         0  app_rt_thread.o ABSOLUTE
    ..\Src\cpuusage.c                        0x00000000   Number         0  cpuusage.o ABSOLUTE
    ..\Src\dma.c                             0x00000000   Number         0  dma.o ABSOLUTE
    ..\Src\gpio.c                            0x00000000   Number         0  gpio.o ABSOLUTE
    ..\Src\main.c                            0x00000000   Number         0  main.o ABSOLUTE
    ..\Src\stm32f1xx_hal_msp.c               0x00000000   Number         0  stm32f1xx_hal_msp.o ABSOLUTE
    ..\Src\stm32f1xx_it.c                    0x00000000   Number         0  stm32f1xx_it.o ABSOLUTE
    ..\Src\system_stm32f1xx.c                0x00000000   Number         0  system_stm32f1xx.o ABSOLUTE
    ..\Src\usart.c                           0x00000000   Number         0  usart.o ABSOLUTE
    ..\\Src\\app_rt_thread.c                 0x00000000   Number         0  app_rt_thread.o ABSOLUTE
    dc.s                                     0x00000000   Number         0  dc.o ABSOLUTE
    handlers.s                               0x00000000   Number         0  handlers.o ABSOLUTE
    init.s                                   0x00000000   Number         0  init.o ABSOLUTE
    startup_stm32f103xb.s                    0x00000000   Number         0  startup_stm32f103xb.o ABSOLUTE
    RESET                                    0x08000000   Section      236  startup_stm32f103xb.o(RESET)
    .ARM.Collect$$$$00000000                 0x080000ec   Section        0  entry.o(.ARM.Collect$$$$00000000)
    .ARM.Collect$$$$00000001                 0x080000ec   Section        4  entry2.o(.ARM.Collect$$$$00000001)
    .ARM.Collect$$$$00000004                 0x080000f0   Section        4  entry5.o(.ARM.Collect$$$$00000004)
    .ARM.Collect$$$$00000008                 0x080000f4   Section        0  entry7b.o(.ARM.Collect$$$$00000008)
    .ARM.Collect$$$$0000000A                 0x080000f4   Section        0  entry8b.o(.ARM.Collect$$$$0000000A)
    .ARM.Collect$$$$0000000B                 0x080000f4   Section        8  entry9a.o(.ARM.Collect$$$$0000000B)
    .ARM.Collect$$$$0000000D                 0x080000fc   Section        0  entry10a.o(.ARM.Collect$$$$0000000D)
    .ARM.Collect$$$$0000000F                 0x080000fc   Section        0  entry11a.o(.ARM.Collect$$$$0000000F)
    .ARM.Collect$$$$00002712                 0x080000fc   Section        4  entry2.o(.ARM.Collect$$$$00002712)
    __lit__00000000                          0x080000fc   Data           4  entry2.o(.ARM.Collect$$$$00002712)
    .text                                    0x08000100   Section       36  startup_stm32f103xb.o(.text)
    .text                                    0x08000124   Section      244  context_rvds.o(.text)
    .text                                    0x08000218   Section        0  memseta.o(.text)
    .text                                    0x0800023c   Section       36  init.o(.text)
    i.$Sub$$main                             0x08000260   Section        0  components.o(i.$Sub$$main)
    i.BusFault_Handler                       0x0800026a   Section        0  stm32f1xx_it.o(i.BusFault_Handler)
    i.DMA1_Channel4_IRQHandler               0x0800026c   Section        0  stm32f1xx_it.o(i.DMA1_Channel4_IRQHandler)
    i.DMA1_Channel5_IRQHandler               0x08000278   Section        0  stm32f1xx_it.o(i.DMA1_Channel5_IRQHandler)
    i.DebugMon_Handler                       0x08000284   Section        0  stm32f1xx_it.o(i.DebugMon_Handler)
    i.EXTI15_10_IRQHandler                   0x08000286   Section        0  stm32f1xx_it.o(i.EXTI15_10_IRQHandler)
    i.Error_Handler                          0x0800029c   Section        0  main.o(i.Error_Handler)
    i.HAL_DMA_Abort_IT                       0x080002a0   Section        0  stm32f1xx_hal_dma.o(i.HAL_DMA_Abort_IT)
    i.HAL_DMA_IRQHandler                     0x08000338   Section        0  stm32f1xx_hal_dma.o(i.HAL_DMA_IRQHandler)
    i.HAL_DMA_Init                           0x0800048c   Section        0  stm32f1xx_hal_dma.o(i.HAL_DMA_Init)
    i.HAL_GPIO_EXTI_Callback                 0x080004e8   Section        0  stm32f1xx_hal_gpio.o(i.HAL_GPIO_EXTI_Callback)
    i.HAL_GPIO_EXTI_IRQHandler               0x080004ec   Section        0  stm32f1xx_hal_gpio.o(i.HAL_GPIO_EXTI_IRQHandler)
    i.HAL_GPIO_Init                          0x08000504   Section        0  stm32f1xx_hal_gpio.o(i.HAL_GPIO_Init)
    i.HAL_GPIO_TogglePin                     0x080006e4   Section        0  stm32f1xx_hal_gpio.o(i.HAL_GPIO_TogglePin)
    i.HAL_GPIO_WritePin                      0x080006f2   Section        0  stm32f1xx_hal_gpio.o(i.HAL_GPIO_WritePin)
    i.HAL_GetTick                            0x080006fc   Section        0  stm32f1xx_hal.o(i.HAL_GetTick)
    i.HAL_Init                               0x08000708   Section        0  stm32f1xx_hal.o(i.HAL_Init)
    i.HAL_InitTick                           0x0800072c   Section        0  stm32f1xx_hal.o(i.HAL_InitTick)
    i.HAL_MspInit                            0x0800076c   Section        0  stm32f1xx_hal_msp.o(i.HAL_MspInit)
    i.HAL_NVIC_EnableIRQ                     0x080007a8   Section        0  stm32f1xx_hal_cortex.o(i.HAL_NVIC_EnableIRQ)
    i.HAL_NVIC_SetPriority                   0x080007c4   Section        0  stm32f1xx_hal_cortex.o(i.HAL_NVIC_SetPriority)
    i.HAL_NVIC_SetPriorityGrouping           0x08000804   Section        0  stm32f1xx_hal_cortex.o(i.HAL_NVIC_SetPriorityGrouping)
    i.HAL_RCC_ClockConfig                    0x08000828   Section        0  stm32f1xx_hal_rcc.o(i.HAL_RCC_ClockConfig)
    i.HAL_RCC_GetPCLK1Freq                   0x08000954   Section        0  stm32f1xx_hal_rcc.o(i.HAL_RCC_GetPCLK1Freq)
    i.HAL_RCC_GetPCLK2Freq                   0x08000974   Section        0  stm32f1xx_hal_rcc.o(i.HAL_RCC_GetPCLK2Freq)
    i.HAL_RCC_GetSysClockFreq                0x08000994   Section        0  stm32f1xx_hal_rcc.o(i.HAL_RCC_GetSysClockFreq)
    i.HAL_RCC_OscConfig                      0x08000a00   Section        0  stm32f1xx_hal_rcc.o(i.HAL_RCC_OscConfig)
    i.HAL_SYSTICK_Config                     0x08000d20   Section        0  stm32f1xx_hal_cortex.o(i.HAL_SYSTICK_Config)
    i.HAL_UART_ErrorCallback                 0x08000d48   Section        0  stm32f1xx_hal_uart.o(i.HAL_UART_ErrorCallback)
    i.HAL_UART_IRQHandler                    0x08000d4c   Section        0  stm32f1xx_hal_uart.o(i.HAL_UART_IRQHandler)
    i.HAL_UART_Init                          0x08000e5c   Section        0  stm32f1xx_hal_uart.o(i.HAL_UART_Init)
    i.HAL_UART_MspInit                       0x08000ec0   Section        0  usart.o(i.HAL_UART_MspInit)
    i.HAL_UART_RxCpltCallback                0x08000f9c   Section        0  stm32f1xx_hal_uart.o(i.HAL_UART_RxCpltCallback)
    i.HAL_UART_Transmit                      0x08000f9e   Section        0  stm32f1xx_hal_uart.o(i.HAL_UART_Transmit)
    i.HAL_UART_TxCpltCallback                0x08001058   Section        0  stm32f1xx_hal_uart.o(i.HAL_UART_TxCpltCallback)
    i.MX_DMA_Init                            0x0800105c   Section        0  dma.o(i.MX_DMA_Init)
    i.MX_GPIO_Init                           0x08001098   Section        0  gpio.o(i.MX_GPIO_Init)
    i.MX_RT_Thread_Init                      0x08001144   Section        0  app_rt_thread.o(i.MX_RT_Thread_Init)
    i.MX_USART1_UART_Init                    0x080011f0   Section        0  usart.o(i.MX_USART1_UART_Init)
    i.MemManage_Handler                      0x08001228   Section        0  stm32f1xx_it.o(i.MemManage_Handler)
    i.NMI_Handler                            0x0800122a   Section        0  stm32f1xx_it.o(i.NMI_Handler)
    i.SVC_Handler                            0x0800122c   Section        0  stm32f1xx_it.o(i.SVC_Handler)
    i.SysTick_Handler                        0x0800122e   Section        0  board.o(i.SysTick_Handler)
    i.SystemClock_Config                     0x08001240   Section        0  main.o(i.SystemClock_Config)
    i.SystemCoreClockUpdate                  0x08001290   Section        0  system_stm32f1xx.o(i.SystemCoreClockUpdate)
    i.SystemInit                             0x080012f8   Section        0  system_stm32f1xx.o(i.SystemInit)
    i.UART_DMAAbortOnError                   0x08001340   Section        0  stm32f1xx_hal_uart.o(i.UART_DMAAbortOnError)
    UART_DMAAbortOnError                     0x08001341   Thumb Code    16  stm32f1xx_hal_uart.o(i.UART_DMAAbortOnError)
    i.UART_EndRxTransfer                     0x08001350   Section        0  stm32f1xx_hal_uart.o(i.UART_EndRxTransfer)
    UART_EndRxTransfer                       0x08001351   Thumb Code    28  stm32f1xx_hal_uart.o(i.UART_EndRxTransfer)
    i.UART_Receive_IT                        0x0800136c   Section        0  stm32f1xx_hal_uart.o(i.UART_Receive_IT)
    UART_Receive_IT                          0x0800136d   Thumb Code   150  stm32f1xx_hal_uart.o(i.UART_Receive_IT)
    i.UART_SetConfig                         0x08001404   Section        0  stm32f1xx_hal_uart.o(i.UART_SetConfig)
    UART_SetConfig                           0x08001405   Thumb Code   178  stm32f1xx_hal_uart.o(i.UART_SetConfig)
    i.UART_Transmit_IT                       0x080014bc   Section        0  stm32f1xx_hal_uart.o(i.UART_Transmit_IT)
    UART_Transmit_IT                         0x080014bd   Thumb Code    98  stm32f1xx_hal_uart.o(i.UART_Transmit_IT)
    i.UART_WaitOnFlagUntilTimeout            0x0800151e   Section        0  stm32f1xx_hal_uart.o(i.UART_WaitOnFlagUntilTimeout)
    UART_WaitOnFlagUntilTimeout              0x0800151f   Thumb Code   100  stm32f1xx_hal_uart.o(i.UART_WaitOnFlagUntilTimeout)
    i.USART1_IRQHandler                      0x08001584   Section        0  stm32f1xx_it.o(i.USART1_IRQHandler)
    i.UsageFault_Handler                     0x08001590   Section        0  stm32f1xx_it.o(i.UsageFault_Handler)
    i.__NVIC_SetPriority                     0x08001592   Section        0  stm32f1xx_hal_cortex.o(i.__NVIC_SetPriority)
    __NVIC_SetPriority                       0x08001593   Thumb Code    32  stm32f1xx_hal_cortex.o(i.__NVIC_SetPriority)
    i.__rt_ffs                               0x080015b4   Section        0  kservice.o(i.__rt_ffs)
    i.__scatterload_copy                     0x080015f8   Section       14  handlers.o(i.__scatterload_copy)
    i.__scatterload_null                     0x08001606   Section        2  handlers.o(i.__scatterload_null)
    i.__scatterload_zeroinit                 0x08001608   Section       14  handlers.o(i.__scatterload_zeroinit)
    i._has_defunct_thread                    0x08001618   Section        0  idle.o(i._has_defunct_thread)
    _has_defunct_thread                      0x08001619   Thumb Code    16  idle.o(i._has_defunct_thread)
    i._rt_thread_init                        0x0800162c   Section        0  thread.o(i._rt_thread_init)
    _rt_thread_init                          0x0800162d   Thumb Code   118  thread.o(i._rt_thread_init)
    i._rt_timer_init                         0x080016b0   Section        0  timer.o(i._rt_timer_init)
    _rt_timer_init                           0x080016b1   Thumb Code    28  timer.o(i._rt_timer_init)
    i._rt_timer_remove                       0x080016cc   Section        0  timer.o(i._rt_timer_remove)
    _rt_timer_remove                         0x080016cd   Thumb Code    18  timer.o(i._rt_timer_remove)
    i.cpu_usage_get                          0x080016e0   Section        0  cpuusage.o(i.cpu_usage_get)
    i.cpu_usage_idle_hook                    0x080016f0   Section        0  cpuusage.o(i.cpu_usage_idle_hook)
    cpu_usage_idle_hook                      0x080016f1   Thumb Code   134  cpuusage.o(i.cpu_usage_idle_hook)
    i.cpu_usage_init                         0x0800177c   Section        0  cpuusage.o(i.cpu_usage_init)
    i.get_cpu_use_thread_entry               0x08001788   Section        0  app_rt_thread.o(i.get_cpu_use_thread_entry)
    get_cpu_use_thread_entry                 0x08001789   Thumb Code    32  app_rt_thread.o(i.get_cpu_use_thread_entry)
    i.led1_thread_entry                      0x080017c4   Section        0  app_rt_thread.o(i.led1_thread_entry)
    led1_thread_entry                        0x080017c5   Thumb Code    36  app_rt_thread.o(i.led1_thread_entry)
    i.main                                   0x080017ec   Section        0  main.o(i.main)
    i.main_thread_entry                      0x0800180a   Section        0  components.o(i.main_thread_entry)
    i.plug_holes                             0x08001818   Section        0  mem.o(i.plug_holes)
    plug_holes                               0x08001819   Thumb Code    82  mem.o(i.plug_holes)
    i.print_number                           0x08001870   Section        0  kservice.o(i.print_number)
    print_number                             0x08001871   Thumb Code   300  kservice.o(i.print_number)
    i.rt_application_init                    0x080019a0   Section        0  components.o(i.rt_application_init)
    i.rt_components_board_init               0x080019cc   Section        0  components.o(i.rt_components_board_init)
    i.rt_components_init                     0x080019e8   Section        0  components.o(i.rt_components_init)
    i.rt_enter_critical                      0x08001a04   Section        0  scheduler.o(i.rt_enter_critical)
    i.rt_exit_critical                       0x08001a20   Section        0  scheduler.o(i.rt_exit_critical)
    i.rt_free                                0x08001a58   Section        0  mem.o(i.rt_free)
    i.rt_heap_begin_get                      0x08001b20   Section        0  board.o(i.rt_heap_begin_get)
    i.rt_heap_end_get                        0x08001b28   Section        0  board.o(i.rt_heap_end_get)
    i.rt_hw_board_init                       0x08001b30   Section        0  board.o(i.rt_hw_board_init)
    i.rt_hw_console_output                   0x08001b80   Section        0  kservice.o(i.rt_hw_console_output)
    i.rt_hw_hard_fault_exception             0x08001bc0   Section        0  cpuport.o(i.rt_hw_hard_fault_exception)
    i.rt_hw_stack_init                       0x08001db4   Section        0  cpuport.o(i.rt_hw_stack_init)
    i.rt_interrupt_enter                     0x08001dec   Section        0  irq.o(i.rt_interrupt_enter)
    i.rt_interrupt_leave                     0x08001e10   Section        0  irq.o(i.rt_interrupt_leave)
    i.rt_ipc_list_resume                     0x08001e34   Section        0  ipc.o(i.rt_ipc_list_resume)
    rt_ipc_list_resume                       0x08001e35   Thumb Code    14  ipc.o(i.rt_ipc_list_resume)
    i.rt_ipc_list_suspend                    0x08001e44   Section        0  ipc.o(i.rt_ipc_list_suspend)
    rt_ipc_list_suspend                      0x08001e45   Thumb Code    82  ipc.o(i.rt_ipc_list_suspend)
    i.rt_kprintf                             0x08001e98   Section        0  kservice.o(i.rt_kprintf)
    i.rt_list_insert_after                   0x08001eb8   Section        0  object.o(i.rt_list_insert_after)
    rt_list_insert_after                     0x08001eb9   Thumb Code    14  object.o(i.rt_list_insert_after)
    i.rt_list_insert_after                   0x08001ec6   Section        0  thread.o(i.rt_list_insert_after)
    rt_list_insert_after                     0x08001ec7   Thumb Code    14  thread.o(i.rt_list_insert_after)
    i.rt_list_insert_after                   0x08001ed4   Section        0  timer.o(i.rt_list_insert_after)
    rt_list_insert_after                     0x08001ed5   Thumb Code    14  timer.o(i.rt_list_insert_after)
    i.rt_list_insert_before                  0x08001ee2   Section        0  ipc.o(i.rt_list_insert_before)
    rt_list_insert_before                    0x08001ee3   Thumb Code    14  ipc.o(i.rt_list_insert_before)
    i.rt_list_remove                         0x08001ef0   Section        0  object.o(i.rt_list_remove)
    rt_list_remove                           0x08001ef1   Thumb Code    18  object.o(i.rt_list_remove)
    i.rt_list_remove                         0x08001f02   Section        0  thread.o(i.rt_list_remove)
    rt_list_remove                           0x08001f03   Thumb Code    18  thread.o(i.rt_list_remove)
    i.rt_malloc                              0x08001f14   Section        0  mem.o(i.rt_malloc)
    i.rt_memset                              0x08002010   Section        0  kservice.o(i.rt_memset)
    i.rt_object_allocate                     0x08002024   Section        0  object.o(i.rt_object_allocate)
    i.rt_object_delete                       0x08002084   Section        0  object.o(i.rt_object_delete)
    i.rt_object_detach                       0x080020b8   Section        0  object.o(i.rt_object_detach)
    i.rt_object_get_information              0x080020e8   Section        0  object.o(i.rt_object_get_information)
    i.rt_object_init                         0x0800210c   Section        0  object.o(i.rt_object_init)
    i.rt_object_is_systemobject              0x0800216c   Section        0  object.o(i.rt_object_is_systemobject)
    i.rt_schedule                            0x0800217c   Section        0  scheduler.o(i.rt_schedule)
    i.rt_schedule_insert_thread              0x080021e0   Section        0  scheduler.o(i.rt_schedule_insert_thread)
    i.rt_schedule_remove_thread              0x08002230   Section        0  scheduler.o(i.rt_schedule_remove_thread)
    i.rt_sem_init                            0x08002278   Section        0  ipc.o(i.rt_sem_init)
    i.rt_sem_release                         0x0800229c   Section        0  ipc.o(i.rt_sem_release)
    i.rt_sem_take                            0x080022e0   Section        0  ipc.o(i.rt_sem_take)
    i.rt_show_version                        0x08002370   Section        0  kservice.o(i.rt_show_version)
    i.rt_soft_timer_check                    0x08002420   Section        0  timer.o(i.rt_soft_timer_check)
    i.rt_strlen                              0x080024a4   Section        0  kservice.o(i.rt_strlen)
    i.rt_strncpy                             0x080024b4   Section        0  kservice.o(i.rt_strncpy)
    i.rt_system_heap_init                    0x080024dc   Section        0  mem.o(i.rt_system_heap_init)
    i.rt_system_scheduler_init               0x08002588   Section        0  scheduler.o(i.rt_system_scheduler_init)
    i.rt_system_scheduler_start              0x080025bc   Section        0  scheduler.o(i.rt_system_scheduler_start)
    i.rt_system_timer_init                   0x080025e4   Section        0  timer.o(i.rt_system_timer_init)
    i.rt_system_timer_thread_init            0x080025f0   Section        0  timer.o(i.rt_system_timer_thread_init)
    i.rt_thread_create                       0x08002634   Section        0  thread.o(i.rt_thread_create)
    i.rt_thread_delay                        0x0800267c   Section        0  thread.o(i.rt_thread_delay)
    i.rt_thread_exit                         0x08002680   Section        0  thread.o(i.rt_thread_exit)
    i.rt_thread_idle_entry                   0x080026d8   Section        0  idle.o(i.rt_thread_idle_entry)
    rt_thread_idle_entry                     0x080026d9   Thumb Code    24  idle.o(i.rt_thread_idle_entry)
    i.rt_thread_idle_excute                  0x080026f4   Section        0  idle.o(i.rt_thread_idle_excute)
    i.rt_thread_idle_init                    0x0800276c   Section        0  idle.o(i.rt_thread_idle_init)
    i.rt_thread_idle_sethook                 0x080027a4   Section        0  idle.o(i.rt_thread_idle_sethook)
    i.rt_thread_init                         0x080027dc   Section        0  thread.o(i.rt_thread_init)
    i.rt_thread_resume                       0x0800280c   Section        0  thread.o(i.rt_thread_resume)
    i.rt_thread_self                         0x08002858   Section        0  thread.o(i.rt_thread_self)
    i.rt_thread_sleep                        0x08002864   Section        0  thread.o(i.rt_thread_sleep)
    i.rt_thread_startup                      0x080028a4   Section        0  thread.o(i.rt_thread_startup)
    i.rt_thread_suspend                      0x080028d0   Section        0  thread.o(i.rt_thread_suspend)
    i.rt_thread_timeout                      0x08002920   Section        0  thread.o(i.rt_thread_timeout)
    i.rt_thread_timer_entry                  0x08002940   Section        0  timer.o(i.rt_thread_timer_entry)
    rt_thread_timer_entry                    0x08002941   Thumb Code    50  timer.o(i.rt_thread_timer_entry)
    i.rt_thread_yield                        0x08002978   Section        0  thread.o(i.rt_thread_yield)
    i.rt_tick_get                            0x080029d8   Section        0  clock.o(i.rt_tick_get)
    i.rt_tick_increase                       0x080029e4   Section        0  clock.o(i.rt_tick_increase)
    i.rt_timer_check                         0x08002a10   Section        0  timer.o(i.rt_timer_check)
    i.rt_timer_control                       0x08002a8c   Section        0  timer.o(i.rt_timer_control)
    i.rt_timer_detach                        0x08002abc   Section        0  timer.o(i.rt_timer_detach)
    i.rt_timer_init                          0x08002adc   Section        0  timer.o(i.rt_timer_init)
    i.rt_timer_list_next_timeout             0x08002b04   Section        0  timer.o(i.rt_timer_list_next_timeout)
    rt_timer_list_next_timeout               0x08002b05   Thumb Code    16  timer.o(i.rt_timer_list_next_timeout)
    i.rt_timer_start                         0x08002b14   Section        0  timer.o(i.rt_timer_start)
    i.rt_timer_stop                          0x08002bdc   Section        0  timer.o(i.rt_timer_stop)
    i.rt_vsnprintf                           0x08002c18   Section        0  kservice.o(i.rt_vsnprintf)
    i.rti_board_end                          0x08002e94   Section        0  components.o(i.rti_board_end)
    rti_board_end                            0x08002e95   Thumb Code     4  components.o(i.rti_board_end)
    i.rti_board_start                        0x08002e98   Section        0  components.o(i.rti_board_start)
    rti_board_start                          0x08002e99   Thumb Code     4  components.o(i.rti_board_start)
    i.rti_end                                0x08002e9c   Section        0  components.o(i.rti_end)
    rti_end                                  0x08002e9d   Thumb Code     4  components.o(i.rti_end)
    i.rti_start                              0x08002ea0   Section        0  components.o(i.rti_start)
    rti_start                                0x08002ea1   Thumb Code     4  components.o(i.rti_start)
    i.rtthread_startup                       0x08002ea4   Section        0  components.o(i.rtthread_startup)
    i.skip_atoi                              0x08002ece   Section        0  kservice.o(i.skip_atoi)
    skip_atoi                                0x08002ecf   Thumb Code    40  kservice.o(i.skip_atoi)
    .constdata                               0x08002ef6   Section       16  system_stm32f1xx.o(.constdata)
    .constdata                               0x08002f06   Section        8  system_stm32f1xx.o(.constdata)
    .constdata                               0x08002f0e   Section      290  kservice.o(.constdata)
    small_digits                             0x0800300e   Data          17  kservice.o(.constdata)
    large_digits                             0x0800301f   Data          17  kservice.o(.constdata)
    .rti_fn.0                                0x08003030   Section        4  components.o(.rti_fn.0)
    __tagsym$$used                           0x08003030   Number         0  components.o(.rti_fn.0)
    .rti_fn.0.end                            0x08003034   Section        4  components.o(.rti_fn.0.end)
    __tagsym$$used                           0x08003034   Number         0  components.o(.rti_fn.0.end)
    .rti_fn.1.end                            0x08003038   Section        4  components.o(.rti_fn.1.end)
    __tagsym$$used                           0x08003038   Number         0  components.o(.rti_fn.1.end)
    .rti_fn.6.end                            0x0800303c   Section        4  components.o(.rti_fn.6.end)
    __tagsym$$used                           0x0800303c   Number         0  components.o(.rti_fn.6.end)
    .data                                    0x20000000   Section        8  app_rt_thread.o(.data)
    led1_thread                              0x20000000   Data           4  app_rt_thread.o(.data)
    get_cpu_use_thread                       0x20000004   Data           4  app_rt_thread.o(.data)
    .data                                    0x20000008   Section        8  cpuusage.o(.data)
    cpu_usage_major                          0x20000008   Data           1  cpuusage.o(.data)
    cpu_usage_minor                          0x20000009   Data           1  cpuusage.o(.data)
    total_count                              0x2000000c   Data           4  cpuusage.o(.data)
    .data                                    0x20000010   Section       12  stm32f1xx_hal.o(.data)
    .data                                    0x2000001c   Section        4  system_stm32f1xx.o(.data)
    .data                                    0x20000020   Section        4  clock.o(.data)
    rt_tick                                  0x20000020   Data           4  clock.o(.data)
    .data                                    0x20000024   Section       12  irq.o(.data)
    rt_interrupt_enter_hook                  0x20000028   Data           4  irq.o(.data)
    rt_interrupt_leave_hook                  0x2000002c   Data           4  irq.o(.data)
    .data                                    0x20000030   Section       32  mem.o(.data)
    rt_malloc_hook                           0x20000030   Data           4  mem.o(.data)
    rt_free_hook                             0x20000034   Data           4  mem.o(.data)
    heap_ptr                                 0x20000038   Data           4  mem.o(.data)
    heap_end                                 0x2000003c   Data           4  mem.o(.data)
    lfree                                    0x20000040   Data           4  mem.o(.data)
    mem_size_aligned                         0x20000044   Data           4  mem.o(.data)
    used_mem                                 0x20000048   Data           4  mem.o(.data)
    max_mem                                  0x2000004c   Data           4  mem.o(.data)
    .data                                    0x20000050   Section      132  object.o(.data)
    rt_object_attach_hook                    0x20000050   Data           4  object.o(.data)
    rt_object_detach_hook                    0x20000054   Data           4  object.o(.data)
    rt_object_container                      0x20000064   Data         112  object.o(.data)
    .data                                    0x200000d4   Section       24  scheduler.o(.data)
    rt_scheduler_lock_nest                   0x200000d6   Data           2  scheduler.o(.data)
    rt_scheduler_hook                        0x200000e0   Data           4  scheduler.o(.data)
    .data                                    0x200000ec   Section       12  thread.o(.data)
    rt_thread_suspend_hook                   0x200000ec   Data           4  thread.o(.data)
    rt_thread_resume_hook                    0x200000f0   Data           4  thread.o(.data)
    rt_thread_inited_hook                    0x200000f4   Data           4  thread.o(.data)
    .data                                    0x200000f8   Section       28  timer.o(.data)
    random_nr                                0x200000f8   Data           4  timer.o(.data)
    rt_timer_enter_hook                      0x200000fc   Data           4  timer.o(.data)
    rt_timer_exit_hook                       0x20000100   Data           4  timer.o(.data)
    rt_timer_list                            0x20000104   Data           8  timer.o(.data)
    rt_soft_timer_list                       0x2000010c   Data           8  timer.o(.data)
    .data                                    0x20000114   Section        4  cpuport.o(.data)
    rt_exception_hook                        0x20000114   Data           4  cpuport.o(.data)
    .data                                    0x20000118   Section        4  cpuport.o(.data)
    .data                                    0x2000011c   Section        4  cpuport.o(.data)
    .data                                    0x20000120   Section        4  cpuport.o(.data)
    .bss                                     0x20000124   Section      200  usart.o(.bss)
    .bss                                     0x200001ec   Section     4096  board.o(.bss)
    rt_heap                                  0x200001ec   Data        4096  board.o(.bss)
    .bss                                     0x200011ec   Section      400  idle.o(.bss)
    idle                                     0x200011ec   Data         128  idle.o(.bss)
    rt_thread_stack                          0x2000126c   Data         256  idle.o(.bss)
    idle_hook_list                           0x2000136c   Data          16  idle.o(.bss)
    .bss                                     0x2000137c   Section      128  kservice.o(.bss)
    rt_log_buf                               0x2000137c   Data         128  kservice.o(.bss)
    .bss                                     0x200013fc   Section       32  mem.o(.bss)
    heap_sem                                 0x200013fc   Data          32  mem.o(.bss)
    .bss                                     0x2000141c   Section      256  scheduler.o(.bss)
    .bss                                     0x2000151c   Section      640  timer.o(.bss)
    timer_thread                             0x2000151c   Data         128  timer.o(.bss)
    timer_thread_stack                       0x2000159c   Data         512  timer.o(.bss)
    STACK                                    0x200017a0   Section     1024  startup_stm32f103xb.o(STACK)

    Global Symbols

    Symbol Name                              Value     Ov Type        Size  Object(Section)

    BuildAttributes$$THM_ISAv4$P$D$K$B$S$PE$A:L22UL41UL21$X:L11$S22US41US21$IEEE1$IW$USESV6$~STKCKD$USESV7$~SHL$OSPACE$EBA8$MICROLIB$REQ8$PRES8$EABIv2 0x00000000   Number         0  anon$$obj.o ABSOLUTE
    __ARM_use_no_argv                        0x00000000   Number         0  main.o ABSOLUTE
    __cpp_initialize__aeabi_                  - Undefined Weak Reference
    __cxa_finalize                            - Undefined Weak Reference
    __decompress                              - Undefined Weak Reference
    _clock_init                               - Undefined Weak Reference
    _microlib_exit                            - Undefined Weak Reference
    __Vectors_Size                           0x000000ec   Number         0  startup_stm32f103xb.o ABSOLUTE
    __Vectors                                0x08000000   Data           4  startup_stm32f103xb.o(RESET)
    __Vectors_End                            0x080000ec   Data           0  startup_stm32f103xb.o(RESET)
    __main                                   0x080000ed   Thumb Code     0  entry.o(.ARM.Collect$$$$00000000)
    _main_stk                                0x080000ed   Thumb Code     0  entry2.o(.ARM.Collect$$$$00000001)
    _main_scatterload                        0x080000f1   Thumb Code     0  entry5.o(.ARM.Collect$$$$00000004)
    __main_after_scatterload                 0x080000f5   Thumb Code     0  entry5.o(.ARM.Collect$$$$00000004)
    _main_clock                              0x080000f5   Thumb Code     0  entry7b.o(.ARM.Collect$$$$00000008)
    _main_cpp_init                           0x080000f5   Thumb Code     0  entry8b.o(.ARM.Collect$$$$0000000A)
    _main_init                               0x080000f5   Thumb Code     0  entry9a.o(.ARM.Collect$$$$0000000B)
    __rt_final_cpp                           0x080000fd   Thumb Code     0  entry10a.o(.ARM.Collect$$$$0000000D)
    __rt_final_exit                          0x080000fd   Thumb Code     0  entry11a.o(.ARM.Collect$$$$0000000F)
    Reset_Handler                            0x08000101   Thumb Code     8  startup_stm32f103xb.o(.text)
    ADC1_2_IRQHandler                        0x0800011b   Thumb Code     0  startup_stm32f103xb.o(.text)
    CAN1_RX1_IRQHandler                      0x0800011b   Thumb Code     0  startup_stm32f103xb.o(.text)
    CAN1_SCE_IRQHandler                      0x0800011b   Thumb Code     0  startup_stm32f103xb.o(.text)
    DMA1_Channel1_IRQHandler                 0x0800011b   Thumb Code     0  startup_stm32f103xb.o(.text)
    DMA1_Channel2_IRQHandler                 0x0800011b   Thumb Code     0  startup_stm32f103xb.o(.text)
    DMA1_Channel3_IRQHandler                 0x0800011b   Thumb Code     0  startup_stm32f103xb.o(.text)
    DMA1_Channel6_IRQHandler                 0x0800011b   Thumb Code     0  startup_stm32f103xb.o(.text)
    DMA1_Channel7_IRQHandler                 0x0800011b   Thumb Code     0  startup_stm32f103xb.o(.text)
    EXTI0_IRQHandler                         0x0800011b   Thumb Code     0  startup_stm32f103xb.o(.text)
    EXTI1_IRQHandler                         0x0800011b   Thumb Code     0  startup_stm32f103xb.o(.text)
    EXTI2_IRQHandler                         0x0800011b   Thumb Code     0  startup_stm32f103xb.o(.text)
    EXTI3_IRQHandler                         0x0800011b   Thumb Code     0  startup_stm32f103xb.o(.text)
    EXTI4_IRQHandler                         0x0800011b   Thumb Code     0  startup_stm32f103xb.o(.text)
    EXTI9_5_IRQHandler                       0x0800011b   Thumb Code     0  startup_stm32f103xb.o(.text)
    FLASH_IRQHandler                         0x0800011b   Thumb Code     0  startup_stm32f103xb.o(.text)
    I2C1_ER_IRQHandler                       0x0800011b   Thumb Code     0  startup_stm32f103xb.o(.text)
    I2C1_EV_IRQHandler                       0x0800011b   Thumb Code     0  startup_stm32f103xb.o(.text)
    I2C2_ER_IRQHandler                       0x0800011b   Thumb Code     0  startup_stm32f103xb.o(.text)
    I2C2_EV_IRQHandler                       0x0800011b   Thumb Code     0  startup_stm32f103xb.o(.text)
    PVD_IRQHandler                           0x0800011b   Thumb Code     0  startup_stm32f103xb.o(.text)
    RCC_IRQHandler                           0x0800011b   Thumb Code     0  startup_stm32f103xb.o(.text)
    RTC_Alarm_IRQHandler                     0x0800011b   Thumb Code     0  startup_stm32f103xb.o(.text)
    RTC_IRQHandler                           0x0800011b   Thumb Code     0  startup_stm32f103xb.o(.text)
    SPI1_IRQHandler                          0x0800011b   Thumb Code     0  startup_stm32f103xb.o(.text)
    SPI2_IRQHandler                          0x0800011b   Thumb Code     0  startup_stm32f103xb.o(.text)
    TAMPER_IRQHandler                        0x0800011b   Thumb Code     0  startup_stm32f103xb.o(.text)
    TIM1_BRK_IRQHandler                      0x0800011b   Thumb Code     0  startup_stm32f103xb.o(.text)
    TIM1_CC_IRQHandler                       0x0800011b   Thumb Code     0  startup_stm32f103xb.o(.text)
    TIM1_TRG_COM_IRQHandler                  0x0800011b   Thumb Code     0  startup_stm32f103xb.o(.text)
    TIM1_UP_IRQHandler                       0x0800011b   Thumb Code     0  startup_stm32f103xb.o(.text)
    TIM2_IRQHandler                          0x0800011b   Thumb Code     0  startup_stm32f103xb.o(.text)
    TIM3_IRQHandler                          0x0800011b   Thumb Code     0  startup_stm32f103xb.o(.text)
    TIM4_IRQHandler                          0x0800011b   Thumb Code     0  startup_stm32f103xb.o(.text)
    USART2_IRQHandler                        0x0800011b   Thumb Code     0  startup_stm32f103xb.o(.text)
    USART3_IRQHandler                        0x0800011b   Thumb Code     0  startup_stm32f103xb.o(.text)
    USBWakeUp_IRQHandler                     0x0800011b   Thumb Code     0  startup_stm32f103xb.o(.text)
    USB_HP_CAN1_TX_IRQHandler                0x0800011b   Thumb Code     0  startup_stm32f103xb.o(.text)
    USB_LP_CAN1_RX0_IRQHandler               0x0800011b   Thumb Code     0  startup_stm32f103xb.o(.text)
    WWDG_IRQHandler                          0x0800011b   Thumb Code     0  startup_stm32f103xb.o(.text)
    rt_hw_interrupt_disable                  0x08000125   Thumb Code     8  context_rvds.o(.text)
    rt_hw_interrupt_enable                   0x0800012d   Thumb Code     6  context_rvds.o(.text)
    rt_hw_context_switch                     0x08000133   Thumb Code    32  context_rvds.o(.text)
    rt_hw_context_switch_interrupt           0x08000133   Thumb Code     0  context_rvds.o(.text)
    PendSV_Handler                           0x08000153   Thumb Code    60  context_rvds.o(.text)
    rt_hw_context_switch_to                  0x0800018f   Thumb Code    58  context_rvds.o(.text)
    rt_hw_interrupt_thread_switch            0x080001c9   Thumb Code     2  context_rvds.o(.text)
    HardFault_Handler                        0x080001cb   Thumb Code    52  context_rvds.o(.text)
    __aeabi_memset                           0x08000219   Thumb Code    14  memseta.o(.text)
    __aeabi_memset4                          0x08000219   Thumb Code     0  memseta.o(.text)
    __aeabi_memset8                          0x08000219   Thumb Code     0  memseta.o(.text)
    __aeabi_memclr                           0x08000227   Thumb Code     4  memseta.o(.text)
    __aeabi_memclr4                          0x08000227   Thumb Code     0  memseta.o(.text)
    __aeabi_memclr8                          0x08000227   Thumb Code     0  memseta.o(.text)
    _memset$wrapper                          0x0800022b   Thumb Code    18  memseta.o(.text)
    __scatterload                            0x0800023d   Thumb Code    28  init.o(.text)
    __scatterload_rt2                        0x0800023d   Thumb Code     0  init.o(.text)
    main                                     0x08000261   Thumb Code    10  components.o(i.$Sub$$main)
    BusFault_Handler                         0x0800026b   Thumb Code     2  stm32f1xx_it.o(i.BusFault_Handler)
    DMA1_Channel4_IRQHandler                 0x0800026d   Thumb Code     6  stm32f1xx_it.o(i.DMA1_Channel4_IRQHandler)
    DMA1_Channel5_IRQHandler                 0x08000279   Thumb Code     6  stm32f1xx_it.o(i.DMA1_Channel5_IRQHandler)
    DebugMon_Handler                         0x08000285   Thumb Code     2  stm32f1xx_it.o(i.DebugMon_Handler)
    EXTI15_10_IRQHandler                     0x08000287   Thumb Code    22  stm32f1xx_it.o(i.EXTI15_10_IRQHandler)
    Error_Handler                            0x0800029d   Thumb Code     2  main.o(i.Error_Handler)
    HAL_DMA_Abort_IT                         0x080002a1   Thumb Code   148  stm32f1xx_hal_dma.o(i.HAL_DMA_Abort_IT)
    HAL_DMA_IRQHandler                       0x08000339   Thumb Code   316  stm32f1xx_hal_dma.o(i.HAL_DMA_IRQHandler)
    HAL_DMA_Init                             0x0800048d   Thumb Code    84  stm32f1xx_hal_dma.o(i.HAL_DMA_Init)
    HAL_GPIO_EXTI_Callback                   0x080004e9   Thumb Code     2  stm32f1xx_hal_gpio.o(i.HAL_GPIO_EXTI_Callback)
    HAL_GPIO_EXTI_IRQHandler                 0x080004ed   Thumb Code    18  stm32f1xx_hal_gpio.o(i.HAL_GPIO_EXTI_IRQHandler)
    HAL_GPIO_Init                            0x08000505   Thumb Code   446  stm32f1xx_hal_gpio.o(i.HAL_GPIO_Init)
    HAL_GPIO_TogglePin                       0x080006e5   Thumb Code    14  stm32f1xx_hal_gpio.o(i.HAL_GPIO_TogglePin)
    HAL_GPIO_WritePin                        0x080006f3   Thumb Code    10  stm32f1xx_hal_gpio.o(i.HAL_GPIO_WritePin)
    HAL_GetTick                              0x080006fd   Thumb Code     6  stm32f1xx_hal.o(i.HAL_GetTick)
    HAL_Init                                 0x08000709   Thumb Code    32  stm32f1xx_hal.o(i.HAL_Init)
    HAL_InitTick                             0x0800072d   Thumb Code    54  stm32f1xx_hal.o(i.HAL_InitTick)
    HAL_MspInit                              0x0800076d   Thumb Code    52  stm32f1xx_hal_msp.o(i.HAL_MspInit)
    HAL_NVIC_EnableIRQ                       0x080007a9   Thumb Code    26  stm32f1xx_hal_cortex.o(i.HAL_NVIC_EnableIRQ)
    HAL_NVIC_SetPriority                     0x080007c5   Thumb Code    60  stm32f1xx_hal_cortex.o(i.HAL_NVIC_SetPriority)
    HAL_NVIC_SetPriorityGrouping             0x08000805   Thumb Code    26  stm32f1xx_hal_cortex.o(i.HAL_NVIC_SetPriorityGrouping)
    HAL_RCC_ClockConfig                      0x08000829   Thumb Code   280  stm32f1xx_hal_rcc.o(i.HAL_RCC_ClockConfig)
    HAL_RCC_GetPCLK1Freq                     0x08000955   Thumb Code    20  stm32f1xx_hal_rcc.o(i.HAL_RCC_GetPCLK1Freq)
    HAL_RCC_GetPCLK2Freq                     0x08000975   Thumb Code    20  stm32f1xx_hal_rcc.o(i.HAL_RCC_GetPCLK2Freq)
    HAL_RCC_GetSysClockFreq                  0x08000995   Thumb Code    74  stm32f1xx_hal_rcc.o(i.HAL_RCC_GetSysClockFreq)
    HAL_RCC_OscConfig                        0x08000a01   Thumb Code   778  stm32f1xx_hal_rcc.o(i.HAL_RCC_OscConfig)
    HAL_SYSTICK_Config                       0x08000d21   Thumb Code    40  stm32f1xx_hal_cortex.o(i.HAL_SYSTICK_Config)
    HAL_UART_ErrorCallback                   0x08000d49   Thumb Code     2  stm32f1xx_hal_uart.o(i.HAL_UART_ErrorCallback)
    HAL_UART_IRQHandler                      0x08000d4d   Thumb Code   266  stm32f1xx_hal_uart.o(i.HAL_UART_IRQHandler)
    HAL_UART_Init                            0x08000e5d   Thumb Code    98  stm32f1xx_hal_uart.o(i.HAL_UART_Init)
    HAL_UART_MspInit                         0x08000ec1   Thumb Code   198  usart.o(i.HAL_UART_MspInit)
    HAL_UART_RxCpltCallback                  0x08000f9d   Thumb Code     2  stm32f1xx_hal_uart.o(i.HAL_UART_RxCpltCallback)
    HAL_UART_Transmit                        0x08000f9f   Thumb Code   186  stm32f1xx_hal_uart.o(i.HAL_UART_Transmit)
    HAL_UART_TxCpltCallback                  0x08001059   Thumb Code     2  stm32f1xx_hal_uart.o(i.HAL_UART_TxCpltCallback)
    MX_DMA_Init                              0x0800105d   Thumb Code    56  dma.o(i.MX_DMA_Init)
    MX_GPIO_Init                             0x08001099   Thumb Code   154  gpio.o(i.MX_GPIO_Init)
    MX_RT_Thread_Init                        0x08001145   Thumb Code    84  app_rt_thread.o(i.MX_RT_Thread_Init)
    MX_USART1_UART_Init                      0x080011f1   Thumb Code    48  usart.o(i.MX_USART1_UART_Init)
    MemManage_Handler                        0x08001229   Thumb Code     2  stm32f1xx_it.o(i.MemManage_Handler)
    NMI_Handler                              0x0800122b   Thumb Code     2  stm32f1xx_it.o(i.NMI_Handler)
    SVC_Handler                              0x0800122d   Thumb Code     2  stm32f1xx_it.o(i.SVC_Handler)
    SysTick_Handler                          0x0800122f   Thumb Code    18  board.o(i.SysTick_Handler)
    SystemClock_Config                       0x08001241   Thumb Code    78  main.o(i.SystemClock_Config)
    SystemCoreClockUpdate                    0x08001291   Thumb Code    82  system_stm32f1xx.o(i.SystemCoreClockUpdate)
    SystemInit                               0x080012f9   Thumb Code    56  system_stm32f1xx.o(i.SystemInit)
    USART1_IRQHandler                        0x08001585   Thumb Code     6  stm32f1xx_it.o(i.USART1_IRQHandler)
    UsageFault_Handler                       0x08001591   Thumb Code     2  stm32f1xx_it.o(i.UsageFault_Handler)
    __rt_ffs                                 0x080015b5   Thumb Code    62  kservice.o(i.__rt_ffs)
    __scatterload_copy                       0x080015f9   Thumb Code    14  handlers.o(i.__scatterload_copy)
    __scatterload_null                       0x08001607   Thumb Code     2  handlers.o(i.__scatterload_null)
    __scatterload_zeroinit                   0x08001609   Thumb Code    14  handlers.o(i.__scatterload_zeroinit)
    cpu_usage_get                            0x080016e1   Thumb Code    12  cpuusage.o(i.cpu_usage_get)
    cpu_usage_init                           0x0800177d   Thumb Code     6  cpuusage.o(i.cpu_usage_init)
    $Super$$main                             0x080017ed   Thumb Code    30  main.o(i.main)
    main_thread_entry                        0x0800180b   Thumb Code    14  components.o(i.main_thread_entry)
    rt_application_init                      0x080019a1   Thumb Code    32  components.o(i.rt_application_init)
    rt_components_board_init                 0x080019cd   Thumb Code    20  components.o(i.rt_components_board_init)
    rt_components_init                       0x080019e9   Thumb Code    20  components.o(i.rt_components_init)
    rt_enter_critical                        0x08001a05   Thumb Code    22  scheduler.o(i.rt_enter_critical)
    rt_exit_critical                         0x08001a21   Thumb Code    52  scheduler.o(i.rt_exit_critical)
    rt_free                                  0x08001a59   Thumb Code   116  mem.o(i.rt_free)
    rt_heap_begin_get                        0x08001b21   Thumb Code     4  board.o(i.rt_heap_begin_get)
    rt_heap_end_get                          0x08001b29   Thumb Code     4  board.o(i.rt_heap_end_get)
    rt_hw_board_init                         0x08001b31   Thumb Code    70  board.o(i.rt_hw_board_init)
    rt_hw_console_output                     0x08001b81   Thumb Code    58  kservice.o(i.rt_hw_console_output)
    rt_hw_hard_fault_exception               0x08001bc1   Thumb Code   178  cpuport.o(i.rt_hw_hard_fault_exception)
    rt_hw_stack_init                         0x08001db5   Thumb Code    52  cpuport.o(i.rt_hw_stack_init)
    rt_interrupt_enter                       0x08001ded   Thumb Code    32  irq.o(i.rt_interrupt_enter)
    rt_interrupt_leave                       0x08001e11   Thumb Code    32  irq.o(i.rt_interrupt_leave)
    rt_kprintf                               0x08001e99   Thumb Code    28  kservice.o(i.rt_kprintf)
    rt_malloc                                0x08001f15   Thumb Code   244  mem.o(i.rt_malloc)
    rt_memset                                0x08002011   Thumb Code    18  kservice.o(i.rt_memset)
    rt_object_allocate                       0x08002025   Thumb Code    90  object.o(i.rt_object_allocate)
    rt_object_delete                         0x08002085   Thumb Code    48  object.o(i.rt_object_delete)
    rt_object_detach                         0x080020b9   Thumb Code    42  object.o(i.rt_object_detach)
    rt_object_get_information                0x080020e9   Thumb Code    30  object.o(i.rt_object_get_information)
    rt_object_init                           0x0800210d   Thumb Code    90  object.o(i.rt_object_init)
    rt_object_is_systemobject                0x0800216d   Thumb Code    14  object.o(i.rt_object_is_systemobject)
    rt_schedule                              0x0800217d   Thumb Code    88  scheduler.o(i.rt_schedule)
    rt_schedule_insert_thread                0x080021e1   Thumb Code    70  scheduler.o(i.rt_schedule_insert_thread)
    rt_schedule_remove_thread                0x08002231   Thumb Code    64  scheduler.o(i.rt_schedule_remove_thread)
    rt_sem_init                              0x08002279   Thumb Code    36  ipc.o(i.rt_sem_init)
    rt_sem_release                           0x0800229d   Thumb Code    62  ipc.o(i.rt_sem_release)
    rt_sem_take                              0x080022e1   Thumb Code   134  ipc.o(i.rt_sem_take)
    rt_show_version                          0x08002371   Thumb Code    40  kservice.o(i.rt_show_version)
    rt_soft_timer_check                      0x08002421   Thumb Code   128  timer.o(i.rt_soft_timer_check)
    rt_strlen                                0x080024a5   Thumb Code    16  kservice.o(i.rt_strlen)
    rt_strncpy                               0x080024b5   Thumb Code    38  kservice.o(i.rt_strncpy)
    rt_system_heap_init                      0x080024dd   Thumb Code    96  mem.o(i.rt_system_heap_init)
    rt_system_scheduler_init                 0x08002589   Thumb Code    44  scheduler.o(i.rt_system_scheduler_init)
    rt_system_scheduler_start                0x080025bd   Thumb Code    32  scheduler.o(i.rt_system_scheduler_start)
    rt_system_timer_init                     0x080025e5   Thumb Code     8  timer.o(i.rt_system_timer_init)
    rt_system_timer_thread_init              0x080025f1   Thumb Code    46  timer.o(i.rt_system_timer_thread_init)
    rt_thread_create                         0x08002635   Thumb Code    72  thread.o(i.rt_thread_create)
    rt_thread_delay                          0x0800267d   Thumb Code     4  thread.o(i.rt_thread_delay)
    rt_thread_exit                           0x08002681   Thumb Code    78  thread.o(i.rt_thread_exit)
    rt_thread_idle_excute                    0x080026f5   Thumb Code   114  idle.o(i.rt_thread_idle_excute)
    rt_thread_idle_init                      0x0800276d   Thumb Code    40  idle.o(i.rt_thread_idle_init)
    rt_thread_idle_sethook                   0x080027a5   Thumb Code    50  idle.o(i.rt_thread_idle_sethook)
    rt_thread_init                           0x080027dd   Thumb Code    48  thread.o(i.rt_thread_init)
    rt_thread_resume                         0x0800280d   Thumb Code    70  thread.o(i.rt_thread_resume)
    rt_thread_self                           0x08002859   Thumb Code     6  thread.o(i.rt_thread_self)
    rt_thread_sleep                          0x08002865   Thumb Code    60  thread.o(i.rt_thread_sleep)
    rt_thread_startup                        0x080028a5   Thumb Code    40  thread.o(i.rt_thread_startup)
    rt_thread_suspend                        0x080028d1   Thumb Code    76  thread.o(i.rt_thread_suspend)
    rt_thread_timeout                        0x08002921   Thumb Code    32  thread.o(i.rt_thread_timeout)
    rt_thread_yield                          0x08002979   Thumb Code    86  thread.o(i.rt_thread_yield)
    rt_tick_get                              0x080029d9   Thumb Code     6  clock.o(i.rt_tick_get)
    rt_tick_increase                         0x080029e5   Thumb Code    38  clock.o(i.rt_tick_increase)
    rt_timer_check                           0x08002a11   Thumb Code   118  timer.o(i.rt_timer_check)
    rt_timer_control                         0x08002a8d   Thumb Code    48  timer.o(i.rt_timer_control)
    rt_timer_detach                          0x08002abd   Thumb Code    32  timer.o(i.rt_timer_detach)
    rt_timer_init                            0x08002add   Thumb Code    40  timer.o(i.rt_timer_init)
    rt_timer_start                           0x08002b15   Thumb Code   188  timer.o(i.rt_timer_start)
    rt_timer_stop                            0x08002bdd   Thumb Code    56  timer.o(i.rt_timer_stop)
    rt_vsnprintf                             0x08002c19   Thumb Code   626  kservice.o(i.rt_vsnprintf)
    rtthread_startup                         0x08002ea5   Thumb Code    42  components.o(i.rtthread_startup)
    AHBPrescTable                            0x08002ef6   Data          16  system_stm32f1xx.o(.constdata)
    APBPrescTable                            0x08002f06   Data           8  system_stm32f1xx.o(.constdata)
    __lowest_bit_bitmap                      0x08002f0e   Data         256  kservice.o(.constdata)
    __rt_init_rti_start                      0x08003030   Data           4  components.o(.rti_fn.0)
    __rt_init_rti_board_start                0x08003034   Data           4  components.o(.rti_fn.0.end)
    __rt_init_rti_board_end                  0x08003038   Data           4  components.o(.rti_fn.1.end)
    __rt_init_rti_end                        0x0800303c   Data           4  components.o(.rti_fn.6.end)
    Region$$Table$$Base                      0x08003040   Number         0  anon$$obj.o(Region$$Table)
    Region$$Table$$Limit                     0x08003060   Number         0  anon$$obj.o(Region$$Table)
    uwTickFreq                               0x20000010   Data           1  stm32f1xx_hal.o(.data)
    uwTickPrio                               0x20000014   Data           4  stm32f1xx_hal.o(.data)
    uwTick                                   0x20000018   Data           4  stm32f1xx_hal.o(.data)
    SystemCoreClock                          0x2000001c   Data           4  system_stm32f1xx.o(.data)
    rt_interrupt_nest                        0x20000024   Data           1  irq.o(.data)
    rt_object_trytake_hook                   0x20000058   Data           4  object.o(.data)
    rt_object_take_hook                      0x2000005c   Data           4  object.o(.data)
    rt_object_put_hook                       0x20000060   Data           4  object.o(.data)
    rt_current_priority                      0x200000d4   Data           1  scheduler.o(.data)
    rt_current_thread                        0x200000d8   Data           4  scheduler.o(.data)
    rt_thread_ready_priority_group           0x200000dc   Data           4  scheduler.o(.data)
    rt_thread_defunct                        0x200000e4   Data           8  scheduler.o(.data)
    rt_interrupt_from_thread                 0x20000118   Data           4  cpuport.o(.data)
    rt_interrupt_to_thread                   0x2000011c   Data           4  cpuport.o(.data)
    rt_thread_switch_interrupt_flag          0x20000120   Data           4  cpuport.o(.data)
    huart1                                   0x20000124   Data          64  usart.o(.bss)
    hdma_usart1_rx                           0x20000164   Data          68  usart.o(.bss)
    hdma_usart1_tx                           0x200001a8   Data          68  usart.o(.bss)
    rt_thread_priority_table                 0x2000141c   Data         256  scheduler.o(.bss)
    __initial_sp                             0x20001ba0   Data           0  startup_stm32f103xb.o(STACK)



==============================================================================

Memory Map of the image

  Image Entry point : 0x080000ed

  Load Region LR_IROM1 (Base: 0x08000000, Size: 0x00003184, Max: 0x00020000, ABSOLUTE)

    Execution Region ER_IROM1 (Exec base: 0x08000000, Load base: 0x08000000, Size: 0x00003060, Max: 0x00020000, ABSOLUTE)

    Exec Addr    Load Addr    Size         Type   Attr      Idx    E Section Name        Object

    0x08000000   0x08000000   0x000000ec   Data   RO            3    RESET               startup_stm32f103xb.o
    0x080000ec   0x080000ec   0x00000000   Code   RO         3083  * .ARM.Collect$$$$00000000  mc_w.l(entry.o)
    0x080000ec   0x080000ec   0x00000004   Code   RO         3090    .ARM.Collect$$$$00000001  mc_w.l(entry2.o)
    0x080000f0   0x080000f0   0x00000004   Code   RO         3093    .ARM.Collect$$$$00000004  mc_w.l(entry5.o)
    0x080000f4   0x080000f4   0x00000000   Code   RO         3095    .ARM.Collect$$$$00000008  mc_w.l(entry7b.o)
    0x080000f4   0x080000f4   0x00000000   Code   RO         3097    .ARM.Collect$$$$0000000A  mc_w.l(entry8b.o)
    0x080000f4   0x080000f4   0x00000008   Code   RO         3098    .ARM.Collect$$$$0000000B  mc_w.l(entry9a.o)
    0x080000fc   0x080000fc   0x00000000   Code   RO         3100    .ARM.Collect$$$$0000000D  mc_w.l(entry10a.o)
    0x080000fc   0x080000fc   0x00000000   Code   RO         3102    .ARM.Collect$$$$0000000F  mc_w.l(entry11a.o)
    0x080000fc   0x080000fc   0x00000004   Code   RO         3091    .ARM.Collect$$$$00002712  mc_w.l(entry2.o)
    0x08000100   0x08000100   0x00000024   Code   RO            4    .text               startup_stm32f103xb.o
    0x08000124   0x08000124   0x000000f4   Code   RO         1867    .text               context_rvds.o
    0x08000218   0x08000218   0x00000024   Code   RO         3088    .text               mc_w.l(memseta.o)
    0x0800023c   0x0800023c   0x00000024   Code   RO         3104    .text               mc_w.l(init.o)
    0x08000260   0x08000260   0x0000000a   Code   RO         1942    i.$Sub$$main        components.o
    0x0800026a   0x0800026a   0x00000002   Code   RO          301    i.BusFault_Handler  stm32f1xx_it.o
    0x0800026c   0x0800026c   0x0000000c   Code   RO          302    i.DMA1_Channel4_IRQHandler  stm32f1xx_it.o
    0x08000278   0x08000278   0x0000000c   Code   RO          303    i.DMA1_Channel5_IRQHandler  stm32f1xx_it.o
    0x08000284   0x08000284   0x00000002   Code   RO          304    i.DebugMon_Handler  stm32f1xx_it.o
    0x08000286   0x08000286   0x00000016   Code   RO          305    i.EXTI15_10_IRQHandler  stm32f1xx_it.o
    0x0800029c   0x0800029c   0x00000002   Code   RO          165    i.Error_Handler     main.o
    0x0800029e   0x0800029e   0x00000002   PAD
    0x080002a0   0x080002a0   0x00000098   Code   RO          875    i.HAL_DMA_Abort_IT  stm32f1xx_hal_dma.o
    0x08000338   0x08000338   0x00000154   Code   RO          879    i.HAL_DMA_IRQHandler  stm32f1xx_hal_dma.o
    0x0800048c   0x0800048c   0x0000005c   Code   RO          880    i.HAL_DMA_Init      stm32f1xx_hal_dma.o
    0x080004e8   0x080004e8   0x00000002   Code   RO          808    i.HAL_GPIO_EXTI_Callback  stm32f1xx_hal_gpio.o
    0x080004ea   0x080004ea   0x00000002   PAD
    0x080004ec   0x080004ec   0x00000018   Code   RO          809    i.HAL_GPIO_EXTI_IRQHandler  stm32f1xx_hal_gpio.o
    0x08000504   0x08000504   0x000001e0   Code   RO          810    i.HAL_GPIO_Init     stm32f1xx_hal_gpio.o
    0x080006e4   0x080006e4   0x0000000e   Code   RO          813    i.HAL_GPIO_TogglePin  stm32f1xx_hal_gpio.o
    0x080006f2   0x080006f2   0x0000000a   Code   RO          814    i.HAL_GPIO_WritePin  stm32f1xx_hal_gpio.o
    0x080006fc   0x080006fc   0x0000000c   Code   RO          506    i.HAL_GetTick       stm32f1xx_hal.o
    0x08000708   0x08000708   0x00000024   Code   RO          513    i.HAL_Init          stm32f1xx_hal.o
    0x0800072c   0x0800072c   0x00000040   Code   RO          514    i.HAL_InitTick      stm32f1xx_hal.o
    0x0800076c   0x0800076c   0x0000003c   Code   RO          383    i.HAL_MspInit       stm32f1xx_hal_msp.o
    0x080007a8   0x080007a8   0x0000001a   Code   RO          970    i.HAL_NVIC_EnableIRQ  stm32f1xx_hal_cortex.o
    0x080007c2   0x080007c2   0x00000002   PAD
    0x080007c4   0x080007c4   0x00000040   Code   RO          976    i.HAL_NVIC_SetPriority  stm32f1xx_hal_cortex.o
    0x08000804   0x08000804   0x00000024   Code   RO          977    i.HAL_NVIC_SetPriorityGrouping  stm32f1xx_hal_cortex.o
    0x08000828   0x08000828   0x0000012c   Code   RO          670    i.HAL_RCC_ClockConfig  stm32f1xx_hal_rcc.o
    0x08000954   0x08000954   0x00000020   Code   RO          677    i.HAL_RCC_GetPCLK1Freq  stm32f1xx_hal_rcc.o
    0x08000974   0x08000974   0x00000020   Code   RO          678    i.HAL_RCC_GetPCLK2Freq  stm32f1xx_hal_rcc.o
    0x08000994   0x08000994   0x0000006c   Code   RO          679    i.HAL_RCC_GetSysClockFreq  stm32f1xx_hal_rcc.o
    0x08000a00   0x08000a00   0x00000320   Code   RO          682    i.HAL_RCC_OscConfig  stm32f1xx_hal_rcc.o
    0x08000d20   0x08000d20   0x00000028   Code   RO          981    i.HAL_SYSTICK_Config  stm32f1xx_hal_cortex.o
    0x08000d48   0x08000d48   0x00000002   Code   RO         1527    i.HAL_UART_ErrorCallback  stm32f1xx_hal_uart.o
    0x08000d4a   0x08000d4a   0x00000002   PAD
    0x08000d4c   0x08000d4c   0x00000110   Code   RO         1530    i.HAL_UART_IRQHandler  stm32f1xx_hal_uart.o
    0x08000e5c   0x08000e5c   0x00000062   Code   RO         1531    i.HAL_UART_Init     stm32f1xx_hal_uart.o
    0x08000ebe   0x08000ebe   0x00000002   PAD
    0x08000ec0   0x08000ec0   0x000000dc   Code   RO          260    i.HAL_UART_MspInit  usart.o
    0x08000f9c   0x08000f9c   0x00000002   Code   RO         1537    i.HAL_UART_RxCpltCallback  stm32f1xx_hal_uart.o
    0x08000f9e   0x08000f9e   0x000000ba   Code   RO         1539    i.HAL_UART_Transmit  stm32f1xx_hal_uart.o
    0x08001058   0x08001058   0x00000002   Code   RO         1542    i.HAL_UART_TxCpltCallback  stm32f1xx_hal_uart.o
    0x0800105a   0x0800105a   0x00000002   PAD
    0x0800105c   0x0800105c   0x0000003c   Code   RO          235    i.MX_DMA_Init       dma.o
    0x08001098   0x08001098   0x000000ac   Code   RO          211    i.MX_GPIO_Init      gpio.o
    0x08001144   0x08001144   0x000000ac   Code   RO           13    i.MX_RT_Thread_Init  app_rt_thread.o
    0x080011f0   0x080011f0   0x00000038   Code   RO          261    i.MX_USART1_UART_Init  usart.o
    0x08001228   0x08001228   0x00000002   Code   RO          306    i.MemManage_Handler  stm32f1xx_it.o
    0x0800122a   0x0800122a   0x00000002   Code   RO          307    i.NMI_Handler       stm32f1xx_it.o
    0x0800122c   0x0800122c   0x00000002   Code   RO          308    i.SVC_Handler       stm32f1xx_it.o
    0x0800122e   0x0800122e   0x00000012   Code   RO         1871    i.SysTick_Handler   board.o
    0x08001240   0x08001240   0x0000004e   Code   RO          166    i.SystemClock_Config  main.o
    0x0800128e   0x0800128e   0x00000002   PAD
    0x08001290   0x08001290   0x00000068   Code   RO         1832    i.SystemCoreClockUpdate  system_stm32f1xx.o
    0x080012f8   0x080012f8   0x00000048   Code   RO         1833    i.SystemInit        system_stm32f1xx.o
    0x08001340   0x08001340   0x00000010   Code   RO         1544    i.UART_DMAAbortOnError  stm32f1xx_hal_uart.o
    0x08001350   0x08001350   0x0000001c   Code   RO         1554    i.UART_EndRxTransfer  stm32f1xx_hal_uart.o
    0x0800136c   0x0800136c   0x00000096   Code   RO         1556    i.UART_Receive_IT   stm32f1xx_hal_uart.o
    0x08001402   0x08001402   0x00000002   PAD
    0x08001404   0x08001404   0x000000b8   Code   RO         1557    i.UART_SetConfig    stm32f1xx_hal_uart.o
    0x080014bc   0x080014bc   0x00000062   Code   RO         1558    i.UART_Transmit_IT  stm32f1xx_hal_uart.o
    0x0800151e   0x0800151e   0x00000064   Code   RO         1559    i.UART_WaitOnFlagUntilTimeout  stm32f1xx_hal_uart.o
    0x08001582   0x08001582   0x00000002   PAD
    0x08001584   0x08001584   0x0000000c   Code   RO          309    i.USART1_IRQHandler  stm32f1xx_it.o
    0x08001590   0x08001590   0x00000002   Code   RO          310    i.UsageFault_Handler  stm32f1xx_it.o
    0x08001592   0x08001592   0x00000020   Code   RO          983    i.__NVIC_SetPriority  stm32f1xx_hal_cortex.o
    0x080015b2   0x080015b2   0x00000002   PAD
    0x080015b4   0x080015b4   0x00000044   Code   RO         2360    i.__rt_ffs          kservice.o
    0x080015f8   0x080015f8   0x0000000e   Code   RO         3108    i.__scatterload_copy  mc_w.l(handlers.o)
    0x08001606   0x08001606   0x00000002   Code   RO         3109    i.__scatterload_null  mc_w.l(handlers.o)
    0x08001608   0x08001608   0x0000000e   Code   RO         3110    i.__scatterload_zeroinit  mc_w.l(handlers.o)
    0x08001616   0x08001616   0x00000002   PAD
    0x08001618   0x08001618   0x00000014   Code   RO         2009    i._has_defunct_thread  idle.o
    0x0800162c   0x0800162c   0x00000084   Code   RO         2779    i._rt_thread_init   thread.o
    0x080016b0   0x080016b0   0x0000001c   Code   RO         2919    i._rt_timer_init    timer.o
    0x080016cc   0x080016cc   0x00000012   Code   RO         2920    i._rt_timer_remove  timer.o
    0x080016de   0x080016de   0x00000002   PAD
    0x080016e0   0x080016e0   0x00000010   Code   RO          404    i.cpu_usage_get     cpuusage.o
    0x080016f0   0x080016f0   0x0000008c   Code   RO          405    i.cpu_usage_idle_hook  cpuusage.o
    0x0800177c   0x0800177c   0x0000000c   Code   RO          406    i.cpu_usage_init    cpuusage.o
    0x08001788   0x08001788   0x0000003c   Code   RO           14    i.get_cpu_use_thread_entry  app_rt_thread.o
    0x080017c4   0x080017c4   0x00000028   Code   RO           15    i.led1_thread_entry  app_rt_thread.o
    0x080017ec   0x080017ec   0x0000001e   Code   RO          167    i.main              main.o
    0x0800180a   0x0800180a   0x0000000e   Code   RO         1943    i.main_thread_entry  components.o
    0x08001818   0x08001818   0x00000058   Code   RO         2543    i.plug_holes        mem.o
    0x08001870   0x08001870   0x00000130   Code   RO         2362    i.print_number      kservice.o
    0x080019a0   0x080019a0   0x0000002c   Code   RO         1944    i.rt_application_init  components.o
    0x080019cc   0x080019cc   0x0000001c   Code   RO         1945    i.rt_components_board_init  components.o
    0x080019e8   0x080019e8   0x0000001c   Code   RO         1946    i.rt_components_init  components.o
    0x08001a04   0x08001a04   0x0000001c   Code   RO         2712    i.rt_enter_critical  scheduler.o
    0x08001a20   0x08001a20   0x00000038   Code   RO         2713    i.rt_exit_critical  scheduler.o
    0x08001a58   0x08001a58   0x000000c8   Code   RO         2545    i.rt_free           mem.o
    0x08001b20   0x08001b20   0x00000008   Code   RO         1872    i.rt_heap_begin_get  board.o
    0x08001b28   0x08001b28   0x00000008   Code   RO         1873    i.rt_heap_end_get   board.o
    0x08001b30   0x08001b30   0x00000050   Code   RO         1874    i.rt_hw_board_init  board.o
    0x08001b80   0x08001b80   0x00000040   Code   RO         2365    i.rt_hw_console_output  kservice.o
    0x08001bc0   0x08001bc0   0x000001f4   Code   RO         3044    i.rt_hw_hard_fault_exception  cpuport.o
    0x08001db4   0x08001db4   0x00000038   Code   RO         3045    i.rt_hw_stack_init  cpuport.o
    0x08001dec   0x08001dec   0x00000024   Code   RO         2318    i.rt_interrupt_enter  irq.o
    0x08001e10   0x08001e10   0x00000024   Code   RO         2321    i.rt_interrupt_leave  irq.o
    0x08001e34   0x08001e34   0x0000000e   Code   RO         2068    i.rt_ipc_list_resume  ipc.o
    0x08001e42   0x08001e42   0x00000002   PAD
    0x08001e44   0x08001e44   0x00000052   Code   RO         2070    i.rt_ipc_list_suspend  ipc.o
    0x08001e96   0x08001e96   0x00000002   PAD
    0x08001e98   0x08001e98   0x00000020   Code   RO         2366    i.rt_kprintf        kservice.o
    0x08001eb8   0x08001eb8   0x0000000e   Code   RO         2605    i.rt_list_insert_after  object.o
    0x08001ec6   0x08001ec6   0x0000000e   Code   RO         2780    i.rt_list_insert_after  thread.o
    0x08001ed4   0x08001ed4   0x0000000e   Code   RO         2921    i.rt_list_insert_after  timer.o
    0x08001ee2   0x08001ee2   0x0000000e   Code   RO         2071    i.rt_list_insert_before  ipc.o
    0x08001ef0   0x08001ef0   0x00000012   Code   RO         2606    i.rt_list_remove    object.o
    0x08001f02   0x08001f02   0x00000012   Code   RO         2781    i.rt_list_remove    thread.o
    0x08001f14   0x08001f14   0x000000fc   Code   RO         2547    i.rt_malloc         mem.o
    0x08002010   0x08002010   0x00000012   Code   RO         2372    i.rt_memset         kservice.o
    0x08002022   0x08002022   0x00000002   PAD
    0x08002024   0x08002024   0x00000060   Code   RO         2607    i.rt_object_allocate  object.o
    0x08002084   0x08002084   0x00000034   Code   RO         2609    i.rt_object_delete  object.o
    0x080020b8   0x080020b8   0x00000030   Code   RO         2610    i.rt_object_detach  object.o
    0x080020e8   0x080020e8   0x00000024   Code   RO         2613    i.rt_object_get_information  object.o
    0x0800210c   0x0800210c   0x00000060   Code   RO         2615    i.rt_object_init    object.o
    0x0800216c   0x0800216c   0x0000000e   Code   RO         2616    i.rt_object_is_systemobject  object.o
    0x0800217a   0x0800217a   0x00000002   PAD
    0x0800217c   0x0800217c   0x00000064   Code   RO         2714    i.rt_schedule       scheduler.o
    0x080021e0   0x080021e0   0x00000050   Code   RO         2715    i.rt_schedule_insert_thread  scheduler.o
    0x08002230   0x08002230   0x00000048   Code   RO         2716    i.rt_schedule_remove_thread  scheduler.o
    0x08002278   0x08002278   0x00000024   Code   RO         2099    i.rt_sem_init       ipc.o
    0x0800229c   0x0800229c   0x00000044   Code   RO         2100    i.rt_sem_release    ipc.o
    0x080022e0   0x080022e0   0x00000090   Code   RO         2101    i.rt_sem_take       ipc.o
    0x08002370   0x08002370   0x000000b0   Code   RO         2374    i.rt_show_version   kservice.o
    0x08002420   0x08002420   0x00000084   Code   RO         2922    i.rt_soft_timer_check  timer.o
    0x080024a4   0x080024a4   0x00000010   Code   RO         2380    i.rt_strlen         kservice.o
    0x080024b4   0x080024b4   0x00000026   Code   RO         2382    i.rt_strncpy        kservice.o
    0x080024da   0x080024da   0x00000002   PAD
    0x080024dc   0x080024dc   0x000000ac   Code   RO         2551    i.rt_system_heap_init  mem.o
    0x08002588   0x08002588   0x00000034   Code   RO         2718    i.rt_system_scheduler_init  scheduler.o
    0x080025bc   0x080025bc   0x00000028   Code   RO         2719    i.rt_system_scheduler_start  scheduler.o
    0x080025e4   0x080025e4   0x0000000c   Code   RO         2923    i.rt_system_timer_init  timer.o
    0x080025f0   0x080025f0   0x00000044   Code   RO         2924    i.rt_system_timer_thread_init  timer.o
    0x08002634   0x08002634   0x00000048   Code   RO         2783    i.rt_thread_create  thread.o
    0x0800267c   0x0800267c   0x00000004   Code   RO         2784    i.rt_thread_delay   thread.o
    0x08002680   0x08002680   0x00000058   Code   RO         2787    i.rt_thread_exit    thread.o
    0x080026d8   0x080026d8   0x0000001c   Code   RO         2011    i.rt_thread_idle_entry  idle.o
    0x080026f4   0x080026f4   0x00000078   Code   RO         2012    i.rt_thread_idle_excute  idle.o
    0x0800276c   0x0800276c   0x00000038   Code   RO         2014    i.rt_thread_idle_init  idle.o
    0x080027a4   0x080027a4   0x00000038   Code   RO         2015    i.rt_thread_idle_sethook  idle.o
    0x080027dc   0x080027dc   0x00000030   Code   RO         2789    i.rt_thread_init    thread.o
    0x0800280c   0x0800280c   0x0000004c   Code   RO         2792    i.rt_thread_resume  thread.o
    0x08002858   0x08002858   0x0000000c   Code   RO         2794    i.rt_thread_self    thread.o
    0x08002864   0x08002864   0x00000040   Code   RO         2795    i.rt_thread_sleep   thread.o
    0x080028a4   0x080028a4   0x0000002c   Code   RO         2796    i.rt_thread_startup  thread.o
    0x080028d0   0x080028d0   0x00000050   Code   RO         2797    i.rt_thread_suspend  thread.o
    0x08002920   0x08002920   0x00000020   Code   RO         2799    i.rt_thread_timeout  thread.o
    0x08002940   0x08002940   0x00000038   Code   RO         2925    i.rt_thread_timer_entry  timer.o
    0x08002978   0x08002978   0x00000060   Code   RO         2800    i.rt_thread_yield   thread.o
    0x080029d8   0x080029d8   0x0000000c   Code   RO         1906    i.rt_tick_get       clock.o
    0x080029e4   0x080029e4   0x0000002c   Code   RO         1907    i.rt_tick_increase  clock.o
    0x08002a10   0x08002a10   0x0000007c   Code   RO         2926    i.rt_timer_check    timer.o
    0x08002a8c   0x08002a8c   0x00000030   Code   RO         2927    i.rt_timer_control  timer.o
    0x08002abc   0x08002abc   0x00000020   Code   RO         2930    i.rt_timer_detach   timer.o
    0x08002adc   0x08002adc   0x00000028   Code   RO         2933    i.rt_timer_init     timer.o
    0x08002b04   0x08002b04   0x00000010   Code   RO         2934    i.rt_timer_list_next_timeout  timer.o
    0x08002b14   0x08002b14   0x000000c8   Code   RO         2936    i.rt_timer_start    timer.o
    0x08002bdc   0x08002bdc   0x0000003c   Code   RO         2937    i.rt_timer_stop     timer.o
    0x08002c18   0x08002c18   0x0000027c   Code   RO         2385    i.rt_vsnprintf      kservice.o
    0x08002e94   0x08002e94   0x00000004   Code   RO         1947    i.rti_board_end     components.o
    0x08002e98   0x08002e98   0x00000004   Code   RO         1948    i.rti_board_start   components.o
    0x08002e9c   0x08002e9c   0x00000004   Code   RO         1949    i.rti_end           components.o
    0x08002ea0   0x08002ea0   0x00000004   Code   RO         1950    i.rti_start         components.o
    0x08002ea4   0x08002ea4   0x0000002a   Code   RO         1951    i.rtthread_startup  components.o
    0x08002ece   0x08002ece   0x00000028   Code   RO         2387    i.skip_atoi         kservice.o
    0x08002ef6   0x08002ef6   0x00000010   Data   RO         1834    .constdata          system_stm32f1xx.o
    0x08002f06   0x08002f06   0x00000008   Data   RO         1835    .constdata          system_stm32f1xx.o
    0x08002f0e   0x08002f0e   0x00000122   Data   RO         2389    .constdata          kservice.o
    0x08003030   0x08003030   0x00000004   Data   RO         1952    .rti_fn.0           components.o
    0x08003034   0x08003034   0x00000004   Data   RO         1953    .rti_fn.0.end       components.o
    0x08003038   0x08003038   0x00000004   Data   RO         1954    .rti_fn.1.end       components.o
    0x0800303c   0x0800303c   0x00000004   Data   RO         1955    .rti_fn.6.end       components.o
    0x08003040   0x08003040   0x00000020   Data   RO         3106    Region$$Table       anon$$obj.o


    Execution Region RW_IRAM1 (Exec base: 0x20000000, Load base: 0x08003060, Size: 0x00001ba0, Max: 0x00005000, ABSOLUTE)

    Exec Addr    Load Addr    Size         Type   Attr      Idx    E Section Name        Object

    0x20000000   0x08003060   0x00000008   Data   RW           16    .data               app_rt_thread.o
    0x20000008   0x08003068   0x00000008   Data   RW          407    .data               cpuusage.o
    0x20000010   0x08003070   0x0000000c   Data   RW          520    .data               stm32f1xx_hal.o
    0x2000001c   0x0800307c   0x00000004   Data   RW         1836    .data               system_stm32f1xx.o
    0x20000020   0x08003080   0x00000004   Data   RW         1909    .data               clock.o
    0x20000024   0x08003084   0x0000000c   Data   RW         2323    .data               irq.o
    0x20000030   0x08003090   0x00000020   Data   RW         2553    .data               mem.o
    0x20000050   0x080030b0   0x00000084   Data   RW         2621    .data               object.o
    0x200000d4   0x08003134   0x00000018   Data   RW         2721    .data               scheduler.o
    0x200000ec   0x0800314c   0x0000000c   Data   RW         2801    .data               thread.o
    0x200000f8   0x08003158   0x0000001c   Data   RW         2939    .data               timer.o
    0x20000114   0x08003174   0x00000004   Data   RW         3046    .data               cpuport.o
    0x20000118   0x08003178   0x00000004   Data   RW         3047    .data               cpuport.o
    0x2000011c   0x0800317c   0x00000004   Data   RW         3048    .data               cpuport.o
    0x20000120   0x08003180   0x00000004   Data   RW         3049    .data               cpuport.o
    0x20000124        -       0x000000c8   Zero   RW          262    .bss                usart.o
    0x200001ec        -       0x00001000   Zero   RW         1875    .bss                board.o
    0x200011ec        -       0x00000190   Zero   RW         2016    .bss                idle.o
    0x2000137c        -       0x00000080   Zero   RW         2388    .bss                kservice.o
    0x200013fc        -       0x00000020   Zero   RW         2552    .bss                mem.o
    0x2000141c        -       0x00000100   Zero   RW         2720    .bss                scheduler.o
    0x2000151c        -       0x00000280   Zero   RW         2938    .bss                timer.o
    0x2000179c   0x08003184   0x00000004   PAD
    0x200017a0        -       0x00000400   Zero   RW            1    STACK               startup_stm32f103xb.o


==============================================================================

Image component sizes


      Code (inc. data)   RO Data    RW Data    ZI Data      Debug   Object Name

       272        120          0          8          0     399948   app_rt_thread.o
       114         18          0          0       4096       3409   board.o
        56         12          0          4          0       1381   clock.o
       182         28         16          0          0       6570   components.o
       244         26          0          0          0        876   context_rvds.o
       556        326          0         16          0       3526   cpuport.o
       168         16          0          8          0       7917   cpuusage.o
        60          4          0          0          0        746   dma.o
       172         18          0          0          0        935   gpio.o
       280         36          0          0        400       6967   idle.o
       358         16          0          0          0       7994   ipc.o
        72          8          0         12          0       1970   irq.o
      1392        166        290          0        128      10915   kservice.o
       110          0          0          0          0       1756   main.o
       712        174          0         32         32       4392   mem.o
       374         28          0        132          0       9524   object.o
       428         56          0         24        256       8878   scheduler.o
        36          8        236          0       1024        804   startup_stm32f103xb.o
       112         20          0         12          0       4815   stm32f1xx_hal.o
       198         14          0          0          0      28947   stm32f1xx_hal_cortex.o
       584         36          0          0          0       2723   stm32f1xx_hal_dma.o
       530         40          0          0          0       4601   stm32f1xx_hal_gpio.o
        60          8          0          0          0        846   stm32f1xx_hal_msp.o
      1272        100          0          0          0       5196   stm32f1xx_hal_rcc.o
      1138         12          0          0          0       9087   stm32f1xx_hal_uart.o
        70         18          0          0          0       4308   stm32f1xx_it.o
       176         38         24          4          0       1787   system_stm32f1xx.o
       780         58          0         12          0      13300   thread.o
       848         58          0         28        640      13863   timer.o
       276         30          0          0        200       1836   usart.o

    ----------------------------------------------------------------------
     11662       1492        598        292       6780     569817   Object Totals
         0          0         32          0          0          0   (incl. Generated)
        32          0          0          0          4          0   (incl. Padding)

    ----------------------------------------------------------------------

      Code (inc. data)   RO Data    RW Data    ZI Data      Debug   Library Member Name

         0          0          0          0          0          0   entry.o
         0          0          0          0          0          0   entry10a.o
         0          0          0          0          0          0   entry11a.o
         8          4          0          0          0          0   entry2.o
         4          0          0          0          0          0   entry5.o
         0          0          0          0          0          0   entry7b.o
         0          0          0          0          0          0   entry8b.o
         8          4          0          0          0          0   entry9a.o
        30          0          0          0          0          0   handlers.o
        36          8          0          0          0         68   init.o
        36          0          0          0          0        108   memseta.o

    ----------------------------------------------------------------------
       124         16          0          0          0        176   Library Totals
         2          0          0          0          0          0   (incl. Padding)

    ----------------------------------------------------------------------

      Code (inc. data)   RO Data    RW Data    ZI Data      Debug   Library Name

       122         16          0          0          0        176   mc_w.l

    ----------------------------------------------------------------------
       124         16          0          0          0        176   Library Totals

    ----------------------------------------------------------------------

==============================================================================


      Code (inc. data)   RO Data    RW Data    ZI Data      Debug   

     11786       1508        598        292       6780     562709   Grand Totals
     11786       1508        598        292       6780     562709   ELF Image Totals
     11786       1508        598        292          0          0   ROM Totals

==============================================================================

    Total RO  Size (Code + RO Data)                12384 (  12.09kB)
    Total RW  Size (RW Data + ZI Data)              7072 (   6.91kB)
    Total ROM Size (Code + RO Data + RW Data)      12676 (  12.38kB)

==============================================================================

