Component: ARM Compiler 5.06 update 6 (build 750) Tool: armlink [4d35ed]

==============================================================================

Section Cross References

    startup_stm32f103xb.o(RESET) refers to startup_stm32f103xb.o(STACK) for __initial_sp
    startup_stm32f103xb.o(RESET) refers to startup_stm32f103xb.o(.text) for Reset_Handler
    startup_stm32f103xb.o(RESET) refers to stm32f1xx_it.o(i.NMI_Handler) for NMI_Handler
    startup_stm32f103xb.o(RESET) refers to context_rvds.o(.text) for HardFault_Handler
    startup_stm32f103xb.o(RESET) refers to stm32f1xx_it.o(i.MemManage_Handler) for MemManage_Handler
    startup_stm32f103xb.o(RESET) refers to stm32f1xx_it.o(i.BusFault_Handler) for BusFault_Handler
    startup_stm32f103xb.o(RESET) refers to stm32f1xx_it.o(i.UsageFault_Handler) for UsageFault_Handler
    startup_stm32f103xb.o(RESET) refers to stm32f1xx_it.o(i.SVC_Handler) for SVC_Handler
    startup_stm32f103xb.o(RESET) refers to stm32f1xx_it.o(i.DebugMon_Handler) for DebugMon_Handler
    startup_stm32f103xb.o(RESET) refers to board.o(i.SysTick_Handler) for SysTick_Handler
    startup_stm32f103xb.o(.text) refers to system_stm32f1xx.o(i.SystemInit) for SystemInit
    startup_stm32f103xb.o(.text) refers to entry.o(.ARM.Collect$$$$00000000) for __main
    main.o(i.SystemClock_Config) refers to memseta.o(.text) for __aeabi_memclr4
    main.o(i.SystemClock_Config) refers to stm32f1xx_hal_rcc.o(i.HAL_RCC_OscConfig) for HAL_RCC_OscConfig
    main.o(i.SystemClock_Config) refers to stm32f1xx_hal_rcc.o(i.HAL_RCC_ClockConfig) for HAL_RCC_ClockConfig
    main.o(i.main) refers to stm32f1xx_hal.o(i.HAL_Init) for HAL_Init
    main.o(i.main) refers to main.o(i.SystemClock_Config) for SystemClock_Config
    main.o(i.main) refers to gpio.o(i.MX_GPIO_Init) for MX_GPIO_Init
==============================================================================

Removing Unused input sections from the image.

    Removing startup_stm32f103xb.o(HEAP), (512 bytes).
    Removing main.o(.rev16_text), (4 bytes).
    Removing main.o(.revsh_text), (4 bytes).
    Removing main.o(.rrx_text), (6 bytes).
    Removing gpio.o(.rev16_text), (4 bytes).
    Removing gpio.o(.revsh_text), (4 bytes).
    Removing gpio.o(.rrx_text), (6 bytes).
    Removing usart.o(.rev16_text), (4 bytes).
    Removing usart.o(.revsh_text), (4 bytes).
    Removing usart.o(.rrx_text), (6 bytes).
    Removing usart.o(i.HAL_UART_MspDeInit), (44 bytes).
    Removing stm32f1xx_it.o(.rev16_text), (4 bytes).
    Removing stm32f1xx_it.o(.revsh_text), (4 bytes).
    Removing stm32f1xx_it.o(.rrx_text), (6 bytes).
    Removing stm32f1xx_hal_msp.o(.rev16_text), (4 bytes).
    Removing stm32f1xx_hal_msp.o(.revsh_text), (4 bytes).
    Removing stm32f1xx_hal_msp.o(.rrx_text), (6 bytes).
    Removing app_rt_thread.o(.rev16_text), (4 bytes).
==============================================================================

Image Symbol Table

    Local Symbols

    Symbol Name                              Value     Ov Type        Size  Object(Section)

    ../Drivers/STM32F1xx_HAL_Driver/Src/stm32f1xx_hal.c 0x00000000   Number         0  stm32f1xx_hal.o ABSOLUTE
    ../Drivers/STM32F1xx_HAL_Driver/Src/stm32f1xx_hal_cortex.c 0x00000000   Number         0  stm32f1xx_hal_cortex.o ABSOLUTE
    ../Drivers/STM32F1xx_HAL_Driver/Src/stm32f1xx_hal_dma.c 0x00000000   Number         0  stm32f1xx_hal_dma.o ABSOLUTE
    ../Drivers/STM32F1xx_HAL_Driver/Src/stm32f1xx_hal_exti.c 0x00000000   Number         0  stm32f1xx_hal_exti.o ABSOLUTE
    ../Drivers/STM32F1xx_HAL_Driver/Src/stm32f1xx_hal_flash.c 0x00000000   Number         0  stm32f1xx_hal_flash.o ABSOLUTE
    ../Drivers/STM32F1xx_HAL_Driver/Src/stm32f1xx_hal_flash_ex.c 0x00000000   Number         0  stm32f1xx_hal_flash_ex.o ABSOLUTE
    ../Drivers/STM32F1xx_HAL_Driver/Src/stm32f1xx_hal_gpio.c 0x00000000   Number         0  stm32f1xx_hal_gpio.o ABSOLUTE
    ../Drivers/STM32F1xx_HAL_Driver/Src/stm32f1xx_hal_gpio_ex.c 0x00000000   Number         0  stm32f1xx_hal_gpio_ex.o ABSOLUTE
    ../Drivers/STM32F1xx_HAL_Driver/Src/stm32f1xx_hal_pwr.c 0x00000000   Number         0  stm32f1xx_hal_pwr.o ABSOLUTE
    ../Drivers/STM32F1xx_HAL_Driver/Src/stm32f1xx_hal_rcc.c 0x00000000   Number         0  stm32f1xx_hal_rcc.o ABSOLUTE
    ../Drivers/STM32F1xx_HAL_Driver/Src/stm32f1xx_hal_rcc_ex.c 0x00000000   Number         0  stm32f1xx_hal_rcc_ex.o ABSOLUTE
    ../Drivers/STM32F1xx_HAL_Driver/Src/stm32f1xx_hal_tim.c 0x00000000   Number         0  stm32f1xx_hal_tim.o ABSOLUTE
    ../Drivers/STM32F1xx_HAL_Driver/Src/stm32f1xx_hal_tim_ex.c 0x00000000   Number         0  stm32f1xx_hal_tim_ex.o ABSOLUTE
    ../Drivers/STM32F1xx_HAL_Driver/Src/stm32f1xx_hal_uart.c 0x00000000   Number         0  stm32f1xx_hal_uart.o ABSOLUTE
    ../Middlewares/Third_Party/RealThread_RTOS_RT-Thread/bsp/board.c 0x00000000   Number         0  board.o ABSOLUTE
    ../Middlewares/Third_Party/RealThread_RTOS_RT-Thread/libcpu/arm/cortex-m3/context_rvds.S 0x00000000   Number         0  context_rvds.o ABSOLUTE
    ../Middlewares/Third_Party/RealThread_RTOS_RT-Thread/libcpu/arm/cortex-m3/cpuport.c 0x00000000   Number         0  cpuport.o ABSOLUTE
    ../Middlewares/Third_Party/RealThread_RTOS_RT-Thread/src/clock.c 0x00000000   Number         0  clock.o ABSOLUTE
    ../Middlewares/Third_Party/RealThread_RTOS_RT-Thread/src/components.c 0x00000000   Number         0  components.o ABSOLUTE
    ../Middlewares/Third_Party/RealThread_RTOS_RT-Thread/src/idle.c 0x00000000   Number         0  idle.o ABSOLUTE
    ../Middlewares/Third_Party/RealThread_RTOS_RT-Thread/src/ipc.c 0x00000000   Number         0  ipc.o ABSOLUTE
    ../Middlewares/Third_Party/RealThread_RTOS_RT-Thread/src/irq.c 0x00000000   Number         0  irq.o ABSOLUTE
    ../Middlewares/Third_Party/RealThread_RTOS_RT-Thread/src/kservice.c 0x00000000   Number         0  kservice.o ABSOLUTE
    ../Middlewares/Third_Party/RealThread_RTOS_RT-Thread/src/mem.c 0x00000000   Number         0  mem.o ABSOLUTE
    ../Middlewares/Third_Party/RealThread_RTOS_RT-Thread/src/object.c 0x00000000   Number         0  object.o ABSOLUTE
    ../Middlewares/Third_Party/RealThread_RTOS_RT-Thread/src/scheduler.c 0x00000000   Number         0  scheduler.o ABSOLUTE
    ../Middlewares/Third_Party/RealThread_RTOS_RT-Thread/src/thread.c 0x00000000   Number         0  thread.o ABSOLUTE
    ../Middlewares/Third_Party/RealThread_RTOS_RT-Thread/src/timer.c 0x00000000   Number         0  timer.o ABSOLUTE
    ../Src/gpio.c                            0x00000000   Number         0  gpio.o ABSOLUTE
    ../Src/main.c                            0x00000000   Number         0  main.o ABSOLUTE
    ../Src/stm32f1xx_hal_msp.c               0x00000000   Number         0  stm32f1xx_hal_msp.o ABSOLUTE
    ../Src/stm32f1xx_it.c                    0x00000000   Number         0  stm32f1xx_it.o ABSOLUTE
    ../Src/system_stm32f1xx.c                0x00000000   Number         0  system_stm32f1xx.o ABSOLUTE
    ../Src/usart.c                           0x00000000   Number         0  usart.o ABSOLUTE
    ../clib/microlib/init/entry.s            0x00000000   Number         0  entry.o ABSOLUTE
    ../clib/microlib/init/entry.s            0x00000000   Number         0  entry10a.o ABSOLUTE
    ../clib/microlib/init/entry.s            0x00000000   Number         0  entry9b.o ABSOLUTE
    ../clib/microlib/init/entry.s            0x00000000   Number         0  entry2.o ABSOLUTE
    ../clib/microlib/init/entry.s            0x00000000   Number         0  entry8b.o ABSOLUTE
    ../clib/microlib/init/entry.s            0x00000000   Number         0  entry7b.o ABSOLUTE
    ../clib/microlib/init/entry.s            0x00000000   Number         0  entry9a.o ABSOLUTE
    ../clib/microlib/init/entry.s            0x00000000   Number         0  entry5.o ABSOLUTE
    ../clib/microlib/init/entry.s            0x00000000   Number         0  entry7a.o ABSOLUTE
    ../clib/microlib/init/entry.s            0x00000000   Number         0  entry8a.o ABSOLUTE
    ../clib/microlib/init/entry.s            0x00000000   Number         0  entry10b.o ABSOLUTE
    ../clib/microlib/init/entry.s            0x00000000   Number         0  entry11a.o ABSOLUTE
    ../clib/microlib/init/entry.s            0x00000000   Number         0  entry11b.o ABSOLUTE
    ../clib/microlib/longlong.c              0x00000000   Number         0  llushr.o ABSOLUTE
    ../clib/microlib/string/memset.c         0x00000000   Number         0  memseta.o ABSOLUTE
    ..\Drivers\STM32F1xx_HAL_Driver\Src\stm32f1xx_hal.c 0x00000000   Number         0  stm32f1xx_hal.o ABSOLUTE
    ..\Drivers\STM32F1xx_HAL_Driver\Src\stm32f1xx_hal_cortex.c 0x00000000   Number         0  stm32f1xx_hal_cortex.o ABSOLUTE
    ..\Drivers\STM32F1xx_HAL_Driver\Src\stm32f1xx_hal_dma.c 0x00000000   Number         0  stm32f1xx_hal_dma.o ABSOLUTE
    ..\Drivers\STM32F1xx_HAL_Driver\Src\stm32f1xx_hal_exti.c 0x00000000   Number         0  stm32f1xx_hal_exti.o ABSOLUTE
    ..\Drivers\STM32F1xx_HAL_Driver\Src\stm32f1xx_hal_flash.c 0x00000000   Number         0  stm32f1xx_hal_flash.o ABSOLUTE
    ..\Drivers\STM32F1xx_HAL_Driver\Src\stm32f1xx_hal_flash_ex.c 0x00000000   Number         0  stm32f1xx_hal_flash_ex.o ABSOLUTE
    ..\Drivers\STM32F1xx_HAL_Driver\Src\stm32f1xx_hal_gpio.c 0x00000000   Number         0  stm32f1xx_hal_gpio.o ABSOLUTE
    ..\Drivers\STM32F1xx_HAL_Driver\Src\stm32f1xx_hal_gpio_ex.c 0x00000000   Number         0  stm32f1xx_hal_gpio_ex.o ABSOLUTE
    ..\Drivers\STM32F1xx_HAL_Driver\Src\stm32f1xx_hal_pwr.c 0x00000000   Number         0  stm32f1xx_hal_pwr.o ABSOLUTE
    ..\Drivers\STM32F1xx_HAL_Driver\Src\stm32f1xx_hal_rcc.c 0x00000000   Number         0  stm32f1xx_hal_rcc.o ABSOLUTE
    ..\Drivers\STM32F1xx_HAL_Driver\Src\stm32f1xx_hal_rcc_ex.c 0x00000000   Number         0  stm32f1xx_hal_rcc_ex.o ABSOLUTE
    ..\Drivers\STM32F1xx_HAL_Driver\Src\stm32f1xx_hal_tim.c 0x00000000   Number         0  stm32f1xx_hal_tim.o ABSOLUTE
    ..\Drivers\STM32F1xx_HAL_Driver\Src\stm32f1xx_hal_tim_ex.c 0x00000000   Number         0  stm32f1xx_hal_tim_ex.o ABSOLUTE
    ..\Drivers\STM32F1xx_HAL_Driver\Src\stm32f1xx_hal_uart.c 0x00000000   Number         0  stm32f1xx_hal_uart.o ABSOLUTE
    ..\Middlewares\Third_Party\RealThread_RTOS_RT-Thread\src\kservice.c 0x00000000   Number         0  kservice.o ABSOLUTE
    ..\Src\app_rt_thread.c                   0x00000000   Number         0  app_rt_thread.o ABSOLUTE
    ..\Src\gpio.c                            0x00000000   Number         0  gpio.o ABSOLUTE
    ..\Src\main.c                            0x00000000   Number         0  main.o ABSOLUTE
    ..\Src\stm32f1xx_hal_msp.c               0x00000000   Number         0  stm32f1xx_hal_msp.o ABSOLUTE
    ..\Src\stm32f1xx_it.c                    0x00000000   Number         0  stm32f1xx_it.o ABSOLUTE
    ..\Src\system_stm32f1xx.c                0x00000000   Number         0  system_stm32f1xx.o ABSOLUTE
    ..\Src\usart.c                           0x00000000   Number         0  usart.o ABSOLUTE
    ..\\Src\\app_rt_thread.c                 0x00000000   Number         0  app_rt_thread.o ABSOLUTE
    dc.s                                     0x00000000   Number         0  dc.o ABSOLUTE
    handlers.s                               0x00000000   Number         0  handlers.o ABSOLUTE
    init.s                                   0x00000000   Number         0  init.o ABSOLUTE
    startup_stm32f103xb.s                    0x00000000   Number         0  startup_stm32f103xb.o ABSOLUTE
    RESET                                    0x08000000   Section      236  startup_stm32f103xb.o(RESET)
    .ARM.Collect$$$$00000000                 0x080000ec   Section        0  entry.o(.ARM.Collect$$$$00000000)
    .ARM.Collect$$$$00000001                 0x080000ec   Section        4  entry2.o(.ARM.Collect$$$$00000001)
    .ARM.Collect$$$$00000004                 0x080000f0   Section        4  entry5.o(.ARM.Collect$$$$00000004)
    .ARM.Collect$$$$00000008                 0x080000f4   Section        0  entry7b.o(.ARM.Collect$$$$00000008)
    .ARM.Collect$$$$0000000A                 0x080000f4   Section        0  entry8b.o(.ARM.Collect$$$$0000000A)
    .ARM.Collect$$$$0000000B                 0x080000f4   Section        8  entry9a.o(.ARM.Collect$$$$0000000B)
    .ARM.Collect$$$$0000000D                 0x080000fc   Section        0  entry10a.o(.ARM.Collect$$$$0000000D)
    .ARM.Collect$$$$0000000F                 0x080000fc   Section        0  entry11a.o(.ARM.Collect$$$$0000000F)
    .ARM.Collect$$$$00002712                 0x080000fc   Section        4  entry2.o(.ARM.Collect$$$$00002712)
    __lit__00000000                          0x080000fc   Data           4  entry2.o(.ARM.Collect$$$$00002712)
    .text                                    0x08000100   Section       36  startup_stm32f103xb.o(.text)
    .text                                    0x08000124   Section      244  context_rvds.o(.text)
    .text                                    0x08000218   Section        0  memseta.o(.text)
    .text                                    0x0800023c   Section       36  init.o(.text)
    i.$Sub$$main                             0x08000260   Section        0  components.o(i.$Sub$$main)
    i.BusFault_Handler                       0x0800026a   Section        0  stm32f1xx_it.o(i.BusFault_Handler)
    i.DebugMon_Handler                       0x0800026c   Section        0  stm32f1xx_it.o(i.DebugMon_Handler)
    i.Error_Handler                          0x0800026e   Section        0  main.o(i.Error_Handler)
    i.HAL_GPIO_Init                          0x08000270   Section        0  stm32f1xx_hal_gpio.o(i.HAL_GPIO_Init)
    i.HAL_GPIO_ReadPin                       0x08000450   Section        0  stm32f1xx_hal_gpio.o(i.HAL_GPIO_ReadPin)
    i.HAL_GPIO_TogglePin                     0x0800045a   Section        0  stm32f1xx_hal_gpio.o(i.HAL_GPIO_TogglePin)
    i.HAL_GPIO_WritePin                      0x08000468   Section        0  stm32f1xx_hal_gpio.o(i.HAL_GPIO_WritePin)
    i.HAL_GetTick                            0x08000474   Section        0  stm32f1xx_hal.o(i.HAL_GetTick)
    i.HAL_Init                               0x08000480   Section        0  stm32f1xx_hal.o(i.HAL_Init)
    i.HAL_InitTick                           0x080004a4   Section        0  stm32f1xx_hal.o(i.HAL_InitTick)
    i.HAL_MspInit                            0x080004e4   Section        0  stm32f1xx_hal_msp.o(i.HAL_MspInit)
    i.HAL_NVIC_SetPriority                   0x08000520   Section        0  stm32f1xx_hal_cortex.o(i.HAL_NVIC_SetPriority)
    i.HAL_NVIC_SetPriorityGrouping           0x08000560   Section        0  stm32f1xx_hal_cortex.o(i.HAL_NVIC_SetPriorityGrouping)
    i.HAL_RCC_ClockConfig                    0x08000584   Section        0  stm32f1xx_hal_rcc.o(i.HAL_RCC_ClockConfig)
    i.HAL_RCC_GetPCLK1Freq                   0x080006b0   Section        0  stm32f1xx_hal_rcc.o(i.HAL_RCC_GetPCLK1Freq)
    i.HAL_RCC_GetPCLK2Freq                   0x080006d0   Section        0  stm32f1xx_hal_rcc.o(i.HAL_RCC_GetPCLK2Freq)
    i.HAL_RCC_GetSysClockFreq                0x080006f0   Section        0  stm32f1xx_hal_rcc.o(i.HAL_RCC_GetSysClockFreq)
    i.HAL_RCC_OscConfig                      0x0800075c   Section        0  stm32f1xx_hal_rcc.o(i.HAL_RCC_OscConfig)
    i.HAL_SYSTICK_Config                     0x08000a7c   Section        0  stm32f1xx_hal_cortex.o(i.HAL_SYSTICK_Config)
    i.HAL_UART_Init                          0x08000aa4   Section        0  stm32f1xx_hal_uart.o(i.HAL_UART_Init)
    i.HAL_UART_MspInit                       0x08000b08   Section        0  usart.o(i.HAL_UART_MspInit)
    i.HAL_UART_Transmit                      0x08000b78   Section        0  stm32f1xx_hal_uart.o(i.HAL_UART_Transmit)
    i.MX_GPIO_Init                           0x08000c34   Section        0  gpio.o(i.MX_GPIO_Init)
    i.MX_RT_Thread_Init                      0x08000cd0   Section        0  app_rt_thread.o(i.MX_RT_Thread_Init)
    i.MX_USART1_UART_Init                    0x08000de0   Section        0  usart.o(i.MX_USART1_UART_Init)
    i.MemManage_Handler                      0x08000e18   Section        0  stm32f1xx_it.o(i.MemManage_Handler)
    i.NMI_Handler                            0x08000e1a   Section        0  stm32f1xx_it.o(i.NMI_Handler)
    i.SVC_Handler                            0x08000e1c   Section        0  stm32f1xx_it.o(i.SVC_Handler)
    i.SysTick_Handler                        0x08000e1e   Section        0  board.o(i.SysTick_Handler)
    i.SystemClock_Config                     0x08000e30   Section        0  main.o(i.SystemClock_Config)
    i.SystemCoreClockUpdate                  0x08000e80   Section        0  system_stm32f1xx.o(i.SystemCoreClockUpdate)
    i.SystemInit                             0x08000ee8   Section        0  system_stm32f1xx.o(i.SystemInit)
    i.UART_SetConfig                         0x08000f30   Section        0  stm32f1xx_hal_uart.o(i.UART_SetConfig)
    UART_SetConfig                           0x08000f31   Thumb Code   178  stm32f1xx_hal_uart.o(i.UART_SetConfig)
    i.UART_WaitOnFlagUntilTimeout            0x08000fe8   Section        0  stm32f1xx_hal_uart.o(i.UART_WaitOnFlagUntilTimeout)
    UART_WaitOnFlagUntilTimeout              0x08000fe9   Thumb Code   100  stm32f1xx_hal_uart.o(i.UART_WaitOnFlagUntilTimeout)
    i.UsageFault_Handler                     0x0800104c   Section        0  stm32f1xx_it.o(i.UsageFault_Handler)
    i.__NVIC_SetPriority                     0x0800104e   Section        0  stm32f1xx_hal_cortex.o(i.__NVIC_SetPriority)
    __NVIC_SetPriority                       0x0800104f   Thumb Code    32  stm32f1xx_hal_cortex.o(i.__NVIC_SetPriority)
    i.__rt_ffs                               0x08001070   Section        0  kservice.o(i.__rt_ffs)
    i.__scatterload_copy                     0x080010b4   Section       14  handlers.o(i.__scatterload_copy)
    i.__scatterload_null                     0x080010c2   Section        2  handlers.o(i.__scatterload_null)
    i.__scatterload_zeroinit                 0x080010c4   Section       14  handlers.o(i.__scatterload_zeroinit)
    i._has_defunct_thread                    0x080010d4   Section        0  idle.o(i._has_defunct_thread)
    _has_defunct_thread                      0x080010d5   Thumb Code    16  idle.o(i._has_defunct_thread)
    i._rt_thread_init                        0x080010e8   Section        0  thread.o(i._rt_thread_init)
    _rt_thread_init                          0x080010e9   Thumb Code   108  thread.o(i._rt_thread_init)
    i._rt_timer_init                         0x0800115c   Section        0  timer.o(i._rt_timer_init)
    _rt_timer_init                           0x0800115d   Thumb Code    28  timer.o(i._rt_timer_init)
    i._rt_timer_remove                       0x08001178   Section        0  timer.o(i._rt_timer_remove)
    _rt_timer_remove                         0x08001179   Thumb Code    18  timer.o(i._rt_timer_remove)
    i.main                                   0x0800118a   Section        0  main.o(i.main)
    i.main_thread_entry                      0x080011a0   Section        0  components.o(i.main_thread_entry)
    i.plug_holes                             0x080011b0   Section        0  mem.o(i.plug_holes)
    plug_holes                               0x080011b1   Thumb Code    80  mem.o(i.plug_holes)
    i.print_number                           0x08001204   Section        0  kservice.o(i.print_number)
    print_number                             0x08001205   Thumb Code   300  kservice.o(i.print_number)
    i.receive_thread_entry                   0x08001334   Section        0  app_rt_thread.o(i.receive_thread_entry)
    receive_thread_entry                     0x08001335   Thumb Code    54  app_rt_thread.o(i.receive_thread_entry)
    i.rt_application_init                    0x080013c8   Section        0  components.o(i.rt_application_init)
    i.rt_components_board_init               0x080013f4   Section        0  components.o(i.rt_components_board_init)
    i.rt_components_init                     0x08001410   Section        0  components.o(i.rt_components_init)
    i.rt_enter_critical                      0x0800142c   Section        0  scheduler.o(i.rt_enter_critical)
    i.rt_exit_critical                       0x08001448   Section        0  scheduler.o(i.rt_exit_critical)
    i.rt_free                                0x08001480   Section        0  mem.o(i.rt_free)
    i.rt_heap_begin_get                      0x08001544   Section        0  board.o(i.rt_heap_begin_get)
    i.rt_heap_end_get                        0x0800154c   Section        0  board.o(i.rt_heap_end_get)
    i.rt_hw_board_init                       0x08001554   Section        0  board.o(i.rt_hw_board_init)
    i.rt_hw_console_output                   0x080015a4   Section        0  kservice.o(i.rt_hw_console_output)
    i.rt_hw_hard_fault_exception             0x080015e4   Section        0  cpuport.o(i.rt_hw_hard_fault_exception)
    i.rt_hw_stack_init                       0x080017d8   Section        0  cpuport.o(i.rt_hw_stack_init)
    i.rt_interrupt_enter                     0x08001810   Section        0  irq.o(i.rt_interrupt_enter)
    i.rt_interrupt_leave                     0x0800182c   Section        0  irq.o(i.rt_interrupt_leave)
    i.rt_ipc_list_resume                     0x08001848   Section        0  ipc.o(i.rt_ipc_list_resume)
    rt_ipc_list_resume                       0x08001849   Thumb Code    14  ipc.o(i.rt_ipc_list_resume)
    i.rt_ipc_list_suspend                    0x08001858   Section        0  ipc.o(i.rt_ipc_list_suspend)
    rt_ipc_list_suspend                      0x08001859   Thumb Code    82  ipc.o(i.rt_ipc_list_suspend)
    i.rt_kprintf                             0x080018ac   Section        0  kservice.o(i.rt_kprintf)
    i.rt_list_insert_after                   0x080018cc   Section        0  object.o(i.rt_list_insert_after)
    rt_list_insert_after                     0x080018cd   Thumb Code    14  object.o(i.rt_list_insert_after)
    i.rt_list_insert_after                   0x080018da   Section        0  thread.o(i.rt_list_insert_after)
    rt_list_insert_after                     0x080018db   Thumb Code    14  thread.o(i.rt_list_insert_after)
    i.rt_list_insert_after                   0x080018e8   Section        0  timer.o(i.rt_list_insert_after)
    rt_list_insert_after                     0x080018e9   Thumb Code    14  timer.o(i.rt_list_insert_after)
    i.rt_list_insert_before                  0x080018f6   Section        0  ipc.o(i.rt_list_insert_before)
    rt_list_insert_before                    0x080018f7   Thumb Code    14  ipc.o(i.rt_list_insert_before)
    i.rt_list_remove                         0x08001904   Section        0  object.o(i.rt_list_remove)
    rt_list_remove                           0x08001905   Thumb Code    18  object.o(i.rt_list_remove)
    i.rt_list_remove                         0x08001916   Section        0  thread.o(i.rt_list_remove)
    rt_list_remove                           0x08001917   Thumb Code    18  thread.o(i.rt_list_remove)
    i.rt_malloc                              0x08001928   Section        0  mem.o(i.rt_malloc)
    i.rt_mb_create                           0x08001a18   Section        0  ipc.o(i.rt_mb_create)
    i.rt_mb_recv                             0x08001a60   Section        0  ipc.o(i.rt_mb_recv)
    i.rt_mb_send                             0x08001b54   Section        0  ipc.o(i.rt_mb_send)
    i.rt_mb_send_wait                        0x08001b5a   Section        0  ipc.o(i.rt_mb_send_wait)
    i.rt_memset                              0x08001c44   Section        0  kservice.o(i.rt_memset)
    i.rt_object_allocate                     0x08001c8a   Section        0  object.o(i.rt_object_allocate)
    i.rt_object_delete                       0x08001cda   Section        0  object.o(i.rt_object_delete)
    i.rt_object_detach                       0x08001d00   Section        0  object.o(i.rt_object_detach)
    i.rt_object_get_information              0x08001d20   Section        0  object.o(i.rt_object_get_information)
    i.rt_object_init                         0x08001d44   Section        0  object.o(i.rt_object_init)
    i.rt_object_is_systemobject              0x08001d94   Section        0  object.o(i.rt_object_is_systemobject)
    i.rt_schedule                            0x08001da4   Section        0  scheduler.o(i.rt_schedule)
    i.rt_schedule_insert_thread              0x08001dfc   Section        0  scheduler.o(i.rt_schedule_insert_thread)
    i.rt_schedule_remove_thread              0x08001e4c   Section        0  scheduler.o(i.rt_schedule_remove_thread)
    i.rt_sem_init                            0x08001e94   Section        0  ipc.o(i.rt_sem_init)
    i.rt_sem_release                         0x08001eb8   Section        0  ipc.o(i.rt_sem_release)
    i.rt_sem_take                            0x08001eec   Section        0  ipc.o(i.rt_sem_take)
    i.rt_show_version                        0x08001f5c   Section        0  kservice.o(i.rt_show_version)
    i.rt_soft_timer_check                    0x0800200c   Section        0  timer.o(i.rt_soft_timer_check)
    i.rt_strlen                              0x0800207c   Section        0  kservice.o(i.rt_strlen)
    i.rt_strncpy                             0x0800208c   Section        0  kservice.o(i.rt_strncpy)
    i.rt_system_heap_init                    0x080020b4   Section        0  mem.o(i.rt_system_heap_init)
    i.rt_system_scheduler_init               0x08002160   Section        0  scheduler.o(i.rt_system_scheduler_init)
    i.rt_system_scheduler_start              0x08002194   Section        0  scheduler.o(i.rt_system_scheduler_start)
    i.rt_system_timer_init                   0x080021bc   Section        0  timer.o(i.rt_system_timer_init)
    i.rt_system_timer_thread_init            0x080021c8   Section        0  timer.o(i.rt_system_timer_thread_init)
    i.rt_thread_create                       0x0800220c   Section        0  thread.o(i.rt_thread_create)
    i.rt_thread_delay                        0x08002254   Section        0  thread.o(i.rt_thread_delay)
    i.rt_thread_exit                         0x08002258   Section        0  thread.o(i.rt_thread_exit)
    i.rt_thread_idle_entry                   0x080022b0   Section        0  idle.o(i.rt_thread_idle_entry)
    rt_thread_idle_entry                     0x080022b1   Thumb Code     6  idle.o(i.rt_thread_idle_entry)
    i.rt_thread_idle_excute                  0x080022b8   Section        0  idle.o(i.rt_thread_idle_excute)
    i.rt_thread_idle_init                    0x08002330   Section        0  idle.o(i.rt_thread_idle_init)
    i.rt_thread_init                         0x08002368   Section        0  thread.o(i.rt_thread_init)
    i.rt_thread_resume                       0x08002398   Section        0  thread.o(i.rt_thread_resume)
    i.rt_thread_self                         0x080023d4   Section        0  thread.o(i.rt_thread_self)
    i.rt_thread_sleep                        0x080023e0   Section        0  thread.o(i.rt_thread_sleep)
    i.rt_thread_startup                      0x08002420   Section        0  thread.o(i.rt_thread_startup)
    i.rt_thread_suspend                      0x0800244c   Section        0  thread.o(i.rt_thread_suspend)
    i.rt_thread_timeout                      0x0800248e   Section        0  thread.o(i.rt_thread_timeout)
    i.rt_thread_timer_entry                  0x080024b0   Section        0  timer.o(i.rt_thread_timer_entry)
    rt_thread_timer_entry                    0x080024b1   Thumb Code    50  timer.o(i.rt_thread_timer_entry)
    i.rt_thread_yield                        0x080024e8   Section        0  thread.o(i.rt_thread_yield)
    i.rt_tick_get                            0x08002548   Section        0  clock.o(i.rt_tick_get)
    i.rt_tick_increase                       0x08002554   Section        0  clock.o(i.rt_tick_increase)
    i.rt_timer_check                         0x08002580   Section        0  timer.o(i.rt_timer_check)
    i.rt_timer_control                       0x080025e8   Section        0  timer.o(i.rt_timer_control)
    i.rt_timer_detach                        0x08002618   Section        0  timer.o(i.rt_timer_detach)
    i.rt_timer_init                          0x08002638   Section        0  timer.o(i.rt_timer_init)
    i.rt_timer_list_next_timeout             0x08002660   Section        0  timer.o(i.rt_timer_list_next_timeout)
    rt_timer_list_next_timeout               0x08002661   Thumb Code    16  timer.o(i.rt_timer_list_next_timeout)
    i.rt_timer_start                         0x08002670   Section        0  timer.o(i.rt_timer_start)
    i.rt_timer_stop                          0x0800272c   Section        0  timer.o(i.rt_timer_stop)
    i.rt_vsnprintf                           0x0800275c   Section        0  kservice.o(i.rt_vsnprintf)
    i.rti_board_end                          0x080029d8   Section        0  components.o(i.rti_board_end)
    rti_board_end                            0x080029d9   Thumb Code     4  components.o(i.rti_board_end)
    i.rti_board_start                        0x080029dc   Section        0  components.o(i.rti_board_start)
    rti_board_start                          0x080029dd   Thumb Code     4  components.o(i.rti_board_start)
    i.rti_end                                0x080029e0   Section        0  components.o(i.rti_end)
    rti_end                                  0x080029e1   Thumb Code     4  components.o(i.rti_end)
    i.rti_start                              0x080029e4   Section        0  components.o(i.rti_start)
    rti_start                                0x080029e5   Thumb Code     4  components.o(i.rti_start)
    i.rtthread_startup                       0x080029e8   Section        0  components.o(i.rtthread_startup)
    i.send_thread_entry                      0x08002a14   Section        0  app_rt_thread.o(i.send_thread_entry)
    send_thread_entry                        0x08002a15   Thumb Code   104  app_rt_thread.o(i.send_thread_entry)
    i.skip_atoi                              0x08002b00   Section        0  kservice.o(i.skip_atoi)
    skip_atoi                                0x08002b01   Thumb Code    40  kservice.o(i.skip_atoi)
    .constdata                               0x08002b28   Section       16  system_stm32f1xx.o(.constdata)
    .constdata                               0x08002b38   Section        8  system_stm32f1xx.o(.constdata)
    .constdata                               0x08002b40   Section      290  kservice.o(.constdata)
    small_digits                             0x08002c40   Data          17  kservice.o(.constdata)
    large_digits                             0x08002c51   Data          17  kservice.o(.constdata)
    .rti_fn.0                                0x08002c64   Section        4  components.o(.rti_fn.0)
    __tagsym$$used                           0x08002c64   Number         0  components.o(.rti_fn.0)
    .rti_fn.0.end                            0x08002c68   Section        4  components.o(.rti_fn.0.end)
    __tagsym$$used                           0x08002c68   Number         0  components.o(.rti_fn.0.end)
    .rti_fn.1.end                            0x08002c6c   Section        4  components.o(.rti_fn.1.end)
    __tagsym$$used                           0x08002c6c   Number         0  components.o(.rti_fn.1.end)
    .rti_fn.6.end                            0x08002c70   Section        4  components.o(.rti_fn.6.end)
    __tagsym$$used                           0x08002c70   Number         0  components.o(.rti_fn.6.end)
    .data                                    0x20000000   Section       56  app_rt_thread.o(.data)
    receive_thread                           0x20000000   Data           4  app_rt_thread.o(.data)
    send_thread                              0x20000004   Data           4  app_rt_thread.o(.data)
    test_mail                                0x20000008   Data           4  app_rt_thread.o(.data)
    .data                                    0x20000038   Section       12  stm32f1xx_hal.o(.data)
    .data                                    0x20000044   Section        4  system_stm32f1xx.o(.data)
    .data                                    0x20000048   Section        4  clock.o(.data)
    rt_tick                                  0x20000048   Data           4  clock.o(.data)
    .data                                    0x2000004c   Section        1  irq.o(.data)
    .data                                    0x20000050   Section       24  mem.o(.data)
    heap_ptr                                 0x20000050   Data           4  mem.o(.data)
    heap_end                                 0x20000054   Data           4  mem.o(.data)
    lfree                                    0x20000058   Data           4  mem.o(.data)
    mem_size_aligned                         0x2000005c   Data           4  mem.o(.data)
    used_mem                                 0x20000060   Data           4  mem.o(.data)
    max_mem                                  0x20000064   Data           4  mem.o(.data)
    .data                                    0x20000068   Section      112  object.o(.data)
    rt_object_container                      0x20000068   Data         112  object.o(.data)
    .data                                    0x200000d8   Section       20  scheduler.o(.data)
    rt_scheduler_lock_nest                   0x200000da   Data           2  scheduler.o(.data)
    .data                                    0x200000ec   Section       20  timer.o(.data)
    random_nr                                0x200000ec   Data           4  timer.o(.data)
    rt_timer_list                            0x200000f0   Data           8  timer.o(.data)
    rt_soft_timer_list                       0x200000f8   Data           8  timer.o(.data)
    .data                                    0x20000100   Section        4  cpuport.o(.data)
    rt_exception_hook                        0x20000100   Data           4  cpuport.o(.data)
    .data                                    0x20000104   Section        4  cpuport.o(.data)
    .data                                    0x20000108   Section        4  cpuport.o(.data)
    .data                                    0x2000010c   Section        4  cpuport.o(.data)
    .bss                                     0x20000110   Section       64  usart.o(.bss)
    .bss                                     0x20000150   Section     4096  board.o(.bss)
    rt_heap                                  0x20000150   Data        4096  board.o(.bss)
    .bss                                     0x20001150   Section      384  idle.o(.bss)
    idle                                     0x20001150   Data         128  idle.o(.bss)
    rt_thread_stack                          0x200011d0   Data         256  idle.o(.bss)
    .bss                                     0x200012d0   Section      128  kservice.o(.bss)
    rt_log_buf                               0x200012d0   Data         128  kservice.o(.bss)
    .bss                                     0x20001350   Section       32  mem.o(.bss)
    heap_sem                                 0x20001350   Data          32  mem.o(.bss)
    .bss                                     0x20001370   Section      256  scheduler.o(.bss)
    .bss                                     0x20001470   Section      640  timer.o(.bss)
    timer_thread                             0x20001470   Data         128  timer.o(.bss)
    timer_thread_stack                       0x200014f0   Data         512  timer.o(.bss)
    STACK                                    0x200016f0   Section     1024  startup_stm32f103xb.o(STACK)

    Global Symbols

    Symbol Name                              Value     Ov Type        Size  Object(Section)

    BuildAttributes$$THM_ISAv4$P$D$K$B$S$PE$A:L22UL41UL21$X:L11$S22US41US21$IEEE1$IW$USESV6$~STKCKD$USESV7$~SHL$OSPACE$EBA8$MICROLIB$REQ8$PRES8$EABIv2 0x00000000   Number         0  anon$$obj.o ABSOLUTE
    __ARM_use_no_argv                        0x00000000   Number         0  main.o ABSOLUTE
    __cpp_initialize__aeabi_                  - Undefined Weak Reference
    __cxa_finalize                            - Undefined Weak Reference
    __decompress                              - Undefined Weak Reference
    _clock_init                               - Undefined Weak Reference
    _microlib_exit                            - Undefined Weak Reference
    __Vectors_Size                           0x000000ec   Number         0  startup_stm32f103xb.o ABSOLUTE
    __Vectors                                0x08000000   Data           4  startup_stm32f103xb.o(RESET)
    __Vectors_End                            0x080000ec   Data           0  startup_stm32f103xb.o(RESET)
    __main                                   0x080000ed   Thumb Code     0  entry.o(.ARM.Collect$$$$00000000)
    _main_stk                                0x080000ed   Thumb Code     0  entry2.o(.ARM.Collect$$$$00000001)
    _main_scatterload                        0x080000f1   Thumb Code     0  entry5.o(.ARM.Collect$$$$00000004)
    __main_after_scatterload                 0x080000f5   Thumb Code     0  entry5.o(.ARM.Collect$$$$00000004)
    _main_clock                              0x080000f5   Thumb Code     0  entry7b.o(.ARM.Collect$$$$00000008)
    _main_cpp_init                           0x080000f5   Thumb Code     0  entry8b.o(.ARM.Collect$$$$0000000A)
    _main_init                               0x080000f5   Thumb Code     0  entry9a.o(.ARM.Collect$$$$0000000B)
    __rt_final_cpp                           0x080000fd   Thumb Code     0  entry10a.o(.ARM.Collect$$$$0000000D)
    __rt_final_exit                          0x080000fd   Thumb Code     0  entry11a.o(.ARM.Collect$$$$0000000F)
    Reset_Handler                            0x08000101   Thumb Code     8  startup_stm32f103xb.o(.text)
    ADC1_2_IRQHandler                        0x0800011b   Thumb Code     0  startup_stm32f103xb.o(.text)
    CAN1_RX1_IRQHandler                      0x0800011b   Thumb Code     0  startup_stm32f103xb.o(.text)
    CAN1_SCE_IRQHandler                      0x0800011b   Thumb Code     0  startup_stm32f103xb.o(.text)
    DMA1_Channel1_IRQHandler                 0x0800011b   Thumb Code     0  startup_stm32f103xb.o(.text)
    DMA1_Channel2_IRQHandler                 0x0800011b   Thumb Code     0  startup_stm32f103xb.o(.text)
    DMA1_Channel3_IRQHandler                 0x0800011b   Thumb Code     0  startup_stm32f103xb.o(.text)
    DMA1_Channel4_IRQHandler                 0x0800011b   Thumb Code     0  startup_stm32f103xb.o(.text)
    DMA1_Channel5_IRQHandler                 0x0800011b   Thumb Code     0  startup_stm32f103xb.o(.text)
    DMA1_Channel6_IRQHandler                 0x0800011b   Thumb Code     0  startup_stm32f103xb.o(.text)
    DMA1_Channel7_IRQHandler                 0x0800011b   Thumb Code     0  startup_stm32f103xb.o(.text)
    EXTI0_IRQHandler                         0x0800011b   Thumb Code     0  startup_stm32f103xb.o(.text)
    EXTI15_10_IRQHandler                     0x0800011b   Thumb Code     0  startup_stm32f103xb.o(.text)
    EXTI1_IRQHandler                         0x0800011b   Thumb Code     0  startup_stm32f103xb.o(.text)
    EXTI2_IRQHandler                         0x0800011b   Thumb Code     0  startup_stm32f103xb.o(.text)
    EXTI3_IRQHandler                         0x0800011b   Thumb Code     0  startup_stm32f103xb.o(.text)
    EXTI4_IRQHandler                         0x0800011b   Thumb Code     0  startup_stm32f103xb.o(.text)
    EXTI9_5_IRQHandler                       0x0800011b   Thumb Code     0  startup_stm32f103xb.o(.text)
    FLASH_IRQHandler                         0x0800011b   Thumb Code     0  startup_stm32f103xb.o(.text)
    I2C1_ER_IRQHandler                       0x0800011b   Thumb Code     0  startup_stm32f103xb.o(.text)
    I2C1_EV_IRQHandler                       0x0800011b   Thumb Code     0  startup_stm32f103xb.o(.text)
    I2C2_ER_IRQHandler                       0x0800011b   Thumb Code     0  startup_stm32f103xb.o(.text)
    I2C2_EV_IRQHandler                       0x0800011b   Thumb Code     0  startup_stm32f103xb.o(.text)
    PVD_IRQHandler                           0x0800011b   Thumb Code     0  startup_stm32f103xb.o(.text)
    RCC_IRQHandler                           0x0800011b   Thumb Code     0  startup_stm32f103xb.o(.text)
    RTC_Alarm_IRQHandler                     0x0800011b   Thumb Code     0  startup_stm32f103xb.o(.text)
    RTC_IRQHandler                           0x0800011b   Thumb Code     0  startup_stm32f103xb.o(.text)
    SPI1_IRQHandler                          0x0800011b   Thumb Code     0  startup_stm32f103xb.o(.text)
    SPI2_IRQHandler                          0x0800011b   Thumb Code     0  startup_stm32f103xb.o(.text)
    TAMPER_IRQHandler                        0x0800011b   Thumb Code     0  startup_stm32f103xb.o(.text)
    TIM1_BRK_IRQHandler                      0x0800011b   Thumb Code     0  startup_stm32f103xb.o(.text)
    TIM1_CC_IRQHandler                       0x0800011b   Thumb Code     0  startup_stm32f103xb.o(.text)
    TIM1_TRG_COM_IRQHandler                  0x0800011b   Thumb Code     0  startup_stm32f103xb.o(.text)
    TIM1_UP_IRQHandler                       0x0800011b   Thumb Code     0  startup_stm32f103xb.o(.text)
    TIM2_IRQHandler                          0x0800011b   Thumb Code     0  startup_stm32f103xb.o(.text)
    TIM3_IRQHandler                          0x0800011b   Thumb Code     0  startup_stm32f103xb.o(.text)
    TIM4_IRQHandler                          0x0800011b   Thumb Code     0  startup_stm32f103xb.o(.text)
    USART1_IRQHandler                        0x0800011b   Thumb Code     0  startup_stm32f103xb.o(.text)
    USART2_IRQHandler                        0x0800011b   Thumb Code     0  startup_stm32f103xb.o(.text)
    USART3_IRQHandler                        0x0800011b   Thumb Code     0  startup_stm32f103xb.o(.text)
    USBWakeUp_IRQHandler                     0x0800011b   Thumb Code     0  startup_stm32f103xb.o(.text)
    USB_HP_CAN1_TX_IRQHandler                0x0800011b   Thumb Code     0  startup_stm32f103xb.o(.text)
    USB_LP_CAN1_RX0_IRQHandler               0x0800011b   Thumb Code     0  startup_stm32f103xb.o(.text)
    WWDG_IRQHandler                          0x0800011b   Thumb Code     0  startup_stm32f103xb.o(.text)
    rt_hw_interrupt_disable                  0x08000125   Thumb Code     8  context_rvds.o(.text)
    rt_hw_interrupt_enable                   0x0800012d   Thumb Code     6  context_rvds.o(.text)
    rt_hw_context_switch                     0x08000133   Thumb Code    32  context_rvds.o(.text)
    rt_hw_context_switch_interrupt           0x08000133   Thumb Code     0  context_rvds.o(.text)
    PendSV_Handler                           0x08000153   Thumb Code    60  context_rvds.o(.text)
    rt_hw_context_switch_to                  0x0800018f   Thumb Code    58  context_rvds.o(.text)
    rt_hw_interrupt_thread_switch            0x080001c9   Thumb Code     2  context_rvds.o(.text)
    HardFault_Handler                        0x080001cb   Thumb Code    52  context_rvds.o(.text)
    __aeabi_memset                           0x08000219   Thumb Code    14  memseta.o(.text)
    __aeabi_memset4                          0x08000219   Thumb Code     0  memseta.o(.text)
    __aeabi_memset8                          0x08000219   Thumb Code     0  memseta.o(.text)
    __aeabi_memclr                           0x08000227   Thumb Code     4  memseta.o(.text)
    __aeabi_memclr4                          0x08000227   Thumb Code     0  memseta.o(.text)
    __aeabi_memclr8                          0x08000227   Thumb Code     0  memseta.o(.text)
    _memset$wrapper                          0x0800022b   Thumb Code    18  memseta.o(.text)
    __scatterload                            0x0800023d   Thumb Code    28  init.o(.text)
    __scatterload_rt2                        0x0800023d   Thumb Code     0  init.o(.text)
    main                                     0x08000261   Thumb Code    10  components.o(i.$Sub$$main)
    BusFault_Handler                         0x0800026b   Thumb Code     2  stm32f1xx_it.o(i.BusFault_Handler)
    DebugMon_Handler                         0x0800026d   Thumb Code     2  stm32f1xx_it.o(i.DebugMon_Handler)
    Error_Handler                            0x0800026f   Thumb Code     2  main.o(i.Error_Handler)
    HAL_GPIO_Init                            0x08000271   Thumb Code   446  stm32f1xx_hal_gpio.o(i.HAL_GPIO_Init)
    HAL_GPIO_ReadPin                         0x08000451   Thumb Code    10  stm32f1xx_hal_gpio.o(i.HAL_GPIO_ReadPin)
    HAL_GPIO_TogglePin                       0x0800045b   Thumb Code    14  stm32f1xx_hal_gpio.o(i.HAL_GPIO_TogglePin)
    HAL_GPIO_WritePin                        0x08000469   Thumb Code    10  stm32f1xx_hal_gpio.o(i.HAL_GPIO_WritePin)
    HAL_GetTick                              0x08000475   Thumb Code     6  stm32f1xx_hal.o(i.HAL_GetTick)
    HAL_Init                                 0x08000481   Thumb Code    32  stm32f1xx_hal.o(i.HAL_Init)
    HAL_InitTick                             0x080004a5   Thumb Code    54  stm32f1xx_hal.o(i.HAL_InitTick)
    HAL_MspInit                              0x080004e5   Thumb Code    52  stm32f1xx_hal_msp.o(i.HAL_MspInit)
    HAL_NVIC_SetPriority                     0x08000521   Thumb Code    60  stm32f1xx_hal_cortex.o(i.HAL_NVIC_SetPriority)
    HAL_NVIC_SetPriorityGrouping             0x08000561   Thumb Code    26  stm32f1xx_hal_cortex.o(i.HAL_NVIC_SetPriorityGrouping)
    HAL_RCC_ClockConfig                      0x08000585   Thumb Code   280  stm32f1xx_hal_rcc.o(i.HAL_RCC_ClockConfig)
    HAL_RCC_GetPCLK1Freq                     0x080006b1   Thumb Code    20  stm32f1xx_hal_rcc.o(i.HAL_RCC_GetPCLK1Freq)
    HAL_RCC_GetPCLK2Freq                     0x080006d1   Thumb Code    20  stm32f1xx_hal_rcc.o(i.HAL_RCC_GetPCLK2Freq)
    HAL_RCC_GetSysClockFreq                  0x080006f1   Thumb Code    74  stm32f1xx_hal_rcc.o(i.HAL_RCC_GetSysClockFreq)
    HAL_RCC_OscConfig                        0x0800075d   Thumb Code   778  stm32f1xx_hal_rcc.o(i.HAL_RCC_OscConfig)
    HAL_SYSTICK_Config                       0x08000a7d   Thumb Code    40  stm32f1xx_hal_cortex.o(i.HAL_SYSTICK_Config)
    HAL_UART_Init                            0x08000aa5   Thumb Code    98  stm32f1xx_hal_uart.o(i.HAL_UART_Init)
    HAL_UART_MspInit                         0x08000b09   Thumb Code   100  usart.o(i.HAL_UART_MspInit)
    HAL_UART_Transmit                        0x08000b79   Thumb Code   186  stm32f1xx_hal_uart.o(i.HAL_UART_Transmit)
    MX_GPIO_Init                             0x08000c35   Thumb Code   140  gpio.o(i.MX_GPIO_Init)
    MX_RT_Thread_Init                        0x08000cd1   Thumb Code   110  app_rt_thread.o(i.MX_RT_Thread_Init)
    MX_USART1_UART_Init                      0x08000de1   Thumb Code    48  usart.o(i.MX_USART1_UART_Init)
    MemManage_Handler                        0x08000e19   Thumb Code     2  stm32f1xx_it.o(i.MemManage_Handler)
    NMI_Handler                              0x08000e1b   Thumb Code     2  stm32f1xx_it.o(i.NMI_Handler)
    SVC_Handler                              0x08000e1d   Thumb Code     2  stm32f1xx_it.o(i.SVC_Handler)
    SysTick_Handler                          0x08000e1f   Thumb Code    18  board.o(i.SysTick_Handler)
    SystemClock_Config                       0x08000e31   Thumb Code    78  main.o(i.SystemClock_Config)
    SystemCoreClockUpdate                    0x08000e81   Thumb Code    82  system_stm32f1xx.o(i.SystemCoreClockUpdate)
    SystemInit                               0x08000ee9   Thumb Code    56  system_stm32f1xx.o(i.SystemInit)
    UsageFault_Handler                       0x0800104d   Thumb Code     2  stm32f1xx_it.o(i.UsageFault_Handler)
    __rt_ffs                                 0x08001071   Thumb Code    62  kservice.o(i.__rt_ffs)
    __scatterload_copy                       0x080010b5   Thumb Code    14  handlers.o(i.__scatterload_copy)
    __scatterload_null                       0x080010c3   Thumb Code     2  handlers.o(i.__scatterload_null)
    __scatterload_zeroinit                   0x080010c5   Thumb Code    14  handlers.o(i.__scatterload_zeroinit)
    $Super$$main                             0x0800118b   Thumb Code    22  main.o(i.main)
    main_thread_entry                        0x080011a1   Thumb Code    14  components.o(i.main_thread_entry)
    rt_application_init                      0x080013c9   Thumb Code    32  components.o(i.rt_application_init)
    rt_components_board_init                 0x080013f5   Thumb Code    20  components.o(i.rt_components_board_init)
    rt_components_init                       0x08001411   Thumb Code    20  components.o(i.rt_components_init)
    rt_enter_critical                        0x0800142d   Thumb Code    22  scheduler.o(i.rt_enter_critical)
    rt_exit_critical                         0x08001449   Thumb Code    52  scheduler.o(i.rt_exit_critical)
    rt_free                                  0x08001481   Thumb Code   112  mem.o(i.rt_free)
    rt_heap_begin_get                        0x08001545   Thumb Code     4  board.o(i.rt_heap_begin_get)
    rt_heap_end_get                          0x0800154d   Thumb Code     4  board.o(i.rt_heap_end_get)
    rt_hw_board_init                         0x08001555   Thumb Code    70  board.o(i.rt_hw_board_init)
    rt_hw_console_output                     0x080015a5   Thumb Code    58  kservice.o(i.rt_hw_console_output)
    rt_hw_hard_fault_exception               0x080015e5   Thumb Code   178  cpuport.o(i.rt_hw_hard_fault_exception)
    rt_hw_stack_init                         0x080017d9   Thumb Code    52  cpuport.o(i.rt_hw_stack_init)
    rt_interrupt_enter                       0x08001811   Thumb Code    22  irq.o(i.rt_interrupt_enter)
    rt_interrupt_leave                       0x0800182d   Thumb Code    22  irq.o(i.rt_interrupt_leave)
    rt_kprintf                               0x080018ad   Thumb Code    28  kservice.o(i.rt_kprintf)
    rt_malloc                                0x08001929   Thumb Code   232  mem.o(i.rt_malloc)
    rt_mb_create                             0x08001a19   Thumb Code    72  ipc.o(i.rt_mb_create)
    rt_mb_recv                               0x08001a61   Thumb Code   244  ipc.o(i.rt_mb_recv)
    rt_mb_send                               0x08001b55   Thumb Code     6  ipc.o(i.rt_mb_send)
    rt_mb_send_wait                          0x08001b5b   Thumb Code   234  ipc.o(i.rt_mb_send_wait)
    rt_memset                                0x08001c45   Thumb Code    70  kservice.o(i.rt_memset)
    rt_object_allocate                       0x08001c8b   Thumb Code    80  object.o(i.rt_object_allocate)
    rt_object_delete                         0x08001cdb   Thumb Code    38  object.o(i.rt_object_delete)
    rt_object_detach                         0x08001d01   Thumb Code    32  object.o(i.rt_object_detach)
    rt_object_get_information                0x08001d21   Thumb Code    30  object.o(i.rt_object_get_information)
    rt_object_init                           0x08001d45   Thumb Code    80  object.o(i.rt_object_init)
    rt_object_is_systemobject                0x08001d95   Thumb Code    14  object.o(i.rt_object_is_systemobject)
    rt_schedule                              0x08001da5   Thumb Code    76  scheduler.o(i.rt_schedule)
    rt_schedule_insert_thread                0x08001dfd   Thumb Code    70  scheduler.o(i.rt_schedule_insert_thread)
    rt_schedule_remove_thread                0x08001e4d   Thumb Code    64  scheduler.o(i.rt_schedule_remove_thread)
    rt_sem_init                              0x08001e95   Thumb Code    36  ipc.o(i.rt_sem_init)
    rt_sem_release                           0x08001eb9   Thumb Code    52  ipc.o(i.rt_sem_release)
    rt_sem_take                              0x08001eed   Thumb Code   110  ipc.o(i.rt_sem_take)
    rt_show_version                          0x08001f5d   Thumb Code    40  kservice.o(i.rt_show_version)
    rt_soft_timer_check                      0x0800200d   Thumb Code   106  timer.o(i.rt_soft_timer_check)
    rt_strlen                                0x0800207d   Thumb Code    16  kservice.o(i.rt_strlen)
    rt_strncpy                               0x0800208d   Thumb Code    38  kservice.o(i.rt_strncpy)
    rt_system_heap_init                      0x080020b5   Thumb Code    96  mem.o(i.rt_system_heap_init)
    rt_system_scheduler_init                 0x08002161   Thumb Code    44  scheduler.o(i.rt_system_scheduler_init)
    rt_system_scheduler_start                0x08002195   Thumb Code    32  scheduler.o(i.rt_system_scheduler_start)
    rt_system_timer_init                     0x080021bd   Thumb Code     8  timer.o(i.rt_system_timer_init)
    rt_system_timer_thread_init              0x080021c9   Thumb Code    46  timer.o(i.rt_system_timer_thread_init)
    rt_thread_create                         0x0800220d   Thumb Code    72  thread.o(i.rt_thread_create)
    rt_thread_delay                          0x08002255   Thumb Code     4  thread.o(i.rt_thread_delay)
    rt_thread_exit                           0x08002259   Thumb Code    78  thread.o(i.rt_thread_exit)
    rt_thread_idle_excute                    0x080022b9   Thumb Code   114  idle.o(i.rt_thread_idle_excute)
    rt_thread_idle_init                      0x08002331   Thumb Code    40  idle.o(i.rt_thread_idle_init)
    rt_thread_init                           0x08002369   Thumb Code    48  thread.o(i.rt_thread_init)
    rt_thread_resume                         0x08002399   Thumb Code    60  thread.o(i.rt_thread_resume)
    rt_thread_self                           0x080023d5   Thumb Code     6  thread.o(i.rt_thread_self)
    rt_thread_sleep                          0x080023e1   Thumb Code    60  thread.o(i.rt_thread_sleep)
    rt_thread_startup                        0x08002421   Thumb Code    40  thread.o(i.rt_thread_startup)
    rt_thread_suspend                        0x0800244d   Thumb Code    66  thread.o(i.rt_thread_suspend)
    rt_thread_timeout                        0x0800248f   Thumb Code    32  thread.o(i.rt_thread_timeout)
    rt_thread_yield                          0x080024e9   Thumb Code    86  thread.o(i.rt_thread_yield)
    rt_tick_get                              0x08002549   Thumb Code     6  clock.o(i.rt_tick_get)
    rt_tick_increase                         0x08002555   Thumb Code    38  clock.o(i.rt_tick_increase)
    rt_timer_check                           0x08002581   Thumb Code    98  timer.o(i.rt_timer_check)
    rt_timer_control                         0x080025e9   Thumb Code    48  timer.o(i.rt_timer_control)
    rt_timer_detach                          0x08002619   Thumb Code    32  timer.o(i.rt_timer_detach)
    rt_timer_init                            0x08002639   Thumb Code    40  timer.o(i.rt_timer_init)
    rt_timer_start                           0x08002671   Thumb Code   178  timer.o(i.rt_timer_start)
    rt_timer_stop                            0x0800272d   Thumb Code    46  timer.o(i.rt_timer_stop)
    rt_vsnprintf                             0x0800275d   Thumb Code   626  kservice.o(i.rt_vsnprintf)
    rtthread_startup                         0x080029e9   Thumb Code    42  components.o(i.rtthread_startup)
    AHBPrescTable                            0x08002b28   Data          16  system_stm32f1xx.o(.constdata)
    APBPrescTable                            0x08002b38   Data           8  system_stm32f1xx.o(.constdata)
    __lowest_bit_bitmap                      0x08002b40   Data         256  kservice.o(.constdata)
    __rt_init_rti_start                      0x08002c64   Data           4  components.o(.rti_fn.0)
    __rt_init_rti_board_start                0x08002c68   Data           4  components.o(.rti_fn.0.end)
    __rt_init_rti_board_end                  0x08002c6c   Data           4  components.o(.rti_fn.1.end)
    __rt_init_rti_end                        0x08002c70   Data           4  components.o(.rti_fn.6.end)
    Region$$Table$$Base                      0x08002c74   Number         0  anon$$obj.o(Region$$Table)
    Region$$Table$$Limit                     0x08002c94   Number         0  anon$$obj.o(Region$$Table)
    test_str1                                0x2000000c   Data          22  app_rt_thread.o(.data)
    test_str2                                0x20000022   Data          22  app_rt_thread.o(.data)
    uwTickFreq                               0x20000038   Data           1  stm32f1xx_hal.o(.data)
    uwTickPrio                               0x2000003c   Data           4  stm32f1xx_hal.o(.data)
    uwTick                                   0x20000040   Data           4  stm32f1xx_hal.o(.data)
    SystemCoreClock                          0x20000044   Data           4  system_stm32f1xx.o(.data)
    rt_interrupt_nest                        0x2000004c   Data           1  irq.o(.data)
    rt_current_priority                      0x200000d8   Data           1  scheduler.o(.data)
    rt_current_thread                        0x200000dc   Data           4  scheduler.o(.data)
    rt_thread_ready_priority_group           0x200000e0   Data           4  scheduler.o(.data)
    rt_thread_defunct                        0x200000e4   Data           8  scheduler.o(.data)
    rt_interrupt_from_thread                 0x20000104   Data           4  cpuport.o(.data)
    rt_interrupt_to_thread                   0x20000108   Data           4  cpuport.o(.data)
    rt_thread_switch_interrupt_flag          0x2000010c   Data           4  cpuport.o(.data)
    huart1                                   0x20000110   Data          64  usart.o(.bss)
    rt_thread_priority_table                 0x20001370   Data         256  scheduler.o(.bss)
    __initial_sp                             0x20001af0   Data           0  startup_stm32f103xb.o(STACK)



==============================================================================

Memory Map of the image

  Image Entry point : 0x080000ed

  Load Region LR_IROM1 (Base: 0x08000000, Size: 0x00002da4, Max: 0x00020000, ABSOLUTE)

    Execution Region ER_IROM1 (Exec base: 0x08000000, Load base: 0x08000000, Size: 0x00002c94, Max: 0x00020000, ABSOLUTE)

    Exec Addr    Load Addr    Size         Type   Attr      Idx    E Section Name        Object

    0x08000000   0x08000000   0x000000ec   Data   RO            3    RESET               startup_stm32f103xb.o
    0x080000ec   0x080000ec   0x00000000   Code   RO         2868  * .ARM.Collect$$$$00000000  mc_w.l(entry.o)
    0x080000ec   0x080000ec   0x00000004   Code   RO         2875    .ARM.Collect$$$$00000001  mc_w.l(entry2.o)
    0x080000f0   0x080000f0   0x00000004   Code   RO         2878    .ARM.Collect$$$$00000004  mc_w.l(entry5.o)
    0x080000f4   0x080000f4   0x00000000   Code   RO         2880    .ARM.Collect$$$$00000008  mc_w.l(entry7b.o)
    0x080000f4   0x080000f4   0x00000000   Code   RO         2882    .ARM.Collect$$$$0000000A  mc_w.l(entry8b.o)
    0x080000f4   0x080000f4   0x00000008   Code   RO         2883    .ARM.Collect$$$$0000000B  mc_w.l(entry9a.o)
    0x080000fc   0x080000fc   0x00000000   Code   RO         2885    .ARM.Collect$$$$0000000D  mc_w.l(entry10a.o)
    0x080000fc   0x080000fc   0x00000000   Code   RO         2887    .ARM.Collect$$$$0000000F  mc_w.l(entry11a.o)
    0x080000fc   0x080000fc   0x00000004   Code   RO         2876    .ARM.Collect$$$$00002712  mc_w.l(entry2.o)
    0x08000100   0x08000100   0x00000024   Code   RO            4    .text               startup_stm32f103xb.o
    0x08000124   0x08000124   0x000000f4   Code   RO         1755    .text               context_rvds.o
    0x08000218   0x08000218   0x00000024   Code   RO         2873    .text               mc_w.l(memseta.o)
    0x0800023c   0x0800023c   0x00000024   Code   RO         2889    .text               mc_w.l(init.o)
    0x08000260   0x08000260   0x0000000a   Code   RO         1833    i.$Sub$$main        components.o
    0x0800026a   0x0800026a   0x00000002   Code   RO          201    i.BusFault_Handler  stm32f1xx_it.o
    0x0800026c   0x0800026c   0x00000002   Code   RO          202    i.DebugMon_Handler  stm32f1xx_it.o
    0x0800026e   0x0800026e   0x00000002   Code   RO           13    i.Error_Handler     main.o
    0x08000270   0x08000270   0x000001e0   Code   RO          698    i.HAL_GPIO_Init     stm32f1xx_hal_gpio.o
    0x08000450   0x08000450   0x0000000a   Code   RO          700    i.HAL_GPIO_ReadPin  stm32f1xx_hal_gpio.o
    0x0800045a   0x0800045a   0x0000000e   Code   RO          701    i.HAL_GPIO_TogglePin  stm32f1xx_hal_gpio.o
    0x08000468   0x08000468   0x0000000a   Code   RO          702    i.HAL_GPIO_WritePin  stm32f1xx_hal_gpio.o
    0x08000472   0x08000472   0x00000002   PAD
    0x08000474   0x08000474   0x0000000c   Code   RO          394    i.HAL_GetTick       stm32f1xx_hal.o
    0x08000480   0x08000480   0x00000024   Code   RO          401    i.HAL_Init          stm32f1xx_hal.o
    0x080004a4   0x080004a4   0x00000040   Code   RO          402    i.HAL_InitTick      stm32f1xx_hal.o
    0x080004e4   0x080004e4   0x0000003c   Code   RO          258    i.HAL_MspInit       stm32f1xx_hal_msp.o
    0x08000520   0x08000520   0x00000040   Code   RO          864    i.HAL_NVIC_SetPriority  stm32f1xx_hal_cortex.o
    0x08000560   0x08000560   0x00000024   Code   RO          865    i.HAL_NVIC_SetPriorityGrouping  stm32f1xx_hal_cortex.o
    0x08000584   0x08000584   0x0000012c   Code   RO          558    i.HAL_RCC_ClockConfig  stm32f1xx_hal_rcc.o
    0x080006b0   0x080006b0   0x00000020   Code   RO          565    i.HAL_RCC_GetPCLK1Freq  stm32f1xx_hal_rcc.o
    0x080006d0   0x080006d0   0x00000020   Code   RO          566    i.HAL_RCC_GetPCLK2Freq  stm32f1xx_hal_rcc.o
    0x080006f0   0x080006f0   0x0000006c   Code   RO          567    i.HAL_RCC_GetSysClockFreq  stm32f1xx_hal_rcc.o
    0x0800075c   0x0800075c   0x00000320   Code   RO          570    i.HAL_RCC_OscConfig  stm32f1xx_hal_rcc.o
    0x08000a7c   0x08000a7c   0x00000028   Code   RO          869    i.HAL_SYSTICK_Config  stm32f1xx_hal_cortex.o
    0x08000aa4   0x08000aa4   0x00000062   Code   RO         1419    i.HAL_UART_Init     stm32f1xx_hal_uart.o
    0x08000b06   0x08000b06   0x00000002   PAD
    0x08000b08   0x08000b08   0x00000070   Code   RO          160    i.HAL_UART_MspInit  usart.o
    0x08000b78   0x08000b78   0x000000ba   Code   RO         1427    i.HAL_UART_Transmit  stm32f1xx_hal_uart.o
    0x08000c32   0x08000c32   0x00000002   PAD
    0x08000c34   0x08000c34   0x0000009c   Code   RO          135    i.MX_GPIO_Init      gpio.o
    0x08000cd0   0x08000cd0   0x00000110   Code   RO          282    i.MX_RT_Thread_Init  app_rt_thread.o
    0x08000de0   0x08000de0   0x00000038   Code   RO          161    i.MX_USART1_UART_Init  usart.o
    0x08000e18   0x08000e18   0x00000002   Code   RO          203    i.MemManage_Handler  stm32f1xx_it.o
    0x08000e1a   0x08000e1a   0x00000002   Code   RO          204    i.NMI_Handler       stm32f1xx_it.o
    0x08000e1c   0x08000e1c   0x00000002   Code   RO          205    i.SVC_Handler       stm32f1xx_it.o
    0x08000e1e   0x08000e1e   0x00000012   Code   RO         1759    i.SysTick_Handler   board.o
    0x08000e30   0x08000e30   0x0000004e   Code   RO           14    i.SystemClock_Config  main.o
    0x08000e7e   0x08000e7e   0x00000002   PAD
    0x08000e80   0x08000e80   0x00000068   Code   RO         1720    i.SystemCoreClockUpdate  system_stm32f1xx.o
    0x08000ee8   0x08000ee8   0x00000048   Code   RO         1721    i.SystemInit        system_stm32f1xx.o
    0x08000f30   0x08000f30   0x000000b8   Code   RO         1445    i.UART_SetConfig    stm32f1xx_hal_uart.o
    0x08000fe8   0x08000fe8   0x00000064   Code   RO         1447    i.UART_WaitOnFlagUntilTimeout  stm32f1xx_hal_uart.o
    0x0800104c   0x0800104c   0x00000002   Code   RO          206    i.UsageFault_Handler  stm32f1xx_it.o
    0x0800104e   0x0800104e   0x00000020   Code   RO          871    i.__NVIC_SetPriority  stm32f1xx_hal_cortex.o
    0x0800106e   0x0800106e   0x00000002   PAD
    0x08001070   0x08001070   0x00000044   Code   RO         2227    i.__rt_ffs          kservice.o
    0x080010b4   0x080010b4   0x0000000e   Code   RO         2893    i.__scatterload_copy  mc_w.l(handlers.o)
    0x080010c2   0x080010c2   0x00000002   Code   RO         2894    i.__scatterload_null  mc_w.l(handlers.o)
    0x080010c4   0x080010c4   0x0000000e   Code   RO         2895    i.__scatterload_zeroinit  mc_w.l(handlers.o)
    0x080010d2   0x080010d2   0x00000002   PAD
    0x080010d4   0x080010d4   0x00000014   Code   RO         1900    i._has_defunct_thread  idle.o
    0x080010e8   0x080010e8   0x00000074   Code   RO         2597    i._rt_thread_init   thread.o
    0x0800115c   0x0800115c   0x0000001c   Code   RO         2717    i._rt_timer_init    timer.o
    0x08001178   0x08001178   0x00000012   Code   RO         2718    i._rt_timer_remove  timer.o
    0x0800118a   0x0800118a   0x00000016   Code   RO           15    i.main              main.o
    0x080011a0   0x080011a0   0x0000000e   Code   RO         1834    i.main_thread_entry  components.o
    0x080011ae   0x080011ae   0x00000002   PAD
    0x080011b0   0x080011b0   0x00000054   Code   RO         2410    i.plug_holes        mem.o
    0x08001204   0x08001204   0x00000130   Code   RO         2229    i.print_number      kservice.o
    0x08001334   0x08001334   0x00000094   Code   RO          283    i.receive_thread_entry  app_rt_thread.o
    0x080013c8   0x080013c8   0x0000002c   Code   RO         1835    i.rt_application_init  components.o
    0x080013f4   0x080013f4   0x0000001c   Code   RO         1836    i.rt_components_board_init  components.o
    0x08001410   0x08001410   0x0000001c   Code   RO         1837    i.rt_components_init  components.o
    0x0800142c   0x0800142c   0x0000001c   Code   RO         2536    i.rt_enter_critical  scheduler.o
    0x08001448   0x08001448   0x00000038   Code   RO         2537    i.rt_exit_critical  scheduler.o
    0x08001480   0x08001480   0x000000c4   Code   RO         2412    i.rt_free           mem.o
    0x08001544   0x08001544   0x00000008   Code   RO         1760    i.rt_heap_begin_get  board.o
    0x0800154c   0x0800154c   0x00000008   Code   RO         1761    i.rt_heap_end_get   board.o
    0x08001554   0x08001554   0x00000050   Code   RO         1762    i.rt_hw_board_init  board.o
    0x080015a4   0x080015a4   0x00000040   Code   RO         2232    i.rt_hw_console_output  kservice.o
    0x080015e4   0x080015e4   0x000001f4   Code   RO         2829    i.rt_hw_hard_fault_exception  cpuport.o
    0x080017d8   0x080017d8   0x00000038   Code   RO         2830    i.rt_hw_stack_init  cpuport.o
    0x08001810   0x08001810   0x0000001c   Code   RO         2197    i.rt_interrupt_enter  irq.o
    0x0800182c   0x0800182c   0x0000001c   Code   RO         2199    i.rt_interrupt_leave  irq.o
    0x08001848   0x08001848   0x0000000e   Code   RO         1947    i.rt_ipc_list_resume  ipc.o
    0x08001856   0x08001856   0x00000002   PAD
    0x08001858   0x08001858   0x00000052   Code   RO         1949    i.rt_ipc_list_suspend  ipc.o
    0x080018aa   0x080018aa   0x00000002   PAD
    0x080018ac   0x080018ac   0x00000020   Code   RO         2233    i.rt_kprintf        kservice.o
    0x080018cc   0x080018cc   0x0000000e   Code   RO         2460    i.rt_list_insert_after  object.o
    0x080018da   0x080018da   0x0000000e   Code   RO         2598    i.rt_list_insert_after  thread.o
    0x080018e8   0x080018e8   0x0000000e   Code   RO         2719    i.rt_list_insert_after  timer.o
    0x080018f6   0x080018f6   0x0000000e   Code   RO         1950    i.rt_list_insert_before  ipc.o
    0x08001904   0x08001904   0x00000012   Code   RO         2461    i.rt_list_remove    object.o
    0x08001916   0x08001916   0x00000012   Code   RO         2599    i.rt_list_remove    thread.o
    0x08001928   0x08001928   0x000000f0   Code   RO         2413    i.rt_malloc         mem.o
    0x08001a18   0x08001a18   0x00000048   Code   RO         1952    i.rt_mb_create      ipc.o
    0x08001a60   0x08001a60   0x000000f4   Code   RO         1956    i.rt_mb_recv        ipc.o
    0x08001b54   0x08001b54   0x00000006   Code   RO         1957    i.rt_mb_send        ipc.o
    0x08001b5a   0x08001b5a   0x000000ea   Code   RO         1958    i.rt_mb_send_wait   ipc.o
    0x08001c44   0x08001c44   0x00000046   Code   RO         2239    i.rt_memset         kservice.o
    0x08001c8a   0x08001c8a   0x00000050   Code   RO         2462    i.rt_object_allocate  object.o
    0x08001cda   0x08001cda   0x00000026   Code   RO         2463    i.rt_object_delete  object.o
    0x08001d00   0x08001d00   0x00000020   Code   RO         2464    i.rt_object_detach  object.o
    0x08001d20   0x08001d20   0x00000024   Code   RO         2466    i.rt_object_get_information  object.o
    0x08001d44   0x08001d44   0x00000050   Code   RO         2468    i.rt_object_init    object.o
    0x08001d94   0x08001d94   0x0000000e   Code   RO         2469    i.rt_object_is_systemobject  object.o
    0x08001da2   0x08001da2   0x00000002   PAD
    0x08001da4   0x08001da4   0x00000058   Code   RO         2538    i.rt_schedule       scheduler.o
    0x08001dfc   0x08001dfc   0x00000050   Code   RO         2539    i.rt_schedule_insert_thread  scheduler.o
    0x08001e4c   0x08001e4c   0x00000048   Code   RO         2540    i.rt_schedule_remove_thread  scheduler.o
    0x08001e94   0x08001e94   0x00000024   Code   RO         1978    i.rt_sem_init       ipc.o
    0x08001eb8   0x08001eb8   0x00000034   Code   RO         1979    i.rt_sem_release    ipc.o
    0x08001eec   0x08001eec   0x0000006e   Code   RO         1980    i.rt_sem_take       ipc.o
    0x08001f5a   0x08001f5a   0x00000002   PAD
    0x08001f5c   0x08001f5c   0x000000b0   Code   RO         2241    i.rt_show_version   kservice.o
    0x0800200c   0x0800200c   0x00000070   Code   RO         2720    i.rt_soft_timer_check  timer.o
    0x0800207c   0x0800207c   0x00000010   Code   RO         2247    i.rt_strlen         kservice.o
    0x0800208c   0x0800208c   0x00000026   Code   RO         2249    i.rt_strncpy        kservice.o
    0x080020b2   0x080020b2   0x00000002   PAD
    0x080020b4   0x080020b4   0x000000ac   Code   RO         2416    i.rt_system_heap_init  mem.o
    0x08002160   0x08002160   0x00000034   Code   RO         2541    i.rt_system_scheduler_init  scheduler.o
    0x08002194   0x08002194   0x00000028   Code   RO         2542    i.rt_system_scheduler_start  scheduler.o
    0x080021bc   0x080021bc   0x0000000c   Code   RO         2721    i.rt_system_timer_init  timer.o
    0x080021c8   0x080021c8   0x00000044   Code   RO         2722    i.rt_system_timer_thread_init  timer.o
    0x0800220c   0x0800220c   0x00000048   Code   RO         2601    i.rt_thread_create  thread.o
    0x08002254   0x08002254   0x00000004   Code   RO         2602    i.rt_thread_delay   thread.o
    0x08002258   0x08002258   0x00000058   Code   RO         2605    i.rt_thread_exit    thread.o
    0x080022b0   0x080022b0   0x00000006   Code   RO         1901    i.rt_thread_idle_entry  idle.o
    0x080022b6   0x080022b6   0x00000002   PAD
    0x080022b8   0x080022b8   0x00000078   Code   RO         1902    i.rt_thread_idle_excute  idle.o
    0x08002330   0x08002330   0x00000038   Code   RO         1904    i.rt_thread_idle_init  idle.o
    0x08002368   0x08002368   0x00000030   Code   RO         2607    i.rt_thread_init    thread.o
    0x08002398   0x08002398   0x0000003c   Code   RO         2609    i.rt_thread_resume  thread.o
    0x080023d4   0x080023d4   0x0000000c   Code   RO         2610    i.rt_thread_self    thread.o
    0x080023e0   0x080023e0   0x00000040   Code   RO         2611    i.rt_thread_sleep   thread.o
    0x08002420   0x08002420   0x0000002c   Code   RO         2612    i.rt_thread_startup  thread.o
    0x0800244c   0x0800244c   0x00000042   Code   RO         2613    i.rt_thread_suspend  thread.o
    0x0800248e   0x0800248e   0x00000020   Code   RO         2614    i.rt_thread_timeout  thread.o
    0x080024ae   0x080024ae   0x00000002   PAD
    0x080024b0   0x080024b0   0x00000038   Code   RO         2723    i.rt_thread_timer_entry  timer.o
    0x080024e8   0x080024e8   0x00000060   Code   RO         2615    i.rt_thread_yield   thread.o
    0x08002548   0x08002548   0x0000000c   Code   RO         1797    i.rt_tick_get       clock.o
    0x08002554   0x08002554   0x0000002c   Code   RO         1798    i.rt_tick_increase  clock.o
    0x08002580   0x08002580   0x00000068   Code   RO         2724    i.rt_timer_check    timer.o
    0x080025e8   0x080025e8   0x00000030   Code   RO         2725    i.rt_timer_control  timer.o
    0x08002618   0x08002618   0x00000020   Code   RO         2728    i.rt_timer_detach   timer.o
    0x08002638   0x08002638   0x00000028   Code   RO         2729    i.rt_timer_init     timer.o
    0x08002660   0x08002660   0x00000010   Code   RO         2730    i.rt_timer_list_next_timeout  timer.o
    0x08002670   0x08002670   0x000000bc   Code   RO         2732    i.rt_timer_start    timer.o
    0x0800272c   0x0800272c   0x0000002e   Code   RO         2733    i.rt_timer_stop     timer.o
    0x0800275a   0x0800275a   0x00000002   PAD
    0x0800275c   0x0800275c   0x0000027c   Code   RO         2252    i.rt_vsnprintf      kservice.o
    0x080029d8   0x080029d8   0x00000004   Code   RO         1838    i.rti_board_end     components.o
    0x080029dc   0x080029dc   0x00000004   Code   RO         1839    i.rti_board_start   components.o
    0x080029e0   0x080029e0   0x00000004   Code   RO         1840    i.rti_end           components.o
    0x080029e4   0x080029e4   0x00000004   Code   RO         1841    i.rti_start         components.o
    0x080029e8   0x080029e8   0x0000002a   Code   RO         1842    i.rtthread_startup  components.o
    0x08002a12   0x08002a12   0x00000002   PAD
    0x08002a14   0x08002a14   0x000000ec   Code   RO          284    i.send_thread_entry  app_rt_thread.o
    0x08002b00   0x08002b00   0x00000028   Code   RO         2254    i.skip_atoi         kservice.o
    0x08002b28   0x08002b28   0x00000010   Data   RO         1722    .constdata          system_stm32f1xx.o
    0x08002b38   0x08002b38   0x00000008   Data   RO         1723    .constdata          system_stm32f1xx.o
    0x08002b40   0x08002b40   0x00000122   Data   RO         2256    .constdata          kservice.o
    0x08002c62   0x08002c62   0x00000002   PAD
    0x08002c64   0x08002c64   0x00000004   Data   RO         1843    .rti_fn.0           components.o
    0x08002c68   0x08002c68   0x00000004   Data   RO         1844    .rti_fn.0.end       components.o
    0x08002c6c   0x08002c6c   0x00000004   Data   RO         1845    .rti_fn.1.end       components.o
    0x08002c70   0x08002c70   0x00000004   Data   RO         1846    .rti_fn.6.end       components.o
    0x08002c74   0x08002c74   0x00000020   Data   RO         2891    Region$$Table       anon$$obj.o


    Execution Region RW_IRAM1 (Exec base: 0x20000000, Load base: 0x08002c94, Size: 0x00001af0, Max: 0x00005000, ABSOLUTE)

    Exec Addr    Load Addr    Size         Type   Attr      Idx    E Section Name        Object

    0x20000000   0x08002c94   0x00000038   Data   RW          285    .data               app_rt_thread.o
    0x20000038   0x08002ccc   0x0000000c   Data   RW          408    .data               stm32f1xx_hal.o
    0x20000044   0x08002cd8   0x00000004   Data   RW         1724    .data               system_stm32f1xx.o
    0x20000048   0x08002cdc   0x00000004   Data   RW         1800    .data               clock.o
    0x2000004c   0x08002ce0   0x00000001   Data   RW         2200    .data               irq.o
    0x2000004d   0x08002ce1   0x00000003   PAD
    0x20000050   0x08002ce4   0x00000018   Data   RW         2418    .data               mem.o
    0x20000068   0x08002cfc   0x00000070   Data   RW         2471    .data               object.o
    0x200000d8   0x08002d6c   0x00000014   Data   RW         2544    .data               scheduler.o
    0x200000ec   0x08002d80   0x00000014   Data   RW         2735    .data               timer.o
    0x20000100   0x08002d94   0x00000004   Data   RW         2831    .data               cpuport.o
    0x20000104   0x08002d98   0x00000004   Data   RW         2832    .data               cpuport.o
    0x20000108   0x08002d9c   0x00000004   Data   RW         2833    .data               cpuport.o
    0x2000010c   0x08002da0   0x00000004   Data   RW         2834    .data               cpuport.o
    0x20000110        -       0x00000040   Zero   RW          162    .bss                usart.o
    0x20000150        -       0x00001000   Zero   RW         1763    .bss                board.o
    0x20001150        -       0x00000180   Zero   RW         1905    .bss                idle.o
    0x200012d0        -       0x00000080   Zero   RW         2255    .bss                kservice.o
    0x20001350        -       0x00000020   Zero   RW         2417    .bss                mem.o
    0x20001370        -       0x00000100   Zero   RW         2543    .bss                scheduler.o
    0x20001470        -       0x00000280   Zero   RW         2734    .bss                timer.o
    0x200016f0        -       0x00000400   Zero   RW            1    STACK               startup_stm32f103xb.o


==============================================================================

Image component sizes


      Code (inc. data)   RO Data    RW Data    ZI Data      Debug   Object Name

       656        388          0         56          0       8530   app_rt_thread.o
       114         18          0          0       4096       3297   board.o
        56         12          0          4          0       1325   clock.o
       182         28         16          0          0       6350   components.o
       244         26          0          0          0        840   context_rvds.o
       556        326          0         16          0       3446   cpuport.o
       156         16          0          0          0        899   gpio.o
       202         26          0          0        384       5894   idle.o
       864          0          0          0          0      11235   ipc.o
        56         12          0          1          0       1782   irq.o
      1444        166        290          0        128      11359   kservice.o
       102          0          0          0          0     393436   main.o
       692        172          0         24         32       4200   mem.o
       312          6          0        112          0       8940   object.o
       416         56          0         20        256       8654   scheduler.o
        36          8        236          0       1024        784   startup_stm32f103xb.o
       112         20          0         12          0       4703   stm32f1xx_hal.o
       172         14          0          0          0      28198   stm32f1xx_hal_cortex.o
       514         34          0          0          0       4028   stm32f1xx_hal_gpio.o
        60          8          0          0          0        810   stm32f1xx_hal_msp.o
      1272        100          0          0          0       5092   stm32f1xx_hal_rcc.o
       568          6          0          0          0       3836   stm32f1xx_hal_uart.o
        12          0          0          0          0       2423   stm32f1xx_it.o
       176         38         24          4          0       1707   system_stm32f1xx.o
       734         42          0          0          0      12596   thread.o
       782         54          0         20        640      13206   timer.o
       168         20          0          0         64       1570   usart.o

    ----------------------------------------------------------------------
     10688       1596        600        272       6624     549140   Object Totals
         0          0         32          0          0          0   (incl. Generated)
        30          0          2          3          0          0   (incl. Padding)

    ----------------------------------------------------------------------

      Code (inc. data)   RO Data    RW Data    ZI Data      Debug   Library Member Name

         0          0          0          0          0          0   entry.o
         0          0          0          0          0          0   entry10a.o
         0          0          0          0          0          0   entry11a.o
         8          4          0          0          0          0   entry2.o
         4          0          0          0          0          0   entry5.o
         0          0          0          0          0          0   entry7b.o
         0          0          0          0          0          0   entry8b.o
         8          4          0          0          0          0   entry9a.o
        30          0          0          0          0          0   handlers.o
        36          8          0          0          0         68   init.o
        36          0          0          0          0        108   memseta.o

    ----------------------------------------------------------------------
       124         16          0          0          0        176   Library Totals
         2          0          0          0          0          0   (incl. Padding)

    ----------------------------------------------------------------------

      Code (inc. data)   RO Data    RW Data    ZI Data      Debug   Library Name

       122         16          0          0          0        176   mc_w.l

    ----------------------------------------------------------------------
       124         16          0          0          0        176   Library Totals

    ----------------------------------------------------------------------

==============================================================================


      Code (inc. data)   RO Data    RW Data    ZI Data      Debug   

     10812       1612        600        272       6624     543020   Grand Totals
     10812       1612        600        272       6624     543020   ELF Image Totals
     10812       1612        600        272          0          0   ROM Totals

==============================================================================

    Total RO  Size (Code + RO Data)                11412 (  11.14kB)
    Total RW  Size (RW Data + ZI Data)              6896 (   6.73kB)
    Total ROM Size (Code + RO Data + RW Data)      11684 (  11.41kB)

==============================================================================

