Component: ARM Compiler 5.06 update 6 (build 750) Tool: armlink [4d35ed]

==============================================================================

Section Cross References

    startup_stm32f103xb.o(RESET) refers to startup_stm32f103xb.o(STACK) for __initial_sp
    startup_stm32f103xb.o(RESET) refers to startup_stm32f103xb.o(.text) for Reset_Handler
    startup_stm32f103xb.o(RESET) refers to stm32f1xx_it.o(i.NMI_Handler) for NMI_Handler
    startup_stm32f103xb.o(RESET) refers to context_rvds.o(.text) for HardFault_Handler
    startup_stm32f103xb.o(RESET) refers to stm32f1xx_it.o(i.MemManage_Handler) for MemManage_Handler
    startup_stm32f103xb.o(RESET) refers to stm32f1xx_it.o(i.BusFault_Handler) for BusFault_Handler
    startup_stm32f103xb.o(RESET) refers to stm32f1xx_it.o(i.UsageFault_Handler) for UsageFault_Handler
    startup_stm32f103xb.o(RESET) refers to stm32f1xx_it.o(i.SVC_Handler) for SVC_Handler
    startup_stm32f103xb.o(RESET) refers to stm32f1xx_it.o(i.DebugMon_Handler) for DebugMon_Handler
    startup_stm32f103xb.o(RESET) refers to board.o(i.SysTick_Handler) for SysTick_Handler
    startup_stm32f103xb.o(.text) refers to system_stm32f1xx.o(i.SystemInit) for SystemInit
    startup_stm32f103xb.o(.text) refers to entry.o(.ARM.Collect$$$$00000000) for __main
    main.o(i.SystemClock_Config) refers to memseta.o(.text) for __aeabi_memclr4
    main.o(i.SystemClock_Config) refers to stm32f1xx_hal_rcc.o(i.HAL_RCC_OscConfig) for HAL_RCC_OscConfig
    main.o(i.SystemClock_Config) refers to stm32f1xx_hal_rcc.o(i.HAL_RCC_ClockConfig) for HAL_RCC_ClockConfig
    main.o(i.main) refers to stm32f1xx_hal.o(i.HAL_Init) for HAL_Init
    main.o(i.main) refers to main.o(i.SystemClock_Config) for SystemClock_Config
    main.o(i.main) refers to gpio.o(i.MX_GPIO_Init) for MX_GPIO_Init
==============================================================================

Removing Unused input sections from the image.

    Removing startup_stm32f103xb.o(HEAP), (512 bytes).
    Removing main.o(.rev16_text), (4 bytes).
    Removing main.o(.revsh_text), (4 bytes).
    Removing main.o(.rrx_text), (6 bytes).
    Removing gpio.o(.rev16_text), (4 bytes).
    Removing gpio.o(.revsh_text), (4 bytes).
    Removing gpio.o(.rrx_text), (6 bytes).
    Removing usart.o(.rev16_text), (4 bytes).
    Removing usart.o(.revsh_text), (4 bytes).
    Removing usart.o(.rrx_text), (6 bytes).
    Removing usart.o(i.HAL_UART_MspDeInit), (44 bytes).
    Removing stm32f1xx_it.o(.rev16_text), (4 bytes).
    Removing stm32f1xx_it.o(.revsh_text), (4 bytes).
    Removing stm32f1xx_it.o(.rrx_text), (6 bytes).
    Removing stm32f1xx_hal_msp.o(.rev16_text), (4 bytes).
    Removing stm32f1xx_hal_msp.o(.revsh_text), (4 bytes).
    Removing stm32f1xx_hal_msp.o(.rrx_text), (6 bytes).
    Removing app_rt_thread.o(.rev16_text), (4 bytes).
==============================================================================

Image Symbol Table

    Local Symbols

    Symbol Name                              Value     Ov Type        Size  Object(Section)

    ../Drivers/STM32F1xx_HAL_Driver/Src/stm32f1xx_hal.c 0x00000000   Number         0  stm32f1xx_hal.o ABSOLUTE
    ../Drivers/STM32F1xx_HAL_Driver/Src/stm32f1xx_hal_cortex.c 0x00000000   Number         0  stm32f1xx_hal_cortex.o ABSOLUTE
    ../Drivers/STM32F1xx_HAL_Driver/Src/stm32f1xx_hal_dma.c 0x00000000   Number         0  stm32f1xx_hal_dma.o ABSOLUTE
    ../Drivers/STM32F1xx_HAL_Driver/Src/stm32f1xx_hal_exti.c 0x00000000   Number         0  stm32f1xx_hal_exti.o ABSOLUTE
    ../Drivers/STM32F1xx_HAL_Driver/Src/stm32f1xx_hal_flash.c 0x00000000   Number         0  stm32f1xx_hal_flash.o ABSOLUTE
    ../Drivers/STM32F1xx_HAL_Driver/Src/stm32f1xx_hal_flash_ex.c 0x00000000   Number         0  stm32f1xx_hal_flash_ex.o ABSOLUTE
    ../Drivers/STM32F1xx_HAL_Driver/Src/stm32f1xx_hal_gpio.c 0x00000000   Number         0  stm32f1xx_hal_gpio.o ABSOLUTE
    ../Drivers/STM32F1xx_HAL_Driver/Src/stm32f1xx_hal_gpio_ex.c 0x00000000   Number         0  stm32f1xx_hal_gpio_ex.o ABSOLUTE
    ../Drivers/STM32F1xx_HAL_Driver/Src/stm32f1xx_hal_pwr.c 0x00000000   Number         0  stm32f1xx_hal_pwr.o ABSOLUTE
    ../Drivers/STM32F1xx_HAL_Driver/Src/stm32f1xx_hal_rcc.c 0x00000000   Number         0  stm32f1xx_hal_rcc.o ABSOLUTE
    ../Drivers/STM32F1xx_HAL_Driver/Src/stm32f1xx_hal_rcc_ex.c 0x00000000   Number         0  stm32f1xx_hal_rcc_ex.o ABSOLUTE
    ../Drivers/STM32F1xx_HAL_Driver/Src/stm32f1xx_hal_tim.c 0x00000000   Number         0  stm32f1xx_hal_tim.o ABSOLUTE
    ../Drivers/STM32F1xx_HAL_Driver/Src/stm32f1xx_hal_tim_ex.c 0x00000000   Number         0  stm32f1xx_hal_tim_ex.o ABSOLUTE
    ../Drivers/STM32F1xx_HAL_Driver/Src/stm32f1xx_hal_uart.c 0x00000000   Number         0  stm32f1xx_hal_uart.o ABSOLUTE
    ../Middlewares/Third_Party/RealThread_RTOS_RT-Thread/bsp/board.c 0x00000000   Number         0  board.o ABSOLUTE
    ../Middlewares/Third_Party/RealThread_RTOS_RT-Thread/libcpu/arm/cortex-m3/context_rvds.S 0x00000000   Number         0  context_rvds.o ABSOLUTE
    ../Middlewares/Third_Party/RealThread_RTOS_RT-Thread/libcpu/arm/cortex-m3/cpuport.c 0x00000000   Number         0  cpuport.o ABSOLUTE
    ../Middlewares/Third_Party/RealThread_RTOS_RT-Thread/src/clock.c 0x00000000   Number         0  clock.o ABSOLUTE
    ../Middlewares/Third_Party/RealThread_RTOS_RT-Thread/src/components.c 0x00000000   Number         0  components.o ABSOLUTE
    ../Middlewares/Third_Party/RealThread_RTOS_RT-Thread/src/idle.c 0x00000000   Number         0  idle.o ABSOLUTE
    ../Middlewares/Third_Party/RealThread_RTOS_RT-Thread/src/ipc.c 0x00000000   Number         0  ipc.o ABSOLUTE
    ../Middlewares/Third_Party/RealThread_RTOS_RT-Thread/src/irq.c 0x00000000   Number         0  irq.o ABSOLUTE
    ../Middlewares/Third_Party/RealThread_RTOS_RT-Thread/src/kservice.c 0x00000000   Number         0  kservice.o ABSOLUTE
    ../Middlewares/Third_Party/RealThread_RTOS_RT-Thread/src/mem.c 0x00000000   Number         0  mem.o ABSOLUTE
    ../Middlewares/Third_Party/RealThread_RTOS_RT-Thread/src/object.c 0x00000000   Number         0  object.o ABSOLUTE
    ../Middlewares/Third_Party/RealThread_RTOS_RT-Thread/src/scheduler.c 0x00000000   Number         0  scheduler.o ABSOLUTE
    ../Middlewares/Third_Party/RealThread_RTOS_RT-Thread/src/thread.c 0x00000000   Number         0  thread.o ABSOLUTE
    ../Middlewares/Third_Party/RealThread_RTOS_RT-Thread/src/timer.c 0x00000000   Number         0  timer.o ABSOLUTE
    ../Src/gpio.c                            0x00000000   Number         0  gpio.o ABSOLUTE
    ../Src/main.c                            0x00000000   Number         0  main.o ABSOLUTE
    ../Src/stm32f1xx_hal_msp.c               0x00000000   Number         0  stm32f1xx_hal_msp.o ABSOLUTE
    ../Src/stm32f1xx_it.c                    0x00000000   Number         0  stm32f1xx_it.o ABSOLUTE
    ../Src/system_stm32f1xx.c                0x00000000   Number         0  system_stm32f1xx.o ABSOLUTE
    ../Src/usart.c                           0x00000000   Number         0  usart.o ABSOLUTE
    ../clib/microlib/init/entry.s            0x00000000   Number         0  entry8a.o ABSOLUTE
    ../clib/microlib/init/entry.s            0x00000000   Number         0  entry5.o ABSOLUTE
    ../clib/microlib/init/entry.s            0x00000000   Number         0  entry7a.o ABSOLUTE
    ../clib/microlib/init/entry.s            0x00000000   Number         0  entry2.o ABSOLUTE
    ../clib/microlib/init/entry.s            0x00000000   Number         0  entry.o ABSOLUTE
    ../clib/microlib/init/entry.s            0x00000000   Number         0  entry7b.o ABSOLUTE
    ../clib/microlib/init/entry.s            0x00000000   Number         0  entry8b.o ABSOLUTE
    ../clib/microlib/init/entry.s            0x00000000   Number         0  entry9a.o ABSOLUTE
    ../clib/microlib/init/entry.s            0x00000000   Number         0  entry9b.o ABSOLUTE
    ../clib/microlib/init/entry.s            0x00000000   Number         0  entry10a.o ABSOLUTE
    ../clib/microlib/init/entry.s            0x00000000   Number         0  entry10b.o ABSOLUTE
    ../clib/microlib/init/entry.s            0x00000000   Number         0  entry11a.o ABSOLUTE
    ../clib/microlib/init/entry.s            0x00000000   Number         0  entry11b.o ABSOLUTE
    ../clib/microlib/longlong.c              0x00000000   Number         0  llushr.o ABSOLUTE
    ../clib/microlib/string/memset.c         0x00000000   Number         0  memseta.o ABSOLUTE
    ..\Drivers\STM32F1xx_HAL_Driver\Src\stm32f1xx_hal.c 0x00000000   Number         0  stm32f1xx_hal.o ABSOLUTE
    ..\Drivers\STM32F1xx_HAL_Driver\Src\stm32f1xx_hal_cortex.c 0x00000000   Number         0  stm32f1xx_hal_cortex.o ABSOLUTE
    ..\Drivers\STM32F1xx_HAL_Driver\Src\stm32f1xx_hal_dma.c 0x00000000   Number         0  stm32f1xx_hal_dma.o ABSOLUTE
    ..\Drivers\STM32F1xx_HAL_Driver\Src\stm32f1xx_hal_exti.c 0x00000000   Number         0  stm32f1xx_hal_exti.o ABSOLUTE
    ..\Drivers\STM32F1xx_HAL_Driver\Src\stm32f1xx_hal_flash.c 0x00000000   Number         0  stm32f1xx_hal_flash.o ABSOLUTE
    ..\Drivers\STM32F1xx_HAL_Driver\Src\stm32f1xx_hal_flash_ex.c 0x00000000   Number         0  stm32f1xx_hal_flash_ex.o ABSOLUTE
    ..\Drivers\STM32F1xx_HAL_Driver\Src\stm32f1xx_hal_gpio.c 0x00000000   Number         0  stm32f1xx_hal_gpio.o ABSOLUTE
    ..\Drivers\STM32F1xx_HAL_Driver\Src\stm32f1xx_hal_gpio_ex.c 0x00000000   Number         0  stm32f1xx_hal_gpio_ex.o ABSOLUTE
    ..\Drivers\STM32F1xx_HAL_Driver\Src\stm32f1xx_hal_pwr.c 0x00000000   Number         0  stm32f1xx_hal_pwr.o ABSOLUTE
    ..\Drivers\STM32F1xx_HAL_Driver\Src\stm32f1xx_hal_rcc.c 0x00000000   Number         0  stm32f1xx_hal_rcc.o ABSOLUTE
    ..\Drivers\STM32F1xx_HAL_Driver\Src\stm32f1xx_hal_rcc_ex.c 0x00000000   Number         0  stm32f1xx_hal_rcc_ex.o ABSOLUTE
    ..\Drivers\STM32F1xx_HAL_Driver\Src\stm32f1xx_hal_tim.c 0x00000000   Number         0  stm32f1xx_hal_tim.o ABSOLUTE
    ..\Drivers\STM32F1xx_HAL_Driver\Src\stm32f1xx_hal_tim_ex.c 0x00000000   Number         0  stm32f1xx_hal_tim_ex.o ABSOLUTE
    ..\Drivers\STM32F1xx_HAL_Driver\Src\stm32f1xx_hal_uart.c 0x00000000   Number         0  stm32f1xx_hal_uart.o ABSOLUTE
    ..\Middlewares\Third_Party\RealThread_RTOS_RT-Thread\src\kservice.c 0x00000000   Number         0  kservice.o ABSOLUTE
    ..\Src\app_rt_thread.c                   0x00000000   Number         0  app_rt_thread.o ABSOLUTE
    ..\Src\gpio.c                            0x00000000   Number         0  gpio.o ABSOLUTE
    ..\Src\main.c                            0x00000000   Number         0  main.o ABSOLUTE
    ..\Src\stm32f1xx_hal_msp.c               0x00000000   Number         0  stm32f1xx_hal_msp.o ABSOLUTE
    ..\Src\stm32f1xx_it.c                    0x00000000   Number         0  stm32f1xx_it.o ABSOLUTE
    ..\Src\system_stm32f1xx.c                0x00000000   Number         0  system_stm32f1xx.o ABSOLUTE
    ..\Src\usart.c                           0x00000000   Number         0  usart.o ABSOLUTE
    ..\\Src\\app_rt_thread.c                 0x00000000   Number         0  app_rt_thread.o ABSOLUTE
    dc.s                                     0x00000000   Number         0  dc.o ABSOLUTE
    handlers.s                               0x00000000   Number         0  handlers.o ABSOLUTE
    init.s                                   0x00000000   Number         0  init.o ABSOLUTE
    startup_stm32f103xb.s                    0x00000000   Number         0  startup_stm32f103xb.o ABSOLUTE
    RESET                                    0x08000000   Section      236  startup_stm32f103xb.o(RESET)
    .ARM.Collect$$$$00000000                 0x080000ec   Section        0  entry.o(.ARM.Collect$$$$00000000)
    .ARM.Collect$$$$00000001                 0x080000ec   Section        4  entry2.o(.ARM.Collect$$$$00000001)
    .ARM.Collect$$$$00000004                 0x080000f0   Section        4  entry5.o(.ARM.Collect$$$$00000004)
    .ARM.Collect$$$$00000008                 0x080000f4   Section        0  entry7b.o(.ARM.Collect$$$$00000008)
    .ARM.Collect$$$$0000000A                 0x080000f4   Section        0  entry8b.o(.ARM.Collect$$$$0000000A)
    .ARM.Collect$$$$0000000B                 0x080000f4   Section        8  entry9a.o(.ARM.Collect$$$$0000000B)
    .ARM.Collect$$$$0000000D                 0x080000fc   Section        0  entry10a.o(.ARM.Collect$$$$0000000D)
    .ARM.Collect$$$$0000000F                 0x080000fc   Section        0  entry11a.o(.ARM.Collect$$$$0000000F)
    .ARM.Collect$$$$00002712                 0x080000fc   Section        4  entry2.o(.ARM.Collect$$$$00002712)
    __lit__00000000                          0x080000fc   Data           4  entry2.o(.ARM.Collect$$$$00002712)
    .text                                    0x08000100   Section       36  startup_stm32f103xb.o(.text)
    .text                                    0x08000124   Section      244  context_rvds.o(.text)
    .text                                    0x08000218   Section        0  memseta.o(.text)
    .text                                    0x0800023c   Section       36  init.o(.text)
    i.$Sub$$main                             0x08000260   Section        0  components.o(i.$Sub$$main)
    i.BusFault_Handler                       0x0800026a   Section        0  stm32f1xx_it.o(i.BusFault_Handler)
    i.DebugMon_Handler                       0x0800026c   Section        0  stm32f1xx_it.o(i.DebugMon_Handler)
    i.Error_Handler                          0x0800026e   Section        0  main.o(i.Error_Handler)
    i.HAL_GPIO_Init                          0x08000270   Section        0  stm32f1xx_hal_gpio.o(i.HAL_GPIO_Init)
    i.HAL_GPIO_WritePin                      0x08000450   Section        0  stm32f1xx_hal_gpio.o(i.HAL_GPIO_WritePin)
    i.HAL_GetTick                            0x0800045c   Section        0  stm32f1xx_hal.o(i.HAL_GetTick)
    i.HAL_Init                               0x08000468   Section        0  stm32f1xx_hal.o(i.HAL_Init)
    i.HAL_InitTick                           0x0800048c   Section        0  stm32f1xx_hal.o(i.HAL_InitTick)
    i.HAL_MspInit                            0x080004cc   Section        0  stm32f1xx_hal_msp.o(i.HAL_MspInit)
    i.HAL_NVIC_SetPriority                   0x08000508   Section        0  stm32f1xx_hal_cortex.o(i.HAL_NVIC_SetPriority)
    i.HAL_NVIC_SetPriorityGrouping           0x08000548   Section        0  stm32f1xx_hal_cortex.o(i.HAL_NVIC_SetPriorityGrouping)
    i.HAL_RCC_ClockConfig                    0x0800056c   Section        0  stm32f1xx_hal_rcc.o(i.HAL_RCC_ClockConfig)
    i.HAL_RCC_GetPCLK1Freq                   0x08000698   Section        0  stm32f1xx_hal_rcc.o(i.HAL_RCC_GetPCLK1Freq)
    i.HAL_RCC_GetPCLK2Freq                   0x080006b8   Section        0  stm32f1xx_hal_rcc.o(i.HAL_RCC_GetPCLK2Freq)
    i.HAL_RCC_GetSysClockFreq                0x080006d8   Section        0  stm32f1xx_hal_rcc.o(i.HAL_RCC_GetSysClockFreq)
    i.HAL_RCC_OscConfig                      0x08000744   Section        0  stm32f1xx_hal_rcc.o(i.HAL_RCC_OscConfig)
    i.HAL_SYSTICK_Config                     0x08000a64   Section        0  stm32f1xx_hal_cortex.o(i.HAL_SYSTICK_Config)
    i.HAL_UART_Init                          0x08000a8c   Section        0  stm32f1xx_hal_uart.o(i.HAL_UART_Init)
    i.HAL_UART_MspInit                       0x08000af0   Section        0  usart.o(i.HAL_UART_MspInit)
    i.HAL_UART_Transmit                      0x08000b60   Section        0  stm32f1xx_hal_uart.o(i.HAL_UART_Transmit)
    i.MX_GPIO_Init                           0x08000c1c   Section        0  gpio.o(i.MX_GPIO_Init)
    i.MX_RT_Thread_Init                      0x08000c8c   Section        0  app_rt_thread.o(i.MX_RT_Thread_Init)
    i.MX_USART1_UART_Init                    0x08000cc8   Section        0  usart.o(i.MX_USART1_UART_Init)
    i.MemManage_Handler                      0x08000d00   Section        0  stm32f1xx_it.o(i.MemManage_Handler)
    i.NMI_Handler                            0x08000d02   Section        0  stm32f1xx_it.o(i.NMI_Handler)
    i.SVC_Handler                            0x08000d04   Section        0  stm32f1xx_it.o(i.SVC_Handler)
    i.SysTick_Handler                        0x08000d06   Section        0  board.o(i.SysTick_Handler)
    i.SystemClock_Config                     0x08000d18   Section        0  main.o(i.SystemClock_Config)
    i.SystemCoreClockUpdate                  0x08000d68   Section        0  system_stm32f1xx.o(i.SystemCoreClockUpdate)
    i.SystemInit                             0x08000dd0   Section        0  system_stm32f1xx.o(i.SystemInit)
    i.UART_SetConfig                         0x08000e18   Section        0  stm32f1xx_hal_uart.o(i.UART_SetConfig)
    UART_SetConfig                           0x08000e19   Thumb Code   178  stm32f1xx_hal_uart.o(i.UART_SetConfig)
    i.UART_WaitOnFlagUntilTimeout            0x08000ed0   Section        0  stm32f1xx_hal_uart.o(i.UART_WaitOnFlagUntilTimeout)
    UART_WaitOnFlagUntilTimeout              0x08000ed1   Thumb Code   100  stm32f1xx_hal_uart.o(i.UART_WaitOnFlagUntilTimeout)
    i.UsageFault_Handler                     0x08000f34   Section        0  stm32f1xx_it.o(i.UsageFault_Handler)
    i.__NVIC_SetPriority                     0x08000f36   Section        0  stm32f1xx_hal_cortex.o(i.__NVIC_SetPriority)
    __NVIC_SetPriority                       0x08000f37   Thumb Code    32  stm32f1xx_hal_cortex.o(i.__NVIC_SetPriority)
    i.__rt_ffs                               0x08000f58   Section        0  kservice.o(i.__rt_ffs)
    i.__scatterload_copy                     0x08000f9c   Section       14  handlers.o(i.__scatterload_copy)
    i.__scatterload_null                     0x08000faa   Section        2  handlers.o(i.__scatterload_null)
    i.__scatterload_zeroinit                 0x08000fac   Section       14  handlers.o(i.__scatterload_zeroinit)
    i._has_defunct_thread                    0x08000fbc   Section        0  idle.o(i._has_defunct_thread)
    _has_defunct_thread                      0x08000fbd   Thumb Code    16  idle.o(i._has_defunct_thread)
    i._rt_thread_init                        0x08000fd0   Section        0  thread.o(i._rt_thread_init)
    _rt_thread_init                          0x08000fd1   Thumb Code   118  thread.o(i._rt_thread_init)
    i._rt_timer_init                         0x08001050   Section        0  timer.o(i._rt_timer_init)
    _rt_timer_init                           0x08001051   Thumb Code    28  timer.o(i._rt_timer_init)
    i._rt_timer_remove                       0x0800106c   Section        0  timer.o(i._rt_timer_remove)
    _rt_timer_remove                         0x0800106d   Thumb Code    18  timer.o(i._rt_timer_remove)
    i.led1_thread_entry                      0x08001080   Section        0  app_rt_thread.o(i.led1_thread_entry)
    led1_thread_entry                        0x08001081   Thumb Code    56  app_rt_thread.o(i.led1_thread_entry)
    i.main                                   0x080010fc   Section        0  main.o(i.main)
    i.main_thread_entry                      0x08001112   Section        0  components.o(i.main_thread_entry)
    i.plug_holes                             0x08001120   Section        0  mem.o(i.plug_holes)
    plug_holes                               0x08001121   Thumb Code    80  mem.o(i.plug_holes)
    i.print_number                           0x08001174   Section        0  kservice.o(i.print_number)
    print_number                             0x08001175   Thumb Code   300  kservice.o(i.print_number)
    i.rt_application_init                    0x080012a4   Section        0  components.o(i.rt_application_init)
    i.rt_components_board_init               0x080012d0   Section        0  components.o(i.rt_components_board_init)
    i.rt_components_init                     0x080012ec   Section        0  components.o(i.rt_components_init)
    i.rt_enter_critical                      0x08001308   Section        0  scheduler.o(i.rt_enter_critical)
    i.rt_exit_critical                       0x08001324   Section        0  scheduler.o(i.rt_exit_critical)
    i.rt_free                                0x0800135c   Section        0  mem.o(i.rt_free)
    i.rt_heap_begin_get                      0x08001420   Section        0  board.o(i.rt_heap_begin_get)
    i.rt_heap_end_get                        0x08001428   Section        0  board.o(i.rt_heap_end_get)
    i.rt_hw_board_init                       0x08001430   Section        0  board.o(i.rt_hw_board_init)
    i.rt_hw_console_output                   0x08001480   Section        0  kservice.o(i.rt_hw_console_output)
    i.rt_hw_hard_fault_exception             0x080014c0   Section        0  cpuport.o(i.rt_hw_hard_fault_exception)
    i.rt_hw_stack_init                       0x080016b4   Section        0  cpuport.o(i.rt_hw_stack_init)
    i.rt_interrupt_enter                     0x080016ec   Section        0  irq.o(i.rt_interrupt_enter)
    i.rt_interrupt_leave                     0x08001708   Section        0  irq.o(i.rt_interrupt_leave)
    i.rt_kprintf                             0x08001724   Section        0  kservice.o(i.rt_kprintf)
    i.rt_list_insert_after                   0x08001744   Section        0  object.o(i.rt_list_insert_after)
    rt_list_insert_after                     0x08001745   Thumb Code    14  object.o(i.rt_list_insert_after)
    i.rt_list_insert_after                   0x08001752   Section        0  thread.o(i.rt_list_insert_after)
    rt_list_insert_after                     0x08001753   Thumb Code    14  thread.o(i.rt_list_insert_after)
    i.rt_list_insert_after                   0x08001760   Section        0  timer.o(i.rt_list_insert_after)
    rt_list_insert_after                     0x08001761   Thumb Code    14  timer.o(i.rt_list_insert_after)
    i.rt_list_insert_before                  0x0800176e   Section        0  ipc.o(i.rt_list_insert_before)
    rt_list_insert_before                    0x0800176f   Thumb Code    14  ipc.o(i.rt_list_insert_before)
    i.rt_list_remove                         0x0800177c   Section        0  object.o(i.rt_list_remove)
    rt_list_remove                           0x0800177d   Thumb Code    18  object.o(i.rt_list_remove)
    i.rt_list_remove                         0x0800178e   Section        0  thread.o(i.rt_list_remove)
    rt_list_remove                           0x0800178f   Thumb Code    18  thread.o(i.rt_list_remove)
    i.rt_malloc                              0x080017a0   Section        0  mem.o(i.rt_malloc)
    i.rt_memset                              0x08001890   Section        0  kservice.o(i.rt_memset)
    i.rt_object_allocate                     0x080018d6   Section        0  object.o(i.rt_object_allocate)
    i.rt_object_delete                       0x08001926   Section        0  object.o(i.rt_object_delete)
    i.rt_object_detach                       0x0800194c   Section        0  object.o(i.rt_object_detach)
    i.rt_object_get_information              0x0800196c   Section        0  object.o(i.rt_object_get_information)
    i.rt_object_init                         0x08001990   Section        0  object.o(i.rt_object_init)
    i.rt_object_is_systemobject              0x080019e0   Section        0  object.o(i.rt_object_is_systemobject)
    i.rt_schedule                            0x080019f0   Section        0  scheduler.o(i.rt_schedule)
    i.rt_schedule_insert_thread              0x08001a48   Section        0  scheduler.o(i.rt_schedule_insert_thread)
    i.rt_schedule_remove_thread              0x08001a98   Section        0  scheduler.o(i.rt_schedule_remove_thread)
    i.rt_sem_init                            0x08001ae0   Section        0  ipc.o(i.rt_sem_init)
    i.rt_sem_release                         0x08001b04   Section        0  ipc.o(i.rt_sem_release)
    i.rt_sem_take                            0x08001b3a   Section        0  ipc.o(i.rt_sem_take)
    i.rt_show_version                        0x08001be8   Section        0  kservice.o(i.rt_show_version)
    i.rt_strlen                              0x08001c98   Section        0  kservice.o(i.rt_strlen)
    i.rt_strncpy                             0x08001ca8   Section        0  kservice.o(i.rt_strncpy)
    i.rt_system_heap_init                    0x08001cd0   Section        0  mem.o(i.rt_system_heap_init)
    i.rt_system_scheduler_init               0x08001d7c   Section        0  scheduler.o(i.rt_system_scheduler_init)
    i.rt_system_scheduler_start              0x08001db0   Section        0  scheduler.o(i.rt_system_scheduler_start)
    i.rt_system_timer_init                   0x08001dd8   Section        0  timer.o(i.rt_system_timer_init)
    i.rt_system_timer_thread_init            0x08001de4   Section        0  timer.o(i.rt_system_timer_thread_init)
    i.rt_thread_create                       0x08001de6   Section        0  thread.o(i.rt_thread_create)
    i.rt_thread_delay                        0x08001e2e   Section        0  thread.o(i.rt_thread_delay)
    i.rt_thread_exit                         0x08001e34   Section        0  thread.o(i.rt_thread_exit)
    i.rt_thread_idle_entry                   0x08001e8c   Section        0  idle.o(i.rt_thread_idle_entry)
    rt_thread_idle_entry                     0x08001e8d   Thumb Code     6  idle.o(i.rt_thread_idle_entry)
    i.rt_thread_idle_excute                  0x08001e94   Section        0  idle.o(i.rt_thread_idle_excute)
    i.rt_thread_idle_init                    0x08001f0c   Section        0  idle.o(i.rt_thread_idle_init)
    i.rt_thread_init                         0x08001f44   Section        0  thread.o(i.rt_thread_init)
    i.rt_thread_resume                       0x08001f74   Section        0  thread.o(i.rt_thread_resume)
    i.rt_thread_self                         0x08001fb0   Section        0  thread.o(i.rt_thread_self)
    i.rt_thread_sleep                        0x08001fbc   Section        0  thread.o(i.rt_thread_sleep)
    i.rt_thread_startup                      0x08001ffc   Section        0  thread.o(i.rt_thread_startup)
    i.rt_thread_suspend                      0x08002028   Section        0  thread.o(i.rt_thread_suspend)
    i.rt_thread_timeout                      0x0800206a   Section        0  thread.o(i.rt_thread_timeout)
    i.rt_thread_yield                        0x0800208c   Section        0  thread.o(i.rt_thread_yield)
    i.rt_tick_get                            0x080020ec   Section        0  clock.o(i.rt_tick_get)
    i.rt_tick_increase                       0x080020f8   Section        0  clock.o(i.rt_tick_increase)
    i.rt_timer_check                         0x08002124   Section        0  timer.o(i.rt_timer_check)
    i.rt_timer_control                       0x0800218c   Section        0  timer.o(i.rt_timer_control)
    i.rt_timer_detach                        0x080021bc   Section        0  timer.o(i.rt_timer_detach)
    i.rt_timer_init                          0x080021dc   Section        0  timer.o(i.rt_timer_init)
    i.rt_timer_start                         0x08002204   Section        0  timer.o(i.rt_timer_start)
    i.rt_timer_stop                          0x08002290   Section        0  timer.o(i.rt_timer_stop)
    i.rt_vsnprintf                           0x080022c0   Section        0  kservice.o(i.rt_vsnprintf)
    i.rti_board_end                          0x0800253c   Section        0  components.o(i.rti_board_end)
    rti_board_end                            0x0800253d   Thumb Code     4  components.o(i.rti_board_end)
    i.rti_board_start                        0x08002540   Section        0  components.o(i.rti_board_start)
    rti_board_start                          0x08002541   Thumb Code     4  components.o(i.rti_board_start)
    i.rti_end                                0x08002544   Section        0  components.o(i.rti_end)
    rti_end                                  0x08002545   Thumb Code     4  components.o(i.rti_end)
    i.rti_start                              0x08002548   Section        0  components.o(i.rti_start)
    rti_start                                0x08002549   Thumb Code     4  components.o(i.rti_start)
    i.rtthread_startup                       0x0800254c   Section        0  components.o(i.rtthread_startup)
    i.skip_atoi                              0x08002576   Section        0  kservice.o(i.skip_atoi)
    skip_atoi                                0x08002577   Thumb Code    40  kservice.o(i.skip_atoi)
    .constdata                               0x0800259e   Section       16  system_stm32f1xx.o(.constdata)
    .constdata                               0x080025ae   Section        8  system_stm32f1xx.o(.constdata)
    .constdata                               0x080025b6   Section      290  kservice.o(.constdata)
    small_digits                             0x080026b6   Data          17  kservice.o(.constdata)
    large_digits                             0x080026c7   Data          17  kservice.o(.constdata)
    .rti_fn.0                                0x080026d8   Section        4  components.o(.rti_fn.0)
    __tagsym$$used                           0x080026d8   Number         0  components.o(.rti_fn.0)
    .rti_fn.0.end                            0x080026dc   Section        4  components.o(.rti_fn.0.end)
    __tagsym$$used                           0x080026dc   Number         0  components.o(.rti_fn.0.end)
    .rti_fn.1.end                            0x080026e0   Section        4  components.o(.rti_fn.1.end)
    __tagsym$$used                           0x080026e0   Number         0  components.o(.rti_fn.1.end)
    .rti_fn.6.end                            0x080026e4   Section        4  components.o(.rti_fn.6.end)
    __tagsym$$used                           0x080026e4   Number         0  components.o(.rti_fn.6.end)
    .data                                    0x20000000   Section        4  app_rt_thread.o(.data)
    led1_thread                              0x20000000   Data           4  app_rt_thread.o(.data)
    .data                                    0x20000004   Section       12  stm32f1xx_hal.o(.data)
    .data                                    0x20000010   Section        4  system_stm32f1xx.o(.data)
    .data                                    0x20000014   Section        4  clock.o(.data)
    rt_tick                                  0x20000014   Data           4  clock.o(.data)
    .data                                    0x20000018   Section        1  irq.o(.data)
    .data                                    0x2000001c   Section       24  mem.o(.data)
    heap_ptr                                 0x2000001c   Data           4  mem.o(.data)
    heap_end                                 0x20000020   Data           4  mem.o(.data)
    lfree                                    0x20000024   Data           4  mem.o(.data)
    mem_size_aligned                         0x20000028   Data           4  mem.o(.data)
    used_mem                                 0x2000002c   Data           4  mem.o(.data)
    max_mem                                  0x20000030   Data           4  mem.o(.data)
    .data                                    0x20000034   Section       48  object.o(.data)
    rt_object_container                      0x20000034   Data          48  object.o(.data)
    .data                                    0x20000064   Section       20  scheduler.o(.data)
    rt_scheduler_lock_nest                   0x20000066   Data           2  scheduler.o(.data)
    .data                                    0x20000078   Section       12  timer.o(.data)
    random_nr                                0x20000078   Data           4  timer.o(.data)
    rt_timer_list                            0x2000007c   Data           8  timer.o(.data)
    .data                                    0x20000084   Section        4  cpuport.o(.data)
    rt_exception_hook                        0x20000084   Data           4  cpuport.o(.data)
    .data                                    0x20000088   Section        4  cpuport.o(.data)
    .data                                    0x2000008c   Section        4  cpuport.o(.data)
    .data                                    0x20000090   Section        4  cpuport.o(.data)
    .bss                                     0x20000094   Section       64  usart.o(.bss)
    .bss                                     0x200000d4   Section     4096  board.o(.bss)
    rt_heap                                  0x200000d4   Data        4096  board.o(.bss)
    .bss                                     0x200010d4   Section      376  idle.o(.bss)
    idle                                     0x200010d4   Data         120  idle.o(.bss)
    rt_thread_stack                          0x2000114c   Data         256  idle.o(.bss)
    .bss                                     0x2000124c   Section      128  kservice.o(.bss)
    rt_log_buf                               0x2000124c   Data         128  kservice.o(.bss)
    .bss                                     0x200012cc   Section       32  mem.o(.bss)
    heap_sem                                 0x200012cc   Data          32  mem.o(.bss)
    .bss                                     0x200012ec   Section      256  scheduler.o(.bss)
    STACK                                    0x200013f0   Section     1024  startup_stm32f103xb.o(STACK)

    Global Symbols

    Symbol Name                              Value     Ov Type        Size  Object(Section)

    BuildAttributes$$THM_ISAv4$P$D$K$B$S$PE$A:L22UL41UL21$X:L11$S22US41US21$IEEE1$IW$USESV6$~STKCKD$USESV7$~SHL$OSPACE$EBA8$MICROLIB$REQ8$PRES8$EABIv2 0x00000000   Number         0  anon$$obj.o ABSOLUTE
    __ARM_use_no_argv                        0x00000000   Number         0  main.o ABSOLUTE
    __cpp_initialize__aeabi_                  - Undefined Weak Reference
    __cxa_finalize                            - Undefined Weak Reference
    __decompress                              - Undefined Weak Reference
    _clock_init                               - Undefined Weak Reference
    _microlib_exit                            - Undefined Weak Reference
    __Vectors_Size                           0x000000ec   Number         0  startup_stm32f103xb.o ABSOLUTE
    __Vectors                                0x08000000   Data           4  startup_stm32f103xb.o(RESET)
    __Vectors_End                            0x080000ec   Data           0  startup_stm32f103xb.o(RESET)
    __main                                   0x080000ed   Thumb Code     0  entry.o(.ARM.Collect$$$$00000000)
    _main_stk                                0x080000ed   Thumb Code     0  entry2.o(.ARM.Collect$$$$00000001)
    _main_scatterload                        0x080000f1   Thumb Code     0  entry5.o(.ARM.Collect$$$$00000004)
    __main_after_scatterload                 0x080000f5   Thumb Code     0  entry5.o(.ARM.Collect$$$$00000004)
    _main_clock                              0x080000f5   Thumb Code     0  entry7b.o(.ARM.Collect$$$$00000008)
    _main_cpp_init                           0x080000f5   Thumb Code     0  entry8b.o(.ARM.Collect$$$$0000000A)
    _main_init                               0x080000f5   Thumb Code     0  entry9a.o(.ARM.Collect$$$$0000000B)
    __rt_final_cpp                           0x080000fd   Thumb Code     0  entry10a.o(.ARM.Collect$$$$0000000D)
    __rt_final_exit                          0x080000fd   Thumb Code     0  entry11a.o(.ARM.Collect$$$$0000000F)
    Reset_Handler                            0x08000101   Thumb Code     8  startup_stm32f103xb.o(.text)
    ADC1_2_IRQHandler                        0x0800011b   Thumb Code     0  startup_stm32f103xb.o(.text)
    CAN1_RX1_IRQHandler                      0x0800011b   Thumb Code     0  startup_stm32f103xb.o(.text)
    CAN1_SCE_IRQHandler                      0x0800011b   Thumb Code     0  startup_stm32f103xb.o(.text)
    DMA1_Channel1_IRQHandler                 0x0800011b   Thumb Code     0  startup_stm32f103xb.o(.text)
    DMA1_Channel2_IRQHandler                 0x0800011b   Thumb Code     0  startup_stm32f103xb.o(.text)
    DMA1_Channel3_IRQHandler                 0x0800011b   Thumb Code     0  startup_stm32f103xb.o(.text)
    DMA1_Channel4_IRQHandler                 0x0800011b   Thumb Code     0  startup_stm32f103xb.o(.text)
    DMA1_Channel5_IRQHandler                 0x0800011b   Thumb Code     0  startup_stm32f103xb.o(.text)
    DMA1_Channel6_IRQHandler                 0x0800011b   Thumb Code     0  startup_stm32f103xb.o(.text)
    DMA1_Channel7_IRQHandler                 0x0800011b   Thumb Code     0  startup_stm32f103xb.o(.text)
    EXTI0_IRQHandler                         0x0800011b   Thumb Code     0  startup_stm32f103xb.o(.text)
    EXTI15_10_IRQHandler                     0x0800011b   Thumb Code     0  startup_stm32f103xb.o(.text)
    EXTI1_IRQHandler                         0x0800011b   Thumb Code     0  startup_stm32f103xb.o(.text)
    EXTI2_IRQHandler                         0x0800011b   Thumb Code     0  startup_stm32f103xb.o(.text)
    EXTI3_IRQHandler                         0x0800011b   Thumb Code     0  startup_stm32f103xb.o(.text)
    EXTI4_IRQHandler                         0x0800011b   Thumb Code     0  startup_stm32f103xb.o(.text)
    EXTI9_5_IRQHandler                       0x0800011b   Thumb Code     0  startup_stm32f103xb.o(.text)
    FLASH_IRQHandler                         0x0800011b   Thumb Code     0  startup_stm32f103xb.o(.text)
    I2C1_ER_IRQHandler                       0x0800011b   Thumb Code     0  startup_stm32f103xb.o(.text)
    I2C1_EV_IRQHandler                       0x0800011b   Thumb Code     0  startup_stm32f103xb.o(.text)
    I2C2_ER_IRQHandler                       0x0800011b   Thumb Code     0  startup_stm32f103xb.o(.text)
    I2C2_EV_IRQHandler                       0x0800011b   Thumb Code     0  startup_stm32f103xb.o(.text)
    PVD_IRQHandler                           0x0800011b   Thumb Code     0  startup_stm32f103xb.o(.text)
    RCC_IRQHandler                           0x0800011b   Thumb Code     0  startup_stm32f103xb.o(.text)
    RTC_Alarm_IRQHandler                     0x0800011b   Thumb Code     0  startup_stm32f103xb.o(.text)
    RTC_IRQHandler                           0x0800011b   Thumb Code     0  startup_stm32f103xb.o(.text)
    SPI1_IRQHandler                          0x0800011b   Thumb Code     0  startup_stm32f103xb.o(.text)
    SPI2_IRQHandler                          0x0800011b   Thumb Code     0  startup_stm32f103xb.o(.text)
    TAMPER_IRQHandler                        0x0800011b   Thumb Code     0  startup_stm32f103xb.o(.text)
    TIM1_BRK_IRQHandler                      0x0800011b   Thumb Code     0  startup_stm32f103xb.o(.text)
    TIM1_CC_IRQHandler                       0x0800011b   Thumb Code     0  startup_stm32f103xb.o(.text)
    TIM1_TRG_COM_IRQHandler                  0x0800011b   Thumb Code     0  startup_stm32f103xb.o(.text)
    TIM1_UP_IRQHandler                       0x0800011b   Thumb Code     0  startup_stm32f103xb.o(.text)
    TIM2_IRQHandler                          0x0800011b   Thumb Code     0  startup_stm32f103xb.o(.text)
    TIM3_IRQHandler                          0x0800011b   Thumb Code     0  startup_stm32f103xb.o(.text)
    TIM4_IRQHandler                          0x0800011b   Thumb Code     0  startup_stm32f103xb.o(.text)
    USART1_IRQHandler                        0x0800011b   Thumb Code     0  startup_stm32f103xb.o(.text)
    USART2_IRQHandler                        0x0800011b   Thumb Code     0  startup_stm32f103xb.o(.text)
    USART3_IRQHandler                        0x0800011b   Thumb Code     0  startup_stm32f103xb.o(.text)
    USBWakeUp_IRQHandler                     0x0800011b   Thumb Code     0  startup_stm32f103xb.o(.text)
    USB_HP_CAN1_TX_IRQHandler                0x0800011b   Thumb Code     0  startup_stm32f103xb.o(.text)
    USB_LP_CAN1_RX0_IRQHandler               0x0800011b   Thumb Code     0  startup_stm32f103xb.o(.text)
    WWDG_IRQHandler                          0x0800011b   Thumb Code     0  startup_stm32f103xb.o(.text)
    rt_hw_interrupt_disable                  0x08000125   Thumb Code     8  context_rvds.o(.text)
    rt_hw_interrupt_enable                   0x0800012d   Thumb Code     6  context_rvds.o(.text)
    rt_hw_context_switch                     0x08000133   Thumb Code    32  context_rvds.o(.text)
    rt_hw_context_switch_interrupt           0x08000133   Thumb Code     0  context_rvds.o(.text)
    PendSV_Handler                           0x08000153   Thumb Code    60  context_rvds.o(.text)
    rt_hw_context_switch_to                  0x0800018f   Thumb Code    58  context_rvds.o(.text)
    rt_hw_interrupt_thread_switch            0x080001c9   Thumb Code     2  context_rvds.o(.text)
    HardFault_Handler                        0x080001cb   Thumb Code    52  context_rvds.o(.text)
    __aeabi_memset                           0x08000219   Thumb Code    14  memseta.o(.text)
    __aeabi_memset4                          0x08000219   Thumb Code     0  memseta.o(.text)
    __aeabi_memset8                          0x08000219   Thumb Code     0  memseta.o(.text)
    __aeabi_memclr                           0x08000227   Thumb Code     4  memseta.o(.text)
    __aeabi_memclr4                          0x08000227   Thumb Code     0  memseta.o(.text)
    __aeabi_memclr8                          0x08000227   Thumb Code     0  memseta.o(.text)
    _memset$wrapper                          0x0800022b   Thumb Code    18  memseta.o(.text)
    __scatterload                            0x0800023d   Thumb Code    28  init.o(.text)
    __scatterload_rt2                        0x0800023d   Thumb Code     0  init.o(.text)
    main                                     0x08000261   Thumb Code    10  components.o(i.$Sub$$main)
    BusFault_Handler                         0x0800026b   Thumb Code     2  stm32f1xx_it.o(i.BusFault_Handler)
    DebugMon_Handler                         0x0800026d   Thumb Code     2  stm32f1xx_it.o(i.DebugMon_Handler)
    Error_Handler                            0x0800026f   Thumb Code     2  main.o(i.Error_Handler)
    HAL_GPIO_Init                            0x08000271   Thumb Code   446  stm32f1xx_hal_gpio.o(i.HAL_GPIO_Init)
    HAL_GPIO_WritePin                        0x08000451   Thumb Code    10  stm32f1xx_hal_gpio.o(i.HAL_GPIO_WritePin)
    HAL_GetTick                              0x0800045d   Thumb Code     6  stm32f1xx_hal.o(i.HAL_GetTick)
    HAL_Init                                 0x08000469   Thumb Code    32  stm32f1xx_hal.o(i.HAL_Init)
    HAL_InitTick                             0x0800048d   Thumb Code    54  stm32f1xx_hal.o(i.HAL_InitTick)
    HAL_MspInit                              0x080004cd   Thumb Code    52  stm32f1xx_hal_msp.o(i.HAL_MspInit)
    HAL_NVIC_SetPriority                     0x08000509   Thumb Code    60  stm32f1xx_hal_cortex.o(i.HAL_NVIC_SetPriority)
    HAL_NVIC_SetPriorityGrouping             0x08000549   Thumb Code    26  stm32f1xx_hal_cortex.o(i.HAL_NVIC_SetPriorityGrouping)
    HAL_RCC_ClockConfig                      0x0800056d   Thumb Code   280  stm32f1xx_hal_rcc.o(i.HAL_RCC_ClockConfig)
    HAL_RCC_GetPCLK1Freq                     0x08000699   Thumb Code    20  stm32f1xx_hal_rcc.o(i.HAL_RCC_GetPCLK1Freq)
    HAL_RCC_GetPCLK2Freq                     0x080006b9   Thumb Code    20  stm32f1xx_hal_rcc.o(i.HAL_RCC_GetPCLK2Freq)
    HAL_RCC_GetSysClockFreq                  0x080006d9   Thumb Code    74  stm32f1xx_hal_rcc.o(i.HAL_RCC_GetSysClockFreq)
    HAL_RCC_OscConfig                        0x08000745   Thumb Code   778  stm32f1xx_hal_rcc.o(i.HAL_RCC_OscConfig)
    HAL_SYSTICK_Config                       0x08000a65   Thumb Code    40  stm32f1xx_hal_cortex.o(i.HAL_SYSTICK_Config)
    HAL_UART_Init                            0x08000a8d   Thumb Code    98  stm32f1xx_hal_uart.o(i.HAL_UART_Init)
    HAL_UART_MspInit                         0x08000af1   Thumb Code   100  usart.o(i.HAL_UART_MspInit)
    HAL_UART_Transmit                        0x08000b61   Thumb Code   186  stm32f1xx_hal_uart.o(i.HAL_UART_Transmit)
    MX_GPIO_Init                             0x08000c1d   Thumb Code   104  gpio.o(i.MX_GPIO_Init)
    MX_RT_Thread_Init                        0x08000c8d   Thumb Code    44  app_rt_thread.o(i.MX_RT_Thread_Init)
    MX_USART1_UART_Init                      0x08000cc9   Thumb Code    48  usart.o(i.MX_USART1_UART_Init)
    MemManage_Handler                        0x08000d01   Thumb Code     2  stm32f1xx_it.o(i.MemManage_Handler)
    NMI_Handler                              0x08000d03   Thumb Code     2  stm32f1xx_it.o(i.NMI_Handler)
    SVC_Handler                              0x08000d05   Thumb Code     2  stm32f1xx_it.o(i.SVC_Handler)
    SysTick_Handler                          0x08000d07   Thumb Code    18  board.o(i.SysTick_Handler)
    SystemClock_Config                       0x08000d19   Thumb Code    78  main.o(i.SystemClock_Config)
    SystemCoreClockUpdate                    0x08000d69   Thumb Code    82  system_stm32f1xx.o(i.SystemCoreClockUpdate)
    SystemInit                               0x08000dd1   Thumb Code    56  system_stm32f1xx.o(i.SystemInit)
    UsageFault_Handler                       0x08000f35   Thumb Code     2  stm32f1xx_it.o(i.UsageFault_Handler)
    __rt_ffs                                 0x08000f59   Thumb Code    62  kservice.o(i.__rt_ffs)
    __scatterload_copy                       0x08000f9d   Thumb Code    14  handlers.o(i.__scatterload_copy)
    __scatterload_null                       0x08000fab   Thumb Code     2  handlers.o(i.__scatterload_null)
    __scatterload_zeroinit                   0x08000fad   Thumb Code    14  handlers.o(i.__scatterload_zeroinit)
    $Super$$main                             0x080010fd   Thumb Code    22  main.o(i.main)
    main_thread_entry                        0x08001113   Thumb Code    14  components.o(i.main_thread_entry)
    rt_application_init                      0x080012a5   Thumb Code    32  components.o(i.rt_application_init)
    rt_components_board_init                 0x080012d1   Thumb Code    20  components.o(i.rt_components_board_init)
    rt_components_init                       0x080012ed   Thumb Code    20  components.o(i.rt_components_init)
    rt_enter_critical                        0x08001309   Thumb Code    22  scheduler.o(i.rt_enter_critical)
    rt_exit_critical                         0x08001325   Thumb Code    52  scheduler.o(i.rt_exit_critical)
    rt_free                                  0x0800135d   Thumb Code   112  mem.o(i.rt_free)
    rt_heap_begin_get                        0x08001421   Thumb Code     4  board.o(i.rt_heap_begin_get)
    rt_heap_end_get                          0x08001429   Thumb Code     4  board.o(i.rt_heap_end_get)
    rt_hw_board_init                         0x08001431   Thumb Code    70  board.o(i.rt_hw_board_init)
    rt_hw_console_output                     0x08001481   Thumb Code    58  kservice.o(i.rt_hw_console_output)
    rt_hw_hard_fault_exception               0x080014c1   Thumb Code   178  cpuport.o(i.rt_hw_hard_fault_exception)
    rt_hw_stack_init                         0x080016b5   Thumb Code    52  cpuport.o(i.rt_hw_stack_init)
    rt_interrupt_enter                       0x080016ed   Thumb Code    22  irq.o(i.rt_interrupt_enter)
    rt_interrupt_leave                       0x08001709   Thumb Code    22  irq.o(i.rt_interrupt_leave)
    rt_kprintf                               0x08001725   Thumb Code    28  kservice.o(i.rt_kprintf)
    rt_malloc                                0x080017a1   Thumb Code   232  mem.o(i.rt_malloc)
    rt_memset                                0x08001891   Thumb Code    70  kservice.o(i.rt_memset)
    rt_object_allocate                       0x080018d7   Thumb Code    80  object.o(i.rt_object_allocate)
    rt_object_delete                         0x08001927   Thumb Code    38  object.o(i.rt_object_delete)
    rt_object_detach                         0x0800194d   Thumb Code    32  object.o(i.rt_object_detach)
    rt_object_get_information                0x0800196d   Thumb Code    30  object.o(i.rt_object_get_information)
    rt_object_init                           0x08001991   Thumb Code    80  object.o(i.rt_object_init)
    rt_object_is_systemobject                0x080019e1   Thumb Code    14  object.o(i.rt_object_is_systemobject)
    rt_schedule                              0x080019f1   Thumb Code    76  scheduler.o(i.rt_schedule)
    rt_schedule_insert_thread                0x08001a49   Thumb Code    70  scheduler.o(i.rt_schedule_insert_thread)
    rt_schedule_remove_thread                0x08001a99   Thumb Code    64  scheduler.o(i.rt_schedule_remove_thread)
    rt_sem_init                              0x08001ae1   Thumb Code    36  ipc.o(i.rt_sem_init)
    rt_sem_release                           0x08001b05   Thumb Code    54  ipc.o(i.rt_sem_release)
    rt_sem_take                              0x08001b3b   Thumb Code   174  ipc.o(i.rt_sem_take)
    rt_show_version                          0x08001be9   Thumb Code    40  kservice.o(i.rt_show_version)
    rt_strlen                                0x08001c99   Thumb Code    16  kservice.o(i.rt_strlen)
    rt_strncpy                               0x08001ca9   Thumb Code    38  kservice.o(i.rt_strncpy)
    rt_system_heap_init                      0x08001cd1   Thumb Code    96  mem.o(i.rt_system_heap_init)
    rt_system_scheduler_init                 0x08001d7d   Thumb Code    44  scheduler.o(i.rt_system_scheduler_init)
    rt_system_scheduler_start                0x08001db1   Thumb Code    32  scheduler.o(i.rt_system_scheduler_start)
    rt_system_timer_init                     0x08001dd9   Thumb Code     8  timer.o(i.rt_system_timer_init)
    rt_system_timer_thread_init              0x08001de5   Thumb Code     2  timer.o(i.rt_system_timer_thread_init)
    rt_thread_create                         0x08001de7   Thumb Code    72  thread.o(i.rt_thread_create)
    rt_thread_delay                          0x08001e2f   Thumb Code     4  thread.o(i.rt_thread_delay)
    rt_thread_exit                           0x08001e35   Thumb Code    78  thread.o(i.rt_thread_exit)
    rt_thread_idle_excute                    0x08001e95   Thumb Code   114  idle.o(i.rt_thread_idle_excute)
    rt_thread_idle_init                      0x08001f0d   Thumb Code    40  idle.o(i.rt_thread_idle_init)
    rt_thread_init                           0x08001f45   Thumb Code    48  thread.o(i.rt_thread_init)
    rt_thread_resume                         0x08001f75   Thumb Code    60  thread.o(i.rt_thread_resume)
    rt_thread_self                           0x08001fb1   Thumb Code     6  thread.o(i.rt_thread_self)
    rt_thread_sleep                          0x08001fbd   Thumb Code    60  thread.o(i.rt_thread_sleep)
    rt_thread_startup                        0x08001ffd   Thumb Code    40  thread.o(i.rt_thread_startup)
    rt_thread_suspend                        0x08002029   Thumb Code    66  thread.o(i.rt_thread_suspend)
    rt_thread_timeout                        0x0800206b   Thumb Code    32  thread.o(i.rt_thread_timeout)
    rt_thread_yield                          0x0800208d   Thumb Code    86  thread.o(i.rt_thread_yield)
    rt_tick_get                              0x080020ed   Thumb Code     6  clock.o(i.rt_tick_get)
    rt_tick_increase                         0x080020f9   Thumb Code    38  clock.o(i.rt_tick_increase)
    rt_timer_check                           0x08002125   Thumb Code    98  timer.o(i.rt_timer_check)
    rt_timer_control                         0x0800218d   Thumb Code    48  timer.o(i.rt_timer_control)
    rt_timer_detach                          0x080021bd   Thumb Code    32  timer.o(i.rt_timer_detach)
    rt_timer_init                            0x080021dd   Thumb Code    40  timer.o(i.rt_timer_init)
    rt_timer_start                           0x08002205   Thumb Code   136  timer.o(i.rt_timer_start)
    rt_timer_stop                            0x08002291   Thumb Code    46  timer.o(i.rt_timer_stop)
    rt_vsnprintf                             0x080022c1   Thumb Code   626  kservice.o(i.rt_vsnprintf)
    rtthread_startup                         0x0800254d   Thumb Code    42  components.o(i.rtthread_startup)
    AHBPrescTable                            0x0800259e   Data          16  system_stm32f1xx.o(.constdata)
    APBPrescTable                            0x080025ae   Data           8  system_stm32f1xx.o(.constdata)
    __lowest_bit_bitmap                      0x080025b6   Data         256  kservice.o(.constdata)
    __rt_init_rti_start                      0x080026d8   Data           4  components.o(.rti_fn.0)
    __rt_init_rti_board_start                0x080026dc   Data           4  components.o(.rti_fn.0.end)
    __rt_init_rti_board_end                  0x080026e0   Data           4  components.o(.rti_fn.1.end)
    __rt_init_rti_end                        0x080026e4   Data           4  components.o(.rti_fn.6.end)
    Region$$Table$$Base                      0x080026e8   Number         0  anon$$obj.o(Region$$Table)
    Region$$Table$$Limit                     0x08002708   Number         0  anon$$obj.o(Region$$Table)
    uwTickFreq                               0x20000004   Data           1  stm32f1xx_hal.o(.data)
    uwTickPrio                               0x20000008   Data           4  stm32f1xx_hal.o(.data)
    uwTick                                   0x2000000c   Data           4  stm32f1xx_hal.o(.data)
    SystemCoreClock                          0x20000010   Data           4  system_stm32f1xx.o(.data)
    rt_interrupt_nest                        0x20000018   Data           1  irq.o(.data)
    rt_current_priority                      0x20000064   Data           1  scheduler.o(.data)
    rt_current_thread                        0x20000068   Data           4  scheduler.o(.data)
    rt_thread_ready_priority_group           0x2000006c   Data           4  scheduler.o(.data)
    rt_thread_defunct                        0x20000070   Data           8  scheduler.o(.data)
    rt_interrupt_from_thread                 0x20000088   Data           4  cpuport.o(.data)
    rt_interrupt_to_thread                   0x2000008c   Data           4  cpuport.o(.data)
    rt_thread_switch_interrupt_flag          0x20000090   Data           4  cpuport.o(.data)
    huart1                                   0x20000094   Data          64  usart.o(.bss)
    rt_thread_priority_table                 0x200012ec   Data         256  scheduler.o(.bss)
    __initial_sp                             0x200017f0   Data           0  startup_stm32f103xb.o(STACK)



==============================================================================

Memory Map of the image

  Image Entry point : 0x080000ed

  Load Region LR_IROM1 (Base: 0x08000000, Size: 0x0000279c, Max: 0x00020000, ABSOLUTE)

    Execution Region ER_IROM1 (Exec base: 0x08000000, Load base: 0x08000000, Size: 0x00002708, Max: 0x00020000, ABSOLUTE)

    Exec Addr    Load Addr    Size         Type   Attr      Idx    E Section Name        Object

    0x08000000   0x08000000   0x000000ec   Data   RO            3    RESET               startup_stm32f103xb.o
    0x080000ec   0x080000ec   0x00000000   Code   RO         2655  * .ARM.Collect$$$$00000000  mc_w.l(entry.o)
    0x080000ec   0x080000ec   0x00000004   Code   RO         2662    .ARM.Collect$$$$00000001  mc_w.l(entry2.o)
    0x080000f0   0x080000f0   0x00000004   Code   RO         2665    .ARM.Collect$$$$00000004  mc_w.l(entry5.o)
    0x080000f4   0x080000f4   0x00000000   Code   RO         2667    .ARM.Collect$$$$00000008  mc_w.l(entry7b.o)
    0x080000f4   0x080000f4   0x00000000   Code   RO         2669    .ARM.Collect$$$$0000000A  mc_w.l(entry8b.o)
    0x080000f4   0x080000f4   0x00000008   Code   RO         2670    .ARM.Collect$$$$0000000B  mc_w.l(entry9a.o)
    0x080000fc   0x080000fc   0x00000000   Code   RO         2672    .ARM.Collect$$$$0000000D  mc_w.l(entry10a.o)
    0x080000fc   0x080000fc   0x00000000   Code   RO         2674    .ARM.Collect$$$$0000000F  mc_w.l(entry11a.o)
    0x080000fc   0x080000fc   0x00000004   Code   RO         2663    .ARM.Collect$$$$00002712  mc_w.l(entry2.o)
    0x08000100   0x08000100   0x00000024   Code   RO            4    .text               startup_stm32f103xb.o
    0x08000124   0x08000124   0x000000f4   Code   RO         1749    .text               context_rvds.o
    0x08000218   0x08000218   0x00000024   Code   RO         2660    .text               mc_w.l(memseta.o)
    0x0800023c   0x0800023c   0x00000024   Code   RO         2676    .text               mc_w.l(init.o)
    0x08000260   0x08000260   0x0000000a   Code   RO         1827    i.$Sub$$main        components.o
    0x0800026a   0x0800026a   0x00000002   Code   RO          201    i.BusFault_Handler  stm32f1xx_it.o
    0x0800026c   0x0800026c   0x00000002   Code   RO          202    i.DebugMon_Handler  stm32f1xx_it.o
    0x0800026e   0x0800026e   0x00000002   Code   RO           13    i.Error_Handler     main.o
    0x08000270   0x08000270   0x000001e0   Code   RO          692    i.HAL_GPIO_Init     stm32f1xx_hal_gpio.o
    0x08000450   0x08000450   0x0000000a   Code   RO          696    i.HAL_GPIO_WritePin  stm32f1xx_hal_gpio.o
    0x0800045a   0x0800045a   0x00000002   PAD
    0x0800045c   0x0800045c   0x0000000c   Code   RO          388    i.HAL_GetTick       stm32f1xx_hal.o
    0x08000468   0x08000468   0x00000024   Code   RO          395    i.HAL_Init          stm32f1xx_hal.o
    0x0800048c   0x0800048c   0x00000040   Code   RO          396    i.HAL_InitTick      stm32f1xx_hal.o
    0x080004cc   0x080004cc   0x0000003c   Code   RO          258    i.HAL_MspInit       stm32f1xx_hal_msp.o
    0x08000508   0x08000508   0x00000040   Code   RO          858    i.HAL_NVIC_SetPriority  stm32f1xx_hal_cortex.o
    0x08000548   0x08000548   0x00000024   Code   RO          859    i.HAL_NVIC_SetPriorityGrouping  stm32f1xx_hal_cortex.o
    0x0800056c   0x0800056c   0x0000012c   Code   RO          552    i.HAL_RCC_ClockConfig  stm32f1xx_hal_rcc.o
    0x08000698   0x08000698   0x00000020   Code   RO          559    i.HAL_RCC_GetPCLK1Freq  stm32f1xx_hal_rcc.o
    0x080006b8   0x080006b8   0x00000020   Code   RO          560    i.HAL_RCC_GetPCLK2Freq  stm32f1xx_hal_rcc.o
    0x080006d8   0x080006d8   0x0000006c   Code   RO          561    i.HAL_RCC_GetSysClockFreq  stm32f1xx_hal_rcc.o
    0x08000744   0x08000744   0x00000320   Code   RO          564    i.HAL_RCC_OscConfig  stm32f1xx_hal_rcc.o
    0x08000a64   0x08000a64   0x00000028   Code   RO          863    i.HAL_SYSTICK_Config  stm32f1xx_hal_cortex.o
    0x08000a8c   0x08000a8c   0x00000062   Code   RO         1413    i.HAL_UART_Init     stm32f1xx_hal_uart.o
    0x08000aee   0x08000aee   0x00000002   PAD
    0x08000af0   0x08000af0   0x00000070   Code   RO          160    i.HAL_UART_MspInit  usart.o
    0x08000b60   0x08000b60   0x000000ba   Code   RO         1421    i.HAL_UART_Transmit  stm32f1xx_hal_uart.o
    0x08000c1a   0x08000c1a   0x00000002   PAD
    0x08000c1c   0x08000c1c   0x00000070   Code   RO          135    i.MX_GPIO_Init      gpio.o
    0x08000c8c   0x08000c8c   0x0000003c   Code   RO          282    i.MX_RT_Thread_Init  app_rt_thread.o
    0x08000cc8   0x08000cc8   0x00000038   Code   RO          161    i.MX_USART1_UART_Init  usart.o
    0x08000d00   0x08000d00   0x00000002   Code   RO          203    i.MemManage_Handler  stm32f1xx_it.o
    0x08000d02   0x08000d02   0x00000002   Code   RO          204    i.NMI_Handler       stm32f1xx_it.o
    0x08000d04   0x08000d04   0x00000002   Code   RO          205    i.SVC_Handler       stm32f1xx_it.o
    0x08000d06   0x08000d06   0x00000012   Code   RO         1753    i.SysTick_Handler   board.o
    0x08000d18   0x08000d18   0x0000004e   Code   RO           14    i.SystemClock_Config  main.o
    0x08000d66   0x08000d66   0x00000002   PAD
    0x08000d68   0x08000d68   0x00000068   Code   RO         1714    i.SystemCoreClockUpdate  system_stm32f1xx.o
    0x08000dd0   0x08000dd0   0x00000048   Code   RO         1715    i.SystemInit        system_stm32f1xx.o
    0x08000e18   0x08000e18   0x000000b8   Code   RO         1439    i.UART_SetConfig    stm32f1xx_hal_uart.o
    0x08000ed0   0x08000ed0   0x00000064   Code   RO         1441    i.UART_WaitOnFlagUntilTimeout  stm32f1xx_hal_uart.o
    0x08000f34   0x08000f34   0x00000002   Code   RO          206    i.UsageFault_Handler  stm32f1xx_it.o
    0x08000f36   0x08000f36   0x00000020   Code   RO          865    i.__NVIC_SetPriority  stm32f1xx_hal_cortex.o
    0x08000f56   0x08000f56   0x00000002   PAD
    0x08000f58   0x08000f58   0x00000044   Code   RO         2031    i.__rt_ffs          kservice.o
    0x08000f9c   0x08000f9c   0x0000000e   Code   RO         2680    i.__scatterload_copy  mc_w.l(handlers.o)
    0x08000faa   0x08000faa   0x00000002   Code   RO         2681    i.__scatterload_null  mc_w.l(handlers.o)
    0x08000fac   0x08000fac   0x0000000e   Code   RO         2682    i.__scatterload_zeroinit  mc_w.l(handlers.o)
    0x08000fba   0x08000fba   0x00000002   PAD
    0x08000fbc   0x08000fbc   0x00000014   Code   RO         1894    i._has_defunct_thread  idle.o
    0x08000fd0   0x08000fd0   0x00000080   Code   RO         2401    i._rt_thread_init   thread.o
    0x08001050   0x08001050   0x0000001c   Code   RO         2521    i._rt_timer_init    timer.o
    0x0800106c   0x0800106c   0x00000012   Code   RO         2522    i._rt_timer_remove  timer.o
    0x0800107e   0x0800107e   0x00000002   PAD
    0x08001080   0x08001080   0x0000007c   Code   RO          283    i.led1_thread_entry  app_rt_thread.o
    0x080010fc   0x080010fc   0x00000016   Code   RO           15    i.main              main.o
    0x08001112   0x08001112   0x0000000e   Code   RO         1828    i.main_thread_entry  components.o
    0x08001120   0x08001120   0x00000054   Code   RO         2214    i.plug_holes        mem.o
    0x08001174   0x08001174   0x00000130   Code   RO         2033    i.print_number      kservice.o
    0x080012a4   0x080012a4   0x0000002c   Code   RO         1829    i.rt_application_init  components.o
    0x080012d0   0x080012d0   0x0000001c   Code   RO         1830    i.rt_components_board_init  components.o
    0x080012ec   0x080012ec   0x0000001c   Code   RO         1831    i.rt_components_init  components.o
    0x08001308   0x08001308   0x0000001c   Code   RO         2340    i.rt_enter_critical  scheduler.o
    0x08001324   0x08001324   0x00000038   Code   RO         2341    i.rt_exit_critical  scheduler.o
    0x0800135c   0x0800135c   0x000000c4   Code   RO         2216    i.rt_free           mem.o
    0x08001420   0x08001420   0x00000008   Code   RO         1754    i.rt_heap_begin_get  board.o
    0x08001428   0x08001428   0x00000008   Code   RO         1755    i.rt_heap_end_get   board.o
    0x08001430   0x08001430   0x00000050   Code   RO         1756    i.rt_hw_board_init  board.o
    0x08001480   0x08001480   0x00000040   Code   RO         2036    i.rt_hw_console_output  kservice.o
    0x080014c0   0x080014c0   0x000001f4   Code   RO         2616    i.rt_hw_hard_fault_exception  cpuport.o
    0x080016b4   0x080016b4   0x00000038   Code   RO         2617    i.rt_hw_stack_init  cpuport.o
    0x080016ec   0x080016ec   0x0000001c   Code   RO         2001    i.rt_interrupt_enter  irq.o
    0x08001708   0x08001708   0x0000001c   Code   RO         2003    i.rt_interrupt_leave  irq.o
    0x08001724   0x08001724   0x00000020   Code   RO         2037    i.rt_kprintf        kservice.o
    0x08001744   0x08001744   0x0000000e   Code   RO         2264    i.rt_list_insert_after  object.o
    0x08001752   0x08001752   0x0000000e   Code   RO         2402    i.rt_list_insert_after  thread.o
    0x08001760   0x08001760   0x0000000e   Code   RO         2523    i.rt_list_insert_after  timer.o
    0x0800176e   0x0800176e   0x0000000e   Code   RO         1935    i.rt_list_insert_before  ipc.o
    0x0800177c   0x0800177c   0x00000012   Code   RO         2265    i.rt_list_remove    object.o
    0x0800178e   0x0800178e   0x00000012   Code   RO         2403    i.rt_list_remove    thread.o
    0x080017a0   0x080017a0   0x000000f0   Code   RO         2217    i.rt_malloc         mem.o
    0x08001890   0x08001890   0x00000046   Code   RO         2043    i.rt_memset         kservice.o
    0x080018d6   0x080018d6   0x00000050   Code   RO         2266    i.rt_object_allocate  object.o
    0x08001926   0x08001926   0x00000026   Code   RO         2267    i.rt_object_delete  object.o
    0x0800194c   0x0800194c   0x00000020   Code   RO         2268    i.rt_object_detach  object.o
    0x0800196c   0x0800196c   0x00000024   Code   RO         2270    i.rt_object_get_information  object.o
    0x08001990   0x08001990   0x00000050   Code   RO         2272    i.rt_object_init    object.o
    0x080019e0   0x080019e0   0x0000000e   Code   RO         2273    i.rt_object_is_systemobject  object.o
    0x080019ee   0x080019ee   0x00000002   PAD
    0x080019f0   0x080019f0   0x00000058   Code   RO         2342    i.rt_schedule       scheduler.o
    0x08001a48   0x08001a48   0x00000050   Code   RO         2343    i.rt_schedule_insert_thread  scheduler.o
    0x08001a98   0x08001a98   0x00000048   Code   RO         2344    i.rt_schedule_remove_thread  scheduler.o
    0x08001ae0   0x08001ae0   0x00000024   Code   RO         1940    i.rt_sem_init       ipc.o
    0x08001b04   0x08001b04   0x00000036   Code   RO         1941    i.rt_sem_release    ipc.o
    0x08001b3a   0x08001b3a   0x000000ae   Code   RO         1942    i.rt_sem_take       ipc.o
    0x08001be8   0x08001be8   0x000000b0   Code   RO         2045    i.rt_show_version   kservice.o
    0x08001c98   0x08001c98   0x00000010   Code   RO         2051    i.rt_strlen         kservice.o
    0x08001ca8   0x08001ca8   0x00000026   Code   RO         2053    i.rt_strncpy        kservice.o
    0x08001cce   0x08001cce   0x00000002   PAD
    0x08001cd0   0x08001cd0   0x000000ac   Code   RO         2220    i.rt_system_heap_init  mem.o
    0x08001d7c   0x08001d7c   0x00000034   Code   RO         2345    i.rt_system_scheduler_init  scheduler.o
    0x08001db0   0x08001db0   0x00000028   Code   RO         2346    i.rt_system_scheduler_start  scheduler.o
    0x08001dd8   0x08001dd8   0x0000000c   Code   RO         2524    i.rt_system_timer_init  timer.o
    0x08001de4   0x08001de4   0x00000002   Code   RO         2525    i.rt_system_timer_thread_init  timer.o
    0x08001de6   0x08001de6   0x00000048   Code   RO         2405    i.rt_thread_create  thread.o
    0x08001e2e   0x08001e2e   0x00000004   Code   RO         2406    i.rt_thread_delay   thread.o
    0x08001e32   0x08001e32   0x00000002   PAD
    0x08001e34   0x08001e34   0x00000058   Code   RO         2409    i.rt_thread_exit    thread.o
    0x08001e8c   0x08001e8c   0x00000006   Code   RO         1895    i.rt_thread_idle_entry  idle.o
    0x08001e92   0x08001e92   0x00000002   PAD
    0x08001e94   0x08001e94   0x00000078   Code   RO         1896    i.rt_thread_idle_excute  idle.o
    0x08001f0c   0x08001f0c   0x00000038   Code   RO         1898    i.rt_thread_idle_init  idle.o
    0x08001f44   0x08001f44   0x00000030   Code   RO         2411    i.rt_thread_init    thread.o
    0x08001f74   0x08001f74   0x0000003c   Code   RO         2413    i.rt_thread_resume  thread.o
    0x08001fb0   0x08001fb0   0x0000000c   Code   RO         2414    i.rt_thread_self    thread.o
    0x08001fbc   0x08001fbc   0x00000040   Code   RO         2415    i.rt_thread_sleep   thread.o
    0x08001ffc   0x08001ffc   0x0000002c   Code   RO         2416    i.rt_thread_startup  thread.o
    0x08002028   0x08002028   0x00000042   Code   RO         2417    i.rt_thread_suspend  thread.o
    0x0800206a   0x0800206a   0x00000020   Code   RO         2418    i.rt_thread_timeout  thread.o
    0x0800208a   0x0800208a   0x00000002   PAD
    0x0800208c   0x0800208c   0x00000060   Code   RO         2419    i.rt_thread_yield   thread.o
    0x080020ec   0x080020ec   0x0000000c   Code   RO         1791    i.rt_tick_get       clock.o
    0x080020f8   0x080020f8   0x0000002c   Code   RO         1792    i.rt_tick_increase  clock.o
    0x08002124   0x08002124   0x00000068   Code   RO         2526    i.rt_timer_check    timer.o
    0x0800218c   0x0800218c   0x00000030   Code   RO         2527    i.rt_timer_control  timer.o
    0x080021bc   0x080021bc   0x00000020   Code   RO         2530    i.rt_timer_detach   timer.o
    0x080021dc   0x080021dc   0x00000028   Code   RO         2531    i.rt_timer_init     timer.o
    0x08002204   0x08002204   0x0000008c   Code   RO         2533    i.rt_timer_start    timer.o
    0x08002290   0x08002290   0x0000002e   Code   RO         2534    i.rt_timer_stop     timer.o
    0x080022be   0x080022be   0x00000002   PAD
    0x080022c0   0x080022c0   0x0000027c   Code   RO         2056    i.rt_vsnprintf      kservice.o
    0x0800253c   0x0800253c   0x00000004   Code   RO         1832    i.rti_board_end     components.o
    0x08002540   0x08002540   0x00000004   Code   RO         1833    i.rti_board_start   components.o
    0x08002544   0x08002544   0x00000004   Code   RO         1834    i.rti_end           components.o
    0x08002548   0x08002548   0x00000004   Code   RO         1835    i.rti_start         components.o
    0x0800254c   0x0800254c   0x0000002a   Code   RO         1836    i.rtthread_startup  components.o
    0x08002576   0x08002576   0x00000028   Code   RO         2058    i.skip_atoi         kservice.o
    0x0800259e   0x0800259e   0x00000010   Data   RO         1716    .constdata          system_stm32f1xx.o
    0x080025ae   0x080025ae   0x00000008   Data   RO         1717    .constdata          system_stm32f1xx.o
    0x080025b6   0x080025b6   0x00000122   Data   RO         2060    .constdata          kservice.o
    0x080026d8   0x080026d8   0x00000004   Data   RO         1837    .rti_fn.0           components.o
    0x080026dc   0x080026dc   0x00000004   Data   RO         1838    .rti_fn.0.end       components.o
    0x080026e0   0x080026e0   0x00000004   Data   RO         1839    .rti_fn.1.end       components.o
    0x080026e4   0x080026e4   0x00000004   Data   RO         1840    .rti_fn.6.end       components.o
    0x080026e8   0x080026e8   0x00000020   Data   RO         2678    Region$$Table       anon$$obj.o


    Execution Region RW_IRAM1 (Exec base: 0x20000000, Load base: 0x08002708, Size: 0x000017f0, Max: 0x00005000, ABSOLUTE)

    Exec Addr    Load Addr    Size         Type   Attr      Idx    E Section Name        Object

    0x20000000   0x08002708   0x00000004   Data   RW          284    .data               app_rt_thread.o
    0x20000004   0x0800270c   0x0000000c   Data   RW          402    .data               stm32f1xx_hal.o
    0x20000010   0x08002718   0x00000004   Data   RW         1718    .data               system_stm32f1xx.o
    0x20000014   0x0800271c   0x00000004   Data   RW         1794    .data               clock.o
    0x20000018   0x08002720   0x00000001   Data   RW         2004    .data               irq.o
    0x20000019   0x08002721   0x00000003   PAD
    0x2000001c   0x08002724   0x00000018   Data   RW         2222    .data               mem.o
    0x20000034   0x0800273c   0x00000030   Data   RW         2275    .data               object.o
    0x20000064   0x0800276c   0x00000014   Data   RW         2348    .data               scheduler.o
    0x20000078   0x08002780   0x0000000c   Data   RW         2535    .data               timer.o
    0x20000084   0x0800278c   0x00000004   Data   RW         2618    .data               cpuport.o
    0x20000088   0x08002790   0x00000004   Data   RW         2619    .data               cpuport.o
    0x2000008c   0x08002794   0x00000004   Data   RW         2620    .data               cpuport.o
    0x20000090   0x08002798   0x00000004   Data   RW         2621    .data               cpuport.o
    0x20000094        -       0x00000040   Zero   RW          162    .bss                usart.o
    0x200000d4        -       0x00001000   Zero   RW         1757    .bss                board.o
    0x200010d4        -       0x00000178   Zero   RW         1899    .bss                idle.o
    0x2000124c        -       0x00000080   Zero   RW         2059    .bss                kservice.o
    0x200012cc        -       0x00000020   Zero   RW         2221    .bss                mem.o
    0x200012ec        -       0x00000100   Zero   RW         2347    .bss                scheduler.o
    0x200013ec   0x0800279c   0x00000004   PAD
    0x200013f0        -       0x00000400   Zero   RW            1    STACK               startup_stm32f103xb.o


==============================================================================

Image component sizes


      Code (inc. data)   RO Data    RW Data    ZI Data      Debug   Object Name

       184         84          0          4          0       6768   app_rt_thread.o
       114         18          0          0       4096       3465   board.o
        56         12          0          4          0       1409   clock.o
       182         28         16          0          0       6686   components.o
       244         26          0          0          0        868   context_rvds.o
       556        326          0         16          0       3558   cpuport.o
       112          8          0          0          0        907   gpio.o
       202         26          0          0        376       6090   idle.o
       278          0          0          0          0       6769   ipc.o
        56         12          0          1          0       1894   irq.o
      1444        166        290          0        128      11695   kservice.o
       102          0          0          0          0     393768   main.o
       692        172          0         24         32       4376   mem.o
       312          6          0         48          0       9144   object.o
       416         56          0         20        256       8934   scheduler.o
        36          8        236          0       1024        812   startup_stm32f103xb.o
       112         20          0         12          0       4871   stm32f1xx_hal.o
       172         14          0          0          0      28338   stm32f1xx_hal_cortex.o
       490         34          0          0          0       2920   stm32f1xx_hal_gpio.o
        60          8          0          0          0        866   stm32f1xx_hal_msp.o
      1272        100          0          0          0       5260   stm32f1xx_hal_rcc.o
       568          6          0          0          0       3976   stm32f1xx_hal_uart.o
        12          0          0          0          0       2591   stm32f1xx_it.o
       176         38         24          4          0       1819   system_stm32f1xx.o
       746         44          0          0          0      13060   thread.o
       484         14          0         12          0      11308   timer.o
       168         20          0          0         64       1682   usart.o

    ----------------------------------------------------------------------
      9270       1246        598        148       5980     543834   Object Totals
         0          0         32          0          0          0   (incl. Generated)
        24          0          0          3          4          0   (incl. Padding)

    ----------------------------------------------------------------------

      Code (inc. data)   RO Data    RW Data    ZI Data      Debug   Library Member Name

         0          0          0          0          0          0   entry.o
         0          0          0          0          0          0   entry10a.o
         0          0          0          0          0          0   entry11a.o
         8          4          0          0          0          0   entry2.o
         4          0          0          0          0          0   entry5.o
         0          0          0          0          0          0   entry7b.o
         0          0          0          0          0          0   entry8b.o
         8          4          0          0          0          0   entry9a.o
        30          0          0          0          0          0   handlers.o
        36          8          0          0          0         68   init.o
        36          0          0          0          0        108   memseta.o

    ----------------------------------------------------------------------
       124         16          0          0          0        176   Library Totals
         2          0          0          0          0          0   (incl. Padding)

    ----------------------------------------------------------------------

      Code (inc. data)   RO Data    RW Data    ZI Data      Debug   Library Name

       122         16          0          0          0        176   mc_w.l

    ----------------------------------------------------------------------
       124         16          0          0          0        176   Library Totals

    ----------------------------------------------------------------------

==============================================================================


      Code (inc. data)   RO Data    RW Data    ZI Data      Debug   

      9394       1262        598        148       5980     538286   Grand Totals
      9394       1262        598        148       5980     538286   ELF Image Totals
      9394       1262        598        148          0          0   ROM Totals

==============================================================================

    Total RO  Size (Code + RO Data)                 9992 (   9.76kB)
    Total RW  Size (RW Data + ZI Data)              6128 (   5.98kB)
    Total ROM Size (Code + RO Data + RW Data)      10140 (   9.90kB)

==============================================================================

