Component: ARM Compiler 5.06 update 6 (build 750) Tool: armlink [4d35ed]

==============================================================================

Section Cross References

    startup_stm32f103xb.o(RESET) refers to startup_stm32f103xb.o(STACK) for __initial_sp
    startup_stm32f103xb.o(RESET) refers to startup_stm32f103xb.o(.text) for Reset_Handler
    startup_stm32f103xb.o(RESET) refers to stm32f1xx_it.o(i.NMI_Handler) for NMI_Handler
    startup_stm32f103xb.o(RESET) refers to context_rvds.o(.text) for HardFault_Handler
    startup_stm32f103xb.o(RESET) refers to stm32f1xx_it.o(i.MemManage_Handler) for MemManage_Handler
    startup_stm32f103xb.o(RESET) refers to stm32f1xx_it.o(i.BusFault_Handler) for BusFault_Handler
    startup_stm32f103xb.o(RESET) refers to stm32f1xx_it.o(i.UsageFault_Handler) for UsageFault_Handler
    startup_stm32f103xb.o(RESET) refers to stm32f1xx_it.o(i.SVC_Handler) for SVC_Handler
    startup_stm32f103xb.o(RESET) refers to stm32f1xx_it.o(i.DebugMon_Handler) for DebugMon_Handler
    startup_stm32f103xb.o(RESET) refers to board.o(i.SysTick_Handler) for SysTick_Handler
    startup_stm32f103xb.o(.text) refers to system_stm32f1xx.o(i.SystemInit) for SystemInit
    startup_stm32f103xb.o(.text) refers to entry.o(.ARM.Collect$$$$00000000) for __main
    app_rt_thread.o(i.MX_RT_Thread_Init) refers to kservice.o(i.rt_kprintf) for rt_kprintf
    app_rt_thread.o(i.MX_RT_Thread_Init) refers to ipc.o(i.rt_event_create) for rt_event_create
    app_rt_thread.o(i.MX_RT_Thread_Init) refers to thread.o(i.rt_thread_create) for rt_thread_create
    app_rt_thread.o(i.MX_RT_Thread_Init) refers to thread.o(i.rt_thread_startup) for rt_thread_startup
    app_rt_thread.o(i.MX_RT_Thread_Init) refers to app_rt_thread.o(.data) for .data
    app_rt_thread.o(i.MX_RT_Thread_Init) refers to app_rt_thread.o(i.receive_thread_entry) for receive_thread_entry
==============================================================================

Removing Unused input sections from the image.

    Removing startup_stm32f103xb.o(HEAP), (512 bytes).
    Removing app_rt_thread.o(.rev16_text), (4 bytes).
    Removing app_rt_thread.o(.revsh_text), (4 bytes).
    Removing app_rt_thread.o(.rrx_text), (6 bytes).
    Removing main.o(.rev16_text), (4 bytes).
    Removing main.o(.revsh_text), (4 bytes).
    Removing main.o(.rrx_text), (6 bytes).
    Removing gpio.o(.rev16_text), (4 bytes).
    Removing gpio.o(.revsh_text), (4 bytes).
    Removing gpio.o(.rrx_text), (6 bytes).
    Removing usart.o(.rev16_text), (4 bytes).
    Removing usart.o(.revsh_text), (4 bytes).
    Removing usart.o(.rrx_text), (6 bytes).
    Removing usart.o(i.HAL_UART_MspDeInit), (44 bytes).
    Removing stm32f1xx_it.o(.rev16_text), (4 bytes).
    Removing stm32f1xx_it.o(.revsh_text), (4 bytes).
    Removing stm32f1xx_it.o(.rrx_text), (6 bytes).
    Removing stm32f1xx_hal_msp.o(.rev16_text), (4 bytes).
==============================================================================

Image Symbol Table

    Local Symbols

    Symbol Name                              Value     Ov Type        Size  Object(Section)

    ../Drivers/STM32F1xx_HAL_Driver/Src/stm32f1xx_hal.c 0x00000000   Number         0  stm32f1xx_hal.o ABSOLUTE
    ../Drivers/STM32F1xx_HAL_Driver/Src/stm32f1xx_hal_cortex.c 0x00000000   Number         0  stm32f1xx_hal_cortex.o ABSOLUTE
    ../Drivers/STM32F1xx_HAL_Driver/Src/stm32f1xx_hal_dma.c 0x00000000   Number         0  stm32f1xx_hal_dma.o ABSOLUTE
    ../Drivers/STM32F1xx_HAL_Driver/Src/stm32f1xx_hal_exti.c 0x00000000   Number         0  stm32f1xx_hal_exti.o ABSOLUTE
    ../Drivers/STM32F1xx_HAL_Driver/Src/stm32f1xx_hal_flash.c 0x00000000   Number         0  stm32f1xx_hal_flash.o ABSOLUTE
    ../Drivers/STM32F1xx_HAL_Driver/Src/stm32f1xx_hal_flash_ex.c 0x00000000   Number         0  stm32f1xx_hal_flash_ex.o ABSOLUTE
    ../Drivers/STM32F1xx_HAL_Driver/Src/stm32f1xx_hal_gpio.c 0x00000000   Number         0  stm32f1xx_hal_gpio.o ABSOLUTE
    ../Drivers/STM32F1xx_HAL_Driver/Src/stm32f1xx_hal_gpio_ex.c 0x00000000   Number         0  stm32f1xx_hal_gpio_ex.o ABSOLUTE
    ../Drivers/STM32F1xx_HAL_Driver/Src/stm32f1xx_hal_pwr.c 0x00000000   Number         0  stm32f1xx_hal_pwr.o ABSOLUTE
    ../Drivers/STM32F1xx_HAL_Driver/Src/stm32f1xx_hal_rcc.c 0x00000000   Number         0  stm32f1xx_hal_rcc.o ABSOLUTE
    ../Drivers/STM32F1xx_HAL_Driver/Src/stm32f1xx_hal_rcc_ex.c 0x00000000   Number         0  stm32f1xx_hal_rcc_ex.o ABSOLUTE
    ../Drivers/STM32F1xx_HAL_Driver/Src/stm32f1xx_hal_tim.c 0x00000000   Number         0  stm32f1xx_hal_tim.o ABSOLUTE
    ../Drivers/STM32F1xx_HAL_Driver/Src/stm32f1xx_hal_tim_ex.c 0x00000000   Number         0  stm32f1xx_hal_tim_ex.o ABSOLUTE
    ../Drivers/STM32F1xx_HAL_Driver/Src/stm32f1xx_hal_uart.c 0x00000000   Number         0  stm32f1xx_hal_uart.o ABSOLUTE
    ../Middlewares/Third_Party/RealThread_RTOS_RT-Thread/bsp/board.c 0x00000000   Number         0  board.o ABSOLUTE
    ../Middlewares/Third_Party/RealThread_RTOS_RT-Thread/libcpu/arm/cortex-m3/context_rvds.S 0x00000000   Number         0  context_rvds.o ABSOLUTE
    ../Middlewares/Third_Party/RealThread_RTOS_RT-Thread/libcpu/arm/cortex-m3/cpuport.c 0x00000000   Number         0  cpuport.o ABSOLUTE
    ../Middlewares/Third_Party/RealThread_RTOS_RT-Thread/src/clock.c 0x00000000   Number         0  clock.o ABSOLUTE
    ../Middlewares/Third_Party/RealThread_RTOS_RT-Thread/src/components.c 0x00000000   Number         0  components.o ABSOLUTE
    ../Middlewares/Third_Party/RealThread_RTOS_RT-Thread/src/idle.c 0x00000000   Number         0  idle.o ABSOLUTE
    ../Middlewares/Third_Party/RealThread_RTOS_RT-Thread/src/ipc.c 0x00000000   Number         0  ipc.o ABSOLUTE
    ../Middlewares/Third_Party/RealThread_RTOS_RT-Thread/src/irq.c 0x00000000   Number         0  irq.o ABSOLUTE
    ../Middlewares/Third_Party/RealThread_RTOS_RT-Thread/src/kservice.c 0x00000000   Number         0  kservice.o ABSOLUTE
    ../Middlewares/Third_Party/RealThread_RTOS_RT-Thread/src/mem.c 0x00000000   Number         0  mem.o ABSOLUTE
    ../Middlewares/Third_Party/RealThread_RTOS_RT-Thread/src/object.c 0x00000000   Number         0  object.o ABSOLUTE
    ../Middlewares/Third_Party/RealThread_RTOS_RT-Thread/src/scheduler.c 0x00000000   Number         0  scheduler.o ABSOLUTE
    ../Middlewares/Third_Party/RealThread_RTOS_RT-Thread/src/thread.c 0x00000000   Number         0  thread.o ABSOLUTE
    ../Middlewares/Third_Party/RealThread_RTOS_RT-Thread/src/timer.c 0x00000000   Number         0  timer.o ABSOLUTE
    ../Src/gpio.c                            0x00000000   Number         0  gpio.o ABSOLUTE
    ../Src/main.c                            0x00000000   Number         0  main.o ABSOLUTE
    ../Src/stm32f1xx_hal_msp.c               0x00000000   Number         0  stm32f1xx_hal_msp.o ABSOLUTE
    ../Src/stm32f1xx_it.c                    0x00000000   Number         0  stm32f1xx_it.o ABSOLUTE
    ../Src/system_stm32f1xx.c                0x00000000   Number         0  system_stm32f1xx.o ABSOLUTE
    ../Src/usart.c                           0x00000000   Number         0  usart.o ABSOLUTE
    ../clib/microlib/init/entry.s            0x00000000   Number         0  entry10a.o ABSOLUTE
    ../clib/microlib/init/entry.s            0x00000000   Number         0  entry9a.o ABSOLUTE
    ../clib/microlib/init/entry.s            0x00000000   Number         0  entry9b.o ABSOLUTE
    ../clib/microlib/init/entry.s            0x00000000   Number         0  entry8b.o ABSOLUTE
    ../clib/microlib/init/entry.s            0x00000000   Number         0  entry8a.o ABSOLUTE
    ../clib/microlib/init/entry.s            0x00000000   Number         0  entry11a.o ABSOLUTE
    ../clib/microlib/init/entry.s            0x00000000   Number         0  entry7b.o ABSOLUTE
    ../clib/microlib/init/entry.s            0x00000000   Number         0  entry7a.o ABSOLUTE
    ../clib/microlib/init/entry.s            0x00000000   Number         0  entry5.o ABSOLUTE
    ../clib/microlib/init/entry.s            0x00000000   Number         0  entry10b.o ABSOLUTE
    ../clib/microlib/init/entry.s            0x00000000   Number         0  entry2.o ABSOLUTE
    ../clib/microlib/init/entry.s            0x00000000   Number         0  entry.o ABSOLUTE
    ../clib/microlib/init/entry.s            0x00000000   Number         0  entry11b.o ABSOLUTE
    ../clib/microlib/longlong.c              0x00000000   Number         0  llushr.o ABSOLUTE
    ../clib/microlib/string/memset.c         0x00000000   Number         0  memseta.o ABSOLUTE
    ..\Drivers\STM32F1xx_HAL_Driver\Src\stm32f1xx_hal.c 0x00000000   Number         0  stm32f1xx_hal.o ABSOLUTE
    ..\Drivers\STM32F1xx_HAL_Driver\Src\stm32f1xx_hal_cortex.c 0x00000000   Number         0  stm32f1xx_hal_cortex.o ABSOLUTE
    ..\Drivers\STM32F1xx_HAL_Driver\Src\stm32f1xx_hal_dma.c 0x00000000   Number         0  stm32f1xx_hal_dma.o ABSOLUTE
    ..\Drivers\STM32F1xx_HAL_Driver\Src\stm32f1xx_hal_exti.c 0x00000000   Number         0  stm32f1xx_hal_exti.o ABSOLUTE
    ..\Drivers\STM32F1xx_HAL_Driver\Src\stm32f1xx_hal_flash.c 0x00000000   Number         0  stm32f1xx_hal_flash.o ABSOLUTE
    ..\Drivers\STM32F1xx_HAL_Driver\Src\stm32f1xx_hal_flash_ex.c 0x00000000   Number         0  stm32f1xx_hal_flash_ex.o ABSOLUTE
    ..\Drivers\STM32F1xx_HAL_Driver\Src\stm32f1xx_hal_gpio.c 0x00000000   Number         0  stm32f1xx_hal_gpio.o ABSOLUTE
    ..\Drivers\STM32F1xx_HAL_Driver\Src\stm32f1xx_hal_gpio_ex.c 0x00000000   Number         0  stm32f1xx_hal_gpio_ex.o ABSOLUTE
    ..\Drivers\STM32F1xx_HAL_Driver\Src\stm32f1xx_hal_pwr.c 0x00000000   Number         0  stm32f1xx_hal_pwr.o ABSOLUTE
    ..\Drivers\STM32F1xx_HAL_Driver\Src\stm32f1xx_hal_rcc.c 0x00000000   Number         0  stm32f1xx_hal_rcc.o ABSOLUTE
    ..\Drivers\STM32F1xx_HAL_Driver\Src\stm32f1xx_hal_rcc_ex.c 0x00000000   Number         0  stm32f1xx_hal_rcc_ex.o ABSOLUTE
    ..\Drivers\STM32F1xx_HAL_Driver\Src\stm32f1xx_hal_tim.c 0x00000000   Number         0  stm32f1xx_hal_tim.o ABSOLUTE
    ..\Drivers\STM32F1xx_HAL_Driver\Src\stm32f1xx_hal_tim_ex.c 0x00000000   Number         0  stm32f1xx_hal_tim_ex.o ABSOLUTE
    ..\Drivers\STM32F1xx_HAL_Driver\Src\stm32f1xx_hal_uart.c 0x00000000   Number         0  stm32f1xx_hal_uart.o ABSOLUTE
    ..\Middlewares\Third_Party\RealThread_RTOS_RT-Thread\src\kservice.c 0x00000000   Number         0  kservice.o ABSOLUTE
    ..\Src\app_rt_thread.c                   0x00000000   Number         0  app_rt_thread.o ABSOLUTE
    ..\Src\gpio.c                            0x00000000   Number         0  gpio.o ABSOLUTE
    ..\Src\main.c                            0x00000000   Number         0  main.o ABSOLUTE
    ..\Src\stm32f1xx_hal_msp.c               0x00000000   Number         0  stm32f1xx_hal_msp.o ABSOLUTE
    ..\Src\stm32f1xx_it.c                    0x00000000   Number         0  stm32f1xx_it.o ABSOLUTE
    ..\Src\system_stm32f1xx.c                0x00000000   Number         0  system_stm32f1xx.o ABSOLUTE
    ..\Src\usart.c                           0x00000000   Number         0  usart.o ABSOLUTE
    ..\\Src\\app_rt_thread.c                 0x00000000   Number         0  app_rt_thread.o ABSOLUTE
    dc.s                                     0x00000000   Number         0  dc.o ABSOLUTE
    handlers.s                               0x00000000   Number         0  handlers.o ABSOLUTE
    init.s                                   0x00000000   Number         0  init.o ABSOLUTE
    startup_stm32f103xb.s                    0x00000000   Number         0  startup_stm32f103xb.o ABSOLUTE
    RESET                                    0x08000000   Section      236  startup_stm32f103xb.o(RESET)
    .ARM.Collect$$$$00000000                 0x080000ec   Section        0  entry.o(.ARM.Collect$$$$00000000)
    .ARM.Collect$$$$00000001                 0x080000ec   Section        4  entry2.o(.ARM.Collect$$$$00000001)
    .ARM.Collect$$$$00000004                 0x080000f0   Section        4  entry5.o(.ARM.Collect$$$$00000004)
    .ARM.Collect$$$$00000008                 0x080000f4   Section        0  entry7b.o(.ARM.Collect$$$$00000008)
    .ARM.Collect$$$$0000000A                 0x080000f4   Section        0  entry8b.o(.ARM.Collect$$$$0000000A)
    .ARM.Collect$$$$0000000B                 0x080000f4   Section        8  entry9a.o(.ARM.Collect$$$$0000000B)
    .ARM.Collect$$$$0000000D                 0x080000fc   Section        0  entry10a.o(.ARM.Collect$$$$0000000D)
    .ARM.Collect$$$$0000000F                 0x080000fc   Section        0  entry11a.o(.ARM.Collect$$$$0000000F)
    .ARM.Collect$$$$00002712                 0x080000fc   Section        4  entry2.o(.ARM.Collect$$$$00002712)
    __lit__00000000                          0x080000fc   Data           4  entry2.o(.ARM.Collect$$$$00002712)
    .text                                    0x08000100   Section       36  startup_stm32f103xb.o(.text)
    .text                                    0x08000124   Section      244  context_rvds.o(.text)
    .text                                    0x08000218   Section        0  memseta.o(.text)
    .text                                    0x0800023c   Section       36  init.o(.text)
    i.$Sub$$main                             0x08000260   Section        0  components.o(i.$Sub$$main)
    i.BusFault_Handler                       0x0800026a   Section        0  stm32f1xx_it.o(i.BusFault_Handler)
    i.DebugMon_Handler                       0x0800026c   Section        0  stm32f1xx_it.o(i.DebugMon_Handler)
    i.Error_Handler                          0x0800026e   Section        0  main.o(i.Error_Handler)
    i.HAL_GPIO_Init                          0x08000270   Section        0  stm32f1xx_hal_gpio.o(i.HAL_GPIO_Init)
    i.HAL_GPIO_ReadPin                       0x08000450   Section        0  stm32f1xx_hal_gpio.o(i.HAL_GPIO_ReadPin)
    i.HAL_GPIO_TogglePin                     0x0800045a   Section        0  stm32f1xx_hal_gpio.o(i.HAL_GPIO_TogglePin)
    i.HAL_GPIO_WritePin                      0x08000468   Section        0  stm32f1xx_hal_gpio.o(i.HAL_GPIO_WritePin)
    i.HAL_GetTick                            0x08000474   Section        0  stm32f1xx_hal.o(i.HAL_GetTick)
    i.HAL_Init                               0x08000480   Section        0  stm32f1xx_hal.o(i.HAL_Init)
    i.HAL_InitTick                           0x080004a4   Section        0  stm32f1xx_hal.o(i.HAL_InitTick)
    i.HAL_MspInit                            0x080004e4   Section        0  stm32f1xx_hal_msp.o(i.HAL_MspInit)
    i.HAL_NVIC_SetPriority                   0x08000520   Section        0  stm32f1xx_hal_cortex.o(i.HAL_NVIC_SetPriority)
    i.HAL_NVIC_SetPriorityGrouping           0x08000560   Section        0  stm32f1xx_hal_cortex.o(i.HAL_NVIC_SetPriorityGrouping)
    i.HAL_RCC_ClockConfig                    0x08000584   Section        0  stm32f1xx_hal_rcc.o(i.HAL_RCC_ClockConfig)
    i.HAL_RCC_GetPCLK1Freq                   0x080006b0   Section        0  stm32f1xx_hal_rcc.o(i.HAL_RCC_GetPCLK1Freq)
    i.HAL_RCC_GetPCLK2Freq                   0x080006d0   Section        0  stm32f1xx_hal_rcc.o(i.HAL_RCC_GetPCLK2Freq)
    i.HAL_RCC_GetSysClockFreq                0x080006f0   Section        0  stm32f1xx_hal_rcc.o(i.HAL_RCC_GetSysClockFreq)
    i.HAL_RCC_OscConfig                      0x0800075c   Section        0  stm32f1xx_hal_rcc.o(i.HAL_RCC_OscConfig)
    i.HAL_SYSTICK_Config                     0x08000a7c   Section        0  stm32f1xx_hal_cortex.o(i.HAL_SYSTICK_Config)
    i.HAL_UART_Init                          0x08000aa4   Section        0  stm32f1xx_hal_uart.o(i.HAL_UART_Init)
    i.HAL_UART_MspInit                       0x08000b08   Section        0  usart.o(i.HAL_UART_MspInit)
    i.HAL_UART_Transmit                      0x08000b78   Section        0  stm32f1xx_hal_uart.o(i.HAL_UART_Transmit)
    i.MX_GPIO_Init                           0x08000c34   Section        0  gpio.o(i.MX_GPIO_Init)
    i.MX_RT_Thread_Init                      0x08000cd0   Section        0  app_rt_thread.o(i.MX_RT_Thread_Init)
    i.MX_USART1_UART_Init                    0x08000dac   Section        0  usart.o(i.MX_USART1_UART_Init)
    i.MemManage_Handler                      0x08000de4   Section        0  stm32f1xx_it.o(i.MemManage_Handler)
    i.NMI_Handler                            0x08000de6   Section        0  stm32f1xx_it.o(i.NMI_Handler)
    i.SVC_Handler                            0x08000de8   Section        0  stm32f1xx_it.o(i.SVC_Handler)
    i.SysTick_Handler                        0x08000dea   Section        0  board.o(i.SysTick_Handler)
    i.SystemClock_Config                     0x08000dfc   Section        0  main.o(i.SystemClock_Config)
    i.SystemCoreClockUpdate                  0x08000e4c   Section        0  system_stm32f1xx.o(i.SystemCoreClockUpdate)
    i.SystemInit                             0x08000eb4   Section        0  system_stm32f1xx.o(i.SystemInit)
    i.UART_SetConfig                         0x08000efc   Section        0  stm32f1xx_hal_uart.o(i.UART_SetConfig)
    UART_SetConfig                           0x08000efd   Thumb Code   178  stm32f1xx_hal_uart.o(i.UART_SetConfig)
    i.UART_WaitOnFlagUntilTimeout            0x08000fb4   Section        0  stm32f1xx_hal_uart.o(i.UART_WaitOnFlagUntilTimeout)
    UART_WaitOnFlagUntilTimeout              0x08000fb5   Thumb Code   100  stm32f1xx_hal_uart.o(i.UART_WaitOnFlagUntilTimeout)
    i.UsageFault_Handler                     0x08001018   Section        0  stm32f1xx_it.o(i.UsageFault_Handler)
    i.__NVIC_SetPriority                     0x0800101a   Section        0  stm32f1xx_hal_cortex.o(i.__NVIC_SetPriority)
    __NVIC_SetPriority                       0x0800101b   Thumb Code    32  stm32f1xx_hal_cortex.o(i.__NVIC_SetPriority)
    i.__rt_ffs                               0x0800103c   Section        0  kservice.o(i.__rt_ffs)
    i.__scatterload_copy                     0x08001080   Section       14  handlers.o(i.__scatterload_copy)
    i.__scatterload_null                     0x0800108e   Section        2  handlers.o(i.__scatterload_null)
    i.__scatterload_zeroinit                 0x08001090   Section       14  handlers.o(i.__scatterload_zeroinit)
    i._has_defunct_thread                    0x080010a0   Section        0  idle.o(i._has_defunct_thread)
    _has_defunct_thread                      0x080010a1   Thumb Code    16  idle.o(i._has_defunct_thread)
    i._rt_thread_init                        0x080010b4   Section        0  thread.o(i._rt_thread_init)
    _rt_thread_init                          0x080010b5   Thumb Code   108  thread.o(i._rt_thread_init)
    i._rt_timer_init                         0x08001128   Section        0  timer.o(i._rt_timer_init)
    _rt_timer_init                           0x08001129   Thumb Code    28  timer.o(i._rt_timer_init)
    i._rt_timer_remove                       0x08001144   Section        0  timer.o(i._rt_timer_remove)
    _rt_timer_remove                         0x08001145   Thumb Code    18  timer.o(i._rt_timer_remove)
    i.main                                   0x08001156   Section        0  main.o(i.main)
    i.main_thread_entry                      0x0800116c   Section        0  components.o(i.main_thread_entry)
    i.plug_holes                             0x0800117c   Section        0  mem.o(i.plug_holes)
    plug_holes                               0x0800117d   Thumb Code    80  mem.o(i.plug_holes)
    i.print_number                           0x080011d0   Section        0  kservice.o(i.print_number)
    print_number                             0x080011d1   Thumb Code   300  kservice.o(i.print_number)
    i.receive_thread_entry                   0x08001300   Section        0  app_rt_thread.o(i.receive_thread_entry)
    receive_thread_entry                     0x08001301   Thumb Code    62  app_rt_thread.o(i.receive_thread_entry)
    i.rt_application_init                    0x08001370   Section        0  components.o(i.rt_application_init)
    i.rt_components_board_init               0x0800139c   Section        0  components.o(i.rt_components_board_init)
    i.rt_components_init                     0x080013b8   Section        0  components.o(i.rt_components_init)
    i.rt_enter_critical                      0x080013d4   Section        0  scheduler.o(i.rt_enter_critical)
    i.rt_event_create                        0x080013f0   Section        0  ipc.o(i.rt_event_create)
    i.rt_event_recv                          0x08001410   Section        0  ipc.o(i.rt_event_recv)
    i.rt_event_send                          0x080014ce   Section        0  ipc.o(i.rt_event_send)
    i.rt_exit_critical                       0x08001554   Section        0  scheduler.o(i.rt_exit_critical)
    i.rt_free                                0x0800158c   Section        0  mem.o(i.rt_free)
    i.rt_heap_begin_get                      0x08001650   Section        0  board.o(i.rt_heap_begin_get)
    i.rt_heap_end_get                        0x08001658   Section        0  board.o(i.rt_heap_end_get)
    i.rt_hw_board_init                       0x08001660   Section        0  board.o(i.rt_hw_board_init)
    i.rt_hw_console_output                   0x080016b0   Section        0  kservice.o(i.rt_hw_console_output)
    i.rt_hw_hard_fault_exception             0x080016f0   Section        0  cpuport.o(i.rt_hw_hard_fault_exception)
    i.rt_hw_stack_init                       0x080018e4   Section        0  cpuport.o(i.rt_hw_stack_init)
    i.rt_interrupt_enter                     0x0800191c   Section        0  irq.o(i.rt_interrupt_enter)
    i.rt_interrupt_leave                     0x08001938   Section        0  irq.o(i.rt_interrupt_leave)
    i.rt_ipc_list_resume                     0x08001954   Section        0  ipc.o(i.rt_ipc_list_resume)
    rt_ipc_list_resume                       0x08001955   Thumb Code    14  ipc.o(i.rt_ipc_list_resume)
    i.rt_ipc_list_suspend                    0x08001964   Section        0  ipc.o(i.rt_ipc_list_suspend)
    rt_ipc_list_suspend                      0x08001965   Thumb Code    82  ipc.o(i.rt_ipc_list_suspend)
    i.rt_kprintf                             0x080019b8   Section        0  kservice.o(i.rt_kprintf)
    i.rt_list_insert_after                   0x080019d8   Section        0  object.o(i.rt_list_insert_after)
    rt_list_insert_after                     0x080019d9   Thumb Code    14  object.o(i.rt_list_insert_after)
    i.rt_list_insert_after                   0x080019e6   Section        0  thread.o(i.rt_list_insert_after)
    rt_list_insert_after                     0x080019e7   Thumb Code    14  thread.o(i.rt_list_insert_after)
    i.rt_list_insert_after                   0x080019f4   Section        0  timer.o(i.rt_list_insert_after)
    rt_list_insert_after                     0x080019f5   Thumb Code    14  timer.o(i.rt_list_insert_after)
    i.rt_list_insert_before                  0x08001a02   Section        0  ipc.o(i.rt_list_insert_before)
    rt_list_insert_before                    0x08001a03   Thumb Code    14  ipc.o(i.rt_list_insert_before)
    i.rt_list_remove                         0x08001a10   Section        0  object.o(i.rt_list_remove)
    rt_list_remove                           0x08001a11   Thumb Code    18  object.o(i.rt_list_remove)
    i.rt_list_remove                         0x08001a22   Section        0  thread.o(i.rt_list_remove)
    rt_list_remove                           0x08001a23   Thumb Code    18  thread.o(i.rt_list_remove)
    i.rt_malloc                              0x08001a34   Section        0  mem.o(i.rt_malloc)
    i.rt_memset                              0x08001b24   Section        0  kservice.o(i.rt_memset)
    i.rt_object_allocate                     0x08001b6a   Section        0  object.o(i.rt_object_allocate)
    i.rt_object_delete                       0x08001bba   Section        0  object.o(i.rt_object_delete)
    i.rt_object_detach                       0x08001be0   Section        0  object.o(i.rt_object_detach)
    i.rt_object_get_information              0x08001c00   Section        0  object.o(i.rt_object_get_information)
    i.rt_object_init                         0x08001c24   Section        0  object.o(i.rt_object_init)
    i.rt_object_is_systemobject              0x08001c74   Section        0  object.o(i.rt_object_is_systemobject)
    i.rt_schedule                            0x08001c84   Section        0  scheduler.o(i.rt_schedule)
    i.rt_schedule_insert_thread              0x08001cdc   Section        0  scheduler.o(i.rt_schedule_insert_thread)
    i.rt_schedule_remove_thread              0x08001d2c   Section        0  scheduler.o(i.rt_schedule_remove_thread)
    i.rt_sem_init                            0x08001d74   Section        0  ipc.o(i.rt_sem_init)
    i.rt_sem_release                         0x08001d98   Section        0  ipc.o(i.rt_sem_release)
    i.rt_sem_take                            0x08001dcc   Section        0  ipc.o(i.rt_sem_take)
    i.rt_show_version                        0x08001e3c   Section        0  kservice.o(i.rt_show_version)
    i.rt_strlen                              0x08001eec   Section        0  kservice.o(i.rt_strlen)
    i.rt_strncpy                             0x08001efc   Section        0  kservice.o(i.rt_strncpy)
    i.rt_system_heap_init                    0x08001f24   Section        0  mem.o(i.rt_system_heap_init)
    i.rt_system_scheduler_init               0x08001fd0   Section        0  scheduler.o(i.rt_system_scheduler_init)
    i.rt_system_scheduler_start              0x08002004   Section        0  scheduler.o(i.rt_system_scheduler_start)
    i.rt_system_timer_init                   0x0800202c   Section        0  timer.o(i.rt_system_timer_init)
    i.rt_system_timer_thread_init            0x08002038   Section        0  timer.o(i.rt_system_timer_thread_init)
    i.rt_thread_create                       0x0800203a   Section        0  thread.o(i.rt_thread_create)
    i.rt_thread_delay                        0x08002082   Section        0  thread.o(i.rt_thread_delay)
    i.rt_thread_exit                         0x08002088   Section        0  thread.o(i.rt_thread_exit)
    i.rt_thread_idle_entry                   0x080020e0   Section        0  idle.o(i.rt_thread_idle_entry)
    rt_thread_idle_entry                     0x080020e1   Thumb Code     6  idle.o(i.rt_thread_idle_entry)
    i.rt_thread_idle_excute                  0x080020e8   Section        0  idle.o(i.rt_thread_idle_excute)
    i.rt_thread_idle_init                    0x08002160   Section        0  idle.o(i.rt_thread_idle_init)
    i.rt_thread_init                         0x08002198   Section        0  thread.o(i.rt_thread_init)
    i.rt_thread_resume                       0x080021c8   Section        0  thread.o(i.rt_thread_resume)
    i.rt_thread_self                         0x08002204   Section        0  thread.o(i.rt_thread_self)
    i.rt_thread_sleep                        0x08002210   Section        0  thread.o(i.rt_thread_sleep)
    i.rt_thread_startup                      0x08002250   Section        0  thread.o(i.rt_thread_startup)
    i.rt_thread_suspend                      0x0800227c   Section        0  thread.o(i.rt_thread_suspend)
    i.rt_thread_timeout                      0x080022be   Section        0  thread.o(i.rt_thread_timeout)
    i.rt_thread_yield                        0x080022e0   Section        0  thread.o(i.rt_thread_yield)
    i.rt_tick_get                            0x08002340   Section        0  clock.o(i.rt_tick_get)
    i.rt_tick_increase                       0x0800234c   Section        0  clock.o(i.rt_tick_increase)
    i.rt_timer_check                         0x08002378   Section        0  timer.o(i.rt_timer_check)
    i.rt_timer_control                       0x080023e0   Section        0  timer.o(i.rt_timer_control)
    i.rt_timer_detach                        0x08002410   Section        0  timer.o(i.rt_timer_detach)
    i.rt_timer_init                          0x08002430   Section        0  timer.o(i.rt_timer_init)
    i.rt_timer_start                         0x08002458   Section        0  timer.o(i.rt_timer_start)
    i.rt_timer_stop                          0x080024e4   Section        0  timer.o(i.rt_timer_stop)
    i.rt_vsnprintf                           0x08002514   Section        0  kservice.o(i.rt_vsnprintf)
    i.rti_board_end                          0x08002790   Section        0  components.o(i.rti_board_end)
    rti_board_end                            0x08002791   Thumb Code     4  components.o(i.rti_board_end)
    i.rti_board_start                        0x08002794   Section        0  components.o(i.rti_board_start)
    rti_board_start                          0x08002795   Thumb Code     4  components.o(i.rti_board_start)
    i.rti_end                                0x08002798   Section        0  components.o(i.rti_end)
    rti_end                                  0x08002799   Thumb Code     4  components.o(i.rti_end)
    i.rti_start                              0x0800279c   Section        0  components.o(i.rti_start)
    rti_start                                0x0800279d   Thumb Code     4  components.o(i.rti_start)
    i.rtthread_startup                       0x080027a0   Section        0  components.o(i.rtthread_startup)
    i.send_thread_entry                      0x080027cc   Section        0  app_rt_thread.o(i.send_thread_entry)
    send_thread_entry                        0x080027cd   Thumb Code    70  app_rt_thread.o(i.send_thread_entry)
    i.skip_atoi                              0x08002844   Section        0  kservice.o(i.skip_atoi)
    skip_atoi                                0x08002845   Thumb Code    40  kservice.o(i.skip_atoi)
    .constdata                               0x0800286c   Section       16  system_stm32f1xx.o(.constdata)
    .constdata                               0x0800287c   Section        8  system_stm32f1xx.o(.constdata)
    .constdata                               0x08002884   Section      290  kservice.o(.constdata)
    small_digits                             0x08002984   Data          17  kservice.o(.constdata)
    large_digits                             0x08002995   Data          17  kservice.o(.constdata)
    .rti_fn.0                                0x080029a8   Section        4  components.o(.rti_fn.0)
    __tagsym$$used                           0x080029a8   Number         0  components.o(.rti_fn.0)
    .rti_fn.0.end                            0x080029ac   Section        4  components.o(.rti_fn.0.end)
    __tagsym$$used                           0x080029ac   Number         0  components.o(.rti_fn.0.end)
    .rti_fn.1.end                            0x080029b0   Section        4  components.o(.rti_fn.1.end)
    __tagsym$$used                           0x080029b0   Number         0  components.o(.rti_fn.1.end)
    .rti_fn.6.end                            0x080029b4   Section        4  components.o(.rti_fn.6.end)
    __tagsym$$used                           0x080029b4   Number         0  components.o(.rti_fn.6.end)
    .data                                    0x20000000   Section       12  app_rt_thread.o(.data)
    receive_thread                           0x20000000   Data           4  app_rt_thread.o(.data)
    send_thread                              0x20000004   Data           4  app_rt_thread.o(.data)
    test_event                               0x20000008   Data           4  app_rt_thread.o(.data)
    .data                                    0x2000000c   Section       12  stm32f1xx_hal.o(.data)
    .data                                    0x20000018   Section        4  system_stm32f1xx.o(.data)
    .data                                    0x2000001c   Section        4  clock.o(.data)
    rt_tick                                  0x2000001c   Data           4  clock.o(.data)
    .data                                    0x20000020   Section        1  irq.o(.data)
    .data                                    0x20000024   Section       24  mem.o(.data)
    heap_ptr                                 0x20000024   Data           4  mem.o(.data)
    heap_end                                 0x20000028   Data           4  mem.o(.data)
    lfree                                    0x2000002c   Data           4  mem.o(.data)
    mem_size_aligned                         0x20000030   Data           4  mem.o(.data)
    used_mem                                 0x20000034   Data           4  mem.o(.data)
    max_mem                                  0x20000038   Data           4  mem.o(.data)
    .data                                    0x2000003c   Section       96  object.o(.data)
    rt_object_container                      0x2000003c   Data          96  object.o(.data)
    .data                                    0x2000009c   Section       20  scheduler.o(.data)
    rt_scheduler_lock_nest                   0x2000009e   Data           2  scheduler.o(.data)
    .data                                    0x200000b0   Section       12  timer.o(.data)
    random_nr                                0x200000b0   Data           4  timer.o(.data)
    rt_timer_list                            0x200000b4   Data           8  timer.o(.data)
    .data                                    0x200000bc   Section        4  cpuport.o(.data)
    rt_exception_hook                        0x200000bc   Data           4  cpuport.o(.data)
    .data                                    0x200000c0   Section        4  cpuport.o(.data)
    .data                                    0x200000c4   Section        4  cpuport.o(.data)
    .data                                    0x200000c8   Section        4  cpuport.o(.data)
    .bss                                     0x200000cc   Section       64  usart.o(.bss)
    .bss                                     0x2000010c   Section     4096  board.o(.bss)
    rt_heap                                  0x2000010c   Data        4096  board.o(.bss)
    .bss                                     0x2000110c   Section      384  idle.o(.bss)
    idle                                     0x2000110c   Data         128  idle.o(.bss)
    rt_thread_stack                          0x2000118c   Data         256  idle.o(.bss)
    .bss                                     0x2000128c   Section      128  kservice.o(.bss)
    rt_log_buf                               0x2000128c   Data         128  kservice.o(.bss)
    .bss                                     0x2000130c   Section       32  mem.o(.bss)
    heap_sem                                 0x2000130c   Data          32  mem.o(.bss)
    .bss                                     0x2000132c   Section      256  scheduler.o(.bss)
    STACK                                    0x20001430   Section     1024  startup_stm32f103xb.o(STACK)

    Global Symbols

    Symbol Name                              Value     Ov Type        Size  Object(Section)

    BuildAttributes$$THM_ISAv4$P$D$K$B$S$PE$A:L22UL41UL21$X:L11$S22US41US21$IEEE1$IW$USESV6$~STKCKD$USESV7$~SHL$OSPACE$EBA8$MICROLIB$REQ8$PRES8$EABIv2 0x00000000   Number         0  anon$$obj.o ABSOLUTE
    __ARM_use_no_argv                        0x00000000   Number         0  main.o ABSOLUTE
    __cpp_initialize__aeabi_                  - Undefined Weak Reference
    __cxa_finalize                            - Undefined Weak Reference
    __decompress                              - Undefined Weak Reference
    _clock_init                               - Undefined Weak Reference
    _microlib_exit                            - Undefined Weak Reference
    __Vectors_Size                           0x000000ec   Number         0  startup_stm32f103xb.o ABSOLUTE
    __Vectors                                0x08000000   Data           4  startup_stm32f103xb.o(RESET)
    __Vectors_End                            0x080000ec   Data           0  startup_stm32f103xb.o(RESET)
    __main                                   0x080000ed   Thumb Code     0  entry.o(.ARM.Collect$$$$00000000)
    _main_stk                                0x080000ed   Thumb Code     0  entry2.o(.ARM.Collect$$$$00000001)
    _main_scatterload                        0x080000f1   Thumb Code     0  entry5.o(.ARM.Collect$$$$00000004)
    __main_after_scatterload                 0x080000f5   Thumb Code     0  entry5.o(.ARM.Collect$$$$00000004)
    _main_clock                              0x080000f5   Thumb Code     0  entry7b.o(.ARM.Collect$$$$00000008)
    _main_cpp_init                           0x080000f5   Thumb Code     0  entry8b.o(.ARM.Collect$$$$0000000A)
    _main_init                               0x080000f5   Thumb Code     0  entry9a.o(.ARM.Collect$$$$0000000B)
    __rt_final_cpp                           0x080000fd   Thumb Code     0  entry10a.o(.ARM.Collect$$$$0000000D)
    __rt_final_exit                          0x080000fd   Thumb Code     0  entry11a.o(.ARM.Collect$$$$0000000F)
    Reset_Handler                            0x08000101   Thumb Code     8  startup_stm32f103xb.o(.text)
    ADC1_2_IRQHandler                        0x0800011b   Thumb Code     0  startup_stm32f103xb.o(.text)
    CAN1_RX1_IRQHandler                      0x0800011b   Thumb Code     0  startup_stm32f103xb.o(.text)
    CAN1_SCE_IRQHandler                      0x0800011b   Thumb Code     0  startup_stm32f103xb.o(.text)
    DMA1_Channel1_IRQHandler                 0x0800011b   Thumb Code     0  startup_stm32f103xb.o(.text)
    DMA1_Channel2_IRQHandler                 0x0800011b   Thumb Code     0  startup_stm32f103xb.o(.text)
    DMA1_Channel3_IRQHandler                 0x0800011b   Thumb Code     0  startup_stm32f103xb.o(.text)
    DMA1_Channel4_IRQHandler                 0x0800011b   Thumb Code     0  startup_stm32f103xb.o(.text)
    DMA1_Channel5_IRQHandler                 0x0800011b   Thumb Code     0  startup_stm32f103xb.o(.text)
    DMA1_Channel6_IRQHandler                 0x0800011b   Thumb Code     0  startup_stm32f103xb.o(.text)
    DMA1_Channel7_IRQHandler                 0x0800011b   Thumb Code     0  startup_stm32f103xb.o(.text)
    EXTI0_IRQHandler                         0x0800011b   Thumb Code     0  startup_stm32f103xb.o(.text)
    EXTI15_10_IRQHandler                     0x0800011b   Thumb Code     0  startup_stm32f103xb.o(.text)
    EXTI1_IRQHandler                         0x0800011b   Thumb Code     0  startup_stm32f103xb.o(.text)
    EXTI2_IRQHandler                         0x0800011b   Thumb Code     0  startup_stm32f103xb.o(.text)
    EXTI3_IRQHandler                         0x0800011b   Thumb Code     0  startup_stm32f103xb.o(.text)
    EXTI4_IRQHandler                         0x0800011b   Thumb Code     0  startup_stm32f103xb.o(.text)
    EXTI9_5_IRQHandler                       0x0800011b   Thumb Code     0  startup_stm32f103xb.o(.text)
    FLASH_IRQHandler                         0x0800011b   Thumb Code     0  startup_stm32f103xb.o(.text)
    I2C1_ER_IRQHandler                       0x0800011b   Thumb Code     0  startup_stm32f103xb.o(.text)
    I2C1_EV_IRQHandler                       0x0800011b   Thumb Code     0  startup_stm32f103xb.o(.text)
    I2C2_ER_IRQHandler                       0x0800011b   Thumb Code     0  startup_stm32f103xb.o(.text)
    I2C2_EV_IRQHandler                       0x0800011b   Thumb Code     0  startup_stm32f103xb.o(.text)
    PVD_IRQHandler                           0x0800011b   Thumb Code     0  startup_stm32f103xb.o(.text)
    RCC_IRQHandler                           0x0800011b   Thumb Code     0  startup_stm32f103xb.o(.text)
    RTC_Alarm_IRQHandler                     0x0800011b   Thumb Code     0  startup_stm32f103xb.o(.text)
    RTC_IRQHandler                           0x0800011b   Thumb Code     0  startup_stm32f103xb.o(.text)
    SPI1_IRQHandler                          0x0800011b   Thumb Code     0  startup_stm32f103xb.o(.text)
    SPI2_IRQHandler                          0x0800011b   Thumb Code     0  startup_stm32f103xb.o(.text)
    TAMPER_IRQHandler                        0x0800011b   Thumb Code     0  startup_stm32f103xb.o(.text)
    TIM1_BRK_IRQHandler                      0x0800011b   Thumb Code     0  startup_stm32f103xb.o(.text)
    TIM1_CC_IRQHandler                       0x0800011b   Thumb Code     0  startup_stm32f103xb.o(.text)
    TIM1_TRG_COM_IRQHandler                  0x0800011b   Thumb Code     0  startup_stm32f103xb.o(.text)
    TIM1_UP_IRQHandler                       0x0800011b   Thumb Code     0  startup_stm32f103xb.o(.text)
    TIM2_IRQHandler                          0x0800011b   Thumb Code     0  startup_stm32f103xb.o(.text)
    TIM3_IRQHandler                          0x0800011b   Thumb Code     0  startup_stm32f103xb.o(.text)
    TIM4_IRQHandler                          0x0800011b   Thumb Code     0  startup_stm32f103xb.o(.text)
    USART1_IRQHandler                        0x0800011b   Thumb Code     0  startup_stm32f103xb.o(.text)
    USART2_IRQHandler                        0x0800011b   Thumb Code     0  startup_stm32f103xb.o(.text)
    USART3_IRQHandler                        0x0800011b   Thumb Code     0  startup_stm32f103xb.o(.text)
    USBWakeUp_IRQHandler                     0x0800011b   Thumb Code     0  startup_stm32f103xb.o(.text)
    USB_HP_CAN1_TX_IRQHandler                0x0800011b   Thumb Code     0  startup_stm32f103xb.o(.text)
    USB_LP_CAN1_RX0_IRQHandler               0x0800011b   Thumb Code     0  startup_stm32f103xb.o(.text)
    WWDG_IRQHandler                          0x0800011b   Thumb Code     0  startup_stm32f103xb.o(.text)
    rt_hw_interrupt_disable                  0x08000125   Thumb Code     8  context_rvds.o(.text)
    rt_hw_interrupt_enable                   0x0800012d   Thumb Code     6  context_rvds.o(.text)
    rt_hw_context_switch                     0x08000133   Thumb Code    32  context_rvds.o(.text)
    rt_hw_context_switch_interrupt           0x08000133   Thumb Code     0  context_rvds.o(.text)
    PendSV_Handler                           0x08000153   Thumb Code    60  context_rvds.o(.text)
    rt_hw_context_switch_to                  0x0800018f   Thumb Code    58  context_rvds.o(.text)
    rt_hw_interrupt_thread_switch            0x080001c9   Thumb Code     2  context_rvds.o(.text)
    HardFault_Handler                        0x080001cb   Thumb Code    52  context_rvds.o(.text)
    __aeabi_memset                           0x08000219   Thumb Code    14  memseta.o(.text)
    __aeabi_memset4                          0x08000219   Thumb Code     0  memseta.o(.text)
    __aeabi_memset8                          0x08000219   Thumb Code     0  memseta.o(.text)
    __aeabi_memclr                           0x08000227   Thumb Code     4  memseta.o(.text)
    __aeabi_memclr4                          0x08000227   Thumb Code     0  memseta.o(.text)
    __aeabi_memclr8                          0x08000227   Thumb Code     0  memseta.o(.text)
    _memset$wrapper                          0x0800022b   Thumb Code    18  memseta.o(.text)
    __scatterload                            0x0800023d   Thumb Code    28  init.o(.text)
    __scatterload_rt2                        0x0800023d   Thumb Code     0  init.o(.text)
    main                                     0x08000261   Thumb Code    10  components.o(i.$Sub$$main)
    BusFault_Handler                         0x0800026b   Thumb Code     2  stm32f1xx_it.o(i.BusFault_Handler)
    DebugMon_Handler                         0x0800026d   Thumb Code     2  stm32f1xx_it.o(i.DebugMon_Handler)
    Error_Handler                            0x0800026f   Thumb Code     2  main.o(i.Error_Handler)
    HAL_GPIO_Init                            0x08000271   Thumb Code   446  stm32f1xx_hal_gpio.o(i.HAL_GPIO_Init)
    HAL_GPIO_ReadPin                         0x08000451   Thumb Code    10  stm32f1xx_hal_gpio.o(i.HAL_GPIO_ReadPin)
    HAL_GPIO_TogglePin                       0x0800045b   Thumb Code    14  stm32f1xx_hal_gpio.o(i.HAL_GPIO_TogglePin)
    HAL_GPIO_WritePin                        0x08000469   Thumb Code    10  stm32f1xx_hal_gpio.o(i.HAL_GPIO_WritePin)
    HAL_GetTick                              0x08000475   Thumb Code     6  stm32f1xx_hal.o(i.HAL_GetTick)
    HAL_Init                                 0x08000481   Thumb Code    32  stm32f1xx_hal.o(i.HAL_Init)
    HAL_InitTick                             0x080004a5   Thumb Code    54  stm32f1xx_hal.o(i.HAL_InitTick)
    HAL_MspInit                              0x080004e5   Thumb Code    52  stm32f1xx_hal_msp.o(i.HAL_MspInit)
    HAL_NVIC_SetPriority                     0x08000521   Thumb Code    60  stm32f1xx_hal_cortex.o(i.HAL_NVIC_SetPriority)
    HAL_NVIC_SetPriorityGrouping             0x08000561   Thumb Code    26  stm32f1xx_hal_cortex.o(i.HAL_NVIC_SetPriorityGrouping)
    HAL_RCC_ClockConfig                      0x08000585   Thumb Code   280  stm32f1xx_hal_rcc.o(i.HAL_RCC_ClockConfig)
    HAL_RCC_GetPCLK1Freq                     0x080006b1   Thumb Code    20  stm32f1xx_hal_rcc.o(i.HAL_RCC_GetPCLK1Freq)
    HAL_RCC_GetPCLK2Freq                     0x080006d1   Thumb Code    20  stm32f1xx_hal_rcc.o(i.HAL_RCC_GetPCLK2Freq)
    HAL_RCC_GetSysClockFreq                  0x080006f1   Thumb Code    74  stm32f1xx_hal_rcc.o(i.HAL_RCC_GetSysClockFreq)
    HAL_RCC_OscConfig                        0x0800075d   Thumb Code   778  stm32f1xx_hal_rcc.o(i.HAL_RCC_OscConfig)
    HAL_SYSTICK_Config                       0x08000a7d   Thumb Code    40  stm32f1xx_hal_cortex.o(i.HAL_SYSTICK_Config)
    HAL_UART_Init                            0x08000aa5   Thumb Code    98  stm32f1xx_hal_uart.o(i.HAL_UART_Init)
    HAL_UART_MspInit                         0x08000b09   Thumb Code   100  usart.o(i.HAL_UART_MspInit)
    HAL_UART_Transmit                        0x08000b79   Thumb Code   186  stm32f1xx_hal_uart.o(i.HAL_UART_Transmit)
    MX_GPIO_Init                             0x08000c35   Thumb Code   140  gpio.o(i.MX_GPIO_Init)
    MX_RT_Thread_Init                        0x08000cd1   Thumb Code   102  app_rt_thread.o(i.MX_RT_Thread_Init)
    MX_USART1_UART_Init                      0x08000dad   Thumb Code    48  usart.o(i.MX_USART1_UART_Init)
    MemManage_Handler                        0x08000de5   Thumb Code     2  stm32f1xx_it.o(i.MemManage_Handler)
    NMI_Handler                              0x08000de7   Thumb Code     2  stm32f1xx_it.o(i.NMI_Handler)
    SVC_Handler                              0x08000de9   Thumb Code     2  stm32f1xx_it.o(i.SVC_Handler)
    SysTick_Handler                          0x08000deb   Thumb Code    18  board.o(i.SysTick_Handler)
    SystemClock_Config                       0x08000dfd   Thumb Code    78  main.o(i.SystemClock_Config)
    SystemCoreClockUpdate                    0x08000e4d   Thumb Code    82  system_stm32f1xx.o(i.SystemCoreClockUpdate)
    SystemInit                               0x08000eb5   Thumb Code    56  system_stm32f1xx.o(i.SystemInit)
    UsageFault_Handler                       0x08001019   Thumb Code     2  stm32f1xx_it.o(i.UsageFault_Handler)
    __rt_ffs                                 0x0800103d   Thumb Code    62  kservice.o(i.__rt_ffs)
    __scatterload_copy                       0x08001081   Thumb Code    14  handlers.o(i.__scatterload_copy)
    __scatterload_null                       0x0800108f   Thumb Code     2  handlers.o(i.__scatterload_null)
    __scatterload_zeroinit                   0x08001091   Thumb Code    14  handlers.o(i.__scatterload_zeroinit)
    $Super$$main                             0x08001157   Thumb Code    22  main.o(i.main)
    main_thread_entry                        0x0800116d   Thumb Code    14  components.o(i.main_thread_entry)
    rt_application_init                      0x08001371   Thumb Code    32  components.o(i.rt_application_init)
    rt_components_board_init                 0x0800139d   Thumb Code    20  components.o(i.rt_components_board_init)
    rt_components_init                       0x080013b9   Thumb Code    20  components.o(i.rt_components_init)
    rt_enter_critical                        0x080013d5   Thumb Code    22  scheduler.o(i.rt_enter_critical)
    rt_event_create                          0x080013f1   Thumb Code    32  ipc.o(i.rt_event_create)
    rt_event_recv                            0x08001411   Thumb Code   190  ipc.o(i.rt_event_recv)
    rt_event_send                            0x080014cf   Thumb Code   134  ipc.o(i.rt_event_send)
    rt_exit_critical                         0x08001555   Thumb Code    52  scheduler.o(i.rt_exit_critical)
    rt_free                                  0x0800158d   Thumb Code   112  mem.o(i.rt_free)
    rt_heap_begin_get                        0x08001651   Thumb Code     4  board.o(i.rt_heap_begin_get)
    rt_heap_end_get                          0x08001659   Thumb Code     4  board.o(i.rt_heap_end_get)
    rt_hw_board_init                         0x08001661   Thumb Code    70  board.o(i.rt_hw_board_init)
    rt_hw_console_output                     0x080016b1   Thumb Code    58  kservice.o(i.rt_hw_console_output)
    rt_hw_hard_fault_exception               0x080016f1   Thumb Code   178  cpuport.o(i.rt_hw_hard_fault_exception)
    rt_hw_stack_init                         0x080018e5   Thumb Code    52  cpuport.o(i.rt_hw_stack_init)
    rt_interrupt_enter                       0x0800191d   Thumb Code    22  irq.o(i.rt_interrupt_enter)
    rt_interrupt_leave                       0x08001939   Thumb Code    22  irq.o(i.rt_interrupt_leave)
    rt_kprintf                               0x080019b9   Thumb Code    28  kservice.o(i.rt_kprintf)
    rt_malloc                                0x08001a35   Thumb Code   232  mem.o(i.rt_malloc)
    rt_memset                                0x08001b25   Thumb Code    70  kservice.o(i.rt_memset)
    rt_object_allocate                       0x08001b6b   Thumb Code    80  object.o(i.rt_object_allocate)
    rt_object_delete                         0x08001bbb   Thumb Code    38  object.o(i.rt_object_delete)
    rt_object_detach                         0x08001be1   Thumb Code    32  object.o(i.rt_object_detach)
    rt_object_get_information                0x08001c01   Thumb Code    30  object.o(i.rt_object_get_information)
    rt_object_init                           0x08001c25   Thumb Code    80  object.o(i.rt_object_init)
    rt_object_is_systemobject                0x08001c75   Thumb Code    14  object.o(i.rt_object_is_systemobject)
    rt_schedule                              0x08001c85   Thumb Code    76  scheduler.o(i.rt_schedule)
    rt_schedule_insert_thread                0x08001cdd   Thumb Code    70  scheduler.o(i.rt_schedule_insert_thread)
    rt_schedule_remove_thread                0x08001d2d   Thumb Code    64  scheduler.o(i.rt_schedule_remove_thread)
    rt_sem_init                              0x08001d75   Thumb Code    36  ipc.o(i.rt_sem_init)
    rt_sem_release                           0x08001d99   Thumb Code    52  ipc.o(i.rt_sem_release)
    rt_sem_take                              0x08001dcd   Thumb Code   110  ipc.o(i.rt_sem_take)
    rt_show_version                          0x08001e3d   Thumb Code    40  kservice.o(i.rt_show_version)
    rt_strlen                                0x08001eed   Thumb Code    16  kservice.o(i.rt_strlen)
    rt_strncpy                               0x08001efd   Thumb Code    38  kservice.o(i.rt_strncpy)
    rt_system_heap_init                      0x08001f25   Thumb Code    96  mem.o(i.rt_system_heap_init)
    rt_system_scheduler_init                 0x08001fd1   Thumb Code    44  scheduler.o(i.rt_system_scheduler_init)
    rt_system_scheduler_start                0x08002005   Thumb Code    32  scheduler.o(i.rt_system_scheduler_start)
    rt_system_timer_init                     0x0800202d   Thumb Code     8  timer.o(i.rt_system_timer_init)
    rt_system_timer_thread_init              0x08002039   Thumb Code     2  timer.o(i.rt_system_timer_thread_init)
    rt_thread_create                         0x0800203b   Thumb Code    72  thread.o(i.rt_thread_create)
    rt_thread_delay                          0x08002083   Thumb Code     4  thread.o(i.rt_thread_delay)
    rt_thread_exit                           0x08002089   Thumb Code    78  thread.o(i.rt_thread_exit)
    rt_thread_idle_excute                    0x080020e9   Thumb Code   114  idle.o(i.rt_thread_idle_excute)
    rt_thread_idle_init                      0x08002161   Thumb Code    40  idle.o(i.rt_thread_idle_init)
    rt_thread_init                           0x08002199   Thumb Code    48  thread.o(i.rt_thread_init)
    rt_thread_resume                         0x080021c9   Thumb Code    60  thread.o(i.rt_thread_resume)
    rt_thread_self                           0x08002205   Thumb Code     6  thread.o(i.rt_thread_self)
    rt_thread_sleep                          0x08002211   Thumb Code    60  thread.o(i.rt_thread_sleep)
    rt_thread_startup                        0x08002251   Thumb Code    40  thread.o(i.rt_thread_startup)
    rt_thread_suspend                        0x0800227d   Thumb Code    66  thread.o(i.rt_thread_suspend)
    rt_thread_timeout                        0x080022bf   Thumb Code    32  thread.o(i.rt_thread_timeout)
    rt_thread_yield                          0x080022e1   Thumb Code    86  thread.o(i.rt_thread_yield)
    rt_tick_get                              0x08002341   Thumb Code     6  clock.o(i.rt_tick_get)
    rt_tick_increase                         0x0800234d   Thumb Code    38  clock.o(i.rt_tick_increase)
    rt_timer_check                           0x08002379   Thumb Code    98  timer.o(i.rt_timer_check)
    rt_timer_control                         0x080023e1   Thumb Code    48  timer.o(i.rt_timer_control)
    rt_timer_detach                          0x08002411   Thumb Code    32  timer.o(i.rt_timer_detach)
    rt_timer_init                            0x08002431   Thumb Code    40  timer.o(i.rt_timer_init)
    rt_timer_start                           0x08002459   Thumb Code   136  timer.o(i.rt_timer_start)
    rt_timer_stop                            0x080024e5   Thumb Code    46  timer.o(i.rt_timer_stop)
    rt_vsnprintf                             0x08002515   Thumb Code   626  kservice.o(i.rt_vsnprintf)
    rtthread_startup                         0x080027a1   Thumb Code    42  components.o(i.rtthread_startup)
    AHBPrescTable                            0x0800286c   Data          16  system_stm32f1xx.o(.constdata)
    APBPrescTable                            0x0800287c   Data           8  system_stm32f1xx.o(.constdata)
    __lowest_bit_bitmap                      0x08002884   Data         256  kservice.o(.constdata)
    __rt_init_rti_start                      0x080029a8   Data           4  components.o(.rti_fn.0)
    __rt_init_rti_board_start                0x080029ac   Data           4  components.o(.rti_fn.0.end)
    __rt_init_rti_board_end                  0x080029b0   Data           4  components.o(.rti_fn.1.end)
    __rt_init_rti_end                        0x080029b4   Data           4  components.o(.rti_fn.6.end)
    Region$$Table$$Base                      0x080029b8   Number         0  anon$$obj.o(Region$$Table)
    Region$$Table$$Limit                     0x080029d8   Number         0  anon$$obj.o(Region$$Table)
    uwTickFreq                               0x2000000c   Data           1  stm32f1xx_hal.o(.data)
    uwTickPrio                               0x20000010   Data           4  stm32f1xx_hal.o(.data)
    uwTick                                   0x20000014   Data           4  stm32f1xx_hal.o(.data)
    SystemCoreClock                          0x20000018   Data           4  system_stm32f1xx.o(.data)
    rt_interrupt_nest                        0x20000020   Data           1  irq.o(.data)
    rt_current_priority                      0x2000009c   Data           1  scheduler.o(.data)
    rt_current_thread                        0x200000a0   Data           4  scheduler.o(.data)
    rt_thread_ready_priority_group           0x200000a4   Data           4  scheduler.o(.data)
    rt_thread_defunct                        0x200000a8   Data           8  scheduler.o(.data)
    rt_interrupt_from_thread                 0x200000c0   Data           4  cpuport.o(.data)
    rt_interrupt_to_thread                   0x200000c4   Data           4  cpuport.o(.data)
    rt_thread_switch_interrupt_flag          0x200000c8   Data           4  cpuport.o(.data)
    huart1                                   0x200000cc   Data          64  usart.o(.bss)
    rt_thread_priority_table                 0x2000132c   Data         256  scheduler.o(.bss)
    __initial_sp                             0x20001830   Data           0  startup_stm32f103xb.o(STACK)



==============================================================================

Memory Map of the image

  Image Entry point : 0x080000ed

  Load Region LR_IROM1 (Base: 0x08000000, Size: 0x00002aa4, Max: 0x00020000, ABSOLUTE)

    Execution Region ER_IROM1 (Exec base: 0x08000000, Load base: 0x08000000, Size: 0x000029d8, Max: 0x00020000, ABSOLUTE)

    Exec Addr    Load Addr    Size         Type   Attr      Idx    E Section Name        Object

    0x08000000   0x08000000   0x000000ec   Data   RO            3    RESET               startup_stm32f103xb.o
    0x080000ec   0x080000ec   0x00000000   Code   RO         2802  * .ARM.Collect$$$$00000000  mc_w.l(entry.o)
    0x080000ec   0x080000ec   0x00000004   Code   RO         2809    .ARM.Collect$$$$00000001  mc_w.l(entry2.o)
    0x080000f0   0x080000f0   0x00000004   Code   RO         2812    .ARM.Collect$$$$00000004  mc_w.l(entry5.o)
    0x080000f4   0x080000f4   0x00000000   Code   RO         2814    .ARM.Collect$$$$00000008  mc_w.l(entry7b.o)
    0x080000f4   0x080000f4   0x00000000   Code   RO         2816    .ARM.Collect$$$$0000000A  mc_w.l(entry8b.o)
    0x080000f4   0x080000f4   0x00000008   Code   RO         2817    .ARM.Collect$$$$0000000B  mc_w.l(entry9a.o)
    0x080000fc   0x080000fc   0x00000000   Code   RO         2819    .ARM.Collect$$$$0000000D  mc_w.l(entry10a.o)
    0x080000fc   0x080000fc   0x00000000   Code   RO         2821    .ARM.Collect$$$$0000000F  mc_w.l(entry11a.o)
    0x080000fc   0x080000fc   0x00000004   Code   RO         2810    .ARM.Collect$$$$00002712  mc_w.l(entry2.o)
    0x08000100   0x08000100   0x00000024   Code   RO            4    .text               startup_stm32f103xb.o
    0x08000124   0x08000124   0x000000f4   Code   RO         1754    .text               context_rvds.o
    0x08000218   0x08000218   0x00000024   Code   RO         2807    .text               mc_w.l(memseta.o)
    0x0800023c   0x0800023c   0x00000024   Code   RO         2823    .text               mc_w.l(init.o)
    0x08000260   0x08000260   0x0000000a   Code   RO         1832    i.$Sub$$main        components.o
    0x0800026a   0x0800026a   0x00000002   Code   RO          265    i.BusFault_Handler  stm32f1xx_it.o
    0x0800026c   0x0800026c   0x00000002   Code   RO          266    i.DebugMon_Handler  stm32f1xx_it.o
    0x0800026e   0x0800026e   0x00000002   Code   RO          160    i.Error_Handler     main.o
    0x08000270   0x08000270   0x000001e0   Code   RO          697    i.HAL_GPIO_Init     stm32f1xx_hal_gpio.o
    0x08000450   0x08000450   0x0000000a   Code   RO          699    i.HAL_GPIO_ReadPin  stm32f1xx_hal_gpio.o
    0x0800045a   0x0800045a   0x0000000e   Code   RO          700    i.HAL_GPIO_TogglePin  stm32f1xx_hal_gpio.o
    0x08000468   0x08000468   0x0000000a   Code   RO          701    i.HAL_GPIO_WritePin  stm32f1xx_hal_gpio.o
    0x08000472   0x08000472   0x00000002   PAD
    0x08000474   0x08000474   0x0000000c   Code   RO          393    i.HAL_GetTick       stm32f1xx_hal.o
    0x08000480   0x08000480   0x00000024   Code   RO          400    i.HAL_Init          stm32f1xx_hal.o
    0x080004a4   0x080004a4   0x00000040   Code   RO          401    i.HAL_InitTick      stm32f1xx_hal.o
    0x080004e4   0x080004e4   0x0000003c   Code   RO          322    i.HAL_MspInit       stm32f1xx_hal_msp.o
    0x08000520   0x08000520   0x00000040   Code   RO          863    i.HAL_NVIC_SetPriority  stm32f1xx_hal_cortex.o
    0x08000560   0x08000560   0x00000024   Code   RO          864    i.HAL_NVIC_SetPriorityGrouping  stm32f1xx_hal_cortex.o
    0x08000584   0x08000584   0x0000012c   Code   RO          557    i.HAL_RCC_ClockConfig  stm32f1xx_hal_rcc.o
    0x080006b0   0x080006b0   0x00000020   Code   RO          564    i.HAL_RCC_GetPCLK1Freq  stm32f1xx_hal_rcc.o
    0x080006d0   0x080006d0   0x00000020   Code   RO          565    i.HAL_RCC_GetPCLK2Freq  stm32f1xx_hal_rcc.o
    0x080006f0   0x080006f0   0x0000006c   Code   RO          566    i.HAL_RCC_GetSysClockFreq  stm32f1xx_hal_rcc.o
    0x0800075c   0x0800075c   0x00000320   Code   RO          569    i.HAL_RCC_OscConfig  stm32f1xx_hal_rcc.o
    0x08000a7c   0x08000a7c   0x00000028   Code   RO          868    i.HAL_SYSTICK_Config  stm32f1xx_hal_cortex.o
    0x08000aa4   0x08000aa4   0x00000062   Code   RO         1418    i.HAL_UART_Init     stm32f1xx_hal_uart.o
    0x08000b06   0x08000b06   0x00000002   PAD
    0x08000b08   0x08000b08   0x00000070   Code   RO          224    i.HAL_UART_MspInit  usart.o
    0x08000b78   0x08000b78   0x000000ba   Code   RO         1426    i.HAL_UART_Transmit  stm32f1xx_hal_uart.o
    0x08000c32   0x08000c32   0x00000002   PAD
    0x08000c34   0x08000c34   0x0000009c   Code   RO          199    i.MX_GPIO_Init      gpio.o
    0x08000cd0   0x08000cd0   0x000000dc   Code   RO           13    i.MX_RT_Thread_Init  app_rt_thread.o
    0x08000dac   0x08000dac   0x00000038   Code   RO          225    i.MX_USART1_UART_Init  usart.o
    0x08000de4   0x08000de4   0x00000002   Code   RO          267    i.MemManage_Handler  stm32f1xx_it.o
    0x08000de6   0x08000de6   0x00000002   Code   RO          268    i.NMI_Handler       stm32f1xx_it.o
    0x08000de8   0x08000de8   0x00000002   Code   RO          269    i.SVC_Handler       stm32f1xx_it.o
    0x08000dea   0x08000dea   0x00000012   Code   RO         1758    i.SysTick_Handler   board.o
    0x08000dfc   0x08000dfc   0x0000004e   Code   RO          161    i.SystemClock_Config  main.o
    0x08000e4a   0x08000e4a   0x00000002   PAD
    0x08000e4c   0x08000e4c   0x00000068   Code   RO         1719    i.SystemCoreClockUpdate  system_stm32f1xx.o
    0x08000eb4   0x08000eb4   0x00000048   Code   RO         1720    i.SystemInit        system_stm32f1xx.o
    0x08000efc   0x08000efc   0x000000b8   Code   RO         1444    i.UART_SetConfig    stm32f1xx_hal_uart.o
    0x08000fb4   0x08000fb4   0x00000064   Code   RO         1446    i.UART_WaitOnFlagUntilTimeout  stm32f1xx_hal_uart.o
    0x08001018   0x08001018   0x00000002   Code   RO          270    i.UsageFault_Handler  stm32f1xx_it.o
    0x0800101a   0x0800101a   0x00000020   Code   RO          870    i.__NVIC_SetPriority  stm32f1xx_hal_cortex.o
    0x0800103a   0x0800103a   0x00000002   PAD
    0x0800103c   0x0800103c   0x00000044   Code   RO         2178    i.__rt_ffs          kservice.o
    0x08001080   0x08001080   0x0000000e   Code   RO         2827    i.__scatterload_copy  mc_w.l(handlers.o)
    0x0800108e   0x0800108e   0x00000002   Code   RO         2828    i.__scatterload_null  mc_w.l(handlers.o)
    0x08001090   0x08001090   0x0000000e   Code   RO         2829    i.__scatterload_zeroinit  mc_w.l(handlers.o)
    0x0800109e   0x0800109e   0x00000002   PAD
    0x080010a0   0x080010a0   0x00000014   Code   RO         1899    i._has_defunct_thread  idle.o
    0x080010b4   0x080010b4   0x00000074   Code   RO         2548    i._rt_thread_init   thread.o
    0x08001128   0x08001128   0x0000001c   Code   RO         2668    i._rt_timer_init    timer.o
    0x08001144   0x08001144   0x00000012   Code   RO         2669    i._rt_timer_remove  timer.o
    0x08001156   0x08001156   0x00000016   Code   RO          162    i.main              main.o
    0x0800116c   0x0800116c   0x0000000e   Code   RO         1833    i.main_thread_entry  components.o
    0x0800117a   0x0800117a   0x00000002   PAD
    0x0800117c   0x0800117c   0x00000054   Code   RO         2361    i.plug_holes        mem.o
    0x080011d0   0x080011d0   0x00000130   Code   RO         2180    i.print_number      kservice.o
    0x08001300   0x08001300   0x00000070   Code   RO           14    i.receive_thread_entry  app_rt_thread.o
    0x08001370   0x08001370   0x0000002c   Code   RO         1834    i.rt_application_init  components.o
    0x0800139c   0x0800139c   0x0000001c   Code   RO         1835    i.rt_components_board_init  components.o
    0x080013b8   0x080013b8   0x0000001c   Code   RO         1836    i.rt_components_init  components.o
    0x080013d4   0x080013d4   0x0000001c   Code   RO         2487    i.rt_enter_critical  scheduler.o
    0x080013f0   0x080013f0   0x00000020   Code   RO         1940    i.rt_event_create   ipc.o
    0x08001410   0x08001410   0x000000be   Code   RO         1944    i.rt_event_recv     ipc.o
    0x080014ce   0x080014ce   0x00000086   Code   RO         1945    i.rt_event_send     ipc.o
    0x08001554   0x08001554   0x00000038   Code   RO         2488    i.rt_exit_critical  scheduler.o
    0x0800158c   0x0800158c   0x000000c4   Code   RO         2363    i.rt_free           mem.o
    0x08001650   0x08001650   0x00000008   Code   RO         1759    i.rt_heap_begin_get  board.o
    0x08001658   0x08001658   0x00000008   Code   RO         1760    i.rt_heap_end_get   board.o
    0x08001660   0x08001660   0x00000050   Code   RO         1761    i.rt_hw_board_init  board.o
    0x080016b0   0x080016b0   0x00000040   Code   RO         2183    i.rt_hw_console_output  kservice.o
    0x080016f0   0x080016f0   0x000001f4   Code   RO         2763    i.rt_hw_hard_fault_exception  cpuport.o
    0x080018e4   0x080018e4   0x00000038   Code   RO         2764    i.rt_hw_stack_init  cpuport.o
    0x0800191c   0x0800191c   0x0000001c   Code   RO         2148    i.rt_interrupt_enter  irq.o
    0x08001938   0x08001938   0x0000001c   Code   RO         2150    i.rt_interrupt_leave  irq.o
    0x08001954   0x08001954   0x0000000e   Code   RO         1946    i.rt_ipc_list_resume  ipc.o
    0x08001962   0x08001962   0x00000002   PAD
    0x08001964   0x08001964   0x00000052   Code   RO         1948    i.rt_ipc_list_suspend  ipc.o
    0x080019b6   0x080019b6   0x00000002   PAD
    0x080019b8   0x080019b8   0x00000020   Code   RO         2184    i.rt_kprintf        kservice.o
    0x080019d8   0x080019d8   0x0000000e   Code   RO         2411    i.rt_list_insert_after  object.o
    0x080019e6   0x080019e6   0x0000000e   Code   RO         2549    i.rt_list_insert_after  thread.o
    0x080019f4   0x080019f4   0x0000000e   Code   RO         2670    i.rt_list_insert_after  timer.o
    0x08001a02   0x08001a02   0x0000000e   Code   RO         1949    i.rt_list_insert_before  ipc.o
    0x08001a10   0x08001a10   0x00000012   Code   RO         2412    i.rt_list_remove    object.o
    0x08001a22   0x08001a22   0x00000012   Code   RO         2550    i.rt_list_remove    thread.o
    0x08001a34   0x08001a34   0x000000f0   Code   RO         2364    i.rt_malloc         mem.o
    0x08001b24   0x08001b24   0x00000046   Code   RO         2190    i.rt_memset         kservice.o
    0x08001b6a   0x08001b6a   0x00000050   Code   RO         2413    i.rt_object_allocate  object.o
    0x08001bba   0x08001bba   0x00000026   Code   RO         2414    i.rt_object_delete  object.o
    0x08001be0   0x08001be0   0x00000020   Code   RO         2415    i.rt_object_detach  object.o
    0x08001c00   0x08001c00   0x00000024   Code   RO         2417    i.rt_object_get_information  object.o
    0x08001c24   0x08001c24   0x00000050   Code   RO         2419    i.rt_object_init    object.o
    0x08001c74   0x08001c74   0x0000000e   Code   RO         2420    i.rt_object_is_systemobject  object.o
    0x08001c82   0x08001c82   0x00000002   PAD
    0x08001c84   0x08001c84   0x00000058   Code   RO         2489    i.rt_schedule       scheduler.o
    0x08001cdc   0x08001cdc   0x00000050   Code   RO         2490    i.rt_schedule_insert_thread  scheduler.o
    0x08001d2c   0x08001d2c   0x00000048   Code   RO         2491    i.rt_schedule_remove_thread  scheduler.o
    0x08001d74   0x08001d74   0x00000024   Code   RO         1969    i.rt_sem_init       ipc.o
    0x08001d98   0x08001d98   0x00000034   Code   RO         1970    i.rt_sem_release    ipc.o
    0x08001dcc   0x08001dcc   0x0000006e   Code   RO         1971    i.rt_sem_take       ipc.o
    0x08001e3a   0x08001e3a   0x00000002   PAD
    0x08001e3c   0x08001e3c   0x000000b0   Code   RO         2192    i.rt_show_version   kservice.o
    0x08001eec   0x08001eec   0x00000010   Code   RO         2198    i.rt_strlen         kservice.o
    0x08001efc   0x08001efc   0x00000026   Code   RO         2200    i.rt_strncpy        kservice.o
    0x08001f22   0x08001f22   0x00000002   PAD
    0x08001f24   0x08001f24   0x000000ac   Code   RO         2367    i.rt_system_heap_init  mem.o
    0x08001fd0   0x08001fd0   0x00000034   Code   RO         2492    i.rt_system_scheduler_init  scheduler.o
    0x08002004   0x08002004   0x00000028   Code   RO         2493    i.rt_system_scheduler_start  scheduler.o
    0x0800202c   0x0800202c   0x0000000c   Code   RO         2671    i.rt_system_timer_init  timer.o
    0x08002038   0x08002038   0x00000002   Code   RO         2672    i.rt_system_timer_thread_init  timer.o
    0x0800203a   0x0800203a   0x00000048   Code   RO         2552    i.rt_thread_create  thread.o
    0x08002082   0x08002082   0x00000004   Code   RO         2553    i.rt_thread_delay   thread.o
    0x08002086   0x08002086   0x00000002   PAD
    0x08002088   0x08002088   0x00000058   Code   RO         2556    i.rt_thread_exit    thread.o
    0x080020e0   0x080020e0   0x00000006   Code   RO         1900    i.rt_thread_idle_entry  idle.o
    0x080020e6   0x080020e6   0x00000002   PAD
    0x080020e8   0x080020e8   0x00000078   Code   RO         1901    i.rt_thread_idle_excute  idle.o
    0x08002160   0x08002160   0x00000038   Code   RO         1903    i.rt_thread_idle_init  idle.o
    0x08002198   0x08002198   0x00000030   Code   RO         2558    i.rt_thread_init    thread.o
    0x080021c8   0x080021c8   0x0000003c   Code   RO         2560    i.rt_thread_resume  thread.o
    0x08002204   0x08002204   0x0000000c   Code   RO         2561    i.rt_thread_self    thread.o
    0x08002210   0x08002210   0x00000040   Code   RO         2562    i.rt_thread_sleep   thread.o
    0x08002250   0x08002250   0x0000002c   Code   RO         2563    i.rt_thread_startup  thread.o
    0x0800227c   0x0800227c   0x00000042   Code   RO         2564    i.rt_thread_suspend  thread.o
    0x080022be   0x080022be   0x00000020   Code   RO         2565    i.rt_thread_timeout  thread.o
    0x080022de   0x080022de   0x00000002   PAD
    0x080022e0   0x080022e0   0x00000060   Code   RO         2566    i.rt_thread_yield   thread.o
    0x08002340   0x08002340   0x0000000c   Code   RO         1796    i.rt_tick_get       clock.o
    0x0800234c   0x0800234c   0x0000002c   Code   RO         1797    i.rt_tick_increase  clock.o
    0x08002378   0x08002378   0x00000068   Code   RO         2673    i.rt_timer_check    timer.o
    0x080023e0   0x080023e0   0x00000030   Code   RO         2674    i.rt_timer_control  timer.o
    0x08002410   0x08002410   0x00000020   Code   RO         2677    i.rt_timer_detach   timer.o
    0x08002430   0x08002430   0x00000028   Code   RO         2678    i.rt_timer_init     timer.o
    0x08002458   0x08002458   0x0000008c   Code   RO         2680    i.rt_timer_start    timer.o
    0x080024e4   0x080024e4   0x0000002e   Code   RO         2681    i.rt_timer_stop     timer.o
    0x08002512   0x08002512   0x00000002   PAD
    0x08002514   0x08002514   0x0000027c   Code   RO         2203    i.rt_vsnprintf      kservice.o
    0x08002790   0x08002790   0x00000004   Code   RO         1837    i.rti_board_end     components.o
    0x08002794   0x08002794   0x00000004   Code   RO         1838    i.rti_board_start   components.o
    0x08002798   0x08002798   0x00000004   Code   RO         1839    i.rti_end           components.o
    0x0800279c   0x0800279c   0x00000004   Code   RO         1840    i.rti_start         components.o
    0x080027a0   0x080027a0   0x0000002a   Code   RO         1841    i.rtthread_startup  components.o
    0x080027ca   0x080027ca   0x00000002   PAD
    0x080027cc   0x080027cc   0x00000078   Code   RO           15    i.send_thread_entry  app_rt_thread.o
    0x08002844   0x08002844   0x00000028   Code   RO         2205    i.skip_atoi         kservice.o
    0x0800286c   0x0800286c   0x00000010   Data   RO         1721    .constdata          system_stm32f1xx.o
    0x0800287c   0x0800287c   0x00000008   Data   RO         1722    .constdata          system_stm32f1xx.o
    0x08002884   0x08002884   0x00000122   Data   RO         2207    .constdata          kservice.o
    0x080029a6   0x080029a6   0x00000002   PAD
    0x080029a8   0x080029a8   0x00000004   Data   RO         1842    .rti_fn.0           components.o
    0x080029ac   0x080029ac   0x00000004   Data   RO         1843    .rti_fn.0.end       components.o
    0x080029b0   0x080029b0   0x00000004   Data   RO         1844    .rti_fn.1.end       components.o
    0x080029b4   0x080029b4   0x00000004   Data   RO         1845    .rti_fn.6.end       components.o
    0x080029b8   0x080029b8   0x00000020   Data   RO         2825    Region$$Table       anon$$obj.o


    Execution Region RW_IRAM1 (Exec base: 0x20000000, Load base: 0x080029d8, Size: 0x00001830, Max: 0x00005000, ABSOLUTE)

    Exec Addr    Load Addr    Size         Type   Attr      Idx    E Section Name        Object

    0x20000000   0x080029d8   0x0000000c   Data   RW           16    .data               app_rt_thread.o
    0x2000000c   0x080029e4   0x0000000c   Data   RW          407    .data               stm32f1xx_hal.o
    0x20000018   0x080029f0   0x00000004   Data   RW         1723    .data               system_stm32f1xx.o
    0x2000001c   0x080029f4   0x00000004   Data   RW         1799    .data               clock.o
    0x20000020   0x080029f8   0x00000001   Data   RW         2151    .data               irq.o
    0x20000021   0x080029f9   0x00000003   PAD
    0x20000024   0x080029fc   0x00000018   Data   RW         2369    .data               mem.o
    0x2000003c   0x08002a14   0x00000060   Data   RW         2422    .data               object.o
    0x2000009c   0x08002a74   0x00000014   Data   RW         2495    .data               scheduler.o
    0x200000b0   0x08002a88   0x0000000c   Data   RW         2682    .data               timer.o
    0x200000bc   0x08002a94   0x00000004   Data   RW         2765    .data               cpuport.o
    0x200000c0   0x08002a98   0x00000004   Data   RW         2766    .data               cpuport.o
    0x200000c4   0x08002a9c   0x00000004   Data   RW         2767    .data               cpuport.o
    0x200000c8   0x08002aa0   0x00000004   Data   RW         2768    .data               cpuport.o
    0x200000cc        -       0x00000040   Zero   RW          226    .bss                usart.o
    0x2000010c        -       0x00001000   Zero   RW         1762    .bss                board.o
    0x2000110c        -       0x00000180   Zero   RW         1904    .bss                idle.o
    0x2000128c        -       0x00000080   Zero   RW         2206    .bss                kservice.o
    0x2000130c        -       0x00000020   Zero   RW         2368    .bss                mem.o
    0x2000132c        -       0x00000100   Zero   RW         2494    .bss                scheduler.o
    0x2000142c   0x08002aa4   0x00000004   PAD
    0x20001430        -       0x00000400   Zero   RW            1    STACK               startup_stm32f103xb.o


==============================================================================

Image component sizes


      Code (inc. data)   RO Data    RW Data    ZI Data      Debug   Object Name

       452        218          0         12          0     399500   app_rt_thread.o
       114         18          0          0       4096       3273   board.o
        56         12          0          4          0       1313   clock.o
       182         28         16          0          0       6310   components.o
       244         26          0          0          0        840   context_rvds.o
       556        326          0         16          0       3434   cpuport.o
       156         16          0          0          0        891   gpio.o
       202         26          0          0        384       5874   idle.o
       664          0          0          0          0      10478   ipc.o
        56         12          0          1          0       1770   irq.o
      1444        166        290          0        128      11331   kservice.o
       102          0          0          0          0       1628   main.o
       692        172          0         24         32       4188   mem.o
       312          6          0         96          0       8880   object.o
       416         56          0         20        256       8622   scheduler.o
        36          8        236          0       1024        784   startup_stm32f103xb.o
       112         20          0         12          0       4691   stm32f1xx_hal.o
       172         14          0          0          0      28178   stm32f1xx_hal_cortex.o
       514         34          0          0          0       4016   stm32f1xx_hal_gpio.o
        60          8          0          0          0        802   stm32f1xx_hal_msp.o
      1272        100          0          0          0       5068   stm32f1xx_hal_rcc.o
       568          6          0          0          0       3824   stm32f1xx_hal_uart.o
        12          0          0          0          0       2403   stm32f1xx_it.o
       176         38         24          4          0       1699   system_stm32f1xx.o
       734         42          0          0          0      12548   thread.o
       484         14          0         12          0      10872   timer.o
       168         20          0          0         64       1558   usart.o

    ----------------------------------------------------------------------
      9988       1386        600        204       5988     544775   Object Totals
         0          0         32          0          0          0   (incl. Generated)
        32          0          2          3          4          0   (incl. Padding)

    ----------------------------------------------------------------------

      Code (inc. data)   RO Data    RW Data    ZI Data      Debug   Library Member Name

         0          0          0          0          0          0   entry.o
         0          0          0          0          0          0   entry10a.o
         0          0          0          0          0          0   entry11a.o
         8          4          0          0          0          0   entry2.o
         4          0          0          0          0          0   entry5.o
         0          0          0          0          0          0   entry7b.o
         0          0          0          0          0          0   entry8b.o
         8          4          0          0          0          0   entry9a.o
        30          0          0          0          0          0   handlers.o
        36          8          0          0          0         68   init.o
        36          0          0          0          0        108   memseta.o

    ----------------------------------------------------------------------
       124         16          0          0          0        176   Library Totals
         2          0          0          0          0          0   (incl. Padding)

    ----------------------------------------------------------------------

      Code (inc. data)   RO Data    RW Data    ZI Data      Debug   Library Name

       122         16          0          0          0        176   mc_w.l

    ----------------------------------------------------------------------
       124         16          0          0          0        176   Library Totals

    ----------------------------------------------------------------------

==============================================================================


      Code (inc. data)   RO Data    RW Data    ZI Data      Debug   

     10112       1402        600        204       5988     538863   Grand Totals
     10112       1402        600        204       5988     538863   ELF Image Totals
     10112       1402        600        204          0          0   ROM Totals

==============================================================================

    Total RO  Size (Code + RO Data)                10712 (  10.46kB)
    Total RW  Size (RW Data + ZI Data)              6192 (   6.05kB)
    Total ROM Size (Code + RO Data + RW Data)      10916 (  10.66kB)

==============================================================================

