:020000040800F2
:10000000F0170020010100089F0D0008CB01000837
:100010009D0D00086B020008D10F000800000000D1
:10002000000000000000000000000000A10D00081A
:100030006D0200080000000053010008A30D000835
:100040001B0100081B0100081B0100081B01000820
:100050001B0100081B0100081B0100081B01000810
:100060001B0100081B0100081B0100081B01000800
:100070001B0100081B0100081B0100081B010008F0
:100080001B0100081B0100081B0100081B010008E0
:100090001B0100081B0100081B0100081B010008D0
:1000A0001B0100081B0100081B0100081B010008C0
:1000B0001B0100081B0100081B0100081B010008B0
:1000C0001B0100081B0100081B0100081B010008A0
:1000D0001B0100081B0100081B0100081B01000890
:1000E0001B0100081B0100081B010008DFF80CD0F1
:1000F00000F0A4F80048004761020008F017002053
:100100000648804706480047FEE7FEE7FEE7FEE7B1
:10011000FEE7FEE7FEE7FEE7FEE7FEE76D0E0008FE
:10012000ED000008EFF3108072B6704780F310887E
:100130007047334A1368012B04D04FF0010313605A
:10014000304A1060304A116030484FF080510160F1
:100150007047EFF3108272B62948016891B14FF0F1
:10016000000101602748016829B1EFF3098121E905
:10017000F00F00680160244909680968B1E8F00FD0
:1001800081F3098882F310884EF0040E70471E49EF
:1001900008601C494FF00000086019494FF0010049
:1001A00008601B484FF47F01D0F8002041EA0201AB
:1001B000016016484FF080510160164800680068E1
:1001C00080F3088861B662B670471EF0040F0CBF5A
:1001D000EFF30880EFF3098020E9F00F40F804ED19
:1001E0001EF0040F0CBF80F3088880F3098800B567
:1001F00001F05CFA5DF804EB4EF0040E704700006D
:10020000940000208C0000209000002004ED00E00D
:1002100020ED00E008ED00E0D2B201E000F8012B93
:10022000491EFBD270470022F6E710B513460A4676
:1002300004461946FFF7F0FF204610BD064C074D57
:1002400006E0E06840F0010394E8070098471034A6
:10025000AC42F6D3FFF74EFF1C2900083C290008EA
:1002600010B502F069FA002010BDFEE77047704734
:100270002DE9F84FDFF8B891002409F1040A0AF1DA
:10028000040B23460F270BF1040EC9E00125A540FE
:100290002A40AA427DD1674ED1F804C0ACEB0608D3
:1002A000B44532D014DCBCF1030F3AD009DCBCF108
:1002B000000F2AD0BCF1010F1CD0BCF1020F31D1CC
:1002C0001DE0BCF1110F17D0BCF1120F2AD119E0BB
:1002D000B8F5881F19D006DCB8F5803F15D0B8F501
:1002E000801F1FD111E0B8F5001F0ED0B8F5041F14
:1002F00018D10AE0CB6815E0CB681B1D12E0CB6873
:1003000008330FE0CB680C330CE08B682BB1012B6A
:100310004FF0080303D0456104E0042302E00561C7
:1003200000E00023FF2A01D8064601E000F10406A0
:100330004FEA840501D9A5F12005D6F8008007FA17
:1003400005FC28EA0C0803FA05F548EA0508C6F892
:1003500000804D68ED0062D5374DAE6946F001066C
:10036000AE61AD6924F0030605F001050095334D3B
:1003700006EB050CDCF80850A607360F07FA06F85E
:1003800025EA0805DFF8B880404503D14FF00008A2
:1003900017E044E0DFF8AC80404502D14FF001089F
:1003A0000FE0DFF8A480404502D14FF0020808E0DA
:1003B000DFF89880404502D14FF0030801E04FF08C
:1003C000040808FA06F848EA0508CCF808804D68E1
:1003D000D9F80060ED034D4601D5164300E0964381
:1003E0002E604D68DAF80060AD03554601D516431E
:1003F00000E096432E604D68DBF80060ED025D463C
:1004000001D5164300E096432E604D68DEF800608B
:10041000AD02754601D5164300E096432E60641C7C
:100420000D682A46E5407FF431AFBDE8F88F000043
:1004300000040140000011100010024000000140C3
:1004400000080140000C0140001001400014014070
:100450008068084000D0012070470AB101617047F0
:100460000904FBE70148806870470000080000208D
:10047000074810B5016841F010010160032000F049
:1004800067F8002000F006F800F024F8002010BD06
:100490000020024070B50D4D04464FF47A71287863
:1004A000B1FBF0F00A490968B1FBF0F000F0DEFAA8
:1004B00048B9102C07D200222146501E00F028F81F
:1004C00000206C6070BD012070BD0000080000209D
:1004D000140000200C4808B5816941F001018161D8
:1004E000816901F001010091C16941F08051C16150
:1004F000C06900F0805000900448416821F0E0613C
:1005000041F00071416008BD001002400000014050
:10051000F0B40E4B1B680C46C3F30223C3F107056E
:10052000042D00D90425191D072901D2002300E05C
:10053000DB1E012606FA05F1491E214099409E4026
:10054000761E16403143F0BC00F043BD0CED00E0D8
:10055000064900F0070208684FF6FF03184040EA1A
:100560000220034A10430860704700000CED00E0D1
:100570000000FA052DE9F0470F46050061D0434E13
:10058000306800F00700B84209D2306820F0070058
:1005900038433060306800F00700B84251D1286815
:1005A0003B4C810712D5400703D5606840F4E060FA
:1005B00060602878000703D5606840F46050606090
:1005C0006068A96820F0F000084360602878C007E0
:1005D00028D06868012810D02168022810D0890727
:1005E00000292EDA616821F0030101436160FFF701
:1005F00039FF804641F288390DE021688903EFE731
:100600008901EDE7FFF72EFFA0EB0801494502D96C
:100610000320BDE8F0876068696800F00C00B0EB6B
:10062000810FEFD1306800F00700B8420BD9306875
:1006300020F0070038433060306800F00700B8420F
:1006400001D00120E5E72878400705D56068E96812
:1006500020F4E060084360602878000706D56068F1
:10066000296920F4605040EAC100606000F038F869
:100670006168084AC1F30311515CC840064908602B
:1006800006480068FFF706FF0020C2E7002002408E
:10069000001002408A270008140000200C000020EF
:1006A0000448054900684968044AC1F30221515CC5
:1006B000C840704714000020001002409A2700082C
:1006C0000448054900684968044AC1F3C221515CE5
:1006D000C840704714000020001002409A2700080C
:1006E00012A185B00FC98DE80F0014A0144A00684C
:1006F00004905168134801F00C03042B10D0082B10
:100700000ED1C1F38343C9031DF803000AD5516814
:1007100004AAC1F34041515C0A4A5043B0FBF1F0D6
:1007200005B0704708494843FAE700000203040592
:10073000060708090A0B0C0D0E0F1010010200002D
:100740000010024000127A0000093D002DE9F84F28
:10075000040070D02078C04DC00749D06868C0F34D
:100760008100012807D06868C0F38100022809D100
:100770006868C00306D52868800339D560680028FA
:10078000E7D035E06068B0F5803F0BD010B1B0F530
:10079000A02F11D0286820F480302860286820F429
:1007A000802002E0286840F480302860606890B1C2
:1007B000FFF758FE06460AE0286840F480202860CB
:1007C000F0E700BFFFF74EFE801B642873D828684F
:1007D0008003F7D50CE0FFF745FE064605E000BFB5
:1007E000FFF740FE801B6428F0D828688003F7D408
:1007F00020789A4E80074FF001094FF0000839D554
:10080000686810F00C0F07D06868C0F381000228F8
:1008100009D16868C00306D42868800714D5206908
:10082000012808D110E02069B0B1C6F80090FFF7A8
:1008300019FE074605E00AE1FFF714FEC01B022877
:10084000C4D828688007F7D52868616920F0F800C7
:1008500040EAC10028600DE0C6F80080FFF702FE04
:10086000074604E0FFF7FEFDC01B022823D82868D6
:100870008007F7D4207800072CD57948A169D9B131
:10088000C0F80090FFF7EEFD074604E0FFF7EAFD31
:10089000C01B02280FD8686A8007F7D571484FF44B
:1008A000FA510068B0FBF1F0009000BF0098411EC3
:1008B0000091FAD20EE080E0C0F80080FFF7D2FD90
:1008C000074604E0FFF7CEFDC01B022875D8686A12
:1008D0008007F7D42078400760D5E8690027C0007A
:1008E00008D4E86940F08050E861E869012700F029
:1008F000805000905C480168C90513D401688346A4
:1009000041F480710160FFF7ADFD824606E000BF53
:10091000FFF7A8FDA0EB0A0064284ED8DBF8000022
:10092000C005F5D5E06801280AD008B1052813D024
:10093000286A20F001002862286A20F0040002E002
:10094000286A40F001002862E06841F2883B98B1D3
:10095000FFF788FD82460BE0286A40F00400286219
:10096000EEE700BFFFF77EFDA0EB0A0159455AD81C
:10097000286A8007F6D50CE0FFF774FD824605E093
:10098000FFF770FDA0EB0A0159454CD8286A800793
:10099000F6D41FB1E86920F08050E861E06988B3BF
:1009A0006968C1F38101022944D00228C6F8608039
:1009B00004D0FFF757FD044638E034E0FFF752FD5E
:1009C000074604E0FFF74EFDC01B02282BD828681D
:1009D0008001F7D4206AB0F5803F05D16868A1682E
:1009E00020F4003008436860D4E9080108436968CE
:1009F00021F4741108436860C6F86090FFF732FD77
:100A0000044606E025E000BFFFF72CFD001B02288E
:100A100009D828688001F7D51BE000BFFFF722FD49
:100A2000001B022802D90320BDE8F88F2868800146
:100A3000F4D40EE00128F7D06868226A00F480310F
:100A4000914204D1616A00F47010884201D0012003
:100A5000EAE70020E8E70000001002400000424200
:100A600080044242140000200070004010B5401E77
:100A7000B0F1807F01D3012010BD4FF0E024606110
:100A80000F21601700F0A5FA0020A0610720206167
:100A9000002010BD70B5040004D094F83900002582
:100AA00010B106E0012070BD84F83850204600F0F7
:100AB00023F8242084F839002068C16821F400510B
:100AC000C160204600F0F6F92068016921F49041E8
:100AD00001612068416921F02A0141612068C168F3
:100AE00041F40051C160E563202084F8390084F8A6
:100AF0003A00002070BD000030B585B0002400949D
:100B000001940294039400681449884224D1144843
:100B1000816941F480418161816901F480410491DE
:100B2000816941F00401816180690E4D00F004008B
:100B300004904FF400700090022001900320039075
:100B400069462846FFF794FB2815CDE9000469465D
:100B500028460294FFF78CFB05B030BD00380140F9
:100B600000100240000801402DE9F843044690F8C7
:100B700039001F4616460D46202850D1A5B19EB11A
:100B800094F8380001284AD0012084F838004FF04A
:100B90000008C4F83C80212084F83900FFF762FC8B
:100BA000A6848146E68426E00120BDE8F883E08C37
:100BB000401EE084A0684B46B0F5805F4FF0000215
:100BC0004FF080012046009703D000F0CFF9E8B93C
:100BD0000DE000F0CBF9C8B928882168C0F30800FF
:100BE0004860206908B16D1C05E0AD1C03E0216878
:100BF00015F8010B4860E08C0028D8D14B46002244
:100C000040212046009700F0B1F908B10320CCE75D
:100C1000202084F8390084F838800020C5E70220BD
:100C2000C3E7000070B586B0002421480094019409
:100C300002940394816941F010018161816901F09E
:100C400010010491816941F020018161816901F005
:100C500020010491816941F008018161816901F0FD
:100C600008010491816941F0040181618069114E9C
:100C700000F004004FF4005504900022294630464D
:100C8000FFF7EBFB01200095CDE901040224694642
:100C900030460394FFF7ECFA4FF4405000900648BA
:100CA000CDE9010469460548FFF7E2FA06B070BDD8
:100CB000001002400010014000001110000C014023
:100CC0002DE9FC4114A000F023FE1F4800F020FE97
:100CD00004201425CDE90005C601334600221B4936
:100CE0001BA001F076F91C4C4FF0FF37206080B15B
:100CF00001F07AFA0320CDE90005334600221749B6
:100D000017A001F066F9606018B1BDE8FC4101F080
:100D10006BBA3846BDE8FC8154686973206973205A
:100D2000616E2052545420746872656164206D6154
:100D30006E6167656D656E74206578706572696D4A
:100D4000656E7421200A0000C42800086D12000896
:100D50006C65643100000000000000201D110008D7
:100D60006B6579000C4810B50A4901604FF4E13118
:100D70004160002181600C22C160C0E904128161E0
:100D8000C161FFF787FE002803D0BDE81040FFF7E0
:100D90006EBA10BD0038014098000020FEE7704791
:100DA000704710B500F098FD01F09CFABDE81040C6
:100DB00000F0A0BD30B58FB028216846FFF733FAA8
:100DC00014210AA8FFF72FFA01210804CDE9001029
:100DD0000024029402250491CDE907504FF4E0105D
:100DE00009906846FFF7B2FC0F20CDE90A056802BA
:100DF000CDE90C4002210AA80E94FFF7BBFB0FB00F
:100E000030BD0000144910B54868144A10F00C03B6
:100E1000134803D0042B01D0082B09D00260496885
:100E2000104AC1F30311515C0268CA40026010BD50
:100E30004A684B6802F470124FF0020413F4803FCA
:100E400004EB924202D04B689B0301D5064B00E0B5
:100E5000024B5A43E2E700000010024000127A0001
:100E6000140000208A27000800093D000D48016891
:100E700041F00101016041680B4A11404160016885
:100E80000A4A11400160016821F480210160416833
:100E900021F4FE0141604FF41F0181600449C00349
:100EA00008607047001002400000FFF8FFFFF6FEE8
:100EB00008ED00E02DE9F041044600680169E268B0
:100EC00021F44051114301612169A068084361691F
:100ED00008432168CA6841F20C639A430243CA601E
:100EE00020684169A26921F44071114341611E49A2
:100EF000206864253226884202D1FFF7E1FB01E039
:100F0000FFF7CEFB00EBC00101EB001160686FF052
:100F100018078000B1FBF0F2B2FBF5F2B1FBF0F381
:100F20007A4303EB8202B1FBF0F306EB0212B2FB51
:100F3000F5F2B3FBF5F302F0F00202EB0312B1FBA2
:100F4000F0F3B1FBF0F0B0FBF5F0784303EB800079
:100F500006EB0010B0FBF5F0216800F00F00104424
:100F60008860BDE8F0810000003801402DE9F041C3
:100F7000984617460E460446069D1DE0681C1BD089
:100F80002DB1FFF76FFAA0EB0800A84214D9206832
:100F9000C16821F4D071C1602068416921F001016C
:100FA0004161202084F8390084F83A00002084F858
:100FB00038000320BDE8F0812068006836EA0000B0
:100FC00004D00020B842D9D00020F3E70120F9E78F
:100FD000FEE70907090E002804DB00F1E02080F895
:100FE0000014704700F00F0000F1E02080F8141D9D
:100FF00070470000002806D00E4910F0FF0F03D004
:10100000C0B2085C401C704710F47F4F04D0C0F39E
:101010000720085C0930704710F47F0F04D0C0F33C
:101020000740085C1130704701EB10600078193000
:1010300070470000A227000802E008C8121F08C17C
:10104000002AFAD170477047002001E001C1121F49
:10105000002AFBD17047000003480168814201D09B
:101060000120704700207047740000202DE9FC41EA
:101070001F460446DDE90831DDE90A6514304060A9
:101080000060C4E90827C4E90A310A46232118464A
:101090001C3400F0F3FCD4E903014218D4E9010147
:1010A000104B121F00F0FCFB44F81A0B002004F850
:1010B00001690D4A04F8036BE4E8020544F810598D
:1010C00001C404F83C0B01C444F8740900902346A1
:1010D0000190194604F1440001F076F90020BDE8C2
:1010E000FC810000212000085722000810B5029C56
:1010F00024F001044472C0E907120021C0E909315B
:1011000014304060006010BDF0E905124A60D0E97B
:10111000001211604060006070470000194C1A4DC9
:101120004FF40056A71431462046FFF791F90128E5
:101130000AD116A000F0ECFB286801F06BF8010062
:1011400009D018A000F0E4FB39462046FFF780F9EB
:10115000012804D00EE020A000F0DAFBF4E728A07C
:1011600000F0D6FB286800F0FBFF010006D02AA0A3
:1011700000F0CEFB142000F050FFD4E732A000F0C6
:10118000C7FBF7E7000C01400000002053757370A7
:10119000656E64204C454431207468726561642139
:1011A0000A00000053757370656E646564204C45D9
:1011B000443120746872656164206661696C65649D
:1011C00021204661696C656420636F64653A203054
:1011D00078256C780A0000004C4544312074687210
:1011E0006561642073757370656E646564207375E2
:1011F000636365737366756C6C79210A0000000087
:10120000526573746F7265204C4544312074687266
:10121000656164210A000000526573746F72652075
:101220004C45443120746872656164206661696C64
:10123000656421204661696C656420636F64653A6A
:10124000203078256C780A00526573746F726520BF
:101250004C45443120746872656164207375636322
:1012600065737366756C6C79210A00000D4C4FF440
:1012700000564FF4FA75012231462046FFF7EDF88B
:10128000284600F0CAFE08A000F042FB00223146CA
:101290002046FFF7E2F8284600F0BFFE0AA000F063
:1012A00037FBE8E7001001406C6564315F746872D9
:1012B0006561642072756E6E696E672C4C454431B1
:1012C0005F4F4E0D0A0000006C6564315F746872F8
:1012D0006561642072756E6E696E672C4C45443191
:1012E0005F4F46460D0A0000FFF7C2F8FFF762FDA8
:1012F000FFF798FCFFF736FDFFF7E2FCFEE710B5BD
:1013000000F0EAF8BDE81040FFF7EEBF30B5134932
:1013100043680A68134402F1080498420DD05D88BE
:101320005DB94D68AB4208D08D689D4200D18860A0
:101330005D6845605B68851A1D518368134483426C
:101340000BD05D88002D08D18D68854200D18B605F
:10135000416859604068991A015130BD2000002051
:101360002DE9F04F85B09946DDE90EA5109CAB46FE
:10137000630602D5DFF814C103E0DFF810C1ACF159
:10138000110CE30601D524F00104E30701D030235A
:1013900000E0202300260493A3070BD5002A02DADD
:1013A0002D26524206E0630701D52B2602E02307D3
:1013B00000D520260023EE4622B930228DF80020E9
:1013C00001230CE0B9F10A0F14D002F00F08120942
:1013D0001CF808800EF803805B1C002AF2D1AB4297
:1013E00000DD1D46AAEB050214F0110F4FF0200797
:1013F00008D015E00A27B2FBF7F807FB1828B2FB64
:10140000F7F2E5E73EB1002A05DD521E03E088420F
:1014100000D20770401CB2F1000CA2F10102F6DC10
:1014200026B1884200D20670401C521EE40605D543
:1014300008E0884201D2049C0470401C141EA2F1F2
:101440000102F6DC30242E466D1E9E420ADD8842E3
:1014500000D20470401CF6E7884201D2E55C0570BA
:10146000401C00E074461D1EA3F1010307DDBBF123
:10147000000FF1D103E0884200D20770401C131E18
:10148000A2F10102F7DC05B0BDE8F08FB328000837
:101490001CB514210A20CDE900014FF4806300221D
:1014A000034904A000F095FDBDE81C4000F09CBE7F
:1014B000FF1200086D61696E0000000070B5044CF9
:1014C000044D02E020688047241DAC42FAD370BD71
:1014D000102900081429000870B5044C044D02E0DE
:1014E00020688047241DAC42FAD370BD142900083F
:1014F0001829000810B5FEF715FE044A5188491C4A
:101500005180BDE81040FEF711BE000068000020C9
:1015100010B5FEF707FE0B4C6188491E09B26180C9
:1015200000290ADC00216180FEF700FE60680028C7
:1015300007D0BDE8104000F051BBBDE81040FEF7F9
:10154000F5BD10BD6800002070B5002833D01A4DDD
:10155000296888422FD3696888422CD2A0F10C04F4
:101560004FF0FF31154800F0DEFB60884FF4F55670
:1015700010B12088B04208D011A000F0C9F923882A
:101580006288214615A000F0C3F900206080268003
:10159000A868844200D2AC6029686068611A401A69
:1015A0002969081A28612046FFF7B0FEBDE870409F
:1015B000024800F09DBB70BD20000020D01200202A
:1015C000746F2066726565206120626164206461C9
:1015D000746120626C6F636B3A0A00006D656D3A4E
:1015E000203078253038782C207573656420666C3F
:1015F00061673A2025642C206D6167696320636F01
:1016000064653A203078253034780A000048704705
:10161000D800002000487047D810002010B5FFF710
:10162000F1FB10484FF47A710068B0FBF1F0401EF6
:10163000B0F1807F09D24FF0E0210B4A4861FF20D2
:1016400010700020886107200861FFF737FFFFF75F
:10165000E1FF0446FFF7DAFF2146BDE8104000F045
:101660002DBC00001400002023ED00E070B50446FE
:10167000FFF740FF4FF47A750EE00A2805D12B469C
:1016800001220D210848FFF76FFA2146641C2B4602
:1016900001220548FFF768FA20780028EDD1BDE85F
:1016A0007040FFF735BF00009800002070B5054678
:1016B000041D2B48016819B12846884700284DD0E1
:1016C00028A0E16B00F024F92AA0216A00F020F99B
:1016D0002CA0616A00F01CF92EA0A16A00F018F994
:1016E00030A0E16A00F014F932A0216800F010F98E
:1016F00034A0616800F00CF936A0A16800F008F988
:1017000038A0E16800F004F93AA0216900F000F97E
:101710003CA0616900F0FCF83EA0A16900F0F8F877
:1017200040A0E16900F0F4F842A0216B00F0F0F86D
:1017300044A0616B00F0ECF846A0A16B00F0E8F863
:101740002878400706D500F029FD014645A000F0A5
:10175000DFF802E04BA000F0DBF8FEE770BD000010
:10176000880000207073723A203078253038780A6B
:10177000000000007230303A203078253038780A86
:10178000000000007230313A203078253038780A75
:10179000000000007230323A203078253038780A64
:1017A000000000007230333A203078253038780A53
:1017B000000000007230343A203078253038780A42
:1017C000000000007230353A203078253038780A31
:1017D000000000007230363A203078253038780A20
:1017E000000000007230373A203078253038780A0F
:1017F000000000007230383A203078253038780AFE
:10180000000000007230393A203078253038780AEC
:10181000000000007231303A203078253038780AE4
:10182000000000007231313A203078253038780AD3
:10183000000000007231323A203078253038780AC2
:1018400000000000206C723A203078253038780A89
:10185000000000002070633A203078253038780A84
:101860000000000068617264206661756C74206F0E
:101870006E207468726561643A2025730D0A0D0A42
:101880000000000068617264206661756C74206FEE
:101890006E2068616E646C65720D0A0D0A000000AE
:1018A00070B50446121D22F007000022094D403891
:1018B00040F82250521C102AFAD3016200214162E2
:1018C00081624FF0807200F13005C263C16285E829
:1018D0001A0070BDEFBEADDE10B5FEF723FC044A62
:1018E0001178491C1170BDE81040FEF71FBC0000C4
:1018F0001C00002010B5FEF715FC044A1178491EA3
:101900001170BDE81040FEF711BC00001C00002063
:101910000FB47F2110B503AB0448029A00F0C6FD56
:101920000248FFF7A3FE10BC5DF814FB5012002024
:101930000268516002680A6001604860704702688E
:10194000516002680A600160486070470268516037
:1019500002680A600160486070474268116042682E
:101960004A60416008607047D0E900124A60D0E9DF
:1019700000121160406000607047D0E900124A60B8
:10198000D0E9001211604060006070472DE9F04717
:10199000002807D0374CC01C20F00306E0688642C0
:1019A00002D90020BDE8F0870C2E00D20C264FF0A3
:1019B000FF31314800F0B7F9D4F808C02168E76872
:1019C000ACEB0100BA1B4FE00D186B88E3BB6B68F2
:1019D0001B1A0C3BB34246D36A6806F11803121A6D
:1019E0000C3A4FF001094FF4F55A9A422DD383195E
:1019F0000C33CA184FF00008A2F800A0A2F8028029
:101A0000D5F80480C2E901806B60A5F802905068A7
:101A10000C37B84202D001F10802835020693044EB
:101A20000C3020616269824200D26061A5F800A09A
:101A3000654512D1A06842887AB1626890420CD0A4
:101A400040680844A060F6E70DE0A5F802906868D9
:101A50006A1A801A22691044E3E7074800F048F93F
:101A600005F10C009EE768688242ADD8024800F09C
:101A70003FF996E720000020D012002010B5034661
:101A8000CCB2042A1AD3810718D1194644EA042398
:101A900043EA034306E008C1103A08C141F8083B95
:101AA00041F8043C102AF6D201E008C1121F042AB2
:101AB000FBD20B4602E000BF03F8014B521EFBD2E3
:101AC00010BD2DE9F0410F46064600F045F80546E9
:101AD000C068FFF75BFF040019D00021EA68FFF738
:101AE000CDFF26720020607208223946204600F0A1
:101AF000D1F9FEF717FB064604F10C01281DFFF78C
:101B000017FF3046FEF712FB2046BDE8F0810020AB
:101B1000FBE770B5044600202072FEF703FB054684
:101B200004F10C00FFF720FF2846FEF7FFFA2046DD
:101B3000BDE87040FFF708BD70B504460020207274
:101B4000FEF7F0FA054604F10C00FFF70DFF2846FA
:101B5000BDE87040FEF7EABA074A002102EB011324
:101B60001B78834202D102EB01107047491C032904
:101B7000F4DB002070470000380000202DE9F04120
:101B8000044616460D460846FFF7E6FF0746FFF7F0
:101B9000B1FC381D796800E009688142FCD1FFF78B
:101BA000B7FC45F08000207208223146204600F044
:101BB00071F9FEF7B7FA054604F10C01381DFFF77D
:101BC000B7FE2846BDE8F041FEF7B0BA007A00063D
:101BD00001D50120704700207047000070B5FEF766
:101BE000A1FA114C05466088B0B9A068FFF702FA67
:101BF0000E49401E626851F83010143991420BD0E2
:101C000020700B486160007801F11C01002802F18E
:101C10001C0006D0FEF78DFA2846BDE87040FEF79E
:101C200085BAFEF786FAF7E768000020F012002078
:101C30001C00002010B50446FEF774FA024694F822
:101C400034000E4920F00F00401C84F8340094F852
:101C5000350001EBC00104F114004B6818604B68BB
:101C6000A361486006486161A16B83681943816084
:101C7000BDE810401046FEF759BA0000F0120020EF
:101C80006800002010B50446FEF74CFA04F1140178
:101C9000D1E900235360D1E900231A60A161616199
:101CA00094F83520074951F8323001EBC2018B42DC
:101CB00004D10549A36B8A689A438A60BDE8104045
:101CC000FEF734BAF0120020680000202DE9F04140
:101CD00016460A461F4605460221FFF74FFF05F14B
:101CE0001404AC616C61AE836F720020BDE8F081BA
:101CF00070B50446FEF716FA0546606904F1140152
:101D0000884208D0143800F02BFA2846FEF70EFA65
:101D1000FFF764FF05E0A08B401CA0832846FEF778
:101D200005FA002070BD2DE9F3410446FEF7FAF9EB
:101D30000746A08B28B1401EA0833846FEF7F6F96F
:101D400046E0019870B100F029FA064600203063A1
:101D500004F11405647A304600F05CFAF4B1012C09
:101D600021D106E03846FEF7E1F96FF00100BDE849
:101D7000FC812C680EE096F8351094F82120A4F12F
:101D80001400914205D206F114011430FFF7E5FD6D
:101D900002E02468AC42EED1AC4204D106F1140159
:101DA0002846FFF7DAFD0198002809DD06F1440016
:101DB00001AA0021044600F0DFFA204600F018FBDB
:101DC0003846FEF7B3F9FFF709FF306B0028CED194
:101DD0000020CCE708B509A0FFF79AFD0AA0FFF79D
:101DE00097FD12A0032300900122194612A0FFF7CD
:101DF0008FFDBDE8084018A0FFF78ABD0A205C20CF
:101E00007C202F0A000000002D205254202D20207D
:101E1000202020546872656164204F70657261747F
:101E2000696E672053797374656D0A004A756C207A
:101E30003239203230323000202F207C205C2020AC
:101E400020202025642E25642E2564206275696C6F
:101E5000642025730A0000002032303036202D2007
:101E60003230313920436F7079726967687420624B
:101E7000792072742D746872656164207465616D77
:101E80000A000000014600E0491C0A78002AFBD144
:101E9000081A704710B5002A07D0034611F8014B05
:101EA00003F8014B2CB1521EF8D110BD03F8011BF1
:101EB00000E00021521EF9D110BD00000A46C11CED
:101EC00010B522F0030321F00301182B20D9A3F150
:101ED00018048C421CD3114C581A18382160E06049
:101EE0004FF4F5520A8000230C30C1E901034B8006
:101EF0004B68194461600A8001224A80486088600A
:101F0000002307A10848FFF7E1FE2068A06010BD8C
:101F10000146BDE8104005A0FFF7FABC20000020F4
:101F20006865617000000000D01200206D656D20B2
:101F3000696E69742C206572726F722062656769C0
:101F40006E206164647265737320307825782C206C
:101F5000616E6420656E64206164647265737320D1
:101F6000307825780A00000010B50A4900230A4C91
:101F70004B80184604EBC002401C526012602028BF
:101F8000F8DB1F20087003484B600C308B6040600A
:101F9000006010BD68000020F012002010B5074C52
:101FA000A068FFF727F80649401E51F830001438A2
:101FB0006060BDE810401C30FEF7E9B86800002002
:101FC000F01200200148406000607047800000204F
:101FD00070472DE9FF478946DDE90C7682460146C8
:101FE0001D4690460120FFF76CFD041E0DD02846CB
:101FF000FFF7CCFC60B103968DE8A10043464A464A
:1020000051462046FFF732F8204604B0BDE8F0877D
:102010002046FFF77EFD0020F7E700F0C5B800007E
:1020200070B513480468FEF77DF805462046FFF7B3
:1020300029FE042084F8340004F1440000F0B4F9CF
:102040002046FFF7C3FD012801D1206F58B104F1EC
:1020500014010848FFF773FC2846FEF767F8BDE84F
:102060007040FFF7BBBD2046FFF766FDF4E70000B8
:102070006C0000207400002000F002F8FCE7000073
:1020800070B527E0FEF74EF80546FEF7E5FF58B3BA
:1020900018480168A1F11404D1E900024260D1E9B5
:1020A0000002106049600960FFF724FA216F09B14E
:1020B000204688472046FFF789FD01280FD0FFF70B
:1020C00027FA2846FEF732F8A06AFFF73DFA2046C5
:1020D000FFF71FFDFEF7C0FF0028D3D170BD2046DB
:1020E000FFF72AFDFFF714FA2846BDE87040FEF717
:1020F0001DB80000740000201FB5202308481F22CF
:10210000D9008DE80F000023064A07A1783800F0B7
:102110000FF804B00248BDE81040783800F064B809
:1021200050110020792000087469646C650000007B
:102130002DE9FF5F92460EAA0C4692E8E0010A469E
:10214000994683460121FFF719FD8DE8E0014B46D2
:10215000524621465846FEF789FF04B0BDE8F09F7D
:1021600070B5044690F8340000F00F00022802D049
:102170004FF0FF3070BDFDF7D5FF054604F11400A8
:10218000FFF7FBFB04F1440000F078F92846FDF767
:10219000CDFF2046FFF74EFD002070BD01480068CE
:1021A000704700006C000020F1B5FDF7BBFF05464D
:1021B0000C480468204600F02DF804F144006A46FB
:1021C0000021064600F0D8F8304600F011F9284604
:1021D000FDF7ACFFFFF702FD206B801C00D12063F0
:1021E0000020F8BD6C00002010B590F836100122D8
:1021F00080F835108A400221826380F83410FFF79E
:10220000AFFF0348006808B1FFF7E8FC002010BDED
:102210006C00002070B5044690F8340000F00F0008
:10222000012802D04FF0FF3070BDFDF77BFF05465F
:1022300094F8340020F00F00801C84F8340020460D
:10224000FFF720FD04F1440000F018F92846FDF7DF
:102250006DFF002070BD10B504466FF001002063D3
:1022600004F11400FFF789FB2046FFF7E3FCBDE80B
:102270001040FFF7B3BC000070B5FDF753FF0646F2
:102280001348046894F8340000F00F00012819D1B5
:10229000D4E90501884215D004F114000546FFF782
:1022A0006CFB94F835000B4901EBC00041680D60F0
:1022B00041686960456028603046FDF737FFFFF7E9
:1022C0008DFC02E03046FDF731FF002070BD0000BC
:1022D0006C000020F01200200148006870470000E8
:1022E00018000020094810B50168491C0160FFF77B
:1022F00055FF016C491E016403D1C16B0164FFF7F6
:10230000BBFFBDE8104000F003B80000180000203B
:102310002DE9F041FFF7E0FF0646FDF703FF074612
:10232000144D1EE060696FF00041301A143C884281
:102330001AD22046FEF7E8FED4E907108847FFF7D7
:10234000CBFF0646607A810708D5C10706D020F08A
:1023500001006072204600F04BF802E020F001001E
:1023600060722C68AC42DDD13846BDE8F041FDF723
:10237000DDBE00008000002049B1012904D00229FF
:1023800008D003290ED109E0406A10600AE0116804
:10239000416207E0417A21F0020102E0417A41F016
:1023A000020141720020704770B50546FDF7BAFE84
:1023B00004462846FEF7A8FE2046FDF7B7FE28464D
:1023C000FFF7BAFB002070BD2DE9F8439046DDE928
:1023D00008450A461F4606460A21FFF7CFFB23465B
:1023E0003A46414630460095FEF780FEBDE8F88348
:1023F000F8B50446FDF796FE05462046FEF784FE36
:10240000607A20F0010060722846FDF78FFEFFF72A
:1024100063FF616A0844A062FDF784FE0546164A20
:102420000020009202EBC002694653686FF0004C36
:102430005DF820200BE01268A2EBC0067769A66A5F
:10244000B74202D0BE1B664503D341F820209A4212
:10245000F1D10948001F0168491C016004F1140111
:102460000098FFF773FA607A40F001006072284626
:10247000FDF75CFE0020F8BD8000002070B504462A
:10248000407AC0070ED0FDF74DFE05462046FEF708
:102490003BFE2846FDF74AFE607A20F0010060729C
:1024A000002070BD4FF0FF3070BD00002DE9FF4FE0
:1024B0008946044600EB090783B080464FF0FF3A97
:1024C0004FF0200BA74202D25746C8F1FF3907E16F
:1024D000252803D0BC4200D2207081E00026059957
:1024E000491C059108782D2811D02B2812D02028BE
:1024F00013D0232814D0302815D00A785546303A06
:102500000A2A13D205A800F02CF905461AE046F075
:102510001006E4E746F00406E1E746F00806DEE7C9
:1025200046F02006DBE746F00106D8E72A2809D165
:102530000698491C059120C80690002D02DA6D42CC
:1025400046F01006CDF800A0059801782E2918D184
:10255000401C05900178A1F130020A2A04D205A896
:1025600000F0FFF8009008E02A2908D1401C0590EF
:10257000069802C8069000910846002801DA00205B
:102580000090059800210278682A01D06C2A02D1B7
:10259000401C1146059000780A236F287DD00CDC82
:1025A00063281FD004DC25287BD058280DD17EE07D
:1025B000642801D0692808D17DE070285ED0732896
:1025C0002CD0752879D0782873D0BC4201D2252030
:1025D00020700598641C0178D1B3BC4200D22170F0
:1025E000641C7AE0F00608D458466D1E002D04DD08
:1025F000BC4200D22070641CF7E70699BC4211F877
:10260000040B069100D22070584602E0BC4200D272
:102610002070641C6D1E002DF8DC5EE0069808C872
:10262000069003B93EA31846FFF72CFC0099002939
:1026300002DD884200DD0846F1060AD459462A46E2
:102640006D1E824205DDBC4200D22170641CF6E79B
:1026500052E0002106E0BC4201D21A782270491CE7
:102660005B1C641C8142F6DB5A4629466D1E814282
:1026700033DDBC4200D22270641CF6E7681C02D134
:10268000082546F0010600980296CDE9005006980C
:102690001023394604C806901BE006E001E00CE078
:1026A00007E0BC429CD2252016E7082305E046F04F
:1026B0004006102301E046F002066C2901D068298B
:1026C0001DD0069804C8069000983946CDE9005000
:1026D00002962046FEF744FE04460598401C0590ED
:1026E0000598007800287FF4F3AEB9F1000F11D0FF
:1026F000BC420DD220700DE0401E0590EDE706981B
:1027000030F8041B06908AB2B007DDD512B2DBE7C1
:1027100007F8010C07B0A4EB0800BDE8F08F00003B
:10272000284E554C4C29000000207047002070476F
:10273000002070470020704710B5FDF7F3FCFEF74E
:102740006DFFFFF747FBFFF73DFCFFF70DFCFEF7C2
:102750009FFEFFF73DFCFFF7CFFCFFF71FFC0020BB
:1027600010BD10B5014600206FF02F0307E0541C88
:102770000C60127800EB800003EB400010440A6804
:102780001478303C0A2CF2D310BD00000000000089
:10279000000001020304060708090000000001020E
:1027A0000304000001000200010003000100020018
:1027B000010004000100020001000300010002000A
:1027C00001000500010002000100030001000200F9
:1027D00001000400010002000100030001000200EA
:1027E00001000600010002000100030001000200D8
:1027F00001000400010002000100030001000200CA
:1028000001000500010002000100030001000200B8
:1028100001000400010002000100030001000200A9
:102820000100070001000200010003000100020096
:102830000100040001000200010003000100020089
:102840000100050001000200010003000100020078
:102850000100040001000200010003000100020069
:102860000100060001000200010003000100020057
:102870000100040001000200010003000100020049
:102880000100050001000200010003000100020038
:102890000100040001000200010003000100020029
:1028A0000100303132333435363738396162636490
:1028B000656600303132333435363738394142437A
:1028C000444546005072657373204B3120746F206D
:1028D00073757370656E64207468652074687265C2
:1028E00061642C20616E64205072657373204B32DA
:1028F00020746F20726573746F7265207468652030
:1029000074687265616421200A00000035270008A0
:102910002D27000829270008312700083C29000836
:10292000000000209800000038100008D42900089A
:102930009800002058170000481000080000000010
:102940000000000001000000100000000000000076
:102950000024F4000000000000000000000000005F
:102960000000000000000000000000000000000067
:1029700000000000010000003C0000203C0000209E
:1029800078000000020000004C0000204C000020F5
:10299000200000000A0000005C0000205C00002015
:1029A0002C000000000000000000000000000000FB
:1029B0000000000000000000000000000000000017
:1029C0000000000000000000000000000000000007
:0429D0000000000003
:04000005080000ED02
:00000001FF
