Component: ARM Compiler 5.06 update 6 (build 750) Tool: armlink [4d35ed]

==============================================================================

Section Cross References

    startup_stm32f103xb.o(RESET) refers to startup_stm32f103xb.o(STACK) for __initial_sp
    startup_stm32f103xb.o(RESET) refers to startup_stm32f103xb.o(.text) for Reset_Handler
    startup_stm32f103xb.o(RESET) refers to stm32f1xx_it.o(i.NMI_Handler) for NMI_Handler
    startup_stm32f103xb.o(RESET) refers to context_rvds.o(.text) for HardFault_Handler
    startup_stm32f103xb.o(RESET) refers to stm32f1xx_it.o(i.MemManage_Handler) for MemManage_Handler
    startup_stm32f103xb.o(RESET) refers to stm32f1xx_it.o(i.BusFault_Handler) for BusFault_Handler
    startup_stm32f103xb.o(RESET) refers to stm32f1xx_it.o(i.UsageFault_Handler) for UsageFault_Handler
    startup_stm32f103xb.o(RESET) refers to stm32f1xx_it.o(i.SVC_Handler) for SVC_Handler
    startup_stm32f103xb.o(RESET) refers to stm32f1xx_it.o(i.DebugMon_Handler) for DebugMon_Handler
    startup_stm32f103xb.o(RESET) refers to board.o(i.SysTick_Handler) for SysTick_Handler
    startup_stm32f103xb.o(RESET) refers to stm32f1xx_it.o(i.DMA1_Channel4_IRQHandler) for DMA1_Channel4_IRQHandler
    startup_stm32f103xb.o(RESET) refers to stm32f1xx_it.o(i.DMA1_Channel5_IRQHandler) for DMA1_Channel5_IRQHandler
    startup_stm32f103xb.o(RESET) refers to stm32f1xx_it.o(i.USART1_IRQHandler) for USART1_IRQHandler
    startup_stm32f103xb.o(RESET) refers to stm32f1xx_it.o(i.EXTI15_10_IRQHandler) for EXTI15_10_IRQHandler
    startup_stm32f103xb.o(.text) refers to system_stm32f1xx.o(i.SystemInit) for SystemInit
    startup_stm32f103xb.o(.text) refers to entry.o(.ARM.Collect$$$$00000000) for __main
    app_rt_thread.o(i.MX_RT_Thread_Init) refers to kservice.o(i.rt_kprintf) for rt_kprintf
    app_rt_thread.o(i.MX_RT_Thread_Init) refers to ipc.o(i.rt_mq_create) for rt_mq_create
==============================================================================

Removing Unused input sections from the image.

    Removing startup_stm32f103xb.o(HEAP), (512 bytes).
    Removing app_rt_thread.o(.rev16_text), (4 bytes).
    Removing app_rt_thread.o(.revsh_text), (4 bytes).
    Removing app_rt_thread.o(.rrx_text), (6 bytes).
    Removing user_app.o(.rev16_text), (4 bytes).
    Removing user_app.o(.revsh_text), (4 bytes).
    Removing user_app.o(.rrx_text), (6 bytes).
    Removing main.o(.rev16_text), (4 bytes).
    Removing main.o(.revsh_text), (4 bytes).
    Removing main.o(.rrx_text), (6 bytes).
    Removing gpio.o(.rev16_text), (4 bytes).
    Removing gpio.o(.revsh_text), (4 bytes).
    Removing gpio.o(.rrx_text), (6 bytes).
    Removing dma.o(.rev16_text), (4 bytes).
    Removing dma.o(.revsh_text), (4 bytes).
    Removing dma.o(.rrx_text), (6 bytes).
    Removing usart.o(.rev16_text), (4 bytes).
    Removing usart.o(.revsh_text), (4 bytes).
==============================================================================

Image Symbol Table

    Local Symbols

    Symbol Name                              Value     Ov Type        Size  Object(Section)

    ../Drivers/STM32F1xx_HAL_Driver/Src/stm32f1xx_hal.c 0x00000000   Number         0  stm32f1xx_hal.o ABSOLUTE
    ../Drivers/STM32F1xx_HAL_Driver/Src/stm32f1xx_hal_cortex.c 0x00000000   Number         0  stm32f1xx_hal_cortex.o ABSOLUTE
    ../Drivers/STM32F1xx_HAL_Driver/Src/stm32f1xx_hal_dma.c 0x00000000   Number         0  stm32f1xx_hal_dma.o ABSOLUTE
    ../Drivers/STM32F1xx_HAL_Driver/Src/stm32f1xx_hal_exti.c 0x00000000   Number         0  stm32f1xx_hal_exti.o ABSOLUTE
    ../Drivers/STM32F1xx_HAL_Driver/Src/stm32f1xx_hal_flash.c 0x00000000   Number         0  stm32f1xx_hal_flash.o ABSOLUTE
    ../Drivers/STM32F1xx_HAL_Driver/Src/stm32f1xx_hal_flash_ex.c 0x00000000   Number         0  stm32f1xx_hal_flash_ex.o ABSOLUTE
    ../Drivers/STM32F1xx_HAL_Driver/Src/stm32f1xx_hal_gpio.c 0x00000000   Number         0  stm32f1xx_hal_gpio.o ABSOLUTE
    ../Drivers/STM32F1xx_HAL_Driver/Src/stm32f1xx_hal_gpio_ex.c 0x00000000   Number         0  stm32f1xx_hal_gpio_ex.o ABSOLUTE
    ../Drivers/STM32F1xx_HAL_Driver/Src/stm32f1xx_hal_pwr.c 0x00000000   Number         0  stm32f1xx_hal_pwr.o ABSOLUTE
    ../Drivers/STM32F1xx_HAL_Driver/Src/stm32f1xx_hal_rcc.c 0x00000000   Number         0  stm32f1xx_hal_rcc.o ABSOLUTE
    ../Drivers/STM32F1xx_HAL_Driver/Src/stm32f1xx_hal_rcc_ex.c 0x00000000   Number         0  stm32f1xx_hal_rcc_ex.o ABSOLUTE
    ../Drivers/STM32F1xx_HAL_Driver/Src/stm32f1xx_hal_tim.c 0x00000000   Number         0  stm32f1xx_hal_tim.o ABSOLUTE
    ../Drivers/STM32F1xx_HAL_Driver/Src/stm32f1xx_hal_tim_ex.c 0x00000000   Number         0  stm32f1xx_hal_tim_ex.o ABSOLUTE
    ../Drivers/STM32F1xx_HAL_Driver/Src/stm32f1xx_hal_uart.c 0x00000000   Number         0  stm32f1xx_hal_uart.o ABSOLUTE
    ../Middlewares/Third_Party/RealThread_RTOS_RT-Thread/bsp/board.c 0x00000000   Number         0  board.o ABSOLUTE
    ../Middlewares/Third_Party/RealThread_RTOS_RT-Thread/libcpu/arm/cortex-m3/context_rvds.S 0x00000000   Number         0  context_rvds.o ABSOLUTE
    ../Middlewares/Third_Party/RealThread_RTOS_RT-Thread/libcpu/arm/cortex-m3/cpuport.c 0x00000000   Number         0  cpuport.o ABSOLUTE
    ../Middlewares/Third_Party/RealThread_RTOS_RT-Thread/src/clock.c 0x00000000   Number         0  clock.o ABSOLUTE
    ../Middlewares/Third_Party/RealThread_RTOS_RT-Thread/src/components.c 0x00000000   Number         0  components.o ABSOLUTE
    ../Middlewares/Third_Party/RealThread_RTOS_RT-Thread/src/idle.c 0x00000000   Number         0  idle.o ABSOLUTE
    ../Middlewares/Third_Party/RealThread_RTOS_RT-Thread/src/ipc.c 0x00000000   Number         0  ipc.o ABSOLUTE
    ../Middlewares/Third_Party/RealThread_RTOS_RT-Thread/src/irq.c 0x00000000   Number         0  irq.o ABSOLUTE
    ../Middlewares/Third_Party/RealThread_RTOS_RT-Thread/src/kservice.c 0x00000000   Number         0  kservice.o ABSOLUTE
    ../Middlewares/Third_Party/RealThread_RTOS_RT-Thread/src/mem.c 0x00000000   Number         0  mem.o ABSOLUTE
    ../Middlewares/Third_Party/RealThread_RTOS_RT-Thread/src/object.c 0x00000000   Number         0  object.o ABSOLUTE
    ../Middlewares/Third_Party/RealThread_RTOS_RT-Thread/src/scheduler.c 0x00000000   Number         0  scheduler.o ABSOLUTE
    ../Middlewares/Third_Party/RealThread_RTOS_RT-Thread/src/thread.c 0x00000000   Number         0  thread.o ABSOLUTE
    ../Middlewares/Third_Party/RealThread_RTOS_RT-Thread/src/timer.c 0x00000000   Number         0  timer.o ABSOLUTE
    ../Src/dma.c                             0x00000000   Number         0  dma.o ABSOLUTE
    ../Src/gpio.c                            0x00000000   Number         0  gpio.o ABSOLUTE
    ../Src/main.c                            0x00000000   Number         0  main.o ABSOLUTE
    ../Src/stm32f1xx_hal_msp.c               0x00000000   Number         0  stm32f1xx_hal_msp.o ABSOLUTE
    ../Src/stm32f1xx_it.c                    0x00000000   Number         0  stm32f1xx_it.o ABSOLUTE
    ../Src/system_stm32f1xx.c                0x00000000   Number         0  system_stm32f1xx.o ABSOLUTE
    ../Src/usart.c                           0x00000000   Number         0  usart.o ABSOLUTE
    ../clib/microlib/init/entry.s            0x00000000   Number         0  entry9b.o ABSOLUTE
    ../clib/microlib/init/entry.s            0x00000000   Number         0  entry9a.o ABSOLUTE
    ../clib/microlib/init/entry.s            0x00000000   Number         0  entry10a.o ABSOLUTE
    ../clib/microlib/init/entry.s            0x00000000   Number         0  entry11b.o ABSOLUTE
    ../clib/microlib/init/entry.s            0x00000000   Number         0  entry11a.o ABSOLUTE
    ../clib/microlib/init/entry.s            0x00000000   Number         0  entry5.o ABSOLUTE
    ../clib/microlib/init/entry.s            0x00000000   Number         0  entry7b.o ABSOLUTE
    ../clib/microlib/init/entry.s            0x00000000   Number         0  entry8a.o ABSOLUTE
    ../clib/microlib/init/entry.s            0x00000000   Number         0  entry8b.o ABSOLUTE
    ../clib/microlib/init/entry.s            0x00000000   Number         0  entry7a.o ABSOLUTE
    ../clib/microlib/init/entry.s            0x00000000   Number         0  entry.o ABSOLUTE
    ../clib/microlib/init/entry.s            0x00000000   Number         0  entry10b.o ABSOLUTE
    ../clib/microlib/init/entry.s            0x00000000   Number         0  entry2.o ABSOLUTE
    ../clib/microlib/longlong.c              0x00000000   Number         0  llushr.o ABSOLUTE
    ../clib/microlib/string/memset.c         0x00000000   Number         0  memseta.o ABSOLUTE
    ..\Drivers\STM32F1xx_HAL_Driver\Src\stm32f1xx_hal.c 0x00000000   Number         0  stm32f1xx_hal.o ABSOLUTE
    ..\Drivers\STM32F1xx_HAL_Driver\Src\stm32f1xx_hal_cortex.c 0x00000000   Number         0  stm32f1xx_hal_cortex.o ABSOLUTE
    ..\Drivers\STM32F1xx_HAL_Driver\Src\stm32f1xx_hal_dma.c 0x00000000   Number         0  stm32f1xx_hal_dma.o ABSOLUTE
    ..\Drivers\STM32F1xx_HAL_Driver\Src\stm32f1xx_hal_exti.c 0x00000000   Number         0  stm32f1xx_hal_exti.o ABSOLUTE
    ..\Drivers\STM32F1xx_HAL_Driver\Src\stm32f1xx_hal_flash.c 0x00000000   Number         0  stm32f1xx_hal_flash.o ABSOLUTE
    ..\Drivers\STM32F1xx_HAL_Driver\Src\stm32f1xx_hal_flash_ex.c 0x00000000   Number         0  stm32f1xx_hal_flash_ex.o ABSOLUTE
    ..\Drivers\STM32F1xx_HAL_Driver\Src\stm32f1xx_hal_gpio.c 0x00000000   Number         0  stm32f1xx_hal_gpio.o ABSOLUTE
    ..\Drivers\STM32F1xx_HAL_Driver\Src\stm32f1xx_hal_gpio_ex.c 0x00000000   Number         0  stm32f1xx_hal_gpio_ex.o ABSOLUTE
    ..\Drivers\STM32F1xx_HAL_Driver\Src\stm32f1xx_hal_pwr.c 0x00000000   Number         0  stm32f1xx_hal_pwr.o ABSOLUTE
    ..\Drivers\STM32F1xx_HAL_Driver\Src\stm32f1xx_hal_rcc.c 0x00000000   Number         0  stm32f1xx_hal_rcc.o ABSOLUTE
    ..\Drivers\STM32F1xx_HAL_Driver\Src\stm32f1xx_hal_rcc_ex.c 0x00000000   Number         0  stm32f1xx_hal_rcc_ex.o ABSOLUTE
    ..\Drivers\STM32F1xx_HAL_Driver\Src\stm32f1xx_hal_tim.c 0x00000000   Number         0  stm32f1xx_hal_tim.o ABSOLUTE
    ..\Drivers\STM32F1xx_HAL_Driver\Src\stm32f1xx_hal_tim_ex.c 0x00000000   Number         0  stm32f1xx_hal_tim_ex.o ABSOLUTE
    ..\Drivers\STM32F1xx_HAL_Driver\Src\stm32f1xx_hal_uart.c 0x00000000   Number         0  stm32f1xx_hal_uart.o ABSOLUTE
    ..\Middlewares\Third_Party\RealThread_RTOS_RT-Thread\src\kservice.c 0x00000000   Number         0  kservice.o ABSOLUTE
    ..\Src\app_rt_thread.c                   0x00000000   Number         0  app_rt_thread.o ABSOLUTE
    ..\Src\dma.c                             0x00000000   Number         0  dma.o ABSOLUTE
    ..\Src\gpio.c                            0x00000000   Number         0  gpio.o ABSOLUTE
    ..\Src\main.c                            0x00000000   Number         0  main.o ABSOLUTE
    ..\Src\stm32f1xx_hal_msp.c               0x00000000   Number         0  stm32f1xx_hal_msp.o ABSOLUTE
    ..\Src\stm32f1xx_it.c                    0x00000000   Number         0  stm32f1xx_it.o ABSOLUTE
    ..\Src\system_stm32f1xx.c                0x00000000   Number         0  system_stm32f1xx.o ABSOLUTE
    ..\Src\usart.c                           0x00000000   Number         0  usart.o ABSOLUTE
    ..\Src\user_app.c                        0x00000000   Number         0  user_app.o ABSOLUTE
    ..\\Src\\app_rt_thread.c                 0x00000000   Number         0  app_rt_thread.o ABSOLUTE
    ..\\Src\\user_app.c                      0x00000000   Number         0  user_app.o ABSOLUTE
    dc.s                                     0x00000000   Number         0  dc.o ABSOLUTE
    handlers.s                               0x00000000   Number         0  handlers.o ABSOLUTE
    init.s                                   0x00000000   Number         0  init.o ABSOLUTE
    startup_stm32f103xb.s                    0x00000000   Number         0  startup_stm32f103xb.o ABSOLUTE
    RESET                                    0x08000000   Section      236  startup_stm32f103xb.o(RESET)
    .ARM.Collect$$$$00000000                 0x080000ec   Section        0  entry.o(.ARM.Collect$$$$00000000)
    .ARM.Collect$$$$00000001                 0x080000ec   Section        4  entry2.o(.ARM.Collect$$$$00000001)
    .ARM.Collect$$$$00000004                 0x080000f0   Section        4  entry5.o(.ARM.Collect$$$$00000004)
    .ARM.Collect$$$$00000008                 0x080000f4   Section        0  entry7b.o(.ARM.Collect$$$$00000008)
    .ARM.Collect$$$$0000000A                 0x080000f4   Section        0  entry8b.o(.ARM.Collect$$$$0000000A)
    .ARM.Collect$$$$0000000B                 0x080000f4   Section        8  entry9a.o(.ARM.Collect$$$$0000000B)
    .ARM.Collect$$$$0000000D                 0x080000fc   Section        0  entry10a.o(.ARM.Collect$$$$0000000D)
    .ARM.Collect$$$$0000000F                 0x080000fc   Section        0  entry11a.o(.ARM.Collect$$$$0000000F)
    .ARM.Collect$$$$00002712                 0x080000fc   Section        4  entry2.o(.ARM.Collect$$$$00002712)
    __lit__00000000                          0x080000fc   Data           4  entry2.o(.ARM.Collect$$$$00002712)
    .text                                    0x08000100   Section       36  startup_stm32f103xb.o(.text)
    .text                                    0x08000124   Section      244  context_rvds.o(.text)
    .text                                    0x08000218   Section        0  memseta.o(.text)
    .text                                    0x0800023c   Section       36  init.o(.text)
    i.$Sub$$main                             0x08000260   Section        0  components.o(i.$Sub$$main)
    i.BusFault_Handler                       0x0800026a   Section        0  stm32f1xx_it.o(i.BusFault_Handler)
    i.DEBUG_USART_IRQHandler                 0x0800026c   Section        0  user_app.o(i.DEBUG_USART_IRQHandler)
    i.DMA1_Channel4_IRQHandler               0x080002b0   Section        0  stm32f1xx_it.o(i.DMA1_Channel4_IRQHandler)
    i.DMA1_Channel5_IRQHandler               0x080002bc   Section        0  stm32f1xx_it.o(i.DMA1_Channel5_IRQHandler)
    i.DMA_SetConfig                          0x080002c8   Section        0  stm32f1xx_hal_dma.o(i.DMA_SetConfig)
    DMA_SetConfig                            0x080002c9   Thumb Code    42  stm32f1xx_hal_dma.o(i.DMA_SetConfig)
    i.DebugMon_Handler                       0x080002f2   Section        0  stm32f1xx_it.o(i.DebugMon_Handler)
    i.EXTI15_10_IRQHandler                   0x080002f4   Section        0  stm32f1xx_it.o(i.EXTI15_10_IRQHandler)
    i.Error_Handler                          0x0800030a   Section        0  main.o(i.Error_Handler)
    i.HAL_DMA_Abort                          0x0800030c   Section        0  stm32f1xx_hal_dma.o(i.HAL_DMA_Abort)
    i.HAL_DMA_Abort_IT                       0x08000354   Section        0  stm32f1xx_hal_dma.o(i.HAL_DMA_Abort_IT)
    i.HAL_DMA_IRQHandler                     0x080003ec   Section        0  stm32f1xx_hal_dma.o(i.HAL_DMA_IRQHandler)
    i.HAL_DMA_Init                           0x08000540   Section        0  stm32f1xx_hal_dma.o(i.HAL_DMA_Init)
    i.HAL_DMA_Start_IT                       0x0800059c   Section        0  stm32f1xx_hal_dma.o(i.HAL_DMA_Start_IT)
    i.HAL_GPIO_EXTI_Callback                 0x0800060c   Section        0  user_app.o(i.HAL_GPIO_EXTI_Callback)
    i.HAL_GPIO_EXTI_IRQHandler               0x08000644   Section        0  stm32f1xx_hal_gpio.o(i.HAL_GPIO_EXTI_IRQHandler)
    i.HAL_GPIO_Init                          0x0800065c   Section        0  stm32f1xx_hal_gpio.o(i.HAL_GPIO_Init)
    i.HAL_GPIO_TogglePin                     0x0800083c   Section        0  stm32f1xx_hal_gpio.o(i.HAL_GPIO_TogglePin)
    i.HAL_GPIO_WritePin                      0x0800084a   Section        0  stm32f1xx_hal_gpio.o(i.HAL_GPIO_WritePin)
    i.HAL_GetTick                            0x08000854   Section        0  stm32f1xx_hal.o(i.HAL_GetTick)
    i.HAL_Init                               0x08000860   Section        0  stm32f1xx_hal.o(i.HAL_Init)
    i.HAL_InitTick                           0x08000884   Section        0  stm32f1xx_hal.o(i.HAL_InitTick)
    i.HAL_MspInit                            0x080008c4   Section        0  stm32f1xx_hal_msp.o(i.HAL_MspInit)
    i.HAL_NVIC_EnableIRQ                     0x08000900   Section        0  stm32f1xx_hal_cortex.o(i.HAL_NVIC_EnableIRQ)
    i.HAL_NVIC_SetPriority                   0x0800091c   Section        0  stm32f1xx_hal_cortex.o(i.HAL_NVIC_SetPriority)
    i.HAL_NVIC_SetPriorityGrouping           0x0800095c   Section        0  stm32f1xx_hal_cortex.o(i.HAL_NVIC_SetPriorityGrouping)
    i.HAL_RCC_ClockConfig                    0x08000980   Section        0  stm32f1xx_hal_rcc.o(i.HAL_RCC_ClockConfig)
    i.HAL_RCC_GetPCLK1Freq                   0x08000aac   Section        0  stm32f1xx_hal_rcc.o(i.HAL_RCC_GetPCLK1Freq)
    i.HAL_RCC_GetPCLK2Freq                   0x08000acc   Section        0  stm32f1xx_hal_rcc.o(i.HAL_RCC_GetPCLK2Freq)
    i.HAL_RCC_GetSysClockFreq                0x08000aec   Section        0  stm32f1xx_hal_rcc.o(i.HAL_RCC_GetSysClockFreq)
    i.HAL_RCC_OscConfig                      0x08000b58   Section        0  stm32f1xx_hal_rcc.o(i.HAL_RCC_OscConfig)
    i.HAL_SYSTICK_Config                     0x08000e78   Section        0  stm32f1xx_hal_cortex.o(i.HAL_SYSTICK_Config)
    i.HAL_UART_DMAStop                       0x08000ea0   Section        0  stm32f1xx_hal_uart.o(i.HAL_UART_DMAStop)
    i.HAL_UART_ErrorCallback                 0x08000ef8   Section        0  stm32f1xx_hal_uart.o(i.HAL_UART_ErrorCallback)
    i.HAL_UART_IRQHandler                    0x08000efc   Section        0  stm32f1xx_hal_uart.o(i.HAL_UART_IRQHandler)
    i.HAL_UART_Init                          0x0800100c   Section        0  stm32f1xx_hal_uart.o(i.HAL_UART_Init)
    i.HAL_UART_MspInit                       0x08001070   Section        0  usart.o(i.HAL_UART_MspInit)
    i.HAL_UART_Receive_DMA                   0x0800114c   Section        0  stm32f1xx_hal_uart.o(i.HAL_UART_Receive_DMA)
    i.HAL_UART_RxCpltCallback                0x080011e4   Section        0  stm32f1xx_hal_uart.o(i.HAL_UART_RxCpltCallback)
    i.HAL_UART_RxHalfCpltCallback            0x080011e6   Section        0  stm32f1xx_hal_uart.o(i.HAL_UART_RxHalfCpltCallback)
    i.HAL_UART_Transmit                      0x080011e8   Section        0  stm32f1xx_hal_uart.o(i.HAL_UART_Transmit)
    i.HAL_UART_TxCpltCallback                0x080012a2   Section        0  stm32f1xx_hal_uart.o(i.HAL_UART_TxCpltCallback)
    i.MX_DMA_Init                            0x080012a4   Section        0  dma.o(i.MX_DMA_Init)
    i.MX_GPIO_Init                           0x080012e0   Section        0  gpio.o(i.MX_GPIO_Init)
    i.MX_RT_Thread_Init                      0x0800138c   Section        0  app_rt_thread.o(i.MX_RT_Thread_Init)
    i.MX_UART_IT_Init                        0x0800152c   Section        0  app_rt_thread.o(i.MX_UART_IT_Init)
    i.MX_USART1_UART_Init                    0x0800154c   Section        0  usart.o(i.MX_USART1_UART_Init)
    i.MemManage_Handler                      0x08001584   Section        0  stm32f1xx_it.o(i.MemManage_Handler)
    i.NMI_Handler                            0x08001586   Section        0  stm32f1xx_it.o(i.NMI_Handler)
    i.SVC_Handler                            0x08001588   Section        0  stm32f1xx_it.o(i.SVC_Handler)
    i.SysTick_Handler                        0x0800158a   Section        0  board.o(i.SysTick_Handler)
    i.SystemClock_Config                     0x0800159c   Section        0  main.o(i.SystemClock_Config)
    i.SystemCoreClockUpdate                  0x080015ec   Section        0  system_stm32f1xx.o(i.SystemCoreClockUpdate)
    i.SystemInit                             0x08001654   Section        0  system_stm32f1xx.o(i.SystemInit)
    i.UART_DMAAbortOnError                   0x0800169c   Section        0  stm32f1xx_hal_uart.o(i.UART_DMAAbortOnError)
    UART_DMAAbortOnError                     0x0800169d   Thumb Code    16  stm32f1xx_hal_uart.o(i.UART_DMAAbortOnError)
    i.UART_DMAError                          0x080016ac   Section        0  stm32f1xx_hal_uart.o(i.UART_DMAError)
    UART_DMAError                            0x080016ad   Thumb Code    74  stm32f1xx_hal_uart.o(i.UART_DMAError)
    i.UART_DMAReceiveCplt                    0x080016f6   Section        0  stm32f1xx_hal_uart.o(i.UART_DMAReceiveCplt)
    UART_DMAReceiveCplt                      0x080016f7   Thumb Code    60  stm32f1xx_hal_uart.o(i.UART_DMAReceiveCplt)
    i.UART_DMARxHalfCplt                     0x08001732   Section        0  stm32f1xx_hal_uart.o(i.UART_DMARxHalfCplt)
    UART_DMARxHalfCplt                       0x08001733   Thumb Code    10  stm32f1xx_hal_uart.o(i.UART_DMARxHalfCplt)
    i.UART_EndRxTransfer                     0x0800173c   Section        0  stm32f1xx_hal_uart.o(i.UART_EndRxTransfer)
    UART_EndRxTransfer                       0x0800173d   Thumb Code    28  stm32f1xx_hal_uart.o(i.UART_EndRxTransfer)
    i.UART_EndTxTransfer                     0x08001758   Section        0  stm32f1xx_hal_uart.o(i.UART_EndTxTransfer)
    UART_EndTxTransfer                       0x08001759   Thumb Code    18  stm32f1xx_hal_uart.o(i.UART_EndTxTransfer)
    i.UART_Receive_IT                        0x0800176a   Section        0  stm32f1xx_hal_uart.o(i.UART_Receive_IT)
    UART_Receive_IT                          0x0800176b   Thumb Code   150  stm32f1xx_hal_uart.o(i.UART_Receive_IT)
    i.UART_SetConfig                         0x08001800   Section        0  stm32f1xx_hal_uart.o(i.UART_SetConfig)
    UART_SetConfig                           0x08001801   Thumb Code   178  stm32f1xx_hal_uart.o(i.UART_SetConfig)
    i.UART_Transmit_IT                       0x080018b8   Section        0  stm32f1xx_hal_uart.o(i.UART_Transmit_IT)
    UART_Transmit_IT                         0x080018b9   Thumb Code    98  stm32f1xx_hal_uart.o(i.UART_Transmit_IT)
    i.UART_WaitOnFlagUntilTimeout            0x0800191a   Section        0  stm32f1xx_hal_uart.o(i.UART_WaitOnFlagUntilTimeout)
    UART_WaitOnFlagUntilTimeout              0x0800191b   Thumb Code   100  stm32f1xx_hal_uart.o(i.UART_WaitOnFlagUntilTimeout)
    i.USART1_IRQHandler                      0x08001980   Section        0  stm32f1xx_it.o(i.USART1_IRQHandler)
    i.UsageFault_Handler                     0x08001994   Section        0  stm32f1xx_it.o(i.UsageFault_Handler)
    i.__NVIC_SetPriority                     0x08001996   Section        0  stm32f1xx_hal_cortex.o(i.__NVIC_SetPriority)
    __NVIC_SetPriority                       0x08001997   Thumb Code    32  stm32f1xx_hal_cortex.o(i.__NVIC_SetPriority)
    i.__rt_ffs                               0x080019b8   Section        0  kservice.o(i.__rt_ffs)
    i.__scatterload_copy                     0x080019fc   Section       14  handlers.o(i.__scatterload_copy)
    i.__scatterload_null                     0x08001a0a   Section        2  handlers.o(i.__scatterload_null)
    i.__scatterload_zeroinit                 0x08001a0c   Section       14  handlers.o(i.__scatterload_zeroinit)
    i._has_defunct_thread                    0x08001a1c   Section        0  idle.o(i._has_defunct_thread)
    _has_defunct_thread                      0x08001a1d   Thumb Code    16  idle.o(i._has_defunct_thread)
    i._rt_thread_init                        0x08001a30   Section        0  thread.o(i._rt_thread_init)
    _rt_thread_init                          0x08001a31   Thumb Code   108  thread.o(i._rt_thread_init)
    i._rt_timer_init                         0x08001aa4   Section        0  timer.o(i._rt_timer_init)
    _rt_timer_init                           0x08001aa5   Thumb Code    28  timer.o(i._rt_timer_init)
    i._rt_timer_remove                       0x08001ac0   Section        0  timer.o(i._rt_timer_remove)
    _rt_timer_remove                         0x08001ac1   Thumb Code    18  timer.o(i._rt_timer_remove)
    i.key_thread_entry                       0x08001ad4   Section        0  app_rt_thread.o(i.key_thread_entry)
    key_thread_entry                         0x08001ad5   Thumb Code    52  app_rt_thread.o(i.key_thread_entry)
    i.main                                   0x08001b60   Section        0  main.o(i.main)
    i.main_thread_entry                      0x08001b7e   Section        0  components.o(i.main_thread_entry)
    i.plug_holes                             0x08001b8c   Section        0  mem.o(i.plug_holes)
    plug_holes                               0x08001b8d   Thumb Code    80  mem.o(i.plug_holes)
    i.print_number                           0x08001be0   Section        0  kservice.o(i.print_number)
    print_number                             0x08001be1   Thumb Code   300  kservice.o(i.print_number)
    i.rt_application_init                    0x08001d10   Section        0  components.o(i.rt_application_init)
    i.rt_components_board_init               0x08001d3c   Section        0  components.o(i.rt_components_board_init)
    i.rt_components_init                     0x08001d58   Section        0  components.o(i.rt_components_init)
    i.rt_enter_critical                      0x08001d74   Section        0  scheduler.o(i.rt_enter_critical)
    i.rt_exit_critical                       0x08001d90   Section        0  scheduler.o(i.rt_exit_critical)
    i.rt_free                                0x08001dc8   Section        0  mem.o(i.rt_free)
    i.rt_heap_begin_get                      0x08001e8c   Section        0  board.o(i.rt_heap_begin_get)
    i.rt_heap_end_get                        0x08001e94   Section        0  board.o(i.rt_heap_end_get)
    i.rt_hw_board_init                       0x08001e9c   Section        0  board.o(i.rt_hw_board_init)
    i.rt_hw_console_output                   0x08001eec   Section        0  kservice.o(i.rt_hw_console_output)
    i.rt_hw_hard_fault_exception             0x08001f2c   Section        0  cpuport.o(i.rt_hw_hard_fault_exception)
    i.rt_hw_stack_init                       0x08002120   Section        0  cpuport.o(i.rt_hw_stack_init)
    i.rt_interrupt_enter                     0x08002158   Section        0  irq.o(i.rt_interrupt_enter)
    i.rt_interrupt_leave                     0x08002174   Section        0  irq.o(i.rt_interrupt_leave)
    i.rt_ipc_list_resume                     0x08002190   Section        0  ipc.o(i.rt_ipc_list_resume)
    rt_ipc_list_resume                       0x08002191   Thumb Code    14  ipc.o(i.rt_ipc_list_resume)
    i.rt_ipc_list_resume_all                 0x080021a0   Section        0  ipc.o(i.rt_ipc_list_resume_all)
    rt_ipc_list_resume_all                   0x080021a1   Thumb Code    44  ipc.o(i.rt_ipc_list_resume_all)
    i.rt_ipc_list_suspend                    0x080021cc   Section        0  ipc.o(i.rt_ipc_list_suspend)
    rt_ipc_list_suspend                      0x080021cd   Thumb Code    82  ipc.o(i.rt_ipc_list_suspend)
    i.rt_kprintf                             0x08002220   Section        0  kservice.o(i.rt_kprintf)
    i.rt_list_insert_after                   0x08002240   Section        0  object.o(i.rt_list_insert_after)
    rt_list_insert_after                     0x08002241   Thumb Code    14  object.o(i.rt_list_insert_after)
    i.rt_list_insert_after                   0x0800224e   Section        0  thread.o(i.rt_list_insert_after)
    rt_list_insert_after                     0x0800224f   Thumb Code    14  thread.o(i.rt_list_insert_after)
    i.rt_list_insert_after                   0x0800225c   Section        0  timer.o(i.rt_list_insert_after)
    rt_list_insert_after                     0x0800225d   Thumb Code    14  timer.o(i.rt_list_insert_after)
    i.rt_list_insert_before                  0x0800226a   Section        0  ipc.o(i.rt_list_insert_before)
    rt_list_insert_before                    0x0800226b   Thumb Code    14  ipc.o(i.rt_list_insert_before)
    i.rt_list_remove                         0x08002278   Section        0  object.o(i.rt_list_remove)
    rt_list_remove                           0x08002279   Thumb Code    18  object.o(i.rt_list_remove)
    i.rt_list_remove                         0x0800228a   Section        0  thread.o(i.rt_list_remove)
    rt_list_remove                           0x0800228b   Thumb Code    18  thread.o(i.rt_list_remove)
    i.rt_malloc                              0x0800229c   Section        0  mem.o(i.rt_malloc)
    i.rt_memcpy                              0x0800238c   Section        0  kservice.o(i.rt_memcpy)
    i.rt_memset                              0x080023be   Section        0  kservice.o(i.rt_memset)
    i.rt_mq_create                           0x080023d0   Section        0  ipc.o(i.rt_mq_create)
    i.rt_mq_delete                           0x08002440   Section        0  ipc.o(i.rt_mq_delete)
    i.rt_mq_recv                             0x0800245c   Section        0  ipc.o(i.rt_mq_recv)
    i.rt_mq_send                             0x08002550   Section        0  ipc.o(i.rt_mq_send)
    i.rt_object_allocate                     0x080025d0   Section        0  object.o(i.rt_object_allocate)
    i.rt_object_delete                       0x08002620   Section        0  object.o(i.rt_object_delete)
    i.rt_object_detach                       0x08002646   Section        0  object.o(i.rt_object_detach)
    i.rt_object_get_information              0x08002668   Section        0  object.o(i.rt_object_get_information)
    i.rt_object_init                         0x0800268c   Section        0  object.o(i.rt_object_init)
    i.rt_object_is_systemobject              0x080026dc   Section        0  object.o(i.rt_object_is_systemobject)
    i.rt_schedule                            0x080026ec   Section        0  scheduler.o(i.rt_schedule)
    i.rt_schedule_insert_thread              0x08002744   Section        0  scheduler.o(i.rt_schedule_insert_thread)
    i.rt_schedule_remove_thread              0x08002794   Section        0  scheduler.o(i.rt_schedule_remove_thread)
    i.rt_sem_create                          0x080027dc   Section        0  ipc.o(i.rt_sem_create)
    i.rt_sem_init                            0x080027fc   Section        0  ipc.o(i.rt_sem_init)
    i.rt_sem_release                         0x08002820   Section        0  ipc.o(i.rt_sem_release)
    i.rt_sem_take                            0x08002854   Section        0  ipc.o(i.rt_sem_take)
    i.rt_show_version                        0x080028c4   Section        0  kservice.o(i.rt_show_version)
    i.rt_soft_timer_check                    0x08002974   Section        0  timer.o(i.rt_soft_timer_check)
    i.rt_strlen                              0x080029e4   Section        0  kservice.o(i.rt_strlen)
    i.rt_strncpy                             0x080029f4   Section        0  kservice.o(i.rt_strncpy)
    i.rt_system_heap_init                    0x08002a1c   Section        0  mem.o(i.rt_system_heap_init)
    i.rt_system_scheduler_init               0x08002ac8   Section        0  scheduler.o(i.rt_system_scheduler_init)
    i.rt_system_scheduler_start              0x08002afc   Section        0  scheduler.o(i.rt_system_scheduler_start)
    i.rt_system_timer_init                   0x08002b24   Section        0  timer.o(i.rt_system_timer_init)
    i.rt_system_timer_thread_init            0x08002b30   Section        0  timer.o(i.rt_system_timer_thread_init)
    i.rt_thread_create                       0x08002b74   Section        0  thread.o(i.rt_thread_create)
    i.rt_thread_delay                        0x08002bbc   Section        0  thread.o(i.rt_thread_delay)
    i.rt_thread_exit                         0x08002bc0   Section        0  thread.o(i.rt_thread_exit)
    i.rt_thread_idle_entry                   0x08002c18   Section        0  idle.o(i.rt_thread_idle_entry)
    rt_thread_idle_entry                     0x08002c19   Thumb Code     6  idle.o(i.rt_thread_idle_entry)
    i.rt_thread_idle_excute                  0x08002c20   Section        0  idle.o(i.rt_thread_idle_excute)
    i.rt_thread_idle_init                    0x08002c98   Section        0  idle.o(i.rt_thread_idle_init)
    i.rt_thread_init                         0x08002cd0   Section        0  thread.o(i.rt_thread_init)
    i.rt_thread_resume                       0x08002d00   Section        0  thread.o(i.rt_thread_resume)
    i.rt_thread_self                         0x08002d3c   Section        0  thread.o(i.rt_thread_self)
    i.rt_thread_sleep                        0x08002d48   Section        0  thread.o(i.rt_thread_sleep)
    i.rt_thread_startup                      0x08002d88   Section        0  thread.o(i.rt_thread_startup)
    i.rt_thread_suspend                      0x08002db4   Section        0  thread.o(i.rt_thread_suspend)
    i.rt_thread_timeout                      0x08002df6   Section        0  thread.o(i.rt_thread_timeout)
    i.rt_thread_timer_entry                  0x08002e18   Section        0  timer.o(i.rt_thread_timer_entry)
    rt_thread_timer_entry                    0x08002e19   Thumb Code    50  timer.o(i.rt_thread_timer_entry)
    i.rt_thread_yield                        0x08002e50   Section        0  thread.o(i.rt_thread_yield)
    i.rt_tick_get                            0x08002eb0   Section        0  clock.o(i.rt_tick_get)
    i.rt_tick_increase                       0x08002ebc   Section        0  clock.o(i.rt_tick_increase)
    i.rt_timer_check                         0x08002ee8   Section        0  timer.o(i.rt_timer_check)
    i.rt_timer_control                       0x08002f50   Section        0  timer.o(i.rt_timer_control)
    i.rt_timer_detach                        0x08002f80   Section        0  timer.o(i.rt_timer_detach)
    i.rt_timer_init                          0x08002fa0   Section        0  timer.o(i.rt_timer_init)
    i.rt_timer_list_next_timeout             0x08002fc8   Section        0  timer.o(i.rt_timer_list_next_timeout)
    rt_timer_list_next_timeout               0x08002fc9   Thumb Code    16  timer.o(i.rt_timer_list_next_timeout)
    i.rt_timer_start                         0x08002fd8   Section        0  timer.o(i.rt_timer_start)
    i.rt_timer_stop                          0x08003094   Section        0  timer.o(i.rt_timer_stop)
    i.rt_vsnprintf                           0x080030c4   Section        0  kservice.o(i.rt_vsnprintf)
    i.rti_board_end                          0x08003340   Section        0  components.o(i.rti_board_end)
    rti_board_end                            0x08003341   Thumb Code     4  components.o(i.rti_board_end)
    i.rti_board_start                        0x08003344   Section        0  components.o(i.rti_board_start)
    rti_board_start                          0x08003345   Thumb Code     4  components.o(i.rti_board_start)
    i.rti_end                                0x08003348   Section        0  components.o(i.rti_end)
    rti_end                                  0x08003349   Thumb Code     4  components.o(i.rti_end)
    i.rti_start                              0x0800334c   Section        0  components.o(i.rti_start)
    rti_start                                0x0800334d   Thumb Code     4  components.o(i.rti_start)
    i.rtthread_startup                       0x08003350   Section        0  components.o(i.rtthread_startup)
    i.skip_atoi                              0x0800337a   Section        0  kservice.o(i.skip_atoi)
    skip_atoi                                0x0800337b   Thumb Code    40  kservice.o(i.skip_atoi)
    i.usart_thread_entry                     0x080033a4   Section        0  app_rt_thread.o(i.usart_thread_entry)
    usart_thread_entry                       0x080033a5   Thumb Code    46  app_rt_thread.o(i.usart_thread_entry)
    .constdata                               0x080033f8   Section       16  system_stm32f1xx.o(.constdata)
    .constdata                               0x08003408   Section        8  system_stm32f1xx.o(.constdata)
    .constdata                               0x08003410   Section      290  kservice.o(.constdata)
    small_digits                             0x08003510   Data          17  kservice.o(.constdata)
    large_digits                             0x08003521   Data          17  kservice.o(.constdata)
    .rti_fn.0                                0x08003534   Section        4  components.o(.rti_fn.0)
    __tagsym$$used                           0x08003534   Number         0  components.o(.rti_fn.0)
    .rti_fn.0.end                            0x08003538   Section        4  components.o(.rti_fn.0.end)
    __tagsym$$used                           0x08003538   Number         0  components.o(.rti_fn.0.end)
    .rti_fn.1.end                            0x0800353c   Section        4  components.o(.rti_fn.1.end)
    __tagsym$$used                           0x0800353c   Number         0  components.o(.rti_fn.1.end)
    .rti_fn.6.end                            0x08003540   Section        4  components.o(.rti_fn.6.end)
    __tagsym$$used                           0x08003540   Number         0  components.o(.rti_fn.6.end)
    .data                                    0x20000000   Section       16  app_rt_thread.o(.data)
    key_thread                               0x20000000   Data           4  app_rt_thread.o(.data)
    usart_thread                             0x20000004   Data           4  app_rt_thread.o(.data)
    .data                                    0x20000010   Section        8  user_app.o(.data)
    .data                                    0x20000018   Section       12  stm32f1xx_hal.o(.data)
    .data                                    0x20000024   Section        4  system_stm32f1xx.o(.data)
    .data                                    0x20000028   Section        4  clock.o(.data)
    rt_tick                                  0x20000028   Data           4  clock.o(.data)
    .data                                    0x2000002c   Section        1  irq.o(.data)
    .data                                    0x20000030   Section       24  mem.o(.data)
    heap_ptr                                 0x20000030   Data           4  mem.o(.data)
    heap_end                                 0x20000034   Data           4  mem.o(.data)
    lfree                                    0x20000038   Data           4  mem.o(.data)
    mem_size_aligned                         0x2000003c   Data           4  mem.o(.data)
    used_mem                                 0x20000040   Data           4  mem.o(.data)
    max_mem                                  0x20000044   Data           4  mem.o(.data)
    .data                                    0x20000048   Section      112  object.o(.data)
    rt_object_container                      0x20000048   Data         112  object.o(.data)
    .data                                    0x200000b8   Section       20  scheduler.o(.data)
    rt_scheduler_lock_nest                   0x200000ba   Data           2  scheduler.o(.data)
    .data                                    0x200000cc   Section       20  timer.o(.data)
    random_nr                                0x200000cc   Data           4  timer.o(.data)
    rt_timer_list                            0x200000d0   Data           8  timer.o(.data)
    rt_soft_timer_list                       0x200000d8   Data           8  timer.o(.data)
    .data                                    0x200000e0   Section        4  cpuport.o(.data)
    rt_exception_hook                        0x200000e0   Data           4  cpuport.o(.data)
    .data                                    0x200000e4   Section        4  cpuport.o(.data)
    .data                                    0x200000e8   Section        4  cpuport.o(.data)
    .data                                    0x200000ec   Section        4  cpuport.o(.data)
    .bss                                     0x200000f0   Section     1024  app_rt_thread.o(.bss)
    .bss                                     0x200004f0   Section      200  usart.o(.bss)
    .bss                                     0x200005b8   Section     4096  board.o(.bss)
    rt_heap                                  0x200005b8   Data        4096  board.o(.bss)
    .bss                                     0x200015b8   Section      384  idle.o(.bss)
    idle                                     0x200015b8   Data         128  idle.o(.bss)
    rt_thread_stack                          0x20001638   Data         256  idle.o(.bss)
    .bss                                     0x20001738   Section      128  kservice.o(.bss)
    rt_log_buf                               0x20001738   Data         128  kservice.o(.bss)
    .bss                                     0x200017b8   Section       32  mem.o(.bss)
    heap_sem                                 0x200017b8   Data          32  mem.o(.bss)
    .bss                                     0x200017d8   Section      256  scheduler.o(.bss)
    .bss                                     0x200018d8   Section      640  timer.o(.bss)
    timer_thread                             0x200018d8   Data         128  timer.o(.bss)
    timer_thread_stack                       0x20001958   Data         512  timer.o(.bss)
    STACK                                    0x20001b58   Section     1024  startup_stm32f103xb.o(STACK)

    Global Symbols

    Symbol Name                              Value     Ov Type        Size  Object(Section)

    BuildAttributes$$THM_ISAv4$P$D$K$B$S$PE$A:L22UL41UL21$X:L11$S22US41US21$IEEE1$IW$USESV6$~STKCKD$USESV7$~SHL$OSPACE$EBA8$MICROLIB$REQ8$PRES8$EABIv2 0x00000000   Number         0  anon$$obj.o ABSOLUTE
    __ARM_use_no_argv                        0x00000000   Number         0  main.o ABSOLUTE
    __cpp_initialize__aeabi_                  - Undefined Weak Reference
    __cxa_finalize                            - Undefined Weak Reference
    __decompress                              - Undefined Weak Reference
    _clock_init                               - Undefined Weak Reference
    _microlib_exit                            - Undefined Weak Reference
    __Vectors_Size                           0x000000ec   Number         0  startup_stm32f103xb.o ABSOLUTE
    __Vectors                                0x08000000   Data           4  startup_stm32f103xb.o(RESET)
    __Vectors_End                            0x080000ec   Data           0  startup_stm32f103xb.o(RESET)
    __main                                   0x080000ed   Thumb Code     0  entry.o(.ARM.Collect$$$$00000000)
    _main_stk                                0x080000ed   Thumb Code     0  entry2.o(.ARM.Collect$$$$00000001)
    _main_scatterload                        0x080000f1   Thumb Code     0  entry5.o(.ARM.Collect$$$$00000004)
    __main_after_scatterload                 0x080000f5   Thumb Code     0  entry5.o(.ARM.Collect$$$$00000004)
    _main_clock                              0x080000f5   Thumb Code     0  entry7b.o(.ARM.Collect$$$$00000008)
    _main_cpp_init                           0x080000f5   Thumb Code     0  entry8b.o(.ARM.Collect$$$$0000000A)
    _main_init                               0x080000f5   Thumb Code     0  entry9a.o(.ARM.Collect$$$$0000000B)
    __rt_final_cpp                           0x080000fd   Thumb Code     0  entry10a.o(.ARM.Collect$$$$0000000D)
    __rt_final_exit                          0x080000fd   Thumb Code     0  entry11a.o(.ARM.Collect$$$$0000000F)
    Reset_Handler                            0x08000101   Thumb Code     8  startup_stm32f103xb.o(.text)
    ADC1_2_IRQHandler                        0x0800011b   Thumb Code     0  startup_stm32f103xb.o(.text)
    CAN1_RX1_IRQHandler                      0x0800011b   Thumb Code     0  startup_stm32f103xb.o(.text)
    CAN1_SCE_IRQHandler                      0x0800011b   Thumb Code     0  startup_stm32f103xb.o(.text)
    DMA1_Channel1_IRQHandler                 0x0800011b   Thumb Code     0  startup_stm32f103xb.o(.text)
    DMA1_Channel2_IRQHandler                 0x0800011b   Thumb Code     0  startup_stm32f103xb.o(.text)
    DMA1_Channel3_IRQHandler                 0x0800011b   Thumb Code     0  startup_stm32f103xb.o(.text)
    DMA1_Channel6_IRQHandler                 0x0800011b   Thumb Code     0  startup_stm32f103xb.o(.text)
    DMA1_Channel7_IRQHandler                 0x0800011b   Thumb Code     0  startup_stm32f103xb.o(.text)
    EXTI0_IRQHandler                         0x0800011b   Thumb Code     0  startup_stm32f103xb.o(.text)
    EXTI1_IRQHandler                         0x0800011b   Thumb Code     0  startup_stm32f103xb.o(.text)
    EXTI2_IRQHandler                         0x0800011b   Thumb Code     0  startup_stm32f103xb.o(.text)
    EXTI3_IRQHandler                         0x0800011b   Thumb Code     0  startup_stm32f103xb.o(.text)
    EXTI4_IRQHandler                         0x0800011b   Thumb Code     0  startup_stm32f103xb.o(.text)
    EXTI9_5_IRQHandler                       0x0800011b   Thumb Code     0  startup_stm32f103xb.o(.text)
    FLASH_IRQHandler                         0x0800011b   Thumb Code     0  startup_stm32f103xb.o(.text)
    I2C1_ER_IRQHandler                       0x0800011b   Thumb Code     0  startup_stm32f103xb.o(.text)
    I2C1_EV_IRQHandler                       0x0800011b   Thumb Code     0  startup_stm32f103xb.o(.text)
    I2C2_ER_IRQHandler                       0x0800011b   Thumb Code     0  startup_stm32f103xb.o(.text)
    I2C2_EV_IRQHandler                       0x0800011b   Thumb Code     0  startup_stm32f103xb.o(.text)
    PVD_IRQHandler                           0x0800011b   Thumb Code     0  startup_stm32f103xb.o(.text)
    RCC_IRQHandler                           0x0800011b   Thumb Code     0  startup_stm32f103xb.o(.text)
    RTC_Alarm_IRQHandler                     0x0800011b   Thumb Code     0  startup_stm32f103xb.o(.text)
    RTC_IRQHandler                           0x0800011b   Thumb Code     0  startup_stm32f103xb.o(.text)
    SPI1_IRQHandler                          0x0800011b   Thumb Code     0  startup_stm32f103xb.o(.text)
    SPI2_IRQHandler                          0x0800011b   Thumb Code     0  startup_stm32f103xb.o(.text)
    TAMPER_IRQHandler                        0x0800011b   Thumb Code     0  startup_stm32f103xb.o(.text)
    TIM1_BRK_IRQHandler                      0x0800011b   Thumb Code     0  startup_stm32f103xb.o(.text)
    TIM1_CC_IRQHandler                       0x0800011b   Thumb Code     0  startup_stm32f103xb.o(.text)
    TIM1_TRG_COM_IRQHandler                  0x0800011b   Thumb Code     0  startup_stm32f103xb.o(.text)
    TIM1_UP_IRQHandler                       0x0800011b   Thumb Code     0  startup_stm32f103xb.o(.text)
    TIM2_IRQHandler                          0x0800011b   Thumb Code     0  startup_stm32f103xb.o(.text)
    TIM3_IRQHandler                          0x0800011b   Thumb Code     0  startup_stm32f103xb.o(.text)
    TIM4_IRQHandler                          0x0800011b   Thumb Code     0  startup_stm32f103xb.o(.text)
    USART2_IRQHandler                        0x0800011b   Thumb Code     0  startup_stm32f103xb.o(.text)
    USART3_IRQHandler                        0x0800011b   Thumb Code     0  startup_stm32f103xb.o(.text)
    USBWakeUp_IRQHandler                     0x0800011b   Thumb Code     0  startup_stm32f103xb.o(.text)
    USB_HP_CAN1_TX_IRQHandler                0x0800011b   Thumb Code     0  startup_stm32f103xb.o(.text)
    USB_LP_CAN1_RX0_IRQHandler               0x0800011b   Thumb Code     0  startup_stm32f103xb.o(.text)
    WWDG_IRQHandler                          0x0800011b   Thumb Code     0  startup_stm32f103xb.o(.text)
    rt_hw_interrupt_disable                  0x08000125   Thumb Code     8  context_rvds.o(.text)
    rt_hw_interrupt_enable                   0x0800012d   Thumb Code     6  context_rvds.o(.text)
    rt_hw_context_switch                     0x08000133   Thumb Code    32  context_rvds.o(.text)
    rt_hw_context_switch_interrupt           0x08000133   Thumb Code     0  context_rvds.o(.text)
    PendSV_Handler                           0x08000153   Thumb Code    60  context_rvds.o(.text)
    rt_hw_context_switch_to                  0x0800018f   Thumb Code    58  context_rvds.o(.text)
    rt_hw_interrupt_thread_switch            0x080001c9   Thumb Code     2  context_rvds.o(.text)
    HardFault_Handler                        0x080001cb   Thumb Code    52  context_rvds.o(.text)
    __aeabi_memset                           0x08000219   Thumb Code    14  memseta.o(.text)
    __aeabi_memset4                          0x08000219   Thumb Code     0  memseta.o(.text)
    __aeabi_memset8                          0x08000219   Thumb Code     0  memseta.o(.text)
    __aeabi_memclr                           0x08000227   Thumb Code     4  memseta.o(.text)
    __aeabi_memclr4                          0x08000227   Thumb Code     0  memseta.o(.text)
    __aeabi_memclr8                          0x08000227   Thumb Code     0  memseta.o(.text)
    _memset$wrapper                          0x0800022b   Thumb Code    18  memseta.o(.text)
    __scatterload                            0x0800023d   Thumb Code    28  init.o(.text)
    __scatterload_rt2                        0x0800023d   Thumb Code     0  init.o(.text)
    main                                     0x08000261   Thumb Code    10  components.o(i.$Sub$$main)
    BusFault_Handler                         0x0800026b   Thumb Code     2  stm32f1xx_it.o(i.BusFault_Handler)
    DEBUG_USART_IRQHandler                   0x0800026d   Thumb Code    54  user_app.o(i.DEBUG_USART_IRQHandler)
    DMA1_Channel4_IRQHandler                 0x080002b1   Thumb Code     6  stm32f1xx_it.o(i.DMA1_Channel4_IRQHandler)
    DMA1_Channel5_IRQHandler                 0x080002bd   Thumb Code     6  stm32f1xx_it.o(i.DMA1_Channel5_IRQHandler)
    DebugMon_Handler                         0x080002f3   Thumb Code     2  stm32f1xx_it.o(i.DebugMon_Handler)
    EXTI15_10_IRQHandler                     0x080002f5   Thumb Code    22  stm32f1xx_it.o(i.EXTI15_10_IRQHandler)
    Error_Handler                            0x0800030b   Thumb Code     2  main.o(i.Error_Handler)
    HAL_DMA_Abort                            0x0800030d   Thumb Code    70  stm32f1xx_hal_dma.o(i.HAL_DMA_Abort)
    HAL_DMA_Abort_IT                         0x08000355   Thumb Code   148  stm32f1xx_hal_dma.o(i.HAL_DMA_Abort_IT)
    HAL_DMA_IRQHandler                       0x080003ed   Thumb Code   316  stm32f1xx_hal_dma.o(i.HAL_DMA_IRQHandler)
    HAL_DMA_Init                             0x08000541   Thumb Code    84  stm32f1xx_hal_dma.o(i.HAL_DMA_Init)
    HAL_DMA_Start_IT                         0x0800059d   Thumb Code   112  stm32f1xx_hal_dma.o(i.HAL_DMA_Start_IT)
    HAL_GPIO_EXTI_Callback                   0x0800060d   Thumb Code    48  user_app.o(i.HAL_GPIO_EXTI_Callback)
    HAL_GPIO_EXTI_IRQHandler                 0x08000645   Thumb Code    18  stm32f1xx_hal_gpio.o(i.HAL_GPIO_EXTI_IRQHandler)
    HAL_GPIO_Init                            0x0800065d   Thumb Code   446  stm32f1xx_hal_gpio.o(i.HAL_GPIO_Init)
    HAL_GPIO_TogglePin                       0x0800083d   Thumb Code    14  stm32f1xx_hal_gpio.o(i.HAL_GPIO_TogglePin)
    HAL_GPIO_WritePin                        0x0800084b   Thumb Code    10  stm32f1xx_hal_gpio.o(i.HAL_GPIO_WritePin)
    HAL_GetTick                              0x08000855   Thumb Code     6  stm32f1xx_hal.o(i.HAL_GetTick)
    HAL_Init                                 0x08000861   Thumb Code    32  stm32f1xx_hal.o(i.HAL_Init)
    HAL_InitTick                             0x08000885   Thumb Code    54  stm32f1xx_hal.o(i.HAL_InitTick)
    HAL_MspInit                              0x080008c5   Thumb Code    52  stm32f1xx_hal_msp.o(i.HAL_MspInit)
    HAL_NVIC_EnableIRQ                       0x08000901   Thumb Code    26  stm32f1xx_hal_cortex.o(i.HAL_NVIC_EnableIRQ)
    HAL_NVIC_SetPriority                     0x0800091d   Thumb Code    60  stm32f1xx_hal_cortex.o(i.HAL_NVIC_SetPriority)
    HAL_NVIC_SetPriorityGrouping             0x0800095d   Thumb Code    26  stm32f1xx_hal_cortex.o(i.HAL_NVIC_SetPriorityGrouping)
    HAL_RCC_ClockConfig                      0x08000981   Thumb Code   280  stm32f1xx_hal_rcc.o(i.HAL_RCC_ClockConfig)
    HAL_RCC_GetPCLK1Freq                     0x08000aad   Thumb Code    20  stm32f1xx_hal_rcc.o(i.HAL_RCC_GetPCLK1Freq)
    HAL_RCC_GetPCLK2Freq                     0x08000acd   Thumb Code    20  stm32f1xx_hal_rcc.o(i.HAL_RCC_GetPCLK2Freq)
    HAL_RCC_GetSysClockFreq                  0x08000aed   Thumb Code    74  stm32f1xx_hal_rcc.o(i.HAL_RCC_GetSysClockFreq)
    HAL_RCC_OscConfig                        0x08000b59   Thumb Code   778  stm32f1xx_hal_rcc.o(i.HAL_RCC_OscConfig)
    HAL_SYSTICK_Config                       0x08000e79   Thumb Code    40  stm32f1xx_hal_cortex.o(i.HAL_SYSTICK_Config)
    HAL_UART_DMAStop                         0x08000ea1   Thumb Code    88  stm32f1xx_hal_uart.o(i.HAL_UART_DMAStop)
    HAL_UART_ErrorCallback                   0x08000ef9   Thumb Code     2  stm32f1xx_hal_uart.o(i.HAL_UART_ErrorCallback)
    HAL_UART_IRQHandler                      0x08000efd   Thumb Code   266  stm32f1xx_hal_uart.o(i.HAL_UART_IRQHandler)
    HAL_UART_Init                            0x0800100d   Thumb Code    98  stm32f1xx_hal_uart.o(i.HAL_UART_Init)
    HAL_UART_MspInit                         0x08001071   Thumb Code   198  usart.o(i.HAL_UART_MspInit)
    HAL_UART_Receive_DMA                     0x0800114d   Thumb Code   138  stm32f1xx_hal_uart.o(i.HAL_UART_Receive_DMA)
    HAL_UART_RxCpltCallback                  0x080011e5   Thumb Code     2  stm32f1xx_hal_uart.o(i.HAL_UART_RxCpltCallback)
    HAL_UART_RxHalfCpltCallback              0x080011e7   Thumb Code     2  stm32f1xx_hal_uart.o(i.HAL_UART_RxHalfCpltCallback)
    HAL_UART_Transmit                        0x080011e9   Thumb Code   186  stm32f1xx_hal_uart.o(i.HAL_UART_Transmit)
    HAL_UART_TxCpltCallback                  0x080012a3   Thumb Code     2  stm32f1xx_hal_uart.o(i.HAL_UART_TxCpltCallback)
    MX_DMA_Init                              0x080012a5   Thumb Code    56  dma.o(i.MX_DMA_Init)
    MX_GPIO_Init                             0x080012e1   Thumb Code   154  gpio.o(i.MX_GPIO_Init)
    MX_RT_Thread_Init                        0x0800138d   Thumb Code   136  app_rt_thread.o(i.MX_RT_Thread_Init)
    MX_UART_IT_Init                          0x0800152d   Thumb Code    24  app_rt_thread.o(i.MX_UART_IT_Init)
    MX_USART1_UART_Init                      0x0800154d   Thumb Code    48  usart.o(i.MX_USART1_UART_Init)
    MemManage_Handler                        0x08001585   Thumb Code     2  stm32f1xx_it.o(i.MemManage_Handler)
    NMI_Handler                              0x08001587   Thumb Code     2  stm32f1xx_it.o(i.NMI_Handler)
    SVC_Handler                              0x08001589   Thumb Code     2  stm32f1xx_it.o(i.SVC_Handler)
    SysTick_Handler                          0x0800158b   Thumb Code    18  board.o(i.SysTick_Handler)
    SystemClock_Config                       0x0800159d   Thumb Code    78  main.o(i.SystemClock_Config)
    SystemCoreClockUpdate                    0x080015ed   Thumb Code    82  system_stm32f1xx.o(i.SystemCoreClockUpdate)
    SystemInit                               0x08001655   Thumb Code    56  system_stm32f1xx.o(i.SystemInit)
    USART1_IRQHandler                        0x08001981   Thumb Code    16  stm32f1xx_it.o(i.USART1_IRQHandler)
    UsageFault_Handler                       0x08001995   Thumb Code     2  stm32f1xx_it.o(i.UsageFault_Handler)
    __rt_ffs                                 0x080019b9   Thumb Code    62  kservice.o(i.__rt_ffs)
    __scatterload_copy                       0x080019fd   Thumb Code    14  handlers.o(i.__scatterload_copy)
    __scatterload_null                       0x08001a0b   Thumb Code     2  handlers.o(i.__scatterload_null)
    __scatterload_zeroinit                   0x08001a0d   Thumb Code    14  handlers.o(i.__scatterload_zeroinit)
    $Super$$main                             0x08001b61   Thumb Code    30  main.o(i.main)
    main_thread_entry                        0x08001b7f   Thumb Code    14  components.o(i.main_thread_entry)
    rt_application_init                      0x08001d11   Thumb Code    32  components.o(i.rt_application_init)
    rt_components_board_init                 0x08001d3d   Thumb Code    20  components.o(i.rt_components_board_init)
    rt_components_init                       0x08001d59   Thumb Code    20  components.o(i.rt_components_init)
    rt_enter_critical                        0x08001d75   Thumb Code    22  scheduler.o(i.rt_enter_critical)
    rt_exit_critical                         0x08001d91   Thumb Code    52  scheduler.o(i.rt_exit_critical)
    rt_free                                  0x08001dc9   Thumb Code   112  mem.o(i.rt_free)
    rt_heap_begin_get                        0x08001e8d   Thumb Code     4  board.o(i.rt_heap_begin_get)
    rt_heap_end_get                          0x08001e95   Thumb Code     4  board.o(i.rt_heap_end_get)
    rt_hw_board_init                         0x08001e9d   Thumb Code    70  board.o(i.rt_hw_board_init)
    rt_hw_console_output                     0x08001eed   Thumb Code    58  kservice.o(i.rt_hw_console_output)
    rt_hw_hard_fault_exception               0x08001f2d   Thumb Code   178  cpuport.o(i.rt_hw_hard_fault_exception)
    rt_hw_stack_init                         0x08002121   Thumb Code    52  cpuport.o(i.rt_hw_stack_init)
    rt_interrupt_enter                       0x08002159   Thumb Code    22  irq.o(i.rt_interrupt_enter)
    rt_interrupt_leave                       0x08002175   Thumb Code    22  irq.o(i.rt_interrupt_leave)
    rt_kprintf                               0x08002221   Thumb Code    28  kservice.o(i.rt_kprintf)
    rt_malloc                                0x0800229d   Thumb Code   232  mem.o(i.rt_malloc)
    rt_memcpy                                0x0800238d   Thumb Code    50  kservice.o(i.rt_memcpy)
    rt_memset                                0x080023bf   Thumb Code    18  kservice.o(i.rt_memset)
    rt_mq_create                             0x080023d1   Thumb Code   112  ipc.o(i.rt_mq_create)
    rt_mq_delete                             0x08002441   Thumb Code    26  ipc.o(i.rt_mq_delete)
    rt_mq_recv                               0x0800245d   Thumb Code   244  ipc.o(i.rt_mq_recv)
    rt_mq_send                               0x08002551   Thumb Code   128  ipc.o(i.rt_mq_send)
    rt_object_allocate                       0x080025d1   Thumb Code    80  object.o(i.rt_object_allocate)
    rt_object_delete                         0x08002621   Thumb Code    38  object.o(i.rt_object_delete)
    rt_object_detach                         0x08002647   Thumb Code    32  object.o(i.rt_object_detach)
    rt_object_get_information                0x08002669   Thumb Code    30  object.o(i.rt_object_get_information)
    rt_object_init                           0x0800268d   Thumb Code    80  object.o(i.rt_object_init)
    rt_object_is_systemobject                0x080026dd   Thumb Code    14  object.o(i.rt_object_is_systemobject)
    rt_schedule                              0x080026ed   Thumb Code    76  scheduler.o(i.rt_schedule)
    rt_schedule_insert_thread                0x08002745   Thumb Code    70  scheduler.o(i.rt_schedule_insert_thread)
    rt_schedule_remove_thread                0x08002795   Thumb Code    64  scheduler.o(i.rt_schedule_remove_thread)
    rt_sem_create                            0x080027dd   Thumb Code    32  ipc.o(i.rt_sem_create)
    rt_sem_init                              0x080027fd   Thumb Code    36  ipc.o(i.rt_sem_init)
    rt_sem_release                           0x08002821   Thumb Code    52  ipc.o(i.rt_sem_release)
    rt_sem_take                              0x08002855   Thumb Code   110  ipc.o(i.rt_sem_take)
    rt_show_version                          0x080028c5   Thumb Code    40  kservice.o(i.rt_show_version)
    rt_soft_timer_check                      0x08002975   Thumb Code   106  timer.o(i.rt_soft_timer_check)
    rt_strlen                                0x080029e5   Thumb Code    16  kservice.o(i.rt_strlen)
    rt_strncpy                               0x080029f5   Thumb Code    38  kservice.o(i.rt_strncpy)
    rt_system_heap_init                      0x08002a1d   Thumb Code    96  mem.o(i.rt_system_heap_init)
    rt_system_scheduler_init                 0x08002ac9   Thumb Code    44  scheduler.o(i.rt_system_scheduler_init)
    rt_system_scheduler_start                0x08002afd   Thumb Code    32  scheduler.o(i.rt_system_scheduler_start)
    rt_system_timer_init                     0x08002b25   Thumb Code     8  timer.o(i.rt_system_timer_init)
    rt_system_timer_thread_init              0x08002b31   Thumb Code    46  timer.o(i.rt_system_timer_thread_init)
    rt_thread_create                         0x08002b75   Thumb Code    72  thread.o(i.rt_thread_create)
    rt_thread_delay                          0x08002bbd   Thumb Code     4  thread.o(i.rt_thread_delay)
    rt_thread_exit                           0x08002bc1   Thumb Code    78  thread.o(i.rt_thread_exit)
    rt_thread_idle_excute                    0x08002c21   Thumb Code   114  idle.o(i.rt_thread_idle_excute)
    rt_thread_idle_init                      0x08002c99   Thumb Code    40  idle.o(i.rt_thread_idle_init)
    rt_thread_init                           0x08002cd1   Thumb Code    48  thread.o(i.rt_thread_init)
    rt_thread_resume                         0x08002d01   Thumb Code    60  thread.o(i.rt_thread_resume)
    rt_thread_self                           0x08002d3d   Thumb Code     6  thread.o(i.rt_thread_self)
    rt_thread_sleep                          0x08002d49   Thumb Code    60  thread.o(i.rt_thread_sleep)
    rt_thread_startup                        0x08002d89   Thumb Code    40  thread.o(i.rt_thread_startup)
    rt_thread_suspend                        0x08002db5   Thumb Code    66  thread.o(i.rt_thread_suspend)
    rt_thread_timeout                        0x08002df7   Thumb Code    32  thread.o(i.rt_thread_timeout)
    rt_thread_yield                          0x08002e51   Thumb Code    86  thread.o(i.rt_thread_yield)
    rt_tick_get                              0x08002eb1   Thumb Code     6  clock.o(i.rt_tick_get)
    rt_tick_increase                         0x08002ebd   Thumb Code    38  clock.o(i.rt_tick_increase)
    rt_timer_check                           0x08002ee9   Thumb Code    98  timer.o(i.rt_timer_check)
    rt_timer_control                         0x08002f51   Thumb Code    48  timer.o(i.rt_timer_control)
    rt_timer_detach                          0x08002f81   Thumb Code    32  timer.o(i.rt_timer_detach)
    rt_timer_init                            0x08002fa1   Thumb Code    40  timer.o(i.rt_timer_init)
    rt_timer_start                           0x08002fd9   Thumb Code   178  timer.o(i.rt_timer_start)
    rt_timer_stop                            0x08003095   Thumb Code    46  timer.o(i.rt_timer_stop)
    rt_vsnprintf                             0x080030c5   Thumb Code   626  kservice.o(i.rt_vsnprintf)
    rtthread_startup                         0x08003351   Thumb Code    42  components.o(i.rtthread_startup)
    AHBPrescTable                            0x080033f8   Data          16  system_stm32f1xx.o(.constdata)
    APBPrescTable                            0x08003408   Data           8  system_stm32f1xx.o(.constdata)
    __lowest_bit_bitmap                      0x08003410   Data         256  kservice.o(.constdata)
    __rt_init_rti_start                      0x08003534   Data           4  components.o(.rti_fn.0)
    __rt_init_rti_board_start                0x08003538   Data           4  components.o(.rti_fn.0.end)
    __rt_init_rti_board_end                  0x0800353c   Data           4  components.o(.rti_fn.1.end)
    __rt_init_rti_end                        0x08003540   Data           4  components.o(.rti_fn.6.end)
    Region$$Table$$Base                      0x08003544   Number         0  anon$$obj.o(Region$$Table)
    Region$$Table$$Limit                     0x08003564   Number         0  anon$$obj.o(Region$$Table)
    test_mq                                  0x20000008   Data           4  app_rt_thread.o(.data)
    test_sem                                 0x2000000c   Data           4  app_rt_thread.o(.data)
    send_data1                               0x20000010   Data           4  user_app.o(.data)
    send_data2                               0x20000014   Data           4  user_app.o(.data)
    uwTickFreq                               0x20000018   Data           1  stm32f1xx_hal.o(.data)
    uwTickPrio                               0x2000001c   Data           4  stm32f1xx_hal.o(.data)
    uwTick                                   0x20000020   Data           4  stm32f1xx_hal.o(.data)
    SystemCoreClock                          0x20000024   Data           4  system_stm32f1xx.o(.data)
    rt_interrupt_nest                        0x2000002c   Data           1  irq.o(.data)
    rt_current_priority                      0x200000b8   Data           1  scheduler.o(.data)
    rt_current_thread                        0x200000bc   Data           4  scheduler.o(.data)
    rt_thread_ready_priority_group           0x200000c0   Data           4  scheduler.o(.data)
    rt_thread_defunct                        0x200000c4   Data           8  scheduler.o(.data)
    rt_interrupt_from_thread                 0x200000e4   Data           4  cpuport.o(.data)
    rt_interrupt_to_thread                   0x200000e8   Data           4  cpuport.o(.data)
    rt_thread_switch_interrupt_flag          0x200000ec   Data           4  cpuport.o(.data)
    Usart_Rx_Buf                             0x200000f0   Data        1024  app_rt_thread.o(.bss)
    huart1                                   0x200004f0   Data          64  usart.o(.bss)
    hdma_usart1_rx                           0x20000530   Data          68  usart.o(.bss)
    hdma_usart1_tx                           0x20000574   Data          68  usart.o(.bss)
    rt_thread_priority_table                 0x200017d8   Data         256  scheduler.o(.bss)
    __initial_sp                             0x20001f58   Data           0  startup_stm32f103xb.o(STACK)



==============================================================================

Memory Map of the image

  Image Entry point : 0x080000ed

  Load Region LR_IROM1 (Base: 0x08000000, Size: 0x00003654, Max: 0x00020000, ABSOLUTE)

    Execution Region ER_IROM1 (Exec base: 0x08000000, Load base: 0x08000000, Size: 0x00003564, Max: 0x00020000, ABSOLUTE)

    Exec Addr    Load Addr    Size         Type   Attr      Idx    E Section Name        Object

    0x08000000   0x08000000   0x000000ec   Data   RO            3    RESET               startup_stm32f103xb.o
    0x080000ec   0x080000ec   0x00000000   Code   RO         2964  * .ARM.Collect$$$$00000000  mc_w.l(entry.o)
    0x080000ec   0x080000ec   0x00000004   Code   RO         2971    .ARM.Collect$$$$00000001  mc_w.l(entry2.o)
    0x080000f0   0x080000f0   0x00000004   Code   RO         2974    .ARM.Collect$$$$00000004  mc_w.l(entry5.o)
    0x080000f4   0x080000f4   0x00000000   Code   RO         2976    .ARM.Collect$$$$00000008  mc_w.l(entry7b.o)
    0x080000f4   0x080000f4   0x00000000   Code   RO         2978    .ARM.Collect$$$$0000000A  mc_w.l(entry8b.o)
    0x080000f4   0x080000f4   0x00000008   Code   RO         2979    .ARM.Collect$$$$0000000B  mc_w.l(entry9a.o)
    0x080000fc   0x080000fc   0x00000000   Code   RO         2981    .ARM.Collect$$$$0000000D  mc_w.l(entry10a.o)
    0x080000fc   0x080000fc   0x00000000   Code   RO         2983    .ARM.Collect$$$$0000000F  mc_w.l(entry11a.o)
    0x080000fc   0x080000fc   0x00000004   Code   RO         2972    .ARM.Collect$$$$00002712  mc_w.l(entry2.o)
    0x08000100   0x08000100   0x00000024   Code   RO            4    .text               startup_stm32f103xb.o
    0x08000124   0x08000124   0x000000f4   Code   RO         1851    .text               context_rvds.o
    0x08000218   0x08000218   0x00000024   Code   RO         2969    .text               mc_w.l(memseta.o)
    0x0800023c   0x0800023c   0x00000024   Code   RO         2985    .text               mc_w.l(init.o)
    0x08000260   0x08000260   0x0000000a   Code   RO         1929    i.$Sub$$main        components.o
    0x0800026a   0x0800026a   0x00000002   Code   RO          337    i.BusFault_Handler  stm32f1xx_it.o
    0x0800026c   0x0800026c   0x00000044   Code   RO          171    i.DEBUG_USART_IRQHandler  user_app.o
    0x080002b0   0x080002b0   0x0000000c   Code   RO          338    i.DMA1_Channel4_IRQHandler  stm32f1xx_it.o
    0x080002bc   0x080002bc   0x0000000c   Code   RO          339    i.DMA1_Channel5_IRQHandler  stm32f1xx_it.o
    0x080002c8   0x080002c8   0x0000002a   Code   RO          857    i.DMA_SetConfig     stm32f1xx_hal_dma.o
    0x080002f2   0x080002f2   0x00000002   Code   RO          340    i.DebugMon_Handler  stm32f1xx_it.o
    0x080002f4   0x080002f4   0x00000016   Code   RO          341    i.EXTI15_10_IRQHandler  stm32f1xx_it.o
    0x0800030a   0x0800030a   0x00000002   Code   RO          208    i.Error_Handler     main.o
    0x0800030c   0x0800030c   0x00000046   Code   RO          858    i.HAL_DMA_Abort     stm32f1xx_hal_dma.o
    0x08000352   0x08000352   0x00000002   PAD
    0x08000354   0x08000354   0x00000098   Code   RO          859    i.HAL_DMA_Abort_IT  stm32f1xx_hal_dma.o
    0x080003ec   0x080003ec   0x00000154   Code   RO          863    i.HAL_DMA_IRQHandler  stm32f1xx_hal_dma.o
    0x08000540   0x08000540   0x0000005c   Code   RO          864    i.HAL_DMA_Init      stm32f1xx_hal_dma.o
    0x0800059c   0x0800059c   0x00000070   Code   RO          868    i.HAL_DMA_Start_IT  stm32f1xx_hal_dma.o
    0x0800060c   0x0800060c   0x00000038   Code   RO          172    i.HAL_GPIO_EXTI_Callback  user_app.o
    0x08000644   0x08000644   0x00000018   Code   RO          793    i.HAL_GPIO_EXTI_IRQHandler  stm32f1xx_hal_gpio.o
    0x0800065c   0x0800065c   0x000001e0   Code   RO          794    i.HAL_GPIO_Init     stm32f1xx_hal_gpio.o
    0x0800083c   0x0800083c   0x0000000e   Code   RO          797    i.HAL_GPIO_TogglePin  stm32f1xx_hal_gpio.o
    0x0800084a   0x0800084a   0x0000000a   Code   RO          798    i.HAL_GPIO_WritePin  stm32f1xx_hal_gpio.o
    0x08000854   0x08000854   0x0000000c   Code   RO          490    i.HAL_GetTick       stm32f1xx_hal.o
    0x08000860   0x08000860   0x00000024   Code   RO          497    i.HAL_Init          stm32f1xx_hal.o
    0x08000884   0x08000884   0x00000040   Code   RO          498    i.HAL_InitTick      stm32f1xx_hal.o
    0x080008c4   0x080008c4   0x0000003c   Code   RO          419    i.HAL_MspInit       stm32f1xx_hal_msp.o
    0x08000900   0x08000900   0x0000001a   Code   RO          954    i.HAL_NVIC_EnableIRQ  stm32f1xx_hal_cortex.o
    0x0800091a   0x0800091a   0x00000002   PAD
    0x0800091c   0x0800091c   0x00000040   Code   RO          960    i.HAL_NVIC_SetPriority  stm32f1xx_hal_cortex.o
    0x0800095c   0x0800095c   0x00000024   Code   RO          961    i.HAL_NVIC_SetPriorityGrouping  stm32f1xx_hal_cortex.o
    0x08000980   0x08000980   0x0000012c   Code   RO          654    i.HAL_RCC_ClockConfig  stm32f1xx_hal_rcc.o
    0x08000aac   0x08000aac   0x00000020   Code   RO          661    i.HAL_RCC_GetPCLK1Freq  stm32f1xx_hal_rcc.o
    0x08000acc   0x08000acc   0x00000020   Code   RO          662    i.HAL_RCC_GetPCLK2Freq  stm32f1xx_hal_rcc.o
    0x08000aec   0x08000aec   0x0000006c   Code   RO          663    i.HAL_RCC_GetSysClockFreq  stm32f1xx_hal_rcc.o
    0x08000b58   0x08000b58   0x00000320   Code   RO          666    i.HAL_RCC_OscConfig  stm32f1xx_hal_rcc.o
    0x08000e78   0x08000e78   0x00000028   Code   RO          965    i.HAL_SYSTICK_Config  stm32f1xx_hal_cortex.o
    0x08000ea0   0x08000ea0   0x00000058   Code   RO         1509    i.HAL_UART_DMAStop  stm32f1xx_hal_uart.o
    0x08000ef8   0x08000ef8   0x00000002   Code   RO         1511    i.HAL_UART_ErrorCallback  stm32f1xx_hal_uart.o
    0x08000efa   0x08000efa   0x00000002   PAD
    0x08000efc   0x08000efc   0x00000110   Code   RO         1514    i.HAL_UART_IRQHandler  stm32f1xx_hal_uart.o
    0x0800100c   0x0800100c   0x00000062   Code   RO         1515    i.HAL_UART_Init     stm32f1xx_hal_uart.o
    0x0800106e   0x0800106e   0x00000002   PAD
    0x08001070   0x08001070   0x000000dc   Code   RO          296    i.HAL_UART_MspInit  usart.o
    0x0800114c   0x0800114c   0x00000098   Code   RO         1519    i.HAL_UART_Receive_DMA  stm32f1xx_hal_uart.o
    0x080011e4   0x080011e4   0x00000002   Code   RO         1521    i.HAL_UART_RxCpltCallback  stm32f1xx_hal_uart.o
    0x080011e6   0x080011e6   0x00000002   Code   RO         1522    i.HAL_UART_RxHalfCpltCallback  stm32f1xx_hal_uart.o
    0x080011e8   0x080011e8   0x000000ba   Code   RO         1523    i.HAL_UART_Transmit  stm32f1xx_hal_uart.o
    0x080012a2   0x080012a2   0x00000002   Code   RO         1526    i.HAL_UART_TxCpltCallback  stm32f1xx_hal_uart.o
    0x080012a4   0x080012a4   0x0000003c   Code   RO          271    i.MX_DMA_Init       dma.o
    0x080012e0   0x080012e0   0x000000ac   Code   RO          247    i.MX_GPIO_Init      gpio.o
    0x0800138c   0x0800138c   0x000001a0   Code   RO           13    i.MX_RT_Thread_Init  app_rt_thread.o
    0x0800152c   0x0800152c   0x00000020   Code   RO           14    i.MX_UART_IT_Init   app_rt_thread.o
    0x0800154c   0x0800154c   0x00000038   Code   RO          297    i.MX_USART1_UART_Init  usart.o
    0x08001584   0x08001584   0x00000002   Code   RO          342    i.MemManage_Handler  stm32f1xx_it.o
    0x08001586   0x08001586   0x00000002   Code   RO          343    i.NMI_Handler       stm32f1xx_it.o
    0x08001588   0x08001588   0x00000002   Code   RO          344    i.SVC_Handler       stm32f1xx_it.o
    0x0800158a   0x0800158a   0x00000012   Code   RO         1855    i.SysTick_Handler   board.o
    0x0800159c   0x0800159c   0x0000004e   Code   RO          209    i.SystemClock_Config  main.o
    0x080015ea   0x080015ea   0x00000002   PAD
    0x080015ec   0x080015ec   0x00000068   Code   RO         1816    i.SystemCoreClockUpdate  system_stm32f1xx.o
    0x08001654   0x08001654   0x00000048   Code   RO         1817    i.SystemInit        system_stm32f1xx.o
    0x0800169c   0x0800169c   0x00000010   Code   RO         1528    i.UART_DMAAbortOnError  stm32f1xx_hal_uart.o
    0x080016ac   0x080016ac   0x0000004a   Code   RO         1529    i.UART_DMAError     stm32f1xx_hal_uart.o
    0x080016f6   0x080016f6   0x0000003c   Code   RO         1530    i.UART_DMAReceiveCplt  stm32f1xx_hal_uart.o
    0x08001732   0x08001732   0x0000000a   Code   RO         1532    i.UART_DMARxHalfCplt  stm32f1xx_hal_uart.o
    0x0800173c   0x0800173c   0x0000001c   Code   RO         1538    i.UART_EndRxTransfer  stm32f1xx_hal_uart.o
    0x08001758   0x08001758   0x00000012   Code   RO         1539    i.UART_EndTxTransfer  stm32f1xx_hal_uart.o
    0x0800176a   0x0800176a   0x00000096   Code   RO         1540    i.UART_Receive_IT   stm32f1xx_hal_uart.o
    0x08001800   0x08001800   0x000000b8   Code   RO         1541    i.UART_SetConfig    stm32f1xx_hal_uart.o
    0x080018b8   0x080018b8   0x00000062   Code   RO         1542    i.UART_Transmit_IT  stm32f1xx_hal_uart.o
    0x0800191a   0x0800191a   0x00000064   Code   RO         1543    i.UART_WaitOnFlagUntilTimeout  stm32f1xx_hal_uart.o
    0x0800197e   0x0800197e   0x00000002   PAD
    0x08001980   0x08001980   0x00000014   Code   RO          345    i.USART1_IRQHandler  stm32f1xx_it.o
    0x08001994   0x08001994   0x00000002   Code   RO          346    i.UsageFault_Handler  stm32f1xx_it.o
    0x08001996   0x08001996   0x00000020   Code   RO          967    i.__NVIC_SetPriority  stm32f1xx_hal_cortex.o
    0x080019b6   0x080019b6   0x00000002   PAD
    0x080019b8   0x080019b8   0x00000044   Code   RO         2323    i.__rt_ffs          kservice.o
    0x080019fc   0x080019fc   0x0000000e   Code   RO         2989    i.__scatterload_copy  mc_w.l(handlers.o)
    0x08001a0a   0x08001a0a   0x00000002   Code   RO         2990    i.__scatterload_null  mc_w.l(handlers.o)
    0x08001a0c   0x08001a0c   0x0000000e   Code   RO         2991    i.__scatterload_zeroinit  mc_w.l(handlers.o)
    0x08001a1a   0x08001a1a   0x00000002   PAD
    0x08001a1c   0x08001a1c   0x00000014   Code   RO         1996    i._has_defunct_thread  idle.o
    0x08001a30   0x08001a30   0x00000074   Code   RO         2693    i._rt_thread_init   thread.o
    0x08001aa4   0x08001aa4   0x0000001c   Code   RO         2813    i._rt_timer_init    timer.o
    0x08001ac0   0x08001ac0   0x00000012   Code   RO         2814    i._rt_timer_remove  timer.o
    0x08001ad2   0x08001ad2   0x00000002   PAD
    0x08001ad4   0x08001ad4   0x0000008c   Code   RO           15    i.key_thread_entry  app_rt_thread.o
    0x08001b60   0x08001b60   0x0000001e   Code   RO          210    i.main              main.o
    0x08001b7e   0x08001b7e   0x0000000e   Code   RO         1930    i.main_thread_entry  components.o
    0x08001b8c   0x08001b8c   0x00000054   Code   RO         2506    i.plug_holes        mem.o
    0x08001be0   0x08001be0   0x00000130   Code   RO         2325    i.print_number      kservice.o
    0x08001d10   0x08001d10   0x0000002c   Code   RO         1931    i.rt_application_init  components.o
    0x08001d3c   0x08001d3c   0x0000001c   Code   RO         1932    i.rt_components_board_init  components.o
    0x08001d58   0x08001d58   0x0000001c   Code   RO         1933    i.rt_components_init  components.o
    0x08001d74   0x08001d74   0x0000001c   Code   RO         2632    i.rt_enter_critical  scheduler.o
    0x08001d90   0x08001d90   0x00000038   Code   RO         2633    i.rt_exit_critical  scheduler.o
    0x08001dc8   0x08001dc8   0x000000c4   Code   RO         2508    i.rt_free           mem.o
    0x08001e8c   0x08001e8c   0x00000008   Code   RO         1856    i.rt_heap_begin_get  board.o
    0x08001e94   0x08001e94   0x00000008   Code   RO         1857    i.rt_heap_end_get   board.o
    0x08001e9c   0x08001e9c   0x00000050   Code   RO         1858    i.rt_hw_board_init  board.o
    0x08001eec   0x08001eec   0x00000040   Code   RO         2328    i.rt_hw_console_output  kservice.o
    0x08001f2c   0x08001f2c   0x000001f4   Code   RO         2925    i.rt_hw_hard_fault_exception  cpuport.o
    0x08002120   0x08002120   0x00000038   Code   RO         2926    i.rt_hw_stack_init  cpuport.o
    0x08002158   0x08002158   0x0000001c   Code   RO         2293    i.rt_interrupt_enter  irq.o
    0x08002174   0x08002174   0x0000001c   Code   RO         2295    i.rt_interrupt_leave  irq.o
    0x08002190   0x08002190   0x0000000e   Code   RO         2043    i.rt_ipc_list_resume  ipc.o
    0x0800219e   0x0800219e   0x00000002   PAD
    0x080021a0   0x080021a0   0x0000002c   Code   RO         2044    i.rt_ipc_list_resume_all  ipc.o
    0x080021cc   0x080021cc   0x00000052   Code   RO         2045    i.rt_ipc_list_suspend  ipc.o
    0x0800221e   0x0800221e   0x00000002   PAD
    0x08002220   0x08002220   0x00000020   Code   RO         2329    i.rt_kprintf        kservice.o
    0x08002240   0x08002240   0x0000000e   Code   RO         2556    i.rt_list_insert_after  object.o
    0x0800224e   0x0800224e   0x0000000e   Code   RO         2694    i.rt_list_insert_after  thread.o
    0x0800225c   0x0800225c   0x0000000e   Code   RO         2815    i.rt_list_insert_after  timer.o
    0x0800226a   0x0800226a   0x0000000e   Code   RO         2046    i.rt_list_insert_before  ipc.o
    0x08002278   0x08002278   0x00000012   Code   RO         2557    i.rt_list_remove    object.o
    0x0800228a   0x0800228a   0x00000012   Code   RO         2695    i.rt_list_remove    thread.o
    0x0800229c   0x0800229c   0x000000f0   Code   RO         2509    i.rt_malloc         mem.o
    0x0800238c   0x0800238c   0x00000032   Code   RO         2333    i.rt_memcpy         kservice.o
    0x080023be   0x080023be   0x00000012   Code   RO         2335    i.rt_memset         kservice.o
    0x080023d0   0x080023d0   0x00000070   Code   RO         2056    i.rt_mq_create      ipc.o
    0x08002440   0x08002440   0x0000001a   Code   RO         2057    i.rt_mq_delete      ipc.o
    0x0800245a   0x0800245a   0x00000002   PAD
    0x0800245c   0x0800245c   0x000000f4   Code   RO         2060    i.rt_mq_recv        ipc.o
    0x08002550   0x08002550   0x00000080   Code   RO         2061    i.rt_mq_send        ipc.o
    0x080025d0   0x080025d0   0x00000050   Code   RO         2558    i.rt_object_allocate  object.o
    0x08002620   0x08002620   0x00000026   Code   RO         2559    i.rt_object_delete  object.o
    0x08002646   0x08002646   0x00000020   Code   RO         2560    i.rt_object_detach  object.o
    0x08002666   0x08002666   0x00000002   PAD
    0x08002668   0x08002668   0x00000024   Code   RO         2562    i.rt_object_get_information  object.o
    0x0800268c   0x0800268c   0x00000050   Code   RO         2564    i.rt_object_init    object.o
    0x080026dc   0x080026dc   0x0000000e   Code   RO         2565    i.rt_object_is_systemobject  object.o
    0x080026ea   0x080026ea   0x00000002   PAD
    0x080026ec   0x080026ec   0x00000058   Code   RO         2634    i.rt_schedule       scheduler.o
    0x08002744   0x08002744   0x00000050   Code   RO         2635    i.rt_schedule_insert_thread  scheduler.o
    0x08002794   0x08002794   0x00000048   Code   RO         2636    i.rt_schedule_remove_thread  scheduler.o
    0x080027dc   0x080027dc   0x00000020   Code   RO         2071    i.rt_sem_create     ipc.o
    0x080027fc   0x080027fc   0x00000024   Code   RO         2074    i.rt_sem_init       ipc.o
    0x08002820   0x08002820   0x00000034   Code   RO         2075    i.rt_sem_release    ipc.o
    0x08002854   0x08002854   0x0000006e   Code   RO         2076    i.rt_sem_take       ipc.o
    0x080028c2   0x080028c2   0x00000002   PAD
    0x080028c4   0x080028c4   0x000000b0   Code   RO         2337    i.rt_show_version   kservice.o
    0x08002974   0x08002974   0x00000070   Code   RO         2816    i.rt_soft_timer_check  timer.o
    0x080029e4   0x080029e4   0x00000010   Code   RO         2343    i.rt_strlen         kservice.o
    0x080029f4   0x080029f4   0x00000026   Code   RO         2345    i.rt_strncpy        kservice.o
    0x08002a1a   0x08002a1a   0x00000002   PAD
    0x08002a1c   0x08002a1c   0x000000ac   Code   RO         2512    i.rt_system_heap_init  mem.o
    0x08002ac8   0x08002ac8   0x00000034   Code   RO         2637    i.rt_system_scheduler_init  scheduler.o
    0x08002afc   0x08002afc   0x00000028   Code   RO         2638    i.rt_system_scheduler_start  scheduler.o
    0x08002b24   0x08002b24   0x0000000c   Code   RO         2817    i.rt_system_timer_init  timer.o
    0x08002b30   0x08002b30   0x00000044   Code   RO         2818    i.rt_system_timer_thread_init  timer.o
    0x08002b74   0x08002b74   0x00000048   Code   RO         2697    i.rt_thread_create  thread.o
    0x08002bbc   0x08002bbc   0x00000004   Code   RO         2698    i.rt_thread_delay   thread.o
    0x08002bc0   0x08002bc0   0x00000058   Code   RO         2701    i.rt_thread_exit    thread.o
    0x08002c18   0x08002c18   0x00000006   Code   RO         1997    i.rt_thread_idle_entry  idle.o
    0x08002c1e   0x08002c1e   0x00000002   PAD
    0x08002c20   0x08002c20   0x00000078   Code   RO         1998    i.rt_thread_idle_excute  idle.o
    0x08002c98   0x08002c98   0x00000038   Code   RO         2000    i.rt_thread_idle_init  idle.o
    0x08002cd0   0x08002cd0   0x00000030   Code   RO         2703    i.rt_thread_init    thread.o
    0x08002d00   0x08002d00   0x0000003c   Code   RO         2705    i.rt_thread_resume  thread.o
    0x08002d3c   0x08002d3c   0x0000000c   Code   RO         2706    i.rt_thread_self    thread.o
    0x08002d48   0x08002d48   0x00000040   Code   RO         2707    i.rt_thread_sleep   thread.o
    0x08002d88   0x08002d88   0x0000002c   Code   RO         2708    i.rt_thread_startup  thread.o
    0x08002db4   0x08002db4   0x00000042   Code   RO         2709    i.rt_thread_suspend  thread.o
    0x08002df6   0x08002df6   0x00000020   Code   RO         2710    i.rt_thread_timeout  thread.o
    0x08002e16   0x08002e16   0x00000002   PAD
    0x08002e18   0x08002e18   0x00000038   Code   RO         2819    i.rt_thread_timer_entry  timer.o
    0x08002e50   0x08002e50   0x00000060   Code   RO         2711    i.rt_thread_yield   thread.o
    0x08002eb0   0x08002eb0   0x0000000c   Code   RO         1893    i.rt_tick_get       clock.o
    0x08002ebc   0x08002ebc   0x0000002c   Code   RO         1894    i.rt_tick_increase  clock.o
    0x08002ee8   0x08002ee8   0x00000068   Code   RO         2820    i.rt_timer_check    timer.o
    0x08002f50   0x08002f50   0x00000030   Code   RO         2821    i.rt_timer_control  timer.o
    0x08002f80   0x08002f80   0x00000020   Code   RO         2824    i.rt_timer_detach   timer.o
    0x08002fa0   0x08002fa0   0x00000028   Code   RO         2825    i.rt_timer_init     timer.o
    0x08002fc8   0x08002fc8   0x00000010   Code   RO         2826    i.rt_timer_list_next_timeout  timer.o
    0x08002fd8   0x08002fd8   0x000000bc   Code   RO         2828    i.rt_timer_start    timer.o
    0x08003094   0x08003094   0x0000002e   Code   RO         2829    i.rt_timer_stop     timer.o
    0x080030c2   0x080030c2   0x00000002   PAD
    0x080030c4   0x080030c4   0x0000027c   Code   RO         2348    i.rt_vsnprintf      kservice.o
    0x08003340   0x08003340   0x00000004   Code   RO         1934    i.rti_board_end     components.o
    0x08003344   0x08003344   0x00000004   Code   RO         1935    i.rti_board_start   components.o
    0x08003348   0x08003348   0x00000004   Code   RO         1936    i.rti_end           components.o
    0x0800334c   0x0800334c   0x00000004   Code   RO         1937    i.rti_start         components.o
    0x08003350   0x08003350   0x0000002a   Code   RO         1938    i.rtthread_startup  components.o
    0x0800337a   0x0800337a   0x00000028   Code   RO         2350    i.skip_atoi         kservice.o
    0x080033a2   0x080033a2   0x00000002   PAD
    0x080033a4   0x080033a4   0x00000054   Code   RO           16    i.usart_thread_entry  app_rt_thread.o
    0x080033f8   0x080033f8   0x00000010   Data   RO         1818    .constdata          system_stm32f1xx.o
    0x08003408   0x08003408   0x00000008   Data   RO         1819    .constdata          system_stm32f1xx.o
    0x08003410   0x08003410   0x00000122   Data   RO         2352    .constdata          kservice.o
    0x08003532   0x08003532   0x00000002   PAD
    0x08003534   0x08003534   0x00000004   Data   RO         1939    .rti_fn.0           components.o
    0x08003538   0x08003538   0x00000004   Data   RO         1940    .rti_fn.0.end       components.o
    0x0800353c   0x0800353c   0x00000004   Data   RO         1941    .rti_fn.1.end       components.o
    0x08003540   0x08003540   0x00000004   Data   RO         1942    .rti_fn.6.end       components.o
    0x08003544   0x08003544   0x00000020   Data   RO         2987    Region$$Table       anon$$obj.o


    Execution Region RW_IRAM1 (Exec base: 0x20000000, Load base: 0x08003564, Size: 0x00001f58, Max: 0x00005000, ABSOLUTE)

    Exec Addr    Load Addr    Size         Type   Attr      Idx    E Section Name        Object

    0x20000000   0x08003564   0x00000010   Data   RW           18    .data               app_rt_thread.o
    0x20000010   0x08003574   0x00000008   Data   RW          173    .data               user_app.o
    0x20000018   0x0800357c   0x0000000c   Data   RW          504    .data               stm32f1xx_hal.o
    0x20000024   0x08003588   0x00000004   Data   RW         1820    .data               system_stm32f1xx.o
    0x20000028   0x0800358c   0x00000004   Data   RW         1896    .data               clock.o
    0x2000002c   0x08003590   0x00000001   Data   RW         2296    .data               irq.o
    0x2000002d   0x08003591   0x00000003   PAD
    0x20000030   0x08003594   0x00000018   Data   RW         2514    .data               mem.o
    0x20000048   0x080035ac   0x00000070   Data   RW         2567    .data               object.o
    0x200000b8   0x0800361c   0x00000014   Data   RW         2640    .data               scheduler.o
    0x200000cc   0x08003630   0x00000014   Data   RW         2831    .data               timer.o
    0x200000e0   0x08003644   0x00000004   Data   RW         2927    .data               cpuport.o
    0x200000e4   0x08003648   0x00000004   Data   RW         2928    .data               cpuport.o
    0x200000e8   0x0800364c   0x00000004   Data   RW         2929    .data               cpuport.o
    0x200000ec   0x08003650   0x00000004   Data   RW         2930    .data               cpuport.o
    0x200000f0        -       0x00000400   Zero   RW           17    .bss                app_rt_thread.o
    0x200004f0        -       0x000000c8   Zero   RW          298    .bss                usart.o
    0x200005b8        -       0x00001000   Zero   RW         1859    .bss                board.o
    0x200015b8        -       0x00000180   Zero   RW         2001    .bss                idle.o
    0x20001738        -       0x00000080   Zero   RW         2351    .bss                kservice.o
    0x200017b8        -       0x00000020   Zero   RW         2513    .bss                mem.o
    0x200017d8        -       0x00000100   Zero   RW         2639    .bss                scheduler.o
    0x200018d8        -       0x00000280   Zero   RW         2830    .bss                timer.o
    0x20001b58        -       0x00000400   Zero   RW            1    STACK               startup_stm32f103xb.o


==============================================================================

Image component sizes


      Code (inc. data)   RO Data    RW Data    ZI Data      Debug   Object Name

       672        414          0         16       1024     400938   app_rt_thread.o
       114         18          0          0       4096       3369   board.o
        56         12          0          4          0       1361   clock.o
       182         28         16          0          0       6494   components.o
       244         26          0          0          0        852   context_rvds.o
       556        326          0         16          0       3494   cpuport.o
        60          4          0          0          0        734   dma.o
       172         18          0          0          0        927   gpio.o
       202         26          0          0        384       5978   idle.o
       894          0          0          0          0      12953   ipc.o
        56         12          0          1          0       1830   irq.o
      1442        166        290          0        128      11695   kservice.o
       110          0          0          0          0       1712   main.o
       692        172          0         24         32       4272   mem.o
       312          6          0        112          0       9072   object.o
       416         56          0         20        256       8774   scheduler.o
        36          8        236          0       1024        796   startup_stm32f103xb.o
       112         20          0         12          0       4775   stm32f1xx_hal.o
       198         14          0          0          0      28911   stm32f1xx_hal_cortex.o
       808         36          0          0          0       4950   stm32f1xx_hal_dma.o
       528         40          0          0          0       4052   stm32f1xx_hal_gpio.o
        60          8          0          0          0        834   stm32f1xx_hal_msp.o
      1272        100          0          0          0       5164   stm32f1xx_hal_rcc.o
      1542         26          0          0          0      13279   stm32f1xx_hal_uart.o
        78         16          0          0          0       4304   stm32f1xx_it.o
       176         38         24          4          0       1755   system_stm32f1xx.o
       734         42          0          0          0      12788   thread.o
       782         54          0         20        640      13410   timer.o
       276         30          0          0        200       1816   usart.o
       124         22          0          8          0       1927   user_app.o

    ----------------------------------------------------------------------
     12944       1738        600        240       7784     573216   Object Totals
         0          0         32          0          0          0   (incl. Generated)
        38          0          2          3          0          0   (incl. Padding)

    ----------------------------------------------------------------------

      Code (inc. data)   RO Data    RW Data    ZI Data      Debug   Library Member Name

         0          0          0          0          0          0   entry.o
         0          0          0          0          0          0   entry10a.o
         0          0          0          0          0          0   entry11a.o
         8          4          0          0          0          0   entry2.o
         4          0          0          0          0          0   entry5.o
         0          0          0          0          0          0   entry7b.o
         0          0          0          0          0          0   entry8b.o
         8          4          0          0          0          0   entry9a.o
        30          0          0          0          0          0   handlers.o
        36          8          0          0          0         68   init.o
        36          0          0          0          0        108   memseta.o

    ----------------------------------------------------------------------
       124         16          0          0          0        176   Library Totals
         2          0          0          0          0          0   (incl. Padding)

    ----------------------------------------------------------------------

      Code (inc. data)   RO Data    RW Data    ZI Data      Debug   Library Name

       122         16          0          0          0        176   mc_w.l

    ----------------------------------------------------------------------
       124         16          0          0          0        176   Library Totals

    ----------------------------------------------------------------------

==============================================================================


      Code (inc. data)   RO Data    RW Data    ZI Data      Debug   

     13068       1754        600        240       7784     565328   Grand Totals
     13068       1754        600        240       7784     565328   ELF Image Totals
     13068       1754        600        240          0          0   ROM Totals

==============================================================================

    Total RO  Size (Code + RO Data)                13668 (  13.35kB)
    Total RW  Size (RW Data + ZI Data)              8024 (   7.84kB)
    Total ROM Size (Code + RO Data + RW Data)      13908 (  13.58kB)

==============================================================================

