Component: ARM Compiler 5.06 update 6 (build 750) Tool: armlink [4d35ed]

==============================================================================

Section Cross References

    startup_stm32f103xb.o(RESET) refers to startup_stm32f103xb.o(STACK) for __initial_sp
    startup_stm32f103xb.o(RESET) refers to startup_stm32f103xb.o(.text) for Reset_Handler
    startup_stm32f103xb.o(RESET) refers to stm32f1xx_it.o(i.NMI_Handler) for NMI_Handler
    startup_stm32f103xb.o(RESET) refers to context_rvds.o(.text) for HardFault_Handler
    startup_stm32f103xb.o(RESET) refers to stm32f1xx_it.o(i.MemManage_Handler) for MemManage_Handler
    startup_stm32f103xb.o(RESET) refers to stm32f1xx_it.o(i.BusFault_Handler) for BusFault_Handler
    startup_stm32f103xb.o(RESET) refers to stm32f1xx_it.o(i.UsageFault_Handler) for UsageFault_Handler
    startup_stm32f103xb.o(RESET) refers to stm32f1xx_it.o(i.SVC_Handler) for SVC_Handler
    startup_stm32f103xb.o(RESET) refers to stm32f1xx_it.o(i.DebugMon_Handler) for DebugMon_Handler
    startup_stm32f103xb.o(RESET) refers to board.o(i.SysTick_Handler) for SysTick_Handler
    startup_stm32f103xb.o(.text) refers to system_stm32f1xx.o(i.SystemInit) for SystemInit
    startup_stm32f103xb.o(.text) refers to entry.o(.ARM.Collect$$$$00000000) for __main
    app_rt_thread.o(i.MX_RT_Thread_Init) refers to kservice.o(i.rt_kprintf) for rt_kprintf
    app_rt_thread.o(i.MX_RT_Thread_Init) refers to mempool.o(i.rt_mp_create) for rt_mp_create
    app_rt_thread.o(i.MX_RT_Thread_Init) refers to thread.o(i.rt_thread_create) for rt_thread_create
    app_rt_thread.o(i.MX_RT_Thread_Init) refers to thread.o(i.rt_thread_startup) for rt_thread_startup
    app_rt_thread.o(i.MX_RT_Thread_Init) refers to app_rt_thread.o(.data) for .data
    app_rt_thread.o(i.MX_RT_Thread_Init) refers to app_rt_thread.o(i.alloc_thread_entry) for alloc_thread_entry
==============================================================================

Removing Unused input sections from the image.

    Removing startup_stm32f103xb.o(HEAP), (512 bytes).
    Removing app_rt_thread.o(.rev16_text), (4 bytes).
    Removing app_rt_thread.o(.revsh_text), (4 bytes).
    Removing app_rt_thread.o(.rrx_text), (6 bytes).
    Removing main.o(.rev16_text), (4 bytes).
    Removing main.o(.revsh_text), (4 bytes).
    Removing main.o(.rrx_text), (6 bytes).
    Removing gpio.o(.rev16_text), (4 bytes).
    Removing gpio.o(.revsh_text), (4 bytes).
    Removing gpio.o(.rrx_text), (6 bytes).
    Removing usart.o(.rev16_text), (4 bytes).
    Removing usart.o(.revsh_text), (4 bytes).
    Removing usart.o(.rrx_text), (6 bytes).
    Removing usart.o(i.HAL_UART_MspDeInit), (44 bytes).
    Removing stm32f1xx_it.o(.rev16_text), (4 bytes).
    Removing stm32f1xx_it.o(.revsh_text), (4 bytes).
    Removing stm32f1xx_it.o(.rrx_text), (6 bytes).
    Removing stm32f1xx_hal_msp.o(.rev16_text), (4 bytes).
==============================================================================

Image Symbol Table

    Local Symbols

    Symbol Name                              Value     Ov Type        Size  Object(Section)

    ../Drivers/STM32F1xx_HAL_Driver/Src/stm32f1xx_hal.c 0x00000000   Number         0  stm32f1xx_hal.o ABSOLUTE
    ../Drivers/STM32F1xx_HAL_Driver/Src/stm32f1xx_hal_cortex.c 0x00000000   Number         0  stm32f1xx_hal_cortex.o ABSOLUTE
    ../Drivers/STM32F1xx_HAL_Driver/Src/stm32f1xx_hal_dma.c 0x00000000   Number         0  stm32f1xx_hal_dma.o ABSOLUTE
    ../Drivers/STM32F1xx_HAL_Driver/Src/stm32f1xx_hal_exti.c 0x00000000   Number         0  stm32f1xx_hal_exti.o ABSOLUTE
    ../Drivers/STM32F1xx_HAL_Driver/Src/stm32f1xx_hal_flash.c 0x00000000   Number         0  stm32f1xx_hal_flash.o ABSOLUTE
    ../Drivers/STM32F1xx_HAL_Driver/Src/stm32f1xx_hal_flash_ex.c 0x00000000   Number         0  stm32f1xx_hal_flash_ex.o ABSOLUTE
    ../Drivers/STM32F1xx_HAL_Driver/Src/stm32f1xx_hal_gpio.c 0x00000000   Number         0  stm32f1xx_hal_gpio.o ABSOLUTE
    ../Drivers/STM32F1xx_HAL_Driver/Src/stm32f1xx_hal_gpio_ex.c 0x00000000   Number         0  stm32f1xx_hal_gpio_ex.o ABSOLUTE
    ../Drivers/STM32F1xx_HAL_Driver/Src/stm32f1xx_hal_pwr.c 0x00000000   Number         0  stm32f1xx_hal_pwr.o ABSOLUTE
    ../Drivers/STM32F1xx_HAL_Driver/Src/stm32f1xx_hal_rcc.c 0x00000000   Number         0  stm32f1xx_hal_rcc.o ABSOLUTE
    ../Drivers/STM32F1xx_HAL_Driver/Src/stm32f1xx_hal_rcc_ex.c 0x00000000   Number         0  stm32f1xx_hal_rcc_ex.o ABSOLUTE
    ../Drivers/STM32F1xx_HAL_Driver/Src/stm32f1xx_hal_tim.c 0x00000000   Number         0  stm32f1xx_hal_tim.o ABSOLUTE
    ../Drivers/STM32F1xx_HAL_Driver/Src/stm32f1xx_hal_tim_ex.c 0x00000000   Number         0  stm32f1xx_hal_tim_ex.o ABSOLUTE
    ../Drivers/STM32F1xx_HAL_Driver/Src/stm32f1xx_hal_uart.c 0x00000000   Number         0  stm32f1xx_hal_uart.o ABSOLUTE
    ../Middlewares/Third_Party/RealThread_RTOS_RT-Thread/bsp/board.c 0x00000000   Number         0  board.o ABSOLUTE
    ../Middlewares/Third_Party/RealThread_RTOS_RT-Thread/libcpu/arm/cortex-m3/context_rvds.S 0x00000000   Number         0  context_rvds.o ABSOLUTE
    ../Middlewares/Third_Party/RealThread_RTOS_RT-Thread/libcpu/arm/cortex-m3/cpuport.c 0x00000000   Number         0  cpuport.o ABSOLUTE
    ../Middlewares/Third_Party/RealThread_RTOS_RT-Thread/src/clock.c 0x00000000   Number         0  clock.o ABSOLUTE
    ../Middlewares/Third_Party/RealThread_RTOS_RT-Thread/src/components.c 0x00000000   Number         0  components.o ABSOLUTE
    ../Middlewares/Third_Party/RealThread_RTOS_RT-Thread/src/idle.c 0x00000000   Number         0  idle.o ABSOLUTE
    ../Middlewares/Third_Party/RealThread_RTOS_RT-Thread/src/ipc.c 0x00000000   Number         0  ipc.o ABSOLUTE
    ../Middlewares/Third_Party/RealThread_RTOS_RT-Thread/src/irq.c 0x00000000   Number         0  irq.o ABSOLUTE
    ../Middlewares/Third_Party/RealThread_RTOS_RT-Thread/src/kservice.c 0x00000000   Number         0  kservice.o ABSOLUTE
    ../Middlewares/Third_Party/RealThread_RTOS_RT-Thread/src/mem.c 0x00000000   Number         0  mem.o ABSOLUTE
    ../Middlewares/Third_Party/RealThread_RTOS_RT-Thread/src/object.c 0x00000000   Number         0  object.o ABSOLUTE
    ../Middlewares/Third_Party/RealThread_RTOS_RT-Thread/src/scheduler.c 0x00000000   Number         0  scheduler.o ABSOLUTE
    ../Middlewares/Third_Party/RealThread_RTOS_RT-Thread/src/thread.c 0x00000000   Number         0  thread.o ABSOLUTE
    ../Middlewares/Third_Party/RealThread_RTOS_RT-Thread/src/timer.c 0x00000000   Number         0  timer.o ABSOLUTE
    ../Src/gpio.c                            0x00000000   Number         0  gpio.o ABSOLUTE
    ../Src/main.c                            0x00000000   Number         0  main.o ABSOLUTE
    ../Src/stm32f1xx_hal_msp.c               0x00000000   Number         0  stm32f1xx_hal_msp.o ABSOLUTE
    ../Src/stm32f1xx_it.c                    0x00000000   Number         0  stm32f1xx_it.o ABSOLUTE
    ../Src/system_stm32f1xx.c                0x00000000   Number         0  system_stm32f1xx.o ABSOLUTE
    ../Src/usart.c                           0x00000000   Number         0  usart.o ABSOLUTE
    ../clib/microlib/init/entry.s            0x00000000   Number         0  entry8a.o ABSOLUTE
    ../clib/microlib/init/entry.s            0x00000000   Number         0  entry8b.o ABSOLUTE
    ../clib/microlib/init/entry.s            0x00000000   Number         0  entry.o ABSOLUTE
    ../clib/microlib/init/entry.s            0x00000000   Number         0  entry10b.o ABSOLUTE
    ../clib/microlib/init/entry.s            0x00000000   Number         0  entry10a.o ABSOLUTE
    ../clib/microlib/init/entry.s            0x00000000   Number         0  entry9b.o ABSOLUTE
    ../clib/microlib/init/entry.s            0x00000000   Number         0  entry5.o ABSOLUTE
    ../clib/microlib/init/entry.s            0x00000000   Number         0  entry2.o ABSOLUTE
    ../clib/microlib/init/entry.s            0x00000000   Number         0  entry7b.o ABSOLUTE
    ../clib/microlib/init/entry.s            0x00000000   Number         0  entry9a.o ABSOLUTE
    ../clib/microlib/init/entry.s            0x00000000   Number         0  entry11b.o ABSOLUTE
    ../clib/microlib/init/entry.s            0x00000000   Number         0  entry7a.o ABSOLUTE
    ../clib/microlib/init/entry.s            0x00000000   Number         0  entry11a.o ABSOLUTE
    ../clib/microlib/longlong.c              0x00000000   Number         0  llushr.o ABSOLUTE
    ../clib/microlib/string/memset.c         0x00000000   Number         0  memseta.o ABSOLUTE
    ..\Drivers\STM32F1xx_HAL_Driver\Src\stm32f1xx_hal.c 0x00000000   Number         0  stm32f1xx_hal.o ABSOLUTE
    ..\Drivers\STM32F1xx_HAL_Driver\Src\stm32f1xx_hal_cortex.c 0x00000000   Number         0  stm32f1xx_hal_cortex.o ABSOLUTE
    ..\Drivers\STM32F1xx_HAL_Driver\Src\stm32f1xx_hal_dma.c 0x00000000   Number         0  stm32f1xx_hal_dma.o ABSOLUTE
    ..\Drivers\STM32F1xx_HAL_Driver\Src\stm32f1xx_hal_exti.c 0x00000000   Number         0  stm32f1xx_hal_exti.o ABSOLUTE
    ..\Drivers\STM32F1xx_HAL_Driver\Src\stm32f1xx_hal_flash.c 0x00000000   Number         0  stm32f1xx_hal_flash.o ABSOLUTE
    ..\Drivers\STM32F1xx_HAL_Driver\Src\stm32f1xx_hal_flash_ex.c 0x00000000   Number         0  stm32f1xx_hal_flash_ex.o ABSOLUTE
    ..\Drivers\STM32F1xx_HAL_Driver\Src\stm32f1xx_hal_gpio.c 0x00000000   Number         0  stm32f1xx_hal_gpio.o ABSOLUTE
    ..\Drivers\STM32F1xx_HAL_Driver\Src\stm32f1xx_hal_gpio_ex.c 0x00000000   Number         0  stm32f1xx_hal_gpio_ex.o ABSOLUTE
    ..\Drivers\STM32F1xx_HAL_Driver\Src\stm32f1xx_hal_pwr.c 0x00000000   Number         0  stm32f1xx_hal_pwr.o ABSOLUTE
    ..\Drivers\STM32F1xx_HAL_Driver\Src\stm32f1xx_hal_rcc.c 0x00000000   Number         0  stm32f1xx_hal_rcc.o ABSOLUTE
    ..\Drivers\STM32F1xx_HAL_Driver\Src\stm32f1xx_hal_rcc_ex.c 0x00000000   Number         0  stm32f1xx_hal_rcc_ex.o ABSOLUTE
    ..\Drivers\STM32F1xx_HAL_Driver\Src\stm32f1xx_hal_tim.c 0x00000000   Number         0  stm32f1xx_hal_tim.o ABSOLUTE
    ..\Drivers\STM32F1xx_HAL_Driver\Src\stm32f1xx_hal_tim_ex.c 0x00000000   Number         0  stm32f1xx_hal_tim_ex.o ABSOLUTE
    ..\Drivers\STM32F1xx_HAL_Driver\Src\stm32f1xx_hal_uart.c 0x00000000   Number         0  stm32f1xx_hal_uart.o ABSOLUTE
    ..\Middlewares\Third_Party\RealThread_RTOS_RT-Thread\src\kservice.c 0x00000000   Number         0  kservice.o ABSOLUTE
    ..\Src\app_rt_thread.c                   0x00000000   Number         0  app_rt_thread.o ABSOLUTE
    ..\Src\gpio.c                            0x00000000   Number         0  gpio.o ABSOLUTE
    ..\Src\main.c                            0x00000000   Number         0  main.o ABSOLUTE
    ..\Src\mempool.c                         0x00000000   Number         0  mempool.o ABSOLUTE
    ..\Src\stm32f1xx_hal_msp.c               0x00000000   Number         0  stm32f1xx_hal_msp.o ABSOLUTE
    ..\Src\stm32f1xx_it.c                    0x00000000   Number         0  stm32f1xx_it.o ABSOLUTE
    ..\Src\system_stm32f1xx.c                0x00000000   Number         0  system_stm32f1xx.o ABSOLUTE
    ..\Src\usart.c                           0x00000000   Number         0  usart.o ABSOLUTE
    ..\\Src\\app_rt_thread.c                 0x00000000   Number         0  app_rt_thread.o ABSOLUTE
    dc.s                                     0x00000000   Number         0  dc.o ABSOLUTE
    handlers.s                               0x00000000   Number         0  handlers.o ABSOLUTE
    init.s                                   0x00000000   Number         0  init.o ABSOLUTE
    startup_stm32f103xb.s                    0x00000000   Number         0  startup_stm32f103xb.o ABSOLUTE
    RESET                                    0x08000000   Section      236  startup_stm32f103xb.o(RESET)
    .ARM.Collect$$$$00000000                 0x080000ec   Section        0  entry.o(.ARM.Collect$$$$00000000)
    .ARM.Collect$$$$00000001                 0x080000ec   Section        4  entry2.o(.ARM.Collect$$$$00000001)
    .ARM.Collect$$$$00000004                 0x080000f0   Section        4  entry5.o(.ARM.Collect$$$$00000004)
    .ARM.Collect$$$$00000008                 0x080000f4   Section        0  entry7b.o(.ARM.Collect$$$$00000008)
    .ARM.Collect$$$$0000000A                 0x080000f4   Section        0  entry8b.o(.ARM.Collect$$$$0000000A)
    .ARM.Collect$$$$0000000B                 0x080000f4   Section        8  entry9a.o(.ARM.Collect$$$$0000000B)
    .ARM.Collect$$$$0000000D                 0x080000fc   Section        0  entry10a.o(.ARM.Collect$$$$0000000D)
    .ARM.Collect$$$$0000000F                 0x080000fc   Section        0  entry11a.o(.ARM.Collect$$$$0000000F)
    .ARM.Collect$$$$00002712                 0x080000fc   Section        4  entry2.o(.ARM.Collect$$$$00002712)
    __lit__00000000                          0x080000fc   Data           4  entry2.o(.ARM.Collect$$$$00002712)
    .text                                    0x08000100   Section       36  startup_stm32f103xb.o(.text)
    .text                                    0x08000124   Section      244  context_rvds.o(.text)
    .text                                    0x08000218   Section        0  memseta.o(.text)
    .text                                    0x0800023c   Section       36  init.o(.text)
    i.$Sub$$main                             0x08000260   Section        0  components.o(i.$Sub$$main)
    i.BusFault_Handler                       0x0800026a   Section        0  stm32f1xx_it.o(i.BusFault_Handler)
    i.DebugMon_Handler                       0x0800026c   Section        0  stm32f1xx_it.o(i.DebugMon_Handler)
    i.Error_Handler                          0x0800026e   Section        0  main.o(i.Error_Handler)
    i.HAL_GPIO_Init                          0x08000270   Section        0  stm32f1xx_hal_gpio.o(i.HAL_GPIO_Init)
    i.HAL_GPIO_TogglePin                     0x08000450   Section        0  stm32f1xx_hal_gpio.o(i.HAL_GPIO_TogglePin)
    i.HAL_GPIO_WritePin                      0x0800045e   Section        0  stm32f1xx_hal_gpio.o(i.HAL_GPIO_WritePin)
    i.HAL_GetTick                            0x08000468   Section        0  stm32f1xx_hal.o(i.HAL_GetTick)
    i.HAL_Init                               0x08000474   Section        0  stm32f1xx_hal.o(i.HAL_Init)
    i.HAL_InitTick                           0x08000498   Section        0  stm32f1xx_hal.o(i.HAL_InitTick)
    i.HAL_MspInit                            0x080004d8   Section        0  stm32f1xx_hal_msp.o(i.HAL_MspInit)
    i.HAL_NVIC_SetPriority                   0x08000514   Section        0  stm32f1xx_hal_cortex.o(i.HAL_NVIC_SetPriority)
    i.HAL_NVIC_SetPriorityGrouping           0x08000554   Section        0  stm32f1xx_hal_cortex.o(i.HAL_NVIC_SetPriorityGrouping)
    i.HAL_RCC_ClockConfig                    0x08000578   Section        0  stm32f1xx_hal_rcc.o(i.HAL_RCC_ClockConfig)
    i.HAL_RCC_GetPCLK1Freq                   0x080006a4   Section        0  stm32f1xx_hal_rcc.o(i.HAL_RCC_GetPCLK1Freq)
    i.HAL_RCC_GetPCLK2Freq                   0x080006c4   Section        0  stm32f1xx_hal_rcc.o(i.HAL_RCC_GetPCLK2Freq)
    i.HAL_RCC_GetSysClockFreq                0x080006e4   Section        0  stm32f1xx_hal_rcc.o(i.HAL_RCC_GetSysClockFreq)
    i.HAL_RCC_OscConfig                      0x08000750   Section        0  stm32f1xx_hal_rcc.o(i.HAL_RCC_OscConfig)
    i.HAL_SYSTICK_Config                     0x08000a70   Section        0  stm32f1xx_hal_cortex.o(i.HAL_SYSTICK_Config)
    i.HAL_UART_Init                          0x08000a98   Section        0  stm32f1xx_hal_uart.o(i.HAL_UART_Init)
    i.HAL_UART_MspInit                       0x08000afc   Section        0  usart.o(i.HAL_UART_MspInit)
    i.HAL_UART_Transmit                      0x08000b6c   Section        0  stm32f1xx_hal_uart.o(i.HAL_UART_Transmit)
    i.MX_GPIO_Init                           0x08000c28   Section        0  gpio.o(i.MX_GPIO_Init)
    i.MX_RT_Thread_Init                      0x08000cc4   Section        0  app_rt_thread.o(i.MX_RT_Thread_Init)
    i.MX_USART1_UART_Init                    0x08000ddc   Section        0  usart.o(i.MX_USART1_UART_Init)
    i.MemManage_Handler                      0x08000e14   Section        0  stm32f1xx_it.o(i.MemManage_Handler)
    i.NMI_Handler                            0x08000e16   Section        0  stm32f1xx_it.o(i.NMI_Handler)
    i.SVC_Handler                            0x08000e18   Section        0  stm32f1xx_it.o(i.SVC_Handler)
    i.SysTick_Handler                        0x08000e1a   Section        0  board.o(i.SysTick_Handler)
    i.SystemClock_Config                     0x08000e2c   Section        0  main.o(i.SystemClock_Config)
    i.SystemCoreClockUpdate                  0x08000e7c   Section        0  system_stm32f1xx.o(i.SystemCoreClockUpdate)
    i.SystemInit                             0x08000ee4   Section        0  system_stm32f1xx.o(i.SystemInit)
    i.UART_SetConfig                         0x08000f2c   Section        0  stm32f1xx_hal_uart.o(i.UART_SetConfig)
    UART_SetConfig                           0x08000f2d   Thumb Code   178  stm32f1xx_hal_uart.o(i.UART_SetConfig)
    i.UART_WaitOnFlagUntilTimeout            0x08000fe4   Section        0  stm32f1xx_hal_uart.o(i.UART_WaitOnFlagUntilTimeout)
    UART_WaitOnFlagUntilTimeout              0x08000fe5   Thumb Code   100  stm32f1xx_hal_uart.o(i.UART_WaitOnFlagUntilTimeout)
    i.UsageFault_Handler                     0x08001048   Section        0  stm32f1xx_it.o(i.UsageFault_Handler)
    i.__NVIC_SetPriority                     0x0800104a   Section        0  stm32f1xx_hal_cortex.o(i.__NVIC_SetPriority)
    __NVIC_SetPriority                       0x0800104b   Thumb Code    32  stm32f1xx_hal_cortex.o(i.__NVIC_SetPriority)
    i.__rt_ffs                               0x0800106c   Section        0  kservice.o(i.__rt_ffs)
    i.__scatterload_copy                     0x080010b0   Section       14  handlers.o(i.__scatterload_copy)
    i.__scatterload_null                     0x080010be   Section        2  handlers.o(i.__scatterload_null)
    i.__scatterload_zeroinit                 0x080010c0   Section       14  handlers.o(i.__scatterload_zeroinit)
    i._has_defunct_thread                    0x080010d0   Section        0  idle.o(i._has_defunct_thread)
    _has_defunct_thread                      0x080010d1   Thumb Code    16  idle.o(i._has_defunct_thread)
    i._rt_thread_init                        0x080010e4   Section        0  thread.o(i._rt_thread_init)
    _rt_thread_init                          0x080010e5   Thumb Code   108  thread.o(i._rt_thread_init)
    i._rt_timer_init                         0x08001158   Section        0  timer.o(i._rt_timer_init)
    _rt_timer_init                           0x08001159   Thumb Code    28  timer.o(i._rt_timer_init)
    i._rt_timer_remove                       0x08001174   Section        0  timer.o(i._rt_timer_remove)
    _rt_timer_remove                         0x08001175   Thumb Code    18  timer.o(i._rt_timer_remove)
    i.alloc_thread_entry                     0x08001188   Section        0  app_rt_thread.o(i.alloc_thread_entry)
    alloc_thread_entry                       0x08001189   Thumb Code    92  app_rt_thread.o(i.alloc_thread_entry)
    i.free_thread_entry                      0x080012fc   Section        0  app_rt_thread.o(i.free_thread_entry)
    free_thread_entry                        0x080012fd   Thumb Code    66  app_rt_thread.o(i.free_thread_entry)
    i.main                                   0x080013bc   Section        0  main.o(i.main)
    i.main_thread_entry                      0x080013d2   Section        0  components.o(i.main_thread_entry)
    i.plug_holes                             0x080013e0   Section        0  mem.o(i.plug_holes)
    plug_holes                               0x080013e1   Thumb Code    80  mem.o(i.plug_holes)
    i.print_number                           0x08001434   Section        0  kservice.o(i.print_number)
    print_number                             0x08001435   Thumb Code   300  kservice.o(i.print_number)
    i.rt_application_init                    0x08001564   Section        0  components.o(i.rt_application_init)
    i.rt_components_board_init               0x08001590   Section        0  components.o(i.rt_components_board_init)
    i.rt_components_init                     0x080015ac   Section        0  components.o(i.rt_components_init)
    i.rt_enter_critical                      0x080015c8   Section        0  scheduler.o(i.rt_enter_critical)
    i.rt_exit_critical                       0x080015e4   Section        0  scheduler.o(i.rt_exit_critical)
    i.rt_free                                0x0800161c   Section        0  mem.o(i.rt_free)
    i.rt_heap_begin_get                      0x080016e0   Section        0  board.o(i.rt_heap_begin_get)
    i.rt_heap_end_get                        0x080016e8   Section        0  board.o(i.rt_heap_end_get)
    i.rt_hw_board_init                       0x080016f0   Section        0  board.o(i.rt_hw_board_init)
    i.rt_hw_console_output                   0x08001740   Section        0  kservice.o(i.rt_hw_console_output)
    i.rt_hw_hard_fault_exception             0x08001780   Section        0  cpuport.o(i.rt_hw_hard_fault_exception)
    i.rt_hw_stack_init                       0x08001974   Section        0  cpuport.o(i.rt_hw_stack_init)
    i.rt_interrupt_enter                     0x080019ac   Section        0  irq.o(i.rt_interrupt_enter)
    i.rt_interrupt_get_nest                  0x080019c8   Section        0  irq.o(i.rt_interrupt_get_nest)
    i.rt_interrupt_leave                     0x080019d4   Section        0  irq.o(i.rt_interrupt_leave)
    i.rt_ipc_list_resume                     0x080019f0   Section        0  ipc.o(i.rt_ipc_list_resume)
    rt_ipc_list_resume                       0x080019f1   Thumb Code    14  ipc.o(i.rt_ipc_list_resume)
    i.rt_ipc_list_suspend                    0x08001a00   Section        0  ipc.o(i.rt_ipc_list_suspend)
    rt_ipc_list_suspend                      0x08001a01   Thumb Code    82  ipc.o(i.rt_ipc_list_suspend)
    i.rt_kprintf                             0x08001a54   Section        0  kservice.o(i.rt_kprintf)
    i.rt_list_insert_after                   0x08001a74   Section        0  object.o(i.rt_list_insert_after)
    rt_list_insert_after                     0x08001a75   Thumb Code    14  object.o(i.rt_list_insert_after)
    i.rt_list_insert_after                   0x08001a82   Section        0  thread.o(i.rt_list_insert_after)
    rt_list_insert_after                     0x08001a83   Thumb Code    14  thread.o(i.rt_list_insert_after)
    i.rt_list_insert_after                   0x08001a90   Section        0  timer.o(i.rt_list_insert_after)
    rt_list_insert_after                     0x08001a91   Thumb Code    14  timer.o(i.rt_list_insert_after)
    i.rt_list_insert_before                  0x08001a9e   Section        0  ipc.o(i.rt_list_insert_before)
    rt_list_insert_before                    0x08001a9f   Thumb Code    14  ipc.o(i.rt_list_insert_before)
    i.rt_list_remove                         0x08001aac   Section        0  object.o(i.rt_list_remove)
    rt_list_remove                           0x08001aad   Thumb Code    18  object.o(i.rt_list_remove)
    i.rt_list_remove                         0x08001abe   Section        0  thread.o(i.rt_list_remove)
    rt_list_remove                           0x08001abf   Thumb Code    18  thread.o(i.rt_list_remove)
    i.rt_malloc                              0x08001ad0   Section        0  mem.o(i.rt_malloc)
    i.rt_memset                              0x08001bc0   Section        0  kservice.o(i.rt_memset)
    i.rt_mp_alloc                            0x08001bd2   Section        0  mempool.o(i.rt_mp_alloc)
    i.rt_mp_create                           0x08001c90   Section        0  mempool.o(i.rt_mp_create)
    i.rt_mp_delete                           0x08001cfa   Section        0  mempool.o(i.rt_mp_delete)
    i.rt_mp_free                             0x08001d3e   Section        0  mempool.o(i.rt_mp_free)
    i.rt_object_allocate                     0x08001d84   Section        0  object.o(i.rt_object_allocate)
    i.rt_object_delete                       0x08001dd4   Section        0  object.o(i.rt_object_delete)
    i.rt_object_detach                       0x08001dfa   Section        0  object.o(i.rt_object_detach)
    i.rt_object_get_information              0x08001e1c   Section        0  object.o(i.rt_object_get_information)
    i.rt_object_init                         0x08001e40   Section        0  object.o(i.rt_object_init)
    i.rt_object_is_systemobject              0x08001e90   Section        0  object.o(i.rt_object_is_systemobject)
    i.rt_schedule                            0x08001ea0   Section        0  scheduler.o(i.rt_schedule)
    i.rt_schedule_insert_thread              0x08001ef8   Section        0  scheduler.o(i.rt_schedule_insert_thread)
    i.rt_schedule_remove_thread              0x08001f48   Section        0  scheduler.o(i.rt_schedule_remove_thread)
    i.rt_sem_init                            0x08001f90   Section        0  ipc.o(i.rt_sem_init)
    i.rt_sem_release                         0x08001fb4   Section        0  ipc.o(i.rt_sem_release)
    i.rt_sem_take                            0x08001fe8   Section        0  ipc.o(i.rt_sem_take)
    i.rt_set_errno                           0x08002058   Section        0  kservice.o(i.rt_set_errno)
    i.rt_show_version                        0x08002078   Section        0  kservice.o(i.rt_show_version)
    i.rt_soft_timer_check                    0x08002128   Section        0  timer.o(i.rt_soft_timer_check)
    i.rt_strlen                              0x08002198   Section        0  kservice.o(i.rt_strlen)
    i.rt_strncpy                             0x080021a8   Section        0  kservice.o(i.rt_strncpy)
    i.rt_system_heap_init                    0x080021d0   Section        0  mem.o(i.rt_system_heap_init)
    i.rt_system_scheduler_init               0x0800227c   Section        0  scheduler.o(i.rt_system_scheduler_init)
    i.rt_system_scheduler_start              0x080022b0   Section        0  scheduler.o(i.rt_system_scheduler_start)
    i.rt_system_timer_init                   0x080022d8   Section        0  timer.o(i.rt_system_timer_init)
    i.rt_system_timer_thread_init            0x080022e4   Section        0  timer.o(i.rt_system_timer_thread_init)
    i.rt_thread_create                       0x08002328   Section        0  thread.o(i.rt_thread_create)
    i.rt_thread_delay                        0x08002370   Section        0  thread.o(i.rt_thread_delay)
    i.rt_thread_exit                         0x08002374   Section        0  thread.o(i.rt_thread_exit)
    i.rt_thread_idle_entry                   0x080023cc   Section        0  idle.o(i.rt_thread_idle_entry)
    rt_thread_idle_entry                     0x080023cd   Thumb Code     6  idle.o(i.rt_thread_idle_entry)
    i.rt_thread_idle_excute                  0x080023d4   Section        0  idle.o(i.rt_thread_idle_excute)
    i.rt_thread_idle_init                    0x0800244c   Section        0  idle.o(i.rt_thread_idle_init)
    i.rt_thread_init                         0x08002484   Section        0  thread.o(i.rt_thread_init)
    i.rt_thread_resume                       0x080024b4   Section        0  thread.o(i.rt_thread_resume)
    i.rt_thread_self                         0x080024f0   Section        0  thread.o(i.rt_thread_self)
    i.rt_thread_sleep                        0x080024fc   Section        0  thread.o(i.rt_thread_sleep)
    i.rt_thread_startup                      0x0800253c   Section        0  thread.o(i.rt_thread_startup)
    i.rt_thread_suspend                      0x08002568   Section        0  thread.o(i.rt_thread_suspend)
    i.rt_thread_timeout                      0x080025aa   Section        0  thread.o(i.rt_thread_timeout)
    i.rt_thread_timer_entry                  0x080025cc   Section        0  timer.o(i.rt_thread_timer_entry)
    rt_thread_timer_entry                    0x080025cd   Thumb Code    50  timer.o(i.rt_thread_timer_entry)
    i.rt_thread_yield                        0x08002604   Section        0  thread.o(i.rt_thread_yield)
    i.rt_tick_get                            0x08002664   Section        0  clock.o(i.rt_tick_get)
    i.rt_tick_increase                       0x08002670   Section        0  clock.o(i.rt_tick_increase)
    i.rt_timer_check                         0x0800269c   Section        0  timer.o(i.rt_timer_check)
    i.rt_timer_control                       0x08002704   Section        0  timer.o(i.rt_timer_control)
    i.rt_timer_detach                        0x08002734   Section        0  timer.o(i.rt_timer_detach)
    i.rt_timer_init                          0x08002754   Section        0  timer.o(i.rt_timer_init)
    i.rt_timer_list_next_timeout             0x0800277c   Section        0  timer.o(i.rt_timer_list_next_timeout)
    rt_timer_list_next_timeout               0x0800277d   Thumb Code    16  timer.o(i.rt_timer_list_next_timeout)
    i.rt_timer_start                         0x0800278c   Section        0  timer.o(i.rt_timer_start)
    i.rt_timer_stop                          0x08002848   Section        0  timer.o(i.rt_timer_stop)
    i.rt_vsnprintf                           0x08002878   Section        0  kservice.o(i.rt_vsnprintf)
    i.rti_board_end                          0x08002af4   Section        0  components.o(i.rti_board_end)
    rti_board_end                            0x08002af5   Thumb Code     4  components.o(i.rti_board_end)
    i.rti_board_start                        0x08002af8   Section        0  components.o(i.rti_board_start)
    rti_board_start                          0x08002af9   Thumb Code     4  components.o(i.rti_board_start)
    i.rti_end                                0x08002afc   Section        0  components.o(i.rti_end)
    rti_end                                  0x08002afd   Thumb Code     4  components.o(i.rti_end)
    i.rti_start                              0x08002b00   Section        0  components.o(i.rti_start)
    rti_start                                0x08002b01   Thumb Code     4  components.o(i.rti_start)
    i.rtthread_startup                       0x08002b04   Section        0  components.o(i.rtthread_startup)
    i.skip_atoi                              0x08002b2e   Section        0  kservice.o(i.skip_atoi)
    skip_atoi                                0x08002b2f   Thumb Code    40  kservice.o(i.skip_atoi)
    .constdata                               0x08002b56   Section       16  system_stm32f1xx.o(.constdata)
    .constdata                               0x08002b66   Section        8  system_stm32f1xx.o(.constdata)
    .constdata                               0x08002b6e   Section      290  kservice.o(.constdata)
    small_digits                             0x08002c6e   Data          17  kservice.o(.constdata)
    large_digits                             0x08002c7f   Data          17  kservice.o(.constdata)
    .rti_fn.0                                0x08002c90   Section        4  components.o(.rti_fn.0)
    __tagsym$$used                           0x08002c90   Number         0  components.o(.rti_fn.0)
    .rti_fn.0.end                            0x08002c94   Section        4  components.o(.rti_fn.0.end)
    __tagsym$$used                           0x08002c94   Number         0  components.o(.rti_fn.0.end)
    .rti_fn.1.end                            0x08002c98   Section        4  components.o(.rti_fn.1.end)
    __tagsym$$used                           0x08002c98   Number         0  components.o(.rti_fn.1.end)
    .rti_fn.6.end                            0x08002c9c   Section        4  components.o(.rti_fn.6.end)
    __tagsym$$used                           0x08002c9c   Number         0  components.o(.rti_fn.6.end)
    .data                                    0x20000000   Section       16  app_rt_thread.o(.data)
    alloc_thread                             0x20000000   Data           4  app_rt_thread.o(.data)
    free_thread                              0x20000004   Data           4  app_rt_thread.o(.data)
    test_mp                                  0x20000008   Data           4  app_rt_thread.o(.data)
    p_test                                   0x2000000c   Data           4  app_rt_thread.o(.data)
    .data                                    0x20000010   Section       12  stm32f1xx_hal.o(.data)
    .data                                    0x2000001c   Section        4  system_stm32f1xx.o(.data)
    .data                                    0x20000020   Section        4  clock.o(.data)
    rt_tick                                  0x20000020   Data           4  clock.o(.data)
    .data                                    0x20000024   Section        1  irq.o(.data)
    .data                                    0x20000028   Section        4  kservice.o(.data)
    __rt_errno                               0x20000028   Data           4  kservice.o(.data)
    .data                                    0x2000002c   Section       24  mem.o(.data)
    heap_ptr                                 0x2000002c   Data           4  mem.o(.data)
    heap_end                                 0x20000030   Data           4  mem.o(.data)
    lfree                                    0x20000034   Data           4  mem.o(.data)
    mem_size_aligned                         0x20000038   Data           4  mem.o(.data)
    used_mem                                 0x2000003c   Data           4  mem.o(.data)
    max_mem                                  0x20000040   Data           4  mem.o(.data)
    .data                                    0x20000044   Section      128  object.o(.data)
    rt_object_container                      0x20000044   Data         128  object.o(.data)
    .data                                    0x200000c4   Section       20  scheduler.o(.data)
    rt_scheduler_lock_nest                   0x200000c6   Data           2  scheduler.o(.data)
    .data                                    0x200000d8   Section       20  timer.o(.data)
    random_nr                                0x200000d8   Data           4  timer.o(.data)
    rt_timer_list                            0x200000dc   Data           8  timer.o(.data)
    rt_soft_timer_list                       0x200000e4   Data           8  timer.o(.data)
    .data                                    0x200000ec   Section        4  cpuport.o(.data)
    rt_exception_hook                        0x200000ec   Data           4  cpuport.o(.data)
    .data                                    0x200000f0   Section        4  cpuport.o(.data)
    .data                                    0x200000f4   Section        4  cpuport.o(.data)
    .data                                    0x200000f8   Section        4  cpuport.o(.data)
    .bss                                     0x200000fc   Section       64  usart.o(.bss)
    .bss                                     0x2000013c   Section     4096  board.o(.bss)
    rt_heap                                  0x2000013c   Data        4096  board.o(.bss)
    .bss                                     0x2000113c   Section      384  idle.o(.bss)
    idle                                     0x2000113c   Data         128  idle.o(.bss)
    rt_thread_stack                          0x200011bc   Data         256  idle.o(.bss)
    .bss                                     0x200012bc   Section      128  kservice.o(.bss)
    rt_log_buf                               0x200012bc   Data         128  kservice.o(.bss)
    .bss                                     0x2000133c   Section       32  mem.o(.bss)
    heap_sem                                 0x2000133c   Data          32  mem.o(.bss)
    .bss                                     0x2000135c   Section      256  scheduler.o(.bss)
    .bss                                     0x2000145c   Section      640  timer.o(.bss)
    timer_thread                             0x2000145c   Data         128  timer.o(.bss)
    timer_thread_stack                       0x200014dc   Data         512  timer.o(.bss)
    STACK                                    0x200016e0   Section     1024  startup_stm32f103xb.o(STACK)

    Global Symbols

    Symbol Name                              Value     Ov Type        Size  Object(Section)

    BuildAttributes$$THM_ISAv4$P$D$K$B$S$PE$A:L22UL41UL21$X:L11$S22US41US21$IEEE1$IW$USESV6$~STKCKD$USESV7$~SHL$OSPACE$EBA8$MICROLIB$REQ8$PRES8$EABIv2 0x00000000   Number         0  anon$$obj.o ABSOLUTE
    __ARM_use_no_argv                        0x00000000   Number         0  main.o ABSOLUTE
    __cpp_initialize__aeabi_                  - Undefined Weak Reference
    __cxa_finalize                            - Undefined Weak Reference
    __decompress                              - Undefined Weak Reference
    _clock_init                               - Undefined Weak Reference
    _microlib_exit                            - Undefined Weak Reference
    __Vectors_Size                           0x000000ec   Number         0  startup_stm32f103xb.o ABSOLUTE
    __Vectors                                0x08000000   Data           4  startup_stm32f103xb.o(RESET)
    __Vectors_End                            0x080000ec   Data           0  startup_stm32f103xb.o(RESET)
    __main                                   0x080000ed   Thumb Code     0  entry.o(.ARM.Collect$$$$00000000)
    _main_stk                                0x080000ed   Thumb Code     0  entry2.o(.ARM.Collect$$$$00000001)
    _main_scatterload                        0x080000f1   Thumb Code     0  entry5.o(.ARM.Collect$$$$00000004)
    __main_after_scatterload                 0x080000f5   Thumb Code     0  entry5.o(.ARM.Collect$$$$00000004)
    _main_clock                              0x080000f5   Thumb Code     0  entry7b.o(.ARM.Collect$$$$00000008)
    _main_cpp_init                           0x080000f5   Thumb Code     0  entry8b.o(.ARM.Collect$$$$0000000A)
    _main_init                               0x080000f5   Thumb Code     0  entry9a.o(.ARM.Collect$$$$0000000B)
    __rt_final_cpp                           0x080000fd   Thumb Code     0  entry10a.o(.ARM.Collect$$$$0000000D)
    __rt_final_exit                          0x080000fd   Thumb Code     0  entry11a.o(.ARM.Collect$$$$0000000F)
    Reset_Handler                            0x08000101   Thumb Code     8  startup_stm32f103xb.o(.text)
    ADC1_2_IRQHandler                        0x0800011b   Thumb Code     0  startup_stm32f103xb.o(.text)
    CAN1_RX1_IRQHandler                      0x0800011b   Thumb Code     0  startup_stm32f103xb.o(.text)
    CAN1_SCE_IRQHandler                      0x0800011b   Thumb Code     0  startup_stm32f103xb.o(.text)
    DMA1_Channel1_IRQHandler                 0x0800011b   Thumb Code     0  startup_stm32f103xb.o(.text)
    DMA1_Channel2_IRQHandler                 0x0800011b   Thumb Code     0  startup_stm32f103xb.o(.text)
    DMA1_Channel3_IRQHandler                 0x0800011b   Thumb Code     0  startup_stm32f103xb.o(.text)
    DMA1_Channel4_IRQHandler                 0x0800011b   Thumb Code     0  startup_stm32f103xb.o(.text)
    DMA1_Channel5_IRQHandler                 0x0800011b   Thumb Code     0  startup_stm32f103xb.o(.text)
    DMA1_Channel6_IRQHandler                 0x0800011b   Thumb Code     0  startup_stm32f103xb.o(.text)
    DMA1_Channel7_IRQHandler                 0x0800011b   Thumb Code     0  startup_stm32f103xb.o(.text)
    EXTI0_IRQHandler                         0x0800011b   Thumb Code     0  startup_stm32f103xb.o(.text)
    EXTI15_10_IRQHandler                     0x0800011b   Thumb Code     0  startup_stm32f103xb.o(.text)
    EXTI1_IRQHandler                         0x0800011b   Thumb Code     0  startup_stm32f103xb.o(.text)
    EXTI2_IRQHandler                         0x0800011b   Thumb Code     0  startup_stm32f103xb.o(.text)
    EXTI3_IRQHandler                         0x0800011b   Thumb Code     0  startup_stm32f103xb.o(.text)
    EXTI4_IRQHandler                         0x0800011b   Thumb Code     0  startup_stm32f103xb.o(.text)
    EXTI9_5_IRQHandler                       0x0800011b   Thumb Code     0  startup_stm32f103xb.o(.text)
    FLASH_IRQHandler                         0x0800011b   Thumb Code     0  startup_stm32f103xb.o(.text)
    I2C1_ER_IRQHandler                       0x0800011b   Thumb Code     0  startup_stm32f103xb.o(.text)
    I2C1_EV_IRQHandler                       0x0800011b   Thumb Code     0  startup_stm32f103xb.o(.text)
    I2C2_ER_IRQHandler                       0x0800011b   Thumb Code     0  startup_stm32f103xb.o(.text)
    I2C2_EV_IRQHandler                       0x0800011b   Thumb Code     0  startup_stm32f103xb.o(.text)
    PVD_IRQHandler                           0x0800011b   Thumb Code     0  startup_stm32f103xb.o(.text)
    RCC_IRQHandler                           0x0800011b   Thumb Code     0  startup_stm32f103xb.o(.text)
    RTC_Alarm_IRQHandler                     0x0800011b   Thumb Code     0  startup_stm32f103xb.o(.text)
    RTC_IRQHandler                           0x0800011b   Thumb Code     0  startup_stm32f103xb.o(.text)
    SPI1_IRQHandler                          0x0800011b   Thumb Code     0  startup_stm32f103xb.o(.text)
    SPI2_IRQHandler                          0x0800011b   Thumb Code     0  startup_stm32f103xb.o(.text)
    TAMPER_IRQHandler                        0x0800011b   Thumb Code     0  startup_stm32f103xb.o(.text)
    TIM1_BRK_IRQHandler                      0x0800011b   Thumb Code     0  startup_stm32f103xb.o(.text)
    TIM1_CC_IRQHandler                       0x0800011b   Thumb Code     0  startup_stm32f103xb.o(.text)
    TIM1_TRG_COM_IRQHandler                  0x0800011b   Thumb Code     0  startup_stm32f103xb.o(.text)
    TIM1_UP_IRQHandler                       0x0800011b   Thumb Code     0  startup_stm32f103xb.o(.text)
    TIM2_IRQHandler                          0x0800011b   Thumb Code     0  startup_stm32f103xb.o(.text)
    TIM3_IRQHandler                          0x0800011b   Thumb Code     0  startup_stm32f103xb.o(.text)
    TIM4_IRQHandler                          0x0800011b   Thumb Code     0  startup_stm32f103xb.o(.text)
    USART1_IRQHandler                        0x0800011b   Thumb Code     0  startup_stm32f103xb.o(.text)
    USART2_IRQHandler                        0x0800011b   Thumb Code     0  startup_stm32f103xb.o(.text)
    USART3_IRQHandler                        0x0800011b   Thumb Code     0  startup_stm32f103xb.o(.text)
    USBWakeUp_IRQHandler                     0x0800011b   Thumb Code     0  startup_stm32f103xb.o(.text)
    USB_HP_CAN1_TX_IRQHandler                0x0800011b   Thumb Code     0  startup_stm32f103xb.o(.text)
    USB_LP_CAN1_RX0_IRQHandler               0x0800011b   Thumb Code     0  startup_stm32f103xb.o(.text)
    WWDG_IRQHandler                          0x0800011b   Thumb Code     0  startup_stm32f103xb.o(.text)
    rt_hw_interrupt_disable                  0x08000125   Thumb Code     8  context_rvds.o(.text)
    rt_hw_interrupt_enable                   0x0800012d   Thumb Code     6  context_rvds.o(.text)
    rt_hw_context_switch                     0x08000133   Thumb Code    32  context_rvds.o(.text)
    rt_hw_context_switch_interrupt           0x08000133   Thumb Code     0  context_rvds.o(.text)
    PendSV_Handler                           0x08000153   Thumb Code    60  context_rvds.o(.text)
    rt_hw_context_switch_to                  0x0800018f   Thumb Code    58  context_rvds.o(.text)
    rt_hw_interrupt_thread_switch            0x080001c9   Thumb Code     2  context_rvds.o(.text)
    HardFault_Handler                        0x080001cb   Thumb Code    52  context_rvds.o(.text)
    __aeabi_memset                           0x08000219   Thumb Code    14  memseta.o(.text)
    __aeabi_memset4                          0x08000219   Thumb Code     0  memseta.o(.text)
    __aeabi_memset8                          0x08000219   Thumb Code     0  memseta.o(.text)
    __aeabi_memclr                           0x08000227   Thumb Code     4  memseta.o(.text)
    __aeabi_memclr4                          0x08000227   Thumb Code     0  memseta.o(.text)
    __aeabi_memclr8                          0x08000227   Thumb Code     0  memseta.o(.text)
    _memset$wrapper                          0x0800022b   Thumb Code    18  memseta.o(.text)
    __scatterload                            0x0800023d   Thumb Code    28  init.o(.text)
    __scatterload_rt2                        0x0800023d   Thumb Code     0  init.o(.text)
    main                                     0x08000261   Thumb Code    10  components.o(i.$Sub$$main)
    BusFault_Handler                         0x0800026b   Thumb Code     2  stm32f1xx_it.o(i.BusFault_Handler)
    DebugMon_Handler                         0x0800026d   Thumb Code     2  stm32f1xx_it.o(i.DebugMon_Handler)
    Error_Handler                            0x0800026f   Thumb Code     2  main.o(i.Error_Handler)
    HAL_GPIO_Init                            0x08000271   Thumb Code   446  stm32f1xx_hal_gpio.o(i.HAL_GPIO_Init)
    HAL_GPIO_TogglePin                       0x08000451   Thumb Code    14  stm32f1xx_hal_gpio.o(i.HAL_GPIO_TogglePin)
    HAL_GPIO_WritePin                        0x0800045f   Thumb Code    10  stm32f1xx_hal_gpio.o(i.HAL_GPIO_WritePin)
    HAL_GetTick                              0x08000469   Thumb Code     6  stm32f1xx_hal.o(i.HAL_GetTick)
    HAL_Init                                 0x08000475   Thumb Code    32  stm32f1xx_hal.o(i.HAL_Init)
    HAL_InitTick                             0x08000499   Thumb Code    54  stm32f1xx_hal.o(i.HAL_InitTick)
    HAL_MspInit                              0x080004d9   Thumb Code    52  stm32f1xx_hal_msp.o(i.HAL_MspInit)
    HAL_NVIC_SetPriority                     0x08000515   Thumb Code    60  stm32f1xx_hal_cortex.o(i.HAL_NVIC_SetPriority)
    HAL_NVIC_SetPriorityGrouping             0x08000555   Thumb Code    26  stm32f1xx_hal_cortex.o(i.HAL_NVIC_SetPriorityGrouping)
    HAL_RCC_ClockConfig                      0x08000579   Thumb Code   280  stm32f1xx_hal_rcc.o(i.HAL_RCC_ClockConfig)
    HAL_RCC_GetPCLK1Freq                     0x080006a5   Thumb Code    20  stm32f1xx_hal_rcc.o(i.HAL_RCC_GetPCLK1Freq)
    HAL_RCC_GetPCLK2Freq                     0x080006c5   Thumb Code    20  stm32f1xx_hal_rcc.o(i.HAL_RCC_GetPCLK2Freq)
    HAL_RCC_GetSysClockFreq                  0x080006e5   Thumb Code    74  stm32f1xx_hal_rcc.o(i.HAL_RCC_GetSysClockFreq)
    HAL_RCC_OscConfig                        0x08000751   Thumb Code   778  stm32f1xx_hal_rcc.o(i.HAL_RCC_OscConfig)
    HAL_SYSTICK_Config                       0x08000a71   Thumb Code    40  stm32f1xx_hal_cortex.o(i.HAL_SYSTICK_Config)
    HAL_UART_Init                            0x08000a99   Thumb Code    98  stm32f1xx_hal_uart.o(i.HAL_UART_Init)
    HAL_UART_MspInit                         0x08000afd   Thumb Code   100  usart.o(i.HAL_UART_MspInit)
    HAL_UART_Transmit                        0x08000b6d   Thumb Code   186  stm32f1xx_hal_uart.o(i.HAL_UART_Transmit)
    MX_GPIO_Init                             0x08000c29   Thumb Code   138  gpio.o(i.MX_GPIO_Init)
    MX_RT_Thread_Init                        0x08000cc5   Thumb Code   108  app_rt_thread.o(i.MX_RT_Thread_Init)
    MX_USART1_UART_Init                      0x08000ddd   Thumb Code    48  usart.o(i.MX_USART1_UART_Init)
    MemManage_Handler                        0x08000e15   Thumb Code     2  stm32f1xx_it.o(i.MemManage_Handler)
    NMI_Handler                              0x08000e17   Thumb Code     2  stm32f1xx_it.o(i.NMI_Handler)
    SVC_Handler                              0x08000e19   Thumb Code     2  stm32f1xx_it.o(i.SVC_Handler)
    SysTick_Handler                          0x08000e1b   Thumb Code    18  board.o(i.SysTick_Handler)
    SystemClock_Config                       0x08000e2d   Thumb Code    78  main.o(i.SystemClock_Config)
    SystemCoreClockUpdate                    0x08000e7d   Thumb Code    82  system_stm32f1xx.o(i.SystemCoreClockUpdate)
    SystemInit                               0x08000ee5   Thumb Code    56  system_stm32f1xx.o(i.SystemInit)
    UsageFault_Handler                       0x08001049   Thumb Code     2  stm32f1xx_it.o(i.UsageFault_Handler)
    __rt_ffs                                 0x0800106d   Thumb Code    62  kservice.o(i.__rt_ffs)
    __scatterload_copy                       0x080010b1   Thumb Code    14  handlers.o(i.__scatterload_copy)
    __scatterload_null                       0x080010bf   Thumb Code     2  handlers.o(i.__scatterload_null)
    __scatterload_zeroinit                   0x080010c1   Thumb Code    14  handlers.o(i.__scatterload_zeroinit)
    $Super$$main                             0x080013bd   Thumb Code    22  main.o(i.main)
    main_thread_entry                        0x080013d3   Thumb Code    14  components.o(i.main_thread_entry)
    rt_application_init                      0x08001565   Thumb Code    32  components.o(i.rt_application_init)
    rt_components_board_init                 0x08001591   Thumb Code    20  components.o(i.rt_components_board_init)
    rt_components_init                       0x080015ad   Thumb Code    20  components.o(i.rt_components_init)
    rt_enter_critical                        0x080015c9   Thumb Code    22  scheduler.o(i.rt_enter_critical)
    rt_exit_critical                         0x080015e5   Thumb Code    52  scheduler.o(i.rt_exit_critical)
    rt_free                                  0x0800161d   Thumb Code   112  mem.o(i.rt_free)
    rt_heap_begin_get                        0x080016e1   Thumb Code     4  board.o(i.rt_heap_begin_get)
    rt_heap_end_get                          0x080016e9   Thumb Code     4  board.o(i.rt_heap_end_get)
    rt_hw_board_init                         0x080016f1   Thumb Code    70  board.o(i.rt_hw_board_init)
    rt_hw_console_output                     0x08001741   Thumb Code    58  kservice.o(i.rt_hw_console_output)
    rt_hw_hard_fault_exception               0x08001781   Thumb Code   178  cpuport.o(i.rt_hw_hard_fault_exception)
    rt_hw_stack_init                         0x08001975   Thumb Code    52  cpuport.o(i.rt_hw_stack_init)
    rt_interrupt_enter                       0x080019ad   Thumb Code    22  irq.o(i.rt_interrupt_enter)
    rt_interrupt_get_nest                    0x080019c9   Thumb Code     6  irq.o(i.rt_interrupt_get_nest)
    rt_interrupt_leave                       0x080019d5   Thumb Code    22  irq.o(i.rt_interrupt_leave)
    rt_kprintf                               0x08001a55   Thumb Code    28  kservice.o(i.rt_kprintf)
    rt_malloc                                0x08001ad1   Thumb Code   232  mem.o(i.rt_malloc)
    rt_memset                                0x08001bc1   Thumb Code    18  kservice.o(i.rt_memset)
    rt_mp_alloc                              0x08001bd3   Thumb Code   190  mempool.o(i.rt_mp_alloc)
    rt_mp_create                             0x08001c91   Thumb Code   106  mempool.o(i.rt_mp_create)
    rt_mp_delete                             0x08001cfb   Thumb Code    68  mempool.o(i.rt_mp_delete)
    rt_mp_free                               0x08001d3f   Thumb Code    70  mempool.o(i.rt_mp_free)
    rt_object_allocate                       0x08001d85   Thumb Code    80  object.o(i.rt_object_allocate)
    rt_object_delete                         0x08001dd5   Thumb Code    38  object.o(i.rt_object_delete)
    rt_object_detach                         0x08001dfb   Thumb Code    32  object.o(i.rt_object_detach)
    rt_object_get_information                0x08001e1d   Thumb Code    30  object.o(i.rt_object_get_information)
    rt_object_init                           0x08001e41   Thumb Code    80  object.o(i.rt_object_init)
    rt_object_is_systemobject                0x08001e91   Thumb Code    14  object.o(i.rt_object_is_systemobject)
    rt_schedule                              0x08001ea1   Thumb Code    76  scheduler.o(i.rt_schedule)
    rt_schedule_insert_thread                0x08001ef9   Thumb Code    70  scheduler.o(i.rt_schedule_insert_thread)
    rt_schedule_remove_thread                0x08001f49   Thumb Code    64  scheduler.o(i.rt_schedule_remove_thread)
    rt_sem_init                              0x08001f91   Thumb Code    36  ipc.o(i.rt_sem_init)
    rt_sem_release                           0x08001fb5   Thumb Code    52  ipc.o(i.rt_sem_release)
    rt_sem_take                              0x08001fe9   Thumb Code   110  ipc.o(i.rt_sem_take)
    rt_set_errno                             0x08002059   Thumb Code    26  kservice.o(i.rt_set_errno)
    rt_show_version                          0x08002079   Thumb Code    40  kservice.o(i.rt_show_version)
    rt_soft_timer_check                      0x08002129   Thumb Code   106  timer.o(i.rt_soft_timer_check)
    rt_strlen                                0x08002199   Thumb Code    16  kservice.o(i.rt_strlen)
    rt_strncpy                               0x080021a9   Thumb Code    38  kservice.o(i.rt_strncpy)
    rt_system_heap_init                      0x080021d1   Thumb Code    96  mem.o(i.rt_system_heap_init)
    rt_system_scheduler_init                 0x0800227d   Thumb Code    44  scheduler.o(i.rt_system_scheduler_init)
    rt_system_scheduler_start                0x080022b1   Thumb Code    32  scheduler.o(i.rt_system_scheduler_start)
    rt_system_timer_init                     0x080022d9   Thumb Code     8  timer.o(i.rt_system_timer_init)
    rt_system_timer_thread_init              0x080022e5   Thumb Code    46  timer.o(i.rt_system_timer_thread_init)
    rt_thread_create                         0x08002329   Thumb Code    72  thread.o(i.rt_thread_create)
    rt_thread_delay                          0x08002371   Thumb Code     4  thread.o(i.rt_thread_delay)
    rt_thread_exit                           0x08002375   Thumb Code    78  thread.o(i.rt_thread_exit)
    rt_thread_idle_excute                    0x080023d5   Thumb Code   114  idle.o(i.rt_thread_idle_excute)
    rt_thread_idle_init                      0x0800244d   Thumb Code    40  idle.o(i.rt_thread_idle_init)
    rt_thread_init                           0x08002485   Thumb Code    48  thread.o(i.rt_thread_init)
    rt_thread_resume                         0x080024b5   Thumb Code    60  thread.o(i.rt_thread_resume)
    rt_thread_self                           0x080024f1   Thumb Code     6  thread.o(i.rt_thread_self)
    rt_thread_sleep                          0x080024fd   Thumb Code    60  thread.o(i.rt_thread_sleep)
    rt_thread_startup                        0x0800253d   Thumb Code    40  thread.o(i.rt_thread_startup)
    rt_thread_suspend                        0x08002569   Thumb Code    66  thread.o(i.rt_thread_suspend)
    rt_thread_timeout                        0x080025ab   Thumb Code    32  thread.o(i.rt_thread_timeout)
    rt_thread_yield                          0x08002605   Thumb Code    86  thread.o(i.rt_thread_yield)
    rt_tick_get                              0x08002665   Thumb Code     6  clock.o(i.rt_tick_get)
    rt_tick_increase                         0x08002671   Thumb Code    38  clock.o(i.rt_tick_increase)
    rt_timer_check                           0x0800269d   Thumb Code    98  timer.o(i.rt_timer_check)
    rt_timer_control                         0x08002705   Thumb Code    48  timer.o(i.rt_timer_control)
    rt_timer_detach                          0x08002735   Thumb Code    32  timer.o(i.rt_timer_detach)
    rt_timer_init                            0x08002755   Thumb Code    40  timer.o(i.rt_timer_init)
    rt_timer_start                           0x0800278d   Thumb Code   178  timer.o(i.rt_timer_start)
    rt_timer_stop                            0x08002849   Thumb Code    46  timer.o(i.rt_timer_stop)
    rt_vsnprintf                             0x08002879   Thumb Code   626  kservice.o(i.rt_vsnprintf)
    rtthread_startup                         0x08002b05   Thumb Code    42  components.o(i.rtthread_startup)
    AHBPrescTable                            0x08002b56   Data          16  system_stm32f1xx.o(.constdata)
    APBPrescTable                            0x08002b66   Data           8  system_stm32f1xx.o(.constdata)
    __lowest_bit_bitmap                      0x08002b6e   Data         256  kservice.o(.constdata)
    __rt_init_rti_start                      0x08002c90   Data           4  components.o(.rti_fn.0)
    __rt_init_rti_board_start                0x08002c94   Data           4  components.o(.rti_fn.0.end)
    __rt_init_rti_board_end                  0x08002c98   Data           4  components.o(.rti_fn.1.end)
    __rt_init_rti_end                        0x08002c9c   Data           4  components.o(.rti_fn.6.end)
    Region$$Table$$Base                      0x08002ca0   Number         0  anon$$obj.o(Region$$Table)
    Region$$Table$$Limit                     0x08002cc0   Number         0  anon$$obj.o(Region$$Table)
    uwTickFreq                               0x20000010   Data           1  stm32f1xx_hal.o(.data)
    uwTickPrio                               0x20000014   Data           4  stm32f1xx_hal.o(.data)
    uwTick                                   0x20000018   Data           4  stm32f1xx_hal.o(.data)
    SystemCoreClock                          0x2000001c   Data           4  system_stm32f1xx.o(.data)
    rt_interrupt_nest                        0x20000024   Data           1  irq.o(.data)
    rt_current_priority                      0x200000c4   Data           1  scheduler.o(.data)
    rt_current_thread                        0x200000c8   Data           4  scheduler.o(.data)
    rt_thread_ready_priority_group           0x200000cc   Data           4  scheduler.o(.data)
    rt_thread_defunct                        0x200000d0   Data           8  scheduler.o(.data)
    rt_interrupt_from_thread                 0x200000f0   Data           4  cpuport.o(.data)
    rt_interrupt_to_thread                   0x200000f4   Data           4  cpuport.o(.data)
    rt_thread_switch_interrupt_flag          0x200000f8   Data           4  cpuport.o(.data)
    huart1                                   0x200000fc   Data          64  usart.o(.bss)
    rt_thread_priority_table                 0x2000135c   Data         256  scheduler.o(.bss)
    __initial_sp                             0x20001ae0   Data           0  startup_stm32f103xb.o(STACK)



==============================================================================

Memory Map of the image

  Image Entry point : 0x080000ed

  Load Region LR_IROM1 (Base: 0x08000000, Size: 0x00002dbc, Max: 0x00020000, ABSOLUTE)

    Execution Region ER_IROM1 (Exec base: 0x08000000, Load base: 0x08000000, Size: 0x00002cc0, Max: 0x00020000, ABSOLUTE)

    Exec Addr    Load Addr    Size         Type   Attr      Idx    E Section Name        Object

    0x08000000   0x08000000   0x000000ec   Data   RO            3    RESET               startup_stm32f103xb.o
    0x080000ec   0x080000ec   0x00000000   Code   RO         2912  * .ARM.Collect$$$$00000000  mc_w.l(entry.o)
    0x080000ec   0x080000ec   0x00000004   Code   RO         2919    .ARM.Collect$$$$00000001  mc_w.l(entry2.o)
    0x080000f0   0x080000f0   0x00000004   Code   RO         2922    .ARM.Collect$$$$00000004  mc_w.l(entry5.o)
    0x080000f4   0x080000f4   0x00000000   Code   RO         2924    .ARM.Collect$$$$00000008  mc_w.l(entry7b.o)
    0x080000f4   0x080000f4   0x00000000   Code   RO         2926    .ARM.Collect$$$$0000000A  mc_w.l(entry8b.o)
    0x080000f4   0x080000f4   0x00000008   Code   RO         2927    .ARM.Collect$$$$0000000B  mc_w.l(entry9a.o)
    0x080000fc   0x080000fc   0x00000000   Code   RO         2929    .ARM.Collect$$$$0000000D  mc_w.l(entry10a.o)
    0x080000fc   0x080000fc   0x00000000   Code   RO         2931    .ARM.Collect$$$$0000000F  mc_w.l(entry11a.o)
    0x080000fc   0x080000fc   0x00000004   Code   RO         2920    .ARM.Collect$$$$00002712  mc_w.l(entry2.o)
    0x08000100   0x08000100   0x00000024   Code   RO            4    .text               startup_stm32f103xb.o
    0x08000124   0x08000124   0x000000f4   Code   RO         1802    .text               context_rvds.o
    0x08000218   0x08000218   0x00000024   Code   RO         2917    .text               mc_w.l(memseta.o)
    0x0800023c   0x0800023c   0x00000024   Code   RO         2933    .text               mc_w.l(init.o)
    0x08000260   0x08000260   0x0000000a   Code   RO         1877    i.$Sub$$main        components.o
    0x0800026a   0x0800026a   0x00000002   Code   RO          265    i.BusFault_Handler  stm32f1xx_it.o
    0x0800026c   0x0800026c   0x00000002   Code   RO          266    i.DebugMon_Handler  stm32f1xx_it.o
    0x0800026e   0x0800026e   0x00000002   Code   RO          156    i.Error_Handler     main.o
    0x08000270   0x08000270   0x000001e0   Code   RO          745    i.HAL_GPIO_Init     stm32f1xx_hal_gpio.o
    0x08000450   0x08000450   0x0000000e   Code   RO          748    i.HAL_GPIO_TogglePin  stm32f1xx_hal_gpio.o
    0x0800045e   0x0800045e   0x0000000a   Code   RO          749    i.HAL_GPIO_WritePin  stm32f1xx_hal_gpio.o
    0x08000468   0x08000468   0x0000000c   Code   RO          441    i.HAL_GetTick       stm32f1xx_hal.o
    0x08000474   0x08000474   0x00000024   Code   RO          448    i.HAL_Init          stm32f1xx_hal.o
    0x08000498   0x08000498   0x00000040   Code   RO          449    i.HAL_InitTick      stm32f1xx_hal.o
    0x080004d8   0x080004d8   0x0000003c   Code   RO          322    i.HAL_MspInit       stm32f1xx_hal_msp.o
    0x08000514   0x08000514   0x00000040   Code   RO          911    i.HAL_NVIC_SetPriority  stm32f1xx_hal_cortex.o
    0x08000554   0x08000554   0x00000024   Code   RO          912    i.HAL_NVIC_SetPriorityGrouping  stm32f1xx_hal_cortex.o
    0x08000578   0x08000578   0x0000012c   Code   RO          605    i.HAL_RCC_ClockConfig  stm32f1xx_hal_rcc.o
    0x080006a4   0x080006a4   0x00000020   Code   RO          612    i.HAL_RCC_GetPCLK1Freq  stm32f1xx_hal_rcc.o
    0x080006c4   0x080006c4   0x00000020   Code   RO          613    i.HAL_RCC_GetPCLK2Freq  stm32f1xx_hal_rcc.o
    0x080006e4   0x080006e4   0x0000006c   Code   RO          614    i.HAL_RCC_GetSysClockFreq  stm32f1xx_hal_rcc.o
    0x08000750   0x08000750   0x00000320   Code   RO          617    i.HAL_RCC_OscConfig  stm32f1xx_hal_rcc.o
    0x08000a70   0x08000a70   0x00000028   Code   RO          916    i.HAL_SYSTICK_Config  stm32f1xx_hal_cortex.o
    0x08000a98   0x08000a98   0x00000062   Code   RO         1466    i.HAL_UART_Init     stm32f1xx_hal_uart.o
    0x08000afa   0x08000afa   0x00000002   PAD
    0x08000afc   0x08000afc   0x00000070   Code   RO          224    i.HAL_UART_MspInit  usart.o
    0x08000b6c   0x08000b6c   0x000000ba   Code   RO         1474    i.HAL_UART_Transmit  stm32f1xx_hal_uart.o
    0x08000c26   0x08000c26   0x00000002   PAD
    0x08000c28   0x08000c28   0x0000009c   Code   RO          199    i.MX_GPIO_Init      gpio.o
    0x08000cc4   0x08000cc4   0x00000118   Code   RO           13    i.MX_RT_Thread_Init  app_rt_thread.o
    0x08000ddc   0x08000ddc   0x00000038   Code   RO          225    i.MX_USART1_UART_Init  usart.o
    0x08000e14   0x08000e14   0x00000002   Code   RO          267    i.MemManage_Handler  stm32f1xx_it.o
    0x08000e16   0x08000e16   0x00000002   Code   RO          268    i.NMI_Handler       stm32f1xx_it.o
    0x08000e18   0x08000e18   0x00000002   Code   RO          269    i.SVC_Handler       stm32f1xx_it.o
    0x08000e1a   0x08000e1a   0x00000012   Code   RO         1806    i.SysTick_Handler   board.o
    0x08000e2c   0x08000e2c   0x0000004e   Code   RO          157    i.SystemClock_Config  main.o
    0x08000e7a   0x08000e7a   0x00000002   PAD
    0x08000e7c   0x08000e7c   0x00000068   Code   RO         1767    i.SystemCoreClockUpdate  system_stm32f1xx.o
    0x08000ee4   0x08000ee4   0x00000048   Code   RO         1768    i.SystemInit        system_stm32f1xx.o
    0x08000f2c   0x08000f2c   0x000000b8   Code   RO         1492    i.UART_SetConfig    stm32f1xx_hal_uart.o
    0x08000fe4   0x08000fe4   0x00000064   Code   RO         1494    i.UART_WaitOnFlagUntilTimeout  stm32f1xx_hal_uart.o
    0x08001048   0x08001048   0x00000002   Code   RO          270    i.UsageFault_Handler  stm32f1xx_it.o
    0x0800104a   0x0800104a   0x00000020   Code   RO          918    i.__NVIC_SetPriority  stm32f1xx_hal_cortex.o
    0x0800106a   0x0800106a   0x00000002   PAD
    0x0800106c   0x0800106c   0x00000044   Code   RO         2271    i.__rt_ffs          kservice.o
    0x080010b0   0x080010b0   0x0000000e   Code   RO         2937    i.__scatterload_copy  mc_w.l(handlers.o)
    0x080010be   0x080010be   0x00000002   Code   RO         2938    i.__scatterload_null  mc_w.l(handlers.o)
    0x080010c0   0x080010c0   0x0000000e   Code   RO         2939    i.__scatterload_zeroinit  mc_w.l(handlers.o)
    0x080010ce   0x080010ce   0x00000002   PAD
    0x080010d0   0x080010d0   0x00000014   Code   RO         1944    i._has_defunct_thread  idle.o
    0x080010e4   0x080010e4   0x00000074   Code   RO         2641    i._rt_thread_init   thread.o
    0x08001158   0x08001158   0x0000001c   Code   RO         2761    i._rt_timer_init    timer.o
    0x08001174   0x08001174   0x00000012   Code   RO         2762    i._rt_timer_remove  timer.o
    0x08001186   0x08001186   0x00000002   PAD
    0x08001188   0x08001188   0x00000174   Code   RO           14    i.alloc_thread_entry  app_rt_thread.o
    0x080012fc   0x080012fc   0x000000c0   Code   RO           15    i.free_thread_entry  app_rt_thread.o
    0x080013bc   0x080013bc   0x00000016   Code   RO          158    i.main              main.o
    0x080013d2   0x080013d2   0x0000000e   Code   RO         1878    i.main_thread_entry  components.o
    0x080013e0   0x080013e0   0x00000054   Code   RO         2454    i.plug_holes        mem.o
    0x08001434   0x08001434   0x00000130   Code   RO         2273    i.print_number      kservice.o
    0x08001564   0x08001564   0x0000002c   Code   RO         1879    i.rt_application_init  components.o
    0x08001590   0x08001590   0x0000001c   Code   RO         1880    i.rt_components_board_init  components.o
    0x080015ac   0x080015ac   0x0000001c   Code   RO         1881    i.rt_components_init  components.o
    0x080015c8   0x080015c8   0x0000001c   Code   RO         2580    i.rt_enter_critical  scheduler.o
    0x080015e4   0x080015e4   0x00000038   Code   RO         2581    i.rt_exit_critical  scheduler.o
    0x0800161c   0x0800161c   0x000000c4   Code   RO         2456    i.rt_free           mem.o
    0x080016e0   0x080016e0   0x00000008   Code   RO         1807    i.rt_heap_begin_get  board.o
    0x080016e8   0x080016e8   0x00000008   Code   RO         1808    i.rt_heap_end_get   board.o
    0x080016f0   0x080016f0   0x00000050   Code   RO         1809    i.rt_hw_board_init  board.o
    0x08001740   0x08001740   0x00000040   Code   RO         2276    i.rt_hw_console_output  kservice.o
    0x08001780   0x08001780   0x000001f4   Code   RO         2873    i.rt_hw_hard_fault_exception  cpuport.o
    0x08001974   0x08001974   0x00000038   Code   RO         2874    i.rt_hw_stack_init  cpuport.o
    0x080019ac   0x080019ac   0x0000001c   Code   RO         2241    i.rt_interrupt_enter  irq.o
    0x080019c8   0x080019c8   0x0000000c   Code   RO         2242    i.rt_interrupt_get_nest  irq.o
    0x080019d4   0x080019d4   0x0000001c   Code   RO         2243    i.rt_interrupt_leave  irq.o
    0x080019f0   0x080019f0   0x0000000e   Code   RO         1991    i.rt_ipc_list_resume  ipc.o
    0x080019fe   0x080019fe   0x00000002   PAD
    0x08001a00   0x08001a00   0x00000052   Code   RO         1993    i.rt_ipc_list_suspend  ipc.o
    0x08001a52   0x08001a52   0x00000002   PAD
    0x08001a54   0x08001a54   0x00000020   Code   RO         2277    i.rt_kprintf        kservice.o
    0x08001a74   0x08001a74   0x0000000e   Code   RO         2504    i.rt_list_insert_after  object.o
    0x08001a82   0x08001a82   0x0000000e   Code   RO         2642    i.rt_list_insert_after  thread.o
    0x08001a90   0x08001a90   0x0000000e   Code   RO         2763    i.rt_list_insert_after  timer.o
    0x08001a9e   0x08001a9e   0x0000000e   Code   RO         1994    i.rt_list_insert_before  ipc.o
    0x08001aac   0x08001aac   0x00000012   Code   RO         2505    i.rt_list_remove    object.o
    0x08001abe   0x08001abe   0x00000012   Code   RO         2643    i.rt_list_remove    thread.o
    0x08001ad0   0x08001ad0   0x000000f0   Code   RO         2457    i.rt_malloc         mem.o
    0x08001bc0   0x08001bc0   0x00000012   Code   RO         2283    i.rt_memset         kservice.o
    0x08001bd2   0x08001bd2   0x000000be   Code   RO          343    i.rt_mp_alloc       mempool.o
    0x08001c90   0x08001c90   0x0000006a   Code   RO          344    i.rt_mp_create      mempool.o
    0x08001cfa   0x08001cfa   0x00000044   Code   RO          345    i.rt_mp_delete      mempool.o
    0x08001d3e   0x08001d3e   0x00000046   Code   RO          347    i.rt_mp_free        mempool.o
    0x08001d84   0x08001d84   0x00000050   Code   RO         2506    i.rt_object_allocate  object.o
    0x08001dd4   0x08001dd4   0x00000026   Code   RO         2507    i.rt_object_delete  object.o
    0x08001dfa   0x08001dfa   0x00000020   Code   RO         2508    i.rt_object_detach  object.o
    0x08001e1a   0x08001e1a   0x00000002   PAD
    0x08001e1c   0x08001e1c   0x00000024   Code   RO         2510    i.rt_object_get_information  object.o
    0x08001e40   0x08001e40   0x00000050   Code   RO         2512    i.rt_object_init    object.o
    0x08001e90   0x08001e90   0x0000000e   Code   RO         2513    i.rt_object_is_systemobject  object.o
    0x08001e9e   0x08001e9e   0x00000002   PAD
    0x08001ea0   0x08001ea0   0x00000058   Code   RO         2582    i.rt_schedule       scheduler.o
    0x08001ef8   0x08001ef8   0x00000050   Code   RO         2583    i.rt_schedule_insert_thread  scheduler.o
    0x08001f48   0x08001f48   0x00000048   Code   RO         2584    i.rt_schedule_remove_thread  scheduler.o
    0x08001f90   0x08001f90   0x00000024   Code   RO         2022    i.rt_sem_init       ipc.o
    0x08001fb4   0x08001fb4   0x00000034   Code   RO         2023    i.rt_sem_release    ipc.o
    0x08001fe8   0x08001fe8   0x0000006e   Code   RO         2024    i.rt_sem_take       ipc.o
    0x08002056   0x08002056   0x00000002   PAD
    0x08002058   0x08002058   0x00000020   Code   RO         2284    i.rt_set_errno      kservice.o
    0x08002078   0x08002078   0x000000b0   Code   RO         2285    i.rt_show_version   kservice.o
    0x08002128   0x08002128   0x00000070   Code   RO         2764    i.rt_soft_timer_check  timer.o
    0x08002198   0x08002198   0x00000010   Code   RO         2291    i.rt_strlen         kservice.o
    0x080021a8   0x080021a8   0x00000026   Code   RO         2293    i.rt_strncpy        kservice.o
    0x080021ce   0x080021ce   0x00000002   PAD
    0x080021d0   0x080021d0   0x000000ac   Code   RO         2460    i.rt_system_heap_init  mem.o
    0x0800227c   0x0800227c   0x00000034   Code   RO         2585    i.rt_system_scheduler_init  scheduler.o
    0x080022b0   0x080022b0   0x00000028   Code   RO         2586    i.rt_system_scheduler_start  scheduler.o
    0x080022d8   0x080022d8   0x0000000c   Code   RO         2765    i.rt_system_timer_init  timer.o
    0x080022e4   0x080022e4   0x00000044   Code   RO         2766    i.rt_system_timer_thread_init  timer.o
    0x08002328   0x08002328   0x00000048   Code   RO         2645    i.rt_thread_create  thread.o
    0x08002370   0x08002370   0x00000004   Code   RO         2646    i.rt_thread_delay   thread.o
    0x08002374   0x08002374   0x00000058   Code   RO         2649    i.rt_thread_exit    thread.o
    0x080023cc   0x080023cc   0x00000006   Code   RO         1945    i.rt_thread_idle_entry  idle.o
    0x080023d2   0x080023d2   0x00000002   PAD
    0x080023d4   0x080023d4   0x00000078   Code   RO         1946    i.rt_thread_idle_excute  idle.o
    0x0800244c   0x0800244c   0x00000038   Code   RO         1948    i.rt_thread_idle_init  idle.o
    0x08002484   0x08002484   0x00000030   Code   RO         2651    i.rt_thread_init    thread.o
    0x080024b4   0x080024b4   0x0000003c   Code   RO         2653    i.rt_thread_resume  thread.o
    0x080024f0   0x080024f0   0x0000000c   Code   RO         2654    i.rt_thread_self    thread.o
    0x080024fc   0x080024fc   0x00000040   Code   RO         2655    i.rt_thread_sleep   thread.o
    0x0800253c   0x0800253c   0x0000002c   Code   RO         2656    i.rt_thread_startup  thread.o
    0x08002568   0x08002568   0x00000042   Code   RO         2657    i.rt_thread_suspend  thread.o
    0x080025aa   0x080025aa   0x00000020   Code   RO         2658    i.rt_thread_timeout  thread.o
    0x080025ca   0x080025ca   0x00000002   PAD
    0x080025cc   0x080025cc   0x00000038   Code   RO         2767    i.rt_thread_timer_entry  timer.o
    0x08002604   0x08002604   0x00000060   Code   RO         2659    i.rt_thread_yield   thread.o
    0x08002664   0x08002664   0x0000000c   Code   RO         1841    i.rt_tick_get       clock.o
    0x08002670   0x08002670   0x0000002c   Code   RO         1842    i.rt_tick_increase  clock.o
    0x0800269c   0x0800269c   0x00000068   Code   RO         2768    i.rt_timer_check    timer.o
    0x08002704   0x08002704   0x00000030   Code   RO         2769    i.rt_timer_control  timer.o
    0x08002734   0x08002734   0x00000020   Code   RO         2772    i.rt_timer_detach   timer.o
    0x08002754   0x08002754   0x00000028   Code   RO         2773    i.rt_timer_init     timer.o
    0x0800277c   0x0800277c   0x00000010   Code   RO         2774    i.rt_timer_list_next_timeout  timer.o
    0x0800278c   0x0800278c   0x000000bc   Code   RO         2776    i.rt_timer_start    timer.o
    0x08002848   0x08002848   0x0000002e   Code   RO         2777    i.rt_timer_stop     timer.o
    0x08002876   0x08002876   0x00000002   PAD
    0x08002878   0x08002878   0x0000027c   Code   RO         2296    i.rt_vsnprintf      kservice.o
    0x08002af4   0x08002af4   0x00000004   Code   RO         1882    i.rti_board_end     components.o
    0x08002af8   0x08002af8   0x00000004   Code   RO         1883    i.rti_board_start   components.o
    0x08002afc   0x08002afc   0x00000004   Code   RO         1884    i.rti_end           components.o
    0x08002b00   0x08002b00   0x00000004   Code   RO         1885    i.rti_start         components.o
    0x08002b04   0x08002b04   0x0000002a   Code   RO         1886    i.rtthread_startup  components.o
    0x08002b2e   0x08002b2e   0x00000028   Code   RO         2298    i.skip_atoi         kservice.o
    0x08002b56   0x08002b56   0x00000010   Data   RO         1769    .constdata          system_stm32f1xx.o
    0x08002b66   0x08002b66   0x00000008   Data   RO         1770    .constdata          system_stm32f1xx.o
    0x08002b6e   0x08002b6e   0x00000122   Data   RO         2300    .constdata          kservice.o
    0x08002c90   0x08002c90   0x00000004   Data   RO         1887    .rti_fn.0           components.o
    0x08002c94   0x08002c94   0x00000004   Data   RO         1888    .rti_fn.0.end       components.o
    0x08002c98   0x08002c98   0x00000004   Data   RO         1889    .rti_fn.1.end       components.o
    0x08002c9c   0x08002c9c   0x00000004   Data   RO         1890    .rti_fn.6.end       components.o
    0x08002ca0   0x08002ca0   0x00000020   Data   RO         2935    Region$$Table       anon$$obj.o


    Execution Region RW_IRAM1 (Exec base: 0x20000000, Load base: 0x08002cc0, Size: 0x00001ae0, Max: 0x00005000, ABSOLUTE)

    Exec Addr    Load Addr    Size         Type   Attr      Idx    E Section Name        Object

    0x20000000   0x08002cc0   0x00000010   Data   RW           16    .data               app_rt_thread.o
    0x20000010   0x08002cd0   0x0000000c   Data   RW          455    .data               stm32f1xx_hal.o
    0x2000001c   0x08002cdc   0x00000004   Data   RW         1771    .data               system_stm32f1xx.o
    0x20000020   0x08002ce0   0x00000004   Data   RW         1844    .data               clock.o
    0x20000024   0x08002ce4   0x00000001   Data   RW         2244    .data               irq.o
    0x20000025   0x08002ce5   0x00000003   PAD
    0x20000028   0x08002ce8   0x00000004   Data   RW         2301    .data               kservice.o
    0x2000002c   0x08002cec   0x00000018   Data   RW         2462    .data               mem.o
    0x20000044   0x08002d04   0x00000080   Data   RW         2515    .data               object.o
    0x200000c4   0x08002d84   0x00000014   Data   RW         2588    .data               scheduler.o
    0x200000d8   0x08002d98   0x00000014   Data   RW         2779    .data               timer.o
    0x200000ec   0x08002dac   0x00000004   Data   RW         2875    .data               cpuport.o
    0x200000f0   0x08002db0   0x00000004   Data   RW         2876    .data               cpuport.o
    0x200000f4   0x08002db4   0x00000004   Data   RW         2877    .data               cpuport.o
    0x200000f8   0x08002db8   0x00000004   Data   RW         2878    .data               cpuport.o
    0x200000fc        -       0x00000040   Zero   RW          226    .bss                usart.o
    0x2000013c        -       0x00001000   Zero   RW         1810    .bss                board.o
    0x2000113c        -       0x00000180   Zero   RW         1949    .bss                idle.o
    0x200012bc        -       0x00000080   Zero   RW         2299    .bss                kservice.o
    0x2000133c        -       0x00000020   Zero   RW         2461    .bss                mem.o
    0x2000135c        -       0x00000100   Zero   RW         2587    .bss                scheduler.o
    0x2000145c        -       0x00000280   Zero   RW         2778    .bss                timer.o
    0x200016dc   0x08002dbc   0x00000004   PAD
    0x200016e0        -       0x00000400   Zero   RW            1    STACK               startup_stm32f103xb.o


==============================================================================

Image component sizes


      Code (inc. data)   RO Data    RW Data    ZI Data      Debug   Object Name

       844        578          0         16          0     400048   app_rt_thread.o
       114         18          0          0       4096       3345   board.o
        56         12          0          4          0       1349   clock.o
       182         28         16          0          0       6454   components.o
       244         26          0          0          0        852   context_rvds.o
       556        326          0         16          0       3474   cpuport.o
       156         18          0          0          0        911   gpio.o
       202         26          0          0        384       5958   idle.o
       308          0          0          0          0       7668   ipc.o
        68         18          0          1          0       2350   irq.o
      1424        172        290          4        128      11446   kservice.o
       102          0          0          0          0       1676   main.o
       692        172          0         24         32       4248   mem.o
       434          0          0          0          0       6125   mempool.o
       312          6          0        128          0       9064   object.o
       416         56          0         20        256       8742   scheduler.o
        36          8        236          0       1024        796   startup_stm32f103xb.o
       112         20          0         12          0       4763   stm32f1xx_hal.o
       172         14          0          0          0      28238   stm32f1xx_hal_cortex.o
       504         34          0          0          0       3457   stm32f1xx_hal_gpio.o
        60          8          0          0          0        826   stm32f1xx_hal_msp.o
      1272        100          0          0          0       5140   stm32f1xx_hal_rcc.o
       568          6          0          0          0       3884   stm32f1xx_hal_uart.o
        12          0          0          0          0       2475   stm32f1xx_it.o
       176         38         24          4          0       1747   system_stm32f1xx.o
       734         42          0          0          0      12740   thread.o
       782         54          0         20        640      13358   timer.o
       168         20          0          0         64       1606   usart.o

    ----------------------------------------------------------------------
     10734       1800        598        252       6628     552740   Object Totals
         0          0         32          0          0          0   (incl. Generated)
        28          0          0          3          4          0   (incl. Padding)

    ----------------------------------------------------------------------

      Code (inc. data)   RO Data    RW Data    ZI Data      Debug   Library Member Name

         0          0          0          0          0          0   entry.o
         0          0          0          0          0          0   entry10a.o
         0          0          0          0          0          0   entry11a.o
         8          4          0          0          0          0   entry2.o
         4          0          0          0          0          0   entry5.o
         0          0          0          0          0          0   entry7b.o
         0          0          0          0          0          0   entry8b.o
         8          4          0          0          0          0   entry9a.o
        30          0          0          0          0          0   handlers.o
        36          8          0          0          0         68   init.o
        36          0          0          0          0        108   memseta.o

    ----------------------------------------------------------------------
       124         16          0          0          0        176   Library Totals
         2          0          0          0          0          0   (incl. Padding)

    ----------------------------------------------------------------------

      Code (inc. data)   RO Data    RW Data    ZI Data      Debug   Library Name

       122         16          0          0          0        176   mc_w.l

    ----------------------------------------------------------------------
       124         16          0          0          0        176   Library Totals

    ----------------------------------------------------------------------

==============================================================================


      Code (inc. data)   RO Data    RW Data    ZI Data      Debug   

     10858       1816        598        252       6628     546516   Grand Totals
     10858       1816        598        252       6628     546516   ELF Image Totals
     10858       1816        598        252          0          0   ROM Totals

==============================================================================

    Total RO  Size (Code + RO Data)                11456 (  11.19kB)
    Total RW  Size (RW Data + ZI Data)              6880 (   6.72kB)
    Total ROM Size (Code + RO Data + RW Data)      11708 (  11.43kB)

==============================================================================

